{
	"CSE426Project/ERC1155SmartContract.sol": {
		"GameItems": {
			"abi": [
				{
					"inputs": [],
					"stateMutability": "nonpayable",
					"type": "constructor"
				},
				{
					"inputs": [
						{
							"internalType": "address",
							"name": "sender",
							"type": "address"
						},
						{
							"internalType": "uint256",
							"name": "balance",
							"type": "uint256"
						},
						{
							"internalType": "uint256",
							"name": "needed",
							"type": "uint256"
						},
						{
							"internalType": "uint256",
							"name": "tokenId",
							"type": "uint256"
						}
					],
					"name": "ERC1155InsufficientBalance",
					"type": "error"
				},
				{
					"inputs": [
						{
							"internalType": "address",
							"name": "approver",
							"type": "address"
						}
					],
					"name": "ERC1155InvalidApprover",
					"type": "error"
				},
				{
					"inputs": [
						{
							"internalType": "uint256",
							"name": "idsLength",
							"type": "uint256"
						},
						{
							"internalType": "uint256",
							"name": "valuesLength",
							"type": "uint256"
						}
					],
					"name": "ERC1155InvalidArrayLength",
					"type": "error"
				},
				{
					"inputs": [
						{
							"internalType": "address",
							"name": "operator",
							"type": "address"
						}
					],
					"name": "ERC1155InvalidOperator",
					"type": "error"
				},
				{
					"inputs": [
						{
							"internalType": "address",
							"name": "receiver",
							"type": "address"
						}
					],
					"name": "ERC1155InvalidReceiver",
					"type": "error"
				},
				{
					"inputs": [
						{
							"internalType": "address",
							"name": "sender",
							"type": "address"
						}
					],
					"name": "ERC1155InvalidSender",
					"type": "error"
				},
				{
					"inputs": [
						{
							"internalType": "address",
							"name": "operator",
							"type": "address"
						},
						{
							"internalType": "address",
							"name": "owner",
							"type": "address"
						}
					],
					"name": "ERC1155MissingApprovalForAll",
					"type": "error"
				},
				{
					"inputs": [
						{
							"internalType": "address",
							"name": "owner",
							"type": "address"
						}
					],
					"name": "OwnableInvalidOwner",
					"type": "error"
				},
				{
					"inputs": [
						{
							"internalType": "address",
							"name": "account",
							"type": "address"
						}
					],
					"name": "OwnableUnauthorizedAccount",
					"type": "error"
				},
				{
					"anonymous": false,
					"inputs": [
						{
							"indexed": true,
							"internalType": "address",
							"name": "account",
							"type": "address"
						},
						{
							"indexed": true,
							"internalType": "address",
							"name": "operator",
							"type": "address"
						},
						{
							"indexed": false,
							"internalType": "bool",
							"name": "approved",
							"type": "bool"
						}
					],
					"name": "ApprovalForAll",
					"type": "event"
				},
				{
					"anonymous": false,
					"inputs": [
						{
							"indexed": true,
							"internalType": "address",
							"name": "previousOwner",
							"type": "address"
						},
						{
							"indexed": true,
							"internalType": "address",
							"name": "newOwner",
							"type": "address"
						}
					],
					"name": "OwnershipTransferred",
					"type": "event"
				},
				{
					"anonymous": false,
					"inputs": [
						{
							"indexed": true,
							"internalType": "address",
							"name": "operator",
							"type": "address"
						},
						{
							"indexed": true,
							"internalType": "address",
							"name": "from",
							"type": "address"
						},
						{
							"indexed": true,
							"internalType": "address",
							"name": "to",
							"type": "address"
						},
						{
							"indexed": false,
							"internalType": "uint256[]",
							"name": "ids",
							"type": "uint256[]"
						},
						{
							"indexed": false,
							"internalType": "uint256[]",
							"name": "values",
							"type": "uint256[]"
						}
					],
					"name": "TransferBatch",
					"type": "event"
				},
				{
					"anonymous": false,
					"inputs": [
						{
							"indexed": true,
							"internalType": "address",
							"name": "operator",
							"type": "address"
						},
						{
							"indexed": true,
							"internalType": "address",
							"name": "from",
							"type": "address"
						},
						{
							"indexed": true,
							"internalType": "address",
							"name": "to",
							"type": "address"
						},
						{
							"indexed": false,
							"internalType": "uint256",
							"name": "id",
							"type": "uint256"
						},
						{
							"indexed": false,
							"internalType": "uint256",
							"name": "value",
							"type": "uint256"
						}
					],
					"name": "TransferSingle",
					"type": "event"
				},
				{
					"anonymous": false,
					"inputs": [
						{
							"indexed": false,
							"internalType": "string",
							"name": "value",
							"type": "string"
						},
						{
							"indexed": true,
							"internalType": "uint256",
							"name": "id",
							"type": "uint256"
						}
					],
					"name": "URI",
					"type": "event"
				},
				{
					"inputs": [
						{
							"internalType": "address",
							"name": "account",
							"type": "address"
						},
						{
							"internalType": "uint256",
							"name": "id",
							"type": "uint256"
						}
					],
					"name": "balanceOf",
					"outputs": [
						{
							"internalType": "uint256",
							"name": "",
							"type": "uint256"
						}
					],
					"stateMutability": "view",
					"type": "function"
				},
				{
					"inputs": [
						{
							"internalType": "address[]",
							"name": "accounts",
							"type": "address[]"
						},
						{
							"internalType": "uint256[]",
							"name": "ids",
							"type": "uint256[]"
						}
					],
					"name": "balanceOfBatch",
					"outputs": [
						{
							"internalType": "uint256[]",
							"name": "",
							"type": "uint256[]"
						}
					],
					"stateMutability": "view",
					"type": "function"
				},
				{
					"inputs": [
						{
							"internalType": "address",
							"name": "owner",
							"type": "address"
						},
						{
							"internalType": "uint256",
							"name": "itemId",
							"type": "uint256"
						},
						{
							"internalType": "uint256",
							"name": "amount",
							"type": "uint256"
						}
					],
					"name": "burnItem",
					"outputs": [],
					"stateMutability": "nonpayable",
					"type": "function"
				},
				{
					"inputs": [
						{
							"internalType": "enum GameItems.ItemType",
							"name": "itemType",
							"type": "uint8"
						},
						{
							"internalType": "string",
							"name": "name",
							"type": "string"
						},
						{
							"internalType": "string",
							"name": "description",
							"type": "string"
						}
					],
					"name": "createItem",
					"outputs": [
						{
							"internalType": "uint256",
							"name": "",
							"type": "uint256"
						}
					],
					"stateMutability": "nonpayable",
					"type": "function"
				},
				{
					"inputs": [
						{
							"internalType": "address",
							"name": "account",
							"type": "address"
						},
						{
							"internalType": "address",
							"name": "operator",
							"type": "address"
						}
					],
					"name": "isApprovedForAll",
					"outputs": [
						{
							"internalType": "bool",
							"name": "",
							"type": "bool"
						}
					],
					"stateMutability": "view",
					"type": "function"
				},
				{
					"inputs": [
						{
							"internalType": "uint256",
							"name": "",
							"type": "uint256"
						}
					],
					"name": "items",
					"outputs": [
						{
							"internalType": "uint256",
							"name": "id",
							"type": "uint256"
						},
						{
							"internalType": "enum GameItems.ItemType",
							"name": "itemType",
							"type": "uint8"
						},
						{
							"internalType": "string",
							"name": "name",
							"type": "string"
						},
						{
							"internalType": "string",
							"name": "description",
							"type": "string"
						}
					],
					"stateMutability": "view",
					"type": "function"
				},
				{
					"inputs": [
						{
							"internalType": "address",
							"name": "to",
							"type": "address"
						},
						{
							"internalType": "uint256",
							"name": "itemId",
							"type": "uint256"
						},
						{
							"internalType": "uint256",
							"name": "amount",
							"type": "uint256"
						}
					],
					"name": "mintItem",
					"outputs": [],
					"stateMutability": "nonpayable",
					"type": "function"
				},
				{
					"inputs": [],
					"name": "owner",
					"outputs": [
						{
							"internalType": "address",
							"name": "",
							"type": "address"
						}
					],
					"stateMutability": "view",
					"type": "function"
				},
				{
					"inputs": [
						{
							"internalType": "uint256",
							"name": "itemId",
							"type": "uint256"
						},
						{
							"internalType": "uint256",
							"name": "amount",
							"type": "uint256"
						}
					],
					"name": "purchaseItem",
					"outputs": [],
					"stateMutability": "payable",
					"type": "function"
				},
				{
					"inputs": [],
					"name": "renounceOwnership",
					"outputs": [],
					"stateMutability": "nonpayable",
					"type": "function"
				},
				{
					"inputs": [
						{
							"internalType": "address",
							"name": "from",
							"type": "address"
						},
						{
							"internalType": "address",
							"name": "to",
							"type": "address"
						},
						{
							"internalType": "uint256[]",
							"name": "ids",
							"type": "uint256[]"
						},
						{
							"internalType": "uint256[]",
							"name": "values",
							"type": "uint256[]"
						},
						{
							"internalType": "bytes",
							"name": "data",
							"type": "bytes"
						}
					],
					"name": "safeBatchTransferFrom",
					"outputs": [],
					"stateMutability": "nonpayable",
					"type": "function"
				},
				{
					"inputs": [
						{
							"internalType": "address",
							"name": "from",
							"type": "address"
						},
						{
							"internalType": "address",
							"name": "to",
							"type": "address"
						},
						{
							"internalType": "uint256",
							"name": "id",
							"type": "uint256"
						},
						{
							"internalType": "uint256",
							"name": "value",
							"type": "uint256"
						},
						{
							"internalType": "bytes",
							"name": "data",
							"type": "bytes"
						}
					],
					"name": "safeTransferFrom",
					"outputs": [],
					"stateMutability": "nonpayable",
					"type": "function"
				},
				{
					"inputs": [
						{
							"internalType": "address",
							"name": "operator",
							"type": "address"
						},
						{
							"internalType": "bool",
							"name": "approved",
							"type": "bool"
						}
					],
					"name": "setApprovalForAll",
					"outputs": [],
					"stateMutability": "nonpayable",
					"type": "function"
				},
				{
					"inputs": [
						{
							"internalType": "bytes4",
							"name": "interfaceId",
							"type": "bytes4"
						}
					],
					"name": "supportsInterface",
					"outputs": [
						{
							"internalType": "bool",
							"name": "",
							"type": "bool"
						}
					],
					"stateMutability": "view",
					"type": "function"
				},
				{
					"inputs": [
						{
							"internalType": "address",
							"name": "newOwner",
							"type": "address"
						}
					],
					"name": "transferOwnership",
					"outputs": [],
					"stateMutability": "nonpayable",
					"type": "function"
				},
				{
					"inputs": [
						{
							"internalType": "uint256",
							"name": "",
							"type": "uint256"
						}
					],
					"name": "uri",
					"outputs": [
						{
							"internalType": "string",
							"name": "",
							"type": "string"
						}
					],
					"stateMutability": "view",
					"type": "function"
				}
			],
			"devdoc": {
				"errors": {
					"ERC1155InsufficientBalance(address,uint256,uint256,uint256)": [
						{
							"details": "Indicates an error related to the current `balance` of a `sender`. Used in transfers.",
							"params": {
								"balance": "Current balance for the interacting account.",
								"needed": "Minimum amount required to perform a transfer.",
								"sender": "Address whose tokens are being transferred.",
								"tokenId": "Identifier number of a token."
							}
						}
					],
					"ERC1155InvalidApprover(address)": [
						{
							"details": "Indicates a failure with the `approver` of a token to be approved. Used in approvals.",
							"params": {
								"approver": "Address initiating an approval operation."
							}
						}
					],
					"ERC1155InvalidArrayLength(uint256,uint256)": [
						{
							"details": "Indicates an array length mismatch between ids and values in a safeBatchTransferFrom operation. Used in batch transfers.",
							"params": {
								"idsLength": "Length of the array of token identifiers",
								"valuesLength": "Length of the array of token amounts"
							}
						}
					],
					"ERC1155InvalidOperator(address)": [
						{
							"details": "Indicates a failure with the `operator` to be approved. Used in approvals.",
							"params": {
								"operator": "Address that may be allowed to operate on tokens without being their owner."
							}
						}
					],
					"ERC1155InvalidReceiver(address)": [
						{
							"details": "Indicates a failure with the token `receiver`. Used in transfers.",
							"params": {
								"receiver": "Address to which tokens are being transferred."
							}
						}
					],
					"ERC1155InvalidSender(address)": [
						{
							"details": "Indicates a failure with the token `sender`. Used in transfers.",
							"params": {
								"sender": "Address whose tokens are being transferred."
							}
						}
					],
					"ERC1155MissingApprovalForAll(address,address)": [
						{
							"details": "Indicates a failure with the `operator`’s approval. Used in transfers.",
							"params": {
								"operator": "Address that may be allowed to operate on tokens without being their owner.",
								"owner": "Address of the current owner of a token."
							}
						}
					],
					"OwnableInvalidOwner(address)": [
						{
							"details": "The owner is not a valid owner account. (eg. `address(0)`)"
						}
					],
					"OwnableUnauthorizedAccount(address)": [
						{
							"details": "The caller account is not authorized to perform an operation."
						}
					]
				},
				"events": {
					"ApprovalForAll(address,address,bool)": {
						"details": "Emitted when `account` grants or revokes permission to `operator` to transfer their tokens, according to `approved`."
					},
					"TransferBatch(address,address,address,uint256[],uint256[])": {
						"details": "Equivalent to multiple {TransferSingle} events, where `operator`, `from` and `to` are the same for all transfers."
					},
					"TransferSingle(address,address,address,uint256,uint256)": {
						"details": "Emitted when `value` amount of tokens of type `id` are transferred from `from` to `to` by `operator`."
					},
					"URI(string,uint256)": {
						"details": "Emitted when the URI for token type `id` changes to `value`, if it is a non-programmatic URI. If an {URI} event was emitted for `id`, the standard https://eips.ethereum.org/EIPS/eip-1155#metadata-extensions[guarantees] that `value` will equal the value returned by {IERC1155MetadataURI-uri}."
					}
				},
				"kind": "dev",
				"methods": {
					"balanceOf(address,uint256)": {
						"details": "See {IERC1155-balanceOf}."
					},
					"balanceOfBatch(address[],uint256[])": {
						"details": "See {IERC1155-balanceOfBatch}. Requirements: - `accounts` and `ids` must have the same length."
					},
					"isApprovedForAll(address,address)": {
						"details": "See {IERC1155-isApprovedForAll}."
					},
					"owner()": {
						"details": "Returns the address of the current owner."
					},
					"renounceOwnership()": {
						"details": "Leaves the contract without owner. It will not be possible to call `onlyOwner` functions. Can only be called by the current owner. NOTE: Renouncing ownership will leave the contract without an owner, thereby disabling any functionality that is only available to the owner."
					},
					"safeBatchTransferFrom(address,address,uint256[],uint256[],bytes)": {
						"details": "See {IERC1155-safeBatchTransferFrom}."
					},
					"safeTransferFrom(address,address,uint256,uint256,bytes)": {
						"details": "See {IERC1155-safeTransferFrom}."
					},
					"setApprovalForAll(address,bool)": {
						"details": "See {IERC1155-setApprovalForAll}."
					},
					"supportsInterface(bytes4)": {
						"details": "See {IERC165-supportsInterface}."
					},
					"transferOwnership(address)": {
						"details": "Transfers ownership of the contract to a new account (`newOwner`). Can only be called by the current owner."
					},
					"uri(uint256)": {
						"details": "See {IERC1155MetadataURI-uri}. This implementation returns the same URI for *all* token types. It relies on the token type ID substitution mechanism https://eips.ethereum.org/EIPS/eip-1155#metadata[defined in the EIP]. Clients calling this function must replace the `\\{id\\}` substring with the actual token type ID."
					}
				},
				"version": 1
			},
			"evm": {
				"assembly": "    /* \"CSE426Project/ERC1155SmartContract.sol\":226:2362  contract GameItems is ERC1155, Ownable {... */\n  mstore(0x40, 0x80)\n    /* \"CSE426Project/ERC1155SmartContract.sol\":690:738  constructor() ERC1155(\"\") Ownable(msg.sender) {} */\n  callvalue\n  dup1\n  iszero\n  tag_1\n  jumpi\n  0x00\n  dup1\n  revert\ntag_1:\n  pop\n    /* \"CSE426Project/ERC1155SmartContract.sol\":724:734  msg.sender */\n  caller\n    /* \"@openzeppelin/contracts/token/ERC1155/ERC1155.sol\":1251:1313  constructor(string memory uri_) {... */\n  mload(0x40)\n  dup1\n  0x20\n  add\n  0x40\n  mstore\n  dup1\n  0x00\n  dup2\n  mstore\n  pop\n    /* \"@openzeppelin/contracts/token/ERC1155/ERC1155.sol\":1293:1306  _setURI(uri_) */\n  tag_6\n    /* \"@openzeppelin/contracts/token/ERC1155/ERC1155.sol\":1301:1305  uri_ */\n  dup2\n    /* \"@openzeppelin/contracts/token/ERC1155/ERC1155.sol\":1293:1300  _setURI */\n  shl(0x20, tag_7)\n    /* \"@openzeppelin/contracts/token/ERC1155/ERC1155.sol\":1293:1306  _setURI(uri_) */\n  0x20\n  shr\n  jump\t// in\ntag_6:\n    /* \"@openzeppelin/contracts/token/ERC1155/ERC1155.sol\":1251:1313  constructor(string memory uri_) {... */\n  pop\n    /* \"@openzeppelin/contracts/access/Ownable.sol\":1297:1298  0 */\n  0x00\n    /* \"@openzeppelin/contracts/access/Ownable.sol\":1273:1299  initialOwner == address(0) */\n  0xffffffffffffffffffffffffffffffffffffffff\n  and\n    /* \"@openzeppelin/contracts/access/Ownable.sol\":1273:1285  initialOwner */\n  dup2\n    /* \"@openzeppelin/contracts/access/Ownable.sol\":1273:1299  initialOwner == address(0) */\n  0xffffffffffffffffffffffffffffffffffffffff\n  and\n  sub\n    /* \"@openzeppelin/contracts/access/Ownable.sol\":1269:1364  if (initialOwner == address(0)) {... */\n  tag_9\n  jumpi\n    /* \"@openzeppelin/contracts/access/Ownable.sol\":1350:1351  0 */\n  0x00\n    /* \"@openzeppelin/contracts/access/Ownable.sol\":1322:1353  OwnableInvalidOwner(address(0)) */\n  mload(0x40)\n  0x1e4fbdf700000000000000000000000000000000000000000000000000000000\n  dup2\n  mstore\n  0x04\n  add\n  tag_10\n  swap2\n  swap1\n  tag_11\n  jump\t// in\ntag_10:\n  mload(0x40)\n  dup1\n  swap2\n  sub\n  swap1\n  revert\n    /* \"@openzeppelin/contracts/access/Ownable.sol\":1269:1364  if (initialOwner == address(0)) {... */\ntag_9:\n    /* \"@openzeppelin/contracts/access/Ownable.sol\":1373:1405  _transferOwnership(initialOwner) */\n  tag_12\n    /* \"@openzeppelin/contracts/access/Ownable.sol\":1392:1404  initialOwner */\n  dup2\n    /* \"@openzeppelin/contracts/access/Ownable.sol\":1373:1391  _transferOwnership */\n  shl(0x20, tag_13)\n    /* \"@openzeppelin/contracts/access/Ownable.sol\":1373:1405  _transferOwnership(initialOwner) */\n  0x20\n  shr\n  jump\t// in\ntag_12:\n    /* \"@openzeppelin/contracts/access/Ownable.sol\":1225:1412  constructor(address initialOwner) {... */\n  pop\n    /* \"CSE426Project/ERC1155SmartContract.sol\":226:2362  contract GameItems is ERC1155, Ownable {... */\n  jump(tag_15)\n    /* \"@openzeppelin/contracts/token/ERC1155/ERC1155.sol\":10282:10368  function _setURI(string memory newuri) internal virtual {... */\ntag_7:\n    /* \"@openzeppelin/contracts/token/ERC1155/ERC1155.sol\":10355:10361  newuri */\n  dup1\n    /* \"@openzeppelin/contracts/token/ERC1155/ERC1155.sol\":10348:10352  _uri */\n  0x02\n    /* \"@openzeppelin/contracts/token/ERC1155/ERC1155.sol\":10348:10361  _uri = newuri */\n  swap1\n  dup2\n  tag_17\n  swap2\n  swap1\n  tag_18\n  jump\t// in\ntag_17:\n  pop\n    /* \"@openzeppelin/contracts/token/ERC1155/ERC1155.sol\":10282:10368  function _setURI(string memory newuri) internal virtual {... */\n  pop\n  jump\t// out\n    /* \"@openzeppelin/contracts/access/Ownable.sol\":2912:3099  function _transferOwnership(address newOwner) internal virtual {... */\ntag_13:\n    /* \"@openzeppelin/contracts/access/Ownable.sol\":2985:3001  address oldOwner */\n  0x00\n    /* \"@openzeppelin/contracts/access/Ownable.sol\":3004:3010  _owner */\n  0x03\n  0x00\n  swap1\n  sload\n  swap1\n  0x0100\n  exp\n  swap1\n  div\n  0xffffffffffffffffffffffffffffffffffffffff\n  and\n    /* \"@openzeppelin/contracts/access/Ownable.sol\":2985:3010  address oldOwner = _owner */\n  swap1\n  pop\n    /* \"@openzeppelin/contracts/access/Ownable.sol\":3029:3037  newOwner */\n  dup2\n    /* \"@openzeppelin/contracts/access/Ownable.sol\":3020:3026  _owner */\n  0x03\n  0x00\n    /* \"@openzeppelin/contracts/access/Ownable.sol\":3020:3037  _owner = newOwner */\n  0x0100\n  exp\n  dup2\n  sload\n  dup2\n  0xffffffffffffffffffffffffffffffffffffffff\n  mul\n  not\n  and\n  swap1\n  dup4\n  0xffffffffffffffffffffffffffffffffffffffff\n  and\n  mul\n  or\n  swap1\n  sstore\n  pop\n    /* \"@openzeppelin/contracts/access/Ownable.sol\":3083:3091  newOwner */\n  dup2\n    /* \"@openzeppelin/contracts/access/Ownable.sol\":3052:3092  OwnershipTransferred(oldOwner, newOwner) */\n  0xffffffffffffffffffffffffffffffffffffffff\n  and\n    /* \"@openzeppelin/contracts/access/Ownable.sol\":3073:3081  oldOwner */\n  dup2\n    /* \"@openzeppelin/contracts/access/Ownable.sol\":3052:3092  OwnershipTransferred(oldOwner, newOwner) */\n  0xffffffffffffffffffffffffffffffffffffffff\n  and\n  0x8be0079c531659141344cd1fd0a4f28419497f9722a3daafe3b4186f6b6457e0\n  mload(0x40)\n  mload(0x40)\n  dup1\n  swap2\n  sub\n  swap1\n  log3\n    /* \"@openzeppelin/contracts/access/Ownable.sol\":2975:3099  {... */\n  pop\n    /* \"@openzeppelin/contracts/access/Ownable.sol\":2912:3099  function _transferOwnership(address newOwner) internal virtual {... */\n  pop\n  jump\t// out\n    /* \"#utility.yul\":7:133   */\ntag_20:\n    /* \"#utility.yul\":44:51   */\n  0x00\n    /* \"#utility.yul\":84:126   */\n  0xffffffffffffffffffffffffffffffffffffffff\n    /* \"#utility.yul\":77:82   */\n  dup3\n    /* \"#utility.yul\":73:127   */\n  and\n    /* \"#utility.yul\":62:127   */\n  swap1\n  pop\n    /* \"#utility.yul\":7:133   */\n  swap2\n  swap1\n  pop\n  jump\t// out\n    /* \"#utility.yul\":139:235   */\ntag_21:\n    /* \"#utility.yul\":176:183   */\n  0x00\n    /* \"#utility.yul\":205:229   */\n  tag_46\n    /* \"#utility.yul\":223:228   */\n  dup3\n    /* \"#utility.yul\":205:229   */\n  tag_20\n  jump\t// in\ntag_46:\n    /* \"#utility.yul\":194:229   */\n  swap1\n  pop\n    /* \"#utility.yul\":139:235   */\n  swap2\n  swap1\n  pop\n  jump\t// out\n    /* \"#utility.yul\":241:359   */\ntag_22:\n    /* \"#utility.yul\":328:352   */\n  tag_48\n    /* \"#utility.yul\":346:351   */\n  dup2\n    /* \"#utility.yul\":328:352   */\n  tag_21\n  jump\t// in\ntag_48:\n    /* \"#utility.yul\":323:326   */\n  dup3\n    /* \"#utility.yul\":316:353   */\n  mstore\n    /* \"#utility.yul\":241:359   */\n  pop\n  pop\n  jump\t// out\n    /* \"#utility.yul\":365:587   */\ntag_11:\n    /* \"#utility.yul\":458:462   */\n  0x00\n    /* \"#utility.yul\":496:498   */\n  0x20\n    /* \"#utility.yul\":485:494   */\n  dup3\n    /* \"#utility.yul\":481:499   */\n  add\n    /* \"#utility.yul\":473:499   */\n  swap1\n  pop\n    /* \"#utility.yul\":509:580   */\n  tag_50\n    /* \"#utility.yul\":577:578   */\n  0x00\n    /* \"#utility.yul\":566:575   */\n  dup4\n    /* \"#utility.yul\":562:579   */\n  add\n    /* \"#utility.yul\":553:559   */\n  dup5\n    /* \"#utility.yul\":509:580   */\n  tag_22\n  jump\t// in\ntag_50:\n    /* \"#utility.yul\":365:587   */\n  swap3\n  swap2\n  pop\n  pop\n  jump\t// out\n    /* \"#utility.yul\":593:692   */\ntag_23:\n    /* \"#utility.yul\":645:651   */\n  0x00\n    /* \"#utility.yul\":679:684   */\n  dup2\n    /* \"#utility.yul\":673:685   */\n  mload\n    /* \"#utility.yul\":663:685   */\n  swap1\n  pop\n    /* \"#utility.yul\":593:692   */\n  swap2\n  swap1\n  pop\n  jump\t// out\n    /* \"#utility.yul\":698:878   */\ntag_24:\n    /* \"#utility.yul\":746:823   */\n  0x4e487b7100000000000000000000000000000000000000000000000000000000\n    /* \"#utility.yul\":743:744   */\n  0x00\n    /* \"#utility.yul\":736:824   */\n  mstore\n    /* \"#utility.yul\":843:847   */\n  0x41\n    /* \"#utility.yul\":840:841   */\n  0x04\n    /* \"#utility.yul\":833:848   */\n  mstore\n    /* \"#utility.yul\":867:871   */\n  0x24\n    /* \"#utility.yul\":864:865   */\n  0x00\n    /* \"#utility.yul\":857:872   */\n  revert\n    /* \"#utility.yul\":884:1064   */\ntag_25:\n    /* \"#utility.yul\":932:1009   */\n  0x4e487b7100000000000000000000000000000000000000000000000000000000\n    /* \"#utility.yul\":929:930   */\n  0x00\n    /* \"#utility.yul\":922:1010   */\n  mstore\n    /* \"#utility.yul\":1029:1033   */\n  0x22\n    /* \"#utility.yul\":1026:1027   */\n  0x04\n    /* \"#utility.yul\":1019:1034   */\n  mstore\n    /* \"#utility.yul\":1053:1057   */\n  0x24\n    /* \"#utility.yul\":1050:1051   */\n  0x00\n    /* \"#utility.yul\":1043:1058   */\n  revert\n    /* \"#utility.yul\":1070:1390   */\ntag_26:\n    /* \"#utility.yul\":1114:1120   */\n  0x00\n    /* \"#utility.yul\":1151:1152   */\n  0x02\n    /* \"#utility.yul\":1145:1149   */\n  dup3\n    /* \"#utility.yul\":1141:1153   */\n  div\n    /* \"#utility.yul\":1131:1153   */\n  swap1\n  pop\n    /* \"#utility.yul\":1198:1199   */\n  0x01\n    /* \"#utility.yul\":1192:1196   */\n  dup3\n    /* \"#utility.yul\":1188:1200   */\n  and\n    /* \"#utility.yul\":1219:1237   */\n  dup1\n    /* \"#utility.yul\":1209:1290   */\n  tag_55\n  jumpi\n    /* \"#utility.yul\":1275:1279   */\n  0x7f\n    /* \"#utility.yul\":1267:1273   */\n  dup3\n    /* \"#utility.yul\":1263:1280   */\n  and\n    /* \"#utility.yul\":1253:1280   */\n  swap2\n  pop\n    /* \"#utility.yul\":1209:1290   */\ntag_55:\n    /* \"#utility.yul\":1337:1339   */\n  0x20\n    /* \"#utility.yul\":1329:1335   */\n  dup3\n    /* \"#utility.yul\":1326:1340   */\n  lt\n    /* \"#utility.yul\":1306:1324   */\n  dup2\n    /* \"#utility.yul\":1303:1341   */\n  sub\n    /* \"#utility.yul\":1300:1384   */\n  tag_56\n  jumpi\n    /* \"#utility.yul\":1356:1374   */\n  tag_57\n  tag_25\n  jump\t// in\ntag_57:\n    /* \"#utility.yul\":1300:1384   */\ntag_56:\n    /* \"#utility.yul\":1121:1390   */\n  pop\n    /* \"#utility.yul\":1070:1390   */\n  swap2\n  swap1\n  pop\n  jump\t// out\n    /* \"#utility.yul\":1396:1537   */\ntag_27:\n    /* \"#utility.yul\":1445:1449   */\n  0x00\n    /* \"#utility.yul\":1468:1471   */\n  dup2\n    /* \"#utility.yul\":1460:1471   */\n  swap1\n  pop\n    /* \"#utility.yul\":1491:1494   */\n  dup2\n    /* \"#utility.yul\":1488:1489   */\n  0x00\n    /* \"#utility.yul\":1481:1495   */\n  mstore\n    /* \"#utility.yul\":1525:1529   */\n  0x20\n    /* \"#utility.yul\":1522:1523   */\n  0x00\n    /* \"#utility.yul\":1512:1530   */\n  keccak256\n    /* \"#utility.yul\":1504:1530   */\n  swap1\n  pop\n    /* \"#utility.yul\":1396:1537   */\n  swap2\n  swap1\n  pop\n  jump\t// out\n    /* \"#utility.yul\":1543:1636   */\ntag_28:\n    /* \"#utility.yul\":1580:1586   */\n  0x00\n    /* \"#utility.yul\":1627:1629   */\n  0x20\n    /* \"#utility.yul\":1622:1624   */\n  0x1f\n    /* \"#utility.yul\":1615:1620   */\n  dup4\n    /* \"#utility.yul\":1611:1625   */\n  add\n    /* \"#utility.yul\":1607:1630   */\n  div\n    /* \"#utility.yul\":1597:1630   */\n  swap1\n  pop\n    /* \"#utility.yul\":1543:1636   */\n  swap2\n  swap1\n  pop\n  jump\t// out\n    /* \"#utility.yul\":1642:1749   */\ntag_29:\n    /* \"#utility.yul\":1686:1694   */\n  0x00\n    /* \"#utility.yul\":1736:1741   */\n  dup3\n    /* \"#utility.yul\":1730:1734   */\n  dup3\n    /* \"#utility.yul\":1726:1742   */\n  shl\n    /* \"#utility.yul\":1705:1742   */\n  swap1\n  pop\n    /* \"#utility.yul\":1642:1749   */\n  swap3\n  swap2\n  pop\n  pop\n  jump\t// out\n    /* \"#utility.yul\":1755:2148   */\ntag_30:\n    /* \"#utility.yul\":1824:1830   */\n  0x00\n    /* \"#utility.yul\":1874:1875   */\n  0x08\n    /* \"#utility.yul\":1862:1872   */\n  dup4\n    /* \"#utility.yul\":1858:1876   */\n  mul\n    /* \"#utility.yul\":1897:1994   */\n  tag_62\n    /* \"#utility.yul\":1927:1993   */\n  0xffffffffffffffffffffffffffffffffffffffffffffffffffffffffffffffff\n    /* \"#utility.yul\":1916:1925   */\n  dup3\n    /* \"#utility.yul\":1897:1994   */\n  tag_29\n  jump\t// in\ntag_62:\n    /* \"#utility.yul\":2015:2054   */\n  tag_63\n    /* \"#utility.yul\":2045:2053   */\n  dup7\n    /* \"#utility.yul\":2034:2043   */\n  dup4\n    /* \"#utility.yul\":2015:2054   */\n  tag_29\n  jump\t// in\ntag_63:\n    /* \"#utility.yul\":2003:2054   */\n  swap6\n  pop\n    /* \"#utility.yul\":2087:2091   */\n  dup1\n    /* \"#utility.yul\":2083:2092   */\n  not\n    /* \"#utility.yul\":2076:2081   */\n  dup5\n    /* \"#utility.yul\":2072:2093   */\n  and\n    /* \"#utility.yul\":2063:2093   */\n  swap4\n  pop\n    /* \"#utility.yul\":2136:2140   */\n  dup1\n    /* \"#utility.yul\":2126:2134   */\n  dup7\n    /* \"#utility.yul\":2122:2141   */\n  and\n    /* \"#utility.yul\":2115:2120   */\n  dup5\n    /* \"#utility.yul\":2112:2142   */\n  or\n    /* \"#utility.yul\":2102:2142   */\n  swap3\n  pop\n    /* \"#utility.yul\":1831:2148   */\n  pop\n  pop\n    /* \"#utility.yul\":1755:2148   */\n  swap4\n  swap3\n  pop\n  pop\n  pop\n  jump\t// out\n    /* \"#utility.yul\":2154:2231   */\ntag_31:\n    /* \"#utility.yul\":2191:2198   */\n  0x00\n    /* \"#utility.yul\":2220:2225   */\n  dup2\n    /* \"#utility.yul\":2209:2225   */\n  swap1\n  pop\n    /* \"#utility.yul\":2154:2231   */\n  swap2\n  swap1\n  pop\n  jump\t// out\n    /* \"#utility.yul\":2237:2297   */\ntag_32:\n    /* \"#utility.yul\":2265:2268   */\n  0x00\n    /* \"#utility.yul\":2286:2291   */\n  dup2\n    /* \"#utility.yul\":2279:2291   */\n  swap1\n  pop\n    /* \"#utility.yul\":2237:2297   */\n  swap2\n  swap1\n  pop\n  jump\t// out\n    /* \"#utility.yul\":2303:2445   */\ntag_33:\n    /* \"#utility.yul\":2353:2362   */\n  0x00\n    /* \"#utility.yul\":2386:2439   */\n  tag_67\n    /* \"#utility.yul\":2404:2438   */\n  tag_68\n    /* \"#utility.yul\":2413:2437   */\n  tag_69\n    /* \"#utility.yul\":2431:2436   */\n  dup5\n    /* \"#utility.yul\":2413:2437   */\n  tag_31\n  jump\t// in\ntag_69:\n    /* \"#utility.yul\":2404:2438   */\n  tag_32\n  jump\t// in\ntag_68:\n    /* \"#utility.yul\":2386:2439   */\n  tag_31\n  jump\t// in\ntag_67:\n    /* \"#utility.yul\":2373:2439   */\n  swap1\n  pop\n    /* \"#utility.yul\":2303:2445   */\n  swap2\n  swap1\n  pop\n  jump\t// out\n    /* \"#utility.yul\":2451:2526   */\ntag_34:\n    /* \"#utility.yul\":2494:2497   */\n  0x00\n    /* \"#utility.yul\":2515:2520   */\n  dup2\n    /* \"#utility.yul\":2508:2520   */\n  swap1\n  pop\n    /* \"#utility.yul\":2451:2526   */\n  swap2\n  swap1\n  pop\n  jump\t// out\n    /* \"#utility.yul\":2532:2801   */\ntag_35:\n    /* \"#utility.yul\":2642:2681   */\n  tag_72\n    /* \"#utility.yul\":2673:2680   */\n  dup4\n    /* \"#utility.yul\":2642:2681   */\n  tag_33\n  jump\t// in\ntag_72:\n    /* \"#utility.yul\":2703:2794   */\n  tag_73\n    /* \"#utility.yul\":2752:2793   */\n  tag_74\n    /* \"#utility.yul\":2776:2792   */\n  dup3\n    /* \"#utility.yul\":2752:2793   */\n  tag_34\n  jump\t// in\ntag_74:\n    /* \"#utility.yul\":2744:2750   */\n  dup5\n    /* \"#utility.yul\":2737:2741   */\n  dup5\n    /* \"#utility.yul\":2731:2742   */\n  sload\n    /* \"#utility.yul\":2703:2794   */\n  tag_30\n  jump\t// in\ntag_73:\n    /* \"#utility.yul\":2697:2701   */\n  dup3\n    /* \"#utility.yul\":2690:2795   */\n  sstore\n    /* \"#utility.yul\":2608:2801   */\n  pop\n    /* \"#utility.yul\":2532:2801   */\n  pop\n  pop\n  pop\n  jump\t// out\n    /* \"#utility.yul\":2807:2880   */\ntag_36:\n    /* \"#utility.yul\":2852:2855   */\n  0x00\n    /* \"#utility.yul\":2807:2880   */\n  swap1\n  jump\t// out\n    /* \"#utility.yul\":2886:3075   */\ntag_37:\n    /* \"#utility.yul\":2963:2995   */\n  tag_77\n  tag_36\n  jump\t// in\ntag_77:\n    /* \"#utility.yul\":3004:3069   */\n  tag_78\n    /* \"#utility.yul\":3062:3068   */\n  dup2\n    /* \"#utility.yul\":3054:3060   */\n  dup5\n    /* \"#utility.yul\":3048:3052   */\n  dup5\n    /* \"#utility.yul\":3004:3069   */\n  tag_35\n  jump\t// in\ntag_78:\n    /* \"#utility.yul\":2939:3075   */\n  pop\n    /* \"#utility.yul\":2886:3075   */\n  pop\n  pop\n  jump\t// out\n    /* \"#utility.yul\":3081:3267   */\ntag_38:\n    /* \"#utility.yul\":3141:3261   */\ntag_80:\n    /* \"#utility.yul\":3158:3161   */\n  dup2\n    /* \"#utility.yul\":3151:3156   */\n  dup2\n    /* \"#utility.yul\":3148:3162   */\n  lt\n    /* \"#utility.yul\":3141:3261   */\n  iszero\n  tag_82\n  jumpi\n    /* \"#utility.yul\":3212:3251   */\n  tag_83\n    /* \"#utility.yul\":3249:3250   */\n  0x00\n    /* \"#utility.yul\":3242:3247   */\n  dup3\n    /* \"#utility.yul\":3212:3251   */\n  tag_37\n  jump\t// in\ntag_83:\n    /* \"#utility.yul\":3185:3186   */\n  0x01\n    /* \"#utility.yul\":3178:3183   */\n  dup2\n    /* \"#utility.yul\":3174:3187   */\n  add\n    /* \"#utility.yul\":3165:3187   */\n  swap1\n  pop\n    /* \"#utility.yul\":3141:3261   */\n  jump(tag_80)\ntag_82:\n    /* \"#utility.yul\":3081:3267   */\n  pop\n  pop\n  jump\t// out\n    /* \"#utility.yul\":3273:3816   */\ntag_39:\n    /* \"#utility.yul\":3374:3376   */\n  0x1f\n    /* \"#utility.yul\":3369:3372   */\n  dup3\n    /* \"#utility.yul\":3366:3377   */\n  gt\n    /* \"#utility.yul\":3363:3809   */\n  iszero\n  tag_85\n  jumpi\n    /* \"#utility.yul\":3408:3446   */\n  tag_86\n    /* \"#utility.yul\":3440:3445   */\n  dup2\n    /* \"#utility.yul\":3408:3446   */\n  tag_27\n  jump\t// in\ntag_86:\n    /* \"#utility.yul\":3492:3521   */\n  tag_87\n    /* \"#utility.yul\":3510:3520   */\n  dup5\n    /* \"#utility.yul\":3492:3521   */\n  tag_28\n  jump\t// in\ntag_87:\n    /* \"#utility.yul\":3482:3490   */\n  dup2\n    /* \"#utility.yul\":3478:3522   */\n  add\n    /* \"#utility.yul\":3675:3677   */\n  0x20\n    /* \"#utility.yul\":3663:3673   */\n  dup6\n    /* \"#utility.yul\":3660:3678   */\n  lt\n    /* \"#utility.yul\":3657:3706   */\n  iszero\n  tag_88\n  jumpi\n    /* \"#utility.yul\":3696:3704   */\n  dup2\n    /* \"#utility.yul\":3681:3704   */\n  swap1\n  pop\n    /* \"#utility.yul\":3657:3706   */\ntag_88:\n    /* \"#utility.yul\":3719:3799   */\n  tag_89\n    /* \"#utility.yul\":3775:3797   */\n  tag_90\n    /* \"#utility.yul\":3793:3796   */\n  dup6\n    /* \"#utility.yul\":3775:3797   */\n  tag_28\n  jump\t// in\ntag_90:\n    /* \"#utility.yul\":3765:3773   */\n  dup4\n    /* \"#utility.yul\":3761:3798   */\n  add\n    /* \"#utility.yul\":3748:3759   */\n  dup3\n    /* \"#utility.yul\":3719:3799   */\n  tag_38\n  jump\t// in\ntag_89:\n    /* \"#utility.yul\":3378:3809   */\n  pop\n  pop\n    /* \"#utility.yul\":3363:3809   */\ntag_85:\n    /* \"#utility.yul\":3273:3816   */\n  pop\n  pop\n  pop\n  jump\t// out\n    /* \"#utility.yul\":3822:3939   */\ntag_40:\n    /* \"#utility.yul\":3876:3884   */\n  0x00\n    /* \"#utility.yul\":3926:3931   */\n  dup3\n    /* \"#utility.yul\":3920:3924   */\n  dup3\n    /* \"#utility.yul\":3916:3932   */\n  shr\n    /* \"#utility.yul\":3895:3932   */\n  swap1\n  pop\n    /* \"#utility.yul\":3822:3939   */\n  swap3\n  swap2\n  pop\n  pop\n  jump\t// out\n    /* \"#utility.yul\":3945:4114   */\ntag_41:\n    /* \"#utility.yul\":3989:3995   */\n  0x00\n    /* \"#utility.yul\":4022:4073   */\n  tag_93\n    /* \"#utility.yul\":4070:4071   */\n  0x00\n    /* \"#utility.yul\":4066:4072   */\n  not\n    /* \"#utility.yul\":4058:4063   */\n  dup5\n    /* \"#utility.yul\":4055:4056   */\n  0x08\n    /* \"#utility.yul\":4051:4064   */\n  mul\n    /* \"#utility.yul\":4022:4073   */\n  tag_40\n  jump\t// in\ntag_93:\n    /* \"#utility.yul\":4018:4074   */\n  not\n    /* \"#utility.yul\":4103:4107   */\n  dup1\n    /* \"#utility.yul\":4097:4101   */\n  dup4\n    /* \"#utility.yul\":4093:4108   */\n  and\n    /* \"#utility.yul\":4083:4108   */\n  swap2\n  pop\n    /* \"#utility.yul\":3996:4114   */\n  pop\n    /* \"#utility.yul\":3945:4114   */\n  swap3\n  swap2\n  pop\n  pop\n  jump\t// out\n    /* \"#utility.yul\":4119:4414   */\ntag_42:\n    /* \"#utility.yul\":4195:4199   */\n  0x00\n    /* \"#utility.yul\":4341:4370   */\n  tag_95\n    /* \"#utility.yul\":4366:4369   */\n  dup4\n    /* \"#utility.yul\":4360:4364   */\n  dup4\n    /* \"#utility.yul\":4341:4370   */\n  tag_41\n  jump\t// in\ntag_95:\n    /* \"#utility.yul\":4333:4370   */\n  swap2\n  pop\n    /* \"#utility.yul\":4403:4406   */\n  dup3\n    /* \"#utility.yul\":4400:4401   */\n  0x02\n    /* \"#utility.yul\":4396:4407   */\n  mul\n    /* \"#utility.yul\":4390:4394   */\n  dup3\n    /* \"#utility.yul\":4387:4408   */\n  or\n    /* \"#utility.yul\":4379:4408   */\n  swap1\n  pop\n    /* \"#utility.yul\":4119:4414   */\n  swap3\n  swap2\n  pop\n  pop\n  jump\t// out\n    /* \"#utility.yul\":4419:5814   */\ntag_18:\n    /* \"#utility.yul\":4536:4573   */\n  tag_97\n    /* \"#utility.yul\":4569:4572   */\n  dup3\n    /* \"#utility.yul\":4536:4573   */\n  tag_23\n  jump\t// in\ntag_97:\n    /* \"#utility.yul\":4638:4656   */\n  0xffffffffffffffff\n    /* \"#utility.yul\":4630:4636   */\n  dup2\n    /* \"#utility.yul\":4627:4657   */\n  gt\n    /* \"#utility.yul\":4624:4680   */\n  iszero\n  tag_98\n  jumpi\n    /* \"#utility.yul\":4660:4678   */\n  tag_99\n  tag_24\n  jump\t// in\ntag_99:\n    /* \"#utility.yul\":4624:4680   */\ntag_98:\n    /* \"#utility.yul\":4704:4742   */\n  tag_100\n    /* \"#utility.yul\":4736:4740   */\n  dup3\n    /* \"#utility.yul\":4730:4741   */\n  sload\n    /* \"#utility.yul\":4704:4742   */\n  tag_26\n  jump\t// in\ntag_100:\n    /* \"#utility.yul\":4789:4856   */\n  tag_101\n    /* \"#utility.yul\":4849:4855   */\n  dup3\n    /* \"#utility.yul\":4841:4847   */\n  dup3\n    /* \"#utility.yul\":4835:4839   */\n  dup6\n    /* \"#utility.yul\":4789:4856   */\n  tag_39\n  jump\t// in\ntag_101:\n    /* \"#utility.yul\":4883:4884   */\n  0x00\n    /* \"#utility.yul\":4907:4911   */\n  0x20\n    /* \"#utility.yul\":4894:4911   */\n  swap1\n  pop\n    /* \"#utility.yul\":4939:4941   */\n  0x1f\n    /* \"#utility.yul\":4931:4937   */\n  dup4\n    /* \"#utility.yul\":4928:4942   */\n  gt\n    /* \"#utility.yul\":4956:4957   */\n  0x01\n    /* \"#utility.yul\":4951:5569   */\n  dup2\n  eq\n  tag_103\n  jumpi\n    /* \"#utility.yul\":5613:5614   */\n  0x00\n    /* \"#utility.yul\":5630:5636   */\n  dup5\n    /* \"#utility.yul\":5627:5704   */\n  iszero\n  tag_104\n  jumpi\n    /* \"#utility.yul\":5679:5688   */\n  dup3\n    /* \"#utility.yul\":5674:5677   */\n  dup8\n    /* \"#utility.yul\":5670:5689   */\n  add\n    /* \"#utility.yul\":5664:5690   */\n  mload\n    /* \"#utility.yul\":5655:5690   */\n  swap1\n  pop\n    /* \"#utility.yul\":5627:5704   */\ntag_104:\n    /* \"#utility.yul\":5730:5797   */\n  tag_105\n    /* \"#utility.yul\":5790:5796   */\n  dup6\n    /* \"#utility.yul\":5783:5788   */\n  dup3\n    /* \"#utility.yul\":5730:5797   */\n  tag_42\n  jump\t// in\ntag_105:\n    /* \"#utility.yul\":5724:5728   */\n  dup7\n    /* \"#utility.yul\":5717:5798   */\n  sstore\n    /* \"#utility.yul\":5586:5808   */\n  pop\n    /* \"#utility.yul\":4921:5808   */\n  jump(tag_102)\n    /* \"#utility.yul\":4951:5569   */\ntag_103:\n    /* \"#utility.yul\":5003:5007   */\n  0x1f\n    /* \"#utility.yul\":4999:5008   */\n  not\n    /* \"#utility.yul\":4991:4997   */\n  dup5\n    /* \"#utility.yul\":4987:5009   */\n  and\n    /* \"#utility.yul\":5037:5074   */\n  tag_106\n    /* \"#utility.yul\":5069:5073   */\n  dup7\n    /* \"#utility.yul\":5037:5074   */\n  tag_27\n  jump\t// in\ntag_106:\n    /* \"#utility.yul\":5096:5097   */\n  0x00\n    /* \"#utility.yul\":5110:5318   */\ntag_107:\n    /* \"#utility.yul\":5124:5131   */\n  dup3\n    /* \"#utility.yul\":5121:5122   */\n  dup2\n    /* \"#utility.yul\":5118:5132   */\n  lt\n    /* \"#utility.yul\":5110:5318   */\n  iszero\n  tag_109\n  jumpi\n    /* \"#utility.yul\":5203:5212   */\n  dup5\n    /* \"#utility.yul\":5198:5201   */\n  dup10\n    /* \"#utility.yul\":5194:5213   */\n  add\n    /* \"#utility.yul\":5188:5214   */\n  mload\n    /* \"#utility.yul\":5180:5186   */\n  dup3\n    /* \"#utility.yul\":5173:5215   */\n  sstore\n    /* \"#utility.yul\":5254:5255   */\n  0x01\n    /* \"#utility.yul\":5246:5252   */\n  dup3\n    /* \"#utility.yul\":5242:5256   */\n  add\n    /* \"#utility.yul\":5232:5256   */\n  swap2\n  pop\n    /* \"#utility.yul\":5301:5303   */\n  0x20\n    /* \"#utility.yul\":5290:5299   */\n  dup6\n    /* \"#utility.yul\":5286:5304   */\n  add\n    /* \"#utility.yul\":5273:5304   */\n  swap5\n  pop\n    /* \"#utility.yul\":5147:5151   */\n  0x20\n    /* \"#utility.yul\":5144:5145   */\n  dup2\n    /* \"#utility.yul\":5140:5152   */\n  add\n    /* \"#utility.yul\":5135:5152   */\n  swap1\n  pop\n    /* \"#utility.yul\":5110:5318   */\n  jump(tag_107)\ntag_109:\n    /* \"#utility.yul\":5346:5352   */\n  dup7\n    /* \"#utility.yul\":5337:5344   */\n  dup4\n    /* \"#utility.yul\":5334:5353   */\n  lt\n    /* \"#utility.yul\":5331:5510   */\n  iszero\n  tag_110\n  jumpi\n    /* \"#utility.yul\":5404:5413   */\n  dup5\n    /* \"#utility.yul\":5399:5402   */\n  dup10\n    /* \"#utility.yul\":5395:5414   */\n  add\n    /* \"#utility.yul\":5389:5415   */\n  mload\n    /* \"#utility.yul\":5447:5495   */\n  tag_111\n    /* \"#utility.yul\":5489:5493   */\n  0x1f\n    /* \"#utility.yul\":5481:5487   */\n  dup10\n    /* \"#utility.yul\":5477:5494   */\n  and\n    /* \"#utility.yul\":5466:5475   */\n  dup3\n    /* \"#utility.yul\":5447:5495   */\n  tag_41\n  jump\t// in\ntag_111:\n    /* \"#utility.yul\":5439:5445   */\n  dup4\n    /* \"#utility.yul\":5432:5496   */\n  sstore\n    /* \"#utility.yul\":5354:5510   */\n  pop\n    /* \"#utility.yul\":5331:5510   */\ntag_110:\n    /* \"#utility.yul\":5556:5557   */\n  0x01\n    /* \"#utility.yul\":5552:5553   */\n  0x02\n    /* \"#utility.yul\":5544:5550   */\n  dup9\n    /* \"#utility.yul\":5540:5554   */\n  mul\n    /* \"#utility.yul\":5536:5558   */\n  add\n    /* \"#utility.yul\":5530:5534   */\n  dup9\n    /* \"#utility.yul\":5523:5559   */\n  sstore\n    /* \"#utility.yul\":4958:5569   */\n  pop\n  pop\n  pop\n    /* \"#utility.yul\":4921:5808   */\ntag_102:\n  pop\n    /* \"#utility.yul\":4511:5814   */\n  pop\n  pop\n  pop\n    /* \"#utility.yul\":4419:5814   */\n  pop\n  pop\n  jump\t// out\n    /* \"CSE426Project/ERC1155SmartContract.sol\":226:2362  contract GameItems is ERC1155, Ownable {... */\ntag_15:\n  dataSize(sub_0)\n  dup1\n  dataOffset(sub_0)\n  0x00\n  codecopy\n  0x00\n  return\nstop\n\nsub_0: assembly {\n        /* \"CSE426Project/ERC1155SmartContract.sol\":226:2362  contract GameItems is ERC1155, Ownable {... */\n      mstore(0x40, 0x80)\n      jumpi(tag_1, lt(calldatasize, 0x04))\n      shr(0xe0, calldataload(0x00))\n      dup1\n      0x8da5cb5b\n      gt\n      tag_18\n      jumpi\n      dup1\n      0xe0675698\n      gt\n      tag_19\n      jumpi\n      dup1\n      0xe0675698\n      eq\n      tag_14\n      jumpi\n      dup1\n      0xe985e9c5\n      eq\n      tag_15\n      jumpi\n      dup1\n      0xf242432a\n      eq\n      tag_16\n      jumpi\n      dup1\n      0xf2fde38b\n      eq\n      tag_17\n      jumpi\n      jump(tag_1)\n    tag_19:\n      dup1\n      0x8da5cb5b\n      eq\n      tag_10\n      jumpi\n      dup1\n      0xa22cb465\n      eq\n      tag_11\n      jumpi\n      dup1\n      0xbfb231d2\n      eq\n      tag_12\n      jumpi\n      dup1\n      0xd2581535\n      eq\n      tag_13\n      jumpi\n      jump(tag_1)\n    tag_18:\n      dup1\n      0x4e1273f4\n      gt\n      tag_20\n      jumpi\n      dup1\n      0x4e1273f4\n      eq\n      tag_6\n      jumpi\n      dup1\n      0x696a50b4\n      eq\n      tag_7\n      jumpi\n      dup1\n      0x6c150b2c\n      eq\n      tag_8\n      jumpi\n      dup1\n      0x715018a6\n      eq\n      tag_9\n      jumpi\n      jump(tag_1)\n    tag_20:\n      dup1\n      0xfdd58e\n      eq\n      tag_2\n      jumpi\n      dup1\n      0x01ffc9a7\n      eq\n      tag_3\n      jumpi\n      dup1\n      0x0e89341c\n      eq\n      tag_4\n      jumpi\n      dup1\n      0x2eb2c2d6\n      eq\n      tag_5\n      jumpi\n    tag_1:\n      0x00\n      dup1\n      revert\n        /* \"@openzeppelin/contracts/token/ERC1155/ERC1155.sol\":2247:2379  function balanceOf(address account, uint256 id) public view virtual returns (uint256) {... */\n    tag_2:\n      callvalue\n      dup1\n      iszero\n      tag_21\n      jumpi\n      0x00\n      dup1\n      revert\n    tag_21:\n      pop\n      tag_22\n      0x04\n      dup1\n      calldatasize\n      sub\n      dup2\n      add\n      swap1\n      tag_23\n      swap2\n      swap1\n      tag_24\n      jump\t// in\n    tag_23:\n      tag_25\n      jump\t// in\n    tag_22:\n      mload(0x40)\n      tag_26\n      swap2\n      swap1\n      tag_27\n      jump\t// in\n    tag_26:\n      mload(0x40)\n      dup1\n      swap2\n      sub\n      swap1\n      return\n        /* \"@openzeppelin/contracts/token/ERC1155/ERC1155.sol\":1380:1685  function supportsInterface(bytes4 interfaceId) public view virtual override(ERC165, IERC165) returns (bool) {... */\n    tag_3:\n      callvalue\n      dup1\n      iszero\n      tag_28\n      jumpi\n      0x00\n      dup1\n      revert\n    tag_28:\n      pop\n      tag_29\n      0x04\n      dup1\n      calldatasize\n      sub\n      dup2\n      add\n      swap1\n      tag_30\n      swap2\n      swap1\n      tag_31\n      jump\t// in\n    tag_30:\n      tag_32\n      jump\t// in\n    tag_29:\n      mload(0x40)\n      tag_33\n      swap2\n      swap1\n      tag_34\n      jump\t// in\n    tag_33:\n      mload(0x40)\n      dup1\n      swap2\n      sub\n      swap1\n      return\n        /* \"@openzeppelin/contracts/token/ERC1155/ERC1155.sol\":2084:2187  function uri(uint256 /* id */) public view virtual returns (string memory) {... */\n    tag_4:\n      callvalue\n      dup1\n      iszero\n      tag_35\n      jumpi\n      0x00\n      dup1\n      revert\n    tag_35:\n      pop\n      tag_36\n      0x04\n      dup1\n      calldatasize\n      sub\n      dup2\n      add\n      swap1\n      tag_37\n      swap2\n      swap1\n      tag_38\n      jump\t// in\n    tag_37:\n      tag_39\n      jump\t// in\n    tag_36:\n      mload(0x40)\n      tag_40\n      swap2\n      swap1\n      tag_41\n      jump\t// in\n    tag_40:\n      mload(0x40)\n      dup1\n      swap2\n      sub\n      swap1\n      return\n        /* \"@openzeppelin/contracts/token/ERC1155/ERC1155.sol\":4014:4443  function safeBatchTransferFrom(... */\n    tag_5:\n      callvalue\n      dup1\n      iszero\n      tag_42\n      jumpi\n      0x00\n      dup1\n      revert\n    tag_42:\n      pop\n      tag_43\n      0x04\n      dup1\n      calldatasize\n      sub\n      dup2\n      add\n      swap1\n      tag_44\n      swap2\n      swap1\n      tag_45\n      jump\t// in\n    tag_44:\n      tag_46\n      jump\t// in\n    tag_43:\n      stop\n        /* \"@openzeppelin/contracts/token/ERC1155/ERC1155.sol\":2536:3088  function balanceOfBatch(... */\n    tag_6:\n      callvalue\n      dup1\n      iszero\n      tag_47\n      jumpi\n      0x00\n      dup1\n      revert\n    tag_47:\n      pop\n      tag_48\n      0x04\n      dup1\n      calldatasize\n      sub\n      dup2\n      add\n      swap1\n      tag_49\n      swap2\n      swap1\n      tag_50\n      jump\t// in\n    tag_49:\n      tag_51\n      jump\t// in\n    tag_48:\n      mload(0x40)\n      tag_52\n      swap2\n      swap1\n      tag_53\n      jump\t// in\n    tag_52:\n      mload(0x40)\n      dup1\n      swap2\n      sub\n      swap1\n      return\n        /* \"CSE426Project/ERC1155SmartContract.sol\":1223:1449  function mintItem(... */\n    tag_7:\n      callvalue\n      dup1\n      iszero\n      tag_54\n      jumpi\n      0x00\n      dup1\n      revert\n    tag_54:\n      pop\n      tag_55\n      0x04\n      dup1\n      calldatasize\n      sub\n      dup2\n      add\n      swap1\n      tag_56\n      swap2\n      swap1\n      tag_57\n      jump\t// in\n    tag_56:\n      tag_58\n      jump\t// in\n    tag_55:\n      stop\n        /* \"CSE426Project/ERC1155SmartContract.sol\":745:1217  function createItem(... */\n    tag_8:\n      callvalue\n      dup1\n      iszero\n      tag_59\n      jumpi\n      0x00\n      dup1\n      revert\n    tag_59:\n      pop\n      tag_60\n      0x04\n      dup1\n      calldatasize\n      sub\n      dup2\n      add\n      swap1\n      tag_61\n      swap2\n      swap1\n      tag_62\n      jump\t// in\n    tag_61:\n      tag_63\n      jump\t// in\n    tag_60:\n      mload(0x40)\n      tag_64\n      swap2\n      swap1\n      tag_27\n      jump\t// in\n    tag_64:\n      mload(0x40)\n      dup1\n      swap2\n      sub\n      swap1\n      return\n        /* \"@openzeppelin/contracts/access/Ownable.sol\":2293:2394  function renounceOwnership() public virtual onlyOwner {... */\n    tag_9:\n      callvalue\n      dup1\n      iszero\n      tag_65\n      jumpi\n      0x00\n      dup1\n      revert\n    tag_65:\n      pop\n      tag_66\n      tag_67\n      jump\t// in\n    tag_66:\n      stop\n        /* \"@openzeppelin/contracts/access/Ownable.sol\":1638:1723  function owner() public view virtual returns (address) {... */\n    tag_10:\n      callvalue\n      dup1\n      iszero\n      tag_68\n      jumpi\n      0x00\n      dup1\n      revert\n    tag_68:\n      pop\n      tag_69\n      tag_70\n      jump\t// in\n    tag_69:\n      mload(0x40)\n      tag_71\n      swap2\n      swap1\n      tag_72\n      jump\t// in\n    tag_71:\n      mload(0x40)\n      dup1\n      swap2\n      sub\n      swap1\n      return\n        /* \"@openzeppelin/contracts/token/ERC1155/ERC1155.sol\":3156:3300  function setApprovalForAll(address operator, bool approved) public virtual {... */\n    tag_11:\n      callvalue\n      dup1\n      iszero\n      tag_73\n      jumpi\n      0x00\n      dup1\n      revert\n    tag_73:\n      pop\n      tag_74\n      0x04\n      dup1\n      calldatasize\n      sub\n      dup2\n      add\n      swap1\n      tag_75\n      swap2\n      swap1\n      tag_76\n      jump\t// in\n    tag_75:\n      tag_77\n      jump\t// in\n    tag_74:\n      stop\n        /* \"CSE426Project/ERC1155SmartContract.sol\":646:683  mapping(uint256 => Item) public items */\n    tag_12:\n      callvalue\n      dup1\n      iszero\n      tag_78\n      jumpi\n      0x00\n      dup1\n      revert\n    tag_78:\n      pop\n      tag_79\n      0x04\n      dup1\n      calldatasize\n      sub\n      dup2\n      add\n      swap1\n      tag_80\n      swap2\n      swap1\n      tag_38\n      jump\t// in\n    tag_80:\n      tag_81\n      jump\t// in\n    tag_79:\n      mload(0x40)\n      tag_82\n      swap5\n      swap4\n      swap3\n      swap2\n      swap1\n      tag_83\n      jump\t// in\n    tag_82:\n      mload(0x40)\n      dup1\n      swap2\n      sub\n      swap1\n      return\n        /* \"CSE426Project/ERC1155SmartContract.sol\":1455:1704  function burnItem(address owner, uint256 itemId, uint256 amount) external {... */\n    tag_13:\n      callvalue\n      dup1\n      iszero\n      tag_84\n      jumpi\n      0x00\n      dup1\n      revert\n    tag_84:\n      pop\n      tag_85\n      0x04\n      dup1\n      calldatasize\n      sub\n      dup2\n      add\n      swap1\n      tag_86\n      swap2\n      swap1\n      tag_57\n      jump\t// in\n    tag_86:\n      tag_87\n      jump\t// in\n    tag_85:\n      stop\n        /* \"CSE426Project/ERC1155SmartContract.sol\":1710:2360  function purchaseItem(uint256 itemId, uint256 amount) external payable {... */\n    tag_14:\n      tag_88\n      0x04\n      dup1\n      calldatasize\n      sub\n      dup2\n      add\n      swap1\n      tag_89\n      swap2\n      swap1\n      tag_90\n      jump\t// in\n    tag_89:\n      tag_91\n      jump\t// in\n    tag_88:\n      stop\n        /* \"@openzeppelin/contracts/token/ERC1155/ERC1155.sol\":3367:3524  function isApprovedForAll(address account, address operator) public view virtual returns (bool) {... */\n    tag_15:\n      callvalue\n      dup1\n      iszero\n      tag_92\n      jumpi\n      0x00\n      dup1\n      revert\n    tag_92:\n      pop\n      tag_93\n      0x04\n      dup1\n      calldatasize\n      sub\n      dup2\n      add\n      swap1\n      tag_94\n      swap2\n      swap1\n      tag_95\n      jump\t// in\n    tag_94:\n      tag_96\n      jump\t// in\n    tag_93:\n      mload(0x40)\n      tag_97\n      swap2\n      swap1\n      tag_34\n      jump\t// in\n    tag_97:\n      mload(0x40)\n      dup1\n      swap2\n      sub\n      swap1\n      return\n        /* \"@openzeppelin/contracts/token/ERC1155/ERC1155.sol\":3591:3942  function safeTransferFrom(address from, address to, uint256 id, uint256 value, bytes memory data) public virtual {... */\n    tag_16:\n      callvalue\n      dup1\n      iszero\n      tag_98\n      jumpi\n      0x00\n      dup1\n      revert\n    tag_98:\n      pop\n      tag_99\n      0x04\n      dup1\n      calldatasize\n      sub\n      dup2\n      add\n      swap1\n      tag_100\n      swap2\n      swap1\n      tag_101\n      jump\t// in\n    tag_100:\n      tag_102\n      jump\t// in\n    tag_99:\n      stop\n        /* \"@openzeppelin/contracts/access/Ownable.sol\":2543:2758  function transferOwnership(address newOwner) public virtual onlyOwner {... */\n    tag_17:\n      callvalue\n      dup1\n      iszero\n      tag_103\n      jumpi\n      0x00\n      dup1\n      revert\n    tag_103:\n      pop\n      tag_104\n      0x04\n      dup1\n      calldatasize\n      sub\n      dup2\n      add\n      swap1\n      tag_105\n      swap2\n      swap1\n      tag_106\n      jump\t// in\n    tag_105:\n      tag_107\n      jump\t// in\n    tag_104:\n      stop\n        /* \"@openzeppelin/contracts/token/ERC1155/ERC1155.sol\":2247:2379  function balanceOf(address account, uint256 id) public view virtual returns (uint256) {... */\n    tag_25:\n        /* \"@openzeppelin/contracts/token/ERC1155/ERC1155.sol\":2324:2331  uint256 */\n      0x00\n        /* \"@openzeppelin/contracts/token/ERC1155/ERC1155.sol\":2350:2359  _balances */\n      dup1\n        /* \"@openzeppelin/contracts/token/ERC1155/ERC1155.sol\":2350:2363  _balances[id] */\n      0x00\n        /* \"@openzeppelin/contracts/token/ERC1155/ERC1155.sol\":2360:2362  id */\n      dup4\n        /* \"@openzeppelin/contracts/token/ERC1155/ERC1155.sol\":2350:2363  _balances[id] */\n      dup2\n      mstore\n      0x20\n      add\n      swap1\n      dup2\n      mstore\n      0x20\n      add\n      0x00\n      keccak256\n        /* \"@openzeppelin/contracts/token/ERC1155/ERC1155.sol\":2350:2372  _balances[id][account] */\n      0x00\n        /* \"@openzeppelin/contracts/token/ERC1155/ERC1155.sol\":2364:2371  account */\n      dup5\n        /* \"@openzeppelin/contracts/token/ERC1155/ERC1155.sol\":2350:2372  _balances[id][account] */\n      0xffffffffffffffffffffffffffffffffffffffff\n      and\n      0xffffffffffffffffffffffffffffffffffffffff\n      and\n      dup2\n      mstore\n      0x20\n      add\n      swap1\n      dup2\n      mstore\n      0x20\n      add\n      0x00\n      keccak256\n      sload\n        /* \"@openzeppelin/contracts/token/ERC1155/ERC1155.sol\":2343:2372  return _balances[id][account] */\n      swap1\n      pop\n        /* \"@openzeppelin/contracts/token/ERC1155/ERC1155.sol\":2247:2379  function balanceOf(address account, uint256 id) public view virtual returns (uint256) {... */\n      swap3\n      swap2\n      pop\n      pop\n      jump\t// out\n        /* \"@openzeppelin/contracts/token/ERC1155/ERC1155.sol\":1380:1685  function supportsInterface(bytes4 interfaceId) public view virtual override(ERC165, IERC165) returns (bool) {... */\n    tag_32:\n        /* \"@openzeppelin/contracts/token/ERC1155/ERC1155.sol\":1482:1486  bool */\n      0x00\n        /* \"@openzeppelin/contracts/token/ERC1155/ERC1155.sol\":1532:1558  type(IERC1155).interfaceId */\n      0xd9b67a2600000000000000000000000000000000000000000000000000000000\n        /* \"@openzeppelin/contracts/token/ERC1155/ERC1155.sol\":1517:1558  interfaceId == type(IERC1155).interfaceId */\n      not(0xffffffffffffffffffffffffffffffffffffffffffffffffffffffff)\n      and\n        /* \"@openzeppelin/contracts/token/ERC1155/ERC1155.sol\":1517:1528  interfaceId */\n      dup3\n        /* \"@openzeppelin/contracts/token/ERC1155/ERC1155.sol\":1517:1558  interfaceId == type(IERC1155).interfaceId */\n      not(0xffffffffffffffffffffffffffffffffffffffffffffffffffffffff)\n      and\n      eq\n        /* \"@openzeppelin/contracts/token/ERC1155/ERC1155.sol\":1517:1626  interfaceId == type(IERC1155).interfaceId ||... */\n      dup1\n      tag_110\n      jumpi\n      pop\n        /* \"@openzeppelin/contracts/token/ERC1155/ERC1155.sol\":1589:1626  type(IERC1155MetadataURI).interfaceId */\n      0x0e89341c00000000000000000000000000000000000000000000000000000000\n        /* \"@openzeppelin/contracts/token/ERC1155/ERC1155.sol\":1574:1626  interfaceId == type(IERC1155MetadataURI).interfaceId */\n      not(0xffffffffffffffffffffffffffffffffffffffffffffffffffffffff)\n      and\n        /* \"@openzeppelin/contracts/token/ERC1155/ERC1155.sol\":1574:1585  interfaceId */\n      dup3\n        /* \"@openzeppelin/contracts/token/ERC1155/ERC1155.sol\":1574:1626  interfaceId == type(IERC1155MetadataURI).interfaceId */\n      not(0xffffffffffffffffffffffffffffffffffffffffffffffffffffffff)\n      and\n      eq\n        /* \"@openzeppelin/contracts/token/ERC1155/ERC1155.sol\":1517:1626  interfaceId == type(IERC1155).interfaceId ||... */\n    tag_110:\n        /* \"@openzeppelin/contracts/token/ERC1155/ERC1155.sol\":1517:1678  interfaceId == type(IERC1155).interfaceId ||... */\n      dup1\n      tag_111\n      jumpi\n      pop\n        /* \"@openzeppelin/contracts/token/ERC1155/ERC1155.sol\":1642:1678  super.supportsInterface(interfaceId) */\n      tag_112\n        /* \"@openzeppelin/contracts/token/ERC1155/ERC1155.sol\":1666:1677  interfaceId */\n      dup3\n        /* \"@openzeppelin/contracts/token/ERC1155/ERC1155.sol\":1642:1665  super.supportsInterface */\n      tag_113\n        /* \"@openzeppelin/contracts/token/ERC1155/ERC1155.sol\":1642:1678  super.supportsInterface(interfaceId) */\n      jump\t// in\n    tag_112:\n        /* \"@openzeppelin/contracts/token/ERC1155/ERC1155.sol\":1517:1678  interfaceId == type(IERC1155).interfaceId ||... */\n    tag_111:\n        /* \"@openzeppelin/contracts/token/ERC1155/ERC1155.sol\":1498:1678  return... */\n      swap1\n      pop\n        /* \"@openzeppelin/contracts/token/ERC1155/ERC1155.sol\":1380:1685  function supportsInterface(bytes4 interfaceId) public view virtual override(ERC165, IERC165) returns (bool) {... */\n      swap2\n      swap1\n      pop\n      jump\t// out\n        /* \"@openzeppelin/contracts/token/ERC1155/ERC1155.sol\":2084:2187  function uri(uint256 /* id */) public view virtual returns (string memory) {... */\n    tag_39:\n        /* \"@openzeppelin/contracts/token/ERC1155/ERC1155.sol\":2144:2157  string memory */\n      0x60\n        /* \"@openzeppelin/contracts/token/ERC1155/ERC1155.sol\":2176:2180  _uri */\n      0x02\n        /* \"@openzeppelin/contracts/token/ERC1155/ERC1155.sol\":2169:2180  return _uri */\n      dup1\n      sload\n      tag_115\n      swap1\n      tag_116\n      jump\t// in\n    tag_115:\n      dup1\n      0x1f\n      add\n      0x20\n      dup1\n      swap2\n      div\n      mul\n      0x20\n      add\n      mload(0x40)\n      swap1\n      dup2\n      add\n      0x40\n      mstore\n      dup1\n      swap3\n      swap2\n      swap1\n      dup2\n      dup2\n      mstore\n      0x20\n      add\n      dup3\n      dup1\n      sload\n      tag_117\n      swap1\n      tag_116\n      jump\t// in\n    tag_117:\n      dup1\n      iszero\n      tag_118\n      jumpi\n      dup1\n      0x1f\n      lt\n      tag_119\n      jumpi\n      0x0100\n      dup1\n      dup4\n      sload\n      div\n      mul\n      dup4\n      mstore\n      swap2\n      0x20\n      add\n      swap2\n      jump(tag_118)\n    tag_119:\n      dup3\n      add\n      swap2\n      swap1\n      0x00\n      mstore\n      keccak256(0x00, 0x20)\n      swap1\n    tag_120:\n      dup2\n      sload\n      dup2\n      mstore\n      swap1\n      0x01\n      add\n      swap1\n      0x20\n      add\n      dup1\n      dup4\n      gt\n      tag_120\n      jumpi\n      dup3\n      swap1\n      sub\n      0x1f\n      and\n      dup3\n      add\n      swap2\n    tag_118:\n      pop\n      pop\n      pop\n      pop\n      pop\n      swap1\n      pop\n        /* \"@openzeppelin/contracts/token/ERC1155/ERC1155.sol\":2084:2187  function uri(uint256 /* id */) public view virtual returns (string memory) {... */\n      swap2\n      swap1\n      pop\n      jump\t// out\n        /* \"@openzeppelin/contracts/token/ERC1155/ERC1155.sol\":4014:4443  function safeBatchTransferFrom(... */\n    tag_46:\n        /* \"@openzeppelin/contracts/token/ERC1155/ERC1155.sol\":4208:4222  address sender */\n      0x00\n        /* \"@openzeppelin/contracts/token/ERC1155/ERC1155.sol\":4225:4237  _msgSender() */\n      tag_122\n        /* \"@openzeppelin/contracts/token/ERC1155/ERC1155.sol\":4225:4235  _msgSender */\n      tag_123\n        /* \"@openzeppelin/contracts/token/ERC1155/ERC1155.sol\":4225:4237  _msgSender() */\n      jump\t// in\n    tag_122:\n        /* \"@openzeppelin/contracts/token/ERC1155/ERC1155.sol\":4208:4237  address sender = _msgSender() */\n      swap1\n      pop\n        /* \"@openzeppelin/contracts/token/ERC1155/ERC1155.sol\":4259:4265  sender */\n      dup1\n        /* \"@openzeppelin/contracts/token/ERC1155/ERC1155.sol\":4251:4265  from != sender */\n      0xffffffffffffffffffffffffffffffffffffffff\n      and\n        /* \"@openzeppelin/contracts/token/ERC1155/ERC1155.sol\":4251:4255  from */\n      dup7\n        /* \"@openzeppelin/contracts/token/ERC1155/ERC1155.sol\":4251:4265  from != sender */\n      0xffffffffffffffffffffffffffffffffffffffff\n      and\n      eq\n      iszero\n        /* \"@openzeppelin/contracts/token/ERC1155/ERC1155.sol\":4251:4300  from != sender && !isApprovedForAll(from, sender) */\n      dup1\n      iszero\n      tag_124\n      jumpi\n      pop\n        /* \"@openzeppelin/contracts/token/ERC1155/ERC1155.sol\":4270:4300  isApprovedForAll(from, sender) */\n      tag_125\n        /* \"@openzeppelin/contracts/token/ERC1155/ERC1155.sol\":4287:4291  from */\n      dup7\n        /* \"@openzeppelin/contracts/token/ERC1155/ERC1155.sol\":4293:4299  sender */\n      dup3\n        /* \"@openzeppelin/contracts/token/ERC1155/ERC1155.sol\":4270:4286  isApprovedForAll */\n      tag_96\n        /* \"@openzeppelin/contracts/token/ERC1155/ERC1155.sol\":4270:4300  isApprovedForAll(from, sender) */\n      jump\t// in\n    tag_125:\n        /* \"@openzeppelin/contracts/token/ERC1155/ERC1155.sol\":4269:4300  !isApprovedForAll(from, sender) */\n      iszero\n        /* \"@openzeppelin/contracts/token/ERC1155/ERC1155.sol\":4251:4300  from != sender && !isApprovedForAll(from, sender) */\n    tag_124:\n        /* \"@openzeppelin/contracts/token/ERC1155/ERC1155.sol\":4247:4376  if (from != sender && !isApprovedForAll(from, sender)) {... */\n      iszero\n      tag_126\n      jumpi\n        /* \"@openzeppelin/contracts/token/ERC1155/ERC1155.sol\":4352:4358  sender */\n      dup1\n        /* \"@openzeppelin/contracts/token/ERC1155/ERC1155.sol\":4360:4364  from */\n      dup7\n        /* \"@openzeppelin/contracts/token/ERC1155/ERC1155.sol\":4323:4365  ERC1155MissingApprovalForAll(sender, from) */\n      mload(0x40)\n      0xe237d92200000000000000000000000000000000000000000000000000000000\n      dup2\n      mstore\n      0x04\n      add\n      tag_127\n      swap3\n      swap2\n      swap1\n      tag_128\n      jump\t// in\n    tag_127:\n      mload(0x40)\n      dup1\n      swap2\n      sub\n      swap1\n      revert\n        /* \"@openzeppelin/contracts/token/ERC1155/ERC1155.sol\":4247:4376  if (from != sender && !isApprovedForAll(from, sender)) {... */\n    tag_126:\n        /* \"@openzeppelin/contracts/token/ERC1155/ERC1155.sol\":4385:4436  _safeBatchTransferFrom(from, to, ids, values, data) */\n      tag_129\n        /* \"@openzeppelin/contracts/token/ERC1155/ERC1155.sol\":4408:4412  from */\n      dup7\n        /* \"@openzeppelin/contracts/token/ERC1155/ERC1155.sol\":4414:4416  to */\n      dup7\n        /* \"@openzeppelin/contracts/token/ERC1155/ERC1155.sol\":4418:4421  ids */\n      dup7\n        /* \"@openzeppelin/contracts/token/ERC1155/ERC1155.sol\":4423:4429  values */\n      dup7\n        /* \"@openzeppelin/contracts/token/ERC1155/ERC1155.sol\":4431:4435  data */\n      dup7\n        /* \"@openzeppelin/contracts/token/ERC1155/ERC1155.sol\":4385:4407  _safeBatchTransferFrom */\n      tag_130\n        /* \"@openzeppelin/contracts/token/ERC1155/ERC1155.sol\":4385:4436  _safeBatchTransferFrom(from, to, ids, values, data) */\n      jump\t// in\n    tag_129:\n        /* \"@openzeppelin/contracts/token/ERC1155/ERC1155.sol\":4198:4443  {... */\n      pop\n        /* \"@openzeppelin/contracts/token/ERC1155/ERC1155.sol\":4014:4443  function safeBatchTransferFrom(... */\n      pop\n      pop\n      pop\n      pop\n      pop\n      jump\t// out\n        /* \"@openzeppelin/contracts/token/ERC1155/ERC1155.sol\":2536:3088  function balanceOfBatch(... */\n    tag_51:\n        /* \"@openzeppelin/contracts/token/ERC1155/ERC1155.sol\":2660:2676  uint256[] memory */\n      0x60\n        /* \"@openzeppelin/contracts/token/ERC1155/ERC1155.sol\":2711:2714  ids */\n      dup2\n        /* \"@openzeppelin/contracts/token/ERC1155/ERC1155.sol\":2711:2721  ids.length */\n      mload\n        /* \"@openzeppelin/contracts/token/ERC1155/ERC1155.sol\":2692:2700  accounts */\n      dup4\n        /* \"@openzeppelin/contracts/token/ERC1155/ERC1155.sol\":2692:2707  accounts.length */\n      mload\n        /* \"@openzeppelin/contracts/token/ERC1155/ERC1155.sol\":2692:2721  accounts.length != ids.length */\n      eq\n        /* \"@openzeppelin/contracts/token/ERC1155/ERC1155.sol\":2688:2809  if (accounts.length != ids.length) {... */\n      tag_132\n      jumpi\n        /* \"@openzeppelin/contracts/token/ERC1155/ERC1155.sol\":2770:2773  ids */\n      dup2\n        /* \"@openzeppelin/contracts/token/ERC1155/ERC1155.sol\":2770:2780  ids.length */\n      mload\n        /* \"@openzeppelin/contracts/token/ERC1155/ERC1155.sol\":2782:2790  accounts */\n      dup4\n        /* \"@openzeppelin/contracts/token/ERC1155/ERC1155.sol\":2782:2797  accounts.length */\n      mload\n        /* \"@openzeppelin/contracts/token/ERC1155/ERC1155.sol\":2744:2798  ERC1155InvalidArrayLength(ids.length, accounts.length) */\n      mload(0x40)\n      0x5b05999100000000000000000000000000000000000000000000000000000000\n      dup2\n      mstore\n      0x04\n      add\n      tag_133\n      swap3\n      swap2\n      swap1\n      tag_134\n      jump\t// in\n    tag_133:\n      mload(0x40)\n      dup1\n      swap2\n      sub\n      swap1\n      revert\n        /* \"@openzeppelin/contracts/token/ERC1155/ERC1155.sol\":2688:2809  if (accounts.length != ids.length) {... */\n    tag_132:\n        /* \"@openzeppelin/contracts/token/ERC1155/ERC1155.sol\":2819:2849  uint256[] memory batchBalances */\n      0x00\n        /* \"@openzeppelin/contracts/token/ERC1155/ERC1155.sol\":2866:2874  accounts */\n      dup4\n        /* \"@openzeppelin/contracts/token/ERC1155/ERC1155.sol\":2866:2881  accounts.length */\n      mload\n        /* \"@openzeppelin/contracts/token/ERC1155/ERC1155.sol\":2852:2882  new uint256[](accounts.length) */\n      0xffffffffffffffff\n      dup2\n      gt\n      iszero\n      tag_135\n      jumpi\n      tag_136\n      tag_137\n      jump\t// in\n    tag_136:\n    tag_135:\n      mload(0x40)\n      swap1\n      dup1\n      dup3\n      mstore\n      dup1\n      0x20\n      mul\n      0x20\n      add\n      dup3\n      add\n      0x40\n      mstore\n      dup1\n      iszero\n      tag_138\n      jumpi\n      dup2\n      0x20\n      add\n      0x20\n      dup3\n      mul\n      dup1\n      calldatasize\n      dup4\n      calldatacopy\n      dup1\n      dup3\n      add\n      swap2\n      pop\n      pop\n      swap1\n      pop\n    tag_138:\n      pop\n        /* \"@openzeppelin/contracts/token/ERC1155/ERC1155.sol\":2819:2882  uint256[] memory batchBalances = new uint256[](accounts.length) */\n      swap1\n      pop\n        /* \"@openzeppelin/contracts/token/ERC1155/ERC1155.sol\":2898:2907  uint256 i */\n      0x00\n        /* \"@openzeppelin/contracts/token/ERC1155/ERC1155.sol\":2893:3051  for (uint256 i = 0; i < accounts.length; ++i) {... */\n    tag_139:\n        /* \"@openzeppelin/contracts/token/ERC1155/ERC1155.sol\":2917:2925  accounts */\n      dup5\n        /* \"@openzeppelin/contracts/token/ERC1155/ERC1155.sol\":2917:2932  accounts.length */\n      mload\n        /* \"@openzeppelin/contracts/token/ERC1155/ERC1155.sol\":2913:2914  i */\n      dup2\n        /* \"@openzeppelin/contracts/token/ERC1155/ERC1155.sol\":2913:2932  i < accounts.length */\n      lt\n        /* \"@openzeppelin/contracts/token/ERC1155/ERC1155.sol\":2893:3051  for (uint256 i = 0; i < accounts.length; ++i) {... */\n      iszero\n      tag_140\n      jumpi\n        /* \"@openzeppelin/contracts/token/ERC1155/ERC1155.sol\":2972:3040  balanceOf(accounts.unsafeMemoryAccess(i), ids.unsafeMemoryAccess(i)) */\n      tag_142\n        /* \"@openzeppelin/contracts/token/ERC1155/ERC1155.sol\":2982:3012  accounts.unsafeMemoryAccess(i) */\n      tag_143\n        /* \"@openzeppelin/contracts/token/ERC1155/ERC1155.sol\":3010:3011  i */\n      dup3\n        /* \"@openzeppelin/contracts/token/ERC1155/ERC1155.sol\":2982:2990  accounts */\n      dup8\n        /* \"@openzeppelin/contracts/token/ERC1155/ERC1155.sol\":2982:3009  accounts.unsafeMemoryAccess */\n      tag_144\n      swap1\n        /* \"@openzeppelin/contracts/token/ERC1155/ERC1155.sol\":2982:3012  accounts.unsafeMemoryAccess(i) */\n      swap2\n      swap1\n      0xffffffff\n      and\n      jump\t// in\n    tag_143:\n        /* \"@openzeppelin/contracts/token/ERC1155/ERC1155.sol\":3014:3039  ids.unsafeMemoryAccess(i) */\n      tag_145\n        /* \"@openzeppelin/contracts/token/ERC1155/ERC1155.sol\":3037:3038  i */\n      dup4\n        /* \"@openzeppelin/contracts/token/ERC1155/ERC1155.sol\":3014:3017  ids */\n      dup8\n        /* \"@openzeppelin/contracts/token/ERC1155/ERC1155.sol\":3014:3036  ids.unsafeMemoryAccess */\n      tag_146\n      swap1\n        /* \"@openzeppelin/contracts/token/ERC1155/ERC1155.sol\":3014:3039  ids.unsafeMemoryAccess(i) */\n      swap2\n      swap1\n      0xffffffff\n      and\n      jump\t// in\n    tag_145:\n        /* \"@openzeppelin/contracts/token/ERC1155/ERC1155.sol\":2972:2981  balanceOf */\n      tag_25\n        /* \"@openzeppelin/contracts/token/ERC1155/ERC1155.sol\":2972:3040  balanceOf(accounts.unsafeMemoryAccess(i), ids.unsafeMemoryAccess(i)) */\n      jump\t// in\n    tag_142:\n        /* \"@openzeppelin/contracts/token/ERC1155/ERC1155.sol\":2953:2966  batchBalances */\n      dup3\n        /* \"@openzeppelin/contracts/token/ERC1155/ERC1155.sol\":2967:2968  i */\n      dup3\n        /* \"@openzeppelin/contracts/token/ERC1155/ERC1155.sol\":2953:2969  batchBalances[i] */\n      dup2\n      mload\n      dup2\n      lt\n      tag_147\n      jumpi\n      tag_148\n      tag_149\n      jump\t// in\n    tag_148:\n    tag_147:\n      0x20\n      mul\n      0x20\n      add\n      add\n        /* \"@openzeppelin/contracts/token/ERC1155/ERC1155.sol\":2953:3040  batchBalances[i] = balanceOf(accounts.unsafeMemoryAccess(i), ids.unsafeMemoryAccess(i)) */\n      dup2\n      dup2\n      mstore\n      pop\n      pop\n        /* \"@openzeppelin/contracts/token/ERC1155/ERC1155.sol\":2934:2937  ++i */\n      dup1\n      tag_150\n      swap1\n      tag_151\n      jump\t// in\n    tag_150:\n      swap1\n      pop\n        /* \"@openzeppelin/contracts/token/ERC1155/ERC1155.sol\":2893:3051  for (uint256 i = 0; i < accounts.length; ++i) {... */\n      jump(tag_139)\n    tag_140:\n      pop\n        /* \"@openzeppelin/contracts/token/ERC1155/ERC1155.sol\":3068:3081  batchBalances */\n      dup1\n        /* \"@openzeppelin/contracts/token/ERC1155/ERC1155.sol\":3061:3081  return batchBalances */\n      swap2\n      pop\n      pop\n        /* \"@openzeppelin/contracts/token/ERC1155/ERC1155.sol\":2536:3088  function balanceOfBatch(... */\n      swap3\n      swap2\n      pop\n      pop\n      jump\t// out\n        /* \"CSE426Project/ERC1155SmartContract.sol\":1223:1449  function mintItem(... */\n    tag_58:\n        /* \"@openzeppelin/contracts/access/Ownable.sol\":1531:1544  _checkOwner() */\n      tag_153\n        /* \"@openzeppelin/contracts/access/Ownable.sol\":1531:1542  _checkOwner */\n      tag_154\n        /* \"@openzeppelin/contracts/access/Ownable.sol\":1531:1544  _checkOwner() */\n      jump\t// in\n    tag_153:\n        /* \"CSE426Project/ERC1155SmartContract.sol\":1372:1378  itemId */\n      dup2\n        /* \"CSE426Project/ERC1155SmartContract.sol\":1352:1357  items */\n      0x05\n        /* \"CSE426Project/ERC1155SmartContract.sol\":1352:1365  items[itemId] */\n      0x00\n        /* \"CSE426Project/ERC1155SmartContract.sol\":1358:1364  itemId */\n      dup5\n        /* \"CSE426Project/ERC1155SmartContract.sol\":1352:1365  items[itemId] */\n      dup2\n      mstore\n      0x20\n      add\n      swap1\n      dup2\n      mstore\n      0x20\n      add\n      0x00\n      keccak256\n        /* \"CSE426Project/ERC1155SmartContract.sol\":1352:1368  items[itemId].id */\n      0x00\n      add\n      sload\n        /* \"CSE426Project/ERC1155SmartContract.sol\":1352:1378  items[itemId].id == itemId */\n      eq\n        /* \"CSE426Project/ERC1155SmartContract.sol\":1344:1403  require(items[itemId].id == itemId, \"Item does not exist.\") */\n      tag_156\n      jumpi\n      mload(0x40)\n      0x08c379a000000000000000000000000000000000000000000000000000000000\n      dup2\n      mstore\n      0x04\n      add\n      tag_157\n      swap1\n      tag_158\n      jump\t// in\n    tag_157:\n      mload(0x40)\n      dup1\n      swap2\n      sub\n      swap1\n      revert\n    tag_156:\n        /* \"CSE426Project/ERC1155SmartContract.sol\":1413:1442  _mint(to, itemId, amount, \"\") */\n      tag_159\n        /* \"CSE426Project/ERC1155SmartContract.sol\":1419:1421  to */\n      dup4\n        /* \"CSE426Project/ERC1155SmartContract.sol\":1423:1429  itemId */\n      dup4\n        /* \"CSE426Project/ERC1155SmartContract.sol\":1431:1437  amount */\n      dup4\n        /* \"CSE426Project/ERC1155SmartContract.sol\":1413:1442  _mint(to, itemId, amount, \"\") */\n      mload(0x40)\n      dup1\n      0x20\n      add\n      0x40\n      mstore\n      dup1\n      0x00\n      dup2\n      mstore\n      pop\n        /* \"CSE426Project/ERC1155SmartContract.sol\":1413:1418  _mint */\n      tag_160\n        /* \"CSE426Project/ERC1155SmartContract.sol\":1413:1442  _mint(to, itemId, amount, \"\") */\n      jump\t// in\n    tag_159:\n        /* \"CSE426Project/ERC1155SmartContract.sol\":1223:1449  function mintItem(... */\n      pop\n      pop\n      pop\n      jump\t// out\n        /* \"CSE426Project/ERC1155SmartContract.sol\":745:1217  function createItem(... */\n    tag_63:\n        /* \"CSE426Project/ERC1155SmartContract.sol\":889:896  uint256 */\n      0x00\n        /* \"@openzeppelin/contracts/access/Ownable.sol\":1531:1544  _checkOwner() */\n      tag_162\n        /* \"@openzeppelin/contracts/access/Ownable.sol\":1531:1542  _checkOwner */\n      tag_154\n        /* \"@openzeppelin/contracts/access/Ownable.sol\":1531:1544  _checkOwner() */\n      jump\t// in\n    tag_162:\n        /* \"CSE426Project/ERC1155SmartContract.sol\":908:928  _itemIds.increment() */\n      tag_164\n        /* \"CSE426Project/ERC1155SmartContract.sol\":908:916  _itemIds */\n      0x04\n        /* \"CSE426Project/ERC1155SmartContract.sol\":908:926  _itemIds.increment */\n      tag_165\n        /* \"CSE426Project/ERC1155SmartContract.sol\":908:928  _itemIds.increment() */\n      jump\t// in\n    tag_164:\n        /* \"CSE426Project/ERC1155SmartContract.sol\":938:955  uint256 newItemId */\n      0x00\n        /* \"CSE426Project/ERC1155SmartContract.sol\":958:976  _itemIds.current() */\n      tag_166\n        /* \"CSE426Project/ERC1155SmartContract.sol\":958:966  _itemIds */\n      0x04\n        /* \"CSE426Project/ERC1155SmartContract.sol\":958:974  _itemIds.current */\n      tag_167\n        /* \"CSE426Project/ERC1155SmartContract.sol\":958:976  _itemIds.current() */\n      jump\t// in\n    tag_166:\n        /* \"CSE426Project/ERC1155SmartContract.sol\":938:976  uint256 newItemId = _itemIds.current() */\n      swap1\n      pop\n        /* \"CSE426Project/ERC1155SmartContract.sol\":987:1006  Item memory newItem */\n      0x00\n        /* \"CSE426Project/ERC1155SmartContract.sol\":1009:1146  Item({... */\n      mload(0x40)\n      dup1\n      0x80\n      add\n      0x40\n      mstore\n      dup1\n        /* \"CSE426Project/ERC1155SmartContract.sol\":1032:1041  newItemId */\n      dup4\n        /* \"CSE426Project/ERC1155SmartContract.sol\":1009:1146  Item({... */\n      dup2\n      mstore\n      0x20\n      add\n        /* \"CSE426Project/ERC1155SmartContract.sol\":1065:1073  itemType */\n      dup8\n        /* \"CSE426Project/ERC1155SmartContract.sol\":1009:1146  Item({... */\n      0x02\n      dup2\n      gt\n      iszero\n      tag_168\n      jumpi\n      tag_169\n      tag_170\n      jump\t// in\n    tag_169:\n    tag_168:\n      dup2\n      mstore\n      0x20\n      add\n        /* \"CSE426Project/ERC1155SmartContract.sol\":1093:1097  name */\n      dup7\n        /* \"CSE426Project/ERC1155SmartContract.sol\":1009:1146  Item({... */\n      dup2\n      mstore\n      0x20\n      add\n        /* \"CSE426Project/ERC1155SmartContract.sol\":1124:1135  description */\n      dup6\n        /* \"CSE426Project/ERC1155SmartContract.sol\":1009:1146  Item({... */\n      dup2\n      mstore\n      pop\n        /* \"CSE426Project/ERC1155SmartContract.sol\":987:1146  Item memory newItem = Item({... */\n      swap1\n      pop\n        /* \"CSE426Project/ERC1155SmartContract.sol\":1176:1183  newItem */\n      dup1\n        /* \"CSE426Project/ERC1155SmartContract.sol\":1157:1162  items */\n      0x05\n        /* \"CSE426Project/ERC1155SmartContract.sol\":1157:1173  items[newItemId] */\n      0x00\n        /* \"CSE426Project/ERC1155SmartContract.sol\":1163:1172  newItemId */\n      dup5\n        /* \"CSE426Project/ERC1155SmartContract.sol\":1157:1173  items[newItemId] */\n      dup2\n      mstore\n      0x20\n      add\n      swap1\n      dup2\n      mstore\n      0x20\n      add\n      0x00\n      keccak256\n        /* \"CSE426Project/ERC1155SmartContract.sol\":1157:1183  items[newItemId] = newItem */\n      0x00\n      dup3\n      add\n      mload\n      dup2\n      0x00\n      add\n      sstore\n      0x20\n      dup3\n      add\n      mload\n      dup2\n      0x01\n      add\n      exp(0x0100, 0x00)\n      dup2\n      sload\n      dup2\n      0xff\n      mul\n      not\n      and\n      swap1\n      dup4\n      0x02\n      dup2\n      gt\n      iszero\n      tag_171\n      jumpi\n      tag_172\n      tag_170\n      jump\t// in\n    tag_172:\n    tag_171:\n      mul\n      or\n      swap1\n      sstore\n      pop\n      0x40\n      dup3\n      add\n      mload\n      dup2\n      0x02\n      add\n      swap1\n      dup2\n      tag_173\n      swap2\n      swap1\n      tag_174\n      jump\t// in\n    tag_173:\n      pop\n      0x60\n      dup3\n      add\n      mload\n      dup2\n      0x03\n      add\n      swap1\n      dup2\n      tag_175\n      swap2\n      swap1\n      tag_174\n      jump\t// in\n    tag_175:\n      pop\n      swap1\n      pop\n      pop\n        /* \"CSE426Project/ERC1155SmartContract.sol\":1201:1210  newItemId */\n      dup2\n        /* \"CSE426Project/ERC1155SmartContract.sol\":1194:1210  return newItemId */\n      swap3\n      pop\n      pop\n      pop\n        /* \"CSE426Project/ERC1155SmartContract.sol\":745:1217  function createItem(... */\n      swap4\n      swap3\n      pop\n      pop\n      pop\n      jump\t// out\n        /* \"@openzeppelin/contracts/access/Ownable.sol\":2293:2394  function renounceOwnership() public virtual onlyOwner {... */\n    tag_67:\n        /* \"@openzeppelin/contracts/access/Ownable.sol\":1531:1544  _checkOwner() */\n      tag_177\n        /* \"@openzeppelin/contracts/access/Ownable.sol\":1531:1542  _checkOwner */\n      tag_154\n        /* \"@openzeppelin/contracts/access/Ownable.sol\":1531:1544  _checkOwner() */\n      jump\t// in\n    tag_177:\n        /* \"@openzeppelin/contracts/access/Ownable.sol\":2357:2387  _transferOwnership(address(0)) */\n      tag_179\n        /* \"@openzeppelin/contracts/access/Ownable.sol\":2384:2385  0 */\n      0x00\n        /* \"@openzeppelin/contracts/access/Ownable.sol\":2357:2375  _transferOwnership */\n      tag_180\n        /* \"@openzeppelin/contracts/access/Ownable.sol\":2357:2387  _transferOwnership(address(0)) */\n      jump\t// in\n    tag_179:\n        /* \"@openzeppelin/contracts/access/Ownable.sol\":2293:2394  function renounceOwnership() public virtual onlyOwner {... */\n      jump\t// out\n        /* \"@openzeppelin/contracts/access/Ownable.sol\":1638:1723  function owner() public view virtual returns (address) {... */\n    tag_70:\n        /* \"@openzeppelin/contracts/access/Ownable.sol\":1684:1691  address */\n      0x00\n        /* \"@openzeppelin/contracts/access/Ownable.sol\":1710:1716  _owner */\n      0x03\n      0x00\n      swap1\n      sload\n      swap1\n      0x0100\n      exp\n      swap1\n      div\n      0xffffffffffffffffffffffffffffffffffffffff\n      and\n        /* \"@openzeppelin/contracts/access/Ownable.sol\":1703:1716  return _owner */\n      swap1\n      pop\n        /* \"@openzeppelin/contracts/access/Ownable.sol\":1638:1723  function owner() public view virtual returns (address) {... */\n      swap1\n      jump\t// out\n        /* \"@openzeppelin/contracts/token/ERC1155/ERC1155.sol\":3156:3300  function setApprovalForAll(address operator, bool approved) public virtual {... */\n    tag_77:\n        /* \"@openzeppelin/contracts/token/ERC1155/ERC1155.sol\":3241:3293  _setApprovalForAll(_msgSender(), operator, approved) */\n      tag_183\n        /* \"@openzeppelin/contracts/token/ERC1155/ERC1155.sol\":3260:3272  _msgSender() */\n      tag_184\n        /* \"@openzeppelin/contracts/token/ERC1155/ERC1155.sol\":3260:3270  _msgSender */\n      tag_123\n        /* \"@openzeppelin/contracts/token/ERC1155/ERC1155.sol\":3260:3272  _msgSender() */\n      jump\t// in\n    tag_184:\n        /* \"@openzeppelin/contracts/token/ERC1155/ERC1155.sol\":3274:3282  operator */\n      dup4\n        /* \"@openzeppelin/contracts/token/ERC1155/ERC1155.sol\":3284:3292  approved */\n      dup4\n        /* \"@openzeppelin/contracts/token/ERC1155/ERC1155.sol\":3241:3259  _setApprovalForAll */\n      tag_185\n        /* \"@openzeppelin/contracts/token/ERC1155/ERC1155.sol\":3241:3293  _setApprovalForAll(_msgSender(), operator, approved) */\n      jump\t// in\n    tag_183:\n        /* \"@openzeppelin/contracts/token/ERC1155/ERC1155.sol\":3156:3300  function setApprovalForAll(address operator, bool approved) public virtual {... */\n      pop\n      pop\n      jump\t// out\n        /* \"CSE426Project/ERC1155SmartContract.sol\":646:683  mapping(uint256 => Item) public items */\n    tag_81:\n      mstore(0x20, 0x05)\n      dup1\n      0x00\n      mstore\n      keccak256(0x00, 0x40)\n      0x00\n      swap2\n      pop\n      swap1\n      pop\n      dup1\n      0x00\n      add\n      sload\n      swap1\n      dup1\n      0x01\n      add\n      0x00\n      swap1\n      sload\n      swap1\n      0x0100\n      exp\n      swap1\n      div\n      0xff\n      and\n      swap1\n      dup1\n      0x02\n      add\n      dup1\n      sload\n      tag_186\n      swap1\n      tag_116\n      jump\t// in\n    tag_186:\n      dup1\n      0x1f\n      add\n      0x20\n      dup1\n      swap2\n      div\n      mul\n      0x20\n      add\n      mload(0x40)\n      swap1\n      dup2\n      add\n      0x40\n      mstore\n      dup1\n      swap3\n      swap2\n      swap1\n      dup2\n      dup2\n      mstore\n      0x20\n      add\n      dup3\n      dup1\n      sload\n      tag_187\n      swap1\n      tag_116\n      jump\t// in\n    tag_187:\n      dup1\n      iszero\n      tag_188\n      jumpi\n      dup1\n      0x1f\n      lt\n      tag_189\n      jumpi\n      0x0100\n      dup1\n      dup4\n      sload\n      div\n      mul\n      dup4\n      mstore\n      swap2\n      0x20\n      add\n      swap2\n      jump(tag_188)\n    tag_189:\n      dup3\n      add\n      swap2\n      swap1\n      0x00\n      mstore\n      keccak256(0x00, 0x20)\n      swap1\n    tag_190:\n      dup2\n      sload\n      dup2\n      mstore\n      swap1\n      0x01\n      add\n      swap1\n      0x20\n      add\n      dup1\n      dup4\n      gt\n      tag_190\n      jumpi\n      dup3\n      swap1\n      sub\n      0x1f\n      and\n      dup3\n      add\n      swap2\n    tag_188:\n      pop\n      pop\n      pop\n      pop\n      pop\n      swap1\n      dup1\n      0x03\n      add\n      dup1\n      sload\n      tag_191\n      swap1\n      tag_116\n      jump\t// in\n    tag_191:\n      dup1\n      0x1f\n      add\n      0x20\n      dup1\n      swap2\n      div\n      mul\n      0x20\n      add\n      mload(0x40)\n      swap1\n      dup2\n      add\n      0x40\n      mstore\n      dup1\n      swap3\n      swap2\n      swap1\n      dup2\n      dup2\n      mstore\n      0x20\n      add\n      dup3\n      dup1\n      sload\n      tag_192\n      swap1\n      tag_116\n      jump\t// in\n    tag_192:\n      dup1\n      iszero\n      tag_193\n      jumpi\n      dup1\n      0x1f\n      lt\n      tag_194\n      jumpi\n      0x0100\n      dup1\n      dup4\n      sload\n      div\n      mul\n      dup4\n      mstore\n      swap2\n      0x20\n      add\n      swap2\n      jump(tag_193)\n    tag_194:\n      dup3\n      add\n      swap2\n      swap1\n      0x00\n      mstore\n      keccak256(0x00, 0x20)\n      swap1\n    tag_195:\n      dup2\n      sload\n      dup2\n      mstore\n      swap1\n      0x01\n      add\n      swap1\n      0x20\n      add\n      dup1\n      dup4\n      gt\n      tag_195\n      jumpi\n      dup3\n      swap1\n      sub\n      0x1f\n      and\n      dup3\n      add\n      swap2\n    tag_193:\n      pop\n      pop\n      pop\n      pop\n      pop\n      swap1\n      pop\n      dup5\n      jump\t// out\n        /* \"CSE426Project/ERC1155SmartContract.sol\":1455:1704  function burnItem(address owner, uint256 itemId, uint256 amount) external {... */\n    tag_87:\n        /* \"CSE426Project/ERC1155SmartContract.sol\":1574:1579  owner */\n      dup3\n        /* \"CSE426Project/ERC1155SmartContract.sol\":1560:1579  msg.sender == owner */\n      0xffffffffffffffffffffffffffffffffffffffff\n      and\n        /* \"CSE426Project/ERC1155SmartContract.sol\":1560:1570  msg.sender */\n      caller\n        /* \"CSE426Project/ERC1155SmartContract.sol\":1560:1579  msg.sender == owner */\n      0xffffffffffffffffffffffffffffffffffffffff\n      and\n      eq\n        /* \"CSE426Project/ERC1155SmartContract.sol\":1560:1618  msg.sender == owner || isApprovedForAll(owner, msg.sender) */\n      dup1\n      tag_197\n      jumpi\n      pop\n        /* \"CSE426Project/ERC1155SmartContract.sol\":1583:1618  isApprovedForAll(owner, msg.sender) */\n      tag_198\n        /* \"CSE426Project/ERC1155SmartContract.sol\":1600:1605  owner */\n      dup4\n        /* \"CSE426Project/ERC1155SmartContract.sol\":1607:1617  msg.sender */\n      caller\n        /* \"CSE426Project/ERC1155SmartContract.sol\":1583:1599  isApprovedForAll */\n      tag_96\n        /* \"CSE426Project/ERC1155SmartContract.sol\":1583:1618  isApprovedForAll(owner, msg.sender) */\n      jump\t// in\n    tag_198:\n        /* \"CSE426Project/ERC1155SmartContract.sol\":1560:1618  msg.sender == owner || isApprovedForAll(owner, msg.sender) */\n    tag_197:\n        /* \"CSE426Project/ERC1155SmartContract.sol\":1539:1659  require(... */\n      tag_199\n      jumpi\n      mload(0x40)\n      0x08c379a000000000000000000000000000000000000000000000000000000000\n      dup2\n      mstore\n      0x04\n      add\n      tag_200\n      swap1\n      tag_201\n      jump\t// in\n    tag_200:\n      mload(0x40)\n      dup1\n      swap2\n      sub\n      swap1\n      revert\n    tag_199:\n        /* \"CSE426Project/ERC1155SmartContract.sol\":1669:1697  _burn(owner, itemId, amount) */\n      tag_202\n        /* \"CSE426Project/ERC1155SmartContract.sol\":1675:1680  owner */\n      dup4\n        /* \"CSE426Project/ERC1155SmartContract.sol\":1682:1688  itemId */\n      dup4\n        /* \"CSE426Project/ERC1155SmartContract.sol\":1690:1696  amount */\n      dup4\n        /* \"CSE426Project/ERC1155SmartContract.sol\":1669:1674  _burn */\n      tag_203\n        /* \"CSE426Project/ERC1155SmartContract.sol\":1669:1697  _burn(owner, itemId, amount) */\n      jump\t// in\n    tag_202:\n        /* \"CSE426Project/ERC1155SmartContract.sol\":1455:1704  function burnItem(address owner, uint256 itemId, uint256 amount) external {... */\n      pop\n      pop\n      pop\n      jump\t// out\n        /* \"CSE426Project/ERC1155SmartContract.sol\":1710:2360  function purchaseItem(uint256 itemId, uint256 amount) external payable {... */\n    tag_91:\n        /* \"CSE426Project/ERC1155SmartContract.sol\":1819:1825  itemId */\n      dup2\n        /* \"CSE426Project/ERC1155SmartContract.sol\":1799:1804  items */\n      0x05\n        /* \"CSE426Project/ERC1155SmartContract.sol\":1799:1812  items[itemId] */\n      0x00\n        /* \"CSE426Project/ERC1155SmartContract.sol\":1805:1811  itemId */\n      dup5\n        /* \"CSE426Project/ERC1155SmartContract.sol\":1799:1812  items[itemId] */\n      dup2\n      mstore\n      0x20\n      add\n      swap1\n      dup2\n      mstore\n      0x20\n      add\n      0x00\n      keccak256\n        /* \"CSE426Project/ERC1155SmartContract.sol\":1799:1815  items[itemId].id */\n      0x00\n      add\n      sload\n        /* \"CSE426Project/ERC1155SmartContract.sol\":1799:1825  items[itemId].id == itemId */\n      eq\n        /* \"CSE426Project/ERC1155SmartContract.sol\":1791:1850  require(items[itemId].id == itemId, \"Item does not exist.\") */\n      tag_205\n      jumpi\n      mload(0x40)\n      0x08c379a000000000000000000000000000000000000000000000000000000000\n      dup2\n      mstore\n      0x04\n      add\n      tag_206\n      swap1\n      tag_158\n      jump\t// in\n    tag_206:\n      mload(0x40)\n      dup1\n      swap2\n      sub\n      swap1\n      revert\n    tag_205:\n        /* \"CSE426Project/ERC1155SmartContract.sol\":1861:1874  uint256 price */\n      0x00\n        /* \"CSE426Project/ERC1155SmartContract.sol\":1915:1931  ItemType.PowerUp */\n      dup1\n        /* \"CSE426Project/ERC1155SmartContract.sol\":1889:1931  items[itemId].itemType == ItemType.PowerUp */\n      0x02\n      dup2\n      gt\n      iszero\n      tag_207\n      jumpi\n      tag_208\n      tag_170\n      jump\t// in\n    tag_208:\n    tag_207:\n        /* \"CSE426Project/ERC1155SmartContract.sol\":1889:1894  items */\n      0x05\n        /* \"CSE426Project/ERC1155SmartContract.sol\":1889:1902  items[itemId] */\n      0x00\n        /* \"CSE426Project/ERC1155SmartContract.sol\":1895:1901  itemId */\n      dup6\n        /* \"CSE426Project/ERC1155SmartContract.sol\":1889:1902  items[itemId] */\n      dup2\n      mstore\n      0x20\n      add\n      swap1\n      dup2\n      mstore\n      0x20\n      add\n      0x00\n      keccak256\n        /* \"CSE426Project/ERC1155SmartContract.sol\":1889:1911  items[itemId].itemType */\n      0x01\n      add\n      0x00\n      swap1\n      sload\n      swap1\n      0x0100\n      exp\n      swap1\n      div\n      0xff\n      and\n        /* \"CSE426Project/ERC1155SmartContract.sol\":1889:1931  items[itemId].itemType == ItemType.PowerUp */\n      0x02\n      dup2\n      gt\n      iszero\n      tag_209\n      jumpi\n      tag_210\n      tag_170\n      jump\t// in\n    tag_210:\n    tag_209:\n      sub\n        /* \"CSE426Project/ERC1155SmartContract.sol\":1885:2187  if (items[itemId].itemType == ItemType.PowerUp) {... */\n      tag_211\n      jumpi\n        /* \"CSE426Project/ERC1155SmartContract.sol\":1955:1964  10 * 1e18 */\n      0x8ac7230489e80000\n        /* \"CSE426Project/ERC1155SmartContract.sol\":1947:1964  price = 10 * 1e18 */\n      swap1\n      pop\n        /* \"CSE426Project/ERC1155SmartContract.sol\":1885:2187  if (items[itemId].itemType == ItemType.PowerUp) {... */\n      jump(tag_212)\n    tag_211:\n        /* \"CSE426Project/ERC1155SmartContract.sol\":2027:2039  ItemType.Mod */\n      0x01\n        /* \"CSE426Project/ERC1155SmartContract.sol\":2001:2039  items[itemId].itemType == ItemType.Mod */\n      0x02\n      dup2\n      gt\n      iszero\n      tag_213\n      jumpi\n      tag_214\n      tag_170\n      jump\t// in\n    tag_214:\n    tag_213:\n        /* \"CSE426Project/ERC1155SmartContract.sol\":2001:2006  items */\n      0x05\n        /* \"CSE426Project/ERC1155SmartContract.sol\":2001:2014  items[itemId] */\n      0x00\n        /* \"CSE426Project/ERC1155SmartContract.sol\":2007:2013  itemId */\n      dup6\n        /* \"CSE426Project/ERC1155SmartContract.sol\":2001:2014  items[itemId] */\n      dup2\n      mstore\n      0x20\n      add\n      swap1\n      dup2\n      mstore\n      0x20\n      add\n      0x00\n      keccak256\n        /* \"CSE426Project/ERC1155SmartContract.sol\":2001:2023  items[itemId].itemType */\n      0x01\n      add\n      0x00\n      swap1\n      sload\n      swap1\n      0x0100\n      exp\n      swap1\n      div\n      0xff\n      and\n        /* \"CSE426Project/ERC1155SmartContract.sol\":2001:2039  items[itemId].itemType == ItemType.Mod */\n      0x02\n      dup2\n      gt\n      iszero\n      tag_215\n      jumpi\n      tag_216\n      tag_170\n      jump\t// in\n    tag_216:\n    tag_215:\n      sub\n        /* \"CSE426Project/ERC1155SmartContract.sol\":1997:2187  if (items[itemId].itemType == ItemType.Mod) {... */\n      tag_217\n      jumpi\n        /* \"CSE426Project/ERC1155SmartContract.sol\":2063:2072  20 * 1e18 */\n      0x01158e460913d00000\n        /* \"CSE426Project/ERC1155SmartContract.sol\":2055:2072  price = 20 * 1e18 */\n      swap1\n      pop\n        /* \"CSE426Project/ERC1155SmartContract.sol\":1997:2187  if (items[itemId].itemType == ItemType.Mod) {... */\n      jump(tag_218)\n    tag_217:\n        /* \"CSE426Project/ERC1155SmartContract.sol\":2119:2143  ItemType.UniqueAttribute */\n      0x02\n        /* \"CSE426Project/ERC1155SmartContract.sol\":2093:2143  items[itemId].itemType == ItemType.UniqueAttribute */\n      dup1\n      dup2\n      gt\n      iszero\n      tag_219\n      jumpi\n      tag_220\n      tag_170\n      jump\t// in\n    tag_220:\n    tag_219:\n        /* \"CSE426Project/ERC1155SmartContract.sol\":2093:2098  items */\n      0x05\n        /* \"CSE426Project/ERC1155SmartContract.sol\":2093:2106  items[itemId] */\n      0x00\n        /* \"CSE426Project/ERC1155SmartContract.sol\":2099:2105  itemId */\n      dup6\n        /* \"CSE426Project/ERC1155SmartContract.sol\":2093:2106  items[itemId] */\n      dup2\n      mstore\n      0x20\n      add\n      swap1\n      dup2\n      mstore\n      0x20\n      add\n      0x00\n      keccak256\n        /* \"CSE426Project/ERC1155SmartContract.sol\":2093:2115  items[itemId].itemType */\n      0x01\n      add\n      0x00\n      swap1\n      sload\n      swap1\n      0x0100\n      exp\n      swap1\n      div\n      0xff\n      and\n        /* \"CSE426Project/ERC1155SmartContract.sol\":2093:2143  items[itemId].itemType == ItemType.UniqueAttribute */\n      0x02\n      dup2\n      gt\n      iszero\n      tag_221\n      jumpi\n      tag_222\n      tag_170\n      jump\t// in\n    tag_222:\n    tag_221:\n      sub\n        /* \"CSE426Project/ERC1155SmartContract.sol\":2089:2187  if (items[itemId].itemType == ItemType.UniqueAttribute) {... */\n      tag_223\n      jumpi\n        /* \"CSE426Project/ERC1155SmartContract.sol\":2167:2176  30 * 1e18 */\n      0x01a055690d9db80000\n        /* \"CSE426Project/ERC1155SmartContract.sol\":2159:2176  price = 30 * 1e18 */\n      swap1\n      pop\n        /* \"CSE426Project/ERC1155SmartContract.sol\":2089:2187  if (items[itemId].itemType == ItemType.UniqueAttribute) {... */\n    tag_223:\n        /* \"CSE426Project/ERC1155SmartContract.sol\":1997:2187  if (items[itemId].itemType == ItemType.Mod) {... */\n    tag_218:\n        /* \"CSE426Project/ERC1155SmartContract.sol\":1885:2187  if (items[itemId].itemType == ItemType.PowerUp) {... */\n    tag_212:\n        /* \"CSE426Project/ERC1155SmartContract.sol\":2226:2232  amount */\n      dup2\n        /* \"CSE426Project/ERC1155SmartContract.sol\":2218:2223  price */\n      dup2\n        /* \"CSE426Project/ERC1155SmartContract.sol\":2218:2232  price * amount */\n      tag_224\n      swap2\n      swap1\n      tag_225\n      jump\t// in\n    tag_224:\n        /* \"CSE426Project/ERC1155SmartContract.sol\":2205:2214  msg.value */\n      callvalue\n        /* \"CSE426Project/ERC1155SmartContract.sol\":2205:2232  msg.value >= price * amount */\n      lt\n      iszero\n        /* \"CSE426Project/ERC1155SmartContract.sol\":2197:2259  require(msg.value >= price * amount, \"Insufficient ETH sent.\") */\n      tag_226\n      jumpi\n      mload(0x40)\n      0x08c379a000000000000000000000000000000000000000000000000000000000\n      dup2\n      mstore\n      0x04\n      add\n      tag_227\n      swap1\n      tag_228\n      jump\t// in\n    tag_227:\n      mload(0x40)\n      dup1\n      swap2\n      sub\n      swap1\n      revert\n    tag_226:\n        /* \"CSE426Project/ERC1155SmartContract.sol\":2270:2307  _mint(msg.sender, itemId, amount, \"\") */\n      tag_229\n        /* \"CSE426Project/ERC1155SmartContract.sol\":2276:2286  msg.sender */\n      caller\n        /* \"CSE426Project/ERC1155SmartContract.sol\":2288:2294  itemId */\n      dup5\n        /* \"CSE426Project/ERC1155SmartContract.sol\":2296:2302  amount */\n      dup5\n        /* \"CSE426Project/ERC1155SmartContract.sol\":2270:2307  _mint(msg.sender, itemId, amount, \"\") */\n      mload(0x40)\n      dup1\n      0x20\n      add\n      0x40\n      mstore\n      dup1\n      0x00\n      dup2\n      mstore\n      pop\n        /* \"CSE426Project/ERC1155SmartContract.sol\":2270:2275  _mint */\n      tag_160\n        /* \"CSE426Project/ERC1155SmartContract.sol\":2270:2307  _mint(msg.sender, itemId, amount, \"\") */\n      jump\t// in\n    tag_229:\n        /* \"CSE426Project/ERC1155SmartContract.sol\":2325:2332  owner() */\n      tag_230\n        /* \"CSE426Project/ERC1155SmartContract.sol\":2325:2330  owner */\n      tag_70\n        /* \"CSE426Project/ERC1155SmartContract.sol\":2325:2332  owner() */\n      jump\t// in\n    tag_230:\n        /* \"CSE426Project/ERC1155SmartContract.sol\":2317:2342  payable(owner()).transfer */\n      0xffffffffffffffffffffffffffffffffffffffff\n      and\n        /* \"CSE426Project/ERC1155SmartContract.sol\":2317:2353  payable(owner()).transfer(msg.value) */\n      0x08fc\n        /* \"CSE426Project/ERC1155SmartContract.sol\":2343:2352  msg.value */\n      callvalue\n        /* \"CSE426Project/ERC1155SmartContract.sol\":2317:2353  payable(owner()).transfer(msg.value) */\n      swap1\n      dup2\n      iszero\n      mul\n      swap1\n      mload(0x40)\n      0x00\n      mload(0x40)\n      dup1\n      dup4\n      sub\n      dup2\n      dup6\n      dup9\n      dup9\n      call\n      swap4\n      pop\n      pop\n      pop\n      pop\n      iszero\n      dup1\n      iszero\n      tag_232\n      jumpi\n      returndatasize\n      0x00\n      dup1\n      returndatacopy\n      revert(0x00, returndatasize)\n    tag_232:\n      pop\n        /* \"CSE426Project/ERC1155SmartContract.sol\":1781:2360  {... */\n      pop\n        /* \"CSE426Project/ERC1155SmartContract.sol\":1710:2360  function purchaseItem(uint256 itemId, uint256 amount) external payable {... */\n      pop\n      pop\n      jump\t// out\n        /* \"@openzeppelin/contracts/token/ERC1155/ERC1155.sol\":3367:3524  function isApprovedForAll(address account, address operator) public view virtual returns (bool) {... */\n    tag_96:\n        /* \"@openzeppelin/contracts/token/ERC1155/ERC1155.sol\":3457:3461  bool */\n      0x00\n        /* \"@openzeppelin/contracts/token/ERC1155/ERC1155.sol\":3480:3498  _operatorApprovals */\n      0x01\n        /* \"@openzeppelin/contracts/token/ERC1155/ERC1155.sol\":3480:3507  _operatorApprovals[account] */\n      0x00\n        /* \"@openzeppelin/contracts/token/ERC1155/ERC1155.sol\":3499:3506  account */\n      dup5\n        /* \"@openzeppelin/contracts/token/ERC1155/ERC1155.sol\":3480:3507  _operatorApprovals[account] */\n      0xffffffffffffffffffffffffffffffffffffffff\n      and\n      0xffffffffffffffffffffffffffffffffffffffff\n      and\n      dup2\n      mstore\n      0x20\n      add\n      swap1\n      dup2\n      mstore\n      0x20\n      add\n      0x00\n      keccak256\n        /* \"@openzeppelin/contracts/token/ERC1155/ERC1155.sol\":3480:3517  _operatorApprovals[account][operator] */\n      0x00\n        /* \"@openzeppelin/contracts/token/ERC1155/ERC1155.sol\":3508:3516  operator */\n      dup4\n        /* \"@openzeppelin/contracts/token/ERC1155/ERC1155.sol\":3480:3517  _operatorApprovals[account][operator] */\n      0xffffffffffffffffffffffffffffffffffffffff\n      and\n      0xffffffffffffffffffffffffffffffffffffffff\n      and\n      dup2\n      mstore\n      0x20\n      add\n      swap1\n      dup2\n      mstore\n      0x20\n      add\n      0x00\n      keccak256\n      0x00\n      swap1\n      sload\n      swap1\n      0x0100\n      exp\n      swap1\n      div\n      0xff\n      and\n        /* \"@openzeppelin/contracts/token/ERC1155/ERC1155.sol\":3473:3517  return _operatorApprovals[account][operator] */\n      swap1\n      pop\n        /* \"@openzeppelin/contracts/token/ERC1155/ERC1155.sol\":3367:3524  function isApprovedForAll(address account, address operator) public view virtual returns (bool) {... */\n      swap3\n      swap2\n      pop\n      pop\n      jump\t// out\n        /* \"@openzeppelin/contracts/token/ERC1155/ERC1155.sol\":3591:3942  function safeTransferFrom(address from, address to, uint256 id, uint256 value, bytes memory data) public virtual {... */\n    tag_102:\n        /* \"@openzeppelin/contracts/token/ERC1155/ERC1155.sol\":3714:3728  address sender */\n      0x00\n        /* \"@openzeppelin/contracts/token/ERC1155/ERC1155.sol\":3731:3743  _msgSender() */\n      tag_235\n        /* \"@openzeppelin/contracts/token/ERC1155/ERC1155.sol\":3731:3741  _msgSender */\n      tag_123\n        /* \"@openzeppelin/contracts/token/ERC1155/ERC1155.sol\":3731:3743  _msgSender() */\n      jump\t// in\n    tag_235:\n        /* \"@openzeppelin/contracts/token/ERC1155/ERC1155.sol\":3714:3743  address sender = _msgSender() */\n      swap1\n      pop\n        /* \"@openzeppelin/contracts/token/ERC1155/ERC1155.sol\":3765:3771  sender */\n      dup1\n        /* \"@openzeppelin/contracts/token/ERC1155/ERC1155.sol\":3757:3771  from != sender */\n      0xffffffffffffffffffffffffffffffffffffffff\n      and\n        /* \"@openzeppelin/contracts/token/ERC1155/ERC1155.sol\":3757:3761  from */\n      dup7\n        /* \"@openzeppelin/contracts/token/ERC1155/ERC1155.sol\":3757:3771  from != sender */\n      0xffffffffffffffffffffffffffffffffffffffff\n      and\n      eq\n      iszero\n        /* \"@openzeppelin/contracts/token/ERC1155/ERC1155.sol\":3757:3806  from != sender && !isApprovedForAll(from, sender) */\n      dup1\n      iszero\n      tag_236\n      jumpi\n      pop\n        /* \"@openzeppelin/contracts/token/ERC1155/ERC1155.sol\":3776:3806  isApprovedForAll(from, sender) */\n      tag_237\n        /* \"@openzeppelin/contracts/token/ERC1155/ERC1155.sol\":3793:3797  from */\n      dup7\n        /* \"@openzeppelin/contracts/token/ERC1155/ERC1155.sol\":3799:3805  sender */\n      dup3\n        /* \"@openzeppelin/contracts/token/ERC1155/ERC1155.sol\":3776:3792  isApprovedForAll */\n      tag_96\n        /* \"@openzeppelin/contracts/token/ERC1155/ERC1155.sol\":3776:3806  isApprovedForAll(from, sender) */\n      jump\t// in\n    tag_237:\n        /* \"@openzeppelin/contracts/token/ERC1155/ERC1155.sol\":3775:3806  !isApprovedForAll(from, sender) */\n      iszero\n        /* \"@openzeppelin/contracts/token/ERC1155/ERC1155.sol\":3757:3806  from != sender && !isApprovedForAll(from, sender) */\n    tag_236:\n        /* \"@openzeppelin/contracts/token/ERC1155/ERC1155.sol\":3753:3882  if (from != sender && !isApprovedForAll(from, sender)) {... */\n      iszero\n      tag_238\n      jumpi\n        /* \"@openzeppelin/contracts/token/ERC1155/ERC1155.sol\":3858:3864  sender */\n      dup1\n        /* \"@openzeppelin/contracts/token/ERC1155/ERC1155.sol\":3866:3870  from */\n      dup7\n        /* \"@openzeppelin/contracts/token/ERC1155/ERC1155.sol\":3829:3871  ERC1155MissingApprovalForAll(sender, from) */\n      mload(0x40)\n      0xe237d92200000000000000000000000000000000000000000000000000000000\n      dup2\n      mstore\n      0x04\n      add\n      tag_239\n      swap3\n      swap2\n      swap1\n      tag_128\n      jump\t// in\n    tag_239:\n      mload(0x40)\n      dup1\n      swap2\n      sub\n      swap1\n      revert\n        /* \"@openzeppelin/contracts/token/ERC1155/ERC1155.sol\":3753:3882  if (from != sender && !isApprovedForAll(from, sender)) {... */\n    tag_238:\n        /* \"@openzeppelin/contracts/token/ERC1155/ERC1155.sol\":3891:3935  _safeTransferFrom(from, to, id, value, data) */\n      tag_240\n        /* \"@openzeppelin/contracts/token/ERC1155/ERC1155.sol\":3909:3913  from */\n      dup7\n        /* \"@openzeppelin/contracts/token/ERC1155/ERC1155.sol\":3915:3917  to */\n      dup7\n        /* \"@openzeppelin/contracts/token/ERC1155/ERC1155.sol\":3919:3921  id */\n      dup7\n        /* \"@openzeppelin/contracts/token/ERC1155/ERC1155.sol\":3923:3928  value */\n      dup7\n        /* \"@openzeppelin/contracts/token/ERC1155/ERC1155.sol\":3930:3934  data */\n      dup7\n        /* \"@openzeppelin/contracts/token/ERC1155/ERC1155.sol\":3891:3908  _safeTransferFrom */\n      tag_241\n        /* \"@openzeppelin/contracts/token/ERC1155/ERC1155.sol\":3891:3935  _safeTransferFrom(from, to, id, value, data) */\n      jump\t// in\n    tag_240:\n        /* \"@openzeppelin/contracts/token/ERC1155/ERC1155.sol\":3704:3942  {... */\n      pop\n        /* \"@openzeppelin/contracts/token/ERC1155/ERC1155.sol\":3591:3942  function safeTransferFrom(address from, address to, uint256 id, uint256 value, bytes memory data) public virtual {... */\n      pop\n      pop\n      pop\n      pop\n      pop\n      jump\t// out\n        /* \"@openzeppelin/contracts/access/Ownable.sol\":2543:2758  function transferOwnership(address newOwner) public virtual onlyOwner {... */\n    tag_107:\n        /* \"@openzeppelin/contracts/access/Ownable.sol\":1531:1544  _checkOwner() */\n      tag_243\n        /* \"@openzeppelin/contracts/access/Ownable.sol\":1531:1542  _checkOwner */\n      tag_154\n        /* \"@openzeppelin/contracts/access/Ownable.sol\":1531:1544  _checkOwner() */\n      jump\t// in\n    tag_243:\n        /* \"@openzeppelin/contracts/access/Ownable.sol\":2647:2648  0 */\n      0x00\n        /* \"@openzeppelin/contracts/access/Ownable.sol\":2627:2649  newOwner == address(0) */\n      0xffffffffffffffffffffffffffffffffffffffff\n      and\n        /* \"@openzeppelin/contracts/access/Ownable.sol\":2627:2635  newOwner */\n      dup2\n        /* \"@openzeppelin/contracts/access/Ownable.sol\":2627:2649  newOwner == address(0) */\n      0xffffffffffffffffffffffffffffffffffffffff\n      and\n      sub\n        /* \"@openzeppelin/contracts/access/Ownable.sol\":2623:2714  if (newOwner == address(0)) {... */\n      tag_245\n      jumpi\n        /* \"@openzeppelin/contracts/access/Ownable.sol\":2700:2701  0 */\n      0x00\n        /* \"@openzeppelin/contracts/access/Ownable.sol\":2672:2703  OwnableInvalidOwner(address(0)) */\n      mload(0x40)\n      0x1e4fbdf700000000000000000000000000000000000000000000000000000000\n      dup2\n      mstore\n      0x04\n      add\n      tag_246\n      swap2\n      swap1\n      tag_72\n      jump\t// in\n    tag_246:\n      mload(0x40)\n      dup1\n      swap2\n      sub\n      swap1\n      revert\n        /* \"@openzeppelin/contracts/access/Ownable.sol\":2623:2714  if (newOwner == address(0)) {... */\n    tag_245:\n        /* \"@openzeppelin/contracts/access/Ownable.sol\":2723:2751  _transferOwnership(newOwner) */\n      tag_247\n        /* \"@openzeppelin/contracts/access/Ownable.sol\":2742:2750  newOwner */\n      dup2\n        /* \"@openzeppelin/contracts/access/Ownable.sol\":2723:2741  _transferOwnership */\n      tag_180\n        /* \"@openzeppelin/contracts/access/Ownable.sol\":2723:2751  _transferOwnership(newOwner) */\n      jump\t// in\n    tag_247:\n        /* \"@openzeppelin/contracts/access/Ownable.sol\":2543:2758  function transferOwnership(address newOwner) public virtual onlyOwner {... */\n      pop\n      jump\t// out\n        /* \"@openzeppelin/contracts/utils/introspection/ERC165.sol\":762:908  function supportsInterface(bytes4 interfaceId) public view virtual returns (bool) {... */\n    tag_113:\n        /* \"@openzeppelin/contracts/utils/introspection/ERC165.sol\":838:842  bool */\n      0x00\n        /* \"@openzeppelin/contracts/utils/introspection/ERC165.sol\":876:901  type(IERC165).interfaceId */\n      0x01ffc9a700000000000000000000000000000000000000000000000000000000\n        /* \"@openzeppelin/contracts/utils/introspection/ERC165.sol\":861:901  interfaceId == type(IERC165).interfaceId */\n      not(0xffffffffffffffffffffffffffffffffffffffffffffffffffffffff)\n      and\n        /* \"@openzeppelin/contracts/utils/introspection/ERC165.sol\":861:872  interfaceId */\n      dup3\n        /* \"@openzeppelin/contracts/utils/introspection/ERC165.sol\":861:901  interfaceId == type(IERC165).interfaceId */\n      not(0xffffffffffffffffffffffffffffffffffffffffffffffffffffffff)\n      and\n      eq\n        /* \"@openzeppelin/contracts/utils/introspection/ERC165.sol\":854:901  return interfaceId == type(IERC165).interfaceId */\n      swap1\n      pop\n        /* \"@openzeppelin/contracts/utils/introspection/ERC165.sol\":762:908  function supportsInterface(bytes4 interfaceId) public view virtual returns (bool) {... */\n      swap2\n      swap1\n      pop\n      jump\t// out\n        /* \"@openzeppelin/contracts/utils/Context.sol\":656:752  function _msgSender() internal view virtual returns (address) {... */\n    tag_123:\n        /* \"@openzeppelin/contracts/utils/Context.sol\":709:716  address */\n      0x00\n        /* \"@openzeppelin/contracts/utils/Context.sol\":735:745  msg.sender */\n      caller\n        /* \"@openzeppelin/contracts/utils/Context.sol\":728:745  return msg.sender */\n      swap1\n      pop\n        /* \"@openzeppelin/contracts/utils/Context.sol\":656:752  function _msgSender() internal view virtual returns (address) {... */\n      swap1\n      jump\t// out\n        /* \"@openzeppelin/contracts/token/ERC1155/ERC1155.sol\":9015:9460  function _safeBatchTransferFrom(... */\n    tag_130:\n        /* \"@openzeppelin/contracts/token/ERC1155/ERC1155.sol\":9222:9223  0 */\n      0x00\n        /* \"@openzeppelin/contracts/token/ERC1155/ERC1155.sol\":9208:9224  to == address(0) */\n      0xffffffffffffffffffffffffffffffffffffffff\n      and\n        /* \"@openzeppelin/contracts/token/ERC1155/ERC1155.sol\":9208:9210  to */\n      dup5\n        /* \"@openzeppelin/contracts/token/ERC1155/ERC1155.sol\":9208:9224  to == address(0) */\n      0xffffffffffffffffffffffffffffffffffffffff\n      and\n      sub\n        /* \"@openzeppelin/contracts/token/ERC1155/ERC1155.sol\":9204:9292  if (to == address(0)) {... */\n      tag_251\n      jumpi\n        /* \"@openzeppelin/contracts/token/ERC1155/ERC1155.sol\":9278:9279  0 */\n      0x00\n        /* \"@openzeppelin/contracts/token/ERC1155/ERC1155.sol\":9247:9281  ERC1155InvalidReceiver(address(0)) */\n      mload(0x40)\n      0x57f447ce00000000000000000000000000000000000000000000000000000000\n      dup2\n      mstore\n      0x04\n      add\n      tag_252\n      swap2\n      swap1\n      tag_72\n      jump\t// in\n    tag_252:\n      mload(0x40)\n      dup1\n      swap2\n      sub\n      swap1\n      revert\n        /* \"@openzeppelin/contracts/token/ERC1155/ERC1155.sol\":9204:9292  if (to == address(0)) {... */\n    tag_251:\n        /* \"@openzeppelin/contracts/token/ERC1155/ERC1155.sol\":9321:9322  0 */\n      0x00\n        /* \"@openzeppelin/contracts/token/ERC1155/ERC1155.sol\":9305:9323  from == address(0) */\n      0xffffffffffffffffffffffffffffffffffffffff\n      and\n        /* \"@openzeppelin/contracts/token/ERC1155/ERC1155.sol\":9305:9309  from */\n      dup6\n        /* \"@openzeppelin/contracts/token/ERC1155/ERC1155.sol\":9305:9323  from == address(0) */\n      0xffffffffffffffffffffffffffffffffffffffff\n      and\n      sub\n        /* \"@openzeppelin/contracts/token/ERC1155/ERC1155.sol\":9301:9389  if (from == address(0)) {... */\n      tag_253\n      jumpi\n        /* \"@openzeppelin/contracts/token/ERC1155/ERC1155.sol\":9375:9376  0 */\n      0x00\n        /* \"@openzeppelin/contracts/token/ERC1155/ERC1155.sol\":9346:9378  ERC1155InvalidSender(address(0)) */\n      mload(0x40)\n      0x01a8351400000000000000000000000000000000000000000000000000000000\n      dup2\n      mstore\n      0x04\n      add\n      tag_254\n      swap2\n      swap1\n      tag_72\n      jump\t// in\n    tag_254:\n      mload(0x40)\n      dup1\n      swap2\n      sub\n      swap1\n      revert\n        /* \"@openzeppelin/contracts/token/ERC1155/ERC1155.sol\":9301:9389  if (from == address(0)) {... */\n    tag_253:\n        /* \"@openzeppelin/contracts/token/ERC1155/ERC1155.sol\":9398:9453  _updateWithAcceptanceCheck(from, to, ids, values, data) */\n      tag_255\n        /* \"@openzeppelin/contracts/token/ERC1155/ERC1155.sol\":9425:9429  from */\n      dup6\n        /* \"@openzeppelin/contracts/token/ERC1155/ERC1155.sol\":9431:9433  to */\n      dup6\n        /* \"@openzeppelin/contracts/token/ERC1155/ERC1155.sol\":9435:9438  ids */\n      dup6\n        /* \"@openzeppelin/contracts/token/ERC1155/ERC1155.sol\":9440:9446  values */\n      dup6\n        /* \"@openzeppelin/contracts/token/ERC1155/ERC1155.sol\":9448:9452  data */\n      dup6\n        /* \"@openzeppelin/contracts/token/ERC1155/ERC1155.sol\":9398:9424  _updateWithAcceptanceCheck */\n      tag_256\n        /* \"@openzeppelin/contracts/token/ERC1155/ERC1155.sol\":9398:9453  _updateWithAcceptanceCheck(from, to, ids, values, data) */\n      jump\t// in\n    tag_255:\n        /* \"@openzeppelin/contracts/token/ERC1155/ERC1155.sol\":9015:9460  function _safeBatchTransferFrom(... */\n      pop\n      pop\n      pop\n      pop\n      pop\n      jump\t// out\n        /* \"@openzeppelin/contracts/utils/Arrays.sol\":4603:4800  function unsafeMemoryAccess(address[] memory arr, uint256 pos) internal pure returns (address res) {... */\n    tag_144:\n        /* \"@openzeppelin/contracts/utils/Arrays.sol\":4689:4700  address res */\n      0x00\n        /* \"@openzeppelin/contracts/utils/Arrays.sol\":4777:4781  0x20 */\n      0x20\n        /* \"@openzeppelin/contracts/utils/Arrays.sol\":4772:4775  pos */\n      dup3\n        /* \"@openzeppelin/contracts/utils/Arrays.sol\":4768:4782  mul(pos, 0x20) */\n      mul\n        /* \"@openzeppelin/contracts/utils/Arrays.sol\":4761:4765  0x20 */\n      0x20\n        /* \"@openzeppelin/contracts/utils/Arrays.sol\":4756:4759  arr */\n      dup5\n        /* \"@openzeppelin/contracts/utils/Arrays.sol\":4752:4766  add(arr, 0x20) */\n      add\n        /* \"@openzeppelin/contracts/utils/Arrays.sol\":4748:4783  add(add(arr, 0x20), mul(pos, 0x20)) */\n      add\n        /* \"@openzeppelin/contracts/utils/Arrays.sol\":4742:4784  mload(add(add(arr, 0x20), mul(pos, 0x20))) */\n      mload\n        /* \"@openzeppelin/contracts/utils/Arrays.sol\":4735:4784  res := mload(add(add(arr, 0x20), mul(pos, 0x20))) */\n      swap1\n      pop\n        /* \"@openzeppelin/contracts/utils/Arrays.sol\":4603:4800  function unsafeMemoryAccess(address[] memory arr, uint256 pos) internal pure returns (address res) {... */\n      swap3\n      swap2\n      pop\n      pop\n      jump\t// out\n        /* \"@openzeppelin/contracts/utils/Arrays.sol\":4204:4401  function unsafeMemoryAccess(uint256[] memory arr, uint256 pos) internal pure returns (uint256 res) {... */\n    tag_146:\n        /* \"@openzeppelin/contracts/utils/Arrays.sol\":4290:4301  uint256 res */\n      0x00\n        /* \"@openzeppelin/contracts/utils/Arrays.sol\":4378:4382  0x20 */\n      0x20\n        /* \"@openzeppelin/contracts/utils/Arrays.sol\":4373:4376  pos */\n      dup3\n        /* \"@openzeppelin/contracts/utils/Arrays.sol\":4369:4383  mul(pos, 0x20) */\n      mul\n        /* \"@openzeppelin/contracts/utils/Arrays.sol\":4362:4366  0x20 */\n      0x20\n        /* \"@openzeppelin/contracts/utils/Arrays.sol\":4357:4360  arr */\n      dup5\n        /* \"@openzeppelin/contracts/utils/Arrays.sol\":4353:4367  add(arr, 0x20) */\n      add\n        /* \"@openzeppelin/contracts/utils/Arrays.sol\":4349:4384  add(add(arr, 0x20), mul(pos, 0x20)) */\n      add\n        /* \"@openzeppelin/contracts/utils/Arrays.sol\":4343:4385  mload(add(add(arr, 0x20), mul(pos, 0x20))) */\n      mload\n        /* \"@openzeppelin/contracts/utils/Arrays.sol\":4336:4385  res := mload(add(add(arr, 0x20), mul(pos, 0x20))) */\n      swap1\n      pop\n        /* \"@openzeppelin/contracts/utils/Arrays.sol\":4204:4401  function unsafeMemoryAccess(uint256[] memory arr, uint256 pos) internal pure returns (uint256 res) {... */\n      swap3\n      swap2\n      pop\n      pop\n      jump\t// out\n        /* \"@openzeppelin/contracts/access/Ownable.sol\":1796:1958  function _checkOwner() internal view virtual {... */\n    tag_154:\n        /* \"@openzeppelin/contracts/access/Ownable.sol\":1866:1878  _msgSender() */\n      tag_260\n        /* \"@openzeppelin/contracts/access/Ownable.sol\":1866:1876  _msgSender */\n      tag_123\n        /* \"@openzeppelin/contracts/access/Ownable.sol\":1866:1878  _msgSender() */\n      jump\t// in\n    tag_260:\n        /* \"@openzeppelin/contracts/access/Ownable.sol\":1855:1878  owner() != _msgSender() */\n      0xffffffffffffffffffffffffffffffffffffffff\n      and\n        /* \"@openzeppelin/contracts/access/Ownable.sol\":1855:1862  owner() */\n      tag_261\n        /* \"@openzeppelin/contracts/access/Ownable.sol\":1855:1860  owner */\n      tag_70\n        /* \"@openzeppelin/contracts/access/Ownable.sol\":1855:1862  owner() */\n      jump\t// in\n    tag_261:\n        /* \"@openzeppelin/contracts/access/Ownable.sol\":1855:1878  owner() != _msgSender() */\n      0xffffffffffffffffffffffffffffffffffffffff\n      and\n      eq\n        /* \"@openzeppelin/contracts/access/Ownable.sol\":1851:1952  if (owner() != _msgSender()) {... */\n      tag_262\n      jumpi\n        /* \"@openzeppelin/contracts/access/Ownable.sol\":1928:1940  _msgSender() */\n      tag_263\n        /* \"@openzeppelin/contracts/access/Ownable.sol\":1928:1938  _msgSender */\n      tag_123\n        /* \"@openzeppelin/contracts/access/Ownable.sol\":1928:1940  _msgSender() */\n      jump\t// in\n    tag_263:\n        /* \"@openzeppelin/contracts/access/Ownable.sol\":1901:1941  OwnableUnauthorizedAccount(_msgSender()) */\n      mload(0x40)\n      0x118cdaa700000000000000000000000000000000000000000000000000000000\n      dup2\n      mstore\n      0x04\n      add\n      tag_264\n      swap2\n      swap1\n      tag_72\n      jump\t// in\n    tag_264:\n      mload(0x40)\n      dup1\n      swap2\n      sub\n      swap1\n      revert\n        /* \"@openzeppelin/contracts/access/Ownable.sol\":1851:1952  if (owner() != _msgSender()) {... */\n    tag_262:\n        /* \"@openzeppelin/contracts/access/Ownable.sol\":1796:1958  function _checkOwner() internal view virtual {... */\n      jump\t// out\n        /* \"@openzeppelin/contracts/token/ERC1155/ERC1155.sol\":10746:11092  function _mint(address to, uint256 id, uint256 value, bytes memory data) internal {... */\n    tag_160:\n        /* \"@openzeppelin/contracts/token/ERC1155/ERC1155.sol\":10856:10857  0 */\n      0x00\n        /* \"@openzeppelin/contracts/token/ERC1155/ERC1155.sol\":10842:10858  to == address(0) */\n      0xffffffffffffffffffffffffffffffffffffffff\n      and\n        /* \"@openzeppelin/contracts/token/ERC1155/ERC1155.sol\":10842:10844  to */\n      dup5\n        /* \"@openzeppelin/contracts/token/ERC1155/ERC1155.sol\":10842:10858  to == address(0) */\n      0xffffffffffffffffffffffffffffffffffffffff\n      and\n      sub\n        /* \"@openzeppelin/contracts/token/ERC1155/ERC1155.sol\":10838:10926  if (to == address(0)) {... */\n      tag_266\n      jumpi\n        /* \"@openzeppelin/contracts/token/ERC1155/ERC1155.sol\":10912:10913  0 */\n      0x00\n        /* \"@openzeppelin/contracts/token/ERC1155/ERC1155.sol\":10881:10915  ERC1155InvalidReceiver(address(0)) */\n      mload(0x40)\n      0x57f447ce00000000000000000000000000000000000000000000000000000000\n      dup2\n      mstore\n      0x04\n      add\n      tag_267\n      swap2\n      swap1\n      tag_72\n      jump\t// in\n    tag_267:\n      mload(0x40)\n      dup1\n      swap2\n      sub\n      swap1\n      revert\n        /* \"@openzeppelin/contracts/token/ERC1155/ERC1155.sol\":10838:10926  if (to == address(0)) {... */\n    tag_266:\n        /* \"@openzeppelin/contracts/token/ERC1155/ERC1155.sol\":10936:10956  uint256[] memory ids */\n      0x00\n        /* \"@openzeppelin/contracts/token/ERC1155/ERC1155.sol\":10958:10981  uint256[] memory values */\n      dup1\n        /* \"@openzeppelin/contracts/token/ERC1155/ERC1155.sol\":10985:11014  _asSingletonArrays(id, value) */\n      tag_268\n        /* \"@openzeppelin/contracts/token/ERC1155/ERC1155.sol\":11004:11006  id */\n      dup6\n        /* \"@openzeppelin/contracts/token/ERC1155/ERC1155.sol\":11008:11013  value */\n      dup6\n        /* \"@openzeppelin/contracts/token/ERC1155/ERC1155.sol\":10985:11003  _asSingletonArrays */\n      tag_269\n        /* \"@openzeppelin/contracts/token/ERC1155/ERC1155.sol\":10985:11014  _asSingletonArrays(id, value) */\n      jump\t// in\n    tag_268:\n        /* \"@openzeppelin/contracts/token/ERC1155/ERC1155.sol\":10935:11014  (uint256[] memory ids, uint256[] memory values) = _asSingletonArrays(id, value) */\n      swap2\n      pop\n      swap2\n      pop\n        /* \"@openzeppelin/contracts/token/ERC1155/ERC1155.sol\":11024:11085  _updateWithAcceptanceCheck(address(0), to, ids, values, data) */\n      tag_270\n        /* \"@openzeppelin/contracts/token/ERC1155/ERC1155.sol\":11059:11060  0 */\n      0x00\n        /* \"@openzeppelin/contracts/token/ERC1155/ERC1155.sol\":11063:11065  to */\n      dup8\n        /* \"@openzeppelin/contracts/token/ERC1155/ERC1155.sol\":11067:11070  ids */\n      dup5\n        /* \"@openzeppelin/contracts/token/ERC1155/ERC1155.sol\":11072:11078  values */\n      dup5\n        /* \"@openzeppelin/contracts/token/ERC1155/ERC1155.sol\":11080:11084  data */\n      dup8\n        /* \"@openzeppelin/contracts/token/ERC1155/ERC1155.sol\":11024:11050  _updateWithAcceptanceCheck */\n      tag_256\n        /* \"@openzeppelin/contracts/token/ERC1155/ERC1155.sol\":11024:11085  _updateWithAcceptanceCheck(address(0), to, ids, values, data) */\n      jump\t// in\n    tag_270:\n        /* \"@openzeppelin/contracts/token/ERC1155/ERC1155.sol\":10828:11092  {... */\n      pop\n      pop\n        /* \"@openzeppelin/contracts/token/ERC1155/ERC1155.sol\":10746:11092  function _mint(address to, uint256 id, uint256 value, bytes memory data) internal {... */\n      pop\n      pop\n      pop\n      pop\n      jump\t// out\n        /* \"@openzeppelin/contracts/utils/Counters.sol\":945:1068  function increment(Counter storage counter) internal {... */\n    tag_165:\n        /* \"@openzeppelin/contracts/utils/Counters.sol\":1050:1051  1 */\n      0x01\n        /* \"@openzeppelin/contracts/utils/Counters.sol\":1032:1039  counter */\n      dup2\n        /* \"@openzeppelin/contracts/utils/Counters.sol\":1032:1046  counter._value */\n      0x00\n      add\n      0x00\n        /* \"@openzeppelin/contracts/utils/Counters.sol\":1032:1051  counter._value += 1 */\n      dup3\n      dup3\n      sload\n      add\n      swap3\n      pop\n      pop\n      dup2\n      swap1\n      sstore\n      pop\n        /* \"@openzeppelin/contracts/utils/Counters.sol\":945:1068  function increment(Counter storage counter) internal {... */\n      pop\n      jump\t// out\n        /* \"@openzeppelin/contracts/utils/Counters.sol\":827:939  function current(Counter storage counter) internal view returns (uint256) {... */\n    tag_167:\n        /* \"@openzeppelin/contracts/utils/Counters.sol\":892:899  uint256 */\n      0x00\n        /* \"@openzeppelin/contracts/utils/Counters.sol\":918:925  counter */\n      dup2\n        /* \"@openzeppelin/contracts/utils/Counters.sol\":918:932  counter._value */\n      0x00\n      add\n      sload\n        /* \"@openzeppelin/contracts/utils/Counters.sol\":911:932  return counter._value */\n      swap1\n      pop\n        /* \"@openzeppelin/contracts/utils/Counters.sol\":827:939  function current(Counter storage counter) internal view returns (uint256) {... */\n      swap2\n      swap1\n      pop\n      jump\t// out\n        /* \"@openzeppelin/contracts/access/Ownable.sol\":2912:3099  function _transferOwnership(address newOwner) internal virtual {... */\n    tag_180:\n        /* \"@openzeppelin/contracts/access/Ownable.sol\":2985:3001  address oldOwner */\n      0x00\n        /* \"@openzeppelin/contracts/access/Ownable.sol\":3004:3010  _owner */\n      0x03\n      0x00\n      swap1\n      sload\n      swap1\n      0x0100\n      exp\n      swap1\n      div\n      0xffffffffffffffffffffffffffffffffffffffff\n      and\n        /* \"@openzeppelin/contracts/access/Ownable.sol\":2985:3010  address oldOwner = _owner */\n      swap1\n      pop\n        /* \"@openzeppelin/contracts/access/Ownable.sol\":3029:3037  newOwner */\n      dup2\n        /* \"@openzeppelin/contracts/access/Ownable.sol\":3020:3026  _owner */\n      0x03\n      0x00\n        /* \"@openzeppelin/contracts/access/Ownable.sol\":3020:3037  _owner = newOwner */\n      0x0100\n      exp\n      dup2\n      sload\n      dup2\n      0xffffffffffffffffffffffffffffffffffffffff\n      mul\n      not\n      and\n      swap1\n      dup4\n      0xffffffffffffffffffffffffffffffffffffffff\n      and\n      mul\n      or\n      swap1\n      sstore\n      pop\n        /* \"@openzeppelin/contracts/access/Ownable.sol\":3083:3091  newOwner */\n      dup2\n        /* \"@openzeppelin/contracts/access/Ownable.sol\":3052:3092  OwnershipTransferred(oldOwner, newOwner) */\n      0xffffffffffffffffffffffffffffffffffffffff\n      and\n        /* \"@openzeppelin/contracts/access/Ownable.sol\":3073:3081  oldOwner */\n      dup2\n        /* \"@openzeppelin/contracts/access/Ownable.sol\":3052:3092  OwnershipTransferred(oldOwner, newOwner) */\n      0xffffffffffffffffffffffffffffffffffffffff\n      and\n      0x8be0079c531659141344cd1fd0a4f28419497f9722a3daafe3b4186f6b6457e0\n      mload(0x40)\n      mload(0x40)\n      dup1\n      swap2\n      sub\n      swap1\n      log3\n        /* \"@openzeppelin/contracts/access/Ownable.sol\":2975:3099  {... */\n      pop\n        /* \"@openzeppelin/contracts/access/Ownable.sol\":2912:3099  function _transferOwnership(address newOwner) internal virtual {... */\n      pop\n      jump\t// out\n        /* \"@openzeppelin/contracts/token/ERC1155/ERC1155.sol\":13268:13583  function _setApprovalForAll(address owner, address operator, bool approved) internal virtual {... */\n    tag_185:\n        /* \"@openzeppelin/contracts/token/ERC1155/ERC1155.sol\":13395:13396  0 */\n      0x00\n        /* \"@openzeppelin/contracts/token/ERC1155/ERC1155.sol\":13375:13397  operator == address(0) */\n      0xffffffffffffffffffffffffffffffffffffffff\n      and\n        /* \"@openzeppelin/contracts/token/ERC1155/ERC1155.sol\":13375:13383  operator */\n      dup3\n        /* \"@openzeppelin/contracts/token/ERC1155/ERC1155.sol\":13375:13397  operator == address(0) */\n      0xffffffffffffffffffffffffffffffffffffffff\n      and\n      sub\n        /* \"@openzeppelin/contracts/token/ERC1155/ERC1155.sol\":13371:13465  if (operator == address(0)) {... */\n      tag_275\n      jumpi\n        /* \"@openzeppelin/contracts/token/ERC1155/ERC1155.sol\":13451:13452  0 */\n      0x00\n        /* \"@openzeppelin/contracts/token/ERC1155/ERC1155.sol\":13420:13454  ERC1155InvalidOperator(address(0)) */\n      mload(0x40)\n      0xced3e10000000000000000000000000000000000000000000000000000000000\n      dup2\n      mstore\n      0x04\n      add\n      tag_276\n      swap2\n      swap1\n      tag_72\n      jump\t// in\n    tag_276:\n      mload(0x40)\n      dup1\n      swap2\n      sub\n      swap1\n      revert\n        /* \"@openzeppelin/contracts/token/ERC1155/ERC1155.sol\":13371:13465  if (operator == address(0)) {... */\n    tag_275:\n        /* \"@openzeppelin/contracts/token/ERC1155/ERC1155.sol\":13512:13520  approved */\n      dup1\n        /* \"@openzeppelin/contracts/token/ERC1155/ERC1155.sol\":13474:13492  _operatorApprovals */\n      0x01\n        /* \"@openzeppelin/contracts/token/ERC1155/ERC1155.sol\":13474:13499  _operatorApprovals[owner] */\n      0x00\n        /* \"@openzeppelin/contracts/token/ERC1155/ERC1155.sol\":13493:13498  owner */\n      dup6\n        /* \"@openzeppelin/contracts/token/ERC1155/ERC1155.sol\":13474:13499  _operatorApprovals[owner] */\n      0xffffffffffffffffffffffffffffffffffffffff\n      and\n      0xffffffffffffffffffffffffffffffffffffffff\n      and\n      dup2\n      mstore\n      0x20\n      add\n      swap1\n      dup2\n      mstore\n      0x20\n      add\n      0x00\n      keccak256\n        /* \"@openzeppelin/contracts/token/ERC1155/ERC1155.sol\":13474:13509  _operatorApprovals[owner][operator] */\n      0x00\n        /* \"@openzeppelin/contracts/token/ERC1155/ERC1155.sol\":13500:13508  operator */\n      dup5\n        /* \"@openzeppelin/contracts/token/ERC1155/ERC1155.sol\":13474:13509  _operatorApprovals[owner][operator] */\n      0xffffffffffffffffffffffffffffffffffffffff\n      and\n      0xffffffffffffffffffffffffffffffffffffffff\n      and\n      dup2\n      mstore\n      0x20\n      add\n      swap1\n      dup2\n      mstore\n      0x20\n      add\n      0x00\n      keccak256\n      0x00\n        /* \"@openzeppelin/contracts/token/ERC1155/ERC1155.sol\":13474:13520  _operatorApprovals[owner][operator] = approved */\n      0x0100\n      exp\n      dup2\n      sload\n      dup2\n      0xff\n      mul\n      not\n      and\n      swap1\n      dup4\n      iszero\n      iszero\n      mul\n      or\n      swap1\n      sstore\n      pop\n        /* \"@openzeppelin/contracts/token/ERC1155/ERC1155.sol\":13557:13565  operator */\n      dup2\n        /* \"@openzeppelin/contracts/token/ERC1155/ERC1155.sol\":13535:13576  ApprovalForAll(owner, operator, approved) */\n      0xffffffffffffffffffffffffffffffffffffffff\n      and\n        /* \"@openzeppelin/contracts/token/ERC1155/ERC1155.sol\":13550:13555  owner */\n      dup4\n        /* \"@openzeppelin/contracts/token/ERC1155/ERC1155.sol\":13535:13576  ApprovalForAll(owner, operator, approved) */\n      0xffffffffffffffffffffffffffffffffffffffff\n      and\n      0x17307eab39ab6107e8899845ad3d59bd9653f200f220920489ca2b5937696c31\n        /* \"@openzeppelin/contracts/token/ERC1155/ERC1155.sol\":13567:13575  approved */\n      dup4\n        /* \"@openzeppelin/contracts/token/ERC1155/ERC1155.sol\":13535:13576  ApprovalForAll(owner, operator, approved) */\n      mload(0x40)\n      tag_277\n      swap2\n      swap1\n      tag_34\n      jump\t// in\n    tag_277:\n      mload(0x40)\n      dup1\n      swap2\n      sub\n      swap1\n      log3\n        /* \"@openzeppelin/contracts/token/ERC1155/ERC1155.sol\":13268:13583  function _setApprovalForAll(address owner, address operator, bool approved) internal virtual {... */\n      pop\n      pop\n      pop\n      jump\t// out\n        /* \"@openzeppelin/contracts/token/ERC1155/ERC1155.sol\":12099:12428  function _burn(address from, uint256 id, uint256 value) internal {... */\n    tag_203:\n        /* \"@openzeppelin/contracts/token/ERC1155/ERC1155.sol\":12194:12195  0 */\n      0x00\n        /* \"@openzeppelin/contracts/token/ERC1155/ERC1155.sol\":12178:12196  from == address(0) */\n      0xffffffffffffffffffffffffffffffffffffffff\n      and\n        /* \"@openzeppelin/contracts/token/ERC1155/ERC1155.sol\":12178:12182  from */\n      dup4\n        /* \"@openzeppelin/contracts/token/ERC1155/ERC1155.sol\":12178:12196  from == address(0) */\n      0xffffffffffffffffffffffffffffffffffffffff\n      and\n      sub\n        /* \"@openzeppelin/contracts/token/ERC1155/ERC1155.sol\":12174:12262  if (from == address(0)) {... */\n      tag_279\n      jumpi\n        /* \"@openzeppelin/contracts/token/ERC1155/ERC1155.sol\":12248:12249  0 */\n      0x00\n        /* \"@openzeppelin/contracts/token/ERC1155/ERC1155.sol\":12219:12251  ERC1155InvalidSender(address(0)) */\n      mload(0x40)\n      0x01a8351400000000000000000000000000000000000000000000000000000000\n      dup2\n      mstore\n      0x04\n      add\n      tag_280\n      swap2\n      swap1\n      tag_72\n      jump\t// in\n    tag_280:\n      mload(0x40)\n      dup1\n      swap2\n      sub\n      swap1\n      revert\n        /* \"@openzeppelin/contracts/token/ERC1155/ERC1155.sol\":12174:12262  if (from == address(0)) {... */\n    tag_279:\n        /* \"@openzeppelin/contracts/token/ERC1155/ERC1155.sol\":12272:12292  uint256[] memory ids */\n      0x00\n        /* \"@openzeppelin/contracts/token/ERC1155/ERC1155.sol\":12294:12317  uint256[] memory values */\n      dup1\n        /* \"@openzeppelin/contracts/token/ERC1155/ERC1155.sol\":12321:12350  _asSingletonArrays(id, value) */\n      tag_281\n        /* \"@openzeppelin/contracts/token/ERC1155/ERC1155.sol\":12340:12342  id */\n      dup5\n        /* \"@openzeppelin/contracts/token/ERC1155/ERC1155.sol\":12344:12349  value */\n      dup5\n        /* \"@openzeppelin/contracts/token/ERC1155/ERC1155.sol\":12321:12339  _asSingletonArrays */\n      tag_269\n        /* \"@openzeppelin/contracts/token/ERC1155/ERC1155.sol\":12321:12350  _asSingletonArrays(id, value) */\n      jump\t// in\n    tag_281:\n        /* \"@openzeppelin/contracts/token/ERC1155/ERC1155.sol\":12271:12350  (uint256[] memory ids, uint256[] memory values) = _asSingletonArrays(id, value) */\n      swap2\n      pop\n      swap2\n      pop\n        /* \"@openzeppelin/contracts/token/ERC1155/ERC1155.sol\":12360:12421  _updateWithAcceptanceCheck(from, address(0), ids, values, \"\") */\n      tag_282\n        /* \"@openzeppelin/contracts/token/ERC1155/ERC1155.sol\":12387:12391  from */\n      dup6\n        /* \"@openzeppelin/contracts/token/ERC1155/ERC1155.sol\":12401:12402  0 */\n      0x00\n        /* \"@openzeppelin/contracts/token/ERC1155/ERC1155.sol\":12405:12408  ids */\n      dup5\n        /* \"@openzeppelin/contracts/token/ERC1155/ERC1155.sol\":12410:12416  values */\n      dup5\n        /* \"@openzeppelin/contracts/token/ERC1155/ERC1155.sol\":12360:12421  _updateWithAcceptanceCheck(from, address(0), ids, values, \"\") */\n      mload(0x40)\n      dup1\n      0x20\n      add\n      0x40\n      mstore\n      dup1\n      0x00\n      dup2\n      mstore\n      pop\n        /* \"@openzeppelin/contracts/token/ERC1155/ERC1155.sol\":12360:12386  _updateWithAcceptanceCheck */\n      tag_256\n        /* \"@openzeppelin/contracts/token/ERC1155/ERC1155.sol\":12360:12421  _updateWithAcceptanceCheck(from, address(0), ids, values, \"\") */\n      jump\t// in\n    tag_282:\n        /* \"@openzeppelin/contracts/token/ERC1155/ERC1155.sol\":12164:12428  {... */\n      pop\n      pop\n        /* \"@openzeppelin/contracts/token/ERC1155/ERC1155.sol\":12099:12428  function _burn(address from, uint256 id, uint256 value) internal {... */\n      pop\n      pop\n      pop\n      jump\t// out\n        /* \"@openzeppelin/contracts/token/ERC1155/ERC1155.sol\":8151:8614  function _safeTransferFrom(address from, address to, uint256 id, uint256 value, bytes memory data) internal {... */\n    tag_241:\n        /* \"@openzeppelin/contracts/token/ERC1155/ERC1155.sol\":8287:8288  0 */\n      0x00\n        /* \"@openzeppelin/contracts/token/ERC1155/ERC1155.sol\":8273:8289  to == address(0) */\n      0xffffffffffffffffffffffffffffffffffffffff\n      and\n        /* \"@openzeppelin/contracts/token/ERC1155/ERC1155.sol\":8273:8275  to */\n      dup5\n        /* \"@openzeppelin/contracts/token/ERC1155/ERC1155.sol\":8273:8289  to == address(0) */\n      0xffffffffffffffffffffffffffffffffffffffff\n      and\n      sub\n        /* \"@openzeppelin/contracts/token/ERC1155/ERC1155.sol\":8269:8357  if (to == address(0)) {... */\n      tag_284\n      jumpi\n        /* \"@openzeppelin/contracts/token/ERC1155/ERC1155.sol\":8343:8344  0 */\n      0x00\n        /* \"@openzeppelin/contracts/token/ERC1155/ERC1155.sol\":8312:8346  ERC1155InvalidReceiver(address(0)) */\n      mload(0x40)\n      0x57f447ce00000000000000000000000000000000000000000000000000000000\n      dup2\n      mstore\n      0x04\n      add\n      tag_285\n      swap2\n      swap1\n      tag_72\n      jump\t// in\n    tag_285:\n      mload(0x40)\n      dup1\n      swap2\n      sub\n      swap1\n      revert\n        /* \"@openzeppelin/contracts/token/ERC1155/ERC1155.sol\":8269:8357  if (to == address(0)) {... */\n    tag_284:\n        /* \"@openzeppelin/contracts/token/ERC1155/ERC1155.sol\":8386:8387  0 */\n      0x00\n        /* \"@openzeppelin/contracts/token/ERC1155/ERC1155.sol\":8370:8388  from == address(0) */\n      0xffffffffffffffffffffffffffffffffffffffff\n      and\n        /* \"@openzeppelin/contracts/token/ERC1155/ERC1155.sol\":8370:8374  from */\n      dup6\n        /* \"@openzeppelin/contracts/token/ERC1155/ERC1155.sol\":8370:8388  from == address(0) */\n      0xffffffffffffffffffffffffffffffffffffffff\n      and\n      sub\n        /* \"@openzeppelin/contracts/token/ERC1155/ERC1155.sol\":8366:8454  if (from == address(0)) {... */\n      tag_286\n      jumpi\n        /* \"@openzeppelin/contracts/token/ERC1155/ERC1155.sol\":8440:8441  0 */\n      0x00\n        /* \"@openzeppelin/contracts/token/ERC1155/ERC1155.sol\":8411:8443  ERC1155InvalidSender(address(0)) */\n      mload(0x40)\n      0x01a8351400000000000000000000000000000000000000000000000000000000\n      dup2\n      mstore\n      0x04\n      add\n      tag_287\n      swap2\n      swap1\n      tag_72\n      jump\t// in\n    tag_287:\n      mload(0x40)\n      dup1\n      swap2\n      sub\n      swap1\n      revert\n        /* \"@openzeppelin/contracts/token/ERC1155/ERC1155.sol\":8366:8454  if (from == address(0)) {... */\n    tag_286:\n        /* \"@openzeppelin/contracts/token/ERC1155/ERC1155.sol\":8464:8484  uint256[] memory ids */\n      0x00\n        /* \"@openzeppelin/contracts/token/ERC1155/ERC1155.sol\":8486:8509  uint256[] memory values */\n      dup1\n        /* \"@openzeppelin/contracts/token/ERC1155/ERC1155.sol\":8513:8542  _asSingletonArrays(id, value) */\n      tag_288\n        /* \"@openzeppelin/contracts/token/ERC1155/ERC1155.sol\":8532:8534  id */\n      dup6\n        /* \"@openzeppelin/contracts/token/ERC1155/ERC1155.sol\":8536:8541  value */\n      dup6\n        /* \"@openzeppelin/contracts/token/ERC1155/ERC1155.sol\":8513:8531  _asSingletonArrays */\n      tag_269\n        /* \"@openzeppelin/contracts/token/ERC1155/ERC1155.sol\":8513:8542  _asSingletonArrays(id, value) */\n      jump\t// in\n    tag_288:\n        /* \"@openzeppelin/contracts/token/ERC1155/ERC1155.sol\":8463:8542  (uint256[] memory ids, uint256[] memory values) = _asSingletonArrays(id, value) */\n      swap2\n      pop\n      swap2\n      pop\n        /* \"@openzeppelin/contracts/token/ERC1155/ERC1155.sol\":8552:8607  _updateWithAcceptanceCheck(from, to, ids, values, data) */\n      tag_289\n        /* \"@openzeppelin/contracts/token/ERC1155/ERC1155.sol\":8579:8583  from */\n      dup8\n        /* \"@openzeppelin/contracts/token/ERC1155/ERC1155.sol\":8585:8587  to */\n      dup8\n        /* \"@openzeppelin/contracts/token/ERC1155/ERC1155.sol\":8589:8592  ids */\n      dup5\n        /* \"@openzeppelin/contracts/token/ERC1155/ERC1155.sol\":8594:8600  values */\n      dup5\n        /* \"@openzeppelin/contracts/token/ERC1155/ERC1155.sol\":8602:8606  data */\n      dup8\n        /* \"@openzeppelin/contracts/token/ERC1155/ERC1155.sol\":8552:8578  _updateWithAcceptanceCheck */\n      tag_256\n        /* \"@openzeppelin/contracts/token/ERC1155/ERC1155.sol\":8552:8607  _updateWithAcceptanceCheck(from, to, ids, values, data) */\n      jump\t// in\n    tag_289:\n        /* \"@openzeppelin/contracts/token/ERC1155/ERC1155.sol\":8259:8614  {... */\n      pop\n      pop\n        /* \"@openzeppelin/contracts/token/ERC1155/ERC1155.sol\":8151:8614  function _safeTransferFrom(address from, address to, uint256 id, uint256 value, bytes memory data) internal {... */\n      pop\n      pop\n      pop\n      pop\n      pop\n      jump\t// out\n        /* \"@openzeppelin/contracts/token/ERC1155/ERC1155.sol\":7004:7694  function _updateWithAcceptanceCheck(... */\n    tag_256:\n        /* \"@openzeppelin/contracts/token/ERC1155/ERC1155.sol\":7205:7235  _update(from, to, ids, values) */\n      tag_291\n        /* \"@openzeppelin/contracts/token/ERC1155/ERC1155.sol\":7213:7217  from */\n      dup6\n        /* \"@openzeppelin/contracts/token/ERC1155/ERC1155.sol\":7219:7221  to */\n      dup6\n        /* \"@openzeppelin/contracts/token/ERC1155/ERC1155.sol\":7223:7226  ids */\n      dup6\n        /* \"@openzeppelin/contracts/token/ERC1155/ERC1155.sol\":7228:7234  values */\n      dup6\n        /* \"@openzeppelin/contracts/token/ERC1155/ERC1155.sol\":7205:7212  _update */\n      tag_292\n        /* \"@openzeppelin/contracts/token/ERC1155/ERC1155.sol\":7205:7235  _update(from, to, ids, values) */\n      jump\t// in\n    tag_291:\n        /* \"@openzeppelin/contracts/token/ERC1155/ERC1155.sol\":7263:7264  0 */\n      0x00\n        /* \"@openzeppelin/contracts/token/ERC1155/ERC1155.sol\":7249:7265  to != address(0) */\n      0xffffffffffffffffffffffffffffffffffffffff\n      and\n        /* \"@openzeppelin/contracts/token/ERC1155/ERC1155.sol\":7249:7251  to */\n      dup5\n        /* \"@openzeppelin/contracts/token/ERC1155/ERC1155.sol\":7249:7265  to != address(0) */\n      0xffffffffffffffffffffffffffffffffffffffff\n      and\n      eq\n        /* \"@openzeppelin/contracts/token/ERC1155/ERC1155.sol\":7245:7688  if (to != address(0)) {... */\n      tag_293\n      jumpi\n        /* \"@openzeppelin/contracts/token/ERC1155/ERC1155.sol\":7281:7297  address operator */\n      0x00\n        /* \"@openzeppelin/contracts/token/ERC1155/ERC1155.sol\":7300:7312  _msgSender() */\n      tag_294\n        /* \"@openzeppelin/contracts/token/ERC1155/ERC1155.sol\":7300:7310  _msgSender */\n      tag_123\n        /* \"@openzeppelin/contracts/token/ERC1155/ERC1155.sol\":7300:7312  _msgSender() */\n      jump\t// in\n    tag_294:\n        /* \"@openzeppelin/contracts/token/ERC1155/ERC1155.sol\":7281:7312  address operator = _msgSender() */\n      swap1\n      pop\n        /* \"@openzeppelin/contracts/token/ERC1155/ERC1155.sol\":7344:7345  1 */\n      0x01\n        /* \"@openzeppelin/contracts/token/ERC1155/ERC1155.sol\":7330:7333  ids */\n      dup5\n        /* \"@openzeppelin/contracts/token/ERC1155/ERC1155.sol\":7330:7340  ids.length */\n      mload\n        /* \"@openzeppelin/contracts/token/ERC1155/ERC1155.sol\":7330:7345  ids.length == 1 */\n      sub\n        /* \"@openzeppelin/contracts/token/ERC1155/ERC1155.sol\":7326:7678  if (ids.length == 1) {... */\n      tag_295\n      jumpi\n        /* \"@openzeppelin/contracts/token/ERC1155/ERC1155.sol\":7365:7375  uint256 id */\n      0x00\n        /* \"@openzeppelin/contracts/token/ERC1155/ERC1155.sol\":7378:7403  ids.unsafeMemoryAccess(0) */\n      tag_296\n        /* \"@openzeppelin/contracts/token/ERC1155/ERC1155.sol\":7401:7402  0 */\n      0x00\n        /* \"@openzeppelin/contracts/token/ERC1155/ERC1155.sol\":7378:7381  ids */\n      dup7\n        /* \"@openzeppelin/contracts/token/ERC1155/ERC1155.sol\":7378:7400  ids.unsafeMemoryAccess */\n      tag_146\n      swap1\n        /* \"@openzeppelin/contracts/token/ERC1155/ERC1155.sol\":7378:7403  ids.unsafeMemoryAccess(0) */\n      swap2\n      swap1\n      0xffffffff\n      and\n      jump\t// in\n    tag_296:\n        /* \"@openzeppelin/contracts/token/ERC1155/ERC1155.sol\":7365:7403  uint256 id = ids.unsafeMemoryAccess(0) */\n      swap1\n      pop\n        /* \"@openzeppelin/contracts/token/ERC1155/ERC1155.sol\":7421:7434  uint256 value */\n      0x00\n        /* \"@openzeppelin/contracts/token/ERC1155/ERC1155.sol\":7437:7465  values.unsafeMemoryAccess(0) */\n      tag_297\n        /* \"@openzeppelin/contracts/token/ERC1155/ERC1155.sol\":7463:7464  0 */\n      0x00\n        /* \"@openzeppelin/contracts/token/ERC1155/ERC1155.sol\":7437:7443  values */\n      dup7\n        /* \"@openzeppelin/contracts/token/ERC1155/ERC1155.sol\":7437:7462  values.unsafeMemoryAccess */\n      tag_146\n      swap1\n        /* \"@openzeppelin/contracts/token/ERC1155/ERC1155.sol\":7437:7465  values.unsafeMemoryAccess(0) */\n      swap2\n      swap1\n      0xffffffff\n      and\n      jump\t// in\n    tag_297:\n        /* \"@openzeppelin/contracts/token/ERC1155/ERC1155.sol\":7421:7465  uint256 value = values.unsafeMemoryAccess(0) */\n      swap1\n      pop\n        /* \"@openzeppelin/contracts/token/ERC1155/ERC1155.sol\":7483:7550  _doSafeTransferAcceptanceCheck(operator, from, to, id, value, data) */\n      tag_298\n        /* \"@openzeppelin/contracts/token/ERC1155/ERC1155.sol\":7514:7522  operator */\n      dup4\n        /* \"@openzeppelin/contracts/token/ERC1155/ERC1155.sol\":7524:7528  from */\n      dup10\n        /* \"@openzeppelin/contracts/token/ERC1155/ERC1155.sol\":7530:7532  to */\n      dup10\n        /* \"@openzeppelin/contracts/token/ERC1155/ERC1155.sol\":7534:7536  id */\n      dup6\n        /* \"@openzeppelin/contracts/token/ERC1155/ERC1155.sol\":7538:7543  value */\n      dup6\n        /* \"@openzeppelin/contracts/token/ERC1155/ERC1155.sol\":7545:7549  data */\n      dup10\n        /* \"@openzeppelin/contracts/token/ERC1155/ERC1155.sol\":7483:7513  _doSafeTransferAcceptanceCheck */\n      tag_299\n        /* \"@openzeppelin/contracts/token/ERC1155/ERC1155.sol\":7483:7550  _doSafeTransferAcceptanceCheck(operator, from, to, id, value, data) */\n      jump\t// in\n    tag_298:\n        /* \"@openzeppelin/contracts/token/ERC1155/ERC1155.sol\":7347:7565  {... */\n      pop\n      pop\n        /* \"@openzeppelin/contracts/token/ERC1155/ERC1155.sol\":7326:7678  if (ids.length == 1) {... */\n      jump(tag_300)\n    tag_295:\n        /* \"@openzeppelin/contracts/token/ERC1155/ERC1155.sol\":7589:7663  _doSafeBatchTransferAcceptanceCheck(operator, from, to, ids, values, data) */\n      tag_301\n        /* \"@openzeppelin/contracts/token/ERC1155/ERC1155.sol\":7625:7633  operator */\n      dup2\n        /* \"@openzeppelin/contracts/token/ERC1155/ERC1155.sol\":7635:7639  from */\n      dup8\n        /* \"@openzeppelin/contracts/token/ERC1155/ERC1155.sol\":7641:7643  to */\n      dup8\n        /* \"@openzeppelin/contracts/token/ERC1155/ERC1155.sol\":7645:7648  ids */\n      dup8\n        /* \"@openzeppelin/contracts/token/ERC1155/ERC1155.sol\":7650:7656  values */\n      dup8\n        /* \"@openzeppelin/contracts/token/ERC1155/ERC1155.sol\":7658:7662  data */\n      dup8\n        /* \"@openzeppelin/contracts/token/ERC1155/ERC1155.sol\":7589:7624  _doSafeBatchTransferAcceptanceCheck */\n      tag_302\n        /* \"@openzeppelin/contracts/token/ERC1155/ERC1155.sol\":7589:7663  _doSafeBatchTransferAcceptanceCheck(operator, from, to, ids, values, data) */\n      jump\t// in\n    tag_301:\n        /* \"@openzeppelin/contracts/token/ERC1155/ERC1155.sol\":7326:7678  if (ids.length == 1) {... */\n    tag_300:\n        /* \"@openzeppelin/contracts/token/ERC1155/ERC1155.sol\":7267:7688  {... */\n      pop\n        /* \"@openzeppelin/contracts/token/ERC1155/ERC1155.sol\":7245:7688  if (to != address(0)) {... */\n    tag_293:\n        /* \"@openzeppelin/contracts/token/ERC1155/ERC1155.sol\":7004:7694  function _updateWithAcceptanceCheck(... */\n      pop\n      pop\n      pop\n      pop\n      pop\n      jump\t// out\n        /* \"@openzeppelin/contracts/token/ERC1155/ERC1155.sol\":16080:16929  function _asSingletonArrays(... */\n    tag_269:\n        /* \"@openzeppelin/contracts/token/ERC1155/ERC1155.sol\":16188:16211  uint256[] memory array1 */\n      0x60\n        /* \"@openzeppelin/contracts/token/ERC1155/ERC1155.sol\":16213:16236  uint256[] memory array2 */\n      dup1\n        /* \"@openzeppelin/contracts/token/ERC1155/ERC1155.sol\":16374:16378  0x40 */\n      0x40\n        /* \"@openzeppelin/contracts/token/ERC1155/ERC1155.sol\":16368:16379  mload(0x40) */\n      mload\n        /* \"@openzeppelin/contracts/token/ERC1155/ERC1155.sol\":16358:16379  array1 := mload(0x40) */\n      swap2\n      pop\n        /* \"@openzeppelin/contracts/token/ERC1155/ERC1155.sol\":16444:16445  1 */\n      0x01\n        /* \"@openzeppelin/contracts/token/ERC1155/ERC1155.sol\":16436:16442  array1 */\n      dup3\n        /* \"@openzeppelin/contracts/token/ERC1155/ERC1155.sol\":16429:16446  mstore(array1, 1) */\n      mstore\n        /* \"@openzeppelin/contracts/token/ERC1155/ERC1155.sol\":16582:16590  element1 */\n      dup4\n        /* \"@openzeppelin/contracts/token/ERC1155/ERC1155.sol\":16575:16579  0x20 */\n      0x20\n        /* \"@openzeppelin/contracts/token/ERC1155/ERC1155.sol\":16567:16573  array1 */\n      dup4\n        /* \"@openzeppelin/contracts/token/ERC1155/ERC1155.sol\":16563:16580  add(array1, 0x20) */\n      add\n        /* \"@openzeppelin/contracts/token/ERC1155/ERC1155.sol\":16556:16591  mstore(add(array1, 0x20), element1) */\n      mstore\n        /* \"@openzeppelin/contracts/token/ERC1155/ERC1155.sol\":16704:16708  0x40 */\n      0x40\n        /* \"@openzeppelin/contracts/token/ERC1155/ERC1155.sol\":16696:16702  array1 */\n      dup3\n        /* \"@openzeppelin/contracts/token/ERC1155/ERC1155.sol\":16692:16709  add(array1, 0x40) */\n      add\n        /* \"@openzeppelin/contracts/token/ERC1155/ERC1155.sol\":16682:16709  array2 := add(array1, 0x40) */\n      swap1\n      pop\n        /* \"@openzeppelin/contracts/token/ERC1155/ERC1155.sol\":16737:16738  1 */\n      0x01\n        /* \"@openzeppelin/contracts/token/ERC1155/ERC1155.sol\":16729:16735  array2 */\n      dup2\n        /* \"@openzeppelin/contracts/token/ERC1155/ERC1155.sol\":16722:16739  mstore(array2, 1) */\n      mstore\n        /* \"@openzeppelin/contracts/token/ERC1155/ERC1155.sol\":16778:16786  element2 */\n      dup3\n        /* \"@openzeppelin/contracts/token/ERC1155/ERC1155.sol\":16771:16775  0x20 */\n      0x20\n        /* \"@openzeppelin/contracts/token/ERC1155/ERC1155.sol\":16763:16769  array2 */\n      dup3\n        /* \"@openzeppelin/contracts/token/ERC1155/ERC1155.sol\":16759:16776  add(array2, 0x20) */\n      add\n        /* \"@openzeppelin/contracts/token/ERC1155/ERC1155.sol\":16752:16787  mstore(add(array2, 0x20), element2) */\n      mstore\n        /* \"@openzeppelin/contracts/token/ERC1155/ERC1155.sol\":16907:16911  0x40 */\n      0x40\n        /* \"@openzeppelin/contracts/token/ERC1155/ERC1155.sol\":16899:16905  array2 */\n      dup2\n        /* \"@openzeppelin/contracts/token/ERC1155/ERC1155.sol\":16895:16912  add(array2, 0x40) */\n      add\n        /* \"@openzeppelin/contracts/token/ERC1155/ERC1155.sol\":16889:16893  0x40 */\n      0x40\n        /* \"@openzeppelin/contracts/token/ERC1155/ERC1155.sol\":16882:16913  mstore(0x40, add(array2, 0x40)) */\n      mstore\n        /* \"@openzeppelin/contracts/token/ERC1155/ERC1155.sol\":16080:16929  function _asSingletonArrays(... */\n      swap3\n      pop\n      swap3\n      swap1\n      pop\n      jump\t// out\n        /* \"@openzeppelin/contracts/token/ERC1155/ERC1155.sol\":5144:6425  function _update(address from, address to, uint256[] memory ids, uint256[] memory values) internal virtual {... */\n    tag_292:\n        /* \"@openzeppelin/contracts/token/ERC1155/ERC1155.sol\":5279:5285  values */\n      dup1\n        /* \"@openzeppelin/contracts/token/ERC1155/ERC1155.sol\":5279:5292  values.length */\n      mload\n        /* \"@openzeppelin/contracts/token/ERC1155/ERC1155.sol\":5265:5268  ids */\n      dup3\n        /* \"@openzeppelin/contracts/token/ERC1155/ERC1155.sol\":5265:5275  ids.length */\n      mload\n        /* \"@openzeppelin/contracts/token/ERC1155/ERC1155.sol\":5265:5292  ids.length != values.length */\n      eq\n        /* \"@openzeppelin/contracts/token/ERC1155/ERC1155.sol\":5261:5378  if (ids.length != values.length) {... */\n      tag_305\n      jumpi\n        /* \"@openzeppelin/contracts/token/ERC1155/ERC1155.sol\":5341:5344  ids */\n      dup2\n        /* \"@openzeppelin/contracts/token/ERC1155/ERC1155.sol\":5341:5351  ids.length */\n      mload\n        /* \"@openzeppelin/contracts/token/ERC1155/ERC1155.sol\":5353:5359  values */\n      dup2\n        /* \"@openzeppelin/contracts/token/ERC1155/ERC1155.sol\":5353:5366  values.length */\n      mload\n        /* \"@openzeppelin/contracts/token/ERC1155/ERC1155.sol\":5315:5367  ERC1155InvalidArrayLength(ids.length, values.length) */\n      mload(0x40)\n      0x5b05999100000000000000000000000000000000000000000000000000000000\n      dup2\n      mstore\n      0x04\n      add\n      tag_306\n      swap3\n      swap2\n      swap1\n      tag_134\n      jump\t// in\n    tag_306:\n      mload(0x40)\n      dup1\n      swap2\n      sub\n      swap1\n      revert\n        /* \"@openzeppelin/contracts/token/ERC1155/ERC1155.sol\":5261:5378  if (ids.length != values.length) {... */\n    tag_305:\n        /* \"@openzeppelin/contracts/token/ERC1155/ERC1155.sol\":5388:5404  address operator */\n      0x00\n        /* \"@openzeppelin/contracts/token/ERC1155/ERC1155.sol\":5407:5419  _msgSender() */\n      tag_307\n        /* \"@openzeppelin/contracts/token/ERC1155/ERC1155.sol\":5407:5417  _msgSender */\n      tag_123\n        /* \"@openzeppelin/contracts/token/ERC1155/ERC1155.sol\":5407:5419  _msgSender() */\n      jump\t// in\n    tag_307:\n        /* \"@openzeppelin/contracts/token/ERC1155/ERC1155.sol\":5388:5419  address operator = _msgSender() */\n      swap1\n      pop\n        /* \"@openzeppelin/contracts/token/ERC1155/ERC1155.sol\":5435:5444  uint256 i */\n      0x00\n        /* \"@openzeppelin/contracts/token/ERC1155/ERC1155.sol\":5430:6121  for (uint256 i = 0; i < ids.length; ++i) {... */\n    tag_308:\n        /* \"@openzeppelin/contracts/token/ERC1155/ERC1155.sol\":5454:5457  ids */\n      dup4\n        /* \"@openzeppelin/contracts/token/ERC1155/ERC1155.sol\":5454:5464  ids.length */\n      mload\n        /* \"@openzeppelin/contracts/token/ERC1155/ERC1155.sol\":5450:5451  i */\n      dup2\n        /* \"@openzeppelin/contracts/token/ERC1155/ERC1155.sol\":5450:5464  i < ids.length */\n      lt\n        /* \"@openzeppelin/contracts/token/ERC1155/ERC1155.sol\":5430:6121  for (uint256 i = 0; i < ids.length; ++i) {... */\n      iszero\n      tag_309\n      jumpi\n        /* \"@openzeppelin/contracts/token/ERC1155/ERC1155.sol\":5485:5495  uint256 id */\n      0x00\n        /* \"@openzeppelin/contracts/token/ERC1155/ERC1155.sol\":5498:5523  ids.unsafeMemoryAccess(i) */\n      tag_311\n        /* \"@openzeppelin/contracts/token/ERC1155/ERC1155.sol\":5521:5522  i */\n      dup3\n        /* \"@openzeppelin/contracts/token/ERC1155/ERC1155.sol\":5498:5501  ids */\n      dup7\n        /* \"@openzeppelin/contracts/token/ERC1155/ERC1155.sol\":5498:5520  ids.unsafeMemoryAccess */\n      tag_146\n      swap1\n        /* \"@openzeppelin/contracts/token/ERC1155/ERC1155.sol\":5498:5523  ids.unsafeMemoryAccess(i) */\n      swap2\n      swap1\n      0xffffffff\n      and\n      jump\t// in\n    tag_311:\n        /* \"@openzeppelin/contracts/token/ERC1155/ERC1155.sol\":5485:5523  uint256 id = ids.unsafeMemoryAccess(i) */\n      swap1\n      pop\n        /* \"@openzeppelin/contracts/token/ERC1155/ERC1155.sol\":5537:5550  uint256 value */\n      0x00\n        /* \"@openzeppelin/contracts/token/ERC1155/ERC1155.sol\":5553:5581  values.unsafeMemoryAccess(i) */\n      tag_312\n        /* \"@openzeppelin/contracts/token/ERC1155/ERC1155.sol\":5579:5580  i */\n      dup4\n        /* \"@openzeppelin/contracts/token/ERC1155/ERC1155.sol\":5553:5559  values */\n      dup7\n        /* \"@openzeppelin/contracts/token/ERC1155/ERC1155.sol\":5553:5578  values.unsafeMemoryAccess */\n      tag_146\n      swap1\n        /* \"@openzeppelin/contracts/token/ERC1155/ERC1155.sol\":5553:5581  values.unsafeMemoryAccess(i) */\n      swap2\n      swap1\n      0xffffffff\n      and\n      jump\t// in\n    tag_312:\n        /* \"@openzeppelin/contracts/token/ERC1155/ERC1155.sol\":5537:5581  uint256 value = values.unsafeMemoryAccess(i) */\n      swap1\n      pop\n        /* \"@openzeppelin/contracts/token/ERC1155/ERC1155.sol\":5616:5617  0 */\n      0x00\n        /* \"@openzeppelin/contracts/token/ERC1155/ERC1155.sol\":5600:5618  from != address(0) */\n      0xffffffffffffffffffffffffffffffffffffffff\n      and\n        /* \"@openzeppelin/contracts/token/ERC1155/ERC1155.sol\":5600:5604  from */\n      dup9\n        /* \"@openzeppelin/contracts/token/ERC1155/ERC1155.sol\":5600:5618  from != address(0) */\n      0xffffffffffffffffffffffffffffffffffffffff\n      and\n      eq\n        /* \"@openzeppelin/contracts/token/ERC1155/ERC1155.sol\":5596:6016  if (from != address(0)) {... */\n      tag_313\n      jumpi\n        /* \"@openzeppelin/contracts/token/ERC1155/ERC1155.sol\":5638:5657  uint256 fromBalance */\n      0x00\n        /* \"@openzeppelin/contracts/token/ERC1155/ERC1155.sol\":5660:5669  _balances */\n      dup1\n        /* \"@openzeppelin/contracts/token/ERC1155/ERC1155.sol\":5660:5673  _balances[id] */\n      0x00\n        /* \"@openzeppelin/contracts/token/ERC1155/ERC1155.sol\":5670:5672  id */\n      dup5\n        /* \"@openzeppelin/contracts/token/ERC1155/ERC1155.sol\":5660:5673  _balances[id] */\n      dup2\n      mstore\n      0x20\n      add\n      swap1\n      dup2\n      mstore\n      0x20\n      add\n      0x00\n      keccak256\n        /* \"@openzeppelin/contracts/token/ERC1155/ERC1155.sol\":5660:5679  _balances[id][from] */\n      0x00\n        /* \"@openzeppelin/contracts/token/ERC1155/ERC1155.sol\":5674:5678  from */\n      dup11\n        /* \"@openzeppelin/contracts/token/ERC1155/ERC1155.sol\":5660:5679  _balances[id][from] */\n      0xffffffffffffffffffffffffffffffffffffffff\n      and\n      0xffffffffffffffffffffffffffffffffffffffff\n      and\n      dup2\n      mstore\n      0x20\n      add\n      swap1\n      dup2\n      mstore\n      0x20\n      add\n      0x00\n      keccak256\n      sload\n        /* \"@openzeppelin/contracts/token/ERC1155/ERC1155.sol\":5638:5679  uint256 fromBalance = _balances[id][from] */\n      swap1\n      pop\n        /* \"@openzeppelin/contracts/token/ERC1155/ERC1155.sol\":5715:5720  value */\n      dup2\n        /* \"@openzeppelin/contracts/token/ERC1155/ERC1155.sol\":5701:5712  fromBalance */\n      dup2\n        /* \"@openzeppelin/contracts/token/ERC1155/ERC1155.sol\":5701:5720  fromBalance < value */\n      lt\n        /* \"@openzeppelin/contracts/token/ERC1155/ERC1155.sol\":5697:5826  if (fromBalance < value) {... */\n      iszero\n      tag_314\n      jumpi\n        /* \"@openzeppelin/contracts/token/ERC1155/ERC1155.sol\":5778:5782  from */\n      dup9\n        /* \"@openzeppelin/contracts/token/ERC1155/ERC1155.sol\":5784:5795  fromBalance */\n      dup2\n        /* \"@openzeppelin/contracts/token/ERC1155/ERC1155.sol\":5797:5802  value */\n      dup4\n        /* \"@openzeppelin/contracts/token/ERC1155/ERC1155.sol\":5804:5806  id */\n      dup6\n        /* \"@openzeppelin/contracts/token/ERC1155/ERC1155.sol\":5751:5807  ERC1155InsufficientBalance(from, fromBalance, value, id) */\n      mload(0x40)\n      0x03dee4c500000000000000000000000000000000000000000000000000000000\n      dup2\n      mstore\n      0x04\n      add\n      tag_315\n      swap5\n      swap4\n      swap3\n      swap2\n      swap1\n      tag_316\n      jump\t// in\n    tag_315:\n      mload(0x40)\n      dup1\n      swap2\n      sub\n      swap1\n      revert\n        /* \"@openzeppelin/contracts/token/ERC1155/ERC1155.sol\":5697:5826  if (fromBalance < value) {... */\n    tag_314:\n        /* \"@openzeppelin/contracts/token/ERC1155/ERC1155.sol\":5978:5983  value */\n      dup2\n        /* \"@openzeppelin/contracts/token/ERC1155/ERC1155.sol\":5964:5975  fromBalance */\n      dup2\n        /* \"@openzeppelin/contracts/token/ERC1155/ERC1155.sol\":5964:5983  fromBalance - value */\n      sub\n        /* \"@openzeppelin/contracts/token/ERC1155/ERC1155.sol\":5942:5951  _balances */\n      0x00\n        /* \"@openzeppelin/contracts/token/ERC1155/ERC1155.sol\":5942:5955  _balances[id] */\n      dup1\n        /* \"@openzeppelin/contracts/token/ERC1155/ERC1155.sol\":5952:5954  id */\n      dup6\n        /* \"@openzeppelin/contracts/token/ERC1155/ERC1155.sol\":5942:5955  _balances[id] */\n      dup2\n      mstore\n      0x20\n      add\n      swap1\n      dup2\n      mstore\n      0x20\n      add\n      0x00\n      keccak256\n        /* \"@openzeppelin/contracts/token/ERC1155/ERC1155.sol\":5942:5961  _balances[id][from] */\n      0x00\n        /* \"@openzeppelin/contracts/token/ERC1155/ERC1155.sol\":5956:5960  from */\n      dup12\n        /* \"@openzeppelin/contracts/token/ERC1155/ERC1155.sol\":5942:5961  _balances[id][from] */\n      0xffffffffffffffffffffffffffffffffffffffff\n      and\n      0xffffffffffffffffffffffffffffffffffffffff\n      and\n      dup2\n      mstore\n      0x20\n      add\n      swap1\n      dup2\n      mstore\n      0x20\n      add\n      0x00\n      keccak256\n        /* \"@openzeppelin/contracts/token/ERC1155/ERC1155.sol\":5942:5983  _balances[id][from] = fromBalance - value */\n      dup2\n      swap1\n      sstore\n      pop\n        /* \"@openzeppelin/contracts/token/ERC1155/ERC1155.sol\":5620:6016  {... */\n      pop\n        /* \"@openzeppelin/contracts/token/ERC1155/ERC1155.sol\":5596:6016  if (from != address(0)) {... */\n    tag_313:\n        /* \"@openzeppelin/contracts/token/ERC1155/ERC1155.sol\":6048:6049  0 */\n      0x00\n        /* \"@openzeppelin/contracts/token/ERC1155/ERC1155.sol\":6034:6050  to != address(0) */\n      0xffffffffffffffffffffffffffffffffffffffff\n      and\n        /* \"@openzeppelin/contracts/token/ERC1155/ERC1155.sol\":6034:6036  to */\n      dup8\n        /* \"@openzeppelin/contracts/token/ERC1155/ERC1155.sol\":6034:6050  to != address(0) */\n      0xffffffffffffffffffffffffffffffffffffffff\n      and\n      eq\n        /* \"@openzeppelin/contracts/token/ERC1155/ERC1155.sol\":6030:6111  if (to != address(0)) {... */\n      tag_317\n      jumpi\n        /* \"@openzeppelin/contracts/token/ERC1155/ERC1155.sol\":6091:6096  value */\n      dup1\n        /* \"@openzeppelin/contracts/token/ERC1155/ERC1155.sol\":6070:6079  _balances */\n      0x00\n        /* \"@openzeppelin/contracts/token/ERC1155/ERC1155.sol\":6070:6083  _balances[id] */\n      dup1\n        /* \"@openzeppelin/contracts/token/ERC1155/ERC1155.sol\":6080:6082  id */\n      dup5\n        /* \"@openzeppelin/contracts/token/ERC1155/ERC1155.sol\":6070:6083  _balances[id] */\n      dup2\n      mstore\n      0x20\n      add\n      swap1\n      dup2\n      mstore\n      0x20\n      add\n      0x00\n      keccak256\n        /* \"@openzeppelin/contracts/token/ERC1155/ERC1155.sol\":6070:6087  _balances[id][to] */\n      0x00\n        /* \"@openzeppelin/contracts/token/ERC1155/ERC1155.sol\":6084:6086  to */\n      dup10\n        /* \"@openzeppelin/contracts/token/ERC1155/ERC1155.sol\":6070:6087  _balances[id][to] */\n      0xffffffffffffffffffffffffffffffffffffffff\n      and\n      0xffffffffffffffffffffffffffffffffffffffff\n      and\n      dup2\n      mstore\n      0x20\n      add\n      swap1\n      dup2\n      mstore\n      0x20\n      add\n      0x00\n      keccak256\n      0x00\n        /* \"@openzeppelin/contracts/token/ERC1155/ERC1155.sol\":6070:6096  _balances[id][to] += value */\n      dup3\n      dup3\n      sload\n      tag_318\n      swap2\n      swap1\n      tag_319\n      jump\t// in\n    tag_318:\n      swap3\n      pop\n      pop\n      dup2\n      swap1\n      sstore\n      pop\n        /* \"@openzeppelin/contracts/token/ERC1155/ERC1155.sol\":6030:6111  if (to != address(0)) {... */\n    tag_317:\n        /* \"@openzeppelin/contracts/token/ERC1155/ERC1155.sol\":5471:6121  {... */\n      pop\n      pop\n        /* \"@openzeppelin/contracts/token/ERC1155/ERC1155.sol\":5466:5469  ++i */\n      dup1\n      tag_320\n      swap1\n      tag_151\n      jump\t// in\n    tag_320:\n      swap1\n      pop\n        /* \"@openzeppelin/contracts/token/ERC1155/ERC1155.sol\":5430:6121  for (uint256 i = 0; i < ids.length; ++i) {... */\n      jump(tag_308)\n    tag_309:\n      pop\n        /* \"@openzeppelin/contracts/token/ERC1155/ERC1155.sol\":6149:6150  1 */\n      0x01\n        /* \"@openzeppelin/contracts/token/ERC1155/ERC1155.sol\":6135:6138  ids */\n      dup4\n        /* \"@openzeppelin/contracts/token/ERC1155/ERC1155.sol\":6135:6145  ids.length */\n      mload\n        /* \"@openzeppelin/contracts/token/ERC1155/ERC1155.sol\":6135:6150  ids.length == 1 */\n      sub\n        /* \"@openzeppelin/contracts/token/ERC1155/ERC1155.sol\":6131:6419  if (ids.length == 1) {... */\n      tag_321\n      jumpi\n        /* \"@openzeppelin/contracts/token/ERC1155/ERC1155.sol\":6166:6176  uint256 id */\n      0x00\n        /* \"@openzeppelin/contracts/token/ERC1155/ERC1155.sol\":6179:6204  ids.unsafeMemoryAccess(0) */\n      tag_322\n        /* \"@openzeppelin/contracts/token/ERC1155/ERC1155.sol\":6202:6203  0 */\n      0x00\n        /* \"@openzeppelin/contracts/token/ERC1155/ERC1155.sol\":6179:6182  ids */\n      dup6\n        /* \"@openzeppelin/contracts/token/ERC1155/ERC1155.sol\":6179:6201  ids.unsafeMemoryAccess */\n      tag_146\n      swap1\n        /* \"@openzeppelin/contracts/token/ERC1155/ERC1155.sol\":6179:6204  ids.unsafeMemoryAccess(0) */\n      swap2\n      swap1\n      0xffffffff\n      and\n      jump\t// in\n    tag_322:\n        /* \"@openzeppelin/contracts/token/ERC1155/ERC1155.sol\":6166:6204  uint256 id = ids.unsafeMemoryAccess(0) */\n      swap1\n      pop\n        /* \"@openzeppelin/contracts/token/ERC1155/ERC1155.sol\":6218:6231  uint256 value */\n      0x00\n        /* \"@openzeppelin/contracts/token/ERC1155/ERC1155.sol\":6234:6262  values.unsafeMemoryAccess(0) */\n      tag_323\n        /* \"@openzeppelin/contracts/token/ERC1155/ERC1155.sol\":6260:6261  0 */\n      0x00\n        /* \"@openzeppelin/contracts/token/ERC1155/ERC1155.sol\":6234:6240  values */\n      dup6\n        /* \"@openzeppelin/contracts/token/ERC1155/ERC1155.sol\":6234:6259  values.unsafeMemoryAccess */\n      tag_146\n      swap1\n        /* \"@openzeppelin/contracts/token/ERC1155/ERC1155.sol\":6234:6262  values.unsafeMemoryAccess(0) */\n      swap2\n      swap1\n      0xffffffff\n      and\n      jump\t// in\n    tag_323:\n        /* \"@openzeppelin/contracts/token/ERC1155/ERC1155.sol\":6218:6262  uint256 value = values.unsafeMemoryAccess(0) */\n      swap1\n      pop\n        /* \"@openzeppelin/contracts/token/ERC1155/ERC1155.sol\":6312:6314  to */\n      dup6\n        /* \"@openzeppelin/contracts/token/ERC1155/ERC1155.sol\":6281:6326  TransferSingle(operator, from, to, id, value) */\n      0xffffffffffffffffffffffffffffffffffffffff\n      and\n        /* \"@openzeppelin/contracts/token/ERC1155/ERC1155.sol\":6306:6310  from */\n      dup8\n        /* \"@openzeppelin/contracts/token/ERC1155/ERC1155.sol\":6281:6326  TransferSingle(operator, from, to, id, value) */\n      0xffffffffffffffffffffffffffffffffffffffff\n      and\n        /* \"@openzeppelin/contracts/token/ERC1155/ERC1155.sol\":6296:6304  operator */\n      dup5\n        /* \"@openzeppelin/contracts/token/ERC1155/ERC1155.sol\":6281:6326  TransferSingle(operator, from, to, id, value) */\n      0xffffffffffffffffffffffffffffffffffffffff\n      and\n      0xc3d58168c5ae7397731d063d5bbf3d657854427343f4c083240f7aacaa2d0f62\n        /* \"@openzeppelin/contracts/token/ERC1155/ERC1155.sol\":6316:6318  id */\n      dup6\n        /* \"@openzeppelin/contracts/token/ERC1155/ERC1155.sol\":6320:6325  value */\n      dup6\n        /* \"@openzeppelin/contracts/token/ERC1155/ERC1155.sol\":6281:6326  TransferSingle(operator, from, to, id, value) */\n      mload(0x40)\n      tag_324\n      swap3\n      swap2\n      swap1\n      tag_134\n      jump\t// in\n    tag_324:\n      mload(0x40)\n      dup1\n      swap2\n      sub\n      swap1\n      log4\n        /* \"@openzeppelin/contracts/token/ERC1155/ERC1155.sol\":6152:6337  {... */\n      pop\n      pop\n        /* \"@openzeppelin/contracts/token/ERC1155/ERC1155.sol\":6131:6419  if (ids.length == 1) {... */\n      jump(tag_325)\n    tag_321:\n        /* \"@openzeppelin/contracts/token/ERC1155/ERC1155.sol\":6392:6394  to */\n      dup4\n        /* \"@openzeppelin/contracts/token/ERC1155/ERC1155.sol\":6362:6408  TransferBatch(operator, from, to, ids, values) */\n      0xffffffffffffffffffffffffffffffffffffffff\n      and\n        /* \"@openzeppelin/contracts/token/ERC1155/ERC1155.sol\":6386:6390  from */\n      dup6\n        /* \"@openzeppelin/contracts/token/ERC1155/ERC1155.sol\":6362:6408  TransferBatch(operator, from, to, ids, values) */\n      0xffffffffffffffffffffffffffffffffffffffff\n      and\n        /* \"@openzeppelin/contracts/token/ERC1155/ERC1155.sol\":6376:6384  operator */\n      dup3\n        /* \"@openzeppelin/contracts/token/ERC1155/ERC1155.sol\":6362:6408  TransferBatch(operator, from, to, ids, values) */\n      0xffffffffffffffffffffffffffffffffffffffff\n      and\n      0x4a39dc06d4c0dbc64b70af90fd698a233a518aa5d07e595d983b8c0526c8f7fb\n        /* \"@openzeppelin/contracts/token/ERC1155/ERC1155.sol\":6396:6399  ids */\n      dup7\n        /* \"@openzeppelin/contracts/token/ERC1155/ERC1155.sol\":6401:6407  values */\n      dup7\n        /* \"@openzeppelin/contracts/token/ERC1155/ERC1155.sol\":6362:6408  TransferBatch(operator, from, to, ids, values) */\n      mload(0x40)\n      tag_326\n      swap3\n      swap2\n      swap1\n      tag_327\n      jump\t// in\n    tag_326:\n      mload(0x40)\n      dup1\n      swap2\n      sub\n      swap1\n      log4\n        /* \"@openzeppelin/contracts/token/ERC1155/ERC1155.sol\":6131:6419  if (ids.length == 1) {... */\n    tag_325:\n        /* \"@openzeppelin/contracts/token/ERC1155/ERC1155.sol\":5251:6425  {... */\n      pop\n        /* \"@openzeppelin/contracts/token/ERC1155/ERC1155.sol\":5144:6425  function _update(address from, address to, uint256[] memory ids, uint256[] memory values) internal virtual {... */\n      pop\n      pop\n      pop\n      pop\n      jump\t// out\n        /* \"@openzeppelin/contracts/token/ERC1155/ERC1155.sol\":13761:14735  function _doSafeTransferAcceptanceCheck(... */\n    tag_299:\n        /* \"@openzeppelin/contracts/token/ERC1155/ERC1155.sol\":13984:13985  0 */\n      0x00\n        /* \"@openzeppelin/contracts/token/ERC1155/ERC1155.sol\":13967:13969  to */\n      dup5\n        /* \"@openzeppelin/contracts/token/ERC1155/ERC1155.sol\":13967:13981  to.code.length */\n      0xffffffffffffffffffffffffffffffffffffffff\n      and\n      extcodesize\n        /* \"@openzeppelin/contracts/token/ERC1155/ERC1155.sol\":13967:13985  to.code.length > 0 */\n      gt\n        /* \"@openzeppelin/contracts/token/ERC1155/ERC1155.sol\":13963:14729  if (to.code.length > 0) {... */\n      iszero\n      tag_329\n      jumpi\n        /* \"@openzeppelin/contracts/token/ERC1155/ERC1155.sol\":14022:14024  to */\n      dup4\n        /* \"@openzeppelin/contracts/token/ERC1155/ERC1155.sol\":14005:14043  IERC1155Receiver(to).onERC1155Received */\n      0xffffffffffffffffffffffffffffffffffffffff\n      and\n      0xf23a6e61\n        /* \"@openzeppelin/contracts/token/ERC1155/ERC1155.sol\":14044:14052  operator */\n      dup8\n        /* \"@openzeppelin/contracts/token/ERC1155/ERC1155.sol\":14054:14058  from */\n      dup8\n        /* \"@openzeppelin/contracts/token/ERC1155/ERC1155.sol\":14060:14062  id */\n      dup7\n        /* \"@openzeppelin/contracts/token/ERC1155/ERC1155.sol\":14064:14069  value */\n      dup7\n        /* \"@openzeppelin/contracts/token/ERC1155/ERC1155.sol\":14071:14075  data */\n      dup7\n        /* \"@openzeppelin/contracts/token/ERC1155/ERC1155.sol\":14005:14076  IERC1155Receiver(to).onERC1155Received(operator, from, id, value, data) */\n      mload(0x40)\n      dup7\n      0xffffffff\n      and\n      0xe0\n      shl\n      dup2\n      mstore\n      0x04\n      add\n      tag_330\n      swap6\n      swap5\n      swap4\n      swap3\n      swap2\n      swap1\n      tag_331\n      jump\t// in\n    tag_330:\n      0x20\n      mload(0x40)\n      dup1\n      dup4\n      sub\n      dup2\n      0x00\n      dup8\n      gas\n      call\n      swap3\n      pop\n      pop\n      pop\n      dup1\n      iszero\n      tag_332\n      jumpi\n      pop\n      mload(0x40)\n      returndatasize\n      not(0x1f)\n      0x1f\n      dup3\n      add\n      and\n      dup3\n      add\n      dup1\n      0x40\n      mstore\n      pop\n      dup2\n      add\n      swap1\n      tag_333\n      swap2\n      swap1\n      tag_334\n      jump\t// in\n    tag_333:\n      0x01\n    tag_332:\n        /* \"@openzeppelin/contracts/token/ERC1155/ERC1155.sol\":14001:14719  try IERC1155Receiver(to).onERC1155Received(operator, from, id, value, data) returns (bytes4 response) {... */\n      tag_335\n      jumpi\n      returndatasize\n      dup1\n      0x00\n      dup2\n      eq\n      tag_340\n      jumpi\n      mload(0x40)\n      swap2\n      pop\n      and(add(returndatasize, 0x3f), not(0x1f))\n      dup3\n      add\n      0x40\n      mstore\n      returndatasize\n      dup3\n      mstore\n      returndatasize\n      0x00\n      0x20\n      dup5\n      add\n      returndatacopy\n      jump(tag_339)\n    tag_340:\n      0x60\n      swap2\n      pop\n    tag_339:\n      pop\n        /* \"@openzeppelin/contracts/token/ERC1155/ERC1155.sol\":14377:14378  0 */\n      0x00\n        /* \"@openzeppelin/contracts/token/ERC1155/ERC1155.sol\":14360:14366  reason */\n      dup2\n        /* \"@openzeppelin/contracts/token/ERC1155/ERC1155.sol\":14360:14373  reason.length */\n      mload\n        /* \"@openzeppelin/contracts/token/ERC1155/ERC1155.sol\":14360:14378  reason.length == 0 */\n      sub\n        /* \"@openzeppelin/contracts/token/ERC1155/ERC1155.sol\":14356:14705  if (reason.length == 0) {... */\n      tag_341\n      jumpi\n        /* \"@openzeppelin/contracts/token/ERC1155/ERC1155.sol\":14487:14489  to */\n      dup5\n        /* \"@openzeppelin/contracts/token/ERC1155/ERC1155.sol\":14464:14490  ERC1155InvalidReceiver(to) */\n      mload(0x40)\n      0x57f447ce00000000000000000000000000000000000000000000000000000000\n      dup2\n      mstore\n      0x04\n      add\n      tag_342\n      swap2\n      swap1\n      tag_72\n      jump\t// in\n    tag_342:\n      mload(0x40)\n      dup1\n      swap2\n      sub\n      swap1\n      revert\n        /* \"@openzeppelin/contracts/token/ERC1155/ERC1155.sol\":14356:14705  if (reason.length == 0) {... */\n    tag_341:\n        /* \"@openzeppelin/contracts/token/ERC1155/ERC1155.sol\":14657:14663  reason */\n      dup1\n        /* \"@openzeppelin/contracts/token/ERC1155/ERC1155.sol\":14651:14664  mload(reason) */\n      mload\n        /* \"@openzeppelin/contracts/token/ERC1155/ERC1155.sol\":14642:14648  reason */\n      dup2\n        /* \"@openzeppelin/contracts/token/ERC1155/ERC1155.sol\":14638:14640  32 */\n      0x20\n        /* \"@openzeppelin/contracts/token/ERC1155/ERC1155.sol\":14634:14649  add(32, reason) */\n      add\n        /* \"@openzeppelin/contracts/token/ERC1155/ERC1155.sol\":14627:14665  revert(add(32, reason), mload(reason)) */\n      revert\n        /* \"@openzeppelin/contracts/token/ERC1155/ERC1155.sol\":14001:14719  try IERC1155Receiver(to).onERC1155Received(operator, from, id, value, data) returns (bytes4 response) {... */\n    tag_335:\n        /* \"@openzeppelin/contracts/token/ERC1155/ERC1155.sol\":14137:14180  IERC1155Receiver.onERC1155Received.selector */\n      shl(0xe0, 0xf23a6e61)\n        /* \"@openzeppelin/contracts/token/ERC1155/ERC1155.sol\":14125:14180  response != IERC1155Receiver.onERC1155Received.selector */\n      not(0xffffffffffffffffffffffffffffffffffffffffffffffffffffffff)\n      and\n        /* \"@openzeppelin/contracts/token/ERC1155/ERC1155.sol\":14125:14133  response */\n      dup2\n        /* \"@openzeppelin/contracts/token/ERC1155/ERC1155.sol\":14125:14180  response != IERC1155Receiver.onERC1155Received.selector */\n      not(0xffffffffffffffffffffffffffffffffffffffffffffffffffffffff)\n      and\n      eq\n        /* \"@openzeppelin/contracts/token/ERC1155/ERC1155.sol\":14121:14295  if (response != IERC1155Receiver.onERC1155Received.selector) {... */\n      tag_345\n      jumpi\n        /* \"@openzeppelin/contracts/token/ERC1155/ERC1155.sol\":14273:14275  to */\n      dup5\n        /* \"@openzeppelin/contracts/token/ERC1155/ERC1155.sol\":14250:14276  ERC1155InvalidReceiver(to) */\n      mload(0x40)\n      0x57f447ce00000000000000000000000000000000000000000000000000000000\n      dup2\n      mstore\n      0x04\n      add\n      tag_346\n      swap2\n      swap1\n      tag_72\n      jump\t// in\n    tag_346:\n      mload(0x40)\n      dup1\n      swap2\n      sub\n      swap1\n      revert\n        /* \"@openzeppelin/contracts/token/ERC1155/ERC1155.sol\":14121:14295  if (response != IERC1155Receiver.onERC1155Received.selector) {... */\n    tag_345:\n        /* \"@openzeppelin/contracts/token/ERC1155/ERC1155.sol\":14077:14309  returns (bytes4 response) {... */\n      pop\n        /* \"@openzeppelin/contracts/token/ERC1155/ERC1155.sol\":13963:14729  if (to.code.length > 0) {... */\n    tag_329:\n        /* \"@openzeppelin/contracts/token/ERC1155/ERC1155.sol\":13761:14735  function _doSafeTransferAcceptanceCheck(... */\n      pop\n      pop\n      pop\n      pop\n      pop\n      pop\n      jump\t// out\n        /* \"@openzeppelin/contracts/token/ERC1155/ERC1155.sol\":14923:15964  function _doSafeBatchTransferAcceptanceCheck(... */\n    tag_302:\n        /* \"@openzeppelin/contracts/token/ERC1155/ERC1155.sol\":15171:15172  0 */\n      0x00\n        /* \"@openzeppelin/contracts/token/ERC1155/ERC1155.sol\":15154:15156  to */\n      dup5\n        /* \"@openzeppelin/contracts/token/ERC1155/ERC1155.sol\":15154:15168  to.code.length */\n      0xffffffffffffffffffffffffffffffffffffffff\n      and\n      extcodesize\n        /* \"@openzeppelin/contracts/token/ERC1155/ERC1155.sol\":15154:15172  to.code.length > 0 */\n      gt\n        /* \"@openzeppelin/contracts/token/ERC1155/ERC1155.sol\":15150:15958  if (to.code.length > 0) {... */\n      iszero\n      tag_348\n      jumpi\n        /* \"@openzeppelin/contracts/token/ERC1155/ERC1155.sol\":15209:15211  to */\n      dup4\n        /* \"@openzeppelin/contracts/token/ERC1155/ERC1155.sol\":15192:15235  IERC1155Receiver(to).onERC1155BatchReceived */\n      0xffffffffffffffffffffffffffffffffffffffff\n      and\n      0xbc197c81\n        /* \"@openzeppelin/contracts/token/ERC1155/ERC1155.sol\":15236:15244  operator */\n      dup8\n        /* \"@openzeppelin/contracts/token/ERC1155/ERC1155.sol\":15246:15250  from */\n      dup8\n        /* \"@openzeppelin/contracts/token/ERC1155/ERC1155.sol\":15252:15255  ids */\n      dup7\n        /* \"@openzeppelin/contracts/token/ERC1155/ERC1155.sol\":15257:15263  values */\n      dup7\n        /* \"@openzeppelin/contracts/token/ERC1155/ERC1155.sol\":15265:15269  data */\n      dup7\n        /* \"@openzeppelin/contracts/token/ERC1155/ERC1155.sol\":15192:15270  IERC1155Receiver(to).onERC1155BatchReceived(operator, from, ids, values, data) */\n      mload(0x40)\n      dup7\n      0xffffffff\n      and\n      0xe0\n      shl\n      dup2\n      mstore\n      0x04\n      add\n      tag_349\n      swap6\n      swap5\n      swap4\n      swap3\n      swap2\n      swap1\n      tag_350\n      jump\t// in\n    tag_349:\n      0x20\n      mload(0x40)\n      dup1\n      dup4\n      sub\n      dup2\n      0x00\n      dup8\n      gas\n      call\n      swap3\n      pop\n      pop\n      pop\n      dup1\n      iszero\n      tag_351\n      jumpi\n      pop\n      mload(0x40)\n      returndatasize\n      not(0x1f)\n      0x1f\n      dup3\n      add\n      and\n      dup3\n      add\n      dup1\n      0x40\n      mstore\n      pop\n      dup2\n      add\n      swap1\n      tag_352\n      swap2\n      swap1\n      tag_334\n      jump\t// in\n    tag_352:\n      0x01\n    tag_351:\n        /* \"@openzeppelin/contracts/token/ERC1155/ERC1155.sol\":15188:15948  try IERC1155Receiver(to).onERC1155BatchReceived(operator, from, ids, values, data) returns (... */\n      tag_353\n      jumpi\n      returndatasize\n      dup1\n      0x00\n      dup2\n      eq\n      tag_358\n      jumpi\n      mload(0x40)\n      swap2\n      pop\n      and(add(returndatasize, 0x3f), not(0x1f))\n      dup3\n      add\n      0x40\n      mstore\n      returndatasize\n      dup3\n      mstore\n      returndatasize\n      0x00\n      0x20\n      dup5\n      add\n      returndatacopy\n      jump(tag_357)\n    tag_358:\n      0x60\n      swap2\n      pop\n    tag_357:\n      pop\n        /* \"@openzeppelin/contracts/token/ERC1155/ERC1155.sol\":15606:15607  0 */\n      0x00\n        /* \"@openzeppelin/contracts/token/ERC1155/ERC1155.sol\":15589:15595  reason */\n      dup2\n        /* \"@openzeppelin/contracts/token/ERC1155/ERC1155.sol\":15589:15602  reason.length */\n      mload\n        /* \"@openzeppelin/contracts/token/ERC1155/ERC1155.sol\":15589:15607  reason.length == 0 */\n      sub\n        /* \"@openzeppelin/contracts/token/ERC1155/ERC1155.sol\":15585:15934  if (reason.length == 0) {... */\n      tag_359\n      jumpi\n        /* \"@openzeppelin/contracts/token/ERC1155/ERC1155.sol\":15716:15718  to */\n      dup5\n        /* \"@openzeppelin/contracts/token/ERC1155/ERC1155.sol\":15693:15719  ERC1155InvalidReceiver(to) */\n      mload(0x40)\n      0x57f447ce00000000000000000000000000000000000000000000000000000000\n      dup2\n      mstore\n      0x04\n      add\n      tag_360\n      swap2\n      swap1\n      tag_72\n      jump\t// in\n    tag_360:\n      mload(0x40)\n      dup1\n      swap2\n      sub\n      swap1\n      revert\n        /* \"@openzeppelin/contracts/token/ERC1155/ERC1155.sol\":15585:15934  if (reason.length == 0) {... */\n    tag_359:\n        /* \"@openzeppelin/contracts/token/ERC1155/ERC1155.sol\":15886:15892  reason */\n      dup1\n        /* \"@openzeppelin/contracts/token/ERC1155/ERC1155.sol\":15880:15893  mload(reason) */\n      mload\n        /* \"@openzeppelin/contracts/token/ERC1155/ERC1155.sol\":15871:15877  reason */\n      dup2\n        /* \"@openzeppelin/contracts/token/ERC1155/ERC1155.sol\":15867:15869  32 */\n      0x20\n        /* \"@openzeppelin/contracts/token/ERC1155/ERC1155.sol\":15863:15878  add(32, reason) */\n      add\n        /* \"@openzeppelin/contracts/token/ERC1155/ERC1155.sol\":15856:15894  revert(add(32, reason), mload(reason)) */\n      revert\n        /* \"@openzeppelin/contracts/token/ERC1155/ERC1155.sol\":15188:15948  try IERC1155Receiver(to).onERC1155BatchReceived(operator, from, ids, values, data) returns (... */\n    tag_353:\n        /* \"@openzeppelin/contracts/token/ERC1155/ERC1155.sol\":15361:15409  IERC1155Receiver.onERC1155BatchReceived.selector */\n      shl(0xe0, 0xbc197c81)\n        /* \"@openzeppelin/contracts/token/ERC1155/ERC1155.sol\":15349:15409  response != IERC1155Receiver.onERC1155BatchReceived.selector */\n      not(0xffffffffffffffffffffffffffffffffffffffffffffffffffffffff)\n      and\n        /* \"@openzeppelin/contracts/token/ERC1155/ERC1155.sol\":15349:15357  response */\n      dup2\n        /* \"@openzeppelin/contracts/token/ERC1155/ERC1155.sol\":15349:15409  response != IERC1155Receiver.onERC1155BatchReceived.selector */\n      not(0xffffffffffffffffffffffffffffffffffffffffffffffffffffffff)\n      and\n      eq\n        /* \"@openzeppelin/contracts/token/ERC1155/ERC1155.sol\":15345:15524  if (response != IERC1155Receiver.onERC1155BatchReceived.selector) {... */\n      tag_363\n      jumpi\n        /* \"@openzeppelin/contracts/token/ERC1155/ERC1155.sol\":15502:15504  to */\n      dup5\n        /* \"@openzeppelin/contracts/token/ERC1155/ERC1155.sol\":15479:15505  ERC1155InvalidReceiver(to) */\n      mload(0x40)\n      0x57f447ce00000000000000000000000000000000000000000000000000000000\n      dup2\n      mstore\n      0x04\n      add\n      tag_364\n      swap2\n      swap1\n      tag_72\n      jump\t// in\n    tag_364:\n      mload(0x40)\n      dup1\n      swap2\n      sub\n      swap1\n      revert\n        /* \"@openzeppelin/contracts/token/ERC1155/ERC1155.sol\":15345:15524  if (response != IERC1155Receiver.onERC1155BatchReceived.selector) {... */\n    tag_363:\n        /* \"@openzeppelin/contracts/token/ERC1155/ERC1155.sol\":15271:15538  returns (... */\n      pop\n        /* \"@openzeppelin/contracts/token/ERC1155/ERC1155.sol\":15150:15958  if (to.code.length > 0) {... */\n    tag_348:\n        /* \"@openzeppelin/contracts/token/ERC1155/ERC1155.sol\":14923:15964  function _doSafeBatchTransferAcceptanceCheck(... */\n      pop\n      pop\n      pop\n      pop\n      pop\n      pop\n      jump\t// out\n        /* \"#utility.yul\":7:82   */\n    tag_365:\n        /* \"#utility.yul\":40:46   */\n      0x00\n        /* \"#utility.yul\":73:75   */\n      0x40\n        /* \"#utility.yul\":67:76   */\n      mload\n        /* \"#utility.yul\":57:76   */\n      swap1\n      pop\n        /* \"#utility.yul\":7:82   */\n      swap1\n      jump\t// out\n        /* \"#utility.yul\":88:205   */\n    tag_366:\n        /* \"#utility.yul\":197:198   */\n      0x00\n        /* \"#utility.yul\":194:195   */\n      dup1\n        /* \"#utility.yul\":187:199   */\n      revert\n        /* \"#utility.yul\":211:328   */\n    tag_367:\n        /* \"#utility.yul\":320:321   */\n      0x00\n        /* \"#utility.yul\":317:318   */\n      dup1\n        /* \"#utility.yul\":310:322   */\n      revert\n        /* \"#utility.yul\":334:460   */\n    tag_368:\n        /* \"#utility.yul\":371:378   */\n      0x00\n        /* \"#utility.yul\":411:453   */\n      0xffffffffffffffffffffffffffffffffffffffff\n        /* \"#utility.yul\":404:409   */\n      dup3\n        /* \"#utility.yul\":400:454   */\n      and\n        /* \"#utility.yul\":389:454   */\n      swap1\n      pop\n        /* \"#utility.yul\":334:460   */\n      swap2\n      swap1\n      pop\n      jump\t// out\n        /* \"#utility.yul\":466:562   */\n    tag_369:\n        /* \"#utility.yul\":503:510   */\n      0x00\n        /* \"#utility.yul\":532:556   */\n      tag_453\n        /* \"#utility.yul\":550:555   */\n      dup3\n        /* \"#utility.yul\":532:556   */\n      tag_368\n      jump\t// in\n    tag_453:\n        /* \"#utility.yul\":521:556   */\n      swap1\n      pop\n        /* \"#utility.yul\":466:562   */\n      swap2\n      swap1\n      pop\n      jump\t// out\n        /* \"#utility.yul\":568:690   */\n    tag_370:\n        /* \"#utility.yul\":641:665   */\n      tag_455\n        /* \"#utility.yul\":659:664   */\n      dup2\n        /* \"#utility.yul\":641:665   */\n      tag_369\n      jump\t// in\n    tag_455:\n        /* \"#utility.yul\":634:639   */\n      dup2\n        /* \"#utility.yul\":631:666   */\n      eq\n        /* \"#utility.yul\":621:684   */\n      tag_456\n      jumpi\n        /* \"#utility.yul\":680:681   */\n      0x00\n        /* \"#utility.yul\":677:678   */\n      dup1\n        /* \"#utility.yul\":670:682   */\n      revert\n        /* \"#utility.yul\":621:684   */\n    tag_456:\n        /* \"#utility.yul\":568:690   */\n      pop\n      jump\t// out\n        /* \"#utility.yul\":696:835   */\n    tag_371:\n        /* \"#utility.yul\":742:747   */\n      0x00\n        /* \"#utility.yul\":780:786   */\n      dup2\n        /* \"#utility.yul\":767:787   */\n      calldataload\n        /* \"#utility.yul\":758:787   */\n      swap1\n      pop\n        /* \"#utility.yul\":796:829   */\n      tag_458\n        /* \"#utility.yul\":823:828   */\n      dup2\n        /* \"#utility.yul\":796:829   */\n      tag_370\n      jump\t// in\n    tag_458:\n        /* \"#utility.yul\":696:835   */\n      swap3\n      swap2\n      pop\n      pop\n      jump\t// out\n        /* \"#utility.yul\":841:918   */\n    tag_372:\n        /* \"#utility.yul\":878:885   */\n      0x00\n        /* \"#utility.yul\":907:912   */\n      dup2\n        /* \"#utility.yul\":896:912   */\n      swap1\n      pop\n        /* \"#utility.yul\":841:918   */\n      swap2\n      swap1\n      pop\n      jump\t// out\n        /* \"#utility.yul\":924:1046   */\n    tag_373:\n        /* \"#utility.yul\":997:1021   */\n      tag_461\n        /* \"#utility.yul\":1015:1020   */\n      dup2\n        /* \"#utility.yul\":997:1021   */\n      tag_372\n      jump\t// in\n    tag_461:\n        /* \"#utility.yul\":990:995   */\n      dup2\n        /* \"#utility.yul\":987:1022   */\n      eq\n        /* \"#utility.yul\":977:1040   */\n      tag_462\n      jumpi\n        /* \"#utility.yul\":1036:1037   */\n      0x00\n        /* \"#utility.yul\":1033:1034   */\n      dup1\n        /* \"#utility.yul\":1026:1038   */\n      revert\n        /* \"#utility.yul\":977:1040   */\n    tag_462:\n        /* \"#utility.yul\":924:1046   */\n      pop\n      jump\t// out\n        /* \"#utility.yul\":1052:1191   */\n    tag_374:\n        /* \"#utility.yul\":1098:1103   */\n      0x00\n        /* \"#utility.yul\":1136:1142   */\n      dup2\n        /* \"#utility.yul\":1123:1143   */\n      calldataload\n        /* \"#utility.yul\":1114:1143   */\n      swap1\n      pop\n        /* \"#utility.yul\":1152:1185   */\n      tag_464\n        /* \"#utility.yul\":1179:1184   */\n      dup2\n        /* \"#utility.yul\":1152:1185   */\n      tag_373\n      jump\t// in\n    tag_464:\n        /* \"#utility.yul\":1052:1191   */\n      swap3\n      swap2\n      pop\n      pop\n      jump\t// out\n        /* \"#utility.yul\":1197:1671   */\n    tag_24:\n        /* \"#utility.yul\":1265:1271   */\n      0x00\n        /* \"#utility.yul\":1273:1279   */\n      dup1\n        /* \"#utility.yul\":1322:1324   */\n      0x40\n        /* \"#utility.yul\":1310:1319   */\n      dup4\n        /* \"#utility.yul\":1301:1308   */\n      dup6\n        /* \"#utility.yul\":1297:1320   */\n      sub\n        /* \"#utility.yul\":1293:1325   */\n      slt\n        /* \"#utility.yul\":1290:1409   */\n      iszero\n      tag_466\n      jumpi\n        /* \"#utility.yul\":1328:1407   */\n      tag_467\n      tag_366\n      jump\t// in\n    tag_467:\n        /* \"#utility.yul\":1290:1409   */\n    tag_466:\n        /* \"#utility.yul\":1448:1449   */\n      0x00\n        /* \"#utility.yul\":1473:1526   */\n      tag_468\n        /* \"#utility.yul\":1518:1525   */\n      dup6\n        /* \"#utility.yul\":1509:1515   */\n      dup3\n        /* \"#utility.yul\":1498:1507   */\n      dup7\n        /* \"#utility.yul\":1494:1516   */\n      add\n        /* \"#utility.yul\":1473:1526   */\n      tag_371\n      jump\t// in\n    tag_468:\n        /* \"#utility.yul\":1463:1526   */\n      swap3\n      pop\n        /* \"#utility.yul\":1419:1536   */\n      pop\n        /* \"#utility.yul\":1575:1577   */\n      0x20\n        /* \"#utility.yul\":1601:1654   */\n      tag_469\n        /* \"#utility.yul\":1646:1653   */\n      dup6\n        /* \"#utility.yul\":1637:1643   */\n      dup3\n        /* \"#utility.yul\":1626:1635   */\n      dup7\n        /* \"#utility.yul\":1622:1644   */\n      add\n        /* \"#utility.yul\":1601:1654   */\n      tag_374\n      jump\t// in\n    tag_469:\n        /* \"#utility.yul\":1591:1654   */\n      swap2\n      pop\n        /* \"#utility.yul\":1546:1664   */\n      pop\n        /* \"#utility.yul\":1197:1671   */\n      swap3\n      pop\n      swap3\n      swap1\n      pop\n      jump\t// out\n        /* \"#utility.yul\":1677:1795   */\n    tag_375:\n        /* \"#utility.yul\":1764:1788   */\n      tag_471\n        /* \"#utility.yul\":1782:1787   */\n      dup2\n        /* \"#utility.yul\":1764:1788   */\n      tag_372\n      jump\t// in\n    tag_471:\n        /* \"#utility.yul\":1759:1762   */\n      dup3\n        /* \"#utility.yul\":1752:1789   */\n      mstore\n        /* \"#utility.yul\":1677:1795   */\n      pop\n      pop\n      jump\t// out\n        /* \"#utility.yul\":1801:2023   */\n    tag_27:\n        /* \"#utility.yul\":1894:1898   */\n      0x00\n        /* \"#utility.yul\":1932:1934   */\n      0x20\n        /* \"#utility.yul\":1921:1930   */\n      dup3\n        /* \"#utility.yul\":1917:1935   */\n      add\n        /* \"#utility.yul\":1909:1935   */\n      swap1\n      pop\n        /* \"#utility.yul\":1945:2016   */\n      tag_473\n        /* \"#utility.yul\":2013:2014   */\n      0x00\n        /* \"#utility.yul\":2002:2011   */\n      dup4\n        /* \"#utility.yul\":1998:2015   */\n      add\n        /* \"#utility.yul\":1989:1995   */\n      dup5\n        /* \"#utility.yul\":1945:2016   */\n      tag_375\n      jump\t// in\n    tag_473:\n        /* \"#utility.yul\":1801:2023   */\n      swap3\n      swap2\n      pop\n      pop\n      jump\t// out\n        /* \"#utility.yul\":2029:2178   */\n    tag_376:\n        /* \"#utility.yul\":2065:2072   */\n      0x00\n        /* \"#utility.yul\":2105:2171   */\n      0xffffffff00000000000000000000000000000000000000000000000000000000\n        /* \"#utility.yul\":2098:2103   */\n      dup3\n        /* \"#utility.yul\":2094:2172   */\n      and\n        /* \"#utility.yul\":2083:2172   */\n      swap1\n      pop\n        /* \"#utility.yul\":2029:2178   */\n      swap2\n      swap1\n      pop\n      jump\t// out\n        /* \"#utility.yul\":2184:2304   */\n    tag_377:\n        /* \"#utility.yul\":2256:2279   */\n      tag_476\n        /* \"#utility.yul\":2273:2278   */\n      dup2\n        /* \"#utility.yul\":2256:2279   */\n      tag_376\n      jump\t// in\n    tag_476:\n        /* \"#utility.yul\":2249:2254   */\n      dup2\n        /* \"#utility.yul\":2246:2280   */\n      eq\n        /* \"#utility.yul\":2236:2298   */\n      tag_477\n      jumpi\n        /* \"#utility.yul\":2294:2295   */\n      0x00\n        /* \"#utility.yul\":2291:2292   */\n      dup1\n        /* \"#utility.yul\":2284:2296   */\n      revert\n        /* \"#utility.yul\":2236:2298   */\n    tag_477:\n        /* \"#utility.yul\":2184:2304   */\n      pop\n      jump\t// out\n        /* \"#utility.yul\":2310:2447   */\n    tag_378:\n        /* \"#utility.yul\":2355:2360   */\n      0x00\n        /* \"#utility.yul\":2393:2399   */\n      dup2\n        /* \"#utility.yul\":2380:2400   */\n      calldataload\n        /* \"#utility.yul\":2371:2400   */\n      swap1\n      pop\n        /* \"#utility.yul\":2409:2441   */\n      tag_479\n        /* \"#utility.yul\":2435:2440   */\n      dup2\n        /* \"#utility.yul\":2409:2441   */\n      tag_377\n      jump\t// in\n    tag_479:\n        /* \"#utility.yul\":2310:2447   */\n      swap3\n      swap2\n      pop\n      pop\n      jump\t// out\n        /* \"#utility.yul\":2453:2780   */\n    tag_31:\n        /* \"#utility.yul\":2511:2517   */\n      0x00\n        /* \"#utility.yul\":2560:2562   */\n      0x20\n        /* \"#utility.yul\":2548:2557   */\n      dup3\n        /* \"#utility.yul\":2539:2546   */\n      dup5\n        /* \"#utility.yul\":2535:2558   */\n      sub\n        /* \"#utility.yul\":2531:2563   */\n      slt\n        /* \"#utility.yul\":2528:2647   */\n      iszero\n      tag_481\n      jumpi\n        /* \"#utility.yul\":2566:2645   */\n      tag_482\n      tag_366\n      jump\t// in\n    tag_482:\n        /* \"#utility.yul\":2528:2647   */\n    tag_481:\n        /* \"#utility.yul\":2686:2687   */\n      0x00\n        /* \"#utility.yul\":2711:2763   */\n      tag_483\n        /* \"#utility.yul\":2755:2762   */\n      dup5\n        /* \"#utility.yul\":2746:2752   */\n      dup3\n        /* \"#utility.yul\":2735:2744   */\n      dup6\n        /* \"#utility.yul\":2731:2753   */\n      add\n        /* \"#utility.yul\":2711:2763   */\n      tag_378\n      jump\t// in\n    tag_483:\n        /* \"#utility.yul\":2701:2763   */\n      swap2\n      pop\n        /* \"#utility.yul\":2657:2773   */\n      pop\n        /* \"#utility.yul\":2453:2780   */\n      swap3\n      swap2\n      pop\n      pop\n      jump\t// out\n        /* \"#utility.yul\":2786:2876   */\n    tag_379:\n        /* \"#utility.yul\":2820:2827   */\n      0x00\n        /* \"#utility.yul\":2863:2868   */\n      dup2\n        /* \"#utility.yul\":2856:2869   */\n      iszero\n        /* \"#utility.yul\":2849:2870   */\n      iszero\n        /* \"#utility.yul\":2838:2870   */\n      swap1\n      pop\n        /* \"#utility.yul\":2786:2876   */\n      swap2\n      swap1\n      pop\n      jump\t// out\n        /* \"#utility.yul\":2882:2991   */\n    tag_380:\n        /* \"#utility.yul\":2963:2984   */\n      tag_486\n        /* \"#utility.yul\":2978:2983   */\n      dup2\n        /* \"#utility.yul\":2963:2984   */\n      tag_379\n      jump\t// in\n    tag_486:\n        /* \"#utility.yul\":2958:2961   */\n      dup3\n        /* \"#utility.yul\":2951:2985   */\n      mstore\n        /* \"#utility.yul\":2882:2991   */\n      pop\n      pop\n      jump\t// out\n        /* \"#utility.yul\":2997:3207   */\n    tag_34:\n        /* \"#utility.yul\":3084:3088   */\n      0x00\n        /* \"#utility.yul\":3122:3124   */\n      0x20\n        /* \"#utility.yul\":3111:3120   */\n      dup3\n        /* \"#utility.yul\":3107:3125   */\n      add\n        /* \"#utility.yul\":3099:3125   */\n      swap1\n      pop\n        /* \"#utility.yul\":3135:3200   */\n      tag_488\n        /* \"#utility.yul\":3197:3198   */\n      0x00\n        /* \"#utility.yul\":3186:3195   */\n      dup4\n        /* \"#utility.yul\":3182:3199   */\n      add\n        /* \"#utility.yul\":3173:3179   */\n      dup5\n        /* \"#utility.yul\":3135:3200   */\n      tag_380\n      jump\t// in\n    tag_488:\n        /* \"#utility.yul\":2997:3207   */\n      swap3\n      swap2\n      pop\n      pop\n      jump\t// out\n        /* \"#utility.yul\":3213:3542   */\n    tag_38:\n        /* \"#utility.yul\":3272:3278   */\n      0x00\n        /* \"#utility.yul\":3321:3323   */\n      0x20\n        /* \"#utility.yul\":3309:3318   */\n      dup3\n        /* \"#utility.yul\":3300:3307   */\n      dup5\n        /* \"#utility.yul\":3296:3319   */\n      sub\n        /* \"#utility.yul\":3292:3324   */\n      slt\n        /* \"#utility.yul\":3289:3408   */\n      iszero\n      tag_490\n      jumpi\n        /* \"#utility.yul\":3327:3406   */\n      tag_491\n      tag_366\n      jump\t// in\n    tag_491:\n        /* \"#utility.yul\":3289:3408   */\n    tag_490:\n        /* \"#utility.yul\":3447:3448   */\n      0x00\n        /* \"#utility.yul\":3472:3525   */\n      tag_492\n        /* \"#utility.yul\":3517:3524   */\n      dup5\n        /* \"#utility.yul\":3508:3514   */\n      dup3\n        /* \"#utility.yul\":3497:3506   */\n      dup6\n        /* \"#utility.yul\":3493:3515   */\n      add\n        /* \"#utility.yul\":3472:3525   */\n      tag_374\n      jump\t// in\n    tag_492:\n        /* \"#utility.yul\":3462:3525   */\n      swap2\n      pop\n        /* \"#utility.yul\":3418:3535   */\n      pop\n        /* \"#utility.yul\":3213:3542   */\n      swap3\n      swap2\n      pop\n      pop\n      jump\t// out\n        /* \"#utility.yul\":3548:3647   */\n    tag_381:\n        /* \"#utility.yul\":3600:3606   */\n      0x00\n        /* \"#utility.yul\":3634:3639   */\n      dup2\n        /* \"#utility.yul\":3628:3640   */\n      mload\n        /* \"#utility.yul\":3618:3640   */\n      swap1\n      pop\n        /* \"#utility.yul\":3548:3647   */\n      swap2\n      swap1\n      pop\n      jump\t// out\n        /* \"#utility.yul\":3653:3822   */\n    tag_382:\n        /* \"#utility.yul\":3737:3748   */\n      0x00\n        /* \"#utility.yul\":3771:3777   */\n      dup3\n        /* \"#utility.yul\":3766:3769   */\n      dup3\n        /* \"#utility.yul\":3759:3778   */\n      mstore\n        /* \"#utility.yul\":3811:3815   */\n      0x20\n        /* \"#utility.yul\":3806:3809   */\n      dup3\n        /* \"#utility.yul\":3802:3816   */\n      add\n        /* \"#utility.yul\":3787:3816   */\n      swap1\n      pop\n        /* \"#utility.yul\":3653:3822   */\n      swap3\n      swap2\n      pop\n      pop\n      jump\t// out\n        /* \"#utility.yul\":3828:4074   */\n    tag_383:\n        /* \"#utility.yul\":3909:3910   */\n      0x00\n        /* \"#utility.yul\":3919:4032   */\n    tag_496:\n        /* \"#utility.yul\":3933:3939   */\n      dup4\n        /* \"#utility.yul\":3930:3931   */\n      dup2\n        /* \"#utility.yul\":3927:3940   */\n      lt\n        /* \"#utility.yul\":3919:4032   */\n      iszero\n      tag_498\n      jumpi\n        /* \"#utility.yul\":4018:4019   */\n      dup1\n        /* \"#utility.yul\":4013:4016   */\n      dup3\n        /* \"#utility.yul\":4009:4020   */\n      add\n        /* \"#utility.yul\":4003:4021   */\n      mload\n        /* \"#utility.yul\":3999:4000   */\n      dup2\n        /* \"#utility.yul\":3994:3997   */\n      dup5\n        /* \"#utility.yul\":3990:4001   */\n      add\n        /* \"#utility.yul\":3983:4022   */\n      mstore\n        /* \"#utility.yul\":3955:3957   */\n      0x20\n        /* \"#utility.yul\":3952:3953   */\n      dup2\n        /* \"#utility.yul\":3948:3958   */\n      add\n        /* \"#utility.yul\":3943:3958   */\n      swap1\n      pop\n        /* \"#utility.yul\":3919:4032   */\n      jump(tag_496)\n    tag_498:\n        /* \"#utility.yul\":4066:4067   */\n      0x00\n        /* \"#utility.yul\":4057:4063   */\n      dup5\n        /* \"#utility.yul\":4052:4055   */\n      dup5\n        /* \"#utility.yul\":4048:4064   */\n      add\n        /* \"#utility.yul\":4041:4068   */\n      mstore\n        /* \"#utility.yul\":3890:4074   */\n      pop\n        /* \"#utility.yul\":3828:4074   */\n      pop\n      pop\n      pop\n      jump\t// out\n        /* \"#utility.yul\":4080:4182   */\n    tag_384:\n        /* \"#utility.yul\":4121:4127   */\n      0x00\n        /* \"#utility.yul\":4172:4174   */\n      0x1f\n        /* \"#utility.yul\":4168:4175   */\n      not\n        /* \"#utility.yul\":4163:4165   */\n      0x1f\n        /* \"#utility.yul\":4156:4161   */\n      dup4\n        /* \"#utility.yul\":4152:4166   */\n      add\n        /* \"#utility.yul\":4148:4176   */\n      and\n        /* \"#utility.yul\":4138:4176   */\n      swap1\n      pop\n        /* \"#utility.yul\":4080:4182   */\n      swap2\n      swap1\n      pop\n      jump\t// out\n        /* \"#utility.yul\":4188:4565   */\n    tag_385:\n        /* \"#utility.yul\":4276:4279   */\n      0x00\n        /* \"#utility.yul\":4304:4343   */\n      tag_501\n        /* \"#utility.yul\":4337:4342   */\n      dup3\n        /* \"#utility.yul\":4304:4343   */\n      tag_381\n      jump\t// in\n    tag_501:\n        /* \"#utility.yul\":4359:4430   */\n      tag_502\n        /* \"#utility.yul\":4423:4429   */\n      dup2\n        /* \"#utility.yul\":4418:4421   */\n      dup6\n        /* \"#utility.yul\":4359:4430   */\n      tag_382\n      jump\t// in\n    tag_502:\n        /* \"#utility.yul\":4352:4430   */\n      swap4\n      pop\n        /* \"#utility.yul\":4439:4504   */\n      tag_503\n        /* \"#utility.yul\":4497:4503   */\n      dup2\n        /* \"#utility.yul\":4492:4495   */\n      dup6\n        /* \"#utility.yul\":4485:4489   */\n      0x20\n        /* \"#utility.yul\":4478:4483   */\n      dup7\n        /* \"#utility.yul\":4474:4490   */\n      add\n        /* \"#utility.yul\":4439:4504   */\n      tag_383\n      jump\t// in\n    tag_503:\n        /* \"#utility.yul\":4529:4558   */\n      tag_504\n        /* \"#utility.yul\":4551:4557   */\n      dup2\n        /* \"#utility.yul\":4529:4558   */\n      tag_384\n      jump\t// in\n    tag_504:\n        /* \"#utility.yul\":4524:4527   */\n      dup5\n        /* \"#utility.yul\":4520:4559   */\n      add\n        /* \"#utility.yul\":4513:4559   */\n      swap2\n      pop\n        /* \"#utility.yul\":4280:4565   */\n      pop\n        /* \"#utility.yul\":4188:4565   */\n      swap3\n      swap2\n      pop\n      pop\n      jump\t// out\n        /* \"#utility.yul\":4571:4884   */\n    tag_41:\n        /* \"#utility.yul\":4684:4688   */\n      0x00\n        /* \"#utility.yul\":4722:4724   */\n      0x20\n        /* \"#utility.yul\":4711:4720   */\n      dup3\n        /* \"#utility.yul\":4707:4725   */\n      add\n        /* \"#utility.yul\":4699:4725   */\n      swap1\n      pop\n        /* \"#utility.yul\":4771:4780   */\n      dup2\n        /* \"#utility.yul\":4765:4769   */\n      dup2\n        /* \"#utility.yul\":4761:4781   */\n      sub\n        /* \"#utility.yul\":4757:4758   */\n      0x00\n        /* \"#utility.yul\":4746:4755   */\n      dup4\n        /* \"#utility.yul\":4742:4759   */\n      add\n        /* \"#utility.yul\":4735:4782   */\n      mstore\n        /* \"#utility.yul\":4799:4877   */\n      tag_506\n        /* \"#utility.yul\":4872:4876   */\n      dup2\n        /* \"#utility.yul\":4863:4869   */\n      dup5\n        /* \"#utility.yul\":4799:4877   */\n      tag_385\n      jump\t// in\n    tag_506:\n        /* \"#utility.yul\":4791:4877   */\n      swap1\n      pop\n        /* \"#utility.yul\":4571:4884   */\n      swap3\n      swap2\n      pop\n      pop\n      jump\t// out\n        /* \"#utility.yul\":4890:5007   */\n    tag_386:\n        /* \"#utility.yul\":4999:5000   */\n      0x00\n        /* \"#utility.yul\":4996:4997   */\n      dup1\n        /* \"#utility.yul\":4989:5001   */\n      revert\n        /* \"#utility.yul\":5013:5193   */\n    tag_137:\n        /* \"#utility.yul\":5061:5138   */\n      0x4e487b7100000000000000000000000000000000000000000000000000000000\n        /* \"#utility.yul\":5058:5059   */\n      0x00\n        /* \"#utility.yul\":5051:5139   */\n      mstore\n        /* \"#utility.yul\":5158:5162   */\n      0x41\n        /* \"#utility.yul\":5155:5156   */\n      0x04\n        /* \"#utility.yul\":5148:5163   */\n      mstore\n        /* \"#utility.yul\":5182:5186   */\n      0x24\n        /* \"#utility.yul\":5179:5180   */\n      0x00\n        /* \"#utility.yul\":5172:5187   */\n      revert\n        /* \"#utility.yul\":5199:5480   */\n    tag_387:\n        /* \"#utility.yul\":5282:5309   */\n      tag_510\n        /* \"#utility.yul\":5304:5308   */\n      dup3\n        /* \"#utility.yul\":5282:5309   */\n      tag_384\n      jump\t// in\n    tag_510:\n        /* \"#utility.yul\":5274:5280   */\n      dup2\n        /* \"#utility.yul\":5270:5310   */\n      add\n        /* \"#utility.yul\":5412:5418   */\n      dup2\n        /* \"#utility.yul\":5400:5410   */\n      dup2\n        /* \"#utility.yul\":5397:5419   */\n      lt\n        /* \"#utility.yul\":5376:5394   */\n      0xffffffffffffffff\n        /* \"#utility.yul\":5364:5374   */\n      dup3\n        /* \"#utility.yul\":5361:5395   */\n      gt\n        /* \"#utility.yul\":5358:5420   */\n      or\n        /* \"#utility.yul\":5355:5443   */\n      iszero\n      tag_511\n      jumpi\n        /* \"#utility.yul\":5423:5441   */\n      tag_512\n      tag_137\n      jump\t// in\n    tag_512:\n        /* \"#utility.yul\":5355:5443   */\n    tag_511:\n        /* \"#utility.yul\":5463:5473   */\n      dup1\n        /* \"#utility.yul\":5459:5461   */\n      0x40\n        /* \"#utility.yul\":5452:5474   */\n      mstore\n        /* \"#utility.yul\":5242:5480   */\n      pop\n        /* \"#utility.yul\":5199:5480   */\n      pop\n      pop\n      jump\t// out\n        /* \"#utility.yul\":5486:5615   */\n    tag_388:\n        /* \"#utility.yul\":5520:5526   */\n      0x00\n        /* \"#utility.yul\":5547:5567   */\n      tag_514\n      tag_365\n      jump\t// in\n    tag_514:\n        /* \"#utility.yul\":5537:5567   */\n      swap1\n      pop\n        /* \"#utility.yul\":5576:5609   */\n      tag_515\n        /* \"#utility.yul\":5604:5608   */\n      dup3\n        /* \"#utility.yul\":5596:5602   */\n      dup3\n        /* \"#utility.yul\":5576:5609   */\n      tag_387\n      jump\t// in\n    tag_515:\n        /* \"#utility.yul\":5486:5615   */\n      swap2\n      swap1\n      pop\n      jump\t// out\n        /* \"#utility.yul\":5621:5932   */\n    tag_389:\n        /* \"#utility.yul\":5698:5702   */\n      0x00\n        /* \"#utility.yul\":5788:5806   */\n      0xffffffffffffffff\n        /* \"#utility.yul\":5780:5786   */\n      dup3\n        /* \"#utility.yul\":5777:5807   */\n      gt\n        /* \"#utility.yul\":5774:5830   */\n      iszero\n      tag_517\n      jumpi\n        /* \"#utility.yul\":5810:5828   */\n      tag_518\n      tag_137\n      jump\t// in\n    tag_518:\n        /* \"#utility.yul\":5774:5830   */\n    tag_517:\n        /* \"#utility.yul\":5860:5864   */\n      0x20\n        /* \"#utility.yul\":5852:5858   */\n      dup3\n        /* \"#utility.yul\":5848:5865   */\n      mul\n        /* \"#utility.yul\":5840:5865   */\n      swap1\n      pop\n        /* \"#utility.yul\":5920:5924   */\n      0x20\n        /* \"#utility.yul\":5914:5918   */\n      dup2\n        /* \"#utility.yul\":5910:5925   */\n      add\n        /* \"#utility.yul\":5902:5925   */\n      swap1\n      pop\n        /* \"#utility.yul\":5621:5932   */\n      swap2\n      swap1\n      pop\n      jump\t// out\n        /* \"#utility.yul\":5938:6055   */\n    tag_390:\n        /* \"#utility.yul\":6047:6048   */\n      0x00\n        /* \"#utility.yul\":6044:6045   */\n      dup1\n        /* \"#utility.yul\":6037:6049   */\n      revert\n        /* \"#utility.yul\":6078:6788   */\n    tag_391:\n        /* \"#utility.yul\":6174:6179   */\n      0x00\n        /* \"#utility.yul\":6199:6280   */\n      tag_521\n        /* \"#utility.yul\":6215:6279   */\n      tag_522\n        /* \"#utility.yul\":6272:6278   */\n      dup5\n        /* \"#utility.yul\":6215:6279   */\n      tag_389\n      jump\t// in\n    tag_522:\n        /* \"#utility.yul\":6199:6280   */\n      tag_388\n      jump\t// in\n    tag_521:\n        /* \"#utility.yul\":6190:6280   */\n      swap1\n      pop\n        /* \"#utility.yul\":6300:6305   */\n      dup1\n        /* \"#utility.yul\":6329:6335   */\n      dup4\n        /* \"#utility.yul\":6322:6327   */\n      dup3\n        /* \"#utility.yul\":6315:6336   */\n      mstore\n        /* \"#utility.yul\":6363:6367   */\n      0x20\n        /* \"#utility.yul\":6356:6361   */\n      dup3\n        /* \"#utility.yul\":6352:6368   */\n      add\n        /* \"#utility.yul\":6345:6368   */\n      swap1\n      pop\n        /* \"#utility.yul\":6416:6420   */\n      0x20\n        /* \"#utility.yul\":6408:6414   */\n      dup5\n        /* \"#utility.yul\":6404:6421   */\n      mul\n        /* \"#utility.yul\":6396:6402   */\n      dup4\n        /* \"#utility.yul\":6392:6422   */\n      add\n        /* \"#utility.yul\":6445:6448   */\n      dup6\n        /* \"#utility.yul\":6437:6443   */\n      dup2\n        /* \"#utility.yul\":6434:6449   */\n      gt\n        /* \"#utility.yul\":6431:6553   */\n      iszero\n      tag_523\n      jumpi\n        /* \"#utility.yul\":6464:6543   */\n      tag_524\n      tag_390\n      jump\t// in\n    tag_524:\n        /* \"#utility.yul\":6431:6553   */\n    tag_523:\n        /* \"#utility.yul\":6579:6585   */\n      dup4\n        /* \"#utility.yul\":6562:6782   */\n    tag_525:\n        /* \"#utility.yul\":6596:6602   */\n      dup2\n        /* \"#utility.yul\":6591:6594   */\n      dup2\n        /* \"#utility.yul\":6588:6603   */\n      lt\n        /* \"#utility.yul\":6562:6782   */\n      iszero\n      tag_527\n      jumpi\n        /* \"#utility.yul\":6671:6674   */\n      dup1\n        /* \"#utility.yul\":6700:6737   */\n      tag_528\n        /* \"#utility.yul\":6733:6736   */\n      dup9\n        /* \"#utility.yul\":6721:6731   */\n      dup3\n        /* \"#utility.yul\":6700:6737   */\n      tag_374\n      jump\t// in\n    tag_528:\n        /* \"#utility.yul\":6695:6698   */\n      dup5\n        /* \"#utility.yul\":6688:6738   */\n      mstore\n        /* \"#utility.yul\":6767:6771   */\n      0x20\n        /* \"#utility.yul\":6762:6765   */\n      dup5\n        /* \"#utility.yul\":6758:6772   */\n      add\n        /* \"#utility.yul\":6751:6772   */\n      swap4\n      pop\n        /* \"#utility.yul\":6638:6782   */\n      pop\n        /* \"#utility.yul\":6622:6626   */\n      0x20\n        /* \"#utility.yul\":6617:6620   */\n      dup2\n        /* \"#utility.yul\":6613:6627   */\n      add\n        /* \"#utility.yul\":6606:6627   */\n      swap1\n      pop\n        /* \"#utility.yul\":6562:6782   */\n      jump(tag_525)\n    tag_527:\n        /* \"#utility.yul\":6566:6587   */\n      pop\n        /* \"#utility.yul\":6180:6788   */\n      pop\n      pop\n        /* \"#utility.yul\":6078:6788   */\n      swap4\n      swap3\n      pop\n      pop\n      pop\n      jump\t// out\n        /* \"#utility.yul\":6811:7181   */\n    tag_392:\n        /* \"#utility.yul\":6882:6887   */\n      0x00\n        /* \"#utility.yul\":6931:6934   */\n      dup3\n        /* \"#utility.yul\":6924:6928   */\n      0x1f\n        /* \"#utility.yul\":6916:6922   */\n      dup4\n        /* \"#utility.yul\":6912:6929   */\n      add\n        /* \"#utility.yul\":6908:6935   */\n      slt\n        /* \"#utility.yul\":6898:7020   */\n      tag_530\n      jumpi\n        /* \"#utility.yul\":6939:7018   */\n      tag_531\n      tag_386\n      jump\t// in\n    tag_531:\n        /* \"#utility.yul\":6898:7020   */\n    tag_530:\n        /* \"#utility.yul\":7056:7062   */\n      dup2\n        /* \"#utility.yul\":7043:7063   */\n      calldataload\n        /* \"#utility.yul\":7081:7175   */\n      tag_532\n        /* \"#utility.yul\":7171:7174   */\n      dup5\n        /* \"#utility.yul\":7163:7169   */\n      dup3\n        /* \"#utility.yul\":7156:7160   */\n      0x20\n        /* \"#utility.yul\":7148:7154   */\n      dup7\n        /* \"#utility.yul\":7144:7161   */\n      add\n        /* \"#utility.yul\":7081:7175   */\n      tag_391\n      jump\t// in\n    tag_532:\n        /* \"#utility.yul\":7072:7175   */\n      swap2\n      pop\n        /* \"#utility.yul\":6888:7181   */\n      pop\n        /* \"#utility.yul\":6811:7181   */\n      swap3\n      swap2\n      pop\n      pop\n      jump\t// out\n        /* \"#utility.yul\":7187:7304   */\n    tag_393:\n        /* \"#utility.yul\":7296:7297   */\n      0x00\n        /* \"#utility.yul\":7293:7294   */\n      dup1\n        /* \"#utility.yul\":7286:7298   */\n      revert\n        /* \"#utility.yul\":7310:7617   */\n    tag_394:\n        /* \"#utility.yul\":7371:7375   */\n      0x00\n        /* \"#utility.yul\":7461:7479   */\n      0xffffffffffffffff\n        /* \"#utility.yul\":7453:7459   */\n      dup3\n        /* \"#utility.yul\":7450:7480   */\n      gt\n        /* \"#utility.yul\":7447:7503   */\n      iszero\n      tag_535\n      jumpi\n        /* \"#utility.yul\":7483:7501   */\n      tag_536\n      tag_137\n      jump\t// in\n    tag_536:\n        /* \"#utility.yul\":7447:7503   */\n    tag_535:\n        /* \"#utility.yul\":7521:7550   */\n      tag_537\n        /* \"#utility.yul\":7543:7549   */\n      dup3\n        /* \"#utility.yul\":7521:7550   */\n      tag_384\n      jump\t// in\n    tag_537:\n        /* \"#utility.yul\":7513:7550   */\n      swap1\n      pop\n        /* \"#utility.yul\":7605:7609   */\n      0x20\n        /* \"#utility.yul\":7599:7603   */\n      dup2\n        /* \"#utility.yul\":7595:7610   */\n      add\n        /* \"#utility.yul\":7587:7610   */\n      swap1\n      pop\n        /* \"#utility.yul\":7310:7617   */\n      swap2\n      swap1\n      pop\n      jump\t// out\n        /* \"#utility.yul\":7623:7769   */\n    tag_395:\n        /* \"#utility.yul\":7720:7726   */\n      dup3\n        /* \"#utility.yul\":7715:7718   */\n      dup2\n        /* \"#utility.yul\":7710:7713   */\n      dup4\n        /* \"#utility.yul\":7697:7727   */\n      calldatacopy\n        /* \"#utility.yul\":7761:7762   */\n      0x00\n        /* \"#utility.yul\":7752:7758   */\n      dup4\n        /* \"#utility.yul\":7747:7750   */\n      dup4\n        /* \"#utility.yul\":7743:7759   */\n      add\n        /* \"#utility.yul\":7736:7763   */\n      mstore\n        /* \"#utility.yul\":7623:7769   */\n      pop\n      pop\n      pop\n      jump\t// out\n        /* \"#utility.yul\":7775:8198   */\n    tag_396:\n        /* \"#utility.yul\":7852:7857   */\n      0x00\n        /* \"#utility.yul\":7877:7942   */\n      tag_540\n        /* \"#utility.yul\":7893:7941   */\n      tag_541\n        /* \"#utility.yul\":7934:7940   */\n      dup5\n        /* \"#utility.yul\":7893:7941   */\n      tag_394\n      jump\t// in\n    tag_541:\n        /* \"#utility.yul\":7877:7942   */\n      tag_388\n      jump\t// in\n    tag_540:\n        /* \"#utility.yul\":7868:7942   */\n      swap1\n      pop\n        /* \"#utility.yul\":7965:7971   */\n      dup3\n        /* \"#utility.yul\":7958:7963   */\n      dup2\n        /* \"#utility.yul\":7951:7972   */\n      mstore\n        /* \"#utility.yul\":8003:8007   */\n      0x20\n        /* \"#utility.yul\":7996:8001   */\n      dup2\n        /* \"#utility.yul\":7992:8008   */\n      add\n        /* \"#utility.yul\":8041:8044   */\n      dup5\n        /* \"#utility.yul\":8032:8038   */\n      dup5\n        /* \"#utility.yul\":8027:8030   */\n      dup5\n        /* \"#utility.yul\":8023:8039   */\n      add\n        /* \"#utility.yul\":8020:8045   */\n      gt\n        /* \"#utility.yul\":8017:8129   */\n      iszero\n      tag_542\n      jumpi\n        /* \"#utility.yul\":8048:8127   */\n      tag_543\n      tag_393\n      jump\t// in\n    tag_543:\n        /* \"#utility.yul\":8017:8129   */\n    tag_542:\n        /* \"#utility.yul\":8138:8192   */\n      tag_544\n        /* \"#utility.yul\":8185:8191   */\n      dup5\n        /* \"#utility.yul\":8180:8183   */\n      dup3\n        /* \"#utility.yul\":8175:8178   */\n      dup6\n        /* \"#utility.yul\":8138:8192   */\n      tag_395\n      jump\t// in\n    tag_544:\n        /* \"#utility.yul\":7858:8198   */\n      pop\n        /* \"#utility.yul\":7775:8198   */\n      swap4\n      swap3\n      pop\n      pop\n      pop\n      jump\t// out\n        /* \"#utility.yul\":8217:8555   */\n    tag_397:\n        /* \"#utility.yul\":8272:8277   */\n      0x00\n        /* \"#utility.yul\":8321:8324   */\n      dup3\n        /* \"#utility.yul\":8314:8318   */\n      0x1f\n        /* \"#utility.yul\":8306:8312   */\n      dup4\n        /* \"#utility.yul\":8302:8319   */\n      add\n        /* \"#utility.yul\":8298:8325   */\n      slt\n        /* \"#utility.yul\":8288:8410   */\n      tag_546\n      jumpi\n        /* \"#utility.yul\":8329:8408   */\n      tag_547\n      tag_386\n      jump\t// in\n    tag_547:\n        /* \"#utility.yul\":8288:8410   */\n    tag_546:\n        /* \"#utility.yul\":8446:8452   */\n      dup2\n        /* \"#utility.yul\":8433:8453   */\n      calldataload\n        /* \"#utility.yul\":8471:8549   */\n      tag_548\n        /* \"#utility.yul\":8545:8548   */\n      dup5\n        /* \"#utility.yul\":8537:8543   */\n      dup3\n        /* \"#utility.yul\":8530:8534   */\n      0x20\n        /* \"#utility.yul\":8522:8528   */\n      dup7\n        /* \"#utility.yul\":8518:8535   */\n      add\n        /* \"#utility.yul\":8471:8549   */\n      tag_396\n      jump\t// in\n    tag_548:\n        /* \"#utility.yul\":8462:8549   */\n      swap2\n      pop\n        /* \"#utility.yul\":8278:8555   */\n      pop\n        /* \"#utility.yul\":8217:8555   */\n      swap3\n      swap2\n      pop\n      pop\n      jump\t// out\n        /* \"#utility.yul\":8561:10070   */\n    tag_45:\n        /* \"#utility.yul\":8715:8721   */\n      0x00\n        /* \"#utility.yul\":8723:8729   */\n      dup1\n        /* \"#utility.yul\":8731:8737   */\n      0x00\n        /* \"#utility.yul\":8739:8745   */\n      dup1\n        /* \"#utility.yul\":8747:8753   */\n      0x00\n        /* \"#utility.yul\":8796:8799   */\n      0xa0\n        /* \"#utility.yul\":8784:8793   */\n      dup7\n        /* \"#utility.yul\":8775:8782   */\n      dup9\n        /* \"#utility.yul\":8771:8794   */\n      sub\n        /* \"#utility.yul\":8767:8800   */\n      slt\n        /* \"#utility.yul\":8764:8884   */\n      iszero\n      tag_550\n      jumpi\n        /* \"#utility.yul\":8803:8882   */\n      tag_551\n      tag_366\n      jump\t// in\n    tag_551:\n        /* \"#utility.yul\":8764:8884   */\n    tag_550:\n        /* \"#utility.yul\":8923:8924   */\n      0x00\n        /* \"#utility.yul\":8948:9001   */\n      tag_552\n        /* \"#utility.yul\":8993:9000   */\n      dup9\n        /* \"#utility.yul\":8984:8990   */\n      dup3\n        /* \"#utility.yul\":8973:8982   */\n      dup10\n        /* \"#utility.yul\":8969:8991   */\n      add\n        /* \"#utility.yul\":8948:9001   */\n      tag_371\n      jump\t// in\n    tag_552:\n        /* \"#utility.yul\":8938:9001   */\n      swap6\n      pop\n        /* \"#utility.yul\":8894:9011   */\n      pop\n        /* \"#utility.yul\":9050:9052   */\n      0x20\n        /* \"#utility.yul\":9076:9129   */\n      tag_553\n        /* \"#utility.yul\":9121:9128   */\n      dup9\n        /* \"#utility.yul\":9112:9118   */\n      dup3\n        /* \"#utility.yul\":9101:9110   */\n      dup10\n        /* \"#utility.yul\":9097:9119   */\n      add\n        /* \"#utility.yul\":9076:9129   */\n      tag_371\n      jump\t// in\n    tag_553:\n        /* \"#utility.yul\":9066:9129   */\n      swap5\n      pop\n        /* \"#utility.yul\":9021:9139   */\n      pop\n        /* \"#utility.yul\":9206:9208   */\n      0x40\n        /* \"#utility.yul\":9195:9204   */\n      dup7\n        /* \"#utility.yul\":9191:9209   */\n      add\n        /* \"#utility.yul\":9178:9210   */\n      calldataload\n        /* \"#utility.yul\":9237:9255   */\n      0xffffffffffffffff\n        /* \"#utility.yul\":9229:9235   */\n      dup2\n        /* \"#utility.yul\":9226:9256   */\n      gt\n        /* \"#utility.yul\":9223:9340   */\n      iszero\n      tag_554\n      jumpi\n        /* \"#utility.yul\":9259:9338   */\n      tag_555\n      tag_367\n      jump\t// in\n    tag_555:\n        /* \"#utility.yul\":9223:9340   */\n    tag_554:\n        /* \"#utility.yul\":9364:9442   */\n      tag_556\n        /* \"#utility.yul\":9434:9441   */\n      dup9\n        /* \"#utility.yul\":9425:9431   */\n      dup3\n        /* \"#utility.yul\":9414:9423   */\n      dup10\n        /* \"#utility.yul\":9410:9432   */\n      add\n        /* \"#utility.yul\":9364:9442   */\n      tag_392\n      jump\t// in\n    tag_556:\n        /* \"#utility.yul\":9354:9442   */\n      swap4\n      pop\n        /* \"#utility.yul\":9149:9452   */\n      pop\n        /* \"#utility.yul\":9519:9521   */\n      0x60\n        /* \"#utility.yul\":9508:9517   */\n      dup7\n        /* \"#utility.yul\":9504:9522   */\n      add\n        /* \"#utility.yul\":9491:9523   */\n      calldataload\n        /* \"#utility.yul\":9550:9568   */\n      0xffffffffffffffff\n        /* \"#utility.yul\":9542:9548   */\n      dup2\n        /* \"#utility.yul\":9539:9569   */\n      gt\n        /* \"#utility.yul\":9536:9653   */\n      iszero\n      tag_557\n      jumpi\n        /* \"#utility.yul\":9572:9651   */\n      tag_558\n      tag_367\n      jump\t// in\n    tag_558:\n        /* \"#utility.yul\":9536:9653   */\n    tag_557:\n        /* \"#utility.yul\":9677:9755   */\n      tag_559\n        /* \"#utility.yul\":9747:9754   */\n      dup9\n        /* \"#utility.yul\":9738:9744   */\n      dup3\n        /* \"#utility.yul\":9727:9736   */\n      dup10\n        /* \"#utility.yul\":9723:9745   */\n      add\n        /* \"#utility.yul\":9677:9755   */\n      tag_392\n      jump\t// in\n    tag_559:\n        /* \"#utility.yul\":9667:9755   */\n      swap3\n      pop\n        /* \"#utility.yul\":9462:9765   */\n      pop\n        /* \"#utility.yul\":9832:9835   */\n      0x80\n        /* \"#utility.yul\":9821:9830   */\n      dup7\n        /* \"#utility.yul\":9817:9836   */\n      add\n        /* \"#utility.yul\":9804:9837   */\n      calldataload\n        /* \"#utility.yul\":9864:9882   */\n      0xffffffffffffffff\n        /* \"#utility.yul\":9856:9862   */\n      dup2\n        /* \"#utility.yul\":9853:9883   */\n      gt\n        /* \"#utility.yul\":9850:9967   */\n      iszero\n      tag_560\n      jumpi\n        /* \"#utility.yul\":9886:9965   */\n      tag_561\n      tag_367\n      jump\t// in\n    tag_561:\n        /* \"#utility.yul\":9850:9967   */\n    tag_560:\n        /* \"#utility.yul\":9991:10053   */\n      tag_562\n        /* \"#utility.yul\":10045:10052   */\n      dup9\n        /* \"#utility.yul\":10036:10042   */\n      dup3\n        /* \"#utility.yul\":10025:10034   */\n      dup10\n        /* \"#utility.yul\":10021:10043   */\n      add\n        /* \"#utility.yul\":9991:10053   */\n      tag_397\n      jump\t// in\n    tag_562:\n        /* \"#utility.yul\":9981:10053   */\n      swap2\n      pop\n        /* \"#utility.yul\":9775:10063   */\n      pop\n        /* \"#utility.yul\":8561:10070   */\n      swap3\n      swap6\n      pop\n      swap3\n      swap6\n      swap1\n      swap4\n      pop\n      jump\t// out\n        /* \"#utility.yul\":10076:10387   */\n    tag_398:\n        /* \"#utility.yul\":10153:10157   */\n      0x00\n        /* \"#utility.yul\":10243:10261   */\n      0xffffffffffffffff\n        /* \"#utility.yul\":10235:10241   */\n      dup3\n        /* \"#utility.yul\":10232:10262   */\n      gt\n        /* \"#utility.yul\":10229:10285   */\n      iszero\n      tag_564\n      jumpi\n        /* \"#utility.yul\":10265:10283   */\n      tag_565\n      tag_137\n      jump\t// in\n    tag_565:\n        /* \"#utility.yul\":10229:10285   */\n    tag_564:\n        /* \"#utility.yul\":10315:10319   */\n      0x20\n        /* \"#utility.yul\":10307:10313   */\n      dup3\n        /* \"#utility.yul\":10303:10320   */\n      mul\n        /* \"#utility.yul\":10295:10320   */\n      swap1\n      pop\n        /* \"#utility.yul\":10375:10379   */\n      0x20\n        /* \"#utility.yul\":10369:10373   */\n      dup2\n        /* \"#utility.yul\":10365:10380   */\n      add\n        /* \"#utility.yul\":10357:10380   */\n      swap1\n      pop\n        /* \"#utility.yul\":10076:10387   */\n      swap2\n      swap1\n      pop\n      jump\t// out\n        /* \"#utility.yul\":10410:11120   */\n    tag_399:\n        /* \"#utility.yul\":10506:10511   */\n      0x00\n        /* \"#utility.yul\":10531:10612   */\n      tag_567\n        /* \"#utility.yul\":10547:10611   */\n      tag_568\n        /* \"#utility.yul\":10604:10610   */\n      dup5\n        /* \"#utility.yul\":10547:10611   */\n      tag_398\n      jump\t// in\n    tag_568:\n        /* \"#utility.yul\":10531:10612   */\n      tag_388\n      jump\t// in\n    tag_567:\n        /* \"#utility.yul\":10522:10612   */\n      swap1\n      pop\n        /* \"#utility.yul\":10632:10637   */\n      dup1\n        /* \"#utility.yul\":10661:10667   */\n      dup4\n        /* \"#utility.yul\":10654:10659   */\n      dup3\n        /* \"#utility.yul\":10647:10668   */\n      mstore\n        /* \"#utility.yul\":10695:10699   */\n      0x20\n        /* \"#utility.yul\":10688:10693   */\n      dup3\n        /* \"#utility.yul\":10684:10700   */\n      add\n        /* \"#utility.yul\":10677:10700   */\n      swap1\n      pop\n        /* \"#utility.yul\":10748:10752   */\n      0x20\n        /* \"#utility.yul\":10740:10746   */\n      dup5\n        /* \"#utility.yul\":10736:10753   */\n      mul\n        /* \"#utility.yul\":10728:10734   */\n      dup4\n        /* \"#utility.yul\":10724:10754   */\n      add\n        /* \"#utility.yul\":10777:10780   */\n      dup6\n        /* \"#utility.yul\":10769:10775   */\n      dup2\n        /* \"#utility.yul\":10766:10781   */\n      gt\n        /* \"#utility.yul\":10763:10885   */\n      iszero\n      tag_569\n      jumpi\n        /* \"#utility.yul\":10796:10875   */\n      tag_570\n      tag_390\n      jump\t// in\n    tag_570:\n        /* \"#utility.yul\":10763:10885   */\n    tag_569:\n        /* \"#utility.yul\":10911:10917   */\n      dup4\n        /* \"#utility.yul\":10894:11114   */\n    tag_571:\n        /* \"#utility.yul\":10928:10934   */\n      dup2\n        /* \"#utility.yul\":10923:10926   */\n      dup2\n        /* \"#utility.yul\":10920:10935   */\n      lt\n        /* \"#utility.yul\":10894:11114   */\n      iszero\n      tag_573\n      jumpi\n        /* \"#utility.yul\":11003:11006   */\n      dup1\n        /* \"#utility.yul\":11032:11069   */\n      tag_574\n        /* \"#utility.yul\":11065:11068   */\n      dup9\n        /* \"#utility.yul\":11053:11063   */\n      dup3\n        /* \"#utility.yul\":11032:11069   */\n      tag_371\n      jump\t// in\n    tag_574:\n        /* \"#utility.yul\":11027:11030   */\n      dup5\n        /* \"#utility.yul\":11020:11070   */\n      mstore\n        /* \"#utility.yul\":11099:11103   */\n      0x20\n        /* \"#utility.yul\":11094:11097   */\n      dup5\n        /* \"#utility.yul\":11090:11104   */\n      add\n        /* \"#utility.yul\":11083:11104   */\n      swap4\n      pop\n        /* \"#utility.yul\":10970:11114   */\n      pop\n        /* \"#utility.yul\":10954:10958   */\n      0x20\n        /* \"#utility.yul\":10949:10952   */\n      dup2\n        /* \"#utility.yul\":10945:10959   */\n      add\n        /* \"#utility.yul\":10938:10959   */\n      swap1\n      pop\n        /* \"#utility.yul\":10894:11114   */\n      jump(tag_571)\n    tag_573:\n        /* \"#utility.yul\":10898:10919   */\n      pop\n        /* \"#utility.yul\":10512:11120   */\n      pop\n      pop\n        /* \"#utility.yul\":10410:11120   */\n      swap4\n      swap3\n      pop\n      pop\n      pop\n      jump\t// out\n        /* \"#utility.yul\":11143:11513   */\n    tag_400:\n        /* \"#utility.yul\":11214:11219   */\n      0x00\n        /* \"#utility.yul\":11263:11266   */\n      dup3\n        /* \"#utility.yul\":11256:11260   */\n      0x1f\n        /* \"#utility.yul\":11248:11254   */\n      dup4\n        /* \"#utility.yul\":11244:11261   */\n      add\n        /* \"#utility.yul\":11240:11267   */\n      slt\n        /* \"#utility.yul\":11230:11352   */\n      tag_576\n      jumpi\n        /* \"#utility.yul\":11271:11350   */\n      tag_577\n      tag_386\n      jump\t// in\n    tag_577:\n        /* \"#utility.yul\":11230:11352   */\n    tag_576:\n        /* \"#utility.yul\":11388:11394   */\n      dup2\n        /* \"#utility.yul\":11375:11395   */\n      calldataload\n        /* \"#utility.yul\":11413:11507   */\n      tag_578\n        /* \"#utility.yul\":11503:11506   */\n      dup5\n        /* \"#utility.yul\":11495:11501   */\n      dup3\n        /* \"#utility.yul\":11488:11492   */\n      0x20\n        /* \"#utility.yul\":11480:11486   */\n      dup7\n        /* \"#utility.yul\":11476:11493   */\n      add\n        /* \"#utility.yul\":11413:11507   */\n      tag_399\n      jump\t// in\n    tag_578:\n        /* \"#utility.yul\":11404:11507   */\n      swap2\n      pop\n        /* \"#utility.yul\":11220:11513   */\n      pop\n        /* \"#utility.yul\":11143:11513   */\n      swap3\n      swap2\n      pop\n      pop\n      jump\t// out\n        /* \"#utility.yul\":11519:12413   */\n    tag_50:\n        /* \"#utility.yul\":11637:11643   */\n      0x00\n        /* \"#utility.yul\":11645:11651   */\n      dup1\n        /* \"#utility.yul\":11694:11696   */\n      0x40\n        /* \"#utility.yul\":11682:11691   */\n      dup4\n        /* \"#utility.yul\":11673:11680   */\n      dup6\n        /* \"#utility.yul\":11669:11692   */\n      sub\n        /* \"#utility.yul\":11665:11697   */\n      slt\n        /* \"#utility.yul\":11662:11781   */\n      iszero\n      tag_580\n      jumpi\n        /* \"#utility.yul\":11700:11779   */\n      tag_581\n      tag_366\n      jump\t// in\n    tag_581:\n        /* \"#utility.yul\":11662:11781   */\n    tag_580:\n        /* \"#utility.yul\":11848:11849   */\n      0x00\n        /* \"#utility.yul\":11837:11846   */\n      dup4\n        /* \"#utility.yul\":11833:11850   */\n      add\n        /* \"#utility.yul\":11820:11851   */\n      calldataload\n        /* \"#utility.yul\":11878:11896   */\n      0xffffffffffffffff\n        /* \"#utility.yul\":11870:11876   */\n      dup2\n        /* \"#utility.yul\":11867:11897   */\n      gt\n        /* \"#utility.yul\":11864:11981   */\n      iszero\n      tag_582\n      jumpi\n        /* \"#utility.yul\":11900:11979   */\n      tag_583\n      tag_367\n      jump\t// in\n    tag_583:\n        /* \"#utility.yul\":11864:11981   */\n    tag_582:\n        /* \"#utility.yul\":12005:12083   */\n      tag_584\n        /* \"#utility.yul\":12075:12082   */\n      dup6\n        /* \"#utility.yul\":12066:12072   */\n      dup3\n        /* \"#utility.yul\":12055:12064   */\n      dup7\n        /* \"#utility.yul\":12051:12073   */\n      add\n        /* \"#utility.yul\":12005:12083   */\n      tag_400\n      jump\t// in\n    tag_584:\n        /* \"#utility.yul\":11995:12083   */\n      swap3\n      pop\n        /* \"#utility.yul\":11791:12093   */\n      pop\n        /* \"#utility.yul\":12160:12162   */\n      0x20\n        /* \"#utility.yul\":12149:12158   */\n      dup4\n        /* \"#utility.yul\":12145:12163   */\n      add\n        /* \"#utility.yul\":12132:12164   */\n      calldataload\n        /* \"#utility.yul\":12191:12209   */\n      0xffffffffffffffff\n        /* \"#utility.yul\":12183:12189   */\n      dup2\n        /* \"#utility.yul\":12180:12210   */\n      gt\n        /* \"#utility.yul\":12177:12294   */\n      iszero\n      tag_585\n      jumpi\n        /* \"#utility.yul\":12213:12292   */\n      tag_586\n      tag_367\n      jump\t// in\n    tag_586:\n        /* \"#utility.yul\":12177:12294   */\n    tag_585:\n        /* \"#utility.yul\":12318:12396   */\n      tag_587\n        /* \"#utility.yul\":12388:12395   */\n      dup6\n        /* \"#utility.yul\":12379:12385   */\n      dup3\n        /* \"#utility.yul\":12368:12377   */\n      dup7\n        /* \"#utility.yul\":12364:12386   */\n      add\n        /* \"#utility.yul\":12318:12396   */\n      tag_392\n      jump\t// in\n    tag_587:\n        /* \"#utility.yul\":12308:12396   */\n      swap2\n      pop\n        /* \"#utility.yul\":12103:12406   */\n      pop\n        /* \"#utility.yul\":11519:12413   */\n      swap3\n      pop\n      swap3\n      swap1\n      pop\n      jump\t// out\n        /* \"#utility.yul\":12419:12533   */\n    tag_401:\n        /* \"#utility.yul\":12486:12492   */\n      0x00\n        /* \"#utility.yul\":12520:12525   */\n      dup2\n        /* \"#utility.yul\":12514:12526   */\n      mload\n        /* \"#utility.yul\":12504:12526   */\n      swap1\n      pop\n        /* \"#utility.yul\":12419:12533   */\n      swap2\n      swap1\n      pop\n      jump\t// out\n        /* \"#utility.yul\":12539:12723   */\n    tag_402:\n        /* \"#utility.yul\":12638:12649   */\n      0x00\n        /* \"#utility.yul\":12672:12678   */\n      dup3\n        /* \"#utility.yul\":12667:12670   */\n      dup3\n        /* \"#utility.yul\":12660:12679   */\n      mstore\n        /* \"#utility.yul\":12712:12716   */\n      0x20\n        /* \"#utility.yul\":12707:12710   */\n      dup3\n        /* \"#utility.yul\":12703:12717   */\n      add\n        /* \"#utility.yul\":12688:12717   */\n      swap1\n      pop\n        /* \"#utility.yul\":12539:12723   */\n      swap3\n      swap2\n      pop\n      pop\n      jump\t// out\n        /* \"#utility.yul\":12729:12861   */\n    tag_403:\n        /* \"#utility.yul\":12796:12800   */\n      0x00\n        /* \"#utility.yul\":12819:12822   */\n      dup2\n        /* \"#utility.yul\":12811:12822   */\n      swap1\n      pop\n        /* \"#utility.yul\":12849:12853   */\n      0x20\n        /* \"#utility.yul\":12844:12847   */\n      dup3\n        /* \"#utility.yul\":12840:12854   */\n      add\n        /* \"#utility.yul\":12832:12854   */\n      swap1\n      pop\n        /* \"#utility.yul\":12729:12861   */\n      swap2\n      swap1\n      pop\n      jump\t// out\n        /* \"#utility.yul\":12867:12975   */\n    tag_404:\n        /* \"#utility.yul\":12944:12968   */\n      tag_592\n        /* \"#utility.yul\":12962:12967   */\n      dup2\n        /* \"#utility.yul\":12944:12968   */\n      tag_372\n      jump\t// in\n    tag_592:\n        /* \"#utility.yul\":12939:12942   */\n      dup3\n        /* \"#utility.yul\":12932:12969   */\n      mstore\n        /* \"#utility.yul\":12867:12975   */\n      pop\n      pop\n      jump\t// out\n        /* \"#utility.yul\":12981:13160   */\n    tag_405:\n        /* \"#utility.yul\":13050:13060   */\n      0x00\n        /* \"#utility.yul\":13071:13117   */\n      tag_594\n        /* \"#utility.yul\":13113:13116   */\n      dup4\n        /* \"#utility.yul\":13105:13111   */\n      dup4\n        /* \"#utility.yul\":13071:13117   */\n      tag_404\n      jump\t// in\n    tag_594:\n        /* \"#utility.yul\":13149:13153   */\n      0x20\n        /* \"#utility.yul\":13144:13147   */\n      dup4\n        /* \"#utility.yul\":13140:13154   */\n      add\n        /* \"#utility.yul\":13126:13154   */\n      swap1\n      pop\n        /* \"#utility.yul\":12981:13160   */\n      swap3\n      swap2\n      pop\n      pop\n      jump\t// out\n        /* \"#utility.yul\":13166:13279   */\n    tag_406:\n        /* \"#utility.yul\":13236:13240   */\n      0x00\n        /* \"#utility.yul\":13268:13272   */\n      0x20\n        /* \"#utility.yul\":13263:13266   */\n      dup3\n        /* \"#utility.yul\":13259:13273   */\n      add\n        /* \"#utility.yul\":13251:13273   */\n      swap1\n      pop\n        /* \"#utility.yul\":13166:13279   */\n      swap2\n      swap1\n      pop\n      jump\t// out\n        /* \"#utility.yul\":13315:14047   */\n    tag_407:\n        /* \"#utility.yul\":13434:13437   */\n      0x00\n        /* \"#utility.yul\":13463:13517   */\n      tag_597\n        /* \"#utility.yul\":13511:13516   */\n      dup3\n        /* \"#utility.yul\":13463:13517   */\n      tag_401\n      jump\t// in\n    tag_597:\n        /* \"#utility.yul\":13533:13619   */\n      tag_598\n        /* \"#utility.yul\":13612:13618   */\n      dup2\n        /* \"#utility.yul\":13607:13610   */\n      dup6\n        /* \"#utility.yul\":13533:13619   */\n      tag_402\n      jump\t// in\n    tag_598:\n        /* \"#utility.yul\":13526:13619   */\n      swap4\n      pop\n        /* \"#utility.yul\":13643:13699   */\n      tag_599\n        /* \"#utility.yul\":13693:13698   */\n      dup4\n        /* \"#utility.yul\":13643:13699   */\n      tag_403\n      jump\t// in\n    tag_599:\n        /* \"#utility.yul\":13722:13729   */\n      dup1\n        /* \"#utility.yul\":13753:13754   */\n      0x00\n        /* \"#utility.yul\":13738:14022   */\n    tag_600:\n        /* \"#utility.yul\":13763:13769   */\n      dup4\n        /* \"#utility.yul\":13760:13761   */\n      dup2\n        /* \"#utility.yul\":13757:13770   */\n      lt\n        /* \"#utility.yul\":13738:14022   */\n      iszero\n      tag_602\n      jumpi\n        /* \"#utility.yul\":13839:13845   */\n      dup2\n        /* \"#utility.yul\":13833:13846   */\n      mload\n        /* \"#utility.yul\":13866:13929   */\n      tag_603\n        /* \"#utility.yul\":13925:13928   */\n      dup9\n        /* \"#utility.yul\":13910:13923   */\n      dup3\n        /* \"#utility.yul\":13866:13929   */\n      tag_405\n      jump\t// in\n    tag_603:\n        /* \"#utility.yul\":13859:13929   */\n      swap8\n      pop\n        /* \"#utility.yul\":13952:14012   */\n      tag_604\n        /* \"#utility.yul\":14005:14011   */\n      dup4\n        /* \"#utility.yul\":13952:14012   */\n      tag_406\n      jump\t// in\n    tag_604:\n        /* \"#utility.yul\":13942:14012   */\n      swap3\n      pop\n        /* \"#utility.yul\":13798:14022   */\n      pop\n        /* \"#utility.yul\":13785:13786   */\n      0x01\n        /* \"#utility.yul\":13782:13783   */\n      dup2\n        /* \"#utility.yul\":13778:13787   */\n      add\n        /* \"#utility.yul\":13773:13787   */\n      swap1\n      pop\n        /* \"#utility.yul\":13738:14022   */\n      jump(tag_600)\n    tag_602:\n        /* \"#utility.yul\":13742:13756   */\n      pop\n        /* \"#utility.yul\":14038:14041   */\n      dup6\n        /* \"#utility.yul\":14031:14041   */\n      swap4\n      pop\n        /* \"#utility.yul\":13439:14047   */\n      pop\n      pop\n      pop\n        /* \"#utility.yul\":13315:14047   */\n      swap3\n      swap2\n      pop\n      pop\n      jump\t// out\n        /* \"#utility.yul\":14053:14426   */\n    tag_53:\n        /* \"#utility.yul\":14196:14200   */\n      0x00\n        /* \"#utility.yul\":14234:14236   */\n      0x20\n        /* \"#utility.yul\":14223:14232   */\n      dup3\n        /* \"#utility.yul\":14219:14237   */\n      add\n        /* \"#utility.yul\":14211:14237   */\n      swap1\n      pop\n        /* \"#utility.yul\":14283:14292   */\n      dup2\n        /* \"#utility.yul\":14277:14281   */\n      dup2\n        /* \"#utility.yul\":14273:14293   */\n      sub\n        /* \"#utility.yul\":14269:14270   */\n      0x00\n        /* \"#utility.yul\":14258:14267   */\n      dup4\n        /* \"#utility.yul\":14254:14271   */\n      add\n        /* \"#utility.yul\":14247:14294   */\n      mstore\n        /* \"#utility.yul\":14311:14419   */\n      tag_606\n        /* \"#utility.yul\":14414:14418   */\n      dup2\n        /* \"#utility.yul\":14405:14411   */\n      dup5\n        /* \"#utility.yul\":14311:14419   */\n      tag_407\n      jump\t// in\n    tag_606:\n        /* \"#utility.yul\":14303:14419   */\n      swap1\n      pop\n        /* \"#utility.yul\":14053:14426   */\n      swap3\n      swap2\n      pop\n      pop\n      jump\t// out\n        /* \"#utility.yul\":14432:15051   */\n    tag_57:\n        /* \"#utility.yul\":14509:14515   */\n      0x00\n        /* \"#utility.yul\":14517:14523   */\n      dup1\n        /* \"#utility.yul\":14525:14531   */\n      0x00\n        /* \"#utility.yul\":14574:14576   */\n      0x60\n        /* \"#utility.yul\":14562:14571   */\n      dup5\n        /* \"#utility.yul\":14553:14560   */\n      dup7\n        /* \"#utility.yul\":14549:14572   */\n      sub\n        /* \"#utility.yul\":14545:14577   */\n      slt\n        /* \"#utility.yul\":14542:14661   */\n      iszero\n      tag_608\n      jumpi\n        /* \"#utility.yul\":14580:14659   */\n      tag_609\n      tag_366\n      jump\t// in\n    tag_609:\n        /* \"#utility.yul\":14542:14661   */\n    tag_608:\n        /* \"#utility.yul\":14700:14701   */\n      0x00\n        /* \"#utility.yul\":14725:14778   */\n      tag_610\n        /* \"#utility.yul\":14770:14777   */\n      dup7\n        /* \"#utility.yul\":14761:14767   */\n      dup3\n        /* \"#utility.yul\":14750:14759   */\n      dup8\n        /* \"#utility.yul\":14746:14768   */\n      add\n        /* \"#utility.yul\":14725:14778   */\n      tag_371\n      jump\t// in\n    tag_610:\n        /* \"#utility.yul\":14715:14778   */\n      swap4\n      pop\n        /* \"#utility.yul\":14671:14788   */\n      pop\n        /* \"#utility.yul\":14827:14829   */\n      0x20\n        /* \"#utility.yul\":14853:14906   */\n      tag_611\n        /* \"#utility.yul\":14898:14905   */\n      dup7\n        /* \"#utility.yul\":14889:14895   */\n      dup3\n        /* \"#utility.yul\":14878:14887   */\n      dup8\n        /* \"#utility.yul\":14874:14896   */\n      add\n        /* \"#utility.yul\":14853:14906   */\n      tag_374\n      jump\t// in\n    tag_611:\n        /* \"#utility.yul\":14843:14906   */\n      swap3\n      pop\n        /* \"#utility.yul\":14798:14916   */\n      pop\n        /* \"#utility.yul\":14955:14957   */\n      0x40\n        /* \"#utility.yul\":14981:15034   */\n      tag_612\n        /* \"#utility.yul\":15026:15033   */\n      dup7\n        /* \"#utility.yul\":15017:15023   */\n      dup3\n        /* \"#utility.yul\":15006:15015   */\n      dup8\n        /* \"#utility.yul\":15002:15024   */\n      add\n        /* \"#utility.yul\":14981:15034   */\n      tag_374\n      jump\t// in\n    tag_612:\n        /* \"#utility.yul\":14971:15034   */\n      swap2\n      pop\n        /* \"#utility.yul\":14926:15044   */\n      pop\n        /* \"#utility.yul\":14432:15051   */\n      swap3\n      pop\n      swap3\n      pop\n      swap3\n      jump\t// out\n        /* \"#utility.yul\":15057:15169   */\n    tag_408:\n        /* \"#utility.yul\":15143:15144   */\n      0x03\n        /* \"#utility.yul\":15136:15141   */\n      dup2\n        /* \"#utility.yul\":15133:15145   */\n      lt\n        /* \"#utility.yul\":15123:15163   */\n      tag_614\n      jumpi\n        /* \"#utility.yul\":15159:15160   */\n      0x00\n        /* \"#utility.yul\":15156:15157   */\n      dup1\n        /* \"#utility.yul\":15149:15161   */\n      revert\n        /* \"#utility.yul\":15123:15163   */\n    tag_614:\n        /* \"#utility.yul\":15057:15169   */\n      pop\n      jump\t// out\n        /* \"#utility.yul\":15175:15340   */\n    tag_409:\n        /* \"#utility.yul\":15234:15239   */\n      0x00\n        /* \"#utility.yul\":15272:15278   */\n      dup2\n        /* \"#utility.yul\":15259:15279   */\n      calldataload\n        /* \"#utility.yul\":15250:15279   */\n      swap1\n      pop\n        /* \"#utility.yul\":15288:15334   */\n      tag_616\n        /* \"#utility.yul\":15328:15333   */\n      dup2\n        /* \"#utility.yul\":15288:15334   */\n      tag_408\n      jump\t// in\n    tag_616:\n        /* \"#utility.yul\":15175:15340   */\n      swap3\n      swap2\n      pop\n      pop\n      jump\t// out\n        /* \"#utility.yul\":15346:15654   */\n    tag_410:\n        /* \"#utility.yul\":15408:15412   */\n      0x00\n        /* \"#utility.yul\":15498:15516   */\n      0xffffffffffffffff\n        /* \"#utility.yul\":15490:15496   */\n      dup3\n        /* \"#utility.yul\":15487:15517   */\n      gt\n        /* \"#utility.yul\":15484:15540   */\n      iszero\n      tag_618\n      jumpi\n        /* \"#utility.yul\":15520:15538   */\n      tag_619\n      tag_137\n      jump\t// in\n    tag_619:\n        /* \"#utility.yul\":15484:15540   */\n    tag_618:\n        /* \"#utility.yul\":15558:15587   */\n      tag_620\n        /* \"#utility.yul\":15580:15586   */\n      dup3\n        /* \"#utility.yul\":15558:15587   */\n      tag_384\n      jump\t// in\n    tag_620:\n        /* \"#utility.yul\":15550:15587   */\n      swap1\n      pop\n        /* \"#utility.yul\":15642:15646   */\n      0x20\n        /* \"#utility.yul\":15636:15640   */\n      dup2\n        /* \"#utility.yul\":15632:15647   */\n      add\n        /* \"#utility.yul\":15624:15647   */\n      swap1\n      pop\n        /* \"#utility.yul\":15346:15654   */\n      swap2\n      swap1\n      pop\n      jump\t// out\n        /* \"#utility.yul\":15660:16085   */\n    tag_411:\n        /* \"#utility.yul\":15738:15743   */\n      0x00\n        /* \"#utility.yul\":15763:15829   */\n      tag_622\n        /* \"#utility.yul\":15779:15828   */\n      tag_623\n        /* \"#utility.yul\":15821:15827   */\n      dup5\n        /* \"#utility.yul\":15779:15828   */\n      tag_410\n      jump\t// in\n    tag_623:\n        /* \"#utility.yul\":15763:15829   */\n      tag_388\n      jump\t// in\n    tag_622:\n        /* \"#utility.yul\":15754:15829   */\n      swap1\n      pop\n        /* \"#utility.yul\":15852:15858   */\n      dup3\n        /* \"#utility.yul\":15845:15850   */\n      dup2\n        /* \"#utility.yul\":15838:15859   */\n      mstore\n        /* \"#utility.yul\":15890:15894   */\n      0x20\n        /* \"#utility.yul\":15883:15888   */\n      dup2\n        /* \"#utility.yul\":15879:15895   */\n      add\n        /* \"#utility.yul\":15928:15931   */\n      dup5\n        /* \"#utility.yul\":15919:15925   */\n      dup5\n        /* \"#utility.yul\":15914:15917   */\n      dup5\n        /* \"#utility.yul\":15910:15926   */\n      add\n        /* \"#utility.yul\":15907:15932   */\n      gt\n        /* \"#utility.yul\":15904:16016   */\n      iszero\n      tag_624\n      jumpi\n        /* \"#utility.yul\":15935:16014   */\n      tag_625\n      tag_393\n      jump\t// in\n    tag_625:\n        /* \"#utility.yul\":15904:16016   */\n    tag_624:\n        /* \"#utility.yul\":16025:16079   */\n      tag_626\n        /* \"#utility.yul\":16072:16078   */\n      dup5\n        /* \"#utility.yul\":16067:16070   */\n      dup3\n        /* \"#utility.yul\":16062:16065   */\n      dup6\n        /* \"#utility.yul\":16025:16079   */\n      tag_395\n      jump\t// in\n    tag_626:\n        /* \"#utility.yul\":15744:16085   */\n      pop\n        /* \"#utility.yul\":15660:16085   */\n      swap4\n      swap3\n      pop\n      pop\n      pop\n      jump\t// out\n        /* \"#utility.yul\":16105:16445   */\n    tag_412:\n        /* \"#utility.yul\":16161:16166   */\n      0x00\n        /* \"#utility.yul\":16210:16213   */\n      dup3\n        /* \"#utility.yul\":16203:16207   */\n      0x1f\n        /* \"#utility.yul\":16195:16201   */\n      dup4\n        /* \"#utility.yul\":16191:16208   */\n      add\n        /* \"#utility.yul\":16187:16214   */\n      slt\n        /* \"#utility.yul\":16177:16299   */\n      tag_628\n      jumpi\n        /* \"#utility.yul\":16218:16297   */\n      tag_629\n      tag_386\n      jump\t// in\n    tag_629:\n        /* \"#utility.yul\":16177:16299   */\n    tag_628:\n        /* \"#utility.yul\":16335:16341   */\n      dup2\n        /* \"#utility.yul\":16322:16342   */\n      calldataload\n        /* \"#utility.yul\":16360:16439   */\n      tag_630\n        /* \"#utility.yul\":16435:16438   */\n      dup5\n        /* \"#utility.yul\":16427:16433   */\n      dup3\n        /* \"#utility.yul\":16420:16424   */\n      0x20\n        /* \"#utility.yul\":16412:16418   */\n      dup7\n        /* \"#utility.yul\":16408:16425   */\n      add\n        /* \"#utility.yul\":16360:16439   */\n      tag_411\n      jump\t// in\n    tag_630:\n        /* \"#utility.yul\":16351:16439   */\n      swap2\n      pop\n        /* \"#utility.yul\":16167:16445   */\n      pop\n        /* \"#utility.yul\":16105:16445   */\n      swap3\n      swap2\n      pop\n      pop\n      jump\t// out\n        /* \"#utility.yul\":16451:17456   */\n    tag_62:\n        /* \"#utility.yul\":16561:16567   */\n      0x00\n        /* \"#utility.yul\":16569:16575   */\n      dup1\n        /* \"#utility.yul\":16577:16583   */\n      0x00\n        /* \"#utility.yul\":16626:16628   */\n      0x60\n        /* \"#utility.yul\":16614:16623   */\n      dup5\n        /* \"#utility.yul\":16605:16612   */\n      dup7\n        /* \"#utility.yul\":16601:16624   */\n      sub\n        /* \"#utility.yul\":16597:16629   */\n      slt\n        /* \"#utility.yul\":16594:16713   */\n      iszero\n      tag_632\n      jumpi\n        /* \"#utility.yul\":16632:16711   */\n      tag_633\n      tag_366\n      jump\t// in\n    tag_633:\n        /* \"#utility.yul\":16594:16713   */\n    tag_632:\n        /* \"#utility.yul\":16752:16753   */\n      0x00\n        /* \"#utility.yul\":16777:16843   */\n      tag_634\n        /* \"#utility.yul\":16835:16842   */\n      dup7\n        /* \"#utility.yul\":16826:16832   */\n      dup3\n        /* \"#utility.yul\":16815:16824   */\n      dup8\n        /* \"#utility.yul\":16811:16833   */\n      add\n        /* \"#utility.yul\":16777:16843   */\n      tag_409\n      jump\t// in\n    tag_634:\n        /* \"#utility.yul\":16767:16843   */\n      swap4\n      pop\n        /* \"#utility.yul\":16723:16853   */\n      pop\n        /* \"#utility.yul\":16920:16922   */\n      0x20\n        /* \"#utility.yul\":16909:16918   */\n      dup5\n        /* \"#utility.yul\":16905:16923   */\n      add\n        /* \"#utility.yul\":16892:16924   */\n      calldataload\n        /* \"#utility.yul\":16951:16969   */\n      0xffffffffffffffff\n        /* \"#utility.yul\":16943:16949   */\n      dup2\n        /* \"#utility.yul\":16940:16970   */\n      gt\n        /* \"#utility.yul\":16937:17054   */\n      iszero\n      tag_635\n      jumpi\n        /* \"#utility.yul\":16973:17052   */\n      tag_636\n      tag_367\n      jump\t// in\n    tag_636:\n        /* \"#utility.yul\":16937:17054   */\n    tag_635:\n        /* \"#utility.yul\":17078:17141   */\n      tag_637\n        /* \"#utility.yul\":17133:17140   */\n      dup7\n        /* \"#utility.yul\":17124:17130   */\n      dup3\n        /* \"#utility.yul\":17113:17122   */\n      dup8\n        /* \"#utility.yul\":17109:17131   */\n      add\n        /* \"#utility.yul\":17078:17141   */\n      tag_412\n      jump\t// in\n    tag_637:\n        /* \"#utility.yul\":17068:17141   */\n      swap3\n      pop\n        /* \"#utility.yul\":16863:17151   */\n      pop\n        /* \"#utility.yul\":17218:17220   */\n      0x40\n        /* \"#utility.yul\":17207:17216   */\n      dup5\n        /* \"#utility.yul\":17203:17221   */\n      add\n        /* \"#utility.yul\":17190:17222   */\n      calldataload\n        /* \"#utility.yul\":17249:17267   */\n      0xffffffffffffffff\n        /* \"#utility.yul\":17241:17247   */\n      dup2\n        /* \"#utility.yul\":17238:17268   */\n      gt\n        /* \"#utility.yul\":17235:17352   */\n      iszero\n      tag_638\n      jumpi\n        /* \"#utility.yul\":17271:17350   */\n      tag_639\n      tag_367\n      jump\t// in\n    tag_639:\n        /* \"#utility.yul\":17235:17352   */\n    tag_638:\n        /* \"#utility.yul\":17376:17439   */\n      tag_640\n        /* \"#utility.yul\":17431:17438   */\n      dup7\n        /* \"#utility.yul\":17422:17428   */\n      dup3\n        /* \"#utility.yul\":17411:17420   */\n      dup8\n        /* \"#utility.yul\":17407:17429   */\n      add\n        /* \"#utility.yul\":17376:17439   */\n      tag_412\n      jump\t// in\n    tag_640:\n        /* \"#utility.yul\":17366:17439   */\n      swap2\n      pop\n        /* \"#utility.yul\":17161:17449   */\n      pop\n        /* \"#utility.yul\":16451:17456   */\n      swap3\n      pop\n      swap3\n      pop\n      swap3\n      jump\t// out\n        /* \"#utility.yul\":17462:17580   */\n    tag_413:\n        /* \"#utility.yul\":17549:17573   */\n      tag_642\n        /* \"#utility.yul\":17567:17572   */\n      dup2\n        /* \"#utility.yul\":17549:17573   */\n      tag_369\n      jump\t// in\n    tag_642:\n        /* \"#utility.yul\":17544:17547   */\n      dup3\n        /* \"#utility.yul\":17537:17574   */\n      mstore\n        /* \"#utility.yul\":17462:17580   */\n      pop\n      pop\n      jump\t// out\n        /* \"#utility.yul\":17586:17808   */\n    tag_72:\n        /* \"#utility.yul\":17679:17683   */\n      0x00\n        /* \"#utility.yul\":17717:17719   */\n      0x20\n        /* \"#utility.yul\":17706:17715   */\n      dup3\n        /* \"#utility.yul\":17702:17720   */\n      add\n        /* \"#utility.yul\":17694:17720   */\n      swap1\n      pop\n        /* \"#utility.yul\":17730:17801   */\n      tag_644\n        /* \"#utility.yul\":17798:17799   */\n      0x00\n        /* \"#utility.yul\":17787:17796   */\n      dup4\n        /* \"#utility.yul\":17783:17800   */\n      add\n        /* \"#utility.yul\":17774:17780   */\n      dup5\n        /* \"#utility.yul\":17730:17801   */\n      tag_413\n      jump\t// in\n    tag_644:\n        /* \"#utility.yul\":17586:17808   */\n      swap3\n      swap2\n      pop\n      pop\n      jump\t// out\n        /* \"#utility.yul\":17814:17930   */\n    tag_414:\n        /* \"#utility.yul\":17884:17905   */\n      tag_646\n        /* \"#utility.yul\":17899:17904   */\n      dup2\n        /* \"#utility.yul\":17884:17905   */\n      tag_379\n      jump\t// in\n    tag_646:\n        /* \"#utility.yul\":17877:17882   */\n      dup2\n        /* \"#utility.yul\":17874:17906   */\n      eq\n        /* \"#utility.yul\":17864:17924   */\n      tag_647\n      jumpi\n        /* \"#utility.yul\":17920:17921   */\n      0x00\n        /* \"#utility.yul\":17917:17918   */\n      dup1\n        /* \"#utility.yul\":17910:17922   */\n      revert\n        /* \"#utility.yul\":17864:17924   */\n    tag_647:\n        /* \"#utility.yul\":17814:17930   */\n      pop\n      jump\t// out\n        /* \"#utility.yul\":17936:18069   */\n    tag_415:\n        /* \"#utility.yul\":17979:17984   */\n      0x00\n        /* \"#utility.yul\":18017:18023   */\n      dup2\n        /* \"#utility.yul\":18004:18024   */\n      calldataload\n        /* \"#utility.yul\":17995:18024   */\n      swap1\n      pop\n        /* \"#utility.yul\":18033:18063   */\n      tag_649\n        /* \"#utility.yul\":18057:18062   */\n      dup2\n        /* \"#utility.yul\":18033:18063   */\n      tag_414\n      jump\t// in\n    tag_649:\n        /* \"#utility.yul\":17936:18069   */\n      swap3\n      swap2\n      pop\n      pop\n      jump\t// out\n        /* \"#utility.yul\":18075:18543   */\n    tag_76:\n        /* \"#utility.yul\":18140:18146   */\n      0x00\n        /* \"#utility.yul\":18148:18154   */\n      dup1\n        /* \"#utility.yul\":18197:18199   */\n      0x40\n        /* \"#utility.yul\":18185:18194   */\n      dup4\n        /* \"#utility.yul\":18176:18183   */\n      dup6\n        /* \"#utility.yul\":18172:18195   */\n      sub\n        /* \"#utility.yul\":18168:18200   */\n      slt\n        /* \"#utility.yul\":18165:18284   */\n      iszero\n      tag_651\n      jumpi\n        /* \"#utility.yul\":18203:18282   */\n      tag_652\n      tag_366\n      jump\t// in\n    tag_652:\n        /* \"#utility.yul\":18165:18284   */\n    tag_651:\n        /* \"#utility.yul\":18323:18324   */\n      0x00\n        /* \"#utility.yul\":18348:18401   */\n      tag_653\n        /* \"#utility.yul\":18393:18400   */\n      dup6\n        /* \"#utility.yul\":18384:18390   */\n      dup3\n        /* \"#utility.yul\":18373:18382   */\n      dup7\n        /* \"#utility.yul\":18369:18391   */\n      add\n        /* \"#utility.yul\":18348:18401   */\n      tag_371\n      jump\t// in\n    tag_653:\n        /* \"#utility.yul\":18338:18401   */\n      swap3\n      pop\n        /* \"#utility.yul\":18294:18411   */\n      pop\n        /* \"#utility.yul\":18450:18452   */\n      0x20\n        /* \"#utility.yul\":18476:18526   */\n      tag_654\n        /* \"#utility.yul\":18518:18525   */\n      dup6\n        /* \"#utility.yul\":18509:18515   */\n      dup3\n        /* \"#utility.yul\":18498:18507   */\n      dup7\n        /* \"#utility.yul\":18494:18516   */\n      add\n        /* \"#utility.yul\":18476:18526   */\n      tag_415\n      jump\t// in\n    tag_654:\n        /* \"#utility.yul\":18466:18526   */\n      swap2\n      pop\n        /* \"#utility.yul\":18421:18536   */\n      pop\n        /* \"#utility.yul\":18075:18543   */\n      swap3\n      pop\n      swap3\n      swap1\n      pop\n      jump\t// out\n        /* \"#utility.yul\":18549:18729   */\n    tag_170:\n        /* \"#utility.yul\":18597:18674   */\n      0x4e487b7100000000000000000000000000000000000000000000000000000000\n        /* \"#utility.yul\":18594:18595   */\n      0x00\n        /* \"#utility.yul\":18587:18675   */\n      mstore\n        /* \"#utility.yul\":18694:18698   */\n      0x21\n        /* \"#utility.yul\":18691:18692   */\n      0x04\n        /* \"#utility.yul\":18684:18699   */\n      mstore\n        /* \"#utility.yul\":18718:18722   */\n      0x24\n        /* \"#utility.yul\":18715:18716   */\n      0x00\n        /* \"#utility.yul\":18708:18723   */\n      revert\n        /* \"#utility.yul\":18735:18853   */\n    tag_416:\n        /* \"#utility.yul\":18821:18822   */\n      0x03\n        /* \"#utility.yul\":18814:18819   */\n      dup2\n        /* \"#utility.yul\":18811:18823   */\n      lt\n        /* \"#utility.yul\":18801:18847   */\n      tag_657\n      jumpi\n        /* \"#utility.yul\":18827:18845   */\n      tag_658\n      tag_170\n      jump\t// in\n    tag_658:\n        /* \"#utility.yul\":18801:18847   */\n    tag_657:\n        /* \"#utility.yul\":18735:18853   */\n      pop\n      jump\t// out\n        /* \"#utility.yul\":18859:18996   */\n    tag_417:\n        /* \"#utility.yul\":18909:18916   */\n      0x00\n        /* \"#utility.yul\":18938:18943   */\n      dup2\n        /* \"#utility.yul\":18927:18943   */\n      swap1\n      pop\n        /* \"#utility.yul\":18944:18990   */\n      tag_660\n        /* \"#utility.yul\":18984:18989   */\n      dup3\n        /* \"#utility.yul\":18944:18990   */\n      tag_416\n      jump\t// in\n    tag_660:\n        /* \"#utility.yul\":18859:18996   */\n      swap2\n      swap1\n      pop\n      jump\t// out\n        /* \"#utility.yul\":19002:19139   */\n    tag_418:\n        /* \"#utility.yul\":19063:19072   */\n      0x00\n        /* \"#utility.yul\":19096:19133   */\n      tag_662\n        /* \"#utility.yul\":19127:19132   */\n      dup3\n        /* \"#utility.yul\":19096:19133   */\n      tag_417\n      jump\t// in\n    tag_662:\n        /* \"#utility.yul\":19083:19133   */\n      swap1\n      pop\n        /* \"#utility.yul\":19002:19139   */\n      swap2\n      swap1\n      pop\n      jump\t// out\n        /* \"#utility.yul\":19145:19298   */\n    tag_419:\n        /* \"#utility.yul\":19243:19291   */\n      tag_664\n        /* \"#utility.yul\":19285:19290   */\n      dup2\n        /* \"#utility.yul\":19243:19291   */\n      tag_418\n      jump\t// in\n    tag_664:\n        /* \"#utility.yul\":19238:19241   */\n      dup3\n        /* \"#utility.yul\":19231:19292   */\n      mstore\n        /* \"#utility.yul\":19145:19298   */\n      pop\n      pop\n      jump\t// out\n        /* \"#utility.yul\":19304:20061   */\n    tag_83:\n        /* \"#utility.yul\":19532:19536   */\n      0x00\n        /* \"#utility.yul\":19570:19573   */\n      0x80\n        /* \"#utility.yul\":19559:19568   */\n      dup3\n        /* \"#utility.yul\":19555:19574   */\n      add\n        /* \"#utility.yul\":19547:19574   */\n      swap1\n      pop\n        /* \"#utility.yul\":19584:19655   */\n      tag_666\n        /* \"#utility.yul\":19652:19653   */\n      0x00\n        /* \"#utility.yul\":19641:19650   */\n      dup4\n        /* \"#utility.yul\":19637:19654   */\n      add\n        /* \"#utility.yul\":19628:19634   */\n      dup8\n        /* \"#utility.yul\":19584:19655   */\n      tag_375\n      jump\t// in\n    tag_666:\n        /* \"#utility.yul\":19665:19748   */\n      tag_667\n        /* \"#utility.yul\":19744:19746   */\n      0x20\n        /* \"#utility.yul\":19733:19742   */\n      dup4\n        /* \"#utility.yul\":19729:19747   */\n      add\n        /* \"#utility.yul\":19720:19726   */\n      dup7\n        /* \"#utility.yul\":19665:19748   */\n      tag_419\n      jump\t// in\n    tag_667:\n        /* \"#utility.yul\":19795:19804   */\n      dup2\n        /* \"#utility.yul\":19789:19793   */\n      dup2\n        /* \"#utility.yul\":19785:19805   */\n      sub\n        /* \"#utility.yul\":19780:19782   */\n      0x40\n        /* \"#utility.yul\":19769:19778   */\n      dup4\n        /* \"#utility.yul\":19765:19783   */\n      add\n        /* \"#utility.yul\":19758:19806   */\n      mstore\n        /* \"#utility.yul\":19823:19901   */\n      tag_668\n        /* \"#utility.yul\":19896:19900   */\n      dup2\n        /* \"#utility.yul\":19887:19893   */\n      dup6\n        /* \"#utility.yul\":19823:19901   */\n      tag_385\n      jump\t// in\n    tag_668:\n        /* \"#utility.yul\":19815:19901   */\n      swap1\n      pop\n        /* \"#utility.yul\":19948:19957   */\n      dup2\n        /* \"#utility.yul\":19942:19946   */\n      dup2\n        /* \"#utility.yul\":19938:19958   */\n      sub\n        /* \"#utility.yul\":19933:19935   */\n      0x60\n        /* \"#utility.yul\":19922:19931   */\n      dup4\n        /* \"#utility.yul\":19918:19936   */\n      add\n        /* \"#utility.yul\":19911:19959   */\n      mstore\n        /* \"#utility.yul\":19976:20054   */\n      tag_669\n        /* \"#utility.yul\":20049:20053   */\n      dup2\n        /* \"#utility.yul\":20040:20046   */\n      dup5\n        /* \"#utility.yul\":19976:20054   */\n      tag_385\n      jump\t// in\n    tag_669:\n        /* \"#utility.yul\":19968:20054   */\n      swap1\n      pop\n        /* \"#utility.yul\":19304:20061   */\n      swap6\n      swap5\n      pop\n      pop\n      pop\n      pop\n      pop\n      jump\t// out\n        /* \"#utility.yul\":20067:20541   */\n    tag_90:\n        /* \"#utility.yul\":20135:20141   */\n      0x00\n        /* \"#utility.yul\":20143:20149   */\n      dup1\n        /* \"#utility.yul\":20192:20194   */\n      0x40\n        /* \"#utility.yul\":20180:20189   */\n      dup4\n        /* \"#utility.yul\":20171:20178   */\n      dup6\n        /* \"#utility.yul\":20167:20190   */\n      sub\n        /* \"#utility.yul\":20163:20195   */\n      slt\n        /* \"#utility.yul\":20160:20279   */\n      iszero\n      tag_671\n      jumpi\n        /* \"#utility.yul\":20198:20277   */\n      tag_672\n      tag_366\n      jump\t// in\n    tag_672:\n        /* \"#utility.yul\":20160:20279   */\n    tag_671:\n        /* \"#utility.yul\":20318:20319   */\n      0x00\n        /* \"#utility.yul\":20343:20396   */\n      tag_673\n        /* \"#utility.yul\":20388:20395   */\n      dup6\n        /* \"#utility.yul\":20379:20385   */\n      dup3\n        /* \"#utility.yul\":20368:20377   */\n      dup7\n        /* \"#utility.yul\":20364:20386   */\n      add\n        /* \"#utility.yul\":20343:20396   */\n      tag_374\n      jump\t// in\n    tag_673:\n        /* \"#utility.yul\":20333:20396   */\n      swap3\n      pop\n        /* \"#utility.yul\":20289:20406   */\n      pop\n        /* \"#utility.yul\":20445:20447   */\n      0x20\n        /* \"#utility.yul\":20471:20524   */\n      tag_674\n        /* \"#utility.yul\":20516:20523   */\n      dup6\n        /* \"#utility.yul\":20507:20513   */\n      dup3\n        /* \"#utility.yul\":20496:20505   */\n      dup7\n        /* \"#utility.yul\":20492:20514   */\n      add\n        /* \"#utility.yul\":20471:20524   */\n      tag_374\n      jump\t// in\n    tag_674:\n        /* \"#utility.yul\":20461:20524   */\n      swap2\n      pop\n        /* \"#utility.yul\":20416:20534   */\n      pop\n        /* \"#utility.yul\":20067:20541   */\n      swap3\n      pop\n      swap3\n      swap1\n      pop\n      jump\t// out\n        /* \"#utility.yul\":20547:21021   */\n    tag_95:\n        /* \"#utility.yul\":20615:20621   */\n      0x00\n        /* \"#utility.yul\":20623:20629   */\n      dup1\n        /* \"#utility.yul\":20672:20674   */\n      0x40\n        /* \"#utility.yul\":20660:20669   */\n      dup4\n        /* \"#utility.yul\":20651:20658   */\n      dup6\n        /* \"#utility.yul\":20647:20670   */\n      sub\n        /* \"#utility.yul\":20643:20675   */\n      slt\n        /* \"#utility.yul\":20640:20759   */\n      iszero\n      tag_676\n      jumpi\n        /* \"#utility.yul\":20678:20757   */\n      tag_677\n      tag_366\n      jump\t// in\n    tag_677:\n        /* \"#utility.yul\":20640:20759   */\n    tag_676:\n        /* \"#utility.yul\":20798:20799   */\n      0x00\n        /* \"#utility.yul\":20823:20876   */\n      tag_678\n        /* \"#utility.yul\":20868:20875   */\n      dup6\n        /* \"#utility.yul\":20859:20865   */\n      dup3\n        /* \"#utility.yul\":20848:20857   */\n      dup7\n        /* \"#utility.yul\":20844:20866   */\n      add\n        /* \"#utility.yul\":20823:20876   */\n      tag_371\n      jump\t// in\n    tag_678:\n        /* \"#utility.yul\":20813:20876   */\n      swap3\n      pop\n        /* \"#utility.yul\":20769:20886   */\n      pop\n        /* \"#utility.yul\":20925:20927   */\n      0x20\n        /* \"#utility.yul\":20951:21004   */\n      tag_679\n        /* \"#utility.yul\":20996:21003   */\n      dup6\n        /* \"#utility.yul\":20987:20993   */\n      dup3\n        /* \"#utility.yul\":20976:20985   */\n      dup7\n        /* \"#utility.yul\":20972:20994   */\n      add\n        /* \"#utility.yul\":20951:21004   */\n      tag_371\n      jump\t// in\n    tag_679:\n        /* \"#utility.yul\":20941:21004   */\n      swap2\n      pop\n        /* \"#utility.yul\":20896:21014   */\n      pop\n        /* \"#utility.yul\":20547:21021   */\n      swap3\n      pop\n      swap3\n      swap1\n      pop\n      jump\t// out\n        /* \"#utility.yul\":21027:22116   */\n    tag_101:\n        /* \"#utility.yul\":21131:21137   */\n      0x00\n        /* \"#utility.yul\":21139:21145   */\n      dup1\n        /* \"#utility.yul\":21147:21153   */\n      0x00\n        /* \"#utility.yul\":21155:21161   */\n      dup1\n        /* \"#utility.yul\":21163:21169   */\n      0x00\n        /* \"#utility.yul\":21212:21215   */\n      0xa0\n        /* \"#utility.yul\":21200:21209   */\n      dup7\n        /* \"#utility.yul\":21191:21198   */\n      dup9\n        /* \"#utility.yul\":21187:21210   */\n      sub\n        /* \"#utility.yul\":21183:21216   */\n      slt\n        /* \"#utility.yul\":21180:21300   */\n      iszero\n      tag_681\n      jumpi\n        /* \"#utility.yul\":21219:21298   */\n      tag_682\n      tag_366\n      jump\t// in\n    tag_682:\n        /* \"#utility.yul\":21180:21300   */\n    tag_681:\n        /* \"#utility.yul\":21339:21340   */\n      0x00\n        /* \"#utility.yul\":21364:21417   */\n      tag_683\n        /* \"#utility.yul\":21409:21416   */\n      dup9\n        /* \"#utility.yul\":21400:21406   */\n      dup3\n        /* \"#utility.yul\":21389:21398   */\n      dup10\n        /* \"#utility.yul\":21385:21407   */\n      add\n        /* \"#utility.yul\":21364:21417   */\n      tag_371\n      jump\t// in\n    tag_683:\n        /* \"#utility.yul\":21354:21417   */\n      swap6\n      pop\n        /* \"#utility.yul\":21310:21427   */\n      pop\n        /* \"#utility.yul\":21466:21468   */\n      0x20\n        /* \"#utility.yul\":21492:21545   */\n      tag_684\n        /* \"#utility.yul\":21537:21544   */\n      dup9\n        /* \"#utility.yul\":21528:21534   */\n      dup3\n        /* \"#utility.yul\":21517:21526   */\n      dup10\n        /* \"#utility.yul\":21513:21535   */\n      add\n        /* \"#utility.yul\":21492:21545   */\n      tag_371\n      jump\t// in\n    tag_684:\n        /* \"#utility.yul\":21482:21545   */\n      swap5\n      pop\n        /* \"#utility.yul\":21437:21555   */\n      pop\n        /* \"#utility.yul\":21594:21596   */\n      0x40\n        /* \"#utility.yul\":21620:21673   */\n      tag_685\n        /* \"#utility.yul\":21665:21672   */\n      dup9\n        /* \"#utility.yul\":21656:21662   */\n      dup3\n        /* \"#utility.yul\":21645:21654   */\n      dup10\n        /* \"#utility.yul\":21641:21663   */\n      add\n        /* \"#utility.yul\":21620:21673   */\n      tag_374\n      jump\t// in\n    tag_685:\n        /* \"#utility.yul\":21610:21673   */\n      swap4\n      pop\n        /* \"#utility.yul\":21565:21683   */\n      pop\n        /* \"#utility.yul\":21722:21724   */\n      0x60\n        /* \"#utility.yul\":21748:21801   */\n      tag_686\n        /* \"#utility.yul\":21793:21800   */\n      dup9\n        /* \"#utility.yul\":21784:21790   */\n      dup3\n        /* \"#utility.yul\":21773:21782   */\n      dup10\n        /* \"#utility.yul\":21769:21791   */\n      add\n        /* \"#utility.yul\":21748:21801   */\n      tag_374\n      jump\t// in\n    tag_686:\n        /* \"#utility.yul\":21738:21801   */\n      swap3\n      pop\n        /* \"#utility.yul\":21693:21811   */\n      pop\n        /* \"#utility.yul\":21878:21881   */\n      0x80\n        /* \"#utility.yul\":21867:21876   */\n      dup7\n        /* \"#utility.yul\":21863:21882   */\n      add\n        /* \"#utility.yul\":21850:21883   */\n      calldataload\n        /* \"#utility.yul\":21910:21928   */\n      0xffffffffffffffff\n        /* \"#utility.yul\":21902:21908   */\n      dup2\n        /* \"#utility.yul\":21899:21929   */\n      gt\n        /* \"#utility.yul\":21896:22013   */\n      iszero\n      tag_687\n      jumpi\n        /* \"#utility.yul\":21932:22011   */\n      tag_688\n      tag_367\n      jump\t// in\n    tag_688:\n        /* \"#utility.yul\":21896:22013   */\n    tag_687:\n        /* \"#utility.yul\":22037:22099   */\n      tag_689\n        /* \"#utility.yul\":22091:22098   */\n      dup9\n        /* \"#utility.yul\":22082:22088   */\n      dup3\n        /* \"#utility.yul\":22071:22080   */\n      dup10\n        /* \"#utility.yul\":22067:22089   */\n      add\n        /* \"#utility.yul\":22037:22099   */\n      tag_397\n      jump\t// in\n    tag_689:\n        /* \"#utility.yul\":22027:22099   */\n      swap2\n      pop\n        /* \"#utility.yul\":21821:22109   */\n      pop\n        /* \"#utility.yul\":21027:22116   */\n      swap3\n      swap6\n      pop\n      swap3\n      swap6\n      swap1\n      swap4\n      pop\n      jump\t// out\n        /* \"#utility.yul\":22122:22451   */\n    tag_106:\n        /* \"#utility.yul\":22181:22187   */\n      0x00\n        /* \"#utility.yul\":22230:22232   */\n      0x20\n        /* \"#utility.yul\":22218:22227   */\n      dup3\n        /* \"#utility.yul\":22209:22216   */\n      dup5\n        /* \"#utility.yul\":22205:22228   */\n      sub\n        /* \"#utility.yul\":22201:22233   */\n      slt\n        /* \"#utility.yul\":22198:22317   */\n      iszero\n      tag_691\n      jumpi\n        /* \"#utility.yul\":22236:22315   */\n      tag_692\n      tag_366\n      jump\t// in\n    tag_692:\n        /* \"#utility.yul\":22198:22317   */\n    tag_691:\n        /* \"#utility.yul\":22356:22357   */\n      0x00\n        /* \"#utility.yul\":22381:22434   */\n      tag_693\n        /* \"#utility.yul\":22426:22433   */\n      dup5\n        /* \"#utility.yul\":22417:22423   */\n      dup3\n        /* \"#utility.yul\":22406:22415   */\n      dup6\n        /* \"#utility.yul\":22402:22424   */\n      add\n        /* \"#utility.yul\":22381:22434   */\n      tag_371\n      jump\t// in\n    tag_693:\n        /* \"#utility.yul\":22371:22434   */\n      swap2\n      pop\n        /* \"#utility.yul\":22327:22444   */\n      pop\n        /* \"#utility.yul\":22122:22451   */\n      swap3\n      swap2\n      pop\n      pop\n      jump\t// out\n        /* \"#utility.yul\":22457:22637   */\n    tag_420:\n        /* \"#utility.yul\":22505:22582   */\n      0x4e487b7100000000000000000000000000000000000000000000000000000000\n        /* \"#utility.yul\":22502:22503   */\n      0x00\n        /* \"#utility.yul\":22495:22583   */\n      mstore\n        /* \"#utility.yul\":22602:22606   */\n      0x22\n        /* \"#utility.yul\":22599:22600   */\n      0x04\n        /* \"#utility.yul\":22592:22607   */\n      mstore\n        /* \"#utility.yul\":22626:22630   */\n      0x24\n        /* \"#utility.yul\":22623:22624   */\n      0x00\n        /* \"#utility.yul\":22616:22631   */\n      revert\n        /* \"#utility.yul\":22643:22963   */\n    tag_116:\n        /* \"#utility.yul\":22687:22693   */\n      0x00\n        /* \"#utility.yul\":22724:22725   */\n      0x02\n        /* \"#utility.yul\":22718:22722   */\n      dup3\n        /* \"#utility.yul\":22714:22726   */\n      div\n        /* \"#utility.yul\":22704:22726   */\n      swap1\n      pop\n        /* \"#utility.yul\":22771:22772   */\n      0x01\n        /* \"#utility.yul\":22765:22769   */\n      dup3\n        /* \"#utility.yul\":22761:22773   */\n      and\n        /* \"#utility.yul\":22792:22810   */\n      dup1\n        /* \"#utility.yul\":22782:22863   */\n      tag_696\n      jumpi\n        /* \"#utility.yul\":22848:22852   */\n      0x7f\n        /* \"#utility.yul\":22840:22846   */\n      dup3\n        /* \"#utility.yul\":22836:22853   */\n      and\n        /* \"#utility.yul\":22826:22853   */\n      swap2\n      pop\n        /* \"#utility.yul\":22782:22863   */\n    tag_696:\n        /* \"#utility.yul\":22910:22912   */\n      0x20\n        /* \"#utility.yul\":22902:22908   */\n      dup3\n        /* \"#utility.yul\":22899:22913   */\n      lt\n        /* \"#utility.yul\":22879:22897   */\n      dup2\n        /* \"#utility.yul\":22876:22914   */\n      sub\n        /* \"#utility.yul\":22873:22957   */\n      tag_697\n      jumpi\n        /* \"#utility.yul\":22929:22947   */\n      tag_698\n      tag_420\n      jump\t// in\n    tag_698:\n        /* \"#utility.yul\":22873:22957   */\n    tag_697:\n        /* \"#utility.yul\":22694:22963   */\n      pop\n        /* \"#utility.yul\":22643:22963   */\n      swap2\n      swap1\n      pop\n      jump\t// out\n        /* \"#utility.yul\":22969:23301   */\n    tag_128:\n        /* \"#utility.yul\":23090:23094   */\n      0x00\n        /* \"#utility.yul\":23128:23130   */\n      0x40\n        /* \"#utility.yul\":23117:23126   */\n      dup3\n        /* \"#utility.yul\":23113:23131   */\n      add\n        /* \"#utility.yul\":23105:23131   */\n      swap1\n      pop\n        /* \"#utility.yul\":23141:23212   */\n      tag_700\n        /* \"#utility.yul\":23209:23210   */\n      0x00\n        /* \"#utility.yul\":23198:23207   */\n      dup4\n        /* \"#utility.yul\":23194:23211   */\n      add\n        /* \"#utility.yul\":23185:23191   */\n      dup6\n        /* \"#utility.yul\":23141:23212   */\n      tag_413\n      jump\t// in\n    tag_700:\n        /* \"#utility.yul\":23222:23294   */\n      tag_701\n        /* \"#utility.yul\":23290:23292   */\n      0x20\n        /* \"#utility.yul\":23279:23288   */\n      dup4\n        /* \"#utility.yul\":23275:23293   */\n      add\n        /* \"#utility.yul\":23266:23272   */\n      dup5\n        /* \"#utility.yul\":23222:23294   */\n      tag_413\n      jump\t// in\n    tag_701:\n        /* \"#utility.yul\":22969:23301   */\n      swap4\n      swap3\n      pop\n      pop\n      pop\n      jump\t// out\n        /* \"#utility.yul\":23307:23639   */\n    tag_134:\n        /* \"#utility.yul\":23428:23432   */\n      0x00\n        /* \"#utility.yul\":23466:23468   */\n      0x40\n        /* \"#utility.yul\":23455:23464   */\n      dup3\n        /* \"#utility.yul\":23451:23469   */\n      add\n        /* \"#utility.yul\":23443:23469   */\n      swap1\n      pop\n        /* \"#utility.yul\":23479:23550   */\n      tag_703\n        /* \"#utility.yul\":23547:23548   */\n      0x00\n        /* \"#utility.yul\":23536:23545   */\n      dup4\n        /* \"#utility.yul\":23532:23549   */\n      add\n        /* \"#utility.yul\":23523:23529   */\n      dup6\n        /* \"#utility.yul\":23479:23550   */\n      tag_375\n      jump\t// in\n    tag_703:\n        /* \"#utility.yul\":23560:23632   */\n      tag_704\n        /* \"#utility.yul\":23628:23630   */\n      0x20\n        /* \"#utility.yul\":23617:23626   */\n      dup4\n        /* \"#utility.yul\":23613:23631   */\n      add\n        /* \"#utility.yul\":23604:23610   */\n      dup5\n        /* \"#utility.yul\":23560:23632   */\n      tag_375\n      jump\t// in\n    tag_704:\n        /* \"#utility.yul\":23307:23639   */\n      swap4\n      swap3\n      pop\n      pop\n      pop\n      jump\t// out\n        /* \"#utility.yul\":23645:23825   */\n    tag_149:\n        /* \"#utility.yul\":23693:23770   */\n      0x4e487b7100000000000000000000000000000000000000000000000000000000\n        /* \"#utility.yul\":23690:23691   */\n      0x00\n        /* \"#utility.yul\":23683:23771   */\n      mstore\n        /* \"#utility.yul\":23790:23794   */\n      0x32\n        /* \"#utility.yul\":23787:23788   */\n      0x04\n        /* \"#utility.yul\":23780:23795   */\n      mstore\n        /* \"#utility.yul\":23814:23818   */\n      0x24\n        /* \"#utility.yul\":23811:23812   */\n      0x00\n        /* \"#utility.yul\":23804:23819   */\n      revert\n        /* \"#utility.yul\":23831:24011   */\n    tag_421:\n        /* \"#utility.yul\":23879:23956   */\n      0x4e487b7100000000000000000000000000000000000000000000000000000000\n        /* \"#utility.yul\":23876:23877   */\n      0x00\n        /* \"#utility.yul\":23869:23957   */\n      mstore\n        /* \"#utility.yul\":23976:23980   */\n      0x11\n        /* \"#utility.yul\":23973:23974   */\n      0x04\n        /* \"#utility.yul\":23966:23981   */\n      mstore\n        /* \"#utility.yul\":24000:24004   */\n      0x24\n        /* \"#utility.yul\":23997:23998   */\n      0x00\n        /* \"#utility.yul\":23990:24005   */\n      revert\n        /* \"#utility.yul\":24017:24250   */\n    tag_151:\n        /* \"#utility.yul\":24056:24059   */\n      0x00\n        /* \"#utility.yul\":24079:24103   */\n      tag_708\n        /* \"#utility.yul\":24097:24102   */\n      dup3\n        /* \"#utility.yul\":24079:24103   */\n      tag_372\n      jump\t// in\n    tag_708:\n        /* \"#utility.yul\":24070:24103   */\n      swap2\n      pop\n        /* \"#utility.yul\":24125:24191   */\n      0xffffffffffffffffffffffffffffffffffffffffffffffffffffffffffffffff\n        /* \"#utility.yul\":24118:24123   */\n      dup3\n        /* \"#utility.yul\":24115:24192   */\n      sub\n        /* \"#utility.yul\":24112:24215   */\n      tag_709\n      jumpi\n        /* \"#utility.yul\":24195:24213   */\n      tag_710\n      tag_421\n      jump\t// in\n    tag_710:\n        /* \"#utility.yul\":24112:24215   */\n    tag_709:\n        /* \"#utility.yul\":24242:24243   */\n      0x01\n        /* \"#utility.yul\":24235:24240   */\n      dup3\n        /* \"#utility.yul\":24231:24244   */\n      add\n        /* \"#utility.yul\":24224:24244   */\n      swap1\n      pop\n        /* \"#utility.yul\":24017:24250   */\n      swap2\n      swap1\n      pop\n      jump\t// out\n        /* \"#utility.yul\":24256:24426   */\n    tag_422:\n        /* \"#utility.yul\":24396:24418   */\n      0x4974656d20646f6573206e6f742065786973742e000000000000000000000000\n        /* \"#utility.yul\":24392:24393   */\n      0x00\n        /* \"#utility.yul\":24384:24390   */\n      dup3\n        /* \"#utility.yul\":24380:24394   */\n      add\n        /* \"#utility.yul\":24373:24419   */\n      mstore\n        /* \"#utility.yul\":24256:24426   */\n      pop\n      jump\t// out\n        /* \"#utility.yul\":24432:24798   */\n    tag_423:\n        /* \"#utility.yul\":24574:24577   */\n      0x00\n        /* \"#utility.yul\":24595:24662   */\n      tag_713\n        /* \"#utility.yul\":24659:24661   */\n      0x14\n        /* \"#utility.yul\":24654:24657   */\n      dup4\n        /* \"#utility.yul\":24595:24662   */\n      tag_382\n      jump\t// in\n    tag_713:\n        /* \"#utility.yul\":24588:24662   */\n      swap2\n      pop\n        /* \"#utility.yul\":24671:24764   */\n      tag_714\n        /* \"#utility.yul\":24760:24763   */\n      dup3\n        /* \"#utility.yul\":24671:24764   */\n      tag_422\n      jump\t// in\n    tag_714:\n        /* \"#utility.yul\":24789:24791   */\n      0x20\n        /* \"#utility.yul\":24784:24787   */\n      dup3\n        /* \"#utility.yul\":24780:24792   */\n      add\n        /* \"#utility.yul\":24773:24792   */\n      swap1\n      pop\n        /* \"#utility.yul\":24432:24798   */\n      swap2\n      swap1\n      pop\n      jump\t// out\n        /* \"#utility.yul\":24804:25223   */\n    tag_158:\n        /* \"#utility.yul\":24970:24974   */\n      0x00\n        /* \"#utility.yul\":25008:25010   */\n      0x20\n        /* \"#utility.yul\":24997:25006   */\n      dup3\n        /* \"#utility.yul\":24993:25011   */\n      add\n        /* \"#utility.yul\":24985:25011   */\n      swap1\n      pop\n        /* \"#utility.yul\":25057:25066   */\n      dup2\n        /* \"#utility.yul\":25051:25055   */\n      dup2\n        /* \"#utility.yul\":25047:25067   */\n      sub\n        /* \"#utility.yul\":25043:25044   */\n      0x00\n        /* \"#utility.yul\":25032:25041   */\n      dup4\n        /* \"#utility.yul\":25028:25045   */\n      add\n        /* \"#utility.yul\":25021:25068   */\n      mstore\n        /* \"#utility.yul\":25085:25216   */\n      tag_716\n        /* \"#utility.yul\":25211:25215   */\n      dup2\n        /* \"#utility.yul\":25085:25216   */\n      tag_423\n      jump\t// in\n    tag_716:\n        /* \"#utility.yul\":25077:25216   */\n      swap1\n      pop\n        /* \"#utility.yul\":24804:25223   */\n      swap2\n      swap1\n      pop\n      jump\t// out\n        /* \"#utility.yul\":25229:25370   */\n    tag_424:\n        /* \"#utility.yul\":25278:25282   */\n      0x00\n        /* \"#utility.yul\":25301:25304   */\n      dup2\n        /* \"#utility.yul\":25293:25304   */\n      swap1\n      pop\n        /* \"#utility.yul\":25324:25327   */\n      dup2\n        /* \"#utility.yul\":25321:25322   */\n      0x00\n        /* \"#utility.yul\":25314:25328   */\n      mstore\n        /* \"#utility.yul\":25358:25362   */\n      0x20\n        /* \"#utility.yul\":25355:25356   */\n      0x00\n        /* \"#utility.yul\":25345:25363   */\n      keccak256\n        /* \"#utility.yul\":25337:25363   */\n      swap1\n      pop\n        /* \"#utility.yul\":25229:25370   */\n      swap2\n      swap1\n      pop\n      jump\t// out\n        /* \"#utility.yul\":25376:25469   */\n    tag_425:\n        /* \"#utility.yul\":25413:25419   */\n      0x00\n        /* \"#utility.yul\":25460:25462   */\n      0x20\n        /* \"#utility.yul\":25455:25457   */\n      0x1f\n        /* \"#utility.yul\":25448:25453   */\n      dup4\n        /* \"#utility.yul\":25444:25458   */\n      add\n        /* \"#utility.yul\":25440:25463   */\n      div\n        /* \"#utility.yul\":25430:25463   */\n      swap1\n      pop\n        /* \"#utility.yul\":25376:25469   */\n      swap2\n      swap1\n      pop\n      jump\t// out\n        /* \"#utility.yul\":25475:25582   */\n    tag_426:\n        /* \"#utility.yul\":25519:25527   */\n      0x00\n        /* \"#utility.yul\":25569:25574   */\n      dup3\n        /* \"#utility.yul\":25563:25567   */\n      dup3\n        /* \"#utility.yul\":25559:25575   */\n      shl\n        /* \"#utility.yul\":25538:25575   */\n      swap1\n      pop\n        /* \"#utility.yul\":25475:25582   */\n      swap3\n      swap2\n      pop\n      pop\n      jump\t// out\n        /* \"#utility.yul\":25588:25981   */\n    tag_427:\n        /* \"#utility.yul\":25657:25663   */\n      0x00\n        /* \"#utility.yul\":25707:25708   */\n      0x08\n        /* \"#utility.yul\":25695:25705   */\n      dup4\n        /* \"#utility.yul\":25691:25709   */\n      mul\n        /* \"#utility.yul\":25730:25827   */\n      tag_721\n        /* \"#utility.yul\":25760:25826   */\n      0xffffffffffffffffffffffffffffffffffffffffffffffffffffffffffffffff\n        /* \"#utility.yul\":25749:25758   */\n      dup3\n        /* \"#utility.yul\":25730:25827   */\n      tag_426\n      jump\t// in\n    tag_721:\n        /* \"#utility.yul\":25848:25887   */\n      tag_722\n        /* \"#utility.yul\":25878:25886   */\n      dup7\n        /* \"#utility.yul\":25867:25876   */\n      dup4\n        /* \"#utility.yul\":25848:25887   */\n      tag_426\n      jump\t// in\n    tag_722:\n        /* \"#utility.yul\":25836:25887   */\n      swap6\n      pop\n        /* \"#utility.yul\":25920:25924   */\n      dup1\n        /* \"#utility.yul\":25916:25925   */\n      not\n        /* \"#utility.yul\":25909:25914   */\n      dup5\n        /* \"#utility.yul\":25905:25926   */\n      and\n        /* \"#utility.yul\":25896:25926   */\n      swap4\n      pop\n        /* \"#utility.yul\":25969:25973   */\n      dup1\n        /* \"#utility.yul\":25959:25967   */\n      dup7\n        /* \"#utility.yul\":25955:25974   */\n      and\n        /* \"#utility.yul\":25948:25953   */\n      dup5\n        /* \"#utility.yul\":25945:25975   */\n      or\n        /* \"#utility.yul\":25935:25975   */\n      swap3\n      pop\n        /* \"#utility.yul\":25664:25981   */\n      pop\n      pop\n        /* \"#utility.yul\":25588:25981   */\n      swap4\n      swap3\n      pop\n      pop\n      pop\n      jump\t// out\n        /* \"#utility.yul\":25987:26047   */\n    tag_428:\n        /* \"#utility.yul\":26015:26018   */\n      0x00\n        /* \"#utility.yul\":26036:26041   */\n      dup2\n        /* \"#utility.yul\":26029:26041   */\n      swap1\n      pop\n        /* \"#utility.yul\":25987:26047   */\n      swap2\n      swap1\n      pop\n      jump\t// out\n        /* \"#utility.yul\":26053:26195   */\n    tag_429:\n        /* \"#utility.yul\":26103:26112   */\n      0x00\n        /* \"#utility.yul\":26136:26189   */\n      tag_725\n        /* \"#utility.yul\":26154:26188   */\n      tag_726\n        /* \"#utility.yul\":26163:26187   */\n      tag_727\n        /* \"#utility.yul\":26181:26186   */\n      dup5\n        /* \"#utility.yul\":26163:26187   */\n      tag_372\n      jump\t// in\n    tag_727:\n        /* \"#utility.yul\":26154:26188   */\n      tag_428\n      jump\t// in\n    tag_726:\n        /* \"#utility.yul\":26136:26189   */\n      tag_372\n      jump\t// in\n    tag_725:\n        /* \"#utility.yul\":26123:26189   */\n      swap1\n      pop\n        /* \"#utility.yul\":26053:26195   */\n      swap2\n      swap1\n      pop\n      jump\t// out\n        /* \"#utility.yul\":26201:26276   */\n    tag_430:\n        /* \"#utility.yul\":26244:26247   */\n      0x00\n        /* \"#utility.yul\":26265:26270   */\n      dup2\n        /* \"#utility.yul\":26258:26270   */\n      swap1\n      pop\n        /* \"#utility.yul\":26201:26276   */\n      swap2\n      swap1\n      pop\n      jump\t// out\n        /* \"#utility.yul\":26282:26551   */\n    tag_431:\n        /* \"#utility.yul\":26392:26431   */\n      tag_730\n        /* \"#utility.yul\":26423:26430   */\n      dup4\n        /* \"#utility.yul\":26392:26431   */\n      tag_429\n      jump\t// in\n    tag_730:\n        /* \"#utility.yul\":26453:26544   */\n      tag_731\n        /* \"#utility.yul\":26502:26543   */\n      tag_732\n        /* \"#utility.yul\":26526:26542   */\n      dup3\n        /* \"#utility.yul\":26502:26543   */\n      tag_430\n      jump\t// in\n    tag_732:\n        /* \"#utility.yul\":26494:26500   */\n      dup5\n        /* \"#utility.yul\":26487:26491   */\n      dup5\n        /* \"#utility.yul\":26481:26492   */\n      sload\n        /* \"#utility.yul\":26453:26544   */\n      tag_427\n      jump\t// in\n    tag_731:\n        /* \"#utility.yul\":26447:26451   */\n      dup3\n        /* \"#utility.yul\":26440:26545   */\n      sstore\n        /* \"#utility.yul\":26358:26551   */\n      pop\n        /* \"#utility.yul\":26282:26551   */\n      pop\n      pop\n      pop\n      jump\t// out\n        /* \"#utility.yul\":26557:26630   */\n    tag_432:\n        /* \"#utility.yul\":26602:26605   */\n      0x00\n        /* \"#utility.yul\":26557:26630   */\n      swap1\n      jump\t// out\n        /* \"#utility.yul\":26636:26825   */\n    tag_433:\n        /* \"#utility.yul\":26713:26745   */\n      tag_735\n      tag_432\n      jump\t// in\n    tag_735:\n        /* \"#utility.yul\":26754:26819   */\n      tag_736\n        /* \"#utility.yul\":26812:26818   */\n      dup2\n        /* \"#utility.yul\":26804:26810   */\n      dup5\n        /* \"#utility.yul\":26798:26802   */\n      dup5\n        /* \"#utility.yul\":26754:26819   */\n      tag_431\n      jump\t// in\n    tag_736:\n        /* \"#utility.yul\":26689:26825   */\n      pop\n        /* \"#utility.yul\":26636:26825   */\n      pop\n      pop\n      jump\t// out\n        /* \"#utility.yul\":26831:27017   */\n    tag_434:\n        /* \"#utility.yul\":26891:27011   */\n    tag_738:\n        /* \"#utility.yul\":26908:26911   */\n      dup2\n        /* \"#utility.yul\":26901:26906   */\n      dup2\n        /* \"#utility.yul\":26898:26912   */\n      lt\n        /* \"#utility.yul\":26891:27011   */\n      iszero\n      tag_740\n      jumpi\n        /* \"#utility.yul\":26962:27001   */\n      tag_741\n        /* \"#utility.yul\":26999:27000   */\n      0x00\n        /* \"#utility.yul\":26992:26997   */\n      dup3\n        /* \"#utility.yul\":26962:27001   */\n      tag_433\n      jump\t// in\n    tag_741:\n        /* \"#utility.yul\":26935:26936   */\n      0x01\n        /* \"#utility.yul\":26928:26933   */\n      dup2\n        /* \"#utility.yul\":26924:26937   */\n      add\n        /* \"#utility.yul\":26915:26937   */\n      swap1\n      pop\n        /* \"#utility.yul\":26891:27011   */\n      jump(tag_738)\n    tag_740:\n        /* \"#utility.yul\":26831:27017   */\n      pop\n      pop\n      jump\t// out\n        /* \"#utility.yul\":27023:27566   */\n    tag_435:\n        /* \"#utility.yul\":27124:27126   */\n      0x1f\n        /* \"#utility.yul\":27119:27122   */\n      dup3\n        /* \"#utility.yul\":27116:27127   */\n      gt\n        /* \"#utility.yul\":27113:27559   */\n      iszero\n      tag_743\n      jumpi\n        /* \"#utility.yul\":27158:27196   */\n      tag_744\n        /* \"#utility.yul\":27190:27195   */\n      dup2\n        /* \"#utility.yul\":27158:27196   */\n      tag_424\n      jump\t// in\n    tag_744:\n        /* \"#utility.yul\":27242:27271   */\n      tag_745\n        /* \"#utility.yul\":27260:27270   */\n      dup5\n        /* \"#utility.yul\":27242:27271   */\n      tag_425\n      jump\t// in\n    tag_745:\n        /* \"#utility.yul\":27232:27240   */\n      dup2\n        /* \"#utility.yul\":27228:27272   */\n      add\n        /* \"#utility.yul\":27425:27427   */\n      0x20\n        /* \"#utility.yul\":27413:27423   */\n      dup6\n        /* \"#utility.yul\":27410:27428   */\n      lt\n        /* \"#utility.yul\":27407:27456   */\n      iszero\n      tag_746\n      jumpi\n        /* \"#utility.yul\":27446:27454   */\n      dup2\n        /* \"#utility.yul\":27431:27454   */\n      swap1\n      pop\n        /* \"#utility.yul\":27407:27456   */\n    tag_746:\n        /* \"#utility.yul\":27469:27549   */\n      tag_747\n        /* \"#utility.yul\":27525:27547   */\n      tag_748\n        /* \"#utility.yul\":27543:27546   */\n      dup6\n        /* \"#utility.yul\":27525:27547   */\n      tag_425\n      jump\t// in\n    tag_748:\n        /* \"#utility.yul\":27515:27523   */\n      dup4\n        /* \"#utility.yul\":27511:27548   */\n      add\n        /* \"#utility.yul\":27498:27509   */\n      dup3\n        /* \"#utility.yul\":27469:27549   */\n      tag_434\n      jump\t// in\n    tag_747:\n        /* \"#utility.yul\":27128:27559   */\n      pop\n      pop\n        /* \"#utility.yul\":27113:27559   */\n    tag_743:\n        /* \"#utility.yul\":27023:27566   */\n      pop\n      pop\n      pop\n      jump\t// out\n        /* \"#utility.yul\":27572:27689   */\n    tag_436:\n        /* \"#utility.yul\":27626:27634   */\n      0x00\n        /* \"#utility.yul\":27676:27681   */\n      dup3\n        /* \"#utility.yul\":27670:27674   */\n      dup3\n        /* \"#utility.yul\":27666:27682   */\n      shr\n        /* \"#utility.yul\":27645:27682   */\n      swap1\n      pop\n        /* \"#utility.yul\":27572:27689   */\n      swap3\n      swap2\n      pop\n      pop\n      jump\t// out\n        /* \"#utility.yul\":27695:27864   */\n    tag_437:\n        /* \"#utility.yul\":27739:27745   */\n      0x00\n        /* \"#utility.yul\":27772:27823   */\n      tag_751\n        /* \"#utility.yul\":27820:27821   */\n      0x00\n        /* \"#utility.yul\":27816:27822   */\n      not\n        /* \"#utility.yul\":27808:27813   */\n      dup5\n        /* \"#utility.yul\":27805:27806   */\n      0x08\n        /* \"#utility.yul\":27801:27814   */\n      mul\n        /* \"#utility.yul\":27772:27823   */\n      tag_436\n      jump\t// in\n    tag_751:\n        /* \"#utility.yul\":27768:27824   */\n      not\n        /* \"#utility.yul\":27853:27857   */\n      dup1\n        /* \"#utility.yul\":27847:27851   */\n      dup4\n        /* \"#utility.yul\":27843:27858   */\n      and\n        /* \"#utility.yul\":27833:27858   */\n      swap2\n      pop\n        /* \"#utility.yul\":27746:27864   */\n      pop\n        /* \"#utility.yul\":27695:27864   */\n      swap3\n      swap2\n      pop\n      pop\n      jump\t// out\n        /* \"#utility.yul\":27869:28164   */\n    tag_438:\n        /* \"#utility.yul\":27945:27949   */\n      0x00\n        /* \"#utility.yul\":28091:28120   */\n      tag_753\n        /* \"#utility.yul\":28116:28119   */\n      dup4\n        /* \"#utility.yul\":28110:28114   */\n      dup4\n        /* \"#utility.yul\":28091:28120   */\n      tag_437\n      jump\t// in\n    tag_753:\n        /* \"#utility.yul\":28083:28120   */\n      swap2\n      pop\n        /* \"#utility.yul\":28153:28156   */\n      dup3\n        /* \"#utility.yul\":28150:28151   */\n      0x02\n        /* \"#utility.yul\":28146:28157   */\n      mul\n        /* \"#utility.yul\":28140:28144   */\n      dup3\n        /* \"#utility.yul\":28137:28158   */\n      or\n        /* \"#utility.yul\":28129:28158   */\n      swap1\n      pop\n        /* \"#utility.yul\":27869:28164   */\n      swap3\n      swap2\n      pop\n      pop\n      jump\t// out\n        /* \"#utility.yul\":28169:29564   */\n    tag_174:\n        /* \"#utility.yul\":28286:28323   */\n      tag_755\n        /* \"#utility.yul\":28319:28322   */\n      dup3\n        /* \"#utility.yul\":28286:28323   */\n      tag_381\n      jump\t// in\n    tag_755:\n        /* \"#utility.yul\":28388:28406   */\n      0xffffffffffffffff\n        /* \"#utility.yul\":28380:28386   */\n      dup2\n        /* \"#utility.yul\":28377:28407   */\n      gt\n        /* \"#utility.yul\":28374:28430   */\n      iszero\n      tag_756\n      jumpi\n        /* \"#utility.yul\":28410:28428   */\n      tag_757\n      tag_137\n      jump\t// in\n    tag_757:\n        /* \"#utility.yul\":28374:28430   */\n    tag_756:\n        /* \"#utility.yul\":28454:28492   */\n      tag_758\n        /* \"#utility.yul\":28486:28490   */\n      dup3\n        /* \"#utility.yul\":28480:28491   */\n      sload\n        /* \"#utility.yul\":28454:28492   */\n      tag_116\n      jump\t// in\n    tag_758:\n        /* \"#utility.yul\":28539:28606   */\n      tag_759\n        /* \"#utility.yul\":28599:28605   */\n      dup3\n        /* \"#utility.yul\":28591:28597   */\n      dup3\n        /* \"#utility.yul\":28585:28589   */\n      dup6\n        /* \"#utility.yul\":28539:28606   */\n      tag_435\n      jump\t// in\n    tag_759:\n        /* \"#utility.yul\":28633:28634   */\n      0x00\n        /* \"#utility.yul\":28657:28661   */\n      0x20\n        /* \"#utility.yul\":28644:28661   */\n      swap1\n      pop\n        /* \"#utility.yul\":28689:28691   */\n      0x1f\n        /* \"#utility.yul\":28681:28687   */\n      dup4\n        /* \"#utility.yul\":28678:28692   */\n      gt\n        /* \"#utility.yul\":28706:28707   */\n      0x01\n        /* \"#utility.yul\":28701:29319   */\n      dup2\n      eq\n      tag_761\n      jumpi\n        /* \"#utility.yul\":29363:29364   */\n      0x00\n        /* \"#utility.yul\":29380:29386   */\n      dup5\n        /* \"#utility.yul\":29377:29454   */\n      iszero\n      tag_762\n      jumpi\n        /* \"#utility.yul\":29429:29438   */\n      dup3\n        /* \"#utility.yul\":29424:29427   */\n      dup8\n        /* \"#utility.yul\":29420:29439   */\n      add\n        /* \"#utility.yul\":29414:29440   */\n      mload\n        /* \"#utility.yul\":29405:29440   */\n      swap1\n      pop\n        /* \"#utility.yul\":29377:29454   */\n    tag_762:\n        /* \"#utility.yul\":29480:29547   */\n      tag_763\n        /* \"#utility.yul\":29540:29546   */\n      dup6\n        /* \"#utility.yul\":29533:29538   */\n      dup3\n        /* \"#utility.yul\":29480:29547   */\n      tag_438\n      jump\t// in\n    tag_763:\n        /* \"#utility.yul\":29474:29478   */\n      dup7\n        /* \"#utility.yul\":29467:29548   */\n      sstore\n        /* \"#utility.yul\":29336:29558   */\n      pop\n        /* \"#utility.yul\":28671:29558   */\n      jump(tag_760)\n        /* \"#utility.yul\":28701:29319   */\n    tag_761:\n        /* \"#utility.yul\":28753:28757   */\n      0x1f\n        /* \"#utility.yul\":28749:28758   */\n      not\n        /* \"#utility.yul\":28741:28747   */\n      dup5\n        /* \"#utility.yul\":28737:28759   */\n      and\n        /* \"#utility.yul\":28787:28824   */\n      tag_764\n        /* \"#utility.yul\":28819:28823   */\n      dup7\n        /* \"#utility.yul\":28787:28824   */\n      tag_424\n      jump\t// in\n    tag_764:\n        /* \"#utility.yul\":28846:28847   */\n      0x00\n        /* \"#utility.yul\":28860:29068   */\n    tag_765:\n        /* \"#utility.yul\":28874:28881   */\n      dup3\n        /* \"#utility.yul\":28871:28872   */\n      dup2\n        /* \"#utility.yul\":28868:28882   */\n      lt\n        /* \"#utility.yul\":28860:29068   */\n      iszero\n      tag_767\n      jumpi\n        /* \"#utility.yul\":28953:28962   */\n      dup5\n        /* \"#utility.yul\":28948:28951   */\n      dup10\n        /* \"#utility.yul\":28944:28963   */\n      add\n        /* \"#utility.yul\":28938:28964   */\n      mload\n        /* \"#utility.yul\":28930:28936   */\n      dup3\n        /* \"#utility.yul\":28923:28965   */\n      sstore\n        /* \"#utility.yul\":29004:29005   */\n      0x01\n        /* \"#utility.yul\":28996:29002   */\n      dup3\n        /* \"#utility.yul\":28992:29006   */\n      add\n        /* \"#utility.yul\":28982:29006   */\n      swap2\n      pop\n        /* \"#utility.yul\":29051:29053   */\n      0x20\n        /* \"#utility.yul\":29040:29049   */\n      dup6\n        /* \"#utility.yul\":29036:29054   */\n      add\n        /* \"#utility.yul\":29023:29054   */\n      swap5\n      pop\n        /* \"#utility.yul\":28897:28901   */\n      0x20\n        /* \"#utility.yul\":28894:28895   */\n      dup2\n        /* \"#utility.yul\":28890:28902   */\n      add\n        /* \"#utility.yul\":28885:28902   */\n      swap1\n      pop\n        /* \"#utility.yul\":28860:29068   */\n      jump(tag_765)\n    tag_767:\n        /* \"#utility.yul\":29096:29102   */\n      dup7\n        /* \"#utility.yul\":29087:29094   */\n      dup4\n        /* \"#utility.yul\":29084:29103   */\n      lt\n        /* \"#utility.yul\":29081:29260   */\n      iszero\n      tag_768\n      jumpi\n        /* \"#utility.yul\":29154:29163   */\n      dup5\n        /* \"#utility.yul\":29149:29152   */\n      dup10\n        /* \"#utility.yul\":29145:29164   */\n      add\n        /* \"#utility.yul\":29139:29165   */\n      mload\n        /* \"#utility.yul\":29197:29245   */\n      tag_769\n        /* \"#utility.yul\":29239:29243   */\n      0x1f\n        /* \"#utility.yul\":29231:29237   */\n      dup10\n        /* \"#utility.yul\":29227:29244   */\n      and\n        /* \"#utility.yul\":29216:29225   */\n      dup3\n        /* \"#utility.yul\":29197:29245   */\n      tag_437\n      jump\t// in\n    tag_769:\n        /* \"#utility.yul\":29189:29195   */\n      dup4\n        /* \"#utility.yul\":29182:29246   */\n      sstore\n        /* \"#utility.yul\":29104:29260   */\n      pop\n        /* \"#utility.yul\":29081:29260   */\n    tag_768:\n        /* \"#utility.yul\":29306:29307   */\n      0x01\n        /* \"#utility.yul\":29302:29303   */\n      0x02\n        /* \"#utility.yul\":29294:29300   */\n      dup9\n        /* \"#utility.yul\":29290:29304   */\n      mul\n        /* \"#utility.yul\":29286:29308   */\n      add\n        /* \"#utility.yul\":29280:29284   */\n      dup9\n        /* \"#utility.yul\":29273:29309   */\n      sstore\n        /* \"#utility.yul\":28708:29319   */\n      pop\n      pop\n      pop\n        /* \"#utility.yul\":28671:29558   */\n    tag_760:\n      pop\n        /* \"#utility.yul\":28261:29564   */\n      pop\n      pop\n      pop\n        /* \"#utility.yul\":28169:29564   */\n      pop\n      pop\n      jump\t// out\n        /* \"#utility.yul\":29570:29735   */\n    tag_439:\n        /* \"#utility.yul\":29710:29727   */\n      0x4e6f7420617574686f72697a65642e0000000000000000000000000000000000\n        /* \"#utility.yul\":29706:29707   */\n      0x00\n        /* \"#utility.yul\":29698:29704   */\n      dup3\n        /* \"#utility.yul\":29694:29708   */\n      add\n        /* \"#utility.yul\":29687:29728   */\n      mstore\n        /* \"#utility.yul\":29570:29735   */\n      pop\n      jump\t// out\n        /* \"#utility.yul\":29741:30107   */\n    tag_440:\n        /* \"#utility.yul\":29883:29886   */\n      0x00\n        /* \"#utility.yul\":29904:29971   */\n      tag_772\n        /* \"#utility.yul\":29968:29970   */\n      0x0f\n        /* \"#utility.yul\":29963:29966   */\n      dup4\n        /* \"#utility.yul\":29904:29971   */\n      tag_382\n      jump\t// in\n    tag_772:\n        /* \"#utility.yul\":29897:29971   */\n      swap2\n      pop\n        /* \"#utility.yul\":29980:30073   */\n      tag_773\n        /* \"#utility.yul\":30069:30072   */\n      dup3\n        /* \"#utility.yul\":29980:30073   */\n      tag_439\n      jump\t// in\n    tag_773:\n        /* \"#utility.yul\":30098:30100   */\n      0x20\n        /* \"#utility.yul\":30093:30096   */\n      dup3\n        /* \"#utility.yul\":30089:30101   */\n      add\n        /* \"#utility.yul\":30082:30101   */\n      swap1\n      pop\n        /* \"#utility.yul\":29741:30107   */\n      swap2\n      swap1\n      pop\n      jump\t// out\n        /* \"#utility.yul\":30113:30532   */\n    tag_201:\n        /* \"#utility.yul\":30279:30283   */\n      0x00\n        /* \"#utility.yul\":30317:30319   */\n      0x20\n        /* \"#utility.yul\":30306:30315   */\n      dup3\n        /* \"#utility.yul\":30302:30320   */\n      add\n        /* \"#utility.yul\":30294:30320   */\n      swap1\n      pop\n        /* \"#utility.yul\":30366:30375   */\n      dup2\n        /* \"#utility.yul\":30360:30364   */\n      dup2\n        /* \"#utility.yul\":30356:30376   */\n      sub\n        /* \"#utility.yul\":30352:30353   */\n      0x00\n        /* \"#utility.yul\":30341:30350   */\n      dup4\n        /* \"#utility.yul\":30337:30354   */\n      add\n        /* \"#utility.yul\":30330:30377   */\n      mstore\n        /* \"#utility.yul\":30394:30525   */\n      tag_775\n        /* \"#utility.yul\":30520:30524   */\n      dup2\n        /* \"#utility.yul\":30394:30525   */\n      tag_440\n      jump\t// in\n    tag_775:\n        /* \"#utility.yul\":30386:30525   */\n      swap1\n      pop\n        /* \"#utility.yul\":30113:30532   */\n      swap2\n      swap1\n      pop\n      jump\t// out\n        /* \"#utility.yul\":30538:30948   */\n    tag_225:\n        /* \"#utility.yul\":30578:30585   */\n      0x00\n        /* \"#utility.yul\":30601:30621   */\n      tag_777\n        /* \"#utility.yul\":30619:30620   */\n      dup3\n        /* \"#utility.yul\":30601:30621   */\n      tag_372\n      jump\t// in\n    tag_777:\n        /* \"#utility.yul\":30596:30621   */\n      swap2\n      pop\n        /* \"#utility.yul\":30635:30655   */\n      tag_778\n        /* \"#utility.yul\":30653:30654   */\n      dup4\n        /* \"#utility.yul\":30635:30655   */\n      tag_372\n      jump\t// in\n    tag_778:\n        /* \"#utility.yul\":30630:30655   */\n      swap3\n      pop\n        /* \"#utility.yul\":30690:30691   */\n      dup3\n        /* \"#utility.yul\":30687:30688   */\n      dup3\n        /* \"#utility.yul\":30683:30692   */\n      mul\n        /* \"#utility.yul\":30712:30742   */\n      tag_779\n        /* \"#utility.yul\":30730:30741   */\n      dup2\n        /* \"#utility.yul\":30712:30742   */\n      tag_372\n      jump\t// in\n    tag_779:\n        /* \"#utility.yul\":30701:30742   */\n      swap2\n      pop\n        /* \"#utility.yul\":30891:30892   */\n      dup3\n        /* \"#utility.yul\":30882:30889   */\n      dup3\n        /* \"#utility.yul\":30878:30893   */\n      div\n        /* \"#utility.yul\":30875:30876   */\n      dup5\n        /* \"#utility.yul\":30872:30894   */\n      eq\n        /* \"#utility.yul\":30852:30853   */\n      dup4\n        /* \"#utility.yul\":30845:30854   */\n      iszero\n        /* \"#utility.yul\":30825:30908   */\n      or\n        /* \"#utility.yul\":30802:30941   */\n      tag_780\n      jumpi\n        /* \"#utility.yul\":30921:30939   */\n      tag_781\n      tag_421\n      jump\t// in\n    tag_781:\n        /* \"#utility.yul\":30802:30941   */\n    tag_780:\n        /* \"#utility.yul\":30586:30948   */\n      pop\n        /* \"#utility.yul\":30538:30948   */\n      swap3\n      swap2\n      pop\n      pop\n      jump\t// out\n        /* \"#utility.yul\":30954:31126   */\n    tag_441:\n        /* \"#utility.yul\":31094:31118   */\n      0x496e73756666696369656e74204554482073656e742e00000000000000000000\n        /* \"#utility.yul\":31090:31091   */\n      0x00\n        /* \"#utility.yul\":31082:31088   */\n      dup3\n        /* \"#utility.yul\":31078:31092   */\n      add\n        /* \"#utility.yul\":31071:31119   */\n      mstore\n        /* \"#utility.yul\":30954:31126   */\n      pop\n      jump\t// out\n        /* \"#utility.yul\":31132:31498   */\n    tag_442:\n        /* \"#utility.yul\":31274:31277   */\n      0x00\n        /* \"#utility.yul\":31295:31362   */\n      tag_784\n        /* \"#utility.yul\":31359:31361   */\n      0x16\n        /* \"#utility.yul\":31354:31357   */\n      dup4\n        /* \"#utility.yul\":31295:31362   */\n      tag_382\n      jump\t// in\n    tag_784:\n        /* \"#utility.yul\":31288:31362   */\n      swap2\n      pop\n        /* \"#utility.yul\":31371:31464   */\n      tag_785\n        /* \"#utility.yul\":31460:31463   */\n      dup3\n        /* \"#utility.yul\":31371:31464   */\n      tag_441\n      jump\t// in\n    tag_785:\n        /* \"#utility.yul\":31489:31491   */\n      0x20\n        /* \"#utility.yul\":31484:31487   */\n      dup3\n        /* \"#utility.yul\":31480:31492   */\n      add\n        /* \"#utility.yul\":31473:31492   */\n      swap1\n      pop\n        /* \"#utility.yul\":31132:31498   */\n      swap2\n      swap1\n      pop\n      jump\t// out\n        /* \"#utility.yul\":31504:31923   */\n    tag_228:\n        /* \"#utility.yul\":31670:31674   */\n      0x00\n        /* \"#utility.yul\":31708:31710   */\n      0x20\n        /* \"#utility.yul\":31697:31706   */\n      dup3\n        /* \"#utility.yul\":31693:31711   */\n      add\n        /* \"#utility.yul\":31685:31711   */\n      swap1\n      pop\n        /* \"#utility.yul\":31757:31766   */\n      dup2\n        /* \"#utility.yul\":31751:31755   */\n      dup2\n        /* \"#utility.yul\":31747:31767   */\n      sub\n        /* \"#utility.yul\":31743:31744   */\n      0x00\n        /* \"#utility.yul\":31732:31741   */\n      dup4\n        /* \"#utility.yul\":31728:31745   */\n      add\n        /* \"#utility.yul\":31721:31768   */\n      mstore\n        /* \"#utility.yul\":31785:31916   */\n      tag_787\n        /* \"#utility.yul\":31911:31915   */\n      dup2\n        /* \"#utility.yul\":31785:31916   */\n      tag_442\n      jump\t// in\n    tag_787:\n        /* \"#utility.yul\":31777:31916   */\n      swap1\n      pop\n        /* \"#utility.yul\":31504:31923   */\n      swap2\n      swap1\n      pop\n      jump\t// out\n        /* \"#utility.yul\":31929:32482   */\n    tag_316:\n        /* \"#utility.yul\":32106:32110   */\n      0x00\n        /* \"#utility.yul\":32144:32147   */\n      0x80\n        /* \"#utility.yul\":32133:32142   */\n      dup3\n        /* \"#utility.yul\":32129:32148   */\n      add\n        /* \"#utility.yul\":32121:32148   */\n      swap1\n      pop\n        /* \"#utility.yul\":32158:32229   */\n      tag_789\n        /* \"#utility.yul\":32226:32227   */\n      0x00\n        /* \"#utility.yul\":32215:32224   */\n      dup4\n        /* \"#utility.yul\":32211:32228   */\n      add\n        /* \"#utility.yul\":32202:32208   */\n      dup8\n        /* \"#utility.yul\":32158:32229   */\n      tag_413\n      jump\t// in\n    tag_789:\n        /* \"#utility.yul\":32239:32311   */\n      tag_790\n        /* \"#utility.yul\":32307:32309   */\n      0x20\n        /* \"#utility.yul\":32296:32305   */\n      dup4\n        /* \"#utility.yul\":32292:32310   */\n      add\n        /* \"#utility.yul\":32283:32289   */\n      dup7\n        /* \"#utility.yul\":32239:32311   */\n      tag_375\n      jump\t// in\n    tag_790:\n        /* \"#utility.yul\":32321:32393   */\n      tag_791\n        /* \"#utility.yul\":32389:32391   */\n      0x40\n        /* \"#utility.yul\":32378:32387   */\n      dup4\n        /* \"#utility.yul\":32374:32392   */\n      add\n        /* \"#utility.yul\":32365:32371   */\n      dup6\n        /* \"#utility.yul\":32321:32393   */\n      tag_375\n      jump\t// in\n    tag_791:\n        /* \"#utility.yul\":32403:32475   */\n      tag_792\n        /* \"#utility.yul\":32471:32473   */\n      0x60\n        /* \"#utility.yul\":32460:32469   */\n      dup4\n        /* \"#utility.yul\":32456:32474   */\n      add\n        /* \"#utility.yul\":32447:32453   */\n      dup5\n        /* \"#utility.yul\":32403:32475   */\n      tag_375\n      jump\t// in\n    tag_792:\n        /* \"#utility.yul\":31929:32482   */\n      swap6\n      swap5\n      pop\n      pop\n      pop\n      pop\n      pop\n      jump\t// out\n        /* \"#utility.yul\":32488:32679   */\n    tag_319:\n        /* \"#utility.yul\":32528:32531   */\n      0x00\n        /* \"#utility.yul\":32547:32567   */\n      tag_794\n        /* \"#utility.yul\":32565:32566   */\n      dup3\n        /* \"#utility.yul\":32547:32567   */\n      tag_372\n      jump\t// in\n    tag_794:\n        /* \"#utility.yul\":32542:32567   */\n      swap2\n      pop\n        /* \"#utility.yul\":32581:32601   */\n      tag_795\n        /* \"#utility.yul\":32599:32600   */\n      dup4\n        /* \"#utility.yul\":32581:32601   */\n      tag_372\n      jump\t// in\n    tag_795:\n        /* \"#utility.yul\":32576:32601   */\n      swap3\n      pop\n        /* \"#utility.yul\":32624:32625   */\n      dup3\n        /* \"#utility.yul\":32621:32622   */\n      dup3\n        /* \"#utility.yul\":32617:32626   */\n      add\n        /* \"#utility.yul\":32610:32626   */\n      swap1\n      pop\n        /* \"#utility.yul\":32645:32648   */\n      dup1\n        /* \"#utility.yul\":32642:32643   */\n      dup3\n        /* \"#utility.yul\":32639:32649   */\n      gt\n        /* \"#utility.yul\":32636:32672   */\n      iszero\n      tag_796\n      jumpi\n        /* \"#utility.yul\":32652:32670   */\n      tag_797\n      tag_421\n      jump\t// in\n    tag_797:\n        /* \"#utility.yul\":32636:32672   */\n    tag_796:\n        /* \"#utility.yul\":32488:32679   */\n      swap3\n      swap2\n      pop\n      pop\n      jump\t// out\n        /* \"#utility.yul\":32685:33319   */\n    tag_327:\n        /* \"#utility.yul\":32906:32910   */\n      0x00\n        /* \"#utility.yul\":32944:32946   */\n      0x40\n        /* \"#utility.yul\":32933:32942   */\n      dup3\n        /* \"#utility.yul\":32929:32947   */\n      add\n        /* \"#utility.yul\":32921:32947   */\n      swap1\n      pop\n        /* \"#utility.yul\":32993:33002   */\n      dup2\n        /* \"#utility.yul\":32987:32991   */\n      dup2\n        /* \"#utility.yul\":32983:33003   */\n      sub\n        /* \"#utility.yul\":32979:32980   */\n      0x00\n        /* \"#utility.yul\":32968:32977   */\n      dup4\n        /* \"#utility.yul\":32964:32981   */\n      add\n        /* \"#utility.yul\":32957:33004   */\n      mstore\n        /* \"#utility.yul\":33021:33129   */\n      tag_799\n        /* \"#utility.yul\":33124:33128   */\n      dup2\n        /* \"#utility.yul\":33115:33121   */\n      dup6\n        /* \"#utility.yul\":33021:33129   */\n      tag_407\n      jump\t// in\n    tag_799:\n        /* \"#utility.yul\":33013:33129   */\n      swap1\n      pop\n        /* \"#utility.yul\":33176:33185   */\n      dup2\n        /* \"#utility.yul\":33170:33174   */\n      dup2\n        /* \"#utility.yul\":33166:33186   */\n      sub\n        /* \"#utility.yul\":33161:33163   */\n      0x20\n        /* \"#utility.yul\":33150:33159   */\n      dup4\n        /* \"#utility.yul\":33146:33164   */\n      add\n        /* \"#utility.yul\":33139:33187   */\n      mstore\n        /* \"#utility.yul\":33204:33312   */\n      tag_800\n        /* \"#utility.yul\":33307:33311   */\n      dup2\n        /* \"#utility.yul\":33298:33304   */\n      dup5\n        /* \"#utility.yul\":33204:33312   */\n      tag_407\n      jump\t// in\n    tag_800:\n        /* \"#utility.yul\":33196:33312   */\n      swap1\n      pop\n        /* \"#utility.yul\":32685:33319   */\n      swap4\n      swap3\n      pop\n      pop\n      pop\n      jump\t// out\n        /* \"#utility.yul\":33325:33423   */\n    tag_443:\n        /* \"#utility.yul\":33376:33382   */\n      0x00\n        /* \"#utility.yul\":33410:33415   */\n      dup2\n        /* \"#utility.yul\":33404:33416   */\n      mload\n        /* \"#utility.yul\":33394:33416   */\n      swap1\n      pop\n        /* \"#utility.yul\":33325:33423   */\n      swap2\n      swap1\n      pop\n      jump\t// out\n        /* \"#utility.yul\":33429:33597   */\n    tag_444:\n        /* \"#utility.yul\":33512:33523   */\n      0x00\n        /* \"#utility.yul\":33546:33552   */\n      dup3\n        /* \"#utility.yul\":33541:33544   */\n      dup3\n        /* \"#utility.yul\":33534:33553   */\n      mstore\n        /* \"#utility.yul\":33586:33590   */\n      0x20\n        /* \"#utility.yul\":33581:33584   */\n      dup3\n        /* \"#utility.yul\":33577:33591   */\n      add\n        /* \"#utility.yul\":33562:33591   */\n      swap1\n      pop\n        /* \"#utility.yul\":33429:33597   */\n      swap3\n      swap2\n      pop\n      pop\n      jump\t// out\n        /* \"#utility.yul\":33603:33976   */\n    tag_445:\n        /* \"#utility.yul\":33689:33692   */\n      0x00\n        /* \"#utility.yul\":33717:33755   */\n      tag_804\n        /* \"#utility.yul\":33749:33754   */\n      dup3\n        /* \"#utility.yul\":33717:33755   */\n      tag_443\n      jump\t// in\n    tag_804:\n        /* \"#utility.yul\":33771:33841   */\n      tag_805\n        /* \"#utility.yul\":33834:33840   */\n      dup2\n        /* \"#utility.yul\":33829:33832   */\n      dup6\n        /* \"#utility.yul\":33771:33841   */\n      tag_444\n      jump\t// in\n    tag_805:\n        /* \"#utility.yul\":33764:33841   */\n      swap4\n      pop\n        /* \"#utility.yul\":33850:33915   */\n      tag_806\n        /* \"#utility.yul\":33908:33914   */\n      dup2\n        /* \"#utility.yul\":33903:33906   */\n      dup6\n        /* \"#utility.yul\":33896:33900   */\n      0x20\n        /* \"#utility.yul\":33889:33894   */\n      dup7\n        /* \"#utility.yul\":33885:33901   */\n      add\n        /* \"#utility.yul\":33850:33915   */\n      tag_383\n      jump\t// in\n    tag_806:\n        /* \"#utility.yul\":33940:33969   */\n      tag_807\n        /* \"#utility.yul\":33962:33968   */\n      dup2\n        /* \"#utility.yul\":33940:33969   */\n      tag_384\n      jump\t// in\n    tag_807:\n        /* \"#utility.yul\":33935:33938   */\n      dup5\n        /* \"#utility.yul\":33931:33970   */\n      add\n        /* \"#utility.yul\":33924:33970   */\n      swap2\n      pop\n        /* \"#utility.yul\":33693:33976   */\n      pop\n        /* \"#utility.yul\":33603:33976   */\n      swap3\n      swap2\n      pop\n      pop\n      jump\t// out\n        /* \"#utility.yul\":33982:34733   */\n    tag_331:\n        /* \"#utility.yul\":34205:34209   */\n      0x00\n        /* \"#utility.yul\":34243:34246   */\n      0xa0\n        /* \"#utility.yul\":34232:34241   */\n      dup3\n        /* \"#utility.yul\":34228:34247   */\n      add\n        /* \"#utility.yul\":34220:34247   */\n      swap1\n      pop\n        /* \"#utility.yul\":34257:34328   */\n      tag_809\n        /* \"#utility.yul\":34325:34326   */\n      0x00\n        /* \"#utility.yul\":34314:34323   */\n      dup4\n        /* \"#utility.yul\":34310:34327   */\n      add\n        /* \"#utility.yul\":34301:34307   */\n      dup9\n        /* \"#utility.yul\":34257:34328   */\n      tag_413\n      jump\t// in\n    tag_809:\n        /* \"#utility.yul\":34338:34410   */\n      tag_810\n        /* \"#utility.yul\":34406:34408   */\n      0x20\n        /* \"#utility.yul\":34395:34404   */\n      dup4\n        /* \"#utility.yul\":34391:34409   */\n      add\n        /* \"#utility.yul\":34382:34388   */\n      dup8\n        /* \"#utility.yul\":34338:34410   */\n      tag_413\n      jump\t// in\n    tag_810:\n        /* \"#utility.yul\":34420:34492   */\n      tag_811\n        /* \"#utility.yul\":34488:34490   */\n      0x40\n        /* \"#utility.yul\":34477:34486   */\n      dup4\n        /* \"#utility.yul\":34473:34491   */\n      add\n        /* \"#utility.yul\":34464:34470   */\n      dup7\n        /* \"#utility.yul\":34420:34492   */\n      tag_375\n      jump\t// in\n    tag_811:\n        /* \"#utility.yul\":34502:34574   */\n      tag_812\n        /* \"#utility.yul\":34570:34572   */\n      0x60\n        /* \"#utility.yul\":34559:34568   */\n      dup4\n        /* \"#utility.yul\":34555:34573   */\n      add\n        /* \"#utility.yul\":34546:34552   */\n      dup6\n        /* \"#utility.yul\":34502:34574   */\n      tag_375\n      jump\t// in\n    tag_812:\n        /* \"#utility.yul\":34622:34631   */\n      dup2\n        /* \"#utility.yul\":34616:34620   */\n      dup2\n        /* \"#utility.yul\":34612:34632   */\n      sub\n        /* \"#utility.yul\":34606:34609   */\n      0x80\n        /* \"#utility.yul\":34595:34604   */\n      dup4\n        /* \"#utility.yul\":34591:34610   */\n      add\n        /* \"#utility.yul\":34584:34633   */\n      mstore\n        /* \"#utility.yul\":34650:34726   */\n      tag_813\n        /* \"#utility.yul\":34721:34725   */\n      dup2\n        /* \"#utility.yul\":34712:34718   */\n      dup5\n        /* \"#utility.yul\":34650:34726   */\n      tag_445\n      jump\t// in\n    tag_813:\n        /* \"#utility.yul\":34642:34726   */\n      swap1\n      pop\n        /* \"#utility.yul\":33982:34733   */\n      swap7\n      swap6\n      pop\n      pop\n      pop\n      pop\n      pop\n      pop\n      jump\t// out\n        /* \"#utility.yul\":34739:34880   */\n    tag_446:\n        /* \"#utility.yul\":34795:34800   */\n      0x00\n        /* \"#utility.yul\":34826:34832   */\n      dup2\n        /* \"#utility.yul\":34820:34833   */\n      mload\n        /* \"#utility.yul\":34811:34833   */\n      swap1\n      pop\n        /* \"#utility.yul\":34842:34874   */\n      tag_815\n        /* \"#utility.yul\":34868:34873   */\n      dup2\n        /* \"#utility.yul\":34842:34874   */\n      tag_377\n      jump\t// in\n    tag_815:\n        /* \"#utility.yul\":34739:34880   */\n      swap3\n      swap2\n      pop\n      pop\n      jump\t// out\n        /* \"#utility.yul\":34886:35235   */\n    tag_334:\n        /* \"#utility.yul\":34955:34961   */\n      0x00\n        /* \"#utility.yul\":35004:35006   */\n      0x20\n        /* \"#utility.yul\":34992:35001   */\n      dup3\n        /* \"#utility.yul\":34983:34990   */\n      dup5\n        /* \"#utility.yul\":34979:35002   */\n      sub\n        /* \"#utility.yul\":34975:35007   */\n      slt\n        /* \"#utility.yul\":34972:35091   */\n      iszero\n      tag_817\n      jumpi\n        /* \"#utility.yul\":35010:35089   */\n      tag_818\n      tag_366\n      jump\t// in\n    tag_818:\n        /* \"#utility.yul\":34972:35091   */\n    tag_817:\n        /* \"#utility.yul\":35130:35131   */\n      0x00\n        /* \"#utility.yul\":35155:35218   */\n      tag_819\n        /* \"#utility.yul\":35210:35217   */\n      dup5\n        /* \"#utility.yul\":35201:35207   */\n      dup3\n        /* \"#utility.yul\":35190:35199   */\n      dup6\n        /* \"#utility.yul\":35186:35208   */\n      add\n        /* \"#utility.yul\":35155:35218   */\n      tag_446\n      jump\t// in\n    tag_819:\n        /* \"#utility.yul\":35145:35218   */\n      swap2\n      pop\n        /* \"#utility.yul\":35101:35228   */\n      pop\n        /* \"#utility.yul\":34886:35235   */\n      swap3\n      swap2\n      pop\n      pop\n      jump\t// out\n        /* \"#utility.yul\":35241:36294   */\n    tag_350:\n        /* \"#utility.yul\":35564:35568   */\n      0x00\n        /* \"#utility.yul\":35602:35605   */\n      0xa0\n        /* \"#utility.yul\":35591:35600   */\n      dup3\n        /* \"#utility.yul\":35587:35606   */\n      add\n        /* \"#utility.yul\":35579:35606   */\n      swap1\n      pop\n        /* \"#utility.yul\":35616:35687   */\n      tag_821\n        /* \"#utility.yul\":35684:35685   */\n      0x00\n        /* \"#utility.yul\":35673:35682   */\n      dup4\n        /* \"#utility.yul\":35669:35686   */\n      add\n        /* \"#utility.yul\":35660:35666   */\n      dup9\n        /* \"#utility.yul\":35616:35687   */\n      tag_413\n      jump\t// in\n    tag_821:\n        /* \"#utility.yul\":35697:35769   */\n      tag_822\n        /* \"#utility.yul\":35765:35767   */\n      0x20\n        /* \"#utility.yul\":35754:35763   */\n      dup4\n        /* \"#utility.yul\":35750:35768   */\n      add\n        /* \"#utility.yul\":35741:35747   */\n      dup8\n        /* \"#utility.yul\":35697:35769   */\n      tag_413\n      jump\t// in\n    tag_822:\n        /* \"#utility.yul\":35816:35825   */\n      dup2\n        /* \"#utility.yul\":35810:35814   */\n      dup2\n        /* \"#utility.yul\":35806:35826   */\n      sub\n        /* \"#utility.yul\":35801:35803   */\n      0x40\n        /* \"#utility.yul\":35790:35799   */\n      dup4\n        /* \"#utility.yul\":35786:35804   */\n      add\n        /* \"#utility.yul\":35779:35827   */\n      mstore\n        /* \"#utility.yul\":35844:35952   */\n      tag_823\n        /* \"#utility.yul\":35947:35951   */\n      dup2\n        /* \"#utility.yul\":35938:35944   */\n      dup7\n        /* \"#utility.yul\":35844:35952   */\n      tag_407\n      jump\t// in\n    tag_823:\n        /* \"#utility.yul\":35836:35952   */\n      swap1\n      pop\n        /* \"#utility.yul\":35999:36008   */\n      dup2\n        /* \"#utility.yul\":35993:35997   */\n      dup2\n        /* \"#utility.yul\":35989:36009   */\n      sub\n        /* \"#utility.yul\":35984:35986   */\n      0x60\n        /* \"#utility.yul\":35973:35982   */\n      dup4\n        /* \"#utility.yul\":35969:35987   */\n      add\n        /* \"#utility.yul\":35962:36010   */\n      mstore\n        /* \"#utility.yul\":36027:36135   */\n      tag_824\n        /* \"#utility.yul\":36130:36134   */\n      dup2\n        /* \"#utility.yul\":36121:36127   */\n      dup6\n        /* \"#utility.yul\":36027:36135   */\n      tag_407\n      jump\t// in\n    tag_824:\n        /* \"#utility.yul\":36019:36135   */\n      swap1\n      pop\n        /* \"#utility.yul\":36183:36192   */\n      dup2\n        /* \"#utility.yul\":36177:36181   */\n      dup2\n        /* \"#utility.yul\":36173:36193   */\n      sub\n        /* \"#utility.yul\":36167:36170   */\n      0x80\n        /* \"#utility.yul\":36156:36165   */\n      dup4\n        /* \"#utility.yul\":36152:36171   */\n      add\n        /* \"#utility.yul\":36145:36194   */\n      mstore\n        /* \"#utility.yul\":36211:36287   */\n      tag_825\n        /* \"#utility.yul\":36282:36286   */\n      dup2\n        /* \"#utility.yul\":36273:36279   */\n      dup5\n        /* \"#utility.yul\":36211:36287   */\n      tag_445\n      jump\t// in\n    tag_825:\n        /* \"#utility.yul\":36203:36287   */\n      swap1\n      pop\n        /* \"#utility.yul\":35241:36294   */\n      swap7\n      swap6\n      pop\n      pop\n      pop\n      pop\n      pop\n      pop\n      jump\t// out\n\n    auxdata: 0xa2646970667358221220bd839af8433326100c340d37dfd622c9216c33c058692bbece00be68e1ba376264736f6c63430008140033\n}\n",
				"bytecode": {
					"linkReferences": {},
					"object": "608060405234801562000010575f80fd5b503360405180602001604052805f8152506200003281620000be60201b60201c565b505f73ffffffffffffffffffffffffffffffffffffffff168173ffffffffffffffffffffffffffffffffffffffff1603620000a6575f6040517f1e4fbdf70000000000000000000000000000000000000000000000000000000081526004016200009d9190620001d9565b60405180910390fd5b620000b781620000d360201b60201c565b506200053c565b8060029081620000cf919062000458565b5050565b5f60035f9054906101000a900473ffffffffffffffffffffffffffffffffffffffff1690508160035f6101000a81548173ffffffffffffffffffffffffffffffffffffffff021916908373ffffffffffffffffffffffffffffffffffffffff1602179055508173ffffffffffffffffffffffffffffffffffffffff168173ffffffffffffffffffffffffffffffffffffffff167f8be0079c531659141344cd1fd0a4f28419497f9722a3daafe3b4186f6b6457e060405160405180910390a35050565b5f73ffffffffffffffffffffffffffffffffffffffff82169050919050565b5f620001c18262000196565b9050919050565b620001d381620001b5565b82525050565b5f602082019050620001ee5f830184620001c8565b92915050565b5f81519050919050565b7f4e487b71000000000000000000000000000000000000000000000000000000005f52604160045260245ffd5b7f4e487b71000000000000000000000000000000000000000000000000000000005f52602260045260245ffd5b5f60028204905060018216806200027057607f821691505b6020821081036200028657620002856200022b565b5b50919050565b5f819050815f5260205f209050919050565b5f6020601f8301049050919050565b5f82821b905092915050565b5f60088302620002ea7fffffffffffffffffffffffffffffffffffffffffffffffffffffffffffffffff82620002ad565b620002f68683620002ad565b95508019841693508086168417925050509392505050565b5f819050919050565b5f819050919050565b5f620003406200033a62000334846200030e565b62000317565b6200030e565b9050919050565b5f819050919050565b6200035b8362000320565b620003736200036a8262000347565b848454620002b9565b825550505050565b5f90565b620003896200037b565b6200039681848462000350565b505050565b5b81811015620003bd57620003b15f826200037f565b6001810190506200039c565b5050565b601f8211156200040c57620003d6816200028c565b620003e1846200029e565b81016020851015620003f1578190505b6200040962000400856200029e565b8301826200039b565b50505b505050565b5f82821c905092915050565b5f6200042e5f198460080262000411565b1980831691505092915050565b5f6200044883836200041d565b9150826002028217905092915050565b6200046382620001f4565b67ffffffffffffffff8111156200047f576200047e620001fe565b5b6200048b825462000258565b62000498828285620003c1565b5f60209050601f831160018114620004ce575f8415620004b9578287015190505b620004c585826200043b565b86555062000534565b601f198416620004de866200028c565b5f5b828110156200050757848901518255600182019150602085019450602081019050620004e0565b8683101562000527578489015162000523601f8916826200041d565b8355505b6001600288020188555050505b505050505050565b612ffd806200054a5f395ff3fe6080604052600436106100f1575f3560e01c80638da5cb5b11610089578063e067569811610058578063e067569814610340578063e985e9c51461035c578063f242432a14610398578063f2fde38b146103c0576100f1565b80638da5cb5b14610287578063a22cb465146102b1578063bfb231d2146102d9578063d258153514610318576100f1565b80634e1273f4116100c55780634e1273f4146101d1578063696a50b41461020d5780636c150b2c14610235578063715018a614610271576100f1565b8062fdd58e146100f557806301ffc9a7146101315780630e89341c1461016d5780632eb2c2d6146101a9575b5f80fd5b348015610100575f80fd5b5061011b60048036038101906101169190611dbf565b6103e8565b6040516101289190611e0c565b60405180910390f35b34801561013c575f80fd5b5061015760048036038101906101529190611e7a565b61043d565b6040516101649190611ebf565b60405180910390f35b348015610178575f80fd5b50610193600480360381019061018e9190611ed8565b61051e565b6040516101a09190611f8d565b60405180910390f35b3480156101b4575f80fd5b506101cf60048036038101906101ca919061219d565b6105b0565b005b3480156101dc575f80fd5b506101f760048036038101906101f29190612328565b610657565b6040516102049190612455565b60405180910390f35b348015610218575f80fd5b50610233600480360381019061022e9190612475565b610764565b005b348015610240575f80fd5b5061025b60048036038101906102569190612586565b6107e0565b6040516102689190611e0c565b60405180910390f35b34801561027c575f80fd5b506102856108ba565b005b348015610292575f80fd5b5061029b6108cd565b6040516102a8919061261d565b60405180910390f35b3480156102bc575f80fd5b506102d760048036038101906102d29190612660565b6108f5565b005b3480156102e4575f80fd5b506102ff60048036038101906102fa9190611ed8565b61090b565b60405161030f9493929190612711565b60405180910390f35b348015610323575f80fd5b5061033e60048036038101906103399190612475565b610a4f565b005b61035a60048036038101906103559190612762565b610ade565b005b348015610367575f80fd5b50610382600480360381019061037d91906127a0565b610cfe565b60405161038f9190611ebf565b60405180910390f35b3480156103a3575f80fd5b506103be60048036038101906103b991906127de565b610d8c565b005b3480156103cb575f80fd5b506103e660048036038101906103e19190612871565b610e33565b005b5f805f8381526020019081526020015f205f8473ffffffffffffffffffffffffffffffffffffffff1673ffffffffffffffffffffffffffffffffffffffff1681526020019081526020015f2054905092915050565b5f7fd9b67a26000000000000000000000000000000000000000000000000000000007bffffffffffffffffffffffffffffffffffffffffffffffffffffffff1916827bffffffffffffffffffffffffffffffffffffffffffffffffffffffff1916148061050757507f0e89341c000000000000000000000000000000000000000000000000000000007bffffffffffffffffffffffffffffffffffffffffffffffffffffffff1916827bffffffffffffffffffffffffffffffffffffffffffffffffffffffff1916145b80610517575061051682610eb7565b5b9050919050565b60606002805461052d906128c9565b80601f0160208091040260200160405190810160405280929190818152602001828054610559906128c9565b80156105a45780601f1061057b576101008083540402835291602001916105a4565b820191905f5260205f20905b81548152906001019060200180831161058757829003601f168201915b50505050509050919050565b5f6105b9610f20565b90508073ffffffffffffffffffffffffffffffffffffffff168673ffffffffffffffffffffffffffffffffffffffff16141580156105fe57506105fc8682610cfe565b155b156106425780866040517fe237d9220000000000000000000000000000000000000000000000000000000081526004016106399291906128f9565b60405180910390fd5b61064f8686868686610f27565b505050505050565b606081518351146106a357815183516040517f5b05999100000000000000000000000000000000000000000000000000000000815260040161069a929190612920565b60405180910390fd5b5f835167ffffffffffffffff8111156106bf576106be611fb1565b5b6040519080825280602002602001820160405280156106ed5781602001602082028036833780820191505090505b5090505f5b845181101561075957610729610711828761101b90919063ffffffff16565b610724838761102e90919063ffffffff16565b6103e8565b82828151811061073c5761073b612947565b5b60200260200101818152505080610752906129a1565b90506106f2565b508091505092915050565b61076c611041565b8160055f8481526020019081526020015f205f0154146107c1576040517f08c379a00000000000000000000000000000000000000000000000000000000081526004016107b890612a32565b60405180910390fd5b6107db83838360405180602001604052805f8152506110c8565b505050565b5f6107e9611041565b6107f3600461115d565b5f6107fe6004611171565b90505f60405180608001604052808381526020018760028111156108255761082461269e565b5b81526020018681526020018581525090508060055f8481526020019081526020015f205f820151815f01556020820151816001015f6101000a81548160ff0219169083600281111561087a5761087961269e565b5b021790555060408201518160020190816108949190612bed565b5060608201518160030190816108aa9190612bed565b5090505081925050509392505050565b6108c2611041565b6108cb5f61117d565b565b5f60035f9054906101000a900473ffffffffffffffffffffffffffffffffffffffff16905090565b610907610900610f20565b8383611240565b5050565b6005602052805f5260405f205f91509050805f015490806001015f9054906101000a900460ff1690806002018054610942906128c9565b80601f016020809104026020016040519081016040528092919081815260200182805461096e906128c9565b80156109b95780601f10610990576101008083540402835291602001916109b9565b820191905f5260205f20905b81548152906001019060200180831161099c57829003601f168201915b5050505050908060030180546109ce906128c9565b80601f01602080910402602001604051908101604052809291908181526020018280546109fa906128c9565b8015610a455780601f10610a1c57610100808354040283529160200191610a45565b820191905f5260205f20905b815481529060010190602001808311610a2857829003601f168201915b5050505050905084565b8273ffffffffffffffffffffffffffffffffffffffff163373ffffffffffffffffffffffffffffffffffffffff161480610a8f5750610a8e8333610cfe565b5b610ace576040517f08c379a0000000000000000000000000000000000000000000000000000000008152600401610ac590612d06565b60405180910390fd5b610ad98383836113a9565b505050565b8160055f8481526020019081526020015f205f015414610b33576040517f08c379a0000000000000000000000000000000000000000000000000000000008152600401610b2a90612a32565b60405180910390fd5b5f806002811115610b4757610b4661269e565b5b60055f8581526020019081526020015f206001015f9054906101000a900460ff166002811115610b7a57610b7961269e565b5b03610b8f57678ac7230489e800009050610c46565b60016002811115610ba357610ba261269e565b5b60055f8581526020019081526020015f206001015f9054906101000a900460ff166002811115610bd657610bd561269e565b5b03610bec576801158e460913d000009050610c45565b600280811115610bff57610bfe61269e565b5b60055f8581526020019081526020015f206001015f9054906101000a900460ff166002811115610c3257610c3161269e565b5b03610c44576801a055690d9db8000090505b5b5b8181610c529190612d24565b341015610c94576040517f08c379a0000000000000000000000000000000000000000000000000000000008152600401610c8b90612daf565b60405180910390fd5b610cae33848460405180602001604052805f8152506110c8565b610cb66108cd565b73ffffffffffffffffffffffffffffffffffffffff166108fc3490811502906040515f60405180830381858888f19350505050158015610cf8573d5f803e3d5ffd5b50505050565b5f60015f8473ffffffffffffffffffffffffffffffffffffffff1673ffffffffffffffffffffffffffffffffffffffff1681526020019081526020015f205f8373ffffffffffffffffffffffffffffffffffffffff1673ffffffffffffffffffffffffffffffffffffffff1681526020019081526020015f205f9054906101000a900460ff16905092915050565b5f610d95610f20565b90508073ffffffffffffffffffffffffffffffffffffffff168673ffffffffffffffffffffffffffffffffffffffff1614158015610dda5750610dd88682610cfe565b155b15610e1e5780866040517fe237d922000000000000000000000000000000000000000000000000000000008152600401610e159291906128f9565b60405180910390fd5b610e2b868686868661144b565b505050505050565b610e3b611041565b5f73ffffffffffffffffffffffffffffffffffffffff168173ffffffffffffffffffffffffffffffffffffffff1603610eab575f6040517f1e4fbdf7000000000000000000000000000000000000000000000000000000008152600401610ea2919061261d565b60405180910390fd5b610eb48161117d565b50565b5f7f01ffc9a7000000000000000000000000000000000000000000000000000000007bffffffffffffffffffffffffffffffffffffffffffffffffffffffff1916827bffffffffffffffffffffffffffffffffffffffffffffffffffffffff1916149050919050565b5f33905090565b5f73ffffffffffffffffffffffffffffffffffffffff168473ffffffffffffffffffffffffffffffffffffffff1603610f97575f6040517f57f447ce000000000000000000000000000000000000000000000000000000008152600401610f8e919061261d565b60405180910390fd5b5f73ffffffffffffffffffffffffffffffffffffffff168573ffffffffffffffffffffffffffffffffffffffff1603611007575f6040517f01a83514000000000000000000000000000000000000000000000000000000008152600401610ffe919061261d565b60405180910390fd5b6110148585858585611551565b5050505050565b5f60208202602084010151905092915050565b5f60208202602084010151905092915050565b611049610f20565b73ffffffffffffffffffffffffffffffffffffffff166110676108cd565b73ffffffffffffffffffffffffffffffffffffffff16146110c65761108a610f20565b6040517f118cdaa70000000000000000000000000000000000000000000000000000000081526004016110bd919061261d565b60405180910390fd5b565b5f73ffffffffffffffffffffffffffffffffffffffff168473ffffffffffffffffffffffffffffffffffffffff1603611138575f6040517f57f447ce00000000000000000000000000000000000000000000000000000000815260040161112f919061261d565b60405180910390fd5b5f8061114485856115fd565b915091506111555f87848487611551565b505050505050565b6001815f015f828254019250508190555050565b5f815f01549050919050565b5f60035f9054906101000a900473ffffffffffffffffffffffffffffffffffffffff1690508160035f6101000a81548173ffffffffffffffffffffffffffffffffffffffff021916908373ffffffffffffffffffffffffffffffffffffffff1602179055508173ffffffffffffffffffffffffffffffffffffffff168173ffffffffffffffffffffffffffffffffffffffff167f8be0079c531659141344cd1fd0a4f28419497f9722a3daafe3b4186f6b6457e060405160405180910390a35050565b5f73ffffffffffffffffffffffffffffffffffffffff168273ffffffffffffffffffffffffffffffffffffffff16036112b0575f6040517fced3e1000000000000000000000000000000000000000000000000000000000081526004016112a7919061261d565b60405180910390fd5b8060015f8573ffffffffffffffffffffffffffffffffffffffff1673ffffffffffffffffffffffffffffffffffffffff1681526020019081526020015f205f8473ffffffffffffffffffffffffffffffffffffffff1673ffffffffffffffffffffffffffffffffffffffff1681526020019081526020015f205f6101000a81548160ff0219169083151502179055508173ffffffffffffffffffffffffffffffffffffffff168373ffffffffffffffffffffffffffffffffffffffff167f17307eab39ab6107e8899845ad3d59bd9653f200f220920489ca2b5937696c318360405161139c9190611ebf565b60405180910390a3505050565b5f73ffffffffffffffffffffffffffffffffffffffff168373ffffffffffffffffffffffffffffffffffffffff1603611419575f6040517f01a83514000000000000000000000000000000000000000000000000000000008152600401611410919061261d565b60405180910390fd5b5f8061142584846115fd565b91509150611444855f848460405180602001604052805f815250611551565b5050505050565b5f73ffffffffffffffffffffffffffffffffffffffff168473ffffffffffffffffffffffffffffffffffffffff16036114bb575f6040517f57f447ce0000000000000000000000000000000000000000000000000000000081526004016114b2919061261d565b60405180910390fd5b5f73ffffffffffffffffffffffffffffffffffffffff168573ffffffffffffffffffffffffffffffffffffffff160361152b575f6040517f01a83514000000000000000000000000000000000000000000000000000000008152600401611522919061261d565b60405180910390fd5b5f8061153785856115fd565b915091506115488787848487611551565b50505050505050565b61155d8585858561162d565b5f73ffffffffffffffffffffffffffffffffffffffff168473ffffffffffffffffffffffffffffffffffffffff16146115f6575f611599610f20565b905060018451036115e5575f6115b85f8661102e90919063ffffffff16565b90505f6115ce5f8661102e90919063ffffffff16565b90506115de8389898585896119c3565b50506115f4565b6115f3818787878787611b72565b5b505b5050505050565b60608060405191506001825283602083015260408201905060018152826020820152604081016040529250929050565b805182511461167757815181516040517f5b05999100000000000000000000000000000000000000000000000000000000815260040161166e929190612920565b60405180910390fd5b5f611680610f20565b90505f5b8351811015611882575f6116a1828661102e90919063ffffffff16565b90505f6116b7838661102e90919063ffffffff16565b90505f73ffffffffffffffffffffffffffffffffffffffff168873ffffffffffffffffffffffffffffffffffffffff16146117da575f805f8481526020019081526020015f205f8a73ffffffffffffffffffffffffffffffffffffffff1673ffffffffffffffffffffffffffffffffffffffff1681526020019081526020015f205490508181101561178657888183856040517f03dee4c500000000000000000000000000000000000000000000000000000000815260040161177d9493929190612dcd565b60405180910390fd5b8181035f808581526020019081526020015f205f8b73ffffffffffffffffffffffffffffffffffffffff1673ffffffffffffffffffffffffffffffffffffffff1681526020019081526020015f2081905550505b5f73ffffffffffffffffffffffffffffffffffffffff168773ffffffffffffffffffffffffffffffffffffffff161461186f57805f808481526020019081526020015f205f8973ffffffffffffffffffffffffffffffffffffffff1673ffffffffffffffffffffffffffffffffffffffff1681526020019081526020015f205f8282546118679190612e10565b925050819055505b50508061187b906129a1565b9050611684565b50600183510361193d575f6118a05f8561102e90919063ffffffff16565b90505f6118b65f8561102e90919063ffffffff16565b90508573ffffffffffffffffffffffffffffffffffffffff168773ffffffffffffffffffffffffffffffffffffffff168473ffffffffffffffffffffffffffffffffffffffff167fc3d58168c5ae7397731d063d5bbf3d657854427343f4c083240f7aacaa2d0f62858560405161192e929190612920565b60405180910390a450506119bc565b8373ffffffffffffffffffffffffffffffffffffffff168573ffffffffffffffffffffffffffffffffffffffff168273ffffffffffffffffffffffffffffffffffffffff167f4a39dc06d4c0dbc64b70af90fd698a233a518aa5d07e595d983b8c0526c8f7fb86866040516119b3929190612e43565b60405180910390a45b5050505050565b5f8473ffffffffffffffffffffffffffffffffffffffff163b1115611b6a578373ffffffffffffffffffffffffffffffffffffffff1663f23a6e6187878686866040518663ffffffff1660e01b8152600401611a23959493929190612eca565b6020604051808303815f875af1925050508015611a5e57506040513d601f19601f82011682018060405250810190611a5b9190612f36565b60015b611adf573d805f8114611a8c576040519150601f19603f3d011682016040523d82523d5f602084013e611a91565b606091505b505f815103611ad757846040517f57f447ce000000000000000000000000000000000000000000000000000000008152600401611ace919061261d565b60405180910390fd5b805181602001fd5b63f23a6e6160e01b7bffffffffffffffffffffffffffffffffffffffffffffffffffffffff1916817bffffffffffffffffffffffffffffffffffffffffffffffffffffffff191614611b6857846040517f57f447ce000000000000000000000000000000000000000000000000000000008152600401611b5f919061261d565b60405180910390fd5b505b505050505050565b5f8473ffffffffffffffffffffffffffffffffffffffff163b1115611d19578373ffffffffffffffffffffffffffffffffffffffff1663bc197c8187878686866040518663ffffffff1660e01b8152600401611bd2959493929190612f61565b6020604051808303815f875af1925050508015611c0d57506040513d601f19601f82011682018060405250810190611c0a9190612f36565b60015b611c8e573d805f8114611c3b576040519150601f19603f3d011682016040523d82523d5f602084013e611c40565b606091505b505f815103611c8657846040517f57f447ce000000000000000000000000000000000000000000000000000000008152600401611c7d919061261d565b60405180910390fd5b805181602001fd5b63bc197c8160e01b7bffffffffffffffffffffffffffffffffffffffffffffffffffffffff1916817bffffffffffffffffffffffffffffffffffffffffffffffffffffffff191614611d1757846040517f57f447ce000000000000000000000000000000000000000000000000000000008152600401611d0e919061261d565b60405180910390fd5b505b505050505050565b5f604051905090565b5f80fd5b5f80fd5b5f73ffffffffffffffffffffffffffffffffffffffff82169050919050565b5f611d5b82611d32565b9050919050565b611d6b81611d51565b8114611d75575f80fd5b50565b5f81359050611d8681611d62565b92915050565b5f819050919050565b611d9e81611d8c565b8114611da8575f80fd5b50565b5f81359050611db981611d95565b92915050565b5f8060408385031215611dd557611dd4611d2a565b5b5f611de285828601611d78565b9250506020611df385828601611dab565b9150509250929050565b611e0681611d8c565b82525050565b5f602082019050611e1f5f830184611dfd565b92915050565b5f7fffffffff0000000000000000000000000000000000000000000000000000000082169050919050565b611e5981611e25565b8114611e63575f80fd5b50565b5f81359050611e7481611e50565b92915050565b5f60208284031215611e8f57611e8e611d2a565b5b5f611e9c84828501611e66565b91505092915050565b5f8115159050919050565b611eb981611ea5565b82525050565b5f602082019050611ed25f830184611eb0565b92915050565b5f60208284031215611eed57611eec611d2a565b5b5f611efa84828501611dab565b91505092915050565b5f81519050919050565b5f82825260208201905092915050565b5f5b83811015611f3a578082015181840152602081019050611f1f565b5f8484015250505050565b5f601f19601f8301169050919050565b5f611f5f82611f03565b611f698185611f0d565b9350611f79818560208601611f1d565b611f8281611f45565b840191505092915050565b5f6020820190508181035f830152611fa58184611f55565b905092915050565b5f80fd5b7f4e487b71000000000000000000000000000000000000000000000000000000005f52604160045260245ffd5b611fe782611f45565b810181811067ffffffffffffffff8211171561200657612005611fb1565b5b80604052505050565b5f612018611d21565b90506120248282611fde565b919050565b5f67ffffffffffffffff82111561204357612042611fb1565b5b602082029050602081019050919050565b5f80fd5b5f61206a61206584612029565b61200f565b9050808382526020820190506020840283018581111561208d5761208c612054565b5b835b818110156120b657806120a28882611dab565b84526020840193505060208101905061208f565b5050509392505050565b5f82601f8301126120d4576120d3611fad565b5b81356120e4848260208601612058565b91505092915050565b5f80fd5b5f67ffffffffffffffff82111561210b5761210a611fb1565b5b61211482611f45565b9050602081019050919050565b828183375f83830152505050565b5f61214161213c846120f1565b61200f565b90508281526020810184848401111561215d5761215c6120ed565b5b612168848285612121565b509392505050565b5f82601f83011261218457612183611fad565b5b813561219484826020860161212f565b91505092915050565b5f805f805f60a086880312156121b6576121b5611d2a565b5b5f6121c388828901611d78565b95505060206121d488828901611d78565b945050604086013567ffffffffffffffff8111156121f5576121f4611d2e565b5b612201888289016120c0565b935050606086013567ffffffffffffffff81111561222257612221611d2e565b5b61222e888289016120c0565b925050608086013567ffffffffffffffff81111561224f5761224e611d2e565b5b61225b88828901612170565b9150509295509295909350565b5f67ffffffffffffffff82111561228257612281611fb1565b5b602082029050602081019050919050565b5f6122a56122a084612268565b61200f565b905080838252602082019050602084028301858111156122c8576122c7612054565b5b835b818110156122f157806122dd8882611d78565b8452602084019350506020810190506122ca565b5050509392505050565b5f82601f83011261230f5761230e611fad565b5b813561231f848260208601612293565b91505092915050565b5f806040838503121561233e5761233d611d2a565b5b5f83013567ffffffffffffffff81111561235b5761235a611d2e565b5b612367858286016122fb565b925050602083013567ffffffffffffffff81111561238857612387611d2e565b5b612394858286016120c0565b9150509250929050565b5f81519050919050565b5f82825260208201905092915050565b5f819050602082019050919050565b6123d081611d8c565b82525050565b5f6123e183836123c7565b60208301905092915050565b5f602082019050919050565b5f6124038261239e565b61240d81856123a8565b9350612418836123b8565b805f5b8381101561244857815161242f88826123d6565b975061243a836123ed565b92505060018101905061241b565b5085935050505092915050565b5f6020820190508181035f83015261246d81846123f9565b905092915050565b5f805f6060848603121561248c5761248b611d2a565b5b5f61249986828701611d78565b93505060206124aa86828701611dab565b92505060406124bb86828701611dab565b9150509250925092565b600381106124d1575f80fd5b50565b5f813590506124e2816124c5565b92915050565b5f67ffffffffffffffff82111561250257612501611fb1565b5b61250b82611f45565b9050602081019050919050565b5f61252a612525846124e8565b61200f565b905082815260208101848484011115612546576125456120ed565b5b612551848285612121565b509392505050565b5f82601f83011261256d5761256c611fad565b5b813561257d848260208601612518565b91505092915050565b5f805f6060848603121561259d5761259c611d2a565b5b5f6125aa868287016124d4565b935050602084013567ffffffffffffffff8111156125cb576125ca611d2e565b5b6125d786828701612559565b925050604084013567ffffffffffffffff8111156125f8576125f7611d2e565b5b61260486828701612559565b9150509250925092565b61261781611d51565b82525050565b5f6020820190506126305f83018461260e565b92915050565b61263f81611ea5565b8114612649575f80fd5b50565b5f8135905061265a81612636565b92915050565b5f806040838503121561267657612675611d2a565b5b5f61268385828601611d78565b92505060206126948582860161264c565b9150509250929050565b7f4e487b71000000000000000000000000000000000000000000000000000000005f52602160045260245ffd5b600381106126dc576126db61269e565b5b50565b5f8190506126ec826126cb565b919050565b5f6126fb826126df565b9050919050565b61270b816126f1565b82525050565b5f6080820190506127245f830187611dfd565b6127316020830186612702565b81810360408301526127438185611f55565b905081810360608301526127578184611f55565b905095945050505050565b5f806040838503121561277857612777611d2a565b5b5f61278585828601611dab565b925050602061279685828601611dab565b9150509250929050565b5f80604083850312156127b6576127b5611d2a565b5b5f6127c385828601611d78565b92505060206127d485828601611d78565b9150509250929050565b5f805f805f60a086880312156127f7576127f6611d2a565b5b5f61280488828901611d78565b955050602061281588828901611d78565b945050604061282688828901611dab565b935050606061283788828901611dab565b925050608086013567ffffffffffffffff81111561285857612857611d2e565b5b61286488828901612170565b9150509295509295909350565b5f6020828403121561288657612885611d2a565b5b5f61289384828501611d78565b91505092915050565b7f4e487b71000000000000000000000000000000000000000000000000000000005f52602260045260245ffd5b5f60028204905060018216806128e057607f821691505b6020821081036128f3576128f261289c565b5b50919050565b5f60408201905061290c5f83018561260e565b612919602083018461260e565b9392505050565b5f6040820190506129335f830185611dfd565b6129406020830184611dfd565b9392505050565b7f4e487b71000000000000000000000000000000000000000000000000000000005f52603260045260245ffd5b7f4e487b71000000000000000000000000000000000000000000000000000000005f52601160045260245ffd5b5f6129ab82611d8c565b91507fffffffffffffffffffffffffffffffffffffffffffffffffffffffffffffffff82036129dd576129dc612974565b5b600182019050919050565b7f4974656d20646f6573206e6f742065786973742e0000000000000000000000005f82015250565b5f612a1c601483611f0d565b9150612a27826129e8565b602082019050919050565b5f6020820190508181035f830152612a4981612a10565b9050919050565b5f819050815f5260205f209050919050565b5f6020601f8301049050919050565b5f82821b905092915050565b5f60088302612aac7fffffffffffffffffffffffffffffffffffffffffffffffffffffffffffffffff82612a71565b612ab68683612a71565b95508019841693508086168417925050509392505050565b5f819050919050565b5f612af1612aec612ae784611d8c565b612ace565b611d8c565b9050919050565b5f819050919050565b612b0a83612ad7565b612b1e612b1682612af8565b848454612a7d565b825550505050565b5f90565b612b32612b26565b612b3d818484612b01565b505050565b5b81811015612b6057612b555f82612b2a565b600181019050612b43565b5050565b601f821115612ba557612b7681612a50565b612b7f84612a62565b81016020851015612b8e578190505b612ba2612b9a85612a62565b830182612b42565b50505b505050565b5f82821c905092915050565b5f612bc55f1984600802612baa565b1980831691505092915050565b5f612bdd8383612bb6565b9150826002028217905092915050565b612bf682611f03565b67ffffffffffffffff811115612c0f57612c0e611fb1565b5b612c1982546128c9565b612c24828285612b64565b5f60209050601f831160018114612c55575f8415612c43578287015190505b612c4d8582612bd2565b865550612cb4565b601f198416612c6386612a50565b5f5b82811015612c8a57848901518255600182019150602085019450602081019050612c65565b86831015612ca75784890151612ca3601f891682612bb6565b8355505b6001600288020188555050505b505050505050565b7f4e6f7420617574686f72697a65642e00000000000000000000000000000000005f82015250565b5f612cf0600f83611f0d565b9150612cfb82612cbc565b602082019050919050565b5f6020820190508181035f830152612d1d81612ce4565b9050919050565b5f612d2e82611d8c565b9150612d3983611d8c565b9250828202612d4781611d8c565b91508282048414831517612d5e57612d5d612974565b5b5092915050565b7f496e73756666696369656e74204554482073656e742e000000000000000000005f82015250565b5f612d99601683611f0d565b9150612da482612d65565b602082019050919050565b5f6020820190508181035f830152612dc681612d8d565b9050919050565b5f608082019050612de05f83018761260e565b612ded6020830186611dfd565b612dfa6040830185611dfd565b612e076060830184611dfd565b95945050505050565b5f612e1a82611d8c565b9150612e2583611d8c565b9250828201905080821115612e3d57612e3c612974565b5b92915050565b5f6040820190508181035f830152612e5b81856123f9565b90508181036020830152612e6f81846123f9565b90509392505050565b5f81519050919050565b5f82825260208201905092915050565b5f612e9c82612e78565b612ea68185612e82565b9350612eb6818560208601611f1d565b612ebf81611f45565b840191505092915050565b5f60a082019050612edd5f83018861260e565b612eea602083018761260e565b612ef76040830186611dfd565b612f046060830185611dfd565b8181036080830152612f168184612e92565b90509695505050505050565b5f81519050612f3081611e50565b92915050565b5f60208284031215612f4b57612f4a611d2a565b5b5f612f5884828501612f22565b91505092915050565b5f60a082019050612f745f83018861260e565b612f81602083018761260e565b8181036040830152612f9381866123f9565b90508181036060830152612fa781856123f9565b90508181036080830152612fbb8184612e92565b9050969550505050505056fea2646970667358221220bd839af8433326100c340d37dfd622c9216c33c058692bbece00be68e1ba376264736f6c63430008140033",
					"opcodes": "PUSH1 0x80 PUSH1 0x40 MSTORE CALLVALUE DUP1 ISZERO PUSH3 0x10 JUMPI PUSH0 DUP1 REVERT JUMPDEST POP CALLER PUSH1 0x40 MLOAD DUP1 PUSH1 0x20 ADD PUSH1 0x40 MSTORE DUP1 PUSH0 DUP2 MSTORE POP PUSH3 0x32 DUP2 PUSH3 0xBE PUSH1 0x20 SHL PUSH1 0x20 SHR JUMP JUMPDEST POP PUSH0 PUSH20 0xFFFFFFFFFFFFFFFFFFFFFFFFFFFFFFFFFFFFFFFF AND DUP2 PUSH20 0xFFFFFFFFFFFFFFFFFFFFFFFFFFFFFFFFFFFFFFFF AND SUB PUSH3 0xA6 JUMPI PUSH0 PUSH1 0x40 MLOAD PUSH32 0x1E4FBDF700000000000000000000000000000000000000000000000000000000 DUP2 MSTORE PUSH1 0x4 ADD PUSH3 0x9D SWAP2 SWAP1 PUSH3 0x1D9 JUMP JUMPDEST PUSH1 0x40 MLOAD DUP1 SWAP2 SUB SWAP1 REVERT JUMPDEST PUSH3 0xB7 DUP2 PUSH3 0xD3 PUSH1 0x20 SHL PUSH1 0x20 SHR JUMP JUMPDEST POP PUSH3 0x53C JUMP JUMPDEST DUP1 PUSH1 0x2 SWAP1 DUP2 PUSH3 0xCF SWAP2 SWAP1 PUSH3 0x458 JUMP JUMPDEST POP POP JUMP JUMPDEST PUSH0 PUSH1 0x3 PUSH0 SWAP1 SLOAD SWAP1 PUSH2 0x100 EXP SWAP1 DIV PUSH20 0xFFFFFFFFFFFFFFFFFFFFFFFFFFFFFFFFFFFFFFFF AND SWAP1 POP DUP2 PUSH1 0x3 PUSH0 PUSH2 0x100 EXP DUP2 SLOAD DUP2 PUSH20 0xFFFFFFFFFFFFFFFFFFFFFFFFFFFFFFFFFFFFFFFF MUL NOT AND SWAP1 DUP4 PUSH20 0xFFFFFFFFFFFFFFFFFFFFFFFFFFFFFFFFFFFFFFFF AND MUL OR SWAP1 SSTORE POP DUP2 PUSH20 0xFFFFFFFFFFFFFFFFFFFFFFFFFFFFFFFFFFFFFFFF AND DUP2 PUSH20 0xFFFFFFFFFFFFFFFFFFFFFFFFFFFFFFFFFFFFFFFF AND PUSH32 0x8BE0079C531659141344CD1FD0A4F28419497F9722A3DAAFE3B4186F6B6457E0 PUSH1 0x40 MLOAD PUSH1 0x40 MLOAD DUP1 SWAP2 SUB SWAP1 LOG3 POP POP JUMP JUMPDEST PUSH0 PUSH20 0xFFFFFFFFFFFFFFFFFFFFFFFFFFFFFFFFFFFFFFFF DUP3 AND SWAP1 POP SWAP2 SWAP1 POP JUMP JUMPDEST PUSH0 PUSH3 0x1C1 DUP3 PUSH3 0x196 JUMP JUMPDEST SWAP1 POP SWAP2 SWAP1 POP JUMP JUMPDEST PUSH3 0x1D3 DUP2 PUSH3 0x1B5 JUMP JUMPDEST DUP3 MSTORE POP POP JUMP JUMPDEST PUSH0 PUSH1 0x20 DUP3 ADD SWAP1 POP PUSH3 0x1EE PUSH0 DUP4 ADD DUP5 PUSH3 0x1C8 JUMP JUMPDEST SWAP3 SWAP2 POP POP JUMP JUMPDEST PUSH0 DUP2 MLOAD SWAP1 POP SWAP2 SWAP1 POP JUMP JUMPDEST PUSH32 0x4E487B7100000000000000000000000000000000000000000000000000000000 PUSH0 MSTORE PUSH1 0x41 PUSH1 0x4 MSTORE PUSH1 0x24 PUSH0 REVERT JUMPDEST PUSH32 0x4E487B7100000000000000000000000000000000000000000000000000000000 PUSH0 MSTORE PUSH1 0x22 PUSH1 0x4 MSTORE PUSH1 0x24 PUSH0 REVERT JUMPDEST PUSH0 PUSH1 0x2 DUP3 DIV SWAP1 POP PUSH1 0x1 DUP3 AND DUP1 PUSH3 0x270 JUMPI PUSH1 0x7F DUP3 AND SWAP2 POP JUMPDEST PUSH1 0x20 DUP3 LT DUP2 SUB PUSH3 0x286 JUMPI PUSH3 0x285 PUSH3 0x22B JUMP JUMPDEST JUMPDEST POP SWAP2 SWAP1 POP JUMP JUMPDEST PUSH0 DUP2 SWAP1 POP DUP2 PUSH0 MSTORE PUSH1 0x20 PUSH0 KECCAK256 SWAP1 POP SWAP2 SWAP1 POP JUMP JUMPDEST PUSH0 PUSH1 0x20 PUSH1 0x1F DUP4 ADD DIV SWAP1 POP SWAP2 SWAP1 POP JUMP JUMPDEST PUSH0 DUP3 DUP3 SHL SWAP1 POP SWAP3 SWAP2 POP POP JUMP JUMPDEST PUSH0 PUSH1 0x8 DUP4 MUL PUSH3 0x2EA PUSH32 0xFFFFFFFFFFFFFFFFFFFFFFFFFFFFFFFFFFFFFFFFFFFFFFFFFFFFFFFFFFFFFFFF DUP3 PUSH3 0x2AD JUMP JUMPDEST PUSH3 0x2F6 DUP7 DUP4 PUSH3 0x2AD JUMP JUMPDEST SWAP6 POP DUP1 NOT DUP5 AND SWAP4 POP DUP1 DUP7 AND DUP5 OR SWAP3 POP POP POP SWAP4 SWAP3 POP POP POP JUMP JUMPDEST PUSH0 DUP2 SWAP1 POP SWAP2 SWAP1 POP JUMP JUMPDEST PUSH0 DUP2 SWAP1 POP SWAP2 SWAP1 POP JUMP JUMPDEST PUSH0 PUSH3 0x340 PUSH3 0x33A PUSH3 0x334 DUP5 PUSH3 0x30E JUMP JUMPDEST PUSH3 0x317 JUMP JUMPDEST PUSH3 0x30E JUMP JUMPDEST SWAP1 POP SWAP2 SWAP1 POP JUMP JUMPDEST PUSH0 DUP2 SWAP1 POP SWAP2 SWAP1 POP JUMP JUMPDEST PUSH3 0x35B DUP4 PUSH3 0x320 JUMP JUMPDEST PUSH3 0x373 PUSH3 0x36A DUP3 PUSH3 0x347 JUMP JUMPDEST DUP5 DUP5 SLOAD PUSH3 0x2B9 JUMP JUMPDEST DUP3 SSTORE POP POP POP POP JUMP JUMPDEST PUSH0 SWAP1 JUMP JUMPDEST PUSH3 0x389 PUSH3 0x37B JUMP JUMPDEST PUSH3 0x396 DUP2 DUP5 DUP5 PUSH3 0x350 JUMP JUMPDEST POP POP POP JUMP JUMPDEST JUMPDEST DUP2 DUP2 LT ISZERO PUSH3 0x3BD JUMPI PUSH3 0x3B1 PUSH0 DUP3 PUSH3 0x37F JUMP JUMPDEST PUSH1 0x1 DUP2 ADD SWAP1 POP PUSH3 0x39C JUMP JUMPDEST POP POP JUMP JUMPDEST PUSH1 0x1F DUP3 GT ISZERO PUSH3 0x40C JUMPI PUSH3 0x3D6 DUP2 PUSH3 0x28C JUMP JUMPDEST PUSH3 0x3E1 DUP5 PUSH3 0x29E JUMP JUMPDEST DUP2 ADD PUSH1 0x20 DUP6 LT ISZERO PUSH3 0x3F1 JUMPI DUP2 SWAP1 POP JUMPDEST PUSH3 0x409 PUSH3 0x400 DUP6 PUSH3 0x29E JUMP JUMPDEST DUP4 ADD DUP3 PUSH3 0x39B JUMP JUMPDEST POP POP JUMPDEST POP POP POP JUMP JUMPDEST PUSH0 DUP3 DUP3 SHR SWAP1 POP SWAP3 SWAP2 POP POP JUMP JUMPDEST PUSH0 PUSH3 0x42E PUSH0 NOT DUP5 PUSH1 0x8 MUL PUSH3 0x411 JUMP JUMPDEST NOT DUP1 DUP4 AND SWAP2 POP POP SWAP3 SWAP2 POP POP JUMP JUMPDEST PUSH0 PUSH3 0x448 DUP4 DUP4 PUSH3 0x41D JUMP JUMPDEST SWAP2 POP DUP3 PUSH1 0x2 MUL DUP3 OR SWAP1 POP SWAP3 SWAP2 POP POP JUMP JUMPDEST PUSH3 0x463 DUP3 PUSH3 0x1F4 JUMP JUMPDEST PUSH8 0xFFFFFFFFFFFFFFFF DUP2 GT ISZERO PUSH3 0x47F JUMPI PUSH3 0x47E PUSH3 0x1FE JUMP JUMPDEST JUMPDEST PUSH3 0x48B DUP3 SLOAD PUSH3 0x258 JUMP JUMPDEST PUSH3 0x498 DUP3 DUP3 DUP6 PUSH3 0x3C1 JUMP JUMPDEST PUSH0 PUSH1 0x20 SWAP1 POP PUSH1 0x1F DUP4 GT PUSH1 0x1 DUP2 EQ PUSH3 0x4CE JUMPI PUSH0 DUP5 ISZERO PUSH3 0x4B9 JUMPI DUP3 DUP8 ADD MLOAD SWAP1 POP JUMPDEST PUSH3 0x4C5 DUP6 DUP3 PUSH3 0x43B JUMP JUMPDEST DUP7 SSTORE POP PUSH3 0x534 JUMP JUMPDEST PUSH1 0x1F NOT DUP5 AND PUSH3 0x4DE DUP7 PUSH3 0x28C JUMP JUMPDEST PUSH0 JUMPDEST DUP3 DUP2 LT ISZERO PUSH3 0x507 JUMPI DUP5 DUP10 ADD MLOAD DUP3 SSTORE PUSH1 0x1 DUP3 ADD SWAP2 POP PUSH1 0x20 DUP6 ADD SWAP5 POP PUSH1 0x20 DUP2 ADD SWAP1 POP PUSH3 0x4E0 JUMP JUMPDEST DUP7 DUP4 LT ISZERO PUSH3 0x527 JUMPI DUP5 DUP10 ADD MLOAD PUSH3 0x523 PUSH1 0x1F DUP10 AND DUP3 PUSH3 0x41D JUMP JUMPDEST DUP4 SSTORE POP JUMPDEST PUSH1 0x1 PUSH1 0x2 DUP9 MUL ADD DUP9 SSTORE POP POP POP JUMPDEST POP POP POP POP POP POP JUMP JUMPDEST PUSH2 0x2FFD DUP1 PUSH3 0x54A PUSH0 CODECOPY PUSH0 RETURN INVALID PUSH1 0x80 PUSH1 0x40 MSTORE PUSH1 0x4 CALLDATASIZE LT PUSH2 0xF1 JUMPI PUSH0 CALLDATALOAD PUSH1 0xE0 SHR DUP1 PUSH4 0x8DA5CB5B GT PUSH2 0x89 JUMPI DUP1 PUSH4 0xE0675698 GT PUSH2 0x58 JUMPI DUP1 PUSH4 0xE0675698 EQ PUSH2 0x340 JUMPI DUP1 PUSH4 0xE985E9C5 EQ PUSH2 0x35C JUMPI DUP1 PUSH4 0xF242432A EQ PUSH2 0x398 JUMPI DUP1 PUSH4 0xF2FDE38B EQ PUSH2 0x3C0 JUMPI PUSH2 0xF1 JUMP JUMPDEST DUP1 PUSH4 0x8DA5CB5B EQ PUSH2 0x287 JUMPI DUP1 PUSH4 0xA22CB465 EQ PUSH2 0x2B1 JUMPI DUP1 PUSH4 0xBFB231D2 EQ PUSH2 0x2D9 JUMPI DUP1 PUSH4 0xD2581535 EQ PUSH2 0x318 JUMPI PUSH2 0xF1 JUMP JUMPDEST DUP1 PUSH4 0x4E1273F4 GT PUSH2 0xC5 JUMPI DUP1 PUSH4 0x4E1273F4 EQ PUSH2 0x1D1 JUMPI DUP1 PUSH4 0x696A50B4 EQ PUSH2 0x20D JUMPI DUP1 PUSH4 0x6C150B2C EQ PUSH2 0x235 JUMPI DUP1 PUSH4 0x715018A6 EQ PUSH2 0x271 JUMPI PUSH2 0xF1 JUMP JUMPDEST DUP1 PUSH3 0xFDD58E EQ PUSH2 0xF5 JUMPI DUP1 PUSH4 0x1FFC9A7 EQ PUSH2 0x131 JUMPI DUP1 PUSH4 0xE89341C EQ PUSH2 0x16D JUMPI DUP1 PUSH4 0x2EB2C2D6 EQ PUSH2 0x1A9 JUMPI JUMPDEST PUSH0 DUP1 REVERT JUMPDEST CALLVALUE DUP1 ISZERO PUSH2 0x100 JUMPI PUSH0 DUP1 REVERT JUMPDEST POP PUSH2 0x11B PUSH1 0x4 DUP1 CALLDATASIZE SUB DUP2 ADD SWAP1 PUSH2 0x116 SWAP2 SWAP1 PUSH2 0x1DBF JUMP JUMPDEST PUSH2 0x3E8 JUMP JUMPDEST PUSH1 0x40 MLOAD PUSH2 0x128 SWAP2 SWAP1 PUSH2 0x1E0C JUMP JUMPDEST PUSH1 0x40 MLOAD DUP1 SWAP2 SUB SWAP1 RETURN JUMPDEST CALLVALUE DUP1 ISZERO PUSH2 0x13C JUMPI PUSH0 DUP1 REVERT JUMPDEST POP PUSH2 0x157 PUSH1 0x4 DUP1 CALLDATASIZE SUB DUP2 ADD SWAP1 PUSH2 0x152 SWAP2 SWAP1 PUSH2 0x1E7A JUMP JUMPDEST PUSH2 0x43D JUMP JUMPDEST PUSH1 0x40 MLOAD PUSH2 0x164 SWAP2 SWAP1 PUSH2 0x1EBF JUMP JUMPDEST PUSH1 0x40 MLOAD DUP1 SWAP2 SUB SWAP1 RETURN JUMPDEST CALLVALUE DUP1 ISZERO PUSH2 0x178 JUMPI PUSH0 DUP1 REVERT JUMPDEST POP PUSH2 0x193 PUSH1 0x4 DUP1 CALLDATASIZE SUB DUP2 ADD SWAP1 PUSH2 0x18E SWAP2 SWAP1 PUSH2 0x1ED8 JUMP JUMPDEST PUSH2 0x51E JUMP JUMPDEST PUSH1 0x40 MLOAD PUSH2 0x1A0 SWAP2 SWAP1 PUSH2 0x1F8D JUMP JUMPDEST PUSH1 0x40 MLOAD DUP1 SWAP2 SUB SWAP1 RETURN JUMPDEST CALLVALUE DUP1 ISZERO PUSH2 0x1B4 JUMPI PUSH0 DUP1 REVERT JUMPDEST POP PUSH2 0x1CF PUSH1 0x4 DUP1 CALLDATASIZE SUB DUP2 ADD SWAP1 PUSH2 0x1CA SWAP2 SWAP1 PUSH2 0x219D JUMP JUMPDEST PUSH2 0x5B0 JUMP JUMPDEST STOP JUMPDEST CALLVALUE DUP1 ISZERO PUSH2 0x1DC JUMPI PUSH0 DUP1 REVERT JUMPDEST POP PUSH2 0x1F7 PUSH1 0x4 DUP1 CALLDATASIZE SUB DUP2 ADD SWAP1 PUSH2 0x1F2 SWAP2 SWAP1 PUSH2 0x2328 JUMP JUMPDEST PUSH2 0x657 JUMP JUMPDEST PUSH1 0x40 MLOAD PUSH2 0x204 SWAP2 SWAP1 PUSH2 0x2455 JUMP JUMPDEST PUSH1 0x40 MLOAD DUP1 SWAP2 SUB SWAP1 RETURN JUMPDEST CALLVALUE DUP1 ISZERO PUSH2 0x218 JUMPI PUSH0 DUP1 REVERT JUMPDEST POP PUSH2 0x233 PUSH1 0x4 DUP1 CALLDATASIZE SUB DUP2 ADD SWAP1 PUSH2 0x22E SWAP2 SWAP1 PUSH2 0x2475 JUMP JUMPDEST PUSH2 0x764 JUMP JUMPDEST STOP JUMPDEST CALLVALUE DUP1 ISZERO PUSH2 0x240 JUMPI PUSH0 DUP1 REVERT JUMPDEST POP PUSH2 0x25B PUSH1 0x4 DUP1 CALLDATASIZE SUB DUP2 ADD SWAP1 PUSH2 0x256 SWAP2 SWAP1 PUSH2 0x2586 JUMP JUMPDEST PUSH2 0x7E0 JUMP JUMPDEST PUSH1 0x40 MLOAD PUSH2 0x268 SWAP2 SWAP1 PUSH2 0x1E0C JUMP JUMPDEST PUSH1 0x40 MLOAD DUP1 SWAP2 SUB SWAP1 RETURN JUMPDEST CALLVALUE DUP1 ISZERO PUSH2 0x27C JUMPI PUSH0 DUP1 REVERT JUMPDEST POP PUSH2 0x285 PUSH2 0x8BA JUMP JUMPDEST STOP JUMPDEST CALLVALUE DUP1 ISZERO PUSH2 0x292 JUMPI PUSH0 DUP1 REVERT JUMPDEST POP PUSH2 0x29B PUSH2 0x8CD JUMP JUMPDEST PUSH1 0x40 MLOAD PUSH2 0x2A8 SWAP2 SWAP1 PUSH2 0x261D JUMP JUMPDEST PUSH1 0x40 MLOAD DUP1 SWAP2 SUB SWAP1 RETURN JUMPDEST CALLVALUE DUP1 ISZERO PUSH2 0x2BC JUMPI PUSH0 DUP1 REVERT JUMPDEST POP PUSH2 0x2D7 PUSH1 0x4 DUP1 CALLDATASIZE SUB DUP2 ADD SWAP1 PUSH2 0x2D2 SWAP2 SWAP1 PUSH2 0x2660 JUMP JUMPDEST PUSH2 0x8F5 JUMP JUMPDEST STOP JUMPDEST CALLVALUE DUP1 ISZERO PUSH2 0x2E4 JUMPI PUSH0 DUP1 REVERT JUMPDEST POP PUSH2 0x2FF PUSH1 0x4 DUP1 CALLDATASIZE SUB DUP2 ADD SWAP1 PUSH2 0x2FA SWAP2 SWAP1 PUSH2 0x1ED8 JUMP JUMPDEST PUSH2 0x90B JUMP JUMPDEST PUSH1 0x40 MLOAD PUSH2 0x30F SWAP5 SWAP4 SWAP3 SWAP2 SWAP1 PUSH2 0x2711 JUMP JUMPDEST PUSH1 0x40 MLOAD DUP1 SWAP2 SUB SWAP1 RETURN JUMPDEST CALLVALUE DUP1 ISZERO PUSH2 0x323 JUMPI PUSH0 DUP1 REVERT JUMPDEST POP PUSH2 0x33E PUSH1 0x4 DUP1 CALLDATASIZE SUB DUP2 ADD SWAP1 PUSH2 0x339 SWAP2 SWAP1 PUSH2 0x2475 JUMP JUMPDEST PUSH2 0xA4F JUMP JUMPDEST STOP JUMPDEST PUSH2 0x35A PUSH1 0x4 DUP1 CALLDATASIZE SUB DUP2 ADD SWAP1 PUSH2 0x355 SWAP2 SWAP1 PUSH2 0x2762 JUMP JUMPDEST PUSH2 0xADE JUMP JUMPDEST STOP JUMPDEST CALLVALUE DUP1 ISZERO PUSH2 0x367 JUMPI PUSH0 DUP1 REVERT JUMPDEST POP PUSH2 0x382 PUSH1 0x4 DUP1 CALLDATASIZE SUB DUP2 ADD SWAP1 PUSH2 0x37D SWAP2 SWAP1 PUSH2 0x27A0 JUMP JUMPDEST PUSH2 0xCFE JUMP JUMPDEST PUSH1 0x40 MLOAD PUSH2 0x38F SWAP2 SWAP1 PUSH2 0x1EBF JUMP JUMPDEST PUSH1 0x40 MLOAD DUP1 SWAP2 SUB SWAP1 RETURN JUMPDEST CALLVALUE DUP1 ISZERO PUSH2 0x3A3 JUMPI PUSH0 DUP1 REVERT JUMPDEST POP PUSH2 0x3BE PUSH1 0x4 DUP1 CALLDATASIZE SUB DUP2 ADD SWAP1 PUSH2 0x3B9 SWAP2 SWAP1 PUSH2 0x27DE JUMP JUMPDEST PUSH2 0xD8C JUMP JUMPDEST STOP JUMPDEST CALLVALUE DUP1 ISZERO PUSH2 0x3CB JUMPI PUSH0 DUP1 REVERT JUMPDEST POP PUSH2 0x3E6 PUSH1 0x4 DUP1 CALLDATASIZE SUB DUP2 ADD SWAP1 PUSH2 0x3E1 SWAP2 SWAP1 PUSH2 0x2871 JUMP JUMPDEST PUSH2 0xE33 JUMP JUMPDEST STOP JUMPDEST PUSH0 DUP1 PUSH0 DUP4 DUP2 MSTORE PUSH1 0x20 ADD SWAP1 DUP2 MSTORE PUSH1 0x20 ADD PUSH0 KECCAK256 PUSH0 DUP5 PUSH20 0xFFFFFFFFFFFFFFFFFFFFFFFFFFFFFFFFFFFFFFFF AND PUSH20 0xFFFFFFFFFFFFFFFFFFFFFFFFFFFFFFFFFFFFFFFF AND DUP2 MSTORE PUSH1 0x20 ADD SWAP1 DUP2 MSTORE PUSH1 0x20 ADD PUSH0 KECCAK256 SLOAD SWAP1 POP SWAP3 SWAP2 POP POP JUMP JUMPDEST PUSH0 PUSH32 0xD9B67A2600000000000000000000000000000000000000000000000000000000 PUSH28 0xFFFFFFFFFFFFFFFFFFFFFFFFFFFFFFFFFFFFFFFFFFFFFFFFFFFFFFFF NOT AND DUP3 PUSH28 0xFFFFFFFFFFFFFFFFFFFFFFFFFFFFFFFFFFFFFFFFFFFFFFFFFFFFFFFF NOT AND EQ DUP1 PUSH2 0x507 JUMPI POP PUSH32 0xE89341C00000000000000000000000000000000000000000000000000000000 PUSH28 0xFFFFFFFFFFFFFFFFFFFFFFFFFFFFFFFFFFFFFFFFFFFFFFFFFFFFFFFF NOT AND DUP3 PUSH28 0xFFFFFFFFFFFFFFFFFFFFFFFFFFFFFFFFFFFFFFFFFFFFFFFFFFFFFFFF NOT AND EQ JUMPDEST DUP1 PUSH2 0x517 JUMPI POP PUSH2 0x516 DUP3 PUSH2 0xEB7 JUMP JUMPDEST JUMPDEST SWAP1 POP SWAP2 SWAP1 POP JUMP JUMPDEST PUSH1 0x60 PUSH1 0x2 DUP1 SLOAD PUSH2 0x52D SWAP1 PUSH2 0x28C9 JUMP JUMPDEST DUP1 PUSH1 0x1F ADD PUSH1 0x20 DUP1 SWAP2 DIV MUL PUSH1 0x20 ADD PUSH1 0x40 MLOAD SWAP1 DUP2 ADD PUSH1 0x40 MSTORE DUP1 SWAP3 SWAP2 SWAP1 DUP2 DUP2 MSTORE PUSH1 0x20 ADD DUP3 DUP1 SLOAD PUSH2 0x559 SWAP1 PUSH2 0x28C9 JUMP JUMPDEST DUP1 ISZERO PUSH2 0x5A4 JUMPI DUP1 PUSH1 0x1F LT PUSH2 0x57B JUMPI PUSH2 0x100 DUP1 DUP4 SLOAD DIV MUL DUP4 MSTORE SWAP2 PUSH1 0x20 ADD SWAP2 PUSH2 0x5A4 JUMP JUMPDEST DUP3 ADD SWAP2 SWAP1 PUSH0 MSTORE PUSH1 0x20 PUSH0 KECCAK256 SWAP1 JUMPDEST DUP2 SLOAD DUP2 MSTORE SWAP1 PUSH1 0x1 ADD SWAP1 PUSH1 0x20 ADD DUP1 DUP4 GT PUSH2 0x587 JUMPI DUP3 SWAP1 SUB PUSH1 0x1F AND DUP3 ADD SWAP2 JUMPDEST POP POP POP POP POP SWAP1 POP SWAP2 SWAP1 POP JUMP JUMPDEST PUSH0 PUSH2 0x5B9 PUSH2 0xF20 JUMP JUMPDEST SWAP1 POP DUP1 PUSH20 0xFFFFFFFFFFFFFFFFFFFFFFFFFFFFFFFFFFFFFFFF AND DUP7 PUSH20 0xFFFFFFFFFFFFFFFFFFFFFFFFFFFFFFFFFFFFFFFF AND EQ ISZERO DUP1 ISZERO PUSH2 0x5FE JUMPI POP PUSH2 0x5FC DUP7 DUP3 PUSH2 0xCFE JUMP JUMPDEST ISZERO JUMPDEST ISZERO PUSH2 0x642 JUMPI DUP1 DUP7 PUSH1 0x40 MLOAD PUSH32 0xE237D92200000000000000000000000000000000000000000000000000000000 DUP2 MSTORE PUSH1 0x4 ADD PUSH2 0x639 SWAP3 SWAP2 SWAP1 PUSH2 0x28F9 JUMP JUMPDEST PUSH1 0x40 MLOAD DUP1 SWAP2 SUB SWAP1 REVERT JUMPDEST PUSH2 0x64F DUP7 DUP7 DUP7 DUP7 DUP7 PUSH2 0xF27 JUMP JUMPDEST POP POP POP POP POP POP JUMP JUMPDEST PUSH1 0x60 DUP2 MLOAD DUP4 MLOAD EQ PUSH2 0x6A3 JUMPI DUP2 MLOAD DUP4 MLOAD PUSH1 0x40 MLOAD PUSH32 0x5B05999100000000000000000000000000000000000000000000000000000000 DUP2 MSTORE PUSH1 0x4 ADD PUSH2 0x69A SWAP3 SWAP2 SWAP1 PUSH2 0x2920 JUMP JUMPDEST PUSH1 0x40 MLOAD DUP1 SWAP2 SUB SWAP1 REVERT JUMPDEST PUSH0 DUP4 MLOAD PUSH8 0xFFFFFFFFFFFFFFFF DUP2 GT ISZERO PUSH2 0x6BF JUMPI PUSH2 0x6BE PUSH2 0x1FB1 JUMP JUMPDEST JUMPDEST PUSH1 0x40 MLOAD SWAP1 DUP1 DUP3 MSTORE DUP1 PUSH1 0x20 MUL PUSH1 0x20 ADD DUP3 ADD PUSH1 0x40 MSTORE DUP1 ISZERO PUSH2 0x6ED JUMPI DUP2 PUSH1 0x20 ADD PUSH1 0x20 DUP3 MUL DUP1 CALLDATASIZE DUP4 CALLDATACOPY DUP1 DUP3 ADD SWAP2 POP POP SWAP1 POP JUMPDEST POP SWAP1 POP PUSH0 JUMPDEST DUP5 MLOAD DUP2 LT ISZERO PUSH2 0x759 JUMPI PUSH2 0x729 PUSH2 0x711 DUP3 DUP8 PUSH2 0x101B SWAP1 SWAP2 SWAP1 PUSH4 0xFFFFFFFF AND JUMP JUMPDEST PUSH2 0x724 DUP4 DUP8 PUSH2 0x102E SWAP1 SWAP2 SWAP1 PUSH4 0xFFFFFFFF AND JUMP JUMPDEST PUSH2 0x3E8 JUMP JUMPDEST DUP3 DUP3 DUP2 MLOAD DUP2 LT PUSH2 0x73C JUMPI PUSH2 0x73B PUSH2 0x2947 JUMP JUMPDEST JUMPDEST PUSH1 0x20 MUL PUSH1 0x20 ADD ADD DUP2 DUP2 MSTORE POP POP DUP1 PUSH2 0x752 SWAP1 PUSH2 0x29A1 JUMP JUMPDEST SWAP1 POP PUSH2 0x6F2 JUMP JUMPDEST POP DUP1 SWAP2 POP POP SWAP3 SWAP2 POP POP JUMP JUMPDEST PUSH2 0x76C PUSH2 0x1041 JUMP JUMPDEST DUP2 PUSH1 0x5 PUSH0 DUP5 DUP2 MSTORE PUSH1 0x20 ADD SWAP1 DUP2 MSTORE PUSH1 0x20 ADD PUSH0 KECCAK256 PUSH0 ADD SLOAD EQ PUSH2 0x7C1 JUMPI PUSH1 0x40 MLOAD PUSH32 0x8C379A000000000000000000000000000000000000000000000000000000000 DUP2 MSTORE PUSH1 0x4 ADD PUSH2 0x7B8 SWAP1 PUSH2 0x2A32 JUMP JUMPDEST PUSH1 0x40 MLOAD DUP1 SWAP2 SUB SWAP1 REVERT JUMPDEST PUSH2 0x7DB DUP4 DUP4 DUP4 PUSH1 0x40 MLOAD DUP1 PUSH1 0x20 ADD PUSH1 0x40 MSTORE DUP1 PUSH0 DUP2 MSTORE POP PUSH2 0x10C8 JUMP JUMPDEST POP POP POP JUMP JUMPDEST PUSH0 PUSH2 0x7E9 PUSH2 0x1041 JUMP JUMPDEST PUSH2 0x7F3 PUSH1 0x4 PUSH2 0x115D JUMP JUMPDEST PUSH0 PUSH2 0x7FE PUSH1 0x4 PUSH2 0x1171 JUMP JUMPDEST SWAP1 POP PUSH0 PUSH1 0x40 MLOAD DUP1 PUSH1 0x80 ADD PUSH1 0x40 MSTORE DUP1 DUP4 DUP2 MSTORE PUSH1 0x20 ADD DUP8 PUSH1 0x2 DUP2 GT ISZERO PUSH2 0x825 JUMPI PUSH2 0x824 PUSH2 0x269E JUMP JUMPDEST JUMPDEST DUP2 MSTORE PUSH1 0x20 ADD DUP7 DUP2 MSTORE PUSH1 0x20 ADD DUP6 DUP2 MSTORE POP SWAP1 POP DUP1 PUSH1 0x5 PUSH0 DUP5 DUP2 MSTORE PUSH1 0x20 ADD SWAP1 DUP2 MSTORE PUSH1 0x20 ADD PUSH0 KECCAK256 PUSH0 DUP3 ADD MLOAD DUP2 PUSH0 ADD SSTORE PUSH1 0x20 DUP3 ADD MLOAD DUP2 PUSH1 0x1 ADD PUSH0 PUSH2 0x100 EXP DUP2 SLOAD DUP2 PUSH1 0xFF MUL NOT AND SWAP1 DUP4 PUSH1 0x2 DUP2 GT ISZERO PUSH2 0x87A JUMPI PUSH2 0x879 PUSH2 0x269E JUMP JUMPDEST JUMPDEST MUL OR SWAP1 SSTORE POP PUSH1 0x40 DUP3 ADD MLOAD DUP2 PUSH1 0x2 ADD SWAP1 DUP2 PUSH2 0x894 SWAP2 SWAP1 PUSH2 0x2BED JUMP JUMPDEST POP PUSH1 0x60 DUP3 ADD MLOAD DUP2 PUSH1 0x3 ADD SWAP1 DUP2 PUSH2 0x8AA SWAP2 SWAP1 PUSH2 0x2BED JUMP JUMPDEST POP SWAP1 POP POP DUP2 SWAP3 POP POP POP SWAP4 SWAP3 POP POP POP JUMP JUMPDEST PUSH2 0x8C2 PUSH2 0x1041 JUMP JUMPDEST PUSH2 0x8CB PUSH0 PUSH2 0x117D JUMP JUMPDEST JUMP JUMPDEST PUSH0 PUSH1 0x3 PUSH0 SWAP1 SLOAD SWAP1 PUSH2 0x100 EXP SWAP1 DIV PUSH20 0xFFFFFFFFFFFFFFFFFFFFFFFFFFFFFFFFFFFFFFFF AND SWAP1 POP SWAP1 JUMP JUMPDEST PUSH2 0x907 PUSH2 0x900 PUSH2 0xF20 JUMP JUMPDEST DUP4 DUP4 PUSH2 0x1240 JUMP JUMPDEST POP POP JUMP JUMPDEST PUSH1 0x5 PUSH1 0x20 MSTORE DUP1 PUSH0 MSTORE PUSH1 0x40 PUSH0 KECCAK256 PUSH0 SWAP2 POP SWAP1 POP DUP1 PUSH0 ADD SLOAD SWAP1 DUP1 PUSH1 0x1 ADD PUSH0 SWAP1 SLOAD SWAP1 PUSH2 0x100 EXP SWAP1 DIV PUSH1 0xFF AND SWAP1 DUP1 PUSH1 0x2 ADD DUP1 SLOAD PUSH2 0x942 SWAP1 PUSH2 0x28C9 JUMP JUMPDEST DUP1 PUSH1 0x1F ADD PUSH1 0x20 DUP1 SWAP2 DIV MUL PUSH1 0x20 ADD PUSH1 0x40 MLOAD SWAP1 DUP2 ADD PUSH1 0x40 MSTORE DUP1 SWAP3 SWAP2 SWAP1 DUP2 DUP2 MSTORE PUSH1 0x20 ADD DUP3 DUP1 SLOAD PUSH2 0x96E SWAP1 PUSH2 0x28C9 JUMP JUMPDEST DUP1 ISZERO PUSH2 0x9B9 JUMPI DUP1 PUSH1 0x1F LT PUSH2 0x990 JUMPI PUSH2 0x100 DUP1 DUP4 SLOAD DIV MUL DUP4 MSTORE SWAP2 PUSH1 0x20 ADD SWAP2 PUSH2 0x9B9 JUMP JUMPDEST DUP3 ADD SWAP2 SWAP1 PUSH0 MSTORE PUSH1 0x20 PUSH0 KECCAK256 SWAP1 JUMPDEST DUP2 SLOAD DUP2 MSTORE SWAP1 PUSH1 0x1 ADD SWAP1 PUSH1 0x20 ADD DUP1 DUP4 GT PUSH2 0x99C JUMPI DUP3 SWAP1 SUB PUSH1 0x1F AND DUP3 ADD SWAP2 JUMPDEST POP POP POP POP POP SWAP1 DUP1 PUSH1 0x3 ADD DUP1 SLOAD PUSH2 0x9CE SWAP1 PUSH2 0x28C9 JUMP JUMPDEST DUP1 PUSH1 0x1F ADD PUSH1 0x20 DUP1 SWAP2 DIV MUL PUSH1 0x20 ADD PUSH1 0x40 MLOAD SWAP1 DUP2 ADD PUSH1 0x40 MSTORE DUP1 SWAP3 SWAP2 SWAP1 DUP2 DUP2 MSTORE PUSH1 0x20 ADD DUP3 DUP1 SLOAD PUSH2 0x9FA SWAP1 PUSH2 0x28C9 JUMP JUMPDEST DUP1 ISZERO PUSH2 0xA45 JUMPI DUP1 PUSH1 0x1F LT PUSH2 0xA1C JUMPI PUSH2 0x100 DUP1 DUP4 SLOAD DIV MUL DUP4 MSTORE SWAP2 PUSH1 0x20 ADD SWAP2 PUSH2 0xA45 JUMP JUMPDEST DUP3 ADD SWAP2 SWAP1 PUSH0 MSTORE PUSH1 0x20 PUSH0 KECCAK256 SWAP1 JUMPDEST DUP2 SLOAD DUP2 MSTORE SWAP1 PUSH1 0x1 ADD SWAP1 PUSH1 0x20 ADD DUP1 DUP4 GT PUSH2 0xA28 JUMPI DUP3 SWAP1 SUB PUSH1 0x1F AND DUP3 ADD SWAP2 JUMPDEST POP POP POP POP POP SWAP1 POP DUP5 JUMP JUMPDEST DUP3 PUSH20 0xFFFFFFFFFFFFFFFFFFFFFFFFFFFFFFFFFFFFFFFF AND CALLER PUSH20 0xFFFFFFFFFFFFFFFFFFFFFFFFFFFFFFFFFFFFFFFF AND EQ DUP1 PUSH2 0xA8F JUMPI POP PUSH2 0xA8E DUP4 CALLER PUSH2 0xCFE JUMP JUMPDEST JUMPDEST PUSH2 0xACE JUMPI PUSH1 0x40 MLOAD PUSH32 0x8C379A000000000000000000000000000000000000000000000000000000000 DUP2 MSTORE PUSH1 0x4 ADD PUSH2 0xAC5 SWAP1 PUSH2 0x2D06 JUMP JUMPDEST PUSH1 0x40 MLOAD DUP1 SWAP2 SUB SWAP1 REVERT JUMPDEST PUSH2 0xAD9 DUP4 DUP4 DUP4 PUSH2 0x13A9 JUMP JUMPDEST POP POP POP JUMP JUMPDEST DUP2 PUSH1 0x5 PUSH0 DUP5 DUP2 MSTORE PUSH1 0x20 ADD SWAP1 DUP2 MSTORE PUSH1 0x20 ADD PUSH0 KECCAK256 PUSH0 ADD SLOAD EQ PUSH2 0xB33 JUMPI PUSH1 0x40 MLOAD PUSH32 0x8C379A000000000000000000000000000000000000000000000000000000000 DUP2 MSTORE PUSH1 0x4 ADD PUSH2 0xB2A SWAP1 PUSH2 0x2A32 JUMP JUMPDEST PUSH1 0x40 MLOAD DUP1 SWAP2 SUB SWAP1 REVERT JUMPDEST PUSH0 DUP1 PUSH1 0x2 DUP2 GT ISZERO PUSH2 0xB47 JUMPI PUSH2 0xB46 PUSH2 0x269E JUMP JUMPDEST JUMPDEST PUSH1 0x5 PUSH0 DUP6 DUP2 MSTORE PUSH1 0x20 ADD SWAP1 DUP2 MSTORE PUSH1 0x20 ADD PUSH0 KECCAK256 PUSH1 0x1 ADD PUSH0 SWAP1 SLOAD SWAP1 PUSH2 0x100 EXP SWAP1 DIV PUSH1 0xFF AND PUSH1 0x2 DUP2 GT ISZERO PUSH2 0xB7A JUMPI PUSH2 0xB79 PUSH2 0x269E JUMP JUMPDEST JUMPDEST SUB PUSH2 0xB8F JUMPI PUSH8 0x8AC7230489E80000 SWAP1 POP PUSH2 0xC46 JUMP JUMPDEST PUSH1 0x1 PUSH1 0x2 DUP2 GT ISZERO PUSH2 0xBA3 JUMPI PUSH2 0xBA2 PUSH2 0x269E JUMP JUMPDEST JUMPDEST PUSH1 0x5 PUSH0 DUP6 DUP2 MSTORE PUSH1 0x20 ADD SWAP1 DUP2 MSTORE PUSH1 0x20 ADD PUSH0 KECCAK256 PUSH1 0x1 ADD PUSH0 SWAP1 SLOAD SWAP1 PUSH2 0x100 EXP SWAP1 DIV PUSH1 0xFF AND PUSH1 0x2 DUP2 GT ISZERO PUSH2 0xBD6 JUMPI PUSH2 0xBD5 PUSH2 0x269E JUMP JUMPDEST JUMPDEST SUB PUSH2 0xBEC JUMPI PUSH9 0x1158E460913D00000 SWAP1 POP PUSH2 0xC45 JUMP JUMPDEST PUSH1 0x2 DUP1 DUP2 GT ISZERO PUSH2 0xBFF JUMPI PUSH2 0xBFE PUSH2 0x269E JUMP JUMPDEST JUMPDEST PUSH1 0x5 PUSH0 DUP6 DUP2 MSTORE PUSH1 0x20 ADD SWAP1 DUP2 MSTORE PUSH1 0x20 ADD PUSH0 KECCAK256 PUSH1 0x1 ADD PUSH0 SWAP1 SLOAD SWAP1 PUSH2 0x100 EXP SWAP1 DIV PUSH1 0xFF AND PUSH1 0x2 DUP2 GT ISZERO PUSH2 0xC32 JUMPI PUSH2 0xC31 PUSH2 0x269E JUMP JUMPDEST JUMPDEST SUB PUSH2 0xC44 JUMPI PUSH9 0x1A055690D9DB80000 SWAP1 POP JUMPDEST JUMPDEST JUMPDEST DUP2 DUP2 PUSH2 0xC52 SWAP2 SWAP1 PUSH2 0x2D24 JUMP JUMPDEST CALLVALUE LT ISZERO PUSH2 0xC94 JUMPI PUSH1 0x40 MLOAD PUSH32 0x8C379A000000000000000000000000000000000000000000000000000000000 DUP2 MSTORE PUSH1 0x4 ADD PUSH2 0xC8B SWAP1 PUSH2 0x2DAF JUMP JUMPDEST PUSH1 0x40 MLOAD DUP1 SWAP2 SUB SWAP1 REVERT JUMPDEST PUSH2 0xCAE CALLER DUP5 DUP5 PUSH1 0x40 MLOAD DUP1 PUSH1 0x20 ADD PUSH1 0x40 MSTORE DUP1 PUSH0 DUP2 MSTORE POP PUSH2 0x10C8 JUMP JUMPDEST PUSH2 0xCB6 PUSH2 0x8CD JUMP JUMPDEST PUSH20 0xFFFFFFFFFFFFFFFFFFFFFFFFFFFFFFFFFFFFFFFF AND PUSH2 0x8FC CALLVALUE SWAP1 DUP2 ISZERO MUL SWAP1 PUSH1 0x40 MLOAD PUSH0 PUSH1 0x40 MLOAD DUP1 DUP4 SUB DUP2 DUP6 DUP9 DUP9 CALL SWAP4 POP POP POP POP ISZERO DUP1 ISZERO PUSH2 0xCF8 JUMPI RETURNDATASIZE PUSH0 DUP1 RETURNDATACOPY RETURNDATASIZE PUSH0 REVERT JUMPDEST POP POP POP POP JUMP JUMPDEST PUSH0 PUSH1 0x1 PUSH0 DUP5 PUSH20 0xFFFFFFFFFFFFFFFFFFFFFFFFFFFFFFFFFFFFFFFF AND PUSH20 0xFFFFFFFFFFFFFFFFFFFFFFFFFFFFFFFFFFFFFFFF AND DUP2 MSTORE PUSH1 0x20 ADD SWAP1 DUP2 MSTORE PUSH1 0x20 ADD PUSH0 KECCAK256 PUSH0 DUP4 PUSH20 0xFFFFFFFFFFFFFFFFFFFFFFFFFFFFFFFFFFFFFFFF AND PUSH20 0xFFFFFFFFFFFFFFFFFFFFFFFFFFFFFFFFFFFFFFFF AND DUP2 MSTORE PUSH1 0x20 ADD SWAP1 DUP2 MSTORE PUSH1 0x20 ADD PUSH0 KECCAK256 PUSH0 SWAP1 SLOAD SWAP1 PUSH2 0x100 EXP SWAP1 DIV PUSH1 0xFF AND SWAP1 POP SWAP3 SWAP2 POP POP JUMP JUMPDEST PUSH0 PUSH2 0xD95 PUSH2 0xF20 JUMP JUMPDEST SWAP1 POP DUP1 PUSH20 0xFFFFFFFFFFFFFFFFFFFFFFFFFFFFFFFFFFFFFFFF AND DUP7 PUSH20 0xFFFFFFFFFFFFFFFFFFFFFFFFFFFFFFFFFFFFFFFF AND EQ ISZERO DUP1 ISZERO PUSH2 0xDDA JUMPI POP PUSH2 0xDD8 DUP7 DUP3 PUSH2 0xCFE JUMP JUMPDEST ISZERO JUMPDEST ISZERO PUSH2 0xE1E JUMPI DUP1 DUP7 PUSH1 0x40 MLOAD PUSH32 0xE237D92200000000000000000000000000000000000000000000000000000000 DUP2 MSTORE PUSH1 0x4 ADD PUSH2 0xE15 SWAP3 SWAP2 SWAP1 PUSH2 0x28F9 JUMP JUMPDEST PUSH1 0x40 MLOAD DUP1 SWAP2 SUB SWAP1 REVERT JUMPDEST PUSH2 0xE2B DUP7 DUP7 DUP7 DUP7 DUP7 PUSH2 0x144B JUMP JUMPDEST POP POP POP POP POP POP JUMP JUMPDEST PUSH2 0xE3B PUSH2 0x1041 JUMP JUMPDEST PUSH0 PUSH20 0xFFFFFFFFFFFFFFFFFFFFFFFFFFFFFFFFFFFFFFFF AND DUP2 PUSH20 0xFFFFFFFFFFFFFFFFFFFFFFFFFFFFFFFFFFFFFFFF AND SUB PUSH2 0xEAB JUMPI PUSH0 PUSH1 0x40 MLOAD PUSH32 0x1E4FBDF700000000000000000000000000000000000000000000000000000000 DUP2 MSTORE PUSH1 0x4 ADD PUSH2 0xEA2 SWAP2 SWAP1 PUSH2 0x261D JUMP JUMPDEST PUSH1 0x40 MLOAD DUP1 SWAP2 SUB SWAP1 REVERT JUMPDEST PUSH2 0xEB4 DUP2 PUSH2 0x117D JUMP JUMPDEST POP JUMP JUMPDEST PUSH0 PUSH32 0x1FFC9A700000000000000000000000000000000000000000000000000000000 PUSH28 0xFFFFFFFFFFFFFFFFFFFFFFFFFFFFFFFFFFFFFFFFFFFFFFFFFFFFFFFF NOT AND DUP3 PUSH28 0xFFFFFFFFFFFFFFFFFFFFFFFFFFFFFFFFFFFFFFFFFFFFFFFFFFFFFFFF NOT AND EQ SWAP1 POP SWAP2 SWAP1 POP JUMP JUMPDEST PUSH0 CALLER SWAP1 POP SWAP1 JUMP JUMPDEST PUSH0 PUSH20 0xFFFFFFFFFFFFFFFFFFFFFFFFFFFFFFFFFFFFFFFF AND DUP5 PUSH20 0xFFFFFFFFFFFFFFFFFFFFFFFFFFFFFFFFFFFFFFFF AND SUB PUSH2 0xF97 JUMPI PUSH0 PUSH1 0x40 MLOAD PUSH32 0x57F447CE00000000000000000000000000000000000000000000000000000000 DUP2 MSTORE PUSH1 0x4 ADD PUSH2 0xF8E SWAP2 SWAP1 PUSH2 0x261D JUMP JUMPDEST PUSH1 0x40 MLOAD DUP1 SWAP2 SUB SWAP1 REVERT JUMPDEST PUSH0 PUSH20 0xFFFFFFFFFFFFFFFFFFFFFFFFFFFFFFFFFFFFFFFF AND DUP6 PUSH20 0xFFFFFFFFFFFFFFFFFFFFFFFFFFFFFFFFFFFFFFFF AND SUB PUSH2 0x1007 JUMPI PUSH0 PUSH1 0x40 MLOAD PUSH32 0x1A8351400000000000000000000000000000000000000000000000000000000 DUP2 MSTORE PUSH1 0x4 ADD PUSH2 0xFFE SWAP2 SWAP1 PUSH2 0x261D JUMP JUMPDEST PUSH1 0x40 MLOAD DUP1 SWAP2 SUB SWAP1 REVERT JUMPDEST PUSH2 0x1014 DUP6 DUP6 DUP6 DUP6 DUP6 PUSH2 0x1551 JUMP JUMPDEST POP POP POP POP POP JUMP JUMPDEST PUSH0 PUSH1 0x20 DUP3 MUL PUSH1 0x20 DUP5 ADD ADD MLOAD SWAP1 POP SWAP3 SWAP2 POP POP JUMP JUMPDEST PUSH0 PUSH1 0x20 DUP3 MUL PUSH1 0x20 DUP5 ADD ADD MLOAD SWAP1 POP SWAP3 SWAP2 POP POP JUMP JUMPDEST PUSH2 0x1049 PUSH2 0xF20 JUMP JUMPDEST PUSH20 0xFFFFFFFFFFFFFFFFFFFFFFFFFFFFFFFFFFFFFFFF AND PUSH2 0x1067 PUSH2 0x8CD JUMP JUMPDEST PUSH20 0xFFFFFFFFFFFFFFFFFFFFFFFFFFFFFFFFFFFFFFFF AND EQ PUSH2 0x10C6 JUMPI PUSH2 0x108A PUSH2 0xF20 JUMP JUMPDEST PUSH1 0x40 MLOAD PUSH32 0x118CDAA700000000000000000000000000000000000000000000000000000000 DUP2 MSTORE PUSH1 0x4 ADD PUSH2 0x10BD SWAP2 SWAP1 PUSH2 0x261D JUMP JUMPDEST PUSH1 0x40 MLOAD DUP1 SWAP2 SUB SWAP1 REVERT JUMPDEST JUMP JUMPDEST PUSH0 PUSH20 0xFFFFFFFFFFFFFFFFFFFFFFFFFFFFFFFFFFFFFFFF AND DUP5 PUSH20 0xFFFFFFFFFFFFFFFFFFFFFFFFFFFFFFFFFFFFFFFF AND SUB PUSH2 0x1138 JUMPI PUSH0 PUSH1 0x40 MLOAD PUSH32 0x57F447CE00000000000000000000000000000000000000000000000000000000 DUP2 MSTORE PUSH1 0x4 ADD PUSH2 0x112F SWAP2 SWAP1 PUSH2 0x261D JUMP JUMPDEST PUSH1 0x40 MLOAD DUP1 SWAP2 SUB SWAP1 REVERT JUMPDEST PUSH0 DUP1 PUSH2 0x1144 DUP6 DUP6 PUSH2 0x15FD JUMP JUMPDEST SWAP2 POP SWAP2 POP PUSH2 0x1155 PUSH0 DUP8 DUP5 DUP5 DUP8 PUSH2 0x1551 JUMP JUMPDEST POP POP POP POP POP POP JUMP JUMPDEST PUSH1 0x1 DUP2 PUSH0 ADD PUSH0 DUP3 DUP3 SLOAD ADD SWAP3 POP POP DUP2 SWAP1 SSTORE POP POP JUMP JUMPDEST PUSH0 DUP2 PUSH0 ADD SLOAD SWAP1 POP SWAP2 SWAP1 POP JUMP JUMPDEST PUSH0 PUSH1 0x3 PUSH0 SWAP1 SLOAD SWAP1 PUSH2 0x100 EXP SWAP1 DIV PUSH20 0xFFFFFFFFFFFFFFFFFFFFFFFFFFFFFFFFFFFFFFFF AND SWAP1 POP DUP2 PUSH1 0x3 PUSH0 PUSH2 0x100 EXP DUP2 SLOAD DUP2 PUSH20 0xFFFFFFFFFFFFFFFFFFFFFFFFFFFFFFFFFFFFFFFF MUL NOT AND SWAP1 DUP4 PUSH20 0xFFFFFFFFFFFFFFFFFFFFFFFFFFFFFFFFFFFFFFFF AND MUL OR SWAP1 SSTORE POP DUP2 PUSH20 0xFFFFFFFFFFFFFFFFFFFFFFFFFFFFFFFFFFFFFFFF AND DUP2 PUSH20 0xFFFFFFFFFFFFFFFFFFFFFFFFFFFFFFFFFFFFFFFF AND PUSH32 0x8BE0079C531659141344CD1FD0A4F28419497F9722A3DAAFE3B4186F6B6457E0 PUSH1 0x40 MLOAD PUSH1 0x40 MLOAD DUP1 SWAP2 SUB SWAP1 LOG3 POP POP JUMP JUMPDEST PUSH0 PUSH20 0xFFFFFFFFFFFFFFFFFFFFFFFFFFFFFFFFFFFFFFFF AND DUP3 PUSH20 0xFFFFFFFFFFFFFFFFFFFFFFFFFFFFFFFFFFFFFFFF AND SUB PUSH2 0x12B0 JUMPI PUSH0 PUSH1 0x40 MLOAD PUSH32 0xCED3E10000000000000000000000000000000000000000000000000000000000 DUP2 MSTORE PUSH1 0x4 ADD PUSH2 0x12A7 SWAP2 SWAP1 PUSH2 0x261D JUMP JUMPDEST PUSH1 0x40 MLOAD DUP1 SWAP2 SUB SWAP1 REVERT JUMPDEST DUP1 PUSH1 0x1 PUSH0 DUP6 PUSH20 0xFFFFFFFFFFFFFFFFFFFFFFFFFFFFFFFFFFFFFFFF AND PUSH20 0xFFFFFFFFFFFFFFFFFFFFFFFFFFFFFFFFFFFFFFFF AND DUP2 MSTORE PUSH1 0x20 ADD SWAP1 DUP2 MSTORE PUSH1 0x20 ADD PUSH0 KECCAK256 PUSH0 DUP5 PUSH20 0xFFFFFFFFFFFFFFFFFFFFFFFFFFFFFFFFFFFFFFFF AND PUSH20 0xFFFFFFFFFFFFFFFFFFFFFFFFFFFFFFFFFFFFFFFF AND DUP2 MSTORE PUSH1 0x20 ADD SWAP1 DUP2 MSTORE PUSH1 0x20 ADD PUSH0 KECCAK256 PUSH0 PUSH2 0x100 EXP DUP2 SLOAD DUP2 PUSH1 0xFF MUL NOT AND SWAP1 DUP4 ISZERO ISZERO MUL OR SWAP1 SSTORE POP DUP2 PUSH20 0xFFFFFFFFFFFFFFFFFFFFFFFFFFFFFFFFFFFFFFFF AND DUP4 PUSH20 0xFFFFFFFFFFFFFFFFFFFFFFFFFFFFFFFFFFFFFFFF AND PUSH32 0x17307EAB39AB6107E8899845AD3D59BD9653F200F220920489CA2B5937696C31 DUP4 PUSH1 0x40 MLOAD PUSH2 0x139C SWAP2 SWAP1 PUSH2 0x1EBF JUMP JUMPDEST PUSH1 0x40 MLOAD DUP1 SWAP2 SUB SWAP1 LOG3 POP POP POP JUMP JUMPDEST PUSH0 PUSH20 0xFFFFFFFFFFFFFFFFFFFFFFFFFFFFFFFFFFFFFFFF AND DUP4 PUSH20 0xFFFFFFFFFFFFFFFFFFFFFFFFFFFFFFFFFFFFFFFF AND SUB PUSH2 0x1419 JUMPI PUSH0 PUSH1 0x40 MLOAD PUSH32 0x1A8351400000000000000000000000000000000000000000000000000000000 DUP2 MSTORE PUSH1 0x4 ADD PUSH2 0x1410 SWAP2 SWAP1 PUSH2 0x261D JUMP JUMPDEST PUSH1 0x40 MLOAD DUP1 SWAP2 SUB SWAP1 REVERT JUMPDEST PUSH0 DUP1 PUSH2 0x1425 DUP5 DUP5 PUSH2 0x15FD JUMP JUMPDEST SWAP2 POP SWAP2 POP PUSH2 0x1444 DUP6 PUSH0 DUP5 DUP5 PUSH1 0x40 MLOAD DUP1 PUSH1 0x20 ADD PUSH1 0x40 MSTORE DUP1 PUSH0 DUP2 MSTORE POP PUSH2 0x1551 JUMP JUMPDEST POP POP POP POP POP JUMP JUMPDEST PUSH0 PUSH20 0xFFFFFFFFFFFFFFFFFFFFFFFFFFFFFFFFFFFFFFFF AND DUP5 PUSH20 0xFFFFFFFFFFFFFFFFFFFFFFFFFFFFFFFFFFFFFFFF AND SUB PUSH2 0x14BB JUMPI PUSH0 PUSH1 0x40 MLOAD PUSH32 0x57F447CE00000000000000000000000000000000000000000000000000000000 DUP2 MSTORE PUSH1 0x4 ADD PUSH2 0x14B2 SWAP2 SWAP1 PUSH2 0x261D JUMP JUMPDEST PUSH1 0x40 MLOAD DUP1 SWAP2 SUB SWAP1 REVERT JUMPDEST PUSH0 PUSH20 0xFFFFFFFFFFFFFFFFFFFFFFFFFFFFFFFFFFFFFFFF AND DUP6 PUSH20 0xFFFFFFFFFFFFFFFFFFFFFFFFFFFFFFFFFFFFFFFF AND SUB PUSH2 0x152B JUMPI PUSH0 PUSH1 0x40 MLOAD PUSH32 0x1A8351400000000000000000000000000000000000000000000000000000000 DUP2 MSTORE PUSH1 0x4 ADD PUSH2 0x1522 SWAP2 SWAP1 PUSH2 0x261D JUMP JUMPDEST PUSH1 0x40 MLOAD DUP1 SWAP2 SUB SWAP1 REVERT JUMPDEST PUSH0 DUP1 PUSH2 0x1537 DUP6 DUP6 PUSH2 0x15FD JUMP JUMPDEST SWAP2 POP SWAP2 POP PUSH2 0x1548 DUP8 DUP8 DUP5 DUP5 DUP8 PUSH2 0x1551 JUMP JUMPDEST POP POP POP POP POP POP POP JUMP JUMPDEST PUSH2 0x155D DUP6 DUP6 DUP6 DUP6 PUSH2 0x162D JUMP JUMPDEST PUSH0 PUSH20 0xFFFFFFFFFFFFFFFFFFFFFFFFFFFFFFFFFFFFFFFF AND DUP5 PUSH20 0xFFFFFFFFFFFFFFFFFFFFFFFFFFFFFFFFFFFFFFFF AND EQ PUSH2 0x15F6 JUMPI PUSH0 PUSH2 0x1599 PUSH2 0xF20 JUMP JUMPDEST SWAP1 POP PUSH1 0x1 DUP5 MLOAD SUB PUSH2 0x15E5 JUMPI PUSH0 PUSH2 0x15B8 PUSH0 DUP7 PUSH2 0x102E SWAP1 SWAP2 SWAP1 PUSH4 0xFFFFFFFF AND JUMP JUMPDEST SWAP1 POP PUSH0 PUSH2 0x15CE PUSH0 DUP7 PUSH2 0x102E SWAP1 SWAP2 SWAP1 PUSH4 0xFFFFFFFF AND JUMP JUMPDEST SWAP1 POP PUSH2 0x15DE DUP4 DUP10 DUP10 DUP6 DUP6 DUP10 PUSH2 0x19C3 JUMP JUMPDEST POP POP PUSH2 0x15F4 JUMP JUMPDEST PUSH2 0x15F3 DUP2 DUP8 DUP8 DUP8 DUP8 DUP8 PUSH2 0x1B72 JUMP JUMPDEST JUMPDEST POP JUMPDEST POP POP POP POP POP JUMP JUMPDEST PUSH1 0x60 DUP1 PUSH1 0x40 MLOAD SWAP2 POP PUSH1 0x1 DUP3 MSTORE DUP4 PUSH1 0x20 DUP4 ADD MSTORE PUSH1 0x40 DUP3 ADD SWAP1 POP PUSH1 0x1 DUP2 MSTORE DUP3 PUSH1 0x20 DUP3 ADD MSTORE PUSH1 0x40 DUP2 ADD PUSH1 0x40 MSTORE SWAP3 POP SWAP3 SWAP1 POP JUMP JUMPDEST DUP1 MLOAD DUP3 MLOAD EQ PUSH2 0x1677 JUMPI DUP2 MLOAD DUP2 MLOAD PUSH1 0x40 MLOAD PUSH32 0x5B05999100000000000000000000000000000000000000000000000000000000 DUP2 MSTORE PUSH1 0x4 ADD PUSH2 0x166E SWAP3 SWAP2 SWAP1 PUSH2 0x2920 JUMP JUMPDEST PUSH1 0x40 MLOAD DUP1 SWAP2 SUB SWAP1 REVERT JUMPDEST PUSH0 PUSH2 0x1680 PUSH2 0xF20 JUMP JUMPDEST SWAP1 POP PUSH0 JUMPDEST DUP4 MLOAD DUP2 LT ISZERO PUSH2 0x1882 JUMPI PUSH0 PUSH2 0x16A1 DUP3 DUP7 PUSH2 0x102E SWAP1 SWAP2 SWAP1 PUSH4 0xFFFFFFFF AND JUMP JUMPDEST SWAP1 POP PUSH0 PUSH2 0x16B7 DUP4 DUP7 PUSH2 0x102E SWAP1 SWAP2 SWAP1 PUSH4 0xFFFFFFFF AND JUMP JUMPDEST SWAP1 POP PUSH0 PUSH20 0xFFFFFFFFFFFFFFFFFFFFFFFFFFFFFFFFFFFFFFFF AND DUP9 PUSH20 0xFFFFFFFFFFFFFFFFFFFFFFFFFFFFFFFFFFFFFFFF AND EQ PUSH2 0x17DA JUMPI PUSH0 DUP1 PUSH0 DUP5 DUP2 MSTORE PUSH1 0x20 ADD SWAP1 DUP2 MSTORE PUSH1 0x20 ADD PUSH0 KECCAK256 PUSH0 DUP11 PUSH20 0xFFFFFFFFFFFFFFFFFFFFFFFFFFFFFFFFFFFFFFFF AND PUSH20 0xFFFFFFFFFFFFFFFFFFFFFFFFFFFFFFFFFFFFFFFF AND DUP2 MSTORE PUSH1 0x20 ADD SWAP1 DUP2 MSTORE PUSH1 0x20 ADD PUSH0 KECCAK256 SLOAD SWAP1 POP DUP2 DUP2 LT ISZERO PUSH2 0x1786 JUMPI DUP9 DUP2 DUP4 DUP6 PUSH1 0x40 MLOAD PUSH32 0x3DEE4C500000000000000000000000000000000000000000000000000000000 DUP2 MSTORE PUSH1 0x4 ADD PUSH2 0x177D SWAP5 SWAP4 SWAP3 SWAP2 SWAP1 PUSH2 0x2DCD JUMP JUMPDEST PUSH1 0x40 MLOAD DUP1 SWAP2 SUB SWAP1 REVERT JUMPDEST DUP2 DUP2 SUB PUSH0 DUP1 DUP6 DUP2 MSTORE PUSH1 0x20 ADD SWAP1 DUP2 MSTORE PUSH1 0x20 ADD PUSH0 KECCAK256 PUSH0 DUP12 PUSH20 0xFFFFFFFFFFFFFFFFFFFFFFFFFFFFFFFFFFFFFFFF AND PUSH20 0xFFFFFFFFFFFFFFFFFFFFFFFFFFFFFFFFFFFFFFFF AND DUP2 MSTORE PUSH1 0x20 ADD SWAP1 DUP2 MSTORE PUSH1 0x20 ADD PUSH0 KECCAK256 DUP2 SWAP1 SSTORE POP POP JUMPDEST PUSH0 PUSH20 0xFFFFFFFFFFFFFFFFFFFFFFFFFFFFFFFFFFFFFFFF AND DUP8 PUSH20 0xFFFFFFFFFFFFFFFFFFFFFFFFFFFFFFFFFFFFFFFF AND EQ PUSH2 0x186F JUMPI DUP1 PUSH0 DUP1 DUP5 DUP2 MSTORE PUSH1 0x20 ADD SWAP1 DUP2 MSTORE PUSH1 0x20 ADD PUSH0 KECCAK256 PUSH0 DUP10 PUSH20 0xFFFFFFFFFFFFFFFFFFFFFFFFFFFFFFFFFFFFFFFF AND PUSH20 0xFFFFFFFFFFFFFFFFFFFFFFFFFFFFFFFFFFFFFFFF AND DUP2 MSTORE PUSH1 0x20 ADD SWAP1 DUP2 MSTORE PUSH1 0x20 ADD PUSH0 KECCAK256 PUSH0 DUP3 DUP3 SLOAD PUSH2 0x1867 SWAP2 SWAP1 PUSH2 0x2E10 JUMP JUMPDEST SWAP3 POP POP DUP2 SWAP1 SSTORE POP JUMPDEST POP POP DUP1 PUSH2 0x187B SWAP1 PUSH2 0x29A1 JUMP JUMPDEST SWAP1 POP PUSH2 0x1684 JUMP JUMPDEST POP PUSH1 0x1 DUP4 MLOAD SUB PUSH2 0x193D JUMPI PUSH0 PUSH2 0x18A0 PUSH0 DUP6 PUSH2 0x102E SWAP1 SWAP2 SWAP1 PUSH4 0xFFFFFFFF AND JUMP JUMPDEST SWAP1 POP PUSH0 PUSH2 0x18B6 PUSH0 DUP6 PUSH2 0x102E SWAP1 SWAP2 SWAP1 PUSH4 0xFFFFFFFF AND JUMP JUMPDEST SWAP1 POP DUP6 PUSH20 0xFFFFFFFFFFFFFFFFFFFFFFFFFFFFFFFFFFFFFFFF AND DUP8 PUSH20 0xFFFFFFFFFFFFFFFFFFFFFFFFFFFFFFFFFFFFFFFF AND DUP5 PUSH20 0xFFFFFFFFFFFFFFFFFFFFFFFFFFFFFFFFFFFFFFFF AND PUSH32 0xC3D58168C5AE7397731D063D5BBF3D657854427343F4C083240F7AACAA2D0F62 DUP6 DUP6 PUSH1 0x40 MLOAD PUSH2 0x192E SWAP3 SWAP2 SWAP1 PUSH2 0x2920 JUMP JUMPDEST PUSH1 0x40 MLOAD DUP1 SWAP2 SUB SWAP1 LOG4 POP POP PUSH2 0x19BC JUMP JUMPDEST DUP4 PUSH20 0xFFFFFFFFFFFFFFFFFFFFFFFFFFFFFFFFFFFFFFFF AND DUP6 PUSH20 0xFFFFFFFFFFFFFFFFFFFFFFFFFFFFFFFFFFFFFFFF AND DUP3 PUSH20 0xFFFFFFFFFFFFFFFFFFFFFFFFFFFFFFFFFFFFFFFF AND PUSH32 0x4A39DC06D4C0DBC64B70AF90FD698A233A518AA5D07E595D983B8C0526C8F7FB DUP7 DUP7 PUSH1 0x40 MLOAD PUSH2 0x19B3 SWAP3 SWAP2 SWAP1 PUSH2 0x2E43 JUMP JUMPDEST PUSH1 0x40 MLOAD DUP1 SWAP2 SUB SWAP1 LOG4 JUMPDEST POP POP POP POP POP JUMP JUMPDEST PUSH0 DUP5 PUSH20 0xFFFFFFFFFFFFFFFFFFFFFFFFFFFFFFFFFFFFFFFF AND EXTCODESIZE GT ISZERO PUSH2 0x1B6A JUMPI DUP4 PUSH20 0xFFFFFFFFFFFFFFFFFFFFFFFFFFFFFFFFFFFFFFFF AND PUSH4 0xF23A6E61 DUP8 DUP8 DUP7 DUP7 DUP7 PUSH1 0x40 MLOAD DUP7 PUSH4 0xFFFFFFFF AND PUSH1 0xE0 SHL DUP2 MSTORE PUSH1 0x4 ADD PUSH2 0x1A23 SWAP6 SWAP5 SWAP4 SWAP3 SWAP2 SWAP1 PUSH2 0x2ECA JUMP JUMPDEST PUSH1 0x20 PUSH1 0x40 MLOAD DUP1 DUP4 SUB DUP2 PUSH0 DUP8 GAS CALL SWAP3 POP POP POP DUP1 ISZERO PUSH2 0x1A5E JUMPI POP PUSH1 0x40 MLOAD RETURNDATASIZE PUSH1 0x1F NOT PUSH1 0x1F DUP3 ADD AND DUP3 ADD DUP1 PUSH1 0x40 MSTORE POP DUP2 ADD SWAP1 PUSH2 0x1A5B SWAP2 SWAP1 PUSH2 0x2F36 JUMP JUMPDEST PUSH1 0x1 JUMPDEST PUSH2 0x1ADF JUMPI RETURNDATASIZE DUP1 PUSH0 DUP2 EQ PUSH2 0x1A8C JUMPI PUSH1 0x40 MLOAD SWAP2 POP PUSH1 0x1F NOT PUSH1 0x3F RETURNDATASIZE ADD AND DUP3 ADD PUSH1 0x40 MSTORE RETURNDATASIZE DUP3 MSTORE RETURNDATASIZE PUSH0 PUSH1 0x20 DUP5 ADD RETURNDATACOPY PUSH2 0x1A91 JUMP JUMPDEST PUSH1 0x60 SWAP2 POP JUMPDEST POP PUSH0 DUP2 MLOAD SUB PUSH2 0x1AD7 JUMPI DUP5 PUSH1 0x40 MLOAD PUSH32 0x57F447CE00000000000000000000000000000000000000000000000000000000 DUP2 MSTORE PUSH1 0x4 ADD PUSH2 0x1ACE SWAP2 SWAP1 PUSH2 0x261D JUMP JUMPDEST PUSH1 0x40 MLOAD DUP1 SWAP2 SUB SWAP1 REVERT JUMPDEST DUP1 MLOAD DUP2 PUSH1 0x20 ADD REVERT JUMPDEST PUSH4 0xF23A6E61 PUSH1 0xE0 SHL PUSH28 0xFFFFFFFFFFFFFFFFFFFFFFFFFFFFFFFFFFFFFFFFFFFFFFFFFFFFFFFF NOT AND DUP2 PUSH28 0xFFFFFFFFFFFFFFFFFFFFFFFFFFFFFFFFFFFFFFFFFFFFFFFFFFFFFFFF NOT AND EQ PUSH2 0x1B68 JUMPI DUP5 PUSH1 0x40 MLOAD PUSH32 0x57F447CE00000000000000000000000000000000000000000000000000000000 DUP2 MSTORE PUSH1 0x4 ADD PUSH2 0x1B5F SWAP2 SWAP1 PUSH2 0x261D JUMP JUMPDEST PUSH1 0x40 MLOAD DUP1 SWAP2 SUB SWAP1 REVERT JUMPDEST POP JUMPDEST POP POP POP POP POP POP JUMP JUMPDEST PUSH0 DUP5 PUSH20 0xFFFFFFFFFFFFFFFFFFFFFFFFFFFFFFFFFFFFFFFF AND EXTCODESIZE GT ISZERO PUSH2 0x1D19 JUMPI DUP4 PUSH20 0xFFFFFFFFFFFFFFFFFFFFFFFFFFFFFFFFFFFFFFFF AND PUSH4 0xBC197C81 DUP8 DUP8 DUP7 DUP7 DUP7 PUSH1 0x40 MLOAD DUP7 PUSH4 0xFFFFFFFF AND PUSH1 0xE0 SHL DUP2 MSTORE PUSH1 0x4 ADD PUSH2 0x1BD2 SWAP6 SWAP5 SWAP4 SWAP3 SWAP2 SWAP1 PUSH2 0x2F61 JUMP JUMPDEST PUSH1 0x20 PUSH1 0x40 MLOAD DUP1 DUP4 SUB DUP2 PUSH0 DUP8 GAS CALL SWAP3 POP POP POP DUP1 ISZERO PUSH2 0x1C0D JUMPI POP PUSH1 0x40 MLOAD RETURNDATASIZE PUSH1 0x1F NOT PUSH1 0x1F DUP3 ADD AND DUP3 ADD DUP1 PUSH1 0x40 MSTORE POP DUP2 ADD SWAP1 PUSH2 0x1C0A SWAP2 SWAP1 PUSH2 0x2F36 JUMP JUMPDEST PUSH1 0x1 JUMPDEST PUSH2 0x1C8E JUMPI RETURNDATASIZE DUP1 PUSH0 DUP2 EQ PUSH2 0x1C3B JUMPI PUSH1 0x40 MLOAD SWAP2 POP PUSH1 0x1F NOT PUSH1 0x3F RETURNDATASIZE ADD AND DUP3 ADD PUSH1 0x40 MSTORE RETURNDATASIZE DUP3 MSTORE RETURNDATASIZE PUSH0 PUSH1 0x20 DUP5 ADD RETURNDATACOPY PUSH2 0x1C40 JUMP JUMPDEST PUSH1 0x60 SWAP2 POP JUMPDEST POP PUSH0 DUP2 MLOAD SUB PUSH2 0x1C86 JUMPI DUP5 PUSH1 0x40 MLOAD PUSH32 0x57F447CE00000000000000000000000000000000000000000000000000000000 DUP2 MSTORE PUSH1 0x4 ADD PUSH2 0x1C7D SWAP2 SWAP1 PUSH2 0x261D JUMP JUMPDEST PUSH1 0x40 MLOAD DUP1 SWAP2 SUB SWAP1 REVERT JUMPDEST DUP1 MLOAD DUP2 PUSH1 0x20 ADD REVERT JUMPDEST PUSH4 0xBC197C81 PUSH1 0xE0 SHL PUSH28 0xFFFFFFFFFFFFFFFFFFFFFFFFFFFFFFFFFFFFFFFFFFFFFFFFFFFFFFFF NOT AND DUP2 PUSH28 0xFFFFFFFFFFFFFFFFFFFFFFFFFFFFFFFFFFFFFFFFFFFFFFFFFFFFFFFF NOT AND EQ PUSH2 0x1D17 JUMPI DUP5 PUSH1 0x40 MLOAD PUSH32 0x57F447CE00000000000000000000000000000000000000000000000000000000 DUP2 MSTORE PUSH1 0x4 ADD PUSH2 0x1D0E SWAP2 SWAP1 PUSH2 0x261D JUMP JUMPDEST PUSH1 0x40 MLOAD DUP1 SWAP2 SUB SWAP1 REVERT JUMPDEST POP JUMPDEST POP POP POP POP POP POP JUMP JUMPDEST PUSH0 PUSH1 0x40 MLOAD SWAP1 POP SWAP1 JUMP JUMPDEST PUSH0 DUP1 REVERT JUMPDEST PUSH0 DUP1 REVERT JUMPDEST PUSH0 PUSH20 0xFFFFFFFFFFFFFFFFFFFFFFFFFFFFFFFFFFFFFFFF DUP3 AND SWAP1 POP SWAP2 SWAP1 POP JUMP JUMPDEST PUSH0 PUSH2 0x1D5B DUP3 PUSH2 0x1D32 JUMP JUMPDEST SWAP1 POP SWAP2 SWAP1 POP JUMP JUMPDEST PUSH2 0x1D6B DUP2 PUSH2 0x1D51 JUMP JUMPDEST DUP2 EQ PUSH2 0x1D75 JUMPI PUSH0 DUP1 REVERT JUMPDEST POP JUMP JUMPDEST PUSH0 DUP2 CALLDATALOAD SWAP1 POP PUSH2 0x1D86 DUP2 PUSH2 0x1D62 JUMP JUMPDEST SWAP3 SWAP2 POP POP JUMP JUMPDEST PUSH0 DUP2 SWAP1 POP SWAP2 SWAP1 POP JUMP JUMPDEST PUSH2 0x1D9E DUP2 PUSH2 0x1D8C JUMP JUMPDEST DUP2 EQ PUSH2 0x1DA8 JUMPI PUSH0 DUP1 REVERT JUMPDEST POP JUMP JUMPDEST PUSH0 DUP2 CALLDATALOAD SWAP1 POP PUSH2 0x1DB9 DUP2 PUSH2 0x1D95 JUMP JUMPDEST SWAP3 SWAP2 POP POP JUMP JUMPDEST PUSH0 DUP1 PUSH1 0x40 DUP4 DUP6 SUB SLT ISZERO PUSH2 0x1DD5 JUMPI PUSH2 0x1DD4 PUSH2 0x1D2A JUMP JUMPDEST JUMPDEST PUSH0 PUSH2 0x1DE2 DUP6 DUP3 DUP7 ADD PUSH2 0x1D78 JUMP JUMPDEST SWAP3 POP POP PUSH1 0x20 PUSH2 0x1DF3 DUP6 DUP3 DUP7 ADD PUSH2 0x1DAB JUMP JUMPDEST SWAP2 POP POP SWAP3 POP SWAP3 SWAP1 POP JUMP JUMPDEST PUSH2 0x1E06 DUP2 PUSH2 0x1D8C JUMP JUMPDEST DUP3 MSTORE POP POP JUMP JUMPDEST PUSH0 PUSH1 0x20 DUP3 ADD SWAP1 POP PUSH2 0x1E1F PUSH0 DUP4 ADD DUP5 PUSH2 0x1DFD JUMP JUMPDEST SWAP3 SWAP2 POP POP JUMP JUMPDEST PUSH0 PUSH32 0xFFFFFFFF00000000000000000000000000000000000000000000000000000000 DUP3 AND SWAP1 POP SWAP2 SWAP1 POP JUMP JUMPDEST PUSH2 0x1E59 DUP2 PUSH2 0x1E25 JUMP JUMPDEST DUP2 EQ PUSH2 0x1E63 JUMPI PUSH0 DUP1 REVERT JUMPDEST POP JUMP JUMPDEST PUSH0 DUP2 CALLDATALOAD SWAP1 POP PUSH2 0x1E74 DUP2 PUSH2 0x1E50 JUMP JUMPDEST SWAP3 SWAP2 POP POP JUMP JUMPDEST PUSH0 PUSH1 0x20 DUP3 DUP5 SUB SLT ISZERO PUSH2 0x1E8F JUMPI PUSH2 0x1E8E PUSH2 0x1D2A JUMP JUMPDEST JUMPDEST PUSH0 PUSH2 0x1E9C DUP5 DUP3 DUP6 ADD PUSH2 0x1E66 JUMP JUMPDEST SWAP2 POP POP SWAP3 SWAP2 POP POP JUMP JUMPDEST PUSH0 DUP2 ISZERO ISZERO SWAP1 POP SWAP2 SWAP1 POP JUMP JUMPDEST PUSH2 0x1EB9 DUP2 PUSH2 0x1EA5 JUMP JUMPDEST DUP3 MSTORE POP POP JUMP JUMPDEST PUSH0 PUSH1 0x20 DUP3 ADD SWAP1 POP PUSH2 0x1ED2 PUSH0 DUP4 ADD DUP5 PUSH2 0x1EB0 JUMP JUMPDEST SWAP3 SWAP2 POP POP JUMP JUMPDEST PUSH0 PUSH1 0x20 DUP3 DUP5 SUB SLT ISZERO PUSH2 0x1EED JUMPI PUSH2 0x1EEC PUSH2 0x1D2A JUMP JUMPDEST JUMPDEST PUSH0 PUSH2 0x1EFA DUP5 DUP3 DUP6 ADD PUSH2 0x1DAB JUMP JUMPDEST SWAP2 POP POP SWAP3 SWAP2 POP POP JUMP JUMPDEST PUSH0 DUP2 MLOAD SWAP1 POP SWAP2 SWAP1 POP JUMP JUMPDEST PUSH0 DUP3 DUP3 MSTORE PUSH1 0x20 DUP3 ADD SWAP1 POP SWAP3 SWAP2 POP POP JUMP JUMPDEST PUSH0 JUMPDEST DUP4 DUP2 LT ISZERO PUSH2 0x1F3A JUMPI DUP1 DUP3 ADD MLOAD DUP2 DUP5 ADD MSTORE PUSH1 0x20 DUP2 ADD SWAP1 POP PUSH2 0x1F1F JUMP JUMPDEST PUSH0 DUP5 DUP5 ADD MSTORE POP POP POP POP JUMP JUMPDEST PUSH0 PUSH1 0x1F NOT PUSH1 0x1F DUP4 ADD AND SWAP1 POP SWAP2 SWAP1 POP JUMP JUMPDEST PUSH0 PUSH2 0x1F5F DUP3 PUSH2 0x1F03 JUMP JUMPDEST PUSH2 0x1F69 DUP2 DUP6 PUSH2 0x1F0D JUMP JUMPDEST SWAP4 POP PUSH2 0x1F79 DUP2 DUP6 PUSH1 0x20 DUP7 ADD PUSH2 0x1F1D JUMP JUMPDEST PUSH2 0x1F82 DUP2 PUSH2 0x1F45 JUMP JUMPDEST DUP5 ADD SWAP2 POP POP SWAP3 SWAP2 POP POP JUMP JUMPDEST PUSH0 PUSH1 0x20 DUP3 ADD SWAP1 POP DUP2 DUP2 SUB PUSH0 DUP4 ADD MSTORE PUSH2 0x1FA5 DUP2 DUP5 PUSH2 0x1F55 JUMP JUMPDEST SWAP1 POP SWAP3 SWAP2 POP POP JUMP JUMPDEST PUSH0 DUP1 REVERT JUMPDEST PUSH32 0x4E487B7100000000000000000000000000000000000000000000000000000000 PUSH0 MSTORE PUSH1 0x41 PUSH1 0x4 MSTORE PUSH1 0x24 PUSH0 REVERT JUMPDEST PUSH2 0x1FE7 DUP3 PUSH2 0x1F45 JUMP JUMPDEST DUP2 ADD DUP2 DUP2 LT PUSH8 0xFFFFFFFFFFFFFFFF DUP3 GT OR ISZERO PUSH2 0x2006 JUMPI PUSH2 0x2005 PUSH2 0x1FB1 JUMP JUMPDEST JUMPDEST DUP1 PUSH1 0x40 MSTORE POP POP POP JUMP JUMPDEST PUSH0 PUSH2 0x2018 PUSH2 0x1D21 JUMP JUMPDEST SWAP1 POP PUSH2 0x2024 DUP3 DUP3 PUSH2 0x1FDE JUMP JUMPDEST SWAP2 SWAP1 POP JUMP JUMPDEST PUSH0 PUSH8 0xFFFFFFFFFFFFFFFF DUP3 GT ISZERO PUSH2 0x2043 JUMPI PUSH2 0x2042 PUSH2 0x1FB1 JUMP JUMPDEST JUMPDEST PUSH1 0x20 DUP3 MUL SWAP1 POP PUSH1 0x20 DUP2 ADD SWAP1 POP SWAP2 SWAP1 POP JUMP JUMPDEST PUSH0 DUP1 REVERT JUMPDEST PUSH0 PUSH2 0x206A PUSH2 0x2065 DUP5 PUSH2 0x2029 JUMP JUMPDEST PUSH2 0x200F JUMP JUMPDEST SWAP1 POP DUP1 DUP4 DUP3 MSTORE PUSH1 0x20 DUP3 ADD SWAP1 POP PUSH1 0x20 DUP5 MUL DUP4 ADD DUP6 DUP2 GT ISZERO PUSH2 0x208D JUMPI PUSH2 0x208C PUSH2 0x2054 JUMP JUMPDEST JUMPDEST DUP4 JUMPDEST DUP2 DUP2 LT ISZERO PUSH2 0x20B6 JUMPI DUP1 PUSH2 0x20A2 DUP9 DUP3 PUSH2 0x1DAB JUMP JUMPDEST DUP5 MSTORE PUSH1 0x20 DUP5 ADD SWAP4 POP POP PUSH1 0x20 DUP2 ADD SWAP1 POP PUSH2 0x208F JUMP JUMPDEST POP POP POP SWAP4 SWAP3 POP POP POP JUMP JUMPDEST PUSH0 DUP3 PUSH1 0x1F DUP4 ADD SLT PUSH2 0x20D4 JUMPI PUSH2 0x20D3 PUSH2 0x1FAD JUMP JUMPDEST JUMPDEST DUP2 CALLDATALOAD PUSH2 0x20E4 DUP5 DUP3 PUSH1 0x20 DUP7 ADD PUSH2 0x2058 JUMP JUMPDEST SWAP2 POP POP SWAP3 SWAP2 POP POP JUMP JUMPDEST PUSH0 DUP1 REVERT JUMPDEST PUSH0 PUSH8 0xFFFFFFFFFFFFFFFF DUP3 GT ISZERO PUSH2 0x210B JUMPI PUSH2 0x210A PUSH2 0x1FB1 JUMP JUMPDEST JUMPDEST PUSH2 0x2114 DUP3 PUSH2 0x1F45 JUMP JUMPDEST SWAP1 POP PUSH1 0x20 DUP2 ADD SWAP1 POP SWAP2 SWAP1 POP JUMP JUMPDEST DUP3 DUP2 DUP4 CALLDATACOPY PUSH0 DUP4 DUP4 ADD MSTORE POP POP POP JUMP JUMPDEST PUSH0 PUSH2 0x2141 PUSH2 0x213C DUP5 PUSH2 0x20F1 JUMP JUMPDEST PUSH2 0x200F JUMP JUMPDEST SWAP1 POP DUP3 DUP2 MSTORE PUSH1 0x20 DUP2 ADD DUP5 DUP5 DUP5 ADD GT ISZERO PUSH2 0x215D JUMPI PUSH2 0x215C PUSH2 0x20ED JUMP JUMPDEST JUMPDEST PUSH2 0x2168 DUP5 DUP3 DUP6 PUSH2 0x2121 JUMP JUMPDEST POP SWAP4 SWAP3 POP POP POP JUMP JUMPDEST PUSH0 DUP3 PUSH1 0x1F DUP4 ADD SLT PUSH2 0x2184 JUMPI PUSH2 0x2183 PUSH2 0x1FAD JUMP JUMPDEST JUMPDEST DUP2 CALLDATALOAD PUSH2 0x2194 DUP5 DUP3 PUSH1 0x20 DUP7 ADD PUSH2 0x212F JUMP JUMPDEST SWAP2 POP POP SWAP3 SWAP2 POP POP JUMP JUMPDEST PUSH0 DUP1 PUSH0 DUP1 PUSH0 PUSH1 0xA0 DUP7 DUP9 SUB SLT ISZERO PUSH2 0x21B6 JUMPI PUSH2 0x21B5 PUSH2 0x1D2A JUMP JUMPDEST JUMPDEST PUSH0 PUSH2 0x21C3 DUP9 DUP3 DUP10 ADD PUSH2 0x1D78 JUMP JUMPDEST SWAP6 POP POP PUSH1 0x20 PUSH2 0x21D4 DUP9 DUP3 DUP10 ADD PUSH2 0x1D78 JUMP JUMPDEST SWAP5 POP POP PUSH1 0x40 DUP7 ADD CALLDATALOAD PUSH8 0xFFFFFFFFFFFFFFFF DUP2 GT ISZERO PUSH2 0x21F5 JUMPI PUSH2 0x21F4 PUSH2 0x1D2E JUMP JUMPDEST JUMPDEST PUSH2 0x2201 DUP9 DUP3 DUP10 ADD PUSH2 0x20C0 JUMP JUMPDEST SWAP4 POP POP PUSH1 0x60 DUP7 ADD CALLDATALOAD PUSH8 0xFFFFFFFFFFFFFFFF DUP2 GT ISZERO PUSH2 0x2222 JUMPI PUSH2 0x2221 PUSH2 0x1D2E JUMP JUMPDEST JUMPDEST PUSH2 0x222E DUP9 DUP3 DUP10 ADD PUSH2 0x20C0 JUMP JUMPDEST SWAP3 POP POP PUSH1 0x80 DUP7 ADD CALLDATALOAD PUSH8 0xFFFFFFFFFFFFFFFF DUP2 GT ISZERO PUSH2 0x224F JUMPI PUSH2 0x224E PUSH2 0x1D2E JUMP JUMPDEST JUMPDEST PUSH2 0x225B DUP9 DUP3 DUP10 ADD PUSH2 0x2170 JUMP JUMPDEST SWAP2 POP POP SWAP3 SWAP6 POP SWAP3 SWAP6 SWAP1 SWAP4 POP JUMP JUMPDEST PUSH0 PUSH8 0xFFFFFFFFFFFFFFFF DUP3 GT ISZERO PUSH2 0x2282 JUMPI PUSH2 0x2281 PUSH2 0x1FB1 JUMP JUMPDEST JUMPDEST PUSH1 0x20 DUP3 MUL SWAP1 POP PUSH1 0x20 DUP2 ADD SWAP1 POP SWAP2 SWAP1 POP JUMP JUMPDEST PUSH0 PUSH2 0x22A5 PUSH2 0x22A0 DUP5 PUSH2 0x2268 JUMP JUMPDEST PUSH2 0x200F JUMP JUMPDEST SWAP1 POP DUP1 DUP4 DUP3 MSTORE PUSH1 0x20 DUP3 ADD SWAP1 POP PUSH1 0x20 DUP5 MUL DUP4 ADD DUP6 DUP2 GT ISZERO PUSH2 0x22C8 JUMPI PUSH2 0x22C7 PUSH2 0x2054 JUMP JUMPDEST JUMPDEST DUP4 JUMPDEST DUP2 DUP2 LT ISZERO PUSH2 0x22F1 JUMPI DUP1 PUSH2 0x22DD DUP9 DUP3 PUSH2 0x1D78 JUMP JUMPDEST DUP5 MSTORE PUSH1 0x20 DUP5 ADD SWAP4 POP POP PUSH1 0x20 DUP2 ADD SWAP1 POP PUSH2 0x22CA JUMP JUMPDEST POP POP POP SWAP4 SWAP3 POP POP POP JUMP JUMPDEST PUSH0 DUP3 PUSH1 0x1F DUP4 ADD SLT PUSH2 0x230F JUMPI PUSH2 0x230E PUSH2 0x1FAD JUMP JUMPDEST JUMPDEST DUP2 CALLDATALOAD PUSH2 0x231F DUP5 DUP3 PUSH1 0x20 DUP7 ADD PUSH2 0x2293 JUMP JUMPDEST SWAP2 POP POP SWAP3 SWAP2 POP POP JUMP JUMPDEST PUSH0 DUP1 PUSH1 0x40 DUP4 DUP6 SUB SLT ISZERO PUSH2 0x233E JUMPI PUSH2 0x233D PUSH2 0x1D2A JUMP JUMPDEST JUMPDEST PUSH0 DUP4 ADD CALLDATALOAD PUSH8 0xFFFFFFFFFFFFFFFF DUP2 GT ISZERO PUSH2 0x235B JUMPI PUSH2 0x235A PUSH2 0x1D2E JUMP JUMPDEST JUMPDEST PUSH2 0x2367 DUP6 DUP3 DUP7 ADD PUSH2 0x22FB JUMP JUMPDEST SWAP3 POP POP PUSH1 0x20 DUP4 ADD CALLDATALOAD PUSH8 0xFFFFFFFFFFFFFFFF DUP2 GT ISZERO PUSH2 0x2388 JUMPI PUSH2 0x2387 PUSH2 0x1D2E JUMP JUMPDEST JUMPDEST PUSH2 0x2394 DUP6 DUP3 DUP7 ADD PUSH2 0x20C0 JUMP JUMPDEST SWAP2 POP POP SWAP3 POP SWAP3 SWAP1 POP JUMP JUMPDEST PUSH0 DUP2 MLOAD SWAP1 POP SWAP2 SWAP1 POP JUMP JUMPDEST PUSH0 DUP3 DUP3 MSTORE PUSH1 0x20 DUP3 ADD SWAP1 POP SWAP3 SWAP2 POP POP JUMP JUMPDEST PUSH0 DUP2 SWAP1 POP PUSH1 0x20 DUP3 ADD SWAP1 POP SWAP2 SWAP1 POP JUMP JUMPDEST PUSH2 0x23D0 DUP2 PUSH2 0x1D8C JUMP JUMPDEST DUP3 MSTORE POP POP JUMP JUMPDEST PUSH0 PUSH2 0x23E1 DUP4 DUP4 PUSH2 0x23C7 JUMP JUMPDEST PUSH1 0x20 DUP4 ADD SWAP1 POP SWAP3 SWAP2 POP POP JUMP JUMPDEST PUSH0 PUSH1 0x20 DUP3 ADD SWAP1 POP SWAP2 SWAP1 POP JUMP JUMPDEST PUSH0 PUSH2 0x2403 DUP3 PUSH2 0x239E JUMP JUMPDEST PUSH2 0x240D DUP2 DUP6 PUSH2 0x23A8 JUMP JUMPDEST SWAP4 POP PUSH2 0x2418 DUP4 PUSH2 0x23B8 JUMP JUMPDEST DUP1 PUSH0 JUMPDEST DUP4 DUP2 LT ISZERO PUSH2 0x2448 JUMPI DUP2 MLOAD PUSH2 0x242F DUP9 DUP3 PUSH2 0x23D6 JUMP JUMPDEST SWAP8 POP PUSH2 0x243A DUP4 PUSH2 0x23ED JUMP JUMPDEST SWAP3 POP POP PUSH1 0x1 DUP2 ADD SWAP1 POP PUSH2 0x241B JUMP JUMPDEST POP DUP6 SWAP4 POP POP POP POP SWAP3 SWAP2 POP POP JUMP JUMPDEST PUSH0 PUSH1 0x20 DUP3 ADD SWAP1 POP DUP2 DUP2 SUB PUSH0 DUP4 ADD MSTORE PUSH2 0x246D DUP2 DUP5 PUSH2 0x23F9 JUMP JUMPDEST SWAP1 POP SWAP3 SWAP2 POP POP JUMP JUMPDEST PUSH0 DUP1 PUSH0 PUSH1 0x60 DUP5 DUP7 SUB SLT ISZERO PUSH2 0x248C JUMPI PUSH2 0x248B PUSH2 0x1D2A JUMP JUMPDEST JUMPDEST PUSH0 PUSH2 0x2499 DUP7 DUP3 DUP8 ADD PUSH2 0x1D78 JUMP JUMPDEST SWAP4 POP POP PUSH1 0x20 PUSH2 0x24AA DUP7 DUP3 DUP8 ADD PUSH2 0x1DAB JUMP JUMPDEST SWAP3 POP POP PUSH1 0x40 PUSH2 0x24BB DUP7 DUP3 DUP8 ADD PUSH2 0x1DAB JUMP JUMPDEST SWAP2 POP POP SWAP3 POP SWAP3 POP SWAP3 JUMP JUMPDEST PUSH1 0x3 DUP2 LT PUSH2 0x24D1 JUMPI PUSH0 DUP1 REVERT JUMPDEST POP JUMP JUMPDEST PUSH0 DUP2 CALLDATALOAD SWAP1 POP PUSH2 0x24E2 DUP2 PUSH2 0x24C5 JUMP JUMPDEST SWAP3 SWAP2 POP POP JUMP JUMPDEST PUSH0 PUSH8 0xFFFFFFFFFFFFFFFF DUP3 GT ISZERO PUSH2 0x2502 JUMPI PUSH2 0x2501 PUSH2 0x1FB1 JUMP JUMPDEST JUMPDEST PUSH2 0x250B DUP3 PUSH2 0x1F45 JUMP JUMPDEST SWAP1 POP PUSH1 0x20 DUP2 ADD SWAP1 POP SWAP2 SWAP1 POP JUMP JUMPDEST PUSH0 PUSH2 0x252A PUSH2 0x2525 DUP5 PUSH2 0x24E8 JUMP JUMPDEST PUSH2 0x200F JUMP JUMPDEST SWAP1 POP DUP3 DUP2 MSTORE PUSH1 0x20 DUP2 ADD DUP5 DUP5 DUP5 ADD GT ISZERO PUSH2 0x2546 JUMPI PUSH2 0x2545 PUSH2 0x20ED JUMP JUMPDEST JUMPDEST PUSH2 0x2551 DUP5 DUP3 DUP6 PUSH2 0x2121 JUMP JUMPDEST POP SWAP4 SWAP3 POP POP POP JUMP JUMPDEST PUSH0 DUP3 PUSH1 0x1F DUP4 ADD SLT PUSH2 0x256D JUMPI PUSH2 0x256C PUSH2 0x1FAD JUMP JUMPDEST JUMPDEST DUP2 CALLDATALOAD PUSH2 0x257D DUP5 DUP3 PUSH1 0x20 DUP7 ADD PUSH2 0x2518 JUMP JUMPDEST SWAP2 POP POP SWAP3 SWAP2 POP POP JUMP JUMPDEST PUSH0 DUP1 PUSH0 PUSH1 0x60 DUP5 DUP7 SUB SLT ISZERO PUSH2 0x259D JUMPI PUSH2 0x259C PUSH2 0x1D2A JUMP JUMPDEST JUMPDEST PUSH0 PUSH2 0x25AA DUP7 DUP3 DUP8 ADD PUSH2 0x24D4 JUMP JUMPDEST SWAP4 POP POP PUSH1 0x20 DUP5 ADD CALLDATALOAD PUSH8 0xFFFFFFFFFFFFFFFF DUP2 GT ISZERO PUSH2 0x25CB JUMPI PUSH2 0x25CA PUSH2 0x1D2E JUMP JUMPDEST JUMPDEST PUSH2 0x25D7 DUP7 DUP3 DUP8 ADD PUSH2 0x2559 JUMP JUMPDEST SWAP3 POP POP PUSH1 0x40 DUP5 ADD CALLDATALOAD PUSH8 0xFFFFFFFFFFFFFFFF DUP2 GT ISZERO PUSH2 0x25F8 JUMPI PUSH2 0x25F7 PUSH2 0x1D2E JUMP JUMPDEST JUMPDEST PUSH2 0x2604 DUP7 DUP3 DUP8 ADD PUSH2 0x2559 JUMP JUMPDEST SWAP2 POP POP SWAP3 POP SWAP3 POP SWAP3 JUMP JUMPDEST PUSH2 0x2617 DUP2 PUSH2 0x1D51 JUMP JUMPDEST DUP3 MSTORE POP POP JUMP JUMPDEST PUSH0 PUSH1 0x20 DUP3 ADD SWAP1 POP PUSH2 0x2630 PUSH0 DUP4 ADD DUP5 PUSH2 0x260E JUMP JUMPDEST SWAP3 SWAP2 POP POP JUMP JUMPDEST PUSH2 0x263F DUP2 PUSH2 0x1EA5 JUMP JUMPDEST DUP2 EQ PUSH2 0x2649 JUMPI PUSH0 DUP1 REVERT JUMPDEST POP JUMP JUMPDEST PUSH0 DUP2 CALLDATALOAD SWAP1 POP PUSH2 0x265A DUP2 PUSH2 0x2636 JUMP JUMPDEST SWAP3 SWAP2 POP POP JUMP JUMPDEST PUSH0 DUP1 PUSH1 0x40 DUP4 DUP6 SUB SLT ISZERO PUSH2 0x2676 JUMPI PUSH2 0x2675 PUSH2 0x1D2A JUMP JUMPDEST JUMPDEST PUSH0 PUSH2 0x2683 DUP6 DUP3 DUP7 ADD PUSH2 0x1D78 JUMP JUMPDEST SWAP3 POP POP PUSH1 0x20 PUSH2 0x2694 DUP6 DUP3 DUP7 ADD PUSH2 0x264C JUMP JUMPDEST SWAP2 POP POP SWAP3 POP SWAP3 SWAP1 POP JUMP JUMPDEST PUSH32 0x4E487B7100000000000000000000000000000000000000000000000000000000 PUSH0 MSTORE PUSH1 0x21 PUSH1 0x4 MSTORE PUSH1 0x24 PUSH0 REVERT JUMPDEST PUSH1 0x3 DUP2 LT PUSH2 0x26DC JUMPI PUSH2 0x26DB PUSH2 0x269E JUMP JUMPDEST JUMPDEST POP JUMP JUMPDEST PUSH0 DUP2 SWAP1 POP PUSH2 0x26EC DUP3 PUSH2 0x26CB JUMP JUMPDEST SWAP2 SWAP1 POP JUMP JUMPDEST PUSH0 PUSH2 0x26FB DUP3 PUSH2 0x26DF JUMP JUMPDEST SWAP1 POP SWAP2 SWAP1 POP JUMP JUMPDEST PUSH2 0x270B DUP2 PUSH2 0x26F1 JUMP JUMPDEST DUP3 MSTORE POP POP JUMP JUMPDEST PUSH0 PUSH1 0x80 DUP3 ADD SWAP1 POP PUSH2 0x2724 PUSH0 DUP4 ADD DUP8 PUSH2 0x1DFD JUMP JUMPDEST PUSH2 0x2731 PUSH1 0x20 DUP4 ADD DUP7 PUSH2 0x2702 JUMP JUMPDEST DUP2 DUP2 SUB PUSH1 0x40 DUP4 ADD MSTORE PUSH2 0x2743 DUP2 DUP6 PUSH2 0x1F55 JUMP JUMPDEST SWAP1 POP DUP2 DUP2 SUB PUSH1 0x60 DUP4 ADD MSTORE PUSH2 0x2757 DUP2 DUP5 PUSH2 0x1F55 JUMP JUMPDEST SWAP1 POP SWAP6 SWAP5 POP POP POP POP POP JUMP JUMPDEST PUSH0 DUP1 PUSH1 0x40 DUP4 DUP6 SUB SLT ISZERO PUSH2 0x2778 JUMPI PUSH2 0x2777 PUSH2 0x1D2A JUMP JUMPDEST JUMPDEST PUSH0 PUSH2 0x2785 DUP6 DUP3 DUP7 ADD PUSH2 0x1DAB JUMP JUMPDEST SWAP3 POP POP PUSH1 0x20 PUSH2 0x2796 DUP6 DUP3 DUP7 ADD PUSH2 0x1DAB JUMP JUMPDEST SWAP2 POP POP SWAP3 POP SWAP3 SWAP1 POP JUMP JUMPDEST PUSH0 DUP1 PUSH1 0x40 DUP4 DUP6 SUB SLT ISZERO PUSH2 0x27B6 JUMPI PUSH2 0x27B5 PUSH2 0x1D2A JUMP JUMPDEST JUMPDEST PUSH0 PUSH2 0x27C3 DUP6 DUP3 DUP7 ADD PUSH2 0x1D78 JUMP JUMPDEST SWAP3 POP POP PUSH1 0x20 PUSH2 0x27D4 DUP6 DUP3 DUP7 ADD PUSH2 0x1D78 JUMP JUMPDEST SWAP2 POP POP SWAP3 POP SWAP3 SWAP1 POP JUMP JUMPDEST PUSH0 DUP1 PUSH0 DUP1 PUSH0 PUSH1 0xA0 DUP7 DUP9 SUB SLT ISZERO PUSH2 0x27F7 JUMPI PUSH2 0x27F6 PUSH2 0x1D2A JUMP JUMPDEST JUMPDEST PUSH0 PUSH2 0x2804 DUP9 DUP3 DUP10 ADD PUSH2 0x1D78 JUMP JUMPDEST SWAP6 POP POP PUSH1 0x20 PUSH2 0x2815 DUP9 DUP3 DUP10 ADD PUSH2 0x1D78 JUMP JUMPDEST SWAP5 POP POP PUSH1 0x40 PUSH2 0x2826 DUP9 DUP3 DUP10 ADD PUSH2 0x1DAB JUMP JUMPDEST SWAP4 POP POP PUSH1 0x60 PUSH2 0x2837 DUP9 DUP3 DUP10 ADD PUSH2 0x1DAB JUMP JUMPDEST SWAP3 POP POP PUSH1 0x80 DUP7 ADD CALLDATALOAD PUSH8 0xFFFFFFFFFFFFFFFF DUP2 GT ISZERO PUSH2 0x2858 JUMPI PUSH2 0x2857 PUSH2 0x1D2E JUMP JUMPDEST JUMPDEST PUSH2 0x2864 DUP9 DUP3 DUP10 ADD PUSH2 0x2170 JUMP JUMPDEST SWAP2 POP POP SWAP3 SWAP6 POP SWAP3 SWAP6 SWAP1 SWAP4 POP JUMP JUMPDEST PUSH0 PUSH1 0x20 DUP3 DUP5 SUB SLT ISZERO PUSH2 0x2886 JUMPI PUSH2 0x2885 PUSH2 0x1D2A JUMP JUMPDEST JUMPDEST PUSH0 PUSH2 0x2893 DUP5 DUP3 DUP6 ADD PUSH2 0x1D78 JUMP JUMPDEST SWAP2 POP POP SWAP3 SWAP2 POP POP JUMP JUMPDEST PUSH32 0x4E487B7100000000000000000000000000000000000000000000000000000000 PUSH0 MSTORE PUSH1 0x22 PUSH1 0x4 MSTORE PUSH1 0x24 PUSH0 REVERT JUMPDEST PUSH0 PUSH1 0x2 DUP3 DIV SWAP1 POP PUSH1 0x1 DUP3 AND DUP1 PUSH2 0x28E0 JUMPI PUSH1 0x7F DUP3 AND SWAP2 POP JUMPDEST PUSH1 0x20 DUP3 LT DUP2 SUB PUSH2 0x28F3 JUMPI PUSH2 0x28F2 PUSH2 0x289C JUMP JUMPDEST JUMPDEST POP SWAP2 SWAP1 POP JUMP JUMPDEST PUSH0 PUSH1 0x40 DUP3 ADD SWAP1 POP PUSH2 0x290C PUSH0 DUP4 ADD DUP6 PUSH2 0x260E JUMP JUMPDEST PUSH2 0x2919 PUSH1 0x20 DUP4 ADD DUP5 PUSH2 0x260E JUMP JUMPDEST SWAP4 SWAP3 POP POP POP JUMP JUMPDEST PUSH0 PUSH1 0x40 DUP3 ADD SWAP1 POP PUSH2 0x2933 PUSH0 DUP4 ADD DUP6 PUSH2 0x1DFD JUMP JUMPDEST PUSH2 0x2940 PUSH1 0x20 DUP4 ADD DUP5 PUSH2 0x1DFD JUMP JUMPDEST SWAP4 SWAP3 POP POP POP JUMP JUMPDEST PUSH32 0x4E487B7100000000000000000000000000000000000000000000000000000000 PUSH0 MSTORE PUSH1 0x32 PUSH1 0x4 MSTORE PUSH1 0x24 PUSH0 REVERT JUMPDEST PUSH32 0x4E487B7100000000000000000000000000000000000000000000000000000000 PUSH0 MSTORE PUSH1 0x11 PUSH1 0x4 MSTORE PUSH1 0x24 PUSH0 REVERT JUMPDEST PUSH0 PUSH2 0x29AB DUP3 PUSH2 0x1D8C JUMP JUMPDEST SWAP2 POP PUSH32 0xFFFFFFFFFFFFFFFFFFFFFFFFFFFFFFFFFFFFFFFFFFFFFFFFFFFFFFFFFFFFFFFF DUP3 SUB PUSH2 0x29DD JUMPI PUSH2 0x29DC PUSH2 0x2974 JUMP JUMPDEST JUMPDEST PUSH1 0x1 DUP3 ADD SWAP1 POP SWAP2 SWAP1 POP JUMP JUMPDEST PUSH32 0x4974656D20646F6573206E6F742065786973742E000000000000000000000000 PUSH0 DUP3 ADD MSTORE POP JUMP JUMPDEST PUSH0 PUSH2 0x2A1C PUSH1 0x14 DUP4 PUSH2 0x1F0D JUMP JUMPDEST SWAP2 POP PUSH2 0x2A27 DUP3 PUSH2 0x29E8 JUMP JUMPDEST PUSH1 0x20 DUP3 ADD SWAP1 POP SWAP2 SWAP1 POP JUMP JUMPDEST PUSH0 PUSH1 0x20 DUP3 ADD SWAP1 POP DUP2 DUP2 SUB PUSH0 DUP4 ADD MSTORE PUSH2 0x2A49 DUP2 PUSH2 0x2A10 JUMP JUMPDEST SWAP1 POP SWAP2 SWAP1 POP JUMP JUMPDEST PUSH0 DUP2 SWAP1 POP DUP2 PUSH0 MSTORE PUSH1 0x20 PUSH0 KECCAK256 SWAP1 POP SWAP2 SWAP1 POP JUMP JUMPDEST PUSH0 PUSH1 0x20 PUSH1 0x1F DUP4 ADD DIV SWAP1 POP SWAP2 SWAP1 POP JUMP JUMPDEST PUSH0 DUP3 DUP3 SHL SWAP1 POP SWAP3 SWAP2 POP POP JUMP JUMPDEST PUSH0 PUSH1 0x8 DUP4 MUL PUSH2 0x2AAC PUSH32 0xFFFFFFFFFFFFFFFFFFFFFFFFFFFFFFFFFFFFFFFFFFFFFFFFFFFFFFFFFFFFFFFF DUP3 PUSH2 0x2A71 JUMP JUMPDEST PUSH2 0x2AB6 DUP7 DUP4 PUSH2 0x2A71 JUMP JUMPDEST SWAP6 POP DUP1 NOT DUP5 AND SWAP4 POP DUP1 DUP7 AND DUP5 OR SWAP3 POP POP POP SWAP4 SWAP3 POP POP POP JUMP JUMPDEST PUSH0 DUP2 SWAP1 POP SWAP2 SWAP1 POP JUMP JUMPDEST PUSH0 PUSH2 0x2AF1 PUSH2 0x2AEC PUSH2 0x2AE7 DUP5 PUSH2 0x1D8C JUMP JUMPDEST PUSH2 0x2ACE JUMP JUMPDEST PUSH2 0x1D8C JUMP JUMPDEST SWAP1 POP SWAP2 SWAP1 POP JUMP JUMPDEST PUSH0 DUP2 SWAP1 POP SWAP2 SWAP1 POP JUMP JUMPDEST PUSH2 0x2B0A DUP4 PUSH2 0x2AD7 JUMP JUMPDEST PUSH2 0x2B1E PUSH2 0x2B16 DUP3 PUSH2 0x2AF8 JUMP JUMPDEST DUP5 DUP5 SLOAD PUSH2 0x2A7D JUMP JUMPDEST DUP3 SSTORE POP POP POP POP JUMP JUMPDEST PUSH0 SWAP1 JUMP JUMPDEST PUSH2 0x2B32 PUSH2 0x2B26 JUMP JUMPDEST PUSH2 0x2B3D DUP2 DUP5 DUP5 PUSH2 0x2B01 JUMP JUMPDEST POP POP POP JUMP JUMPDEST JUMPDEST DUP2 DUP2 LT ISZERO PUSH2 0x2B60 JUMPI PUSH2 0x2B55 PUSH0 DUP3 PUSH2 0x2B2A JUMP JUMPDEST PUSH1 0x1 DUP2 ADD SWAP1 POP PUSH2 0x2B43 JUMP JUMPDEST POP POP JUMP JUMPDEST PUSH1 0x1F DUP3 GT ISZERO PUSH2 0x2BA5 JUMPI PUSH2 0x2B76 DUP2 PUSH2 0x2A50 JUMP JUMPDEST PUSH2 0x2B7F DUP5 PUSH2 0x2A62 JUMP JUMPDEST DUP2 ADD PUSH1 0x20 DUP6 LT ISZERO PUSH2 0x2B8E JUMPI DUP2 SWAP1 POP JUMPDEST PUSH2 0x2BA2 PUSH2 0x2B9A DUP6 PUSH2 0x2A62 JUMP JUMPDEST DUP4 ADD DUP3 PUSH2 0x2B42 JUMP JUMPDEST POP POP JUMPDEST POP POP POP JUMP JUMPDEST PUSH0 DUP3 DUP3 SHR SWAP1 POP SWAP3 SWAP2 POP POP JUMP JUMPDEST PUSH0 PUSH2 0x2BC5 PUSH0 NOT DUP5 PUSH1 0x8 MUL PUSH2 0x2BAA JUMP JUMPDEST NOT DUP1 DUP4 AND SWAP2 POP POP SWAP3 SWAP2 POP POP JUMP JUMPDEST PUSH0 PUSH2 0x2BDD DUP4 DUP4 PUSH2 0x2BB6 JUMP JUMPDEST SWAP2 POP DUP3 PUSH1 0x2 MUL DUP3 OR SWAP1 POP SWAP3 SWAP2 POP POP JUMP JUMPDEST PUSH2 0x2BF6 DUP3 PUSH2 0x1F03 JUMP JUMPDEST PUSH8 0xFFFFFFFFFFFFFFFF DUP2 GT ISZERO PUSH2 0x2C0F JUMPI PUSH2 0x2C0E PUSH2 0x1FB1 JUMP JUMPDEST JUMPDEST PUSH2 0x2C19 DUP3 SLOAD PUSH2 0x28C9 JUMP JUMPDEST PUSH2 0x2C24 DUP3 DUP3 DUP6 PUSH2 0x2B64 JUMP JUMPDEST PUSH0 PUSH1 0x20 SWAP1 POP PUSH1 0x1F DUP4 GT PUSH1 0x1 DUP2 EQ PUSH2 0x2C55 JUMPI PUSH0 DUP5 ISZERO PUSH2 0x2C43 JUMPI DUP3 DUP8 ADD MLOAD SWAP1 POP JUMPDEST PUSH2 0x2C4D DUP6 DUP3 PUSH2 0x2BD2 JUMP JUMPDEST DUP7 SSTORE POP PUSH2 0x2CB4 JUMP JUMPDEST PUSH1 0x1F NOT DUP5 AND PUSH2 0x2C63 DUP7 PUSH2 0x2A50 JUMP JUMPDEST PUSH0 JUMPDEST DUP3 DUP2 LT ISZERO PUSH2 0x2C8A JUMPI DUP5 DUP10 ADD MLOAD DUP3 SSTORE PUSH1 0x1 DUP3 ADD SWAP2 POP PUSH1 0x20 DUP6 ADD SWAP5 POP PUSH1 0x20 DUP2 ADD SWAP1 POP PUSH2 0x2C65 JUMP JUMPDEST DUP7 DUP4 LT ISZERO PUSH2 0x2CA7 JUMPI DUP5 DUP10 ADD MLOAD PUSH2 0x2CA3 PUSH1 0x1F DUP10 AND DUP3 PUSH2 0x2BB6 JUMP JUMPDEST DUP4 SSTORE POP JUMPDEST PUSH1 0x1 PUSH1 0x2 DUP9 MUL ADD DUP9 SSTORE POP POP POP JUMPDEST POP POP POP POP POP POP JUMP JUMPDEST PUSH32 0x4E6F7420617574686F72697A65642E0000000000000000000000000000000000 PUSH0 DUP3 ADD MSTORE POP JUMP JUMPDEST PUSH0 PUSH2 0x2CF0 PUSH1 0xF DUP4 PUSH2 0x1F0D JUMP JUMPDEST SWAP2 POP PUSH2 0x2CFB DUP3 PUSH2 0x2CBC JUMP JUMPDEST PUSH1 0x20 DUP3 ADD SWAP1 POP SWAP2 SWAP1 POP JUMP JUMPDEST PUSH0 PUSH1 0x20 DUP3 ADD SWAP1 POP DUP2 DUP2 SUB PUSH0 DUP4 ADD MSTORE PUSH2 0x2D1D DUP2 PUSH2 0x2CE4 JUMP JUMPDEST SWAP1 POP SWAP2 SWAP1 POP JUMP JUMPDEST PUSH0 PUSH2 0x2D2E DUP3 PUSH2 0x1D8C JUMP JUMPDEST SWAP2 POP PUSH2 0x2D39 DUP4 PUSH2 0x1D8C JUMP JUMPDEST SWAP3 POP DUP3 DUP3 MUL PUSH2 0x2D47 DUP2 PUSH2 0x1D8C JUMP JUMPDEST SWAP2 POP DUP3 DUP3 DIV DUP5 EQ DUP4 ISZERO OR PUSH2 0x2D5E JUMPI PUSH2 0x2D5D PUSH2 0x2974 JUMP JUMPDEST JUMPDEST POP SWAP3 SWAP2 POP POP JUMP JUMPDEST PUSH32 0x496E73756666696369656E74204554482073656E742E00000000000000000000 PUSH0 DUP3 ADD MSTORE POP JUMP JUMPDEST PUSH0 PUSH2 0x2D99 PUSH1 0x16 DUP4 PUSH2 0x1F0D JUMP JUMPDEST SWAP2 POP PUSH2 0x2DA4 DUP3 PUSH2 0x2D65 JUMP JUMPDEST PUSH1 0x20 DUP3 ADD SWAP1 POP SWAP2 SWAP1 POP JUMP JUMPDEST PUSH0 PUSH1 0x20 DUP3 ADD SWAP1 POP DUP2 DUP2 SUB PUSH0 DUP4 ADD MSTORE PUSH2 0x2DC6 DUP2 PUSH2 0x2D8D JUMP JUMPDEST SWAP1 POP SWAP2 SWAP1 POP JUMP JUMPDEST PUSH0 PUSH1 0x80 DUP3 ADD SWAP1 POP PUSH2 0x2DE0 PUSH0 DUP4 ADD DUP8 PUSH2 0x260E JUMP JUMPDEST PUSH2 0x2DED PUSH1 0x20 DUP4 ADD DUP7 PUSH2 0x1DFD JUMP JUMPDEST PUSH2 0x2DFA PUSH1 0x40 DUP4 ADD DUP6 PUSH2 0x1DFD JUMP JUMPDEST PUSH2 0x2E07 PUSH1 0x60 DUP4 ADD DUP5 PUSH2 0x1DFD JUMP JUMPDEST SWAP6 SWAP5 POP POP POP POP POP JUMP JUMPDEST PUSH0 PUSH2 0x2E1A DUP3 PUSH2 0x1D8C JUMP JUMPDEST SWAP2 POP PUSH2 0x2E25 DUP4 PUSH2 0x1D8C JUMP JUMPDEST SWAP3 POP DUP3 DUP3 ADD SWAP1 POP DUP1 DUP3 GT ISZERO PUSH2 0x2E3D JUMPI PUSH2 0x2E3C PUSH2 0x2974 JUMP JUMPDEST JUMPDEST SWAP3 SWAP2 POP POP JUMP JUMPDEST PUSH0 PUSH1 0x40 DUP3 ADD SWAP1 POP DUP2 DUP2 SUB PUSH0 DUP4 ADD MSTORE PUSH2 0x2E5B DUP2 DUP6 PUSH2 0x23F9 JUMP JUMPDEST SWAP1 POP DUP2 DUP2 SUB PUSH1 0x20 DUP4 ADD MSTORE PUSH2 0x2E6F DUP2 DUP5 PUSH2 0x23F9 JUMP JUMPDEST SWAP1 POP SWAP4 SWAP3 POP POP POP JUMP JUMPDEST PUSH0 DUP2 MLOAD SWAP1 POP SWAP2 SWAP1 POP JUMP JUMPDEST PUSH0 DUP3 DUP3 MSTORE PUSH1 0x20 DUP3 ADD SWAP1 POP SWAP3 SWAP2 POP POP JUMP JUMPDEST PUSH0 PUSH2 0x2E9C DUP3 PUSH2 0x2E78 JUMP JUMPDEST PUSH2 0x2EA6 DUP2 DUP6 PUSH2 0x2E82 JUMP JUMPDEST SWAP4 POP PUSH2 0x2EB6 DUP2 DUP6 PUSH1 0x20 DUP7 ADD PUSH2 0x1F1D JUMP JUMPDEST PUSH2 0x2EBF DUP2 PUSH2 0x1F45 JUMP JUMPDEST DUP5 ADD SWAP2 POP POP SWAP3 SWAP2 POP POP JUMP JUMPDEST PUSH0 PUSH1 0xA0 DUP3 ADD SWAP1 POP PUSH2 0x2EDD PUSH0 DUP4 ADD DUP9 PUSH2 0x260E JUMP JUMPDEST PUSH2 0x2EEA PUSH1 0x20 DUP4 ADD DUP8 PUSH2 0x260E JUMP JUMPDEST PUSH2 0x2EF7 PUSH1 0x40 DUP4 ADD DUP7 PUSH2 0x1DFD JUMP JUMPDEST PUSH2 0x2F04 PUSH1 0x60 DUP4 ADD DUP6 PUSH2 0x1DFD JUMP JUMPDEST DUP2 DUP2 SUB PUSH1 0x80 DUP4 ADD MSTORE PUSH2 0x2F16 DUP2 DUP5 PUSH2 0x2E92 JUMP JUMPDEST SWAP1 POP SWAP7 SWAP6 POP POP POP POP POP POP JUMP JUMPDEST PUSH0 DUP2 MLOAD SWAP1 POP PUSH2 0x2F30 DUP2 PUSH2 0x1E50 JUMP JUMPDEST SWAP3 SWAP2 POP POP JUMP JUMPDEST PUSH0 PUSH1 0x20 DUP3 DUP5 SUB SLT ISZERO PUSH2 0x2F4B JUMPI PUSH2 0x2F4A PUSH2 0x1D2A JUMP JUMPDEST JUMPDEST PUSH0 PUSH2 0x2F58 DUP5 DUP3 DUP6 ADD PUSH2 0x2F22 JUMP JUMPDEST SWAP2 POP POP SWAP3 SWAP2 POP POP JUMP JUMPDEST PUSH0 PUSH1 0xA0 DUP3 ADD SWAP1 POP PUSH2 0x2F74 PUSH0 DUP4 ADD DUP9 PUSH2 0x260E JUMP JUMPDEST PUSH2 0x2F81 PUSH1 0x20 DUP4 ADD DUP8 PUSH2 0x260E JUMP JUMPDEST DUP2 DUP2 SUB PUSH1 0x40 DUP4 ADD MSTORE PUSH2 0x2F93 DUP2 DUP7 PUSH2 0x23F9 JUMP JUMPDEST SWAP1 POP DUP2 DUP2 SUB PUSH1 0x60 DUP4 ADD MSTORE PUSH2 0x2FA7 DUP2 DUP6 PUSH2 0x23F9 JUMP JUMPDEST SWAP1 POP DUP2 DUP2 SUB PUSH1 0x80 DUP4 ADD MSTORE PUSH2 0x2FBB DUP2 DUP5 PUSH2 0x2E92 JUMP JUMPDEST SWAP1 POP SWAP7 SWAP6 POP POP POP POP POP POP JUMP INVALID LOG2 PUSH5 0x6970667358 0x22 SLT KECCAK256 0xBD DUP4 SWAP11 0xF8 NUMBER CALLER 0x26 LT 0xC CALLVALUE 0xD CALLDATACOPY 0xDF 0xD6 0x22 0xC9 0x21 PUSH13 0x33C058692BBECE00BE68E1BA37 PUSH3 0x64736F PUSH13 0x63430008140033000000000000 "
				},
				"gasEstimates": {
					"creation": {
						"codeDepositCost": "2457000",
						"executionCost": "infinite",
						"totalCost": "infinite"
					},
					"external": {
						"balanceOf(address,uint256)": "infinite",
						"balanceOfBatch(address[],uint256[])": "infinite",
						"burnItem(address,uint256,uint256)": "infinite",
						"createItem(uint8,string,string)": "infinite",
						"isApprovedForAll(address,address)": "infinite",
						"items(uint256)": "infinite",
						"mintItem(address,uint256,uint256)": "infinite",
						"owner()": "2538",
						"purchaseItem(uint256,uint256)": "infinite",
						"renounceOwnership()": "infinite",
						"safeBatchTransferFrom(address,address,uint256[],uint256[],bytes)": "infinite",
						"safeTransferFrom(address,address,uint256,uint256,bytes)": "infinite",
						"setApprovalForAll(address,bool)": "infinite",
						"supportsInterface(bytes4)": "809",
						"transferOwnership(address)": "infinite",
						"uri(uint256)": "infinite"
					}
				},
				"methodIdentifiers": {
					"balanceOf(address,uint256)": "00fdd58e",
					"balanceOfBatch(address[],uint256[])": "4e1273f4",
					"burnItem(address,uint256,uint256)": "d2581535",
					"createItem(uint8,string,string)": "6c150b2c",
					"isApprovedForAll(address,address)": "e985e9c5",
					"items(uint256)": "bfb231d2",
					"mintItem(address,uint256,uint256)": "696a50b4",
					"owner()": "8da5cb5b",
					"purchaseItem(uint256,uint256)": "e0675698",
					"renounceOwnership()": "715018a6",
					"safeBatchTransferFrom(address,address,uint256[],uint256[],bytes)": "2eb2c2d6",
					"safeTransferFrom(address,address,uint256,uint256,bytes)": "f242432a",
					"setApprovalForAll(address,bool)": "a22cb465",
					"supportsInterface(bytes4)": "01ffc9a7",
					"transferOwnership(address)": "f2fde38b",
					"uri(uint256)": "0e89341c"
				}
			},
			"storageLayout": {
				"storage": [
					{
						"astId": 326,
						"contract": "CSE426Project/ERC1155SmartContract.sol:GameItems",
						"label": "_balances",
						"offset": 0,
						"slot": "0",
						"type": "t_mapping(t_uint256,t_mapping(t_address,t_uint256))"
					},
					{
						"astId": 332,
						"contract": "CSE426Project/ERC1155SmartContract.sol:GameItems",
						"label": "_operatorApprovals",
						"offset": 0,
						"slot": "1",
						"type": "t_mapping(t_address,t_mapping(t_address,t_bool))"
					},
					{
						"astId": 334,
						"contract": "CSE426Project/ERC1155SmartContract.sol:GameItems",
						"label": "_uri",
						"offset": 0,
						"slot": "2",
						"type": "t_string_storage"
					},
					{
						"astId": 8,
						"contract": "CSE426Project/ERC1155SmartContract.sol:GameItems",
						"label": "_owner",
						"offset": 0,
						"slot": "3",
						"type": "t_address"
					},
					{
						"astId": 3011,
						"contract": "CSE426Project/ERC1155SmartContract.sol:GameItems",
						"label": "_itemIds",
						"offset": 0,
						"slot": "4",
						"type": "t_struct(Counter)1727_storage"
					},
					{
						"astId": 3030,
						"contract": "CSE426Project/ERC1155SmartContract.sol:GameItems",
						"label": "items",
						"offset": 0,
						"slot": "5",
						"type": "t_mapping(t_uint256,t_struct(Item)3025_storage)"
					}
				],
				"types": {
					"t_address": {
						"encoding": "inplace",
						"label": "address",
						"numberOfBytes": "20"
					},
					"t_bool": {
						"encoding": "inplace",
						"label": "bool",
						"numberOfBytes": "1"
					},
					"t_enum(ItemType)3015": {
						"encoding": "inplace",
						"label": "enum GameItems.ItemType",
						"numberOfBytes": "1"
					},
					"t_mapping(t_address,t_bool)": {
						"encoding": "mapping",
						"key": "t_address",
						"label": "mapping(address => bool)",
						"numberOfBytes": "32",
						"value": "t_bool"
					},
					"t_mapping(t_address,t_mapping(t_address,t_bool))": {
						"encoding": "mapping",
						"key": "t_address",
						"label": "mapping(address => mapping(address => bool))",
						"numberOfBytes": "32",
						"value": "t_mapping(t_address,t_bool)"
					},
					"t_mapping(t_address,t_uint256)": {
						"encoding": "mapping",
						"key": "t_address",
						"label": "mapping(address => uint256)",
						"numberOfBytes": "32",
						"value": "t_uint256"
					},
					"t_mapping(t_uint256,t_mapping(t_address,t_uint256))": {
						"encoding": "mapping",
						"key": "t_uint256",
						"label": "mapping(uint256 => mapping(address => uint256))",
						"numberOfBytes": "32",
						"value": "t_mapping(t_address,t_uint256)"
					},
					"t_mapping(t_uint256,t_struct(Item)3025_storage)": {
						"encoding": "mapping",
						"key": "t_uint256",
						"label": "mapping(uint256 => struct GameItems.Item)",
						"numberOfBytes": "32",
						"value": "t_struct(Item)3025_storage"
					},
					"t_string_storage": {
						"encoding": "bytes",
						"label": "string",
						"numberOfBytes": "32"
					},
					"t_struct(Counter)1727_storage": {
						"encoding": "inplace",
						"label": "struct Counters.Counter",
						"members": [
							{
								"astId": 1726,
								"contract": "CSE426Project/ERC1155SmartContract.sol:GameItems",
								"label": "_value",
								"offset": 0,
								"slot": "0",
								"type": "t_uint256"
							}
						],
						"numberOfBytes": "32"
					},
					"t_struct(Item)3025_storage": {
						"encoding": "inplace",
						"label": "struct GameItems.Item",
						"members": [
							{
								"astId": 3017,
								"contract": "CSE426Project/ERC1155SmartContract.sol:GameItems",
								"label": "id",
								"offset": 0,
								"slot": "0",
								"type": "t_uint256"
							},
							{
								"astId": 3020,
								"contract": "CSE426Project/ERC1155SmartContract.sol:GameItems",
								"label": "itemType",
								"offset": 0,
								"slot": "1",
								"type": "t_enum(ItemType)3015"
							},
							{
								"astId": 3022,
								"contract": "CSE426Project/ERC1155SmartContract.sol:GameItems",
								"label": "name",
								"offset": 0,
								"slot": "2",
								"type": "t_string_storage"
							},
							{
								"astId": 3024,
								"contract": "CSE426Project/ERC1155SmartContract.sol:GameItems",
								"label": "description",
								"offset": 0,
								"slot": "3",
								"type": "t_string_storage"
							}
						],
						"numberOfBytes": "128"
					},
					"t_uint256": {
						"encoding": "inplace",
						"label": "uint256",
						"numberOfBytes": "32"
					}
				}
			},
			"userdoc": {
				"kind": "user",
				"methods": {},
				"version": 1
			}
		}
	}
}