{
  "contractName": "GameItems",
  "abi": [
    {
      "inputs": [
        {
          "internalType": "address",
          "name": "_erc20Address",
          "type": "address"
        },
        {
          "internalType": "address",
          "name": "_erc721Address",
          "type": "address"
        }
      ],
      "stateMutability": "nonpayable",
      "type": "constructor"
    },
    {
      "anonymous": false,
      "inputs": [
        {
          "indexed": true,
          "internalType": "address",
          "name": "account",
          "type": "address"
        },
        {
          "indexed": true,
          "internalType": "address",
          "name": "operator",
          "type": "address"
        },
        {
          "indexed": false,
          "internalType": "bool",
          "name": "approved",
          "type": "bool"
        }
      ],
      "name": "ApprovalForAll",
      "type": "event"
    },
    {
      "anonymous": false,
      "inputs": [
        {
          "indexed": true,
          "internalType": "address",
          "name": "owner",
          "type": "address"
        },
        {
          "indexed": false,
          "internalType": "uint256",
          "name": "itemId",
          "type": "uint256"
        },
        {
          "indexed": false,
          "internalType": "uint256",
          "name": "amount",
          "type": "uint256"
        }
      ],
      "name": "ItemBurned",
      "type": "event"
    },
    {
      "anonymous": false,
      "inputs": [
        {
          "indexed": false,
          "internalType": "uint256",
          "name": "itemId",
          "type": "uint256"
        },
        {
          "indexed": false,
          "internalType": "enum GameItems.ItemType",
          "name": "itemType",
          "type": "uint8"
        },
        {
          "indexed": false,
          "internalType": "string",
          "name": "name",
          "type": "string"
        },
        {
          "indexed": false,
          "internalType": "string",
          "name": "description",
          "type": "string"
        }
      ],
      "name": "ItemCreated",
      "type": "event"
    },
    {
      "anonymous": false,
      "inputs": [
        {
          "indexed": true,
          "internalType": "address",
          "name": "to",
          "type": "address"
        },
        {
          "indexed": false,
          "internalType": "uint256",
          "name": "itemId",
          "type": "uint256"
        },
        {
          "indexed": false,
          "internalType": "uint256",
          "name": "amount",
          "type": "uint256"
        }
      ],
      "name": "ItemMinted",
      "type": "event"
    },
    {
      "anonymous": false,
      "inputs": [
        {
          "indexed": true,
          "internalType": "address",
          "name": "buyer",
          "type": "address"
        },
        {
          "indexed": false,
          "internalType": "uint256",
          "name": "itemId",
          "type": "uint256"
        },
        {
          "indexed": false,
          "internalType": "uint256",
          "name": "amount",
          "type": "uint256"
        },
        {
          "indexed": false,
          "internalType": "string",
          "name": "paymentType",
          "type": "string"
        }
      ],
      "name": "ItemPurchased",
      "type": "event"
    },
    {
      "anonymous": false,
      "inputs": [
        {
          "indexed": true,
          "internalType": "address",
          "name": "previousOwner",
          "type": "address"
        },
        {
          "indexed": true,
          "internalType": "address",
          "name": "newOwner",
          "type": "address"
        }
      ],
      "name": "OwnershipTransferred",
      "type": "event"
    },
    {
      "anonymous": false,
      "inputs": [
        {
          "indexed": true,
          "internalType": "address",
          "name": "player",
          "type": "address"
        },
        {
          "indexed": false,
          "internalType": "uint256[]",
          "name": "cardIds",
          "type": "uint256[]"
        }
      ],
      "name": "PowerUpUsed",
      "type": "event"
    },
    {
      "anonymous": false,
      "inputs": [
        {
          "indexed": true,
          "internalType": "address",
          "name": "operator",
          "type": "address"
        },
        {
          "indexed": true,
          "internalType": "address",
          "name": "from",
          "type": "address"
        },
        {
          "indexed": true,
          "internalType": "address",
          "name": "to",
          "type": "address"
        },
        {
          "indexed": false,
          "internalType": "uint256[]",
          "name": "ids",
          "type": "uint256[]"
        },
        {
          "indexed": false,
          "internalType": "uint256[]",
          "name": "values",
          "type": "uint256[]"
        }
      ],
      "name": "TransferBatch",
      "type": "event"
    },
    {
      "anonymous": false,
      "inputs": [
        {
          "indexed": true,
          "internalType": "address",
          "name": "operator",
          "type": "address"
        },
        {
          "indexed": true,
          "internalType": "address",
          "name": "from",
          "type": "address"
        },
        {
          "indexed": true,
          "internalType": "address",
          "name": "to",
          "type": "address"
        },
        {
          "indexed": false,
          "internalType": "uint256",
          "name": "id",
          "type": "uint256"
        },
        {
          "indexed": false,
          "internalType": "uint256",
          "name": "value",
          "type": "uint256"
        }
      ],
      "name": "TransferSingle",
      "type": "event"
    },
    {
      "anonymous": false,
      "inputs": [
        {
          "indexed": false,
          "internalType": "string",
          "name": "value",
          "type": "string"
        },
        {
          "indexed": true,
          "internalType": "uint256",
          "name": "id",
          "type": "uint256"
        }
      ],
      "name": "URI",
      "type": "event"
    },
    {
      "inputs": [
        {
          "internalType": "address",
          "name": "account",
          "type": "address"
        },
        {
          "internalType": "uint256",
          "name": "id",
          "type": "uint256"
        }
      ],
      "name": "balanceOf",
      "outputs": [
        {
          "internalType": "uint256",
          "name": "",
          "type": "uint256"
        }
      ],
      "stateMutability": "view",
      "type": "function",
      "constant": true
    },
    {
      "inputs": [
        {
          "internalType": "address[]",
          "name": "accounts",
          "type": "address[]"
        },
        {
          "internalType": "uint256[]",
          "name": "ids",
          "type": "uint256[]"
        }
      ],
      "name": "balanceOfBatch",
      "outputs": [
        {
          "internalType": "uint256[]",
          "name": "",
          "type": "uint256[]"
        }
      ],
      "stateMutability": "view",
      "type": "function",
      "constant": true
    },
    {
      "inputs": [],
      "name": "currPhase",
      "outputs": [
        {
          "internalType": "enum GameItems.Phase",
          "name": "",
          "type": "uint8"
        }
      ],
      "stateMutability": "view",
      "type": "function",
      "constant": true
    },
    {
      "inputs": [
        {
          "internalType": "address",
          "name": "account",
          "type": "address"
        },
        {
          "internalType": "address",
          "name": "operator",
          "type": "address"
        }
      ],
      "name": "isApprovedForAll",
      "outputs": [
        {
          "internalType": "bool",
          "name": "",
          "type": "bool"
        }
      ],
      "stateMutability": "view",
      "type": "function",
      "constant": true
    },
    {
      "inputs": [
        {
          "internalType": "uint256",
          "name": "",
          "type": "uint256"
        }
      ],
      "name": "items",
      "outputs": [
        {
          "internalType": "uint256",
          "name": "id",
          "type": "uint256"
        },
        {
          "internalType": "enum GameItems.ItemType",
          "name": "itemType",
          "type": "uint8"
        },
        {
          "internalType": "string",
          "name": "name",
          "type": "string"
        },
        {
          "internalType": "string",
          "name": "description",
          "type": "string"
        }
      ],
      "stateMutability": "view",
      "type": "function",
      "constant": true
    },
    {
      "inputs": [],
      "name": "owner",
      "outputs": [
        {
          "internalType": "address",
          "name": "",
          "type": "address"
        }
      ],
      "stateMutability": "view",
      "type": "function",
      "constant": true
    },
    {
      "inputs": [],
      "name": "renounceOwnership",
      "outputs": [],
      "stateMutability": "nonpayable",
      "type": "function"
    },
    {
      "inputs": [
        {
          "internalType": "address",
          "name": "from",
          "type": "address"
        },
        {
          "internalType": "address",
          "name": "to",
          "type": "address"
        },
        {
          "internalType": "uint256[]",
          "name": "ids",
          "type": "uint256[]"
        },
        {
          "internalType": "uint256[]",
          "name": "amounts",
          "type": "uint256[]"
        },
        {
          "internalType": "bytes",
          "name": "data",
          "type": "bytes"
        }
      ],
      "name": "safeBatchTransferFrom",
      "outputs": [],
      "stateMutability": "nonpayable",
      "type": "function"
    },
    {
      "inputs": [
        {
          "internalType": "address",
          "name": "from",
          "type": "address"
        },
        {
          "internalType": "address",
          "name": "to",
          "type": "address"
        },
        {
          "internalType": "uint256",
          "name": "id",
          "type": "uint256"
        },
        {
          "internalType": "uint256",
          "name": "amount",
          "type": "uint256"
        },
        {
          "internalType": "bytes",
          "name": "data",
          "type": "bytes"
        }
      ],
      "name": "safeTransferFrom",
      "outputs": [],
      "stateMutability": "nonpayable",
      "type": "function"
    },
    {
      "inputs": [
        {
          "internalType": "address",
          "name": "operator",
          "type": "address"
        },
        {
          "internalType": "bool",
          "name": "approved",
          "type": "bool"
        }
      ],
      "name": "setApprovalForAll",
      "outputs": [],
      "stateMutability": "nonpayable",
      "type": "function"
    },
    {
      "inputs": [
        {
          "internalType": "bytes4",
          "name": "interfaceId",
          "type": "bytes4"
        }
      ],
      "name": "supportsInterface",
      "outputs": [
        {
          "internalType": "bool",
          "name": "",
          "type": "bool"
        }
      ],
      "stateMutability": "view",
      "type": "function",
      "constant": true
    },
    {
      "inputs": [
        {
          "internalType": "address",
          "name": "newOwner",
          "type": "address"
        }
      ],
      "name": "transferOwnership",
      "outputs": [],
      "stateMutability": "nonpayable",
      "type": "function"
    },
    {
      "inputs": [
        {
          "internalType": "uint256",
          "name": "",
          "type": "uint256"
        }
      ],
      "name": "uri",
      "outputs": [
        {
          "internalType": "string",
          "name": "",
          "type": "string"
        }
      ],
      "stateMutability": "view",
      "type": "function",
      "constant": true
    },
    {
      "inputs": [
        {
          "internalType": "enum GameItems.ItemType",
          "name": "itemType",
          "type": "uint8"
        },
        {
          "internalType": "string",
          "name": "name",
          "type": "string"
        },
        {
          "internalType": "string",
          "name": "description",
          "type": "string"
        }
      ],
      "name": "createItem",
      "outputs": [
        {
          "internalType": "uint256",
          "name": "",
          "type": "uint256"
        }
      ],
      "stateMutability": "nonpayable",
      "type": "function"
    },
    {
      "inputs": [
        {
          "internalType": "address",
          "name": "to",
          "type": "address"
        },
        {
          "internalType": "uint256",
          "name": "itemId",
          "type": "uint256"
        },
        {
          "internalType": "uint256",
          "name": "amount",
          "type": "uint256"
        }
      ],
      "name": "mintItem",
      "outputs": [],
      "stateMutability": "nonpayable",
      "type": "function"
    },
    {
      "inputs": [
        {
          "internalType": "address",
          "name": "owner",
          "type": "address"
        },
        {
          "internalType": "uint256",
          "name": "itemId",
          "type": "uint256"
        },
        {
          "internalType": "uint256",
          "name": "amount",
          "type": "uint256"
        }
      ],
      "name": "burnItem",
      "outputs": [],
      "stateMutability": "nonpayable",
      "type": "function"
    },
    {
      "inputs": [
        {
          "internalType": "uint256",
          "name": "itemId",
          "type": "uint256"
        }
      ],
      "name": "purchaseItem",
      "outputs": [],
      "stateMutability": "payable",
      "type": "function",
      "payable": true
    },
    {
      "inputs": [
        {
          "internalType": "uint256",
          "name": "itemId",
          "type": "uint256"
        }
      ],
      "name": "purchaseWithGoldCoin",
      "outputs": [],
      "stateMutability": "nonpayable",
      "type": "function"
    },
    {
      "inputs": [
        {
          "internalType": "uint256",
          "name": "cardId",
          "type": "uint256"
        },
        {
          "internalType": "uint256",
          "name": "itemId",
          "type": "uint256"
        }
      ],
      "name": "tradeUniqueCardForItem",
      "outputs": [],
      "stateMutability": "nonpayable",
      "type": "function"
    },
    {
      "inputs": [
        {
          "internalType": "address",
          "name": "player",
          "type": "address"
        }
      ],
      "name": "usePowerUp",
      "outputs": [],
      "stateMutability": "nonpayable",
      "type": "function"
    },
    {
      "inputs": [
        {
          "internalType": "address",
          "name": "player",
          "type": "address"
        }
      ],
      "name": "hasPowerUp",
      "outputs": [
        {
          "internalType": "bool",
          "name": "",
          "type": "bool"
        }
      ],
      "stateMutability": "view",
      "type": "function",
      "constant": true
    }
  ],
  "bytecode": "0x60806040526000600660146101000a81548160ff021916908360028111156200002d576200002c62000214565b5b02179055503480156200003f57600080fd5b5060405162004fcd38038062004fcd8339818101604052810190620000659190620002ad565b6040518060200160405280600081525062000086816200013160201b60201c565b50620000a76200009b6200014660201b60201c565b6200014e60201b60201c565b81600560006101000a81548173ffffffffffffffffffffffffffffffffffffffff021916908373ffffffffffffffffffffffffffffffffffffffff16021790555080600660006101000a81548173ffffffffffffffffffffffffffffffffffffffff021916908373ffffffffffffffffffffffffffffffffffffffff160217905550505062000655565b80600290816200014291906200056e565b5050565b600033905090565b6000600360009054906101000a900473ffffffffffffffffffffffffffffffffffffffff16905081600360006101000a81548173ffffffffffffffffffffffffffffffffffffffff021916908373ffffffffffffffffffffffffffffffffffffffff1602179055508173ffffffffffffffffffffffffffffffffffffffff168173ffffffffffffffffffffffffffffffffffffffff167f8be0079c531659141344cd1fd0a4f28419497f9722a3daafe3b4186f6b6457e060405160405180910390a35050565b7f4e487b7100000000000000000000000000000000000000000000000000000000600052602160045260246000fd5b600080fd5b600073ffffffffffffffffffffffffffffffffffffffff82169050919050565b6000620002758262000248565b9050919050565b620002878162000268565b81146200029357600080fd5b50565b600081519050620002a7816200027c565b92915050565b60008060408385031215620002c757620002c662000243565b5b6000620002d78582860162000296565b9250506020620002ea8582860162000296565b9150509250929050565b600081519050919050565b7f4e487b7100000000000000000000000000000000000000000000000000000000600052604160045260246000fd5b7f4e487b7100000000000000000000000000000000000000000000000000000000600052602260045260246000fd5b600060028204905060018216806200037657607f821691505b6020821081036200038c576200038b6200032e565b5b50919050565b60008190508160005260206000209050919050565b60006020601f8301049050919050565b600082821b905092915050565b600060088302620003f67fffffffffffffffffffffffffffffffffffffffffffffffffffffffffffffffff82620003b7565b620004028683620003b7565b95508019841693508086168417925050509392505050565b6000819050919050565b6000819050919050565b60006200044f6200044962000443846200041a565b62000424565b6200041a565b9050919050565b6000819050919050565b6200046b836200042e565b620004836200047a8262000456565b848454620003c4565b825550505050565b600090565b6200049a6200048b565b620004a781848462000460565b505050565b5b81811015620004cf57620004c360008262000490565b600181019050620004ad565b5050565b601f8211156200051e57620004e88162000392565b620004f384620003a7565b8101602085101562000503578190505b6200051b6200051285620003a7565b830182620004ac565b50505b505050565b600082821c905092915050565b6000620005436000198460080262000523565b1980831691505092915050565b60006200055e838362000530565b9150826002028217905092915050565b6200057982620002f4565b67ffffffffffffffff811115620005955762000594620002ff565b5b620005a182546200035d565b620005ae828285620004d3565b600060209050601f831160018114620005e65760008415620005d1578287015190505b620005dd858262000550565b8655506200064d565b601f198416620005f68662000392565b60005b828110156200062057848901518255600182019150602085019450602081019050620005f9565b868310156200064057848901516200063c601f89168262000530565b8355505b6001600288020188555050505b505050505050565b61496880620006656000396000f3fe6080604052600436106101295760003560e01c8063715018a6116100ab578063cf0cc75d1161006f578063cf0cc75d14610416578063d25815351461043f578063d38ea5bf14610468578063e985e9c514610484578063f242432a146104c1578063f2fde38b146104ea57610129565b8063715018a6146103425780638b651827146103595780638da5cb5b14610382578063a22cb465146103ad578063bfb231d2146103d657610129565b80633cc89380116100f25780633cc893801461024b5780634e1273f414610276578063696a50b4146102b35780636bbbcec8146102dc5780636c150b2c1461030557610129565b8062fdd58e1461012e57806301ffc9a71461016b5780630e89341c146101a857806313e8ee7e146101e55780632eb2c2d614610222575b600080fd5b34801561013a57600080fd5b506101556004803603810190610150919061299a565b610513565b60405161016291906129e9565b60405180910390f35b34801561017757600080fd5b50610192600480360381019061018d9190612a5c565b6105db565b60405161019f9190612aa4565b60405180910390f35b3480156101b457600080fd5b506101cf60048036038101906101ca9190612abf565b6106bd565b6040516101dc9190612b7c565b60405180910390f35b3480156101f157600080fd5b5061020c60048036038101906102079190612b9e565b610751565b6040516102199190612aa4565b60405180910390f35b34801561022e57600080fd5b5061024960048036038101906102449190612dc8565b61079c565b005b34801561025757600080fd5b5061026061083d565b60405161026d9190612f0e565b60405180910390f35b34801561028257600080fd5b5061029d60048036038101906102989190612fec565b610850565b6040516102aa9190613122565b60405180910390f35b3480156102bf57600080fd5b506102da60048036038101906102d59190613144565b610969565b005b3480156102e857600080fd5b5061030360048036038101906102fe9190613197565b610a39565b005b34801561031157600080fd5b5061032c6004803603810190610327919061329d565b610c42565b60405161033991906129e9565b60405180910390f35b34801561034e57600080fd5b50610357610d5b565b005b34801561036557600080fd5b50610380600480360381019061037b9190612b9e565b610d6f565b005b34801561038e57600080fd5b506103976110fa565b6040516103a49190613337565b60405180910390f35b3480156103b957600080fd5b506103d460048036038101906103cf919061337e565b611124565b005b3480156103e257600080fd5b506103fd60048036038101906103f89190612abf565b61113a565b60405161040d9493929190613406565b60405180910390f35b34801561042257600080fd5b5061043d60048036038101906104389190612abf565b611287565b005b34801561044b57600080fd5b5061046660048036038101906104619190613144565b6113a1565b005b610482600480360381019061047d9190612abf565b611480565b005b34801561049057600080fd5b506104ab60048036038101906104a69190613459565b6115e7565b6040516104b89190612aa4565b60405180910390f35b3480156104cd57600080fd5b506104e860048036038101906104e39190613499565b61167b565b005b3480156104f657600080fd5b50610511600480360381019061050c9190612b9e565b61171c565b005b60008073ffffffffffffffffffffffffffffffffffffffff168373ffffffffffffffffffffffffffffffffffffffff1603610583576040517f08c379a000000000000000000000000000000000000000000000000000000000815260040161057a906135a2565b60405180910390fd5b60008083815260200190815260200160002060008473ffffffffffffffffffffffffffffffffffffffff1673ffffffffffffffffffffffffffffffffffffffff16815260200190815260200160002054905092915050565b60007fd9b67a26000000000000000000000000000000000000000000000000000000007bffffffffffffffffffffffffffffffffffffffffffffffffffffffff1916827bffffffffffffffffffffffffffffffffffffffffffffffffffffffff191614806106a657507f0e89341c000000000000000000000000000000000000000000000000000000007bffffffffffffffffffffffffffffffffffffffffffffffffffffffff1916827bffffffffffffffffffffffffffffffffffffffffffffffffffffffff1916145b806106b657506106b58261179f565b5b9050919050565b6060600280546106cc906135f1565b80601f01602080910402602001604051908101604052809291908181526020018280546106f8906135f1565b80156107455780601f1061071a57610100808354040283529160200191610745565b820191906000526020600020905b81548152906001019060200180831161072857829003601f168201915b50505050509050919050565b600080600860008473ffffffffffffffffffffffffffffffffffffffff1673ffffffffffffffffffffffffffffffffffffffff16815260200190815260200160002054119050919050565b6107a4611809565b73ffffffffffffffffffffffffffffffffffffffff168573ffffffffffffffffffffffffffffffffffffffff1614806107ea57506107e9856107e4611809565b6115e7565b5b610829576040517f08c379a000000000000000000000000000000000000000000000000000000000815260040161082090613694565b60405180910390fd5b6108368585858585611811565b5050505050565b600660149054906101000a900460ff1681565b60608151835114610896576040517f08c379a000000000000000000000000000000000000000000000000000000000815260040161088d90613726565b60405180910390fd5b6000835167ffffffffffffffff8111156108b3576108b2612bd0565b5b6040519080825280602002602001820160405280156108e15781602001602082028036833780820191505090505b50905060005b845181101561095e5761092e85828151811061090657610905613746565b5b602002602001015185838151811061092157610920613746565b5b6020026020010151610513565b82828151811061094157610940613746565b5b60200260200101818152505080610957906137a4565b90506108e7565b508091505092915050565b610971611b32565b816007600084815260200190815260200160002060000154146109c9576040517f08c379a00000000000000000000000000000000000000000000000000000000081526004016109c090613838565b60405180910390fd5b6109e483838360405180602001604052806000815250611bb0565b8273ffffffffffffffffffffffffffffffffffffffff167fd9be9c40c7e99dfc974fa3fe3b790af02afd2939b5dedfccb1ba12933eb27a8e8383604051610a2c929190613858565b60405180910390a2505050565b3373ffffffffffffffffffffffffffffffffffffffff16600660009054906101000a900473ffffffffffffffffffffffffffffffffffffffff1673ffffffffffffffffffffffffffffffffffffffff16636352211e846040518263ffffffff1660e01b8152600401610aab91906129e9565b602060405180830381865afa158015610ac8573d6000803e3d6000fd5b505050506040513d601f19601f82011682018060405250810190610aec9190613896565b73ffffffffffffffffffffffffffffffffffffffff1614610b42576040517f08c379a0000000000000000000000000000000000000000000000000000000008152600401610b3990613935565b60405180910390fd5b600660009054906101000a900473ffffffffffffffffffffffffffffffffffffffff1673ffffffffffffffffffffffffffffffffffffffff16638a91a6c883306040518363ffffffff1660e01b8152600401610b9f929190613955565b600060405180830381600087803b158015610bb957600080fd5b505af1158015610bcd573d6000803e3d6000fd5b50505050610bed3382600160405180602001604052806000815250611bb0565b3373ffffffffffffffffffffffffffffffffffffffff167f1c707da32414b7aa5f73cda4705ee7b18994631f72e0e2ac5591b23dc53c40c9826001604051610c36929190613a0f565b60405180910390a25050565b6000610c4c611b32565b610c566004611d60565b6000610c626004611d76565b90506040518060800160405280828152602001866002811115610c8857610c87612e97565b5b815260200185815260200184815250600760008381526020019081526020016000206000820151816000015560208201518160010160006101000a81548160ff02191690836002811115610cdf57610cde612e97565b5b02179055506040820151816002019081610cf99190613bed565b506060820151816003019081610d0f9190613bed565b509050507fe3786fec9d04be3961f31c0789fa364ced3e8283b71bc5a6ccd1a5b1327622a181868686604051610d489493929190613406565b60405180910390a1809150509392505050565b610d63611b32565b610d6d6000611d84565b565b6000600860008373ffffffffffffffffffffffffffffffffffffffff1673ffffffffffffffffffffffffffffffffffffffff1681526020019081526020016000205411610df1576040517f08c379a0000000000000000000000000000000000000000000000000000000008152600401610de890613d0b565b60405180910390fd5b6001600860008373ffffffffffffffffffffffffffffffffffffffff1673ffffffffffffffffffffffffffffffffffffffff1681526020019081526020016000206000828254610e419190613d2b565b925050819055506000600660009054906101000a900473ffffffffffffffffffffffffffffffffffffffff1673ffffffffffffffffffffffffffffffffffffffff166370a08231836040518263ffffffff1660e01b8152600401610ea59190613337565b602060405180830381865afa158015610ec2573d6000803e3d6000fd5b505050506040513d601f19601f82011682018060405250810190610ee69190613d74565b905060008167ffffffffffffffff811115610f0457610f03612bd0565b5b604051908082528060200260200182016040528015610f325781602001602082028036833780820191505090505b50905060005b828110156110a6576000600660009054906101000a900473ffffffffffffffffffffffffffffffffffffffff1673ffffffffffffffffffffffffffffffffffffffff16632f745c5986846040518363ffffffff1660e01b8152600401610f9f929190613da1565b602060405180830381865afa158015610fbc573d6000803e3d6000fd5b505050506040513d601f19601f82011682018060405250810190610fe09190613d74565b9050600660009054906101000a900473ffffffffffffffffffffffffffffffffffffffff1673ffffffffffffffffffffffffffffffffffffffff1663618857ba82600a6040518363ffffffff1660e01b8152600401611040929190613e05565b600060405180830381600087803b15801561105a57600080fd5b505af115801561106e573d6000803e3d6000fd5b505050508083838151811061108657611085613746565b5b60200260200101818152505050808061109e906137a4565b915050610f38565b508273ffffffffffffffffffffffffffffffffffffffff167ff1bb0ce00e3d119057981f306f30fd23b2899482bc1d7550b233f6bac2b28e1a826040516110ed9190613122565b60405180910390a2505050565b6000600360009054906101000a900473ffffffffffffffffffffffffffffffffffffffff16905090565b61113661112f611809565b8383611e4a565b5050565b60076020528060005260406000206000915090508060000154908060010160009054906101000a900460ff1690806002018054611176906135f1565b80601f01602080910402602001604051908101604052809291908181526020018280546111a2906135f1565b80156111ef5780601f106111c4576101008083540402835291602001916111ef565b820191906000526020600020905b8154815290600101906020018083116111d257829003601f168201915b505050505090806003018054611204906135f1565b80601f0160208091040260200160405190810160405280929190818152602001828054611230906135f1565b801561127d5780601f106112525761010080835404028352916020019161127d565b820191906000526020600020905b81548152906001019060200180831161126057829003601f168201915b5050505050905084565b6000601e9050600560009054906101000a900473ffffffffffffffffffffffffffffffffffffffff1673ffffffffffffffffffffffffffffffffffffffff166323b872dd3330846040518463ffffffff1660e01b81526004016112ec93929190613e2e565b6020604051808303816000875af115801561130b573d6000803e3d6000fd5b505050506040513d601f19601f8201168201806040525081019061132f9190613e7a565b5061134c3383600160405180602001604052806000815250611bb0565b3373ffffffffffffffffffffffffffffffffffffffff167f1c707da32414b7aa5f73cda4705ee7b18994631f72e0e2ac5591b23dc53c40c9836001604051611395929190613ef3565b60405180910390a25050565b8273ffffffffffffffffffffffffffffffffffffffff163373ffffffffffffffffffffffffffffffffffffffff1614806113e157506113e083336115e7565b5b611420576040517f08c379a000000000000000000000000000000000000000000000000000000000815260040161141790613f7b565b60405180910390fd5b61142b838383611fb6565b8273ffffffffffffffffffffffffffffffffffffffff167fca29b5193c49b3f0cb8da1e82b521db2857868fcd608682d536a6444a936460c8383604051611473929190613858565b60405180910390a2505050565b806007600083815260200190815260200160002060000154146114d8576040517f08c379a00000000000000000000000000000000000000000000000000000000081526004016114cf90613838565b60405180910390fd5b6000670de0b6b3a7640000905080341015611528576040517f08c379a000000000000000000000000000000000000000000000000000000000815260040161151f90613fe7565b60405180910390fd5b6115443383600160405180602001604052806000815250611bb0565b61154c6110fa565b73ffffffffffffffffffffffffffffffffffffffff166108fc349081150290604051600060405180830381858888f19350505050158015611591573d6000803e3d6000fd5b503373ffffffffffffffffffffffffffffffffffffffff167f1c707da32414b7aa5f73cda4705ee7b18994631f72e0e2ac5591b23dc53c40c98360016040516115db929190614053565b60405180910390a25050565b6000600160008473ffffffffffffffffffffffffffffffffffffffff1673ffffffffffffffffffffffffffffffffffffffff16815260200190815260200160002060008373ffffffffffffffffffffffffffffffffffffffff1673ffffffffffffffffffffffffffffffffffffffff16815260200190815260200160002060009054906101000a900460ff16905092915050565b611683611809565b73ffffffffffffffffffffffffffffffffffffffff168573ffffffffffffffffffffffffffffffffffffffff1614806116c957506116c8856116c3611809565b6115e7565b5b611708576040517f08c379a00000000000000000000000000000000000000000000000000000000081526004016116ff90613694565b60405180910390fd5b61171585858585856121fc565b5050505050565b611724611b32565b600073ffffffffffffffffffffffffffffffffffffffff168173ffffffffffffffffffffffffffffffffffffffff1603611793576040517f08c379a000000000000000000000000000000000000000000000000000000000815260040161178a90614101565b60405180910390fd5b61179c81611d84565b50565b60007f01ffc9a7000000000000000000000000000000000000000000000000000000007bffffffffffffffffffffffffffffffffffffffffffffffffffffffff1916827bffffffffffffffffffffffffffffffffffffffffffffffffffffffff1916149050919050565b600033905090565b8151835114611855576040517f08c379a000000000000000000000000000000000000000000000000000000000815260040161184c90614193565b60405180910390fd5b600073ffffffffffffffffffffffffffffffffffffffff168473ffffffffffffffffffffffffffffffffffffffff16036118c4576040517f08c379a00000000000000000000000000000000000000000000000000000000081526004016118bb90614225565b60405180910390fd5b60006118ce611809565b90506118de818787878787612497565b60005b8451811015611a8f5760008582815181106118ff576118fe613746565b5b60200260200101519050600085838151811061191e5761191d613746565b5b60200260200101519050600080600084815260200190815260200160002060008b73ffffffffffffffffffffffffffffffffffffffff1673ffffffffffffffffffffffffffffffffffffffff168152602001908152602001600020549050818110156119bf576040517f08c379a00000000000000000000000000000000000000000000000000000000081526004016119b6906142b7565b60405180910390fd5b81810360008085815260200190815260200160002060008c73ffffffffffffffffffffffffffffffffffffffff1673ffffffffffffffffffffffffffffffffffffffff168152602001908152602001600020819055508160008085815260200190815260200160002060008b73ffffffffffffffffffffffffffffffffffffffff1673ffffffffffffffffffffffffffffffffffffffff1681526020019081526020016000206000828254611a7491906142d7565b9250508190555050505080611a88906137a4565b90506118e1565b508473ffffffffffffffffffffffffffffffffffffffff168673ffffffffffffffffffffffffffffffffffffffff168273ffffffffffffffffffffffffffffffffffffffff167f4a39dc06d4c0dbc64b70af90fd698a233a518aa5d07e595d983b8c0526c8f7fb8787604051611b0692919061430b565b60405180910390a4611b1c81878787878761249f565b611b2a8187878787876124a7565b505050505050565b611b3a611809565b73ffffffffffffffffffffffffffffffffffffffff16611b586110fa565b73ffffffffffffffffffffffffffffffffffffffff1614611bae576040517f08c379a0000000000000000000000000000000000000000000000000000000008152600401611ba59061438e565b60405180910390fd5b565b600073ffffffffffffffffffffffffffffffffffffffff168473ffffffffffffffffffffffffffffffffffffffff1603611c1f576040517f08c379a0000000000000000000000000000000000000000000000000000000008152600401611c1690614420565b60405180910390fd5b6000611c29611809565b90506000611c368561267e565b90506000611c438561267e565b9050611c5483600089858589612497565b8460008088815260200190815260200160002060008973ffffffffffffffffffffffffffffffffffffffff1673ffffffffffffffffffffffffffffffffffffffff1681526020019081526020016000206000828254611cb391906142d7565b925050819055508673ffffffffffffffffffffffffffffffffffffffff16600073ffffffffffffffffffffffffffffffffffffffff168473ffffffffffffffffffffffffffffffffffffffff167fc3d58168c5ae7397731d063d5bbf3d657854427343f4c083240f7aacaa2d0f628989604051611d31929190613858565b60405180910390a4611d488360008985858961249f565b611d57836000898989896126f8565b50505050505050565b6001816000016000828254019250508190555050565b600081600001549050919050565b6000600360009054906101000a900473ffffffffffffffffffffffffffffffffffffffff16905081600360006101000a81548173ffffffffffffffffffffffffffffffffffffffff021916908373ffffffffffffffffffffffffffffffffffffffff1602179055508173ffffffffffffffffffffffffffffffffffffffff168173ffffffffffffffffffffffffffffffffffffffff167f8be0079c531659141344cd1fd0a4f28419497f9722a3daafe3b4186f6b6457e060405160405180910390a35050565b8173ffffffffffffffffffffffffffffffffffffffff168373ffffffffffffffffffffffffffffffffffffffff1603611eb8576040517f08c379a0000000000000000000000000000000000000000000000000000000008152600401611eaf906144b2565b60405180910390fd5b80600160008573ffffffffffffffffffffffffffffffffffffffff1673ffffffffffffffffffffffffffffffffffffffff16815260200190815260200160002060008473ffffffffffffffffffffffffffffffffffffffff1673ffffffffffffffffffffffffffffffffffffffff16815260200190815260200160002060006101000a81548160ff0219169083151502179055508173ffffffffffffffffffffffffffffffffffffffff168373ffffffffffffffffffffffffffffffffffffffff167f17307eab39ab6107e8899845ad3d59bd9653f200f220920489ca2b5937696c3183604051611fa99190612aa4565b60405180910390a3505050565b600073ffffffffffffffffffffffffffffffffffffffff168373ffffffffffffffffffffffffffffffffffffffff1603612025576040517f08c379a000000000000000000000000000000000000000000000000000000000815260040161201c90614544565b60405180910390fd5b600061202f611809565b9050600061203c8461267e565b905060006120498461267e565b905061206983876000858560405180602001604052806000815250612497565b600080600087815260200190815260200160002060008873ffffffffffffffffffffffffffffffffffffffff1673ffffffffffffffffffffffffffffffffffffffff16815260200190815260200160002054905084811015612100576040517f08c379a00000000000000000000000000000000000000000000000000000000081526004016120f7906145d6565b60405180910390fd5b84810360008088815260200190815260200160002060008973ffffffffffffffffffffffffffffffffffffffff1673ffffffffffffffffffffffffffffffffffffffff16815260200190815260200160002081905550600073ffffffffffffffffffffffffffffffffffffffff168773ffffffffffffffffffffffffffffffffffffffff168573ffffffffffffffffffffffffffffffffffffffff167fc3d58168c5ae7397731d063d5bbf3d657854427343f4c083240f7aacaa2d0f6289896040516121cd929190613858565b60405180910390a46121f38488600086866040518060200160405280600081525061249f565b50505050505050565b600073ffffffffffffffffffffffffffffffffffffffff168473ffffffffffffffffffffffffffffffffffffffff160361226b576040517f08c379a000000000000000000000000000000000000000000000000000000000815260040161226290614225565b60405180910390fd5b6000612275611809565b905060006122828561267e565b9050600061228f8561267e565b905061229f838989858589612497565b600080600088815260200190815260200160002060008a73ffffffffffffffffffffffffffffffffffffffff1673ffffffffffffffffffffffffffffffffffffffff16815260200190815260200160002054905085811015612336576040517f08c379a000000000000000000000000000000000000000000000000000000000815260040161232d906142b7565b60405180910390fd5b85810360008089815260200190815260200160002060008b73ffffffffffffffffffffffffffffffffffffffff1673ffffffffffffffffffffffffffffffffffffffff168152602001908152602001600020819055508560008089815260200190815260200160002060008a73ffffffffffffffffffffffffffffffffffffffff1673ffffffffffffffffffffffffffffffffffffffff16815260200190815260200160002060008282546123eb91906142d7565b925050819055508773ffffffffffffffffffffffffffffffffffffffff168973ffffffffffffffffffffffffffffffffffffffff168573ffffffffffffffffffffffffffffffffffffffff167fc3d58168c5ae7397731d063d5bbf3d657854427343f4c083240f7aacaa2d0f628a8a604051612468929190613858565b60405180910390a461247e848a8a86868a61249f565b61248c848a8a8a8a8a6126f8565b505050505050505050565b505050505050565b505050505050565b6124c68473ffffffffffffffffffffffffffffffffffffffff166128cf565b15612676578373ffffffffffffffffffffffffffffffffffffffff1663bc197c8187878686866040518663ffffffff1660e01b815260040161250c95949392919061464b565b6020604051808303816000875af192505050801561254857506040513d601f19601f8201168201806040525081019061254591906146c8565b60015b6125ed57612554614702565b806308c379a0036125b05750612568614724565b8061257357506125b2565b806040517f08c379a00000000000000000000000000000000000000000000000000000000081526004016125a79190612b7c565b60405180910390fd5b505b6040517f08c379a00000000000000000000000000000000000000000000000000000000081526004016125e490614826565b60405180910390fd5b63bc197c8160e01b7bffffffffffffffffffffffffffffffffffffffffffffffffffffffff1916817bffffffffffffffffffffffffffffffffffffffffffffffffffffffff191614612674576040517f08c379a000000000000000000000000000000000000000000000000000000000815260040161266b906148b8565b60405180910390fd5b505b505050505050565b60606000600167ffffffffffffffff81111561269d5761269c612bd0565b5b6040519080825280602002602001820160405280156126cb5781602001602082028036833780820191505090505b50905082816000815181106126e3576126e2613746565b5b60200260200101818152505080915050919050565b6127178473ffffffffffffffffffffffffffffffffffffffff166128cf565b156128c7578373ffffffffffffffffffffffffffffffffffffffff1663f23a6e6187878686866040518663ffffffff1660e01b815260040161275d9594939291906148d8565b6020604051808303816000875af192505050801561279957506040513d601f19601f8201168201806040525081019061279691906146c8565b60015b61283e576127a5614702565b806308c379a00361280157506127b9614724565b806127c45750612803565b806040517f08c379a00000000000000000000000000000000000000000000000000000000081526004016127f89190612b7c565b60405180910390fd5b505b6040517f08c379a000000000000000000000000000000000000000000000000000000000815260040161283590614826565b60405180910390fd5b63f23a6e6160e01b7bffffffffffffffffffffffffffffffffffffffffffffffffffffffff1916817bffffffffffffffffffffffffffffffffffffffffffffffffffffffff1916146128c5576040517f08c379a00000000000000000000000000000000000000000000000000000000081526004016128bc906148b8565b60405180910390fd5b505b505050505050565b6000808273ffffffffffffffffffffffffffffffffffffffff163b119050919050565b6000604051905090565b600080fd5b600080fd5b600073ffffffffffffffffffffffffffffffffffffffff82169050919050565b600061293182612906565b9050919050565b61294181612926565b811461294c57600080fd5b50565b60008135905061295e81612938565b92915050565b6000819050919050565b61297781612964565b811461298257600080fd5b50565b6000813590506129948161296e565b92915050565b600080604083850312156129b1576129b06128fc565b5b60006129bf8582860161294f565b92505060206129d085828601612985565b9150509250929050565b6129e381612964565b82525050565b60006020820190506129fe60008301846129da565b92915050565b60007fffffffff0000000000000000000000000000000000000000000000000000000082169050919050565b612a3981612a04565b8114612a4457600080fd5b50565b600081359050612a5681612a30565b92915050565b600060208284031215612a7257612a716128fc565b5b6000612a8084828501612a47565b91505092915050565b60008115159050919050565b612a9e81612a89565b82525050565b6000602082019050612ab96000830184612a95565b92915050565b600060208284031215612ad557612ad46128fc565b5b6000612ae384828501612985565b91505092915050565b600081519050919050565b600082825260208201905092915050565b60005b83811015612b26578082015181840152602081019050612b0b565b60008484015250505050565b6000601f19601f8301169050919050565b6000612b4e82612aec565b612b588185612af7565b9350612b68818560208601612b08565b612b7181612b32565b840191505092915050565b60006020820190508181036000830152612b968184612b43565b905092915050565b600060208284031215612bb457612bb36128fc565b5b6000612bc28482850161294f565b91505092915050565b600080fd5b7f4e487b7100000000000000000000000000000000000000000000000000000000600052604160045260246000fd5b612c0882612b32565b810181811067ffffffffffffffff82111715612c2757612c26612bd0565b5b80604052505050565b6000612c3a6128f2565b9050612c468282612bff565b919050565b600067ffffffffffffffff821115612c6657612c65612bd0565b5b602082029050602081019050919050565b600080fd5b6000612c8f612c8a84612c4b565b612c30565b90508083825260208201905060208402830185811115612cb257612cb1612c77565b5b835b81811015612cdb5780612cc78882612985565b845260208401935050602081019050612cb4565b5050509392505050565b600082601f830112612cfa57612cf9612bcb565b5b8135612d0a848260208601612c7c565b91505092915050565b600080fd5b600067ffffffffffffffff821115612d3357612d32612bd0565b5b612d3c82612b32565b9050602081019050919050565b82818337600083830152505050565b6000612d6b612d6684612d18565b612c30565b905082815260208101848484011115612d8757612d86612d13565b5b612d92848285612d49565b509392505050565b600082601f830112612daf57612dae612bcb565b5b8135612dbf848260208601612d58565b91505092915050565b600080600080600060a08688031215612de457612de36128fc565b5b6000612df28882890161294f565b9550506020612e038882890161294f565b945050604086013567ffffffffffffffff811115612e2457612e23612901565b5b612e3088828901612ce5565b935050606086013567ffffffffffffffff811115612e5157612e50612901565b5b612e5d88828901612ce5565b925050608086013567ffffffffffffffff811115612e7e57612e7d612901565b5b612e8a88828901612d9a565b9150509295509295909350565b7f4e487b7100000000000000000000000000000000000000000000000000000000600052602160045260246000fd5b60038110612ed757612ed6612e97565b5b50565b6000819050612ee882612ec6565b919050565b6000612ef882612eda565b9050919050565b612f0881612eed565b82525050565b6000602082019050612f236000830184612eff565b92915050565b600067ffffffffffffffff821115612f4457612f43612bd0565b5b602082029050602081019050919050565b6000612f68612f6384612f29565b612c30565b90508083825260208201905060208402830185811115612f8b57612f8a612c77565b5b835b81811015612fb45780612fa0888261294f565b845260208401935050602081019050612f8d565b5050509392505050565b600082601f830112612fd357612fd2612bcb565b5b8135612fe3848260208601612f55565b91505092915050565b60008060408385031215613003576130026128fc565b5b600083013567ffffffffffffffff81111561302157613020612901565b5b61302d85828601612fbe565b925050602083013567ffffffffffffffff81111561304e5761304d612901565b5b61305a85828601612ce5565b9150509250929050565b600081519050919050565b600082825260208201905092915050565b6000819050602082019050919050565b61309981612964565b82525050565b60006130ab8383613090565b60208301905092915050565b6000602082019050919050565b60006130cf82613064565b6130d9818561306f565b93506130e483613080565b8060005b838110156131155781516130fc888261309f565b9750613107836130b7565b9250506001810190506130e8565b5085935050505092915050565b6000602082019050818103600083015261313c81846130c4565b905092915050565b60008060006060848603121561315d5761315c6128fc565b5b600061316b8682870161294f565b935050602061317c86828701612985565b925050604061318d86828701612985565b9150509250925092565b600080604083850312156131ae576131ad6128fc565b5b60006131bc85828601612985565b92505060206131cd85828601612985565b9150509250929050565b600381106131e457600080fd5b50565b6000813590506131f6816131d7565b92915050565b600067ffffffffffffffff82111561321757613216612bd0565b5b61322082612b32565b9050602081019050919050565b600061324061323b846131fc565b612c30565b90508281526020810184848401111561325c5761325b612d13565b5b613267848285612d49565b509392505050565b600082601f83011261328457613283612bcb565b5b813561329484826020860161322d565b91505092915050565b6000806000606084860312156132b6576132b56128fc565b5b60006132c4868287016131e7565b935050602084013567ffffffffffffffff8111156132e5576132e4612901565b5b6132f18682870161326f565b925050604084013567ffffffffffffffff81111561331257613311612901565b5b61331e8682870161326f565b9150509250925092565b61333181612926565b82525050565b600060208201905061334c6000830184613328565b92915050565b61335b81612a89565b811461336657600080fd5b50565b60008135905061337881613352565b92915050565b60008060408385031215613395576133946128fc565b5b60006133a38582860161294f565b92505060206133b485828601613369565b9150509250929050565b600381106133cf576133ce612e97565b5b50565b60008190506133e0826133be565b919050565b60006133f0826133d2565b9050919050565b613400816133e5565b82525050565b600060808201905061341b60008301876129da565b61342860208301866133f7565b818103604083015261343a8185612b43565b9050818103606083015261344e8184612b43565b905095945050505050565b600080604083850312156134705761346f6128fc565b5b600061347e8582860161294f565b925050602061348f8582860161294f565b9150509250929050565b600080600080600060a086880312156134b5576134b46128fc565b5b60006134c38882890161294f565b95505060206134d48882890161294f565b94505060406134e588828901612985565b93505060606134f688828901612985565b925050608086013567ffffffffffffffff81111561351757613516612901565b5b61352388828901612d9a565b9150509295509295909350565b7f455243313135353a2061646472657373207a65726f206973206e6f742061207660008201527f616c6964206f776e657200000000000000000000000000000000000000000000602082015250565b600061358c602a83612af7565b915061359782613530565b604082019050919050565b600060208201905081810360008301526135bb8161357f565b9050919050565b7f4e487b7100000000000000000000000000000000000000000000000000000000600052602260045260246000fd5b6000600282049050600182168061360957607f821691505b60208210810361361c5761361b6135c2565b5b50919050565b7f455243313135353a2063616c6c6572206973206e6f7420746f6b656e206f776e60008201527f6572206f7220617070726f766564000000000000000000000000000000000000602082015250565b600061367e602e83612af7565b915061368982613622565b604082019050919050565b600060208201905081810360008301526136ad81613671565b9050919050565b7f455243313135353a206163636f756e747320616e6420696473206c656e67746860008201527f206d69736d617463680000000000000000000000000000000000000000000000602082015250565b6000613710602983612af7565b915061371b826136b4565b604082019050919050565b6000602082019050818103600083015261373f81613703565b9050919050565b7f4e487b7100000000000000000000000000000000000000000000000000000000600052603260045260246000fd5b7f4e487b7100000000000000000000000000000000000000000000000000000000600052601160045260246000fd5b60006137af82612964565b91507fffffffffffffffffffffffffffffffffffffffffffffffffffffffffffffffff82036137e1576137e0613775565b5b600182019050919050565b7f4974656d20646f6573206e6f742065786973742e000000000000000000000000600082015250565b6000613822601483612af7565b915061382d826137ec565b602082019050919050565b6000602082019050818103600083015261385181613815565b9050919050565b600060408201905061386d60008301856129da565b61387a60208301846129da565b9392505050565b60008151905061389081612938565b92915050565b6000602082840312156138ac576138ab6128fc565b5b60006138ba84828501613881565b91505092915050565b7f4e6f7420746865206f776e6572206f662074686520756e69717565206361726460008201527f2e00000000000000000000000000000000000000000000000000000000000000602082015250565b600061391f602183612af7565b915061392a826138c3565b604082019050919050565b6000602082019050818103600083015261394e81613912565b9050919050565b600060408201905061396a60008301856129da565b6139776020830184613328565b9392505050565b6000819050919050565b6000819050919050565b60006139ad6139a86139a38461397e565b613988565b612964565b9050919050565b6139bd81613992565b82525050565b7f5472616465000000000000000000000000000000000000000000000000000000600082015250565b60006139f9600583612af7565b9150613a04826139c3565b602082019050919050565b6000606082019050613a2460008301856129da565b613a3160208301846139b4565b8181036040830152613a42816139ec565b90509392505050565b60008190508160005260206000209050919050565b60006020601f8301049050919050565b600082821b905092915050565b600060088302613aad7fffffffffffffffffffffffffffffffffffffffffffffffffffffffffffffffff82613a70565b613ab78683613a70565b95508019841693508086168417925050509392505050565b6000613aea613ae5613ae084612964565b613988565b612964565b9050919050565b6000819050919050565b613b0483613acf565b613b18613b1082613af1565b848454613a7d565b825550505050565b600090565b613b2d613b20565b613b38818484613afb565b505050565b5b81811015613b5c57613b51600082613b25565b600181019050613b3e565b5050565b601f821115613ba157613b7281613a4b565b613b7b84613a60565b81016020851015613b8a578190505b613b9e613b9685613a60565b830182613b3d565b50505b505050565b600082821c905092915050565b6000613bc460001984600802613ba6565b1980831691505092915050565b6000613bdd8383613bb3565b9150826002028217905092915050565b613bf682612aec565b67ffffffffffffffff811115613c0f57613c0e612bd0565b5b613c1982546135f1565b613c24828285613b60565b600060209050601f831160018114613c575760008415613c45578287015190505b613c4f8582613bd1565b865550613cb7565b601f198416613c6586613a4b565b60005b82811015613c8d57848901518255600182019150602085019450602081019050613c68565b86831015613caa5784890151613ca6601f891682613bb3565b8355505b6001600288020188555050505b505050505050565b7f4e6f20706f7765722d75707320617661696c61626c6500000000000000000000600082015250565b6000613cf5601683612af7565b9150613d0082613cbf565b602082019050919050565b60006020820190508181036000830152613d2481613ce8565b9050919050565b6000613d3682612964565b9150613d4183612964565b9250828203905081811115613d5957613d58613775565b5b92915050565b600081519050613d6e8161296e565b92915050565b600060208284031215613d8a57613d896128fc565b5b6000613d9884828501613d5f565b91505092915050565b6000604082019050613db66000830185613328565b613dc360208301846129da565b9392505050565b6000819050919050565b6000613def613dea613de584613dca565b613988565b612964565b9050919050565b613dff81613dd4565b82525050565b6000604082019050613e1a60008301856129da565b613e276020830184613df6565b9392505050565b6000606082019050613e436000830186613328565b613e506020830185613328565b613e5d60408301846129da565b949350505050565b600081519050613e7481613352565b92915050565b600060208284031215613e9057613e8f6128fc565b5b6000613e9e84828501613e65565b91505092915050565b7f476f6c64436f696e000000000000000000000000000000000000000000000000600082015250565b6000613edd600883612af7565b9150613ee882613ea7565b602082019050919050565b6000606082019050613f0860008301856129da565b613f1560208301846139b4565b8181036040830152613f2681613ed0565b90509392505050565b7f4e6f7420617574686f72697a65642e0000000000000000000000000000000000600082015250565b6000613f65600f83612af7565b9150613f7082613f2f565b602082019050919050565b60006020820190508181036000830152613f9481613f58565b9050919050565b7f496e73756666696369656e74204554482073656e742e00000000000000000000600082015250565b6000613fd1601683612af7565b9150613fdc82613f9b565b602082019050919050565b6000602082019050818103600083015261400081613fc4565b9050919050565b7f4554480000000000000000000000000000000000000000000000000000000000600082015250565b600061403d600383612af7565b915061404882614007565b602082019050919050565b600060608201905061406860008301856129da565b61407560208301846139b4565b818103604083015261408681614030565b90509392505050565b7f4f776e61626c653a206e6577206f776e657220697320746865207a65726f206160008201527f6464726573730000000000000000000000000000000000000000000000000000602082015250565b60006140eb602683612af7565b91506140f68261408f565b604082019050919050565b6000602082019050818103600083015261411a816140de565b9050919050565b7f455243313135353a2069647320616e6420616d6f756e7473206c656e6774682060008201527f6d69736d61746368000000000000000000000000000000000000000000000000602082015250565b600061417d602883612af7565b915061418882614121565b604082019050919050565b600060208201905081810360008301526141ac81614170565b9050919050565b7f455243313135353a207472616e7366657220746f20746865207a65726f20616460008201527f6472657373000000000000000000000000000000000000000000000000000000602082015250565b600061420f602583612af7565b915061421a826141b3565b604082019050919050565b6000602082019050818103600083015261423e81614202565b9050919050565b7f455243313135353a20696e73756666696369656e742062616c616e636520666f60008201527f72207472616e7366657200000000000000000000000000000000000000000000602082015250565b60006142a1602a83612af7565b91506142ac82614245565b604082019050919050565b600060208201905081810360008301526142d081614294565b9050919050565b60006142e282612964565b91506142ed83612964565b925082820190508082111561430557614304613775565b5b92915050565b6000604082019050818103600083015261432581856130c4565b9050818103602083015261433981846130c4565b90509392505050565b7f4f776e61626c653a2063616c6c6572206973206e6f7420746865206f776e6572600082015250565b6000614378602083612af7565b915061438382614342565b602082019050919050565b600060208201905081810360008301526143a78161436b565b9050919050565b7f455243313135353a206d696e7420746f20746865207a65726f2061646472657360008201527f7300000000000000000000000000000000000000000000000000000000000000602082015250565b600061440a602183612af7565b9150614415826143ae565b604082019050919050565b60006020820190508181036000830152614439816143fd565b9050919050565b7f455243313135353a2073657474696e6720617070726f76616c2073746174757360008201527f20666f722073656c660000000000000000000000000000000000000000000000602082015250565b600061449c602983612af7565b91506144a782614440565b604082019050919050565b600060208201905081810360008301526144cb8161448f565b9050919050565b7f455243313135353a206275726e2066726f6d20746865207a65726f206164647260008201527f6573730000000000000000000000000000000000000000000000000000000000602082015250565b600061452e602383612af7565b9150614539826144d2565b604082019050919050565b6000602082019050818103600083015261455d81614521565b9050919050565b7f455243313135353a206275726e20616d6f756e7420657863656564732062616c60008201527f616e636500000000000000000000000000000000000000000000000000000000602082015250565b60006145c0602483612af7565b91506145cb82614564565b604082019050919050565b600060208201905081810360008301526145ef816145b3565b9050919050565b600081519050919050565b600082825260208201905092915050565b600061461d826145f6565b6146278185614601565b9350614637818560208601612b08565b61464081612b32565b840191505092915050565b600060a0820190506146606000830188613328565b61466d6020830187613328565b818103604083015261467f81866130c4565b9050818103606083015261469381856130c4565b905081810360808301526146a78184614612565b90509695505050505050565b6000815190506146c281612a30565b92915050565b6000602082840312156146de576146dd6128fc565b5b60006146ec848285016146b3565b91505092915050565b60008160e01c9050919050565b600060033d11156147215760046000803e61471e6000516146f5565b90505b90565b600060443d106147b1576147366128f2565b60043d036004823e80513d602482011167ffffffffffffffff8211171561475e5750506147b1565b808201805167ffffffffffffffff81111561477c57505050506147b1565b80602083010160043d0385018111156147995750505050506147b1565b6147a882602001850186612bff565b82955050505050505b90565b7f455243313135353a207472616e7366657220746f206e6f6e2d4552433131353560008201527f526563656976657220696d706c656d656e746572000000000000000000000000602082015250565b6000614810603483612af7565b915061481b826147b4565b604082019050919050565b6000602082019050818103600083015261483f81614803565b9050919050565b7f455243313135353a204552433131353552656365697665722072656a6563746560008201527f6420746f6b656e73000000000000000000000000000000000000000000000000602082015250565b60006148a2602883612af7565b91506148ad82614846565b604082019050919050565b600060208201905081810360008301526148d181614895565b9050919050565b600060a0820190506148ed6000830188613328565b6148fa6020830187613328565b61490760408301866129da565b61491460608301856129da565b81810360808301526149268184614612565b9050969550505050505056fea2646970667358221220d98dbef58676bc4e8c95137fabee553a009b96239c49551eea0246a8bd61fb8764736f6c63430008130033",
  "immutableReferences": {},
  "source": "// SPDX-License-Identifier: MIT\npragma solidity ^0.8.19;\n\nimport \"@openzeppelin/contracts/token/ERC1155/ERC1155.sol\";\nimport \"@openzeppelin/contracts/utils/Counters.sol\";\nimport \"@openzeppelin/contracts/access/Ownable.sol\";\nimport \"./ERC20SmartContract.sol\"; // Importing the local ERC20 contract.\nimport \"./ERC721SmartContract.sol\"; // Importing the local ERC721 contract.\n\ncontract GameItems is ERC1155, Ownable {\n    using Counters for Counters.Counter;\n    Counters.Counter private _itemIds;\n\n    // Addresses of the deployed ERC20 and ERC721 contracts\n    GoldCoin private erc20Token;\n    UniqueCards private erc721Token;\n\n    enum Phase {\n        Register,\n        Play,\n        Done\n    }\n    Phase public currPhase = Phase.Register;\n\n    enum ItemType {\n        PowerUp,\n        Mod,\n        UniqueAttribute\n    }\n    struct Item {\n        uint256 id;\n        ItemType itemType;\n        string name;\n        string description;\n    }\n    mapping(uint256 => Item) public items;\n    mapping(address => uint256) private playerPowerUps;\n\n    // Event declarations\n    event ItemCreated(\n        uint256 itemId,\n        ItemType itemType,\n        string name,\n        string description\n    );\n    event ItemMinted(address indexed to, uint256 itemId, uint256 amount);\n    event ItemBurned(address indexed owner, uint256 itemId, uint256 amount);\n    event ItemPurchased(\n        address indexed buyer,\n        uint256 itemId,\n        uint256 amount,\n        string paymentType\n    );\n    event PowerUpUsed(address indexed player, uint256[] cardIds);\n\n    constructor(\n        address _erc20Address,\n        address _erc721Address\n    ) ERC1155(\"\") Ownable() {\n        erc20Token = GoldCoin(_erc20Address);\n        erc721Token = UniqueCards(_erc721Address);\n    }\n\n    function createItem(\n        ItemType itemType,\n        string memory name,\n        string memory description\n    ) external onlyOwner returns (uint256) {\n        _itemIds.increment();\n        uint256 newItemId = _itemIds.current();\n        items[newItemId] = Item({\n            id: newItemId,\n            itemType: itemType,\n            name: name,\n            description: description\n        });\n        emit ItemCreated(newItemId, itemType, name, description);\n        return newItemId;\n    }\n\n    function mintItem(\n        address to,\n        uint256 itemId,\n        uint256 amount\n    ) external onlyOwner {\n        require(items[itemId].id == itemId, \"Item does not exist.\");\n        _mint(to, itemId, amount, \"\");\n        emit ItemMinted(to, itemId, amount);\n    }\n\n    function burnItem(address owner, uint256 itemId, uint256 amount) external {\n        require(\n            msg.sender == owner || isApprovedForAll(owner, msg.sender),\n            \"Not authorized.\"\n        );\n        _burn(owner, itemId, amount);\n        emit ItemBurned(owner, itemId, amount);\n    }\n\n    function purchaseItem(uint256 itemId) external payable {\n        require(items[itemId].id == itemId, \"Item does not exist.\");\n        uint256 price = 1 * 1e18; // Example price for power-ups\n        require(msg.value >= price, \"Insufficient ETH sent.\");\n        _mint(msg.sender, itemId, 1, \"\");\n        payable(owner()).transfer(msg.value);\n        emit ItemPurchased(msg.sender, itemId, 1, \"ETH\");\n    }\n\n    function purchaseWithGoldCoin(uint256 itemId) external {\n        uint256 price = 30; // Example price for items\n        erc20Token.transferFrom(msg.sender, address(this), price);\n        _mint(msg.sender, itemId, 1, \"\");\n        emit ItemPurchased(msg.sender, itemId, 1, \"GoldCoin\");\n    }\n\n    function tradeUniqueCardForItem(uint256 cardId, uint256 itemId) external {\n        require(\n            erc721Token.ownerOf(cardId) == msg.sender,\n            \"Not the owner of the unique card.\"\n        );\n        erc721Token.tradeCard(cardId, address(this));\n        _mint(msg.sender, itemId, 1, \"\");\n        emit ItemPurchased(msg.sender, itemId, 1, \"Trade\");\n    }\n\n    function usePowerUp(address player) external {\n        require(playerPowerUps[player] > 0, \"No power-ups available\");\n        playerPowerUps[player] -= 1;\n        uint256 cardCount = erc721Token.balanceOf(player);\n        uint256[] memory cardIds = new uint256[](cardCount);\n        for (uint256 i = 0; i < cardCount; i++) {\n            uint256 cardId = erc721Token.tokenOfOwnerByIndex(player, i);\n            erc721Token.increaseCardAttributes(cardId, 10);\n            cardIds[i] = cardId;\n        }\n        emit PowerUpUsed(player, cardIds);\n    }\n\n    function hasPowerUp(address player) external view returns (bool) {\n        return playerPowerUps[player] > 0;\n    }\n}\n",
  "sourcePath": "/Users/ibrahimallahbuksh/BlockchainProject/contracts/ERC1155SmartContract.sol",
  "compiler": {
    "name": "solc",
    "version": "0.8.19+commit.7dd6d404.Emscripten.clang"
  },
  "schemaVersion": "3.4.16",
  "updatedAt": "2023-11-19T21:08:27.539Z",
  "networkType": "ethereum",
  "devdoc": {
    "events": {
      "ApprovalForAll(address,address,bool)": {
        "details": "Emitted when `account` grants or revokes permission to `operator` to transfer their tokens, according to `approved`."
      },
      "TransferBatch(address,address,address,uint256[],uint256[])": {
        "details": "Equivalent to multiple {TransferSingle} events, where `operator`, `from` and `to` are the same for all transfers."
      },
      "TransferSingle(address,address,address,uint256,uint256)": {
        "details": "Emitted when `value` tokens of token type `id` are transferred from `from` to `to` by `operator`."
      },
      "URI(string,uint256)": {
        "details": "Emitted when the URI for token type `id` changes to `value`, if it is a non-programmatic URI. If an {URI} event was emitted for `id`, the standard https://eips.ethereum.org/EIPS/eip-1155#metadata-extensions[guarantees] that `value` will equal the value returned by {IERC1155MetadataURI-uri}."
      }
    },
    "kind": "dev",
    "methods": {
      "balanceOf(address,uint256)": {
        "details": "See {IERC1155-balanceOf}. Requirements: - `account` cannot be the zero address."
      },
      "balanceOfBatch(address[],uint256[])": {
        "details": "See {IERC1155-balanceOfBatch}. Requirements: - `accounts` and `ids` must have the same length."
      },
      "isApprovedForAll(address,address)": {
        "details": "See {IERC1155-isApprovedForAll}."
      },
      "owner()": {
        "details": "Returns the address of the current owner."
      },
      "renounceOwnership()": {
        "details": "Leaves the contract without owner. It will not be possible to call `onlyOwner` functions. Can only be called by the current owner. NOTE: Renouncing ownership will leave the contract without an owner, thereby disabling any functionality that is only available to the owner."
      },
      "safeBatchTransferFrom(address,address,uint256[],uint256[],bytes)": {
        "details": "See {IERC1155-safeBatchTransferFrom}."
      },
      "safeTransferFrom(address,address,uint256,uint256,bytes)": {
        "details": "See {IERC1155-safeTransferFrom}."
      },
      "setApprovalForAll(address,bool)": {
        "details": "See {IERC1155-setApprovalForAll}."
      },
      "supportsInterface(bytes4)": {
        "details": "See {IERC165-supportsInterface}."
      },
      "transferOwnership(address)": {
        "details": "Transfers ownership of the contract to a new account (`newOwner`). Can only be called by the current owner."
      },
      "uri(uint256)": {
        "details": "See {IERC1155MetadataURI-uri}. This implementation returns the same URI for *all* token types. It relies on the token type ID substitution mechanism https://eips.ethereum.org/EIPS/eip-1155#metadata[defined in the EIP]. Clients calling this function must replace the `\\{id\\}` substring with the actual token type ID."
      }
    },
    "version": 1
  },
  "userdoc": {
    "kind": "user",
    "methods": {},
    "version": 1
  }
}