{
  "contractName": "GameItems",
  "abi": [
    {
      "inputs": [
        {
          "internalType": "address",
          "name": "_erc20Address",
          "type": "address"
        },
        {
          "internalType": "address",
          "name": "_erc721Address",
          "type": "address"
        }
      ],
      "stateMutability": "nonpayable",
      "type": "constructor"
    },
    {
      "anonymous": false,
      "inputs": [
        {
          "indexed": true,
          "internalType": "address",
          "name": "account",
          "type": "address"
        },
        {
          "indexed": true,
          "internalType": "address",
          "name": "operator",
          "type": "address"
        },
        {
          "indexed": false,
          "internalType": "bool",
          "name": "approved",
          "type": "bool"
        }
      ],
      "name": "ApprovalForAll",
      "type": "event"
    },
    {
      "anonymous": false,
      "inputs": [
        {
          "indexed": true,
          "internalType": "address",
          "name": "previousOwner",
          "type": "address"
        },
        {
          "indexed": true,
          "internalType": "address",
          "name": "newOwner",
          "type": "address"
        }
      ],
      "name": "OwnershipTransferred",
      "type": "event"
    },
    {
      "anonymous": false,
      "inputs": [
        {
          "indexed": true,
          "internalType": "address",
          "name": "operator",
          "type": "address"
        },
        {
          "indexed": true,
          "internalType": "address",
          "name": "from",
          "type": "address"
        },
        {
          "indexed": true,
          "internalType": "address",
          "name": "to",
          "type": "address"
        },
        {
          "indexed": false,
          "internalType": "uint256[]",
          "name": "ids",
          "type": "uint256[]"
        },
        {
          "indexed": false,
          "internalType": "uint256[]",
          "name": "values",
          "type": "uint256[]"
        }
      ],
      "name": "TransferBatch",
      "type": "event"
    },
    {
      "anonymous": false,
      "inputs": [
        {
          "indexed": true,
          "internalType": "address",
          "name": "operator",
          "type": "address"
        },
        {
          "indexed": true,
          "internalType": "address",
          "name": "from",
          "type": "address"
        },
        {
          "indexed": true,
          "internalType": "address",
          "name": "to",
          "type": "address"
        },
        {
          "indexed": false,
          "internalType": "uint256",
          "name": "id",
          "type": "uint256"
        },
        {
          "indexed": false,
          "internalType": "uint256",
          "name": "value",
          "type": "uint256"
        }
      ],
      "name": "TransferSingle",
      "type": "event"
    },
    {
      "anonymous": false,
      "inputs": [
        {
          "indexed": false,
          "internalType": "string",
          "name": "value",
          "type": "string"
        },
        {
          "indexed": true,
          "internalType": "uint256",
          "name": "id",
          "type": "uint256"
        }
      ],
      "name": "URI",
      "type": "event"
    },
    {
      "inputs": [
        {
          "internalType": "address",
          "name": "account",
          "type": "address"
        },
        {
          "internalType": "uint256",
          "name": "id",
          "type": "uint256"
        }
      ],
      "name": "balanceOf",
      "outputs": [
        {
          "internalType": "uint256",
          "name": "",
          "type": "uint256"
        }
      ],
      "stateMutability": "view",
      "type": "function"
    },
    {
      "inputs": [
        {
          "internalType": "address[]",
          "name": "accounts",
          "type": "address[]"
        },
        {
          "internalType": "uint256[]",
          "name": "ids",
          "type": "uint256[]"
        }
      ],
      "name": "balanceOfBatch",
      "outputs": [
        {
          "internalType": "uint256[]",
          "name": "",
          "type": "uint256[]"
        }
      ],
      "stateMutability": "view",
      "type": "function"
    },
    {
      "inputs": [],
      "name": "currPhase",
      "outputs": [
        {
          "internalType": "enum GameItems.Phase",
          "name": "",
          "type": "uint8"
        }
      ],
      "stateMutability": "view",
      "type": "function"
    },
    {
      "inputs": [
        {
          "internalType": "address",
          "name": "account",
          "type": "address"
        },
        {
          "internalType": "address",
          "name": "operator",
          "type": "address"
        }
      ],
      "name": "isApprovedForAll",
      "outputs": [
        {
          "internalType": "bool",
          "name": "",
          "type": "bool"
        }
      ],
      "stateMutability": "view",
      "type": "function"
    },
    {
      "inputs": [
        {
          "internalType": "uint256",
          "name": "",
          "type": "uint256"
        }
      ],
      "name": "items",
      "outputs": [
        {
          "internalType": "uint256",
          "name": "id",
          "type": "uint256"
        },
        {
          "internalType": "enum GameItems.ItemType",
          "name": "itemType",
          "type": "uint8"
        },
        {
          "internalType": "string",
          "name": "name",
          "type": "string"
        },
        {
          "internalType": "string",
          "name": "description",
          "type": "string"
        }
      ],
      "stateMutability": "view",
      "type": "function"
    },
    {
      "inputs": [],
      "name": "owner",
      "outputs": [
        {
          "internalType": "address",
          "name": "",
          "type": "address"
        }
      ],
      "stateMutability": "view",
      "type": "function"
    },
    {
      "inputs": [],
      "name": "renounceOwnership",
      "outputs": [],
      "stateMutability": "nonpayable",
      "type": "function"
    },
    {
      "inputs": [
        {
          "internalType": "address",
          "name": "from",
          "type": "address"
        },
        {
          "internalType": "address",
          "name": "to",
          "type": "address"
        },
        {
          "internalType": "uint256[]",
          "name": "ids",
          "type": "uint256[]"
        },
        {
          "internalType": "uint256[]",
          "name": "amounts",
          "type": "uint256[]"
        },
        {
          "internalType": "bytes",
          "name": "data",
          "type": "bytes"
        }
      ],
      "name": "safeBatchTransferFrom",
      "outputs": [],
      "stateMutability": "nonpayable",
      "type": "function"
    },
    {
      "inputs": [
        {
          "internalType": "address",
          "name": "from",
          "type": "address"
        },
        {
          "internalType": "address",
          "name": "to",
          "type": "address"
        },
        {
          "internalType": "uint256",
          "name": "id",
          "type": "uint256"
        },
        {
          "internalType": "uint256",
          "name": "amount",
          "type": "uint256"
        },
        {
          "internalType": "bytes",
          "name": "data",
          "type": "bytes"
        }
      ],
      "name": "safeTransferFrom",
      "outputs": [],
      "stateMutability": "nonpayable",
      "type": "function"
    },
    {
      "inputs": [
        {
          "internalType": "address",
          "name": "operator",
          "type": "address"
        },
        {
          "internalType": "bool",
          "name": "approved",
          "type": "bool"
        }
      ],
      "name": "setApprovalForAll",
      "outputs": [],
      "stateMutability": "nonpayable",
      "type": "function"
    },
    {
      "inputs": [
        {
          "internalType": "bytes4",
          "name": "interfaceId",
          "type": "bytes4"
        }
      ],
      "name": "supportsInterface",
      "outputs": [
        {
          "internalType": "bool",
          "name": "",
          "type": "bool"
        }
      ],
      "stateMutability": "view",
      "type": "function"
    },
    {
      "inputs": [
        {
          "internalType": "address",
          "name": "newOwner",
          "type": "address"
        }
      ],
      "name": "transferOwnership",
      "outputs": [],
      "stateMutability": "nonpayable",
      "type": "function"
    },
    {
      "inputs": [
        {
          "internalType": "uint256",
          "name": "",
          "type": "uint256"
        }
      ],
      "name": "uri",
      "outputs": [
        {
          "internalType": "string",
          "name": "",
          "type": "string"
        }
      ],
      "stateMutability": "view",
      "type": "function"
    },
    {
      "inputs": [
        {
          "internalType": "enum GameItems.Phase",
          "name": "x",
          "type": "uint8"
        }
      ],
      "name": "changePhase",
      "outputs": [],
      "stateMutability": "nonpayable",
      "type": "function"
    },
    {
      "inputs": [
        {
          "internalType": "enum GameItems.ItemType",
          "name": "itemType",
          "type": "uint8"
        },
        {
          "internalType": "string",
          "name": "name",
          "type": "string"
        },
        {
          "internalType": "string",
          "name": "description",
          "type": "string"
        }
      ],
      "name": "createItem",
      "outputs": [
        {
          "internalType": "uint256",
          "name": "",
          "type": "uint256"
        }
      ],
      "stateMutability": "nonpayable",
      "type": "function"
    },
    {
      "inputs": [
        {
          "internalType": "address",
          "name": "to",
          "type": "address"
        },
        {
          "internalType": "uint256",
          "name": "itemId",
          "type": "uint256"
        },
        {
          "internalType": "uint256",
          "name": "amount",
          "type": "uint256"
        }
      ],
      "name": "mintItem",
      "outputs": [],
      "stateMutability": "nonpayable",
      "type": "function"
    },
    {
      "inputs": [
        {
          "internalType": "address",
          "name": "owner",
          "type": "address"
        },
        {
          "internalType": "uint256",
          "name": "itemId",
          "type": "uint256"
        },
        {
          "internalType": "uint256",
          "name": "amount",
          "type": "uint256"
        }
      ],
      "name": "burnItem",
      "outputs": [],
      "stateMutability": "nonpayable",
      "type": "function"
    },
    {
      "inputs": [
        {
          "internalType": "uint256",
          "name": "itemId",
          "type": "uint256"
        }
      ],
      "name": "purchaseItem",
      "outputs": [],
      "stateMutability": "payable",
      "type": "function"
    },
    {
      "inputs": [
        {
          "internalType": "uint256",
          "name": "itemId",
          "type": "uint256"
        }
      ],
      "name": "purchaseWithGoldCoin",
      "outputs": [],
      "stateMutability": "nonpayable",
      "type": "function"
    },
    {
      "inputs": [
        {
          "internalType": "uint256",
          "name": "cardId",
          "type": "uint256"
        },
        {
          "internalType": "uint256",
          "name": "itemId",
          "type": "uint256"
        }
      ],
      "name": "tradeUniqueCardForItem",
      "outputs": [],
      "stateMutability": "nonpayable",
      "type": "function"
    },
    {
      "inputs": [
        {
          "internalType": "address",
          "name": "player",
          "type": "address"
        }
      ],
      "name": "usePowerUp",
      "outputs": [],
      "stateMutability": "nonpayable",
      "type": "function"
    },
    {
      "inputs": [
        {
          "internalType": "address",
          "name": "player",
          "type": "address"
        }
      ],
      "name": "hasPowerUp",
      "outputs": [
        {
          "internalType": "bool",
          "name": "",
          "type": "bool"
        }
      ],
      "stateMutability": "view",
      "type": "function"
    }
  ],
  "bytecode": "0x60806040526000600660146101000a81548160ff021916908360028111156200002d576200002c62000214565b5b02179055503480156200003f57600080fd5b5060405162004d2338038062004d238339818101604052810190620000659190620002ad565b6040518060200160405280600081525062000086816200013160201b60201c565b50620000a76200009b6200014660201b60201c565b6200014e60201b60201c565b81600560006101000a81548173ffffffffffffffffffffffffffffffffffffffff021916908373ffffffffffffffffffffffffffffffffffffffff16021790555080600660006101000a81548173ffffffffffffffffffffffffffffffffffffffff021916908373ffffffffffffffffffffffffffffffffffffffff160217905550505062000655565b80600290816200014291906200056e565b5050565b600033905090565b6000600360009054906101000a900473ffffffffffffffffffffffffffffffffffffffff16905081600360006101000a81548173ffffffffffffffffffffffffffffffffffffffff021916908373ffffffffffffffffffffffffffffffffffffffff1602179055508173ffffffffffffffffffffffffffffffffffffffff168173ffffffffffffffffffffffffffffffffffffffff167f8be0079c531659141344cd1fd0a4f28419497f9722a3daafe3b4186f6b6457e060405160405180910390a35050565b7f4e487b7100000000000000000000000000000000000000000000000000000000600052602160045260246000fd5b600080fd5b600073ffffffffffffffffffffffffffffffffffffffff82169050919050565b6000620002758262000248565b9050919050565b620002878162000268565b81146200029357600080fd5b50565b600081519050620002a7816200027c565b92915050565b60008060408385031215620002c757620002c662000243565b5b6000620002d78582860162000296565b9250506020620002ea8582860162000296565b9150509250929050565b600081519050919050565b7f4e487b7100000000000000000000000000000000000000000000000000000000600052604160045260246000fd5b7f4e487b7100000000000000000000000000000000000000000000000000000000600052602260045260246000fd5b600060028204905060018216806200037657607f821691505b6020821081036200038c576200038b6200032e565b5b50919050565b60008190508160005260206000209050919050565b60006020601f8301049050919050565b600082821b905092915050565b600060088302620003f67fffffffffffffffffffffffffffffffffffffffffffffffffffffffffffffffff82620003b7565b620004028683620003b7565b95508019841693508086168417925050509392505050565b6000819050919050565b6000819050919050565b60006200044f6200044962000443846200041a565b62000424565b6200041a565b9050919050565b6000819050919050565b6200046b836200042e565b620004836200047a8262000456565b848454620003c4565b825550505050565b600090565b6200049a6200048b565b620004a781848462000460565b505050565b5b81811015620004cf57620004c360008262000490565b600181019050620004ad565b5050565b601f8211156200051e57620004e88162000392565b620004f384620003a7565b8101602085101562000503578190505b6200051b6200051285620003a7565b830182620004ac565b50505b505050565b600082821c905092915050565b6000620005436000198460080262000523565b1980831691505092915050565b60006200055e838362000530565b9150826002028217905092915050565b6200057982620002f4565b67ffffffffffffffff811115620005955762000594620002ff565b5b620005a182546200035d565b620005ae828285620004d3565b600060209050601f831160018114620005e65760008415620005d1578287015190505b620005dd858262000550565b8655506200064d565b601f198416620005f68662000392565b60005b828110156200062057848901518255600182019150602085019450602081019050620005f9565b868310156200064057848901516200063c601f89168262000530565b8355505b6001600288020188555050505b505050505050565b6146be80620006656000396000f3fe6080604052600436106101345760003560e01c8063715018a6116100ab578063cf0cc75d1161006f578063cf0cc75d1461044a578063d258153514610473578063d38ea5bf1461049c578063e985e9c5146104b8578063f242432a146104f5578063f2fde38b1461051e57610134565b8063715018a6146103765780638b6518271461038d5780638da5cb5b146103b6578063a22cb465146103e1578063bfb231d21461040a57610134565b80632eb2c2d6116100fd5780632eb2c2d6146102565780633cc893801461027f5780634e1273f4146102aa578063696a50b4146102e75780636bbbcec8146103105780636c150b2c1461033957610134565b8062fdd58e1461013957806301ffc9a7146101765780630721c297146101b35780630e89341c146101dc57806313e8ee7e14610219575b600080fd5b34801561014557600080fd5b50610160600480360381019061015b919061282f565b610547565b60405161016d919061287e565b60405180910390f35b34801561018257600080fd5b5061019d600480360381019061019891906128f1565b61060f565b6040516101aa9190612939565b60405180910390f35b3480156101bf57600080fd5b506101da60048036038101906101d59190612979565b6106f1565b005b3480156101e857600080fd5b5061020360048036038101906101fe91906129a6565b610726565b6040516102109190612a63565b60405180910390f35b34801561022557600080fd5b50610240600480360381019061023b9190612a85565b6107ba565b60405161024d9190612939565b60405180910390f35b34801561026257600080fd5b5061027d60048036038101906102789190612caf565b610805565b005b34801561028b57600080fd5b506102946108a6565b6040516102a19190612df5565b60405180910390f35b3480156102b657600080fd5b506102d160048036038101906102cc9190612ed3565b6108b9565b6040516102de9190613009565b60405180910390f35b3480156102f357600080fd5b5061030e6004803603810190610309919061302b565b6109d2565b005b34801561031c57600080fd5b506103376004803603810190610332919061307e565b610a52565b005b34801561034557600080fd5b50610360600480360381019061035b9190613184565b610c0a565b60405161036d919061287e565b60405180910390f35b34801561038257600080fd5b5061038b610cec565b005b34801561039957600080fd5b506103b460048036038101906103af9190612a85565b610d00565b005b3480156103c257600080fd5b506103cb610fcf565b6040516103d8919061321e565b60405180910390f35b3480156103ed57600080fd5b5061040860048036038101906104039190613265565b610ff9565b005b34801561041657600080fd5b50610431600480360381019061042c91906129a6565b61100f565b60405161044194939291906132ed565b60405180910390f35b34801561045657600080fd5b50610471600480360381019061046c91906129a6565b61115c565b005b34801561047f57600080fd5b5061049a6004803603810190610495919061302b565b611225565b005b6104b660048036038101906104b191906129a6565b6112b4565b005b3480156104c457600080fd5b506104df60048036038101906104da9190613340565b61147c565b6040516104ec9190612939565b60405180910390f35b34801561050157600080fd5b5061051c60048036038101906105179190613380565b611510565b005b34801561052a57600080fd5b5061054560048036038101906105409190612a85565b6115b1565b005b60008073ffffffffffffffffffffffffffffffffffffffff168373ffffffffffffffffffffffffffffffffffffffff16036105b7576040517f08c379a00000000000000000000000000000000000000000000000000000000081526004016105ae90613489565b60405180910390fd5b60008083815260200190815260200160002060008473ffffffffffffffffffffffffffffffffffffffff1673ffffffffffffffffffffffffffffffffffffffff16815260200190815260200160002054905092915050565b60007fd9b67a26000000000000000000000000000000000000000000000000000000007bffffffffffffffffffffffffffffffffffffffffffffffffffffffff1916827bffffffffffffffffffffffffffffffffffffffffffffffffffffffff191614806106da57507f0e89341c000000000000000000000000000000000000000000000000000000007bffffffffffffffffffffffffffffffffffffffffffffffffffffffff1916827bffffffffffffffffffffffffffffffffffffffffffffffffffffffff1916145b806106ea57506106e982611634565b5b9050919050565b6106f961169e565b80600660146101000a81548160ff0219169083600281111561071e5761071d612d7e565b5b021790555050565b606060028054610735906134d8565b80601f0160208091040260200160405190810160405280929190818152602001828054610761906134d8565b80156107ae5780601f10610783576101008083540402835291602001916107ae565b820191906000526020600020905b81548152906001019060200180831161079157829003601f168201915b50505050509050919050565b600080600860008473ffffffffffffffffffffffffffffffffffffffff1673ffffffffffffffffffffffffffffffffffffffff16815260200190815260200160002054119050919050565b61080d61171c565b73ffffffffffffffffffffffffffffffffffffffff168573ffffffffffffffffffffffffffffffffffffffff16148061085357506108528561084d61171c565b61147c565b5b610892576040517f08c379a00000000000000000000000000000000000000000000000000000000081526004016108899061357b565b60405180910390fd5b61089f8585858585611724565b5050505050565b600660149054906101000a900460ff1681565b606081518351146108ff576040517f08c379a00000000000000000000000000000000000000000000000000000000081526004016108f69061360d565b60405180910390fd5b6000835167ffffffffffffffff81111561091c5761091b612ab7565b5b60405190808252806020026020018201604052801561094a5781602001602082028036833780820191505090505b50905060005b84518110156109c75761099785828151811061096f5761096e61362d565b5b602002602001015185838151811061098a5761098961362d565b5b6020026020010151610547565b8282815181106109aa576109a961362d565b5b602002602001018181525050806109c09061368b565b9050610950565b508091505092915050565b6109da61169e565b81600760008481526020019081526020016000206000015414610a32576040517f08c379a0000000000000000000000000000000000000000000000000000000008152600401610a299061371f565b60405180910390fd5b610a4d83838360405180602001604052806000815250611a45565b505050565b3373ffffffffffffffffffffffffffffffffffffffff16600660009054906101000a900473ffffffffffffffffffffffffffffffffffffffff1673ffffffffffffffffffffffffffffffffffffffff16636352211e846040518263ffffffff1660e01b8152600401610ac4919061287e565b602060405180830381865afa158015610ae1573d6000803e3d6000fd5b505050506040513d601f19601f82011682018060405250810190610b059190613754565b73ffffffffffffffffffffffffffffffffffffffff1614610b5b576040517f08c379a0000000000000000000000000000000000000000000000000000000008152600401610b52906137f3565b60405180910390fd5b600660009054906101000a900473ffffffffffffffffffffffffffffffffffffffff1673ffffffffffffffffffffffffffffffffffffffff16638a91a6c883306040518363ffffffff1660e01b8152600401610bb8929190613813565b600060405180830381600087803b158015610bd257600080fd5b505af1158015610be6573d6000803e3d6000fd5b50505050610c063382600160405180602001604052806000815250611a45565b5050565b6000610c1461169e565b610c1e6004611bf5565b6000610c2a6004611c0b565b905060006040518060800160405280838152602001876002811115610c5257610c51612d7e565b5b815260200186815260200185815250905080600760008481526020019081526020016000206000820151816000015560208201518160010160006101000a81548160ff02191690836002811115610cac57610cab612d7e565b5b02179055506040820151816002019081610cc691906139e8565b506060820151816003019081610cdc91906139e8565b5090505081925050509392505050565b610cf461169e565b610cfe6000611c19565b565b6000600860008373ffffffffffffffffffffffffffffffffffffffff1673ffffffffffffffffffffffffffffffffffffffff1681526020019081526020016000205411610d82576040517f08c379a0000000000000000000000000000000000000000000000000000000008152600401610d7990613b06565b60405180910390fd5b6001600860008373ffffffffffffffffffffffffffffffffffffffff1673ffffffffffffffffffffffffffffffffffffffff1681526020019081526020016000206000828254610dd29190613b26565b925050819055506000600660009054906101000a900473ffffffffffffffffffffffffffffffffffffffff1673ffffffffffffffffffffffffffffffffffffffff166370a08231836040518263ffffffff1660e01b8152600401610e36919061321e565b602060405180830381865afa158015610e53573d6000803e3d6000fd5b505050506040513d601f19601f82011682018060405250810190610e779190613b6f565b905060005b81811015610fca576000600660009054906101000a900473ffffffffffffffffffffffffffffffffffffffff1673ffffffffffffffffffffffffffffffffffffffff16632f745c5985846040518363ffffffff1660e01b8152600401610ee3929190613b9c565b602060405180830381865afa158015610f00573d6000803e3d6000fd5b505050506040513d601f19601f82011682018060405250810190610f249190613b6f565b9050600660009054906101000a900473ffffffffffffffffffffffffffffffffffffffff1673ffffffffffffffffffffffffffffffffffffffff1663618857ba82600a6040518363ffffffff1660e01b8152600401610f84929190613c00565b600060405180830381600087803b158015610f9e57600080fd5b505af1158015610fb2573d6000803e3d6000fd5b50505050508080610fc29061368b565b915050610e7c565b505050565b6000600360009054906101000a900473ffffffffffffffffffffffffffffffffffffffff16905090565b61100b61100461171c565b8383611cdf565b5050565b60076020528060005260406000206000915090508060000154908060010160009054906101000a900460ff169080600201805461104b906134d8565b80601f0160208091040260200160405190810160405280929190818152602001828054611077906134d8565b80156110c45780601f10611099576101008083540402835291602001916110c4565b820191906000526020600020905b8154815290600101906020018083116110a757829003601f168201915b5050505050908060030180546110d9906134d8565b80601f0160208091040260200160405190810160405280929190818152602001828054611105906134d8565b80156111525780601f1061112757610100808354040283529160200191611152565b820191906000526020600020905b81548152906001019060200180831161113557829003601f168201915b5050505050905084565b6000601e9050600560009054906101000a900473ffffffffffffffffffffffffffffffffffffffff1673ffffffffffffffffffffffffffffffffffffffff166323b872dd3330846040518463ffffffff1660e01b81526004016111c193929190613c29565b6020604051808303816000875af11580156111e0573d6000803e3d6000fd5b505050506040513d601f19601f820116820180604052508101906112049190613c75565b506112213383600160405180602001604052806000815250611a45565b5050565b8273ffffffffffffffffffffffffffffffffffffffff163373ffffffffffffffffffffffffffffffffffffffff1614806112655750611264833361147c565b5b6112a4576040517f08c379a000000000000000000000000000000000000000000000000000000000815260040161129b90613cee565b60405180910390fd5b6112af838383611e4b565b505050565b8060076000838152602001908152602001600020600001541461130c576040517f08c379a00000000000000000000000000000000000000000000000000000000081526004016113039061371f565b60405180910390fd5b600080600281111561132157611320612d7e565b5b6007600084815260200190815260200160002060010160009054906101000a900460ff16600281111561135757611356612d7e565b5b036113bf57670de0b6b3a764000090506001600860003373ffffffffffffffffffffffffffffffffffffffff1673ffffffffffffffffffffffffffffffffffffffff16815260200190815260200160002060008282546113b79190613d0e565b925050819055505b6001816113cc9190613d42565b34101561140e576040517f08c379a000000000000000000000000000000000000000000000000000000000815260040161140590613dd0565b60405180910390fd5b61142a3383600160405180602001604052806000815250611a45565b611432610fcf565b73ffffffffffffffffffffffffffffffffffffffff166108fc349081150290604051600060405180830381858888f19350505050158015611477573d6000803e3d6000fd5b505050565b6000600160008473ffffffffffffffffffffffffffffffffffffffff1673ffffffffffffffffffffffffffffffffffffffff16815260200190815260200160002060008373ffffffffffffffffffffffffffffffffffffffff1673ffffffffffffffffffffffffffffffffffffffff16815260200190815260200160002060009054906101000a900460ff16905092915050565b61151861171c565b73ffffffffffffffffffffffffffffffffffffffff168573ffffffffffffffffffffffffffffffffffffffff16148061155e575061155d8561155861171c565b61147c565b5b61159d576040517f08c379a00000000000000000000000000000000000000000000000000000000081526004016115949061357b565b60405180910390fd5b6115aa8585858585612091565b5050505050565b6115b961169e565b600073ffffffffffffffffffffffffffffffffffffffff168173ffffffffffffffffffffffffffffffffffffffff1603611628576040517f08c379a000000000000000000000000000000000000000000000000000000000815260040161161f90613e62565b60405180910390fd5b61163181611c19565b50565b60007f01ffc9a7000000000000000000000000000000000000000000000000000000007bffffffffffffffffffffffffffffffffffffffffffffffffffffffff1916827bffffffffffffffffffffffffffffffffffffffffffffffffffffffff1916149050919050565b6116a661171c565b73ffffffffffffffffffffffffffffffffffffffff166116c4610fcf565b73ffffffffffffffffffffffffffffffffffffffff161461171a576040517f08c379a000000000000000000000000000000000000000000000000000000000815260040161171190613ece565b60405180910390fd5b565b600033905090565b8151835114611768576040517f08c379a000000000000000000000000000000000000000000000000000000000815260040161175f90613f60565b60405180910390fd5b600073ffffffffffffffffffffffffffffffffffffffff168473ffffffffffffffffffffffffffffffffffffffff16036117d7576040517f08c379a00000000000000000000000000000000000000000000000000000000081526004016117ce90613ff2565b60405180910390fd5b60006117e161171c565b90506117f181878787878761232c565b60005b84518110156119a25760008582815181106118125761181161362d565b5b6020026020010151905060008583815181106118315761183061362d565b5b60200260200101519050600080600084815260200190815260200160002060008b73ffffffffffffffffffffffffffffffffffffffff1673ffffffffffffffffffffffffffffffffffffffff168152602001908152602001600020549050818110156118d2576040517f08c379a00000000000000000000000000000000000000000000000000000000081526004016118c990614084565b60405180910390fd5b81810360008085815260200190815260200160002060008c73ffffffffffffffffffffffffffffffffffffffff1673ffffffffffffffffffffffffffffffffffffffff168152602001908152602001600020819055508160008085815260200190815260200160002060008b73ffffffffffffffffffffffffffffffffffffffff1673ffffffffffffffffffffffffffffffffffffffff16815260200190815260200160002060008282546119879190613d0e565b925050819055505050508061199b9061368b565b90506117f4565b508473ffffffffffffffffffffffffffffffffffffffff168673ffffffffffffffffffffffffffffffffffffffff168273ffffffffffffffffffffffffffffffffffffffff167f4a39dc06d4c0dbc64b70af90fd698a233a518aa5d07e595d983b8c0526c8f7fb8787604051611a199291906140a4565b60405180910390a4611a2f818787878787612334565b611a3d81878787878761233c565b505050505050565b600073ffffffffffffffffffffffffffffffffffffffff168473ffffffffffffffffffffffffffffffffffffffff1603611ab4576040517f08c379a0000000000000000000000000000000000000000000000000000000008152600401611aab9061414d565b60405180910390fd5b6000611abe61171c565b90506000611acb85612513565b90506000611ad885612513565b9050611ae98360008985858961232c565b8460008088815260200190815260200160002060008973ffffffffffffffffffffffffffffffffffffffff1673ffffffffffffffffffffffffffffffffffffffff1681526020019081526020016000206000828254611b489190613d0e565b925050819055508673ffffffffffffffffffffffffffffffffffffffff16600073ffffffffffffffffffffffffffffffffffffffff168473ffffffffffffffffffffffffffffffffffffffff167fc3d58168c5ae7397731d063d5bbf3d657854427343f4c083240f7aacaa2d0f628989604051611bc692919061416d565b60405180910390a4611bdd83600089858589612334565b611bec8360008989898961258d565b50505050505050565b6001816000016000828254019250508190555050565b600081600001549050919050565b6000600360009054906101000a900473ffffffffffffffffffffffffffffffffffffffff16905081600360006101000a81548173ffffffffffffffffffffffffffffffffffffffff021916908373ffffffffffffffffffffffffffffffffffffffff1602179055508173ffffffffffffffffffffffffffffffffffffffff168173ffffffffffffffffffffffffffffffffffffffff167f8be0079c531659141344cd1fd0a4f28419497f9722a3daafe3b4186f6b6457e060405160405180910390a35050565b8173ffffffffffffffffffffffffffffffffffffffff168373ffffffffffffffffffffffffffffffffffffffff1603611d4d576040517f08c379a0000000000000000000000000000000000000000000000000000000008152600401611d4490614208565b60405180910390fd5b80600160008573ffffffffffffffffffffffffffffffffffffffff1673ffffffffffffffffffffffffffffffffffffffff16815260200190815260200160002060008473ffffffffffffffffffffffffffffffffffffffff1673ffffffffffffffffffffffffffffffffffffffff16815260200190815260200160002060006101000a81548160ff0219169083151502179055508173ffffffffffffffffffffffffffffffffffffffff168373ffffffffffffffffffffffffffffffffffffffff167f17307eab39ab6107e8899845ad3d59bd9653f200f220920489ca2b5937696c3183604051611e3e9190612939565b60405180910390a3505050565b600073ffffffffffffffffffffffffffffffffffffffff168373ffffffffffffffffffffffffffffffffffffffff1603611eba576040517f08c379a0000000000000000000000000000000000000000000000000000000008152600401611eb19061429a565b60405180910390fd5b6000611ec461171c565b90506000611ed184612513565b90506000611ede84612513565b9050611efe8387600085856040518060200160405280600081525061232c565b600080600087815260200190815260200160002060008873ffffffffffffffffffffffffffffffffffffffff1673ffffffffffffffffffffffffffffffffffffffff16815260200190815260200160002054905084811015611f95576040517f08c379a0000000000000000000000000000000000000000000000000000000008152600401611f8c9061432c565b60405180910390fd5b84810360008088815260200190815260200160002060008973ffffffffffffffffffffffffffffffffffffffff1673ffffffffffffffffffffffffffffffffffffffff16815260200190815260200160002081905550600073ffffffffffffffffffffffffffffffffffffffff168773ffffffffffffffffffffffffffffffffffffffff168573ffffffffffffffffffffffffffffffffffffffff167fc3d58168c5ae7397731d063d5bbf3d657854427343f4c083240f7aacaa2d0f62898960405161206292919061416d565b60405180910390a461208884886000868660405180602001604052806000815250612334565b50505050505050565b600073ffffffffffffffffffffffffffffffffffffffff168473ffffffffffffffffffffffffffffffffffffffff1603612100576040517f08c379a00000000000000000000000000000000000000000000000000000000081526004016120f790613ff2565b60405180910390fd5b600061210a61171c565b9050600061211785612513565b9050600061212485612513565b905061213483898985858961232c565b600080600088815260200190815260200160002060008a73ffffffffffffffffffffffffffffffffffffffff1673ffffffffffffffffffffffffffffffffffffffff168152602001908152602001600020549050858110156121cb576040517f08c379a00000000000000000000000000000000000000000000000000000000081526004016121c290614084565b60405180910390fd5b85810360008089815260200190815260200160002060008b73ffffffffffffffffffffffffffffffffffffffff1673ffffffffffffffffffffffffffffffffffffffff168152602001908152602001600020819055508560008089815260200190815260200160002060008a73ffffffffffffffffffffffffffffffffffffffff1673ffffffffffffffffffffffffffffffffffffffff16815260200190815260200160002060008282546122809190613d0e565b925050819055508773ffffffffffffffffffffffffffffffffffffffff168973ffffffffffffffffffffffffffffffffffffffff168573ffffffffffffffffffffffffffffffffffffffff167fc3d58168c5ae7397731d063d5bbf3d657854427343f4c083240f7aacaa2d0f628a8a6040516122fd92919061416d565b60405180910390a4612313848a8a86868a612334565b612321848a8a8a8a8a61258d565b505050505050505050565b505050505050565b505050505050565b61235b8473ffffffffffffffffffffffffffffffffffffffff16612764565b1561250b578373ffffffffffffffffffffffffffffffffffffffff1663bc197c8187878686866040518663ffffffff1660e01b81526004016123a19594939291906143a1565b6020604051808303816000875af19250505080156123dd57506040513d601f19601f820116820180604052508101906123da919061441e565b60015b612482576123e9614458565b806308c379a00361244557506123fd61447a565b806124085750612447565b806040517f08c379a000000000000000000000000000000000000000000000000000000000815260040161243c9190612a63565b60405180910390fd5b505b6040517f08c379a00000000000000000000000000000000000000000000000000000000081526004016124799061457c565b60405180910390fd5b63bc197c8160e01b7bffffffffffffffffffffffffffffffffffffffffffffffffffffffff1916817bffffffffffffffffffffffffffffffffffffffffffffffffffffffff191614612509576040517f08c379a00000000000000000000000000000000000000000000000000000000081526004016125009061460e565b60405180910390fd5b505b505050505050565b60606000600167ffffffffffffffff81111561253257612531612ab7565b5b6040519080825280602002602001820160405280156125605781602001602082028036833780820191505090505b50905082816000815181106125785761257761362d565b5b60200260200101818152505080915050919050565b6125ac8473ffffffffffffffffffffffffffffffffffffffff16612764565b1561275c578373ffffffffffffffffffffffffffffffffffffffff1663f23a6e6187878686866040518663ffffffff1660e01b81526004016125f295949392919061462e565b6020604051808303816000875af192505050801561262e57506040513d601f19601f8201168201806040525081019061262b919061441e565b60015b6126d35761263a614458565b806308c379a003612696575061264e61447a565b806126595750612698565b806040517f08c379a000000000000000000000000000000000000000000000000000000000815260040161268d9190612a63565b60405180910390fd5b505b6040517f08c379a00000000000000000000000000000000000000000000000000000000081526004016126ca9061457c565b60405180910390fd5b63f23a6e6160e01b7bffffffffffffffffffffffffffffffffffffffffffffffffffffffff1916817bffffffffffffffffffffffffffffffffffffffffffffffffffffffff19161461275a576040517f08c379a00000000000000000000000000000000000000000000000000000000081526004016127519061460e565b60405180910390fd5b505b505050505050565b6000808273ffffffffffffffffffffffffffffffffffffffff163b119050919050565b6000604051905090565b600080fd5b600080fd5b600073ffffffffffffffffffffffffffffffffffffffff82169050919050565b60006127c68261279b565b9050919050565b6127d6816127bb565b81146127e157600080fd5b50565b6000813590506127f3816127cd565b92915050565b6000819050919050565b61280c816127f9565b811461281757600080fd5b50565b60008135905061282981612803565b92915050565b6000806040838503121561284657612845612791565b5b6000612854858286016127e4565b92505060206128658582860161281a565b9150509250929050565b612878816127f9565b82525050565b6000602082019050612893600083018461286f565b92915050565b60007fffffffff0000000000000000000000000000000000000000000000000000000082169050919050565b6128ce81612899565b81146128d957600080fd5b50565b6000813590506128eb816128c5565b92915050565b60006020828403121561290757612906612791565b5b6000612915848285016128dc565b91505092915050565b60008115159050919050565b6129338161291e565b82525050565b600060208201905061294e600083018461292a565b92915050565b6003811061296157600080fd5b50565b60008135905061297381612954565b92915050565b60006020828403121561298f5761298e612791565b5b600061299d84828501612964565b91505092915050565b6000602082840312156129bc576129bb612791565b5b60006129ca8482850161281a565b91505092915050565b600081519050919050565b600082825260208201905092915050565b60005b83811015612a0d5780820151818401526020810190506129f2565b60008484015250505050565b6000601f19601f8301169050919050565b6000612a35826129d3565b612a3f81856129de565b9350612a4f8185602086016129ef565b612a5881612a19565b840191505092915050565b60006020820190508181036000830152612a7d8184612a2a565b905092915050565b600060208284031215612a9b57612a9a612791565b5b6000612aa9848285016127e4565b91505092915050565b600080fd5b7f4e487b7100000000000000000000000000000000000000000000000000000000600052604160045260246000fd5b612aef82612a19565b810181811067ffffffffffffffff82111715612b0e57612b0d612ab7565b5b80604052505050565b6000612b21612787565b9050612b2d8282612ae6565b919050565b600067ffffffffffffffff821115612b4d57612b4c612ab7565b5b602082029050602081019050919050565b600080fd5b6000612b76612b7184612b32565b612b17565b90508083825260208201905060208402830185811115612b9957612b98612b5e565b5b835b81811015612bc25780612bae888261281a565b845260208401935050602081019050612b9b565b5050509392505050565b600082601f830112612be157612be0612ab2565b5b8135612bf1848260208601612b63565b91505092915050565b600080fd5b600067ffffffffffffffff821115612c1a57612c19612ab7565b5b612c2382612a19565b9050602081019050919050565b82818337600083830152505050565b6000612c52612c4d84612bff565b612b17565b905082815260208101848484011115612c6e57612c6d612bfa565b5b612c79848285612c30565b509392505050565b600082601f830112612c9657612c95612ab2565b5b8135612ca6848260208601612c3f565b91505092915050565b600080600080600060a08688031215612ccb57612cca612791565b5b6000612cd9888289016127e4565b9550506020612cea888289016127e4565b945050604086013567ffffffffffffffff811115612d0b57612d0a612796565b5b612d1788828901612bcc565b935050606086013567ffffffffffffffff811115612d3857612d37612796565b5b612d4488828901612bcc565b925050608086013567ffffffffffffffff811115612d6557612d64612796565b5b612d7188828901612c81565b9150509295509295909350565b7f4e487b7100000000000000000000000000000000000000000000000000000000600052602160045260246000fd5b60038110612dbe57612dbd612d7e565b5b50565b6000819050612dcf82612dad565b919050565b6000612ddf82612dc1565b9050919050565b612def81612dd4565b82525050565b6000602082019050612e0a6000830184612de6565b92915050565b600067ffffffffffffffff821115612e2b57612e2a612ab7565b5b602082029050602081019050919050565b6000612e4f612e4a84612e10565b612b17565b90508083825260208201905060208402830185811115612e7257612e71612b5e565b5b835b81811015612e9b5780612e8788826127e4565b845260208401935050602081019050612e74565b5050509392505050565b600082601f830112612eba57612eb9612ab2565b5b8135612eca848260208601612e3c565b91505092915050565b60008060408385031215612eea57612ee9612791565b5b600083013567ffffffffffffffff811115612f0857612f07612796565b5b612f1485828601612ea5565b925050602083013567ffffffffffffffff811115612f3557612f34612796565b5b612f4185828601612bcc565b9150509250929050565b600081519050919050565b600082825260208201905092915050565b6000819050602082019050919050565b612f80816127f9565b82525050565b6000612f928383612f77565b60208301905092915050565b6000602082019050919050565b6000612fb682612f4b565b612fc08185612f56565b9350612fcb83612f67565b8060005b83811015612ffc578151612fe38882612f86565b9750612fee83612f9e565b925050600181019050612fcf565b5085935050505092915050565b600060208201905081810360008301526130238184612fab565b905092915050565b60008060006060848603121561304457613043612791565b5b6000613052868287016127e4565b93505060206130638682870161281a565b92505060406130748682870161281a565b9150509250925092565b6000806040838503121561309557613094612791565b5b60006130a38582860161281a565b92505060206130b48582860161281a565b9150509250929050565b600381106130cb57600080fd5b50565b6000813590506130dd816130be565b92915050565b600067ffffffffffffffff8211156130fe576130fd612ab7565b5b61310782612a19565b9050602081019050919050565b6000613127613122846130e3565b612b17565b90508281526020810184848401111561314357613142612bfa565b5b61314e848285612c30565b509392505050565b600082601f83011261316b5761316a612ab2565b5b813561317b848260208601613114565b91505092915050565b60008060006060848603121561319d5761319c612791565b5b60006131ab868287016130ce565b935050602084013567ffffffffffffffff8111156131cc576131cb612796565b5b6131d886828701613156565b925050604084013567ffffffffffffffff8111156131f9576131f8612796565b5b61320586828701613156565b9150509250925092565b613218816127bb565b82525050565b6000602082019050613233600083018461320f565b92915050565b6132428161291e565b811461324d57600080fd5b50565b60008135905061325f81613239565b92915050565b6000806040838503121561327c5761327b612791565b5b600061328a858286016127e4565b925050602061329b85828601613250565b9150509250929050565b600381106132b6576132b5612d7e565b5b50565b60008190506132c7826132a5565b919050565b60006132d7826132b9565b9050919050565b6132e7816132cc565b82525050565b6000608082019050613302600083018761286f565b61330f60208301866132de565b81810360408301526133218185612a2a565b905081810360608301526133358184612a2a565b905095945050505050565b6000806040838503121561335757613356612791565b5b6000613365858286016127e4565b9250506020613376858286016127e4565b9150509250929050565b600080600080600060a0868803121561339c5761339b612791565b5b60006133aa888289016127e4565b95505060206133bb888289016127e4565b94505060406133cc8882890161281a565b93505060606133dd8882890161281a565b925050608086013567ffffffffffffffff8111156133fe576133fd612796565b5b61340a88828901612c81565b9150509295509295909350565b7f455243313135353a2061646472657373207a65726f206973206e6f742061207660008201527f616c6964206f776e657200000000000000000000000000000000000000000000602082015250565b6000613473602a836129de565b915061347e82613417565b604082019050919050565b600060208201905081810360008301526134a281613466565b9050919050565b7f4e487b7100000000000000000000000000000000000000000000000000000000600052602260045260246000fd5b600060028204905060018216806134f057607f821691505b602082108103613503576135026134a9565b5b50919050565b7f455243313135353a2063616c6c6572206973206e6f7420746f6b656e206f776e60008201527f6572206f7220617070726f766564000000000000000000000000000000000000602082015250565b6000613565602e836129de565b915061357082613509565b604082019050919050565b6000602082019050818103600083015261359481613558565b9050919050565b7f455243313135353a206163636f756e747320616e6420696473206c656e67746860008201527f206d69736d617463680000000000000000000000000000000000000000000000602082015250565b60006135f76029836129de565b91506136028261359b565b604082019050919050565b60006020820190508181036000830152613626816135ea565b9050919050565b7f4e487b7100000000000000000000000000000000000000000000000000000000600052603260045260246000fd5b7f4e487b7100000000000000000000000000000000000000000000000000000000600052601160045260246000fd5b6000613696826127f9565b91507fffffffffffffffffffffffffffffffffffffffffffffffffffffffffffffffff82036136c8576136c761365c565b5b600182019050919050565b7f4974656d20646f6573206e6f742065786973742e000000000000000000000000600082015250565b60006137096014836129de565b9150613714826136d3565b602082019050919050565b60006020820190508181036000830152613738816136fc565b9050919050565b60008151905061374e816127cd565b92915050565b60006020828403121561376a57613769612791565b5b60006137788482850161373f565b91505092915050565b7f4e6f7420746865206f776e6572206f662074686520756e69717565206361726460008201527f2e00000000000000000000000000000000000000000000000000000000000000602082015250565b60006137dd6021836129de565b91506137e882613781565b604082019050919050565b6000602082019050818103600083015261380c816137d0565b9050919050565b6000604082019050613828600083018561286f565b613835602083018461320f565b9392505050565b60008190508160005260206000209050919050565b60006020601f8301049050919050565b600082821b905092915050565b60006008830261389e7fffffffffffffffffffffffffffffffffffffffffffffffffffffffffffffffff82613861565b6138a88683613861565b95508019841693508086168417925050509392505050565b6000819050919050565b60006138e56138e06138db846127f9565b6138c0565b6127f9565b9050919050565b6000819050919050565b6138ff836138ca565b61391361390b826138ec565b84845461386e565b825550505050565b600090565b61392861391b565b6139338184846138f6565b505050565b5b818110156139575761394c600082613920565b600181019050613939565b5050565b601f82111561399c5761396d8161383c565b61397684613851565b81016020851015613985578190505b61399961399185613851565b830182613938565b50505b505050565b600082821c905092915050565b60006139bf600019846008026139a1565b1980831691505092915050565b60006139d883836139ae565b9150826002028217905092915050565b6139f1826129d3565b67ffffffffffffffff811115613a0a57613a09612ab7565b5b613a1482546134d8565b613a1f82828561395b565b600060209050601f831160018114613a525760008415613a40578287015190505b613a4a85826139cc565b865550613ab2565b601f198416613a608661383c565b60005b82811015613a8857848901518255600182019150602085019450602081019050613a63565b86831015613aa55784890151613aa1601f8916826139ae565b8355505b6001600288020188555050505b505050505050565b7f4e6f20706f7765722d75707320617661696c61626c6500000000000000000000600082015250565b6000613af06016836129de565b9150613afb82613aba565b602082019050919050565b60006020820190508181036000830152613b1f81613ae3565b9050919050565b6000613b31826127f9565b9150613b3c836127f9565b9250828203905081811115613b5457613b5361365c565b5b92915050565b600081519050613b6981612803565b92915050565b600060208284031215613b8557613b84612791565b5b6000613b9384828501613b5a565b91505092915050565b6000604082019050613bb1600083018561320f565b613bbe602083018461286f565b9392505050565b6000819050919050565b6000613bea613be5613be084613bc5565b6138c0565b6127f9565b9050919050565b613bfa81613bcf565b82525050565b6000604082019050613c15600083018561286f565b613c226020830184613bf1565b9392505050565b6000606082019050613c3e600083018661320f565b613c4b602083018561320f565b613c58604083018461286f565b949350505050565b600081519050613c6f81613239565b92915050565b600060208284031215613c8b57613c8a612791565b5b6000613c9984828501613c60565b91505092915050565b7f4e6f7420617574686f72697a65642e0000000000000000000000000000000000600082015250565b6000613cd8600f836129de565b9150613ce382613ca2565b602082019050919050565b60006020820190508181036000830152613d0781613ccb565b9050919050565b6000613d19826127f9565b9150613d24836127f9565b9250828201905080821115613d3c57613d3b61365c565b5b92915050565b6000613d4d826127f9565b9150613d58836127f9565b9250828202613d66816127f9565b91508282048414831517613d7d57613d7c61365c565b5b5092915050565b7f496e73756666696369656e74204554482073656e742e00000000000000000000600082015250565b6000613dba6016836129de565b9150613dc582613d84565b602082019050919050565b60006020820190508181036000830152613de981613dad565b9050919050565b7f4f776e61626c653a206e6577206f776e657220697320746865207a65726f206160008201527f6464726573730000000000000000000000000000000000000000000000000000602082015250565b6000613e4c6026836129de565b9150613e5782613df0565b604082019050919050565b60006020820190508181036000830152613e7b81613e3f565b9050919050565b7f4f776e61626c653a2063616c6c6572206973206e6f7420746865206f776e6572600082015250565b6000613eb86020836129de565b9150613ec382613e82565b602082019050919050565b60006020820190508181036000830152613ee781613eab565b9050919050565b7f455243313135353a2069647320616e6420616d6f756e7473206c656e6774682060008201527f6d69736d61746368000000000000000000000000000000000000000000000000602082015250565b6000613f4a6028836129de565b9150613f5582613eee565b604082019050919050565b60006020820190508181036000830152613f7981613f3d565b9050919050565b7f455243313135353a207472616e7366657220746f20746865207a65726f20616460008201527f6472657373000000000000000000000000000000000000000000000000000000602082015250565b6000613fdc6025836129de565b9150613fe782613f80565b604082019050919050565b6000602082019050818103600083015261400b81613fcf565b9050919050565b7f455243313135353a20696e73756666696369656e742062616c616e636520666f60008201527f72207472616e7366657200000000000000000000000000000000000000000000602082015250565b600061406e602a836129de565b915061407982614012565b604082019050919050565b6000602082019050818103600083015261409d81614061565b9050919050565b600060408201905081810360008301526140be8185612fab565b905081810360208301526140d28184612fab565b90509392505050565b7f455243313135353a206d696e7420746f20746865207a65726f2061646472657360008201527f7300000000000000000000000000000000000000000000000000000000000000602082015250565b60006141376021836129de565b9150614142826140db565b604082019050919050565b600060208201905081810360008301526141668161412a565b9050919050565b6000604082019050614182600083018561286f565b61418f602083018461286f565b9392505050565b7f455243313135353a2073657474696e6720617070726f76616c2073746174757360008201527f20666f722073656c660000000000000000000000000000000000000000000000602082015250565b60006141f26029836129de565b91506141fd82614196565b604082019050919050565b60006020820190508181036000830152614221816141e5565b9050919050565b7f455243313135353a206275726e2066726f6d20746865207a65726f206164647260008201527f6573730000000000000000000000000000000000000000000000000000000000602082015250565b60006142846023836129de565b915061428f82614228565b604082019050919050565b600060208201905081810360008301526142b381614277565b9050919050565b7f455243313135353a206275726e20616d6f756e7420657863656564732062616c60008201527f616e636500000000000000000000000000000000000000000000000000000000602082015250565b60006143166024836129de565b9150614321826142ba565b604082019050919050565b6000602082019050818103600083015261434581614309565b9050919050565b600081519050919050565b600082825260208201905092915050565b60006143738261434c565b61437d8185614357565b935061438d8185602086016129ef565b61439681612a19565b840191505092915050565b600060a0820190506143b6600083018861320f565b6143c3602083018761320f565b81810360408301526143d58186612fab565b905081810360608301526143e98185612fab565b905081810360808301526143fd8184614368565b90509695505050505050565b600081519050614418816128c5565b92915050565b60006020828403121561443457614433612791565b5b600061444284828501614409565b91505092915050565b60008160e01c9050919050565b600060033d11156144775760046000803e61447460005161444b565b90505b90565b600060443d106145075761448c612787565b60043d036004823e80513d602482011167ffffffffffffffff821117156144b4575050614507565b808201805167ffffffffffffffff8111156144d25750505050614507565b80602083010160043d0385018111156144ef575050505050614507565b6144fe82602001850186612ae6565b82955050505050505b90565b7f455243313135353a207472616e7366657220746f206e6f6e2d4552433131353560008201527f526563656976657220696d706c656d656e746572000000000000000000000000602082015250565b60006145666034836129de565b91506145718261450a565b604082019050919050565b6000602082019050818103600083015261459581614559565b9050919050565b7f455243313135353a204552433131353552656365697665722072656a6563746560008201527f6420746f6b656e73000000000000000000000000000000000000000000000000602082015250565b60006145f86028836129de565b91506146038261459c565b604082019050919050565b60006020820190508181036000830152614627816145eb565b9050919050565b600060a082019050614643600083018861320f565b614650602083018761320f565b61465d604083018661286f565b61466a606083018561286f565b818103608083015261467c8184614368565b9050969550505050505056fea26469706673582212205f7391c744ca63e570166e049633468abf7c2ab9090d164e47298cd3ccd02ea064736f6c63430008130033",
  "immutableReferences": {},
  "source": "// SPDX-License-Identifier: MIT\npragma solidity ^0.8.19;\n\nimport \"@openzeppelin/contracts/token/ERC1155/ERC1155.sol\";\nimport \"@openzeppelin/contracts/utils/Counters.sol\";\nimport \"@openzeppelin/contracts/access/Ownable.sol\";\nimport \"./ERC20SmartContract.sol\"; // Importing the local ERC20 contract.\nimport \"./ERC721SmartContract.sol\"; // Importing the local ERC721 contract.\n\ncontract GameItems is ERC1155, Ownable {\n    using Counters for Counters.Counter;\n\n    Counters.Counter private _itemIds;\n\n    // Addresses of the deployed ERC20 and ERC721 contracts\n    GoldCoin private erc20Token;\n    UniqueCards private erc721Token;\n\n    enum Phase {\n        Register,\n        Play,\n        Done\n    }\n\n    Phase public currPhase = Phase.Register;\n    //modifiers\n    modifier validPhase(Phase reqPhase) {\n        require(currPhase == reqPhase);\n        _;\n    }\n\n    function changePhase(Phase x) public onlyOwner() {\n        // require(x > currPhase);\n        currPhase = x;\n    }\n\n    enum ItemType {\n        PowerUp,\n        Mod,\n        UniqueAttribute\n    }\n\n    struct Item {\n        uint256 id;\n        ItemType itemType;\n        string name;\n        string description;\n    }\n\n    mapping(uint256 => Item) public items;\n    mapping(address => uint256) private playerPowerUps;\n\n    constructor(\n        address _erc20Address,\n        address _erc721Address\n    ) ERC1155(\"\") Ownable() {\n        erc20Token = GoldCoin(_erc20Address);\n        erc721Token = UniqueCards(_erc721Address);\n    }\n\n    function createItem(\n        ItemType itemType,\n        string memory name,\n        string memory description\n    ) external onlyOwner returns (uint256) {\n        _itemIds.increment();\n        uint256 newItemId = _itemIds.current();\n\n        Item memory newItem = Item({\n            id: newItemId,\n            itemType: itemType,\n            name: name,\n            description: description\n        });\n\n        items[newItemId] = newItem;\n\n        return newItemId;\n    }\n\n    function mintItem(\n        address to,\n        uint256 itemId,\n        uint256 amount\n    ) external onlyOwner {\n        require(items[itemId].id == itemId, \"Item does not exist.\");\n        _mint(to, itemId, amount, \"\");\n    }\n\n    function burnItem(address owner, uint256 itemId, uint256 amount) external {\n        require(\n            msg.sender == owner || isApprovedForAll(owner, msg.sender),\n            \"Not authorized.\"\n        );\n        _burn(owner, itemId, amount);\n    }\n\n    function purchaseItem(uint256 itemId) external payable {\n        require(items[itemId].id == itemId, \"Item does not exist.\");\n\n        uint256 price;\n\n        if (items[itemId].itemType == ItemType.PowerUp) {\n            price = 1 * 1e18; // Setting the price for power-ups\n            playerPowerUps[msg.sender] += 1; // Tracking power-up purchases\n        }\n\n        require(msg.value >= price * 1, \"Insufficient ETH sent.\");\n        _mint(msg.sender, itemId, 1, \"\");\n        payable(owner()).transfer(msg.value);\n    }\n\n    function purchaseWithGoldCoin(uint256 itemId) external {\n        uint256 price = 30; // Assuming a fixed price for all items when purchased with GoldCoin\n        erc20Token.transferFrom(msg.sender, address(this), price);\n        _mint(msg.sender, itemId, 1, \"\");\n    }\n\n    function tradeUniqueCardForItem(uint256 cardId, uint256 itemId) external {\n        require(\n            erc721Token.ownerOf(cardId) == msg.sender,\n            \"Not the owner of the unique card.\"\n        );\n        erc721Token.tradeCard(cardId, address(this));\n        _mint(msg.sender, itemId, 1, \"\");\n    }\n\n    // Modified function for players to use a power-up\n    function usePowerUp(address player) external {\n        require(playerPowerUps[player] > 0, \"No power-ups available\");\n        playerPowerUps[player] -= 1; // Decrement the power-up count\n\n        // Increase attributes for each card the player owns\n        uint256 cardCount = erc721Token.balanceOf(player);\n        for (uint256 i = 0; i < cardCount; i++) {\n            uint256 cardId = erc721Token.tokenOfOwnerByIndex(player, i);\n            erc721Token.increaseCardAttributes(cardId, 10); // 10% increase\n        }\n    }\n\n    function hasPowerUp(address player) external view returns (bool) {\n        return playerPowerUps[player] > 0;\n    }\n}\n",
  "sourcePath": "/Users/ibrahimallahbuksh/BlockchainProject/contracts/ERC1155SmartContract.sol",
  "compiler": {
    "name": "solc",
    "version": "0.8.19+commit.7dd6d404.Emscripten.clang"
  },
  "schemaVersion": "3.4.16",
  "updatedAt": "2023-11-19T04:53:50.749Z",
  "devdoc": {
    "events": {
      "ApprovalForAll(address,address,bool)": {
        "details": "Emitted when `account` grants or revokes permission to `operator` to transfer their tokens, according to `approved`."
      },
      "TransferBatch(address,address,address,uint256[],uint256[])": {
        "details": "Equivalent to multiple {TransferSingle} events, where `operator`, `from` and `to` are the same for all transfers."
      },
      "TransferSingle(address,address,address,uint256,uint256)": {
        "details": "Emitted when `value` tokens of token type `id` are transferred from `from` to `to` by `operator`."
      },
      "URI(string,uint256)": {
        "details": "Emitted when the URI for token type `id` changes to `value`, if it is a non-programmatic URI. If an {URI} event was emitted for `id`, the standard https://eips.ethereum.org/EIPS/eip-1155#metadata-extensions[guarantees] that `value` will equal the value returned by {IERC1155MetadataURI-uri}."
      }
    },
    "kind": "dev",
    "methods": {
      "balanceOf(address,uint256)": {
        "details": "See {IERC1155-balanceOf}. Requirements: - `account` cannot be the zero address."
      },
      "balanceOfBatch(address[],uint256[])": {
        "details": "See {IERC1155-balanceOfBatch}. Requirements: - `accounts` and `ids` must have the same length."
      },
      "isApprovedForAll(address,address)": {
        "details": "See {IERC1155-isApprovedForAll}."
      },
      "owner()": {
        "details": "Returns the address of the current owner."
      },
      "renounceOwnership()": {
        "details": "Leaves the contract without owner. It will not be possible to call `onlyOwner` functions. Can only be called by the current owner. NOTE: Renouncing ownership will leave the contract without an owner, thereby disabling any functionality that is only available to the owner."
      },
      "safeBatchTransferFrom(address,address,uint256[],uint256[],bytes)": {
        "details": "See {IERC1155-safeBatchTransferFrom}."
      },
      "safeTransferFrom(address,address,uint256,uint256,bytes)": {
        "details": "See {IERC1155-safeTransferFrom}."
      },
      "setApprovalForAll(address,bool)": {
        "details": "See {IERC1155-setApprovalForAll}."
      },
      "supportsInterface(bytes4)": {
        "details": "See {IERC165-supportsInterface}."
      },
      "transferOwnership(address)": {
        "details": "Transfers ownership of the contract to a new account (`newOwner`). Can only be called by the current owner."
      },
      "uri(uint256)": {
        "details": "See {IERC1155MetadataURI-uri}. This implementation returns the same URI for *all* token types. It relies on the token type ID substitution mechanism https://eips.ethereum.org/EIPS/eip-1155#metadata[defined in the EIP]. Clients calling this function must replace the `\\{id\\}` substring with the actual token type ID."
      }
    },
    "version": 1
  },
  "userdoc": {
    "kind": "user",
    "methods": {},
    "version": 1
  }
}