{
  "contractName": "GameItems",
  "abi": [
    {
      "inputs": [
        {
          "internalType": "address",
          "name": "_erc20Address",
          "type": "address"
        },
        {
          "internalType": "address",
          "name": "_erc721Address",
          "type": "address"
        }
      ],
      "stateMutability": "nonpayable",
      "type": "constructor"
    },
    {
      "anonymous": false,
      "inputs": [
        {
          "indexed": true,
          "internalType": "address",
          "name": "account",
          "type": "address"
        },
        {
          "indexed": true,
          "internalType": "address",
          "name": "operator",
          "type": "address"
        },
        {
          "indexed": false,
          "internalType": "bool",
          "name": "approved",
          "type": "bool"
        }
      ],
      "name": "ApprovalForAll",
      "type": "event"
    },
    {
      "anonymous": false,
      "inputs": [
        {
          "indexed": true,
          "internalType": "address",
          "name": "previousOwner",
          "type": "address"
        },
        {
          "indexed": true,
          "internalType": "address",
          "name": "newOwner",
          "type": "address"
        }
      ],
      "name": "OwnershipTransferred",
      "type": "event"
    },
    {
      "anonymous": false,
      "inputs": [
        {
          "indexed": true,
          "internalType": "address",
          "name": "operator",
          "type": "address"
        },
        {
          "indexed": true,
          "internalType": "address",
          "name": "from",
          "type": "address"
        },
        {
          "indexed": true,
          "internalType": "address",
          "name": "to",
          "type": "address"
        },
        {
          "indexed": false,
          "internalType": "uint256[]",
          "name": "ids",
          "type": "uint256[]"
        },
        {
          "indexed": false,
          "internalType": "uint256[]",
          "name": "values",
          "type": "uint256[]"
        }
      ],
      "name": "TransferBatch",
      "type": "event"
    },
    {
      "anonymous": false,
      "inputs": [
        {
          "indexed": true,
          "internalType": "address",
          "name": "operator",
          "type": "address"
        },
        {
          "indexed": true,
          "internalType": "address",
          "name": "from",
          "type": "address"
        },
        {
          "indexed": true,
          "internalType": "address",
          "name": "to",
          "type": "address"
        },
        {
          "indexed": false,
          "internalType": "uint256",
          "name": "id",
          "type": "uint256"
        },
        {
          "indexed": false,
          "internalType": "uint256",
          "name": "value",
          "type": "uint256"
        }
      ],
      "name": "TransferSingle",
      "type": "event"
    },
    {
      "anonymous": false,
      "inputs": [
        {
          "indexed": false,
          "internalType": "string",
          "name": "value",
          "type": "string"
        },
        {
          "indexed": true,
          "internalType": "uint256",
          "name": "id",
          "type": "uint256"
        }
      ],
      "name": "URI",
      "type": "event"
    },
    {
      "inputs": [
        {
          "internalType": "address",
          "name": "account",
          "type": "address"
        },
        {
          "internalType": "uint256",
          "name": "id",
          "type": "uint256"
        }
      ],
      "name": "balanceOf",
      "outputs": [
        {
          "internalType": "uint256",
          "name": "",
          "type": "uint256"
        }
      ],
      "stateMutability": "view",
      "type": "function",
      "constant": true
    },
    {
      "inputs": [
        {
          "internalType": "address[]",
          "name": "accounts",
          "type": "address[]"
        },
        {
          "internalType": "uint256[]",
          "name": "ids",
          "type": "uint256[]"
        }
      ],
      "name": "balanceOfBatch",
      "outputs": [
        {
          "internalType": "uint256[]",
          "name": "",
          "type": "uint256[]"
        }
      ],
      "stateMutability": "view",
      "type": "function",
      "constant": true
    },
    {
      "inputs": [
        {
          "internalType": "address",
          "name": "account",
          "type": "address"
        },
        {
          "internalType": "address",
          "name": "operator",
          "type": "address"
        }
      ],
      "name": "isApprovedForAll",
      "outputs": [
        {
          "internalType": "bool",
          "name": "",
          "type": "bool"
        }
      ],
      "stateMutability": "view",
      "type": "function",
      "constant": true
    },
    {
      "inputs": [
        {
          "internalType": "uint256",
          "name": "",
          "type": "uint256"
        }
      ],
      "name": "items",
      "outputs": [
        {
          "internalType": "uint256",
          "name": "id",
          "type": "uint256"
        },
        {
          "internalType": "enum GameItems.ItemType",
          "name": "itemType",
          "type": "uint8"
        },
        {
          "internalType": "string",
          "name": "name",
          "type": "string"
        },
        {
          "internalType": "string",
          "name": "description",
          "type": "string"
        }
      ],
      "stateMutability": "view",
      "type": "function",
      "constant": true
    },
    {
      "inputs": [],
      "name": "owner",
      "outputs": [
        {
          "internalType": "address",
          "name": "",
          "type": "address"
        }
      ],
      "stateMutability": "view",
      "type": "function",
      "constant": true
    },
    {
      "inputs": [],
      "name": "renounceOwnership",
      "outputs": [],
      "stateMutability": "nonpayable",
      "type": "function"
    },
    {
      "inputs": [
        {
          "internalType": "address",
          "name": "from",
          "type": "address"
        },
        {
          "internalType": "address",
          "name": "to",
          "type": "address"
        },
        {
          "internalType": "uint256[]",
          "name": "ids",
          "type": "uint256[]"
        },
        {
          "internalType": "uint256[]",
          "name": "amounts",
          "type": "uint256[]"
        },
        {
          "internalType": "bytes",
          "name": "data",
          "type": "bytes"
        }
      ],
      "name": "safeBatchTransferFrom",
      "outputs": [],
      "stateMutability": "nonpayable",
      "type": "function"
    },
    {
      "inputs": [
        {
          "internalType": "address",
          "name": "from",
          "type": "address"
        },
        {
          "internalType": "address",
          "name": "to",
          "type": "address"
        },
        {
          "internalType": "uint256",
          "name": "id",
          "type": "uint256"
        },
        {
          "internalType": "uint256",
          "name": "amount",
          "type": "uint256"
        },
        {
          "internalType": "bytes",
          "name": "data",
          "type": "bytes"
        }
      ],
      "name": "safeTransferFrom",
      "outputs": [],
      "stateMutability": "nonpayable",
      "type": "function"
    },
    {
      "inputs": [
        {
          "internalType": "address",
          "name": "operator",
          "type": "address"
        },
        {
          "internalType": "bool",
          "name": "approved",
          "type": "bool"
        }
      ],
      "name": "setApprovalForAll",
      "outputs": [],
      "stateMutability": "nonpayable",
      "type": "function"
    },
    {
      "inputs": [
        {
          "internalType": "bytes4",
          "name": "interfaceId",
          "type": "bytes4"
        }
      ],
      "name": "supportsInterface",
      "outputs": [
        {
          "internalType": "bool",
          "name": "",
          "type": "bool"
        }
      ],
      "stateMutability": "view",
      "type": "function",
      "constant": true
    },
    {
      "inputs": [
        {
          "internalType": "address",
          "name": "newOwner",
          "type": "address"
        }
      ],
      "name": "transferOwnership",
      "outputs": [],
      "stateMutability": "nonpayable",
      "type": "function"
    },
    {
      "inputs": [
        {
          "internalType": "uint256",
          "name": "",
          "type": "uint256"
        }
      ],
      "name": "uri",
      "outputs": [
        {
          "internalType": "string",
          "name": "",
          "type": "string"
        }
      ],
      "stateMutability": "view",
      "type": "function",
      "constant": true
    },
    {
      "inputs": [
        {
          "internalType": "enum GameItems.ItemType",
          "name": "itemType",
          "type": "uint8"
        },
        {
          "internalType": "string",
          "name": "name",
          "type": "string"
        },
        {
          "internalType": "string",
          "name": "description",
          "type": "string"
        }
      ],
      "name": "createItem",
      "outputs": [
        {
          "internalType": "uint256",
          "name": "",
          "type": "uint256"
        }
      ],
      "stateMutability": "nonpayable",
      "type": "function"
    },
    {
      "inputs": [
        {
          "internalType": "address",
          "name": "to",
          "type": "address"
        },
        {
          "internalType": "uint256",
          "name": "itemId",
          "type": "uint256"
        },
        {
          "internalType": "uint256",
          "name": "amount",
          "type": "uint256"
        }
      ],
      "name": "mintItem",
      "outputs": [],
      "stateMutability": "nonpayable",
      "type": "function"
    },
    {
      "inputs": [
        {
          "internalType": "address",
          "name": "owner",
          "type": "address"
        },
        {
          "internalType": "uint256",
          "name": "itemId",
          "type": "uint256"
        },
        {
          "internalType": "uint256",
          "name": "amount",
          "type": "uint256"
        }
      ],
      "name": "burnItem",
      "outputs": [],
      "stateMutability": "nonpayable",
      "type": "function"
    },
    {
      "inputs": [
        {
          "internalType": "uint256",
          "name": "itemId",
          "type": "uint256"
        },
        {
          "internalType": "uint256",
          "name": "amount",
          "type": "uint256"
        }
      ],
      "name": "purchaseItem",
      "outputs": [],
      "stateMutability": "payable",
      "type": "function",
      "payable": true
    },
    {
      "inputs": [
        {
          "internalType": "uint256",
          "name": "itemId",
          "type": "uint256"
        },
        {
          "internalType": "uint256",
          "name": "amount",
          "type": "uint256"
        }
      ],
      "name": "purchaseWithGoldCoin",
      "outputs": [],
      "stateMutability": "nonpayable",
      "type": "function"
    },
    {
      "inputs": [
        {
          "internalType": "uint256",
          "name": "cardId",
          "type": "uint256"
        },
        {
          "internalType": "uint256",
          "name": "itemId",
          "type": "uint256"
        }
      ],
      "name": "tradeUniqueCardForItem",
      "outputs": [],
      "stateMutability": "nonpayable",
      "type": "function"
    },
    {
      "inputs": [
        {
          "internalType": "address",
          "name": "player",
          "type": "address"
        }
      ],
      "name": "usePowerUp",
      "outputs": [],
      "stateMutability": "nonpayable",
      "type": "function"
    },
    {
      "inputs": [
        {
          "internalType": "address",
          "name": "player",
          "type": "address"
        }
      ],
      "name": "hasPowerUp",
      "outputs": [
        {
          "internalType": "bool",
          "name": "",
          "type": "bool"
        }
      ],
      "stateMutability": "view",
      "type": "function",
      "constant": true
    }
  ],
  "bytecode": "0x60806040523480156200001157600080fd5b5060405162004c1e38038062004c1e833981810160405281019062000037919062000250565b6040518060200160405280600081525062000058816200010360201b60201c565b50620000796200006d6200011860201b60201c565b6200012060201b60201c565b81600560006101000a81548173ffffffffffffffffffffffffffffffffffffffff021916908373ffffffffffffffffffffffffffffffffffffffff16021790555080600660006101000a81548173ffffffffffffffffffffffffffffffffffffffff021916908373ffffffffffffffffffffffffffffffffffffffff1602179055505050620005f8565b806002908162000114919062000511565b5050565b600033905090565b6000600360009054906101000a900473ffffffffffffffffffffffffffffffffffffffff16905081600360006101000a81548173ffffffffffffffffffffffffffffffffffffffff021916908373ffffffffffffffffffffffffffffffffffffffff1602179055508173ffffffffffffffffffffffffffffffffffffffff168173ffffffffffffffffffffffffffffffffffffffff167f8be0079c531659141344cd1fd0a4f28419497f9722a3daafe3b4186f6b6457e060405160405180910390a35050565b600080fd5b600073ffffffffffffffffffffffffffffffffffffffff82169050919050565b60006200021882620001eb565b9050919050565b6200022a816200020b565b81146200023657600080fd5b50565b6000815190506200024a816200021f565b92915050565b600080604083850312156200026a5762000269620001e6565b5b60006200027a8582860162000239565b92505060206200028d8582860162000239565b9150509250929050565b600081519050919050565b7f4e487b7100000000000000000000000000000000000000000000000000000000600052604160045260246000fd5b7f4e487b7100000000000000000000000000000000000000000000000000000000600052602260045260246000fd5b600060028204905060018216806200031957607f821691505b6020821081036200032f576200032e620002d1565b5b50919050565b60008190508160005260206000209050919050565b60006020601f8301049050919050565b600082821b905092915050565b600060088302620003997fffffffffffffffffffffffffffffffffffffffffffffffffffffffffffffffff826200035a565b620003a586836200035a565b95508019841693508086168417925050509392505050565b6000819050919050565b6000819050919050565b6000620003f2620003ec620003e684620003bd565b620003c7565b620003bd565b9050919050565b6000819050919050565b6200040e83620003d1565b620004266200041d82620003f9565b84845462000367565b825550505050565b600090565b6200043d6200042e565b6200044a81848462000403565b505050565b5b8181101562000472576200046660008262000433565b60018101905062000450565b5050565b601f821115620004c1576200048b8162000335565b62000496846200034a565b81016020851015620004a6578190505b620004be620004b5856200034a565b8301826200044f565b50505b505050565b600082821c905092915050565b6000620004e660001984600802620004c6565b1980831691505092915050565b6000620005018383620004d3565b9150826002028217905092915050565b6200051c8262000297565b67ffffffffffffffff811115620005385762000537620002a2565b5b62000544825462000300565b6200055182828562000476565b600060209050601f83116001811462000589576000841562000574578287015190505b620005808582620004f3565b865550620005f0565b601f198416620005998662000335565b60005b82811015620005c3578489015182556001820191506020850194506020810190506200059c565b86831015620005e35784890151620005df601f891682620004d3565b8355505b6001600288020188555050505b505050505050565b61461680620006086000396000f3fe60806040526004361061011e5760003560e01c80637abacccc116100a0578063d258153511610064578063d258153514610409578063e067569814610432578063e985e9c51461044e578063f242432a1461048b578063f2fde38b146104b45761011e565b80637abacccc146103235780638b6518271461034c5780638da5cb5b14610375578063a22cb465146103a0578063bfb231d2146103c95761011e565b80634e1273f4116100e75780634e1273f414610240578063696a50b41461027d5780636bbbcec8146102a65780636c150b2c146102cf578063715018a61461030c5761011e565b8062fdd58e1461012357806301ffc9a7146101605780630e89341c1461019d57806313e8ee7e146101da5780632eb2c2d614610217575b600080fd5b34801561012f57600080fd5b5061014a6004803603810190610145919061283c565b6104dd565b604051610157919061288b565b60405180910390f35b34801561016c57600080fd5b50610187600480360381019061018291906128fe565b6105a5565b6040516101949190612946565b60405180910390f35b3480156101a957600080fd5b506101c460048036038101906101bf9190612961565b610687565b6040516101d19190612a1e565b60405180910390f35b3480156101e657600080fd5b5061020160048036038101906101fc9190612a40565b61071b565b60405161020e9190612946565b60405180910390f35b34801561022357600080fd5b5061023e60048036038101906102399190612c6a565b610766565b005b34801561024c57600080fd5b5061026760048036038101906102629190612dfc565b610807565b6040516102749190612f32565b60405180910390f35b34801561028957600080fd5b506102a4600480360381019061029f9190612f54565b610920565b005b3480156102b257600080fd5b506102cd60048036038101906102c89190612fa7565b6109a0565b005b3480156102db57600080fd5b506102f660048036038101906102f191906130ad565b610b58565b604051610303919061288b565b60405180910390f35b34801561031857600080fd5b50610321610c3a565b005b34801561032f57600080fd5b5061034a60048036038101906103459190612fa7565b610c4e565b005b34801561035857600080fd5b50610373600480360381019061036e9190612a40565b610d17565b005b34801561038157600080fd5b5061038a610fe6565b6040516103979190613147565b60405180910390f35b3480156103ac57600080fd5b506103c760048036038101906103c2919061318e565b611010565b005b3480156103d557600080fd5b506103f060048036038101906103eb9190612961565b611026565b6040516104009493929190613245565b60405180910390f35b34801561041557600080fd5b50610430600480360381019061042b9190612f54565b611173565b005b61044c60048036038101906104479190612fa7565b611202565b005b34801561045a57600080fd5b5061047560048036038101906104709190613298565b611489565b6040516104829190612946565b60405180910390f35b34801561049757600080fd5b506104b260048036038101906104ad91906132d8565b61151d565b005b3480156104c057600080fd5b506104db60048036038101906104d69190612a40565b6115be565b005b60008073ffffffffffffffffffffffffffffffffffffffff168373ffffffffffffffffffffffffffffffffffffffff160361054d576040517f08c379a0000000000000000000000000000000000000000000000000000000008152600401610544906133e1565b60405180910390fd5b60008083815260200190815260200160002060008473ffffffffffffffffffffffffffffffffffffffff1673ffffffffffffffffffffffffffffffffffffffff16815260200190815260200160002054905092915050565b60007fd9b67a26000000000000000000000000000000000000000000000000000000007bffffffffffffffffffffffffffffffffffffffffffffffffffffffff1916827bffffffffffffffffffffffffffffffffffffffffffffffffffffffff1916148061067057507f0e89341c000000000000000000000000000000000000000000000000000000007bffffffffffffffffffffffffffffffffffffffffffffffffffffffff1916827bffffffffffffffffffffffffffffffffffffffffffffffffffffffff1916145b80610680575061067f82611641565b5b9050919050565b60606002805461069690613430565b80601f01602080910402602001604051908101604052809291908181526020018280546106c290613430565b801561070f5780601f106106e45761010080835404028352916020019161070f565b820191906000526020600020905b8154815290600101906020018083116106f257829003601f168201915b50505050509050919050565b600080600860008473ffffffffffffffffffffffffffffffffffffffff1673ffffffffffffffffffffffffffffffffffffffff16815260200190815260200160002054119050919050565b61076e6116ab565b73ffffffffffffffffffffffffffffffffffffffff168573ffffffffffffffffffffffffffffffffffffffff1614806107b457506107b3856107ae6116ab565b611489565b5b6107f3576040517f08c379a00000000000000000000000000000000000000000000000000000000081526004016107ea906134d3565b60405180910390fd5b61080085858585856116b3565b5050505050565b6060815183511461084d576040517f08c379a000000000000000000000000000000000000000000000000000000000815260040161084490613565565b60405180910390fd5b6000835167ffffffffffffffff81111561086a57610869612a72565b5b6040519080825280602002602001820160405280156108985781602001602082028036833780820191505090505b50905060005b8451811015610915576108e58582815181106108bd576108bc613585565b5b60200260200101518583815181106108d8576108d7613585565b5b60200260200101516104dd565b8282815181106108f8576108f7613585565b5b6020026020010181815250508061090e906135e3565b905061089e565b508091505092915050565b6109286119d4565b81600760008481526020019081526020016000206000015414610980576040517f08c379a000000000000000000000000000000000000000000000000000000000815260040161097790613677565b60405180910390fd5b61099b83838360405180602001604052806000815250611a52565b505050565b3373ffffffffffffffffffffffffffffffffffffffff16600660009054906101000a900473ffffffffffffffffffffffffffffffffffffffff1673ffffffffffffffffffffffffffffffffffffffff16636352211e846040518263ffffffff1660e01b8152600401610a12919061288b565b602060405180830381865afa158015610a2f573d6000803e3d6000fd5b505050506040513d601f19601f82011682018060405250810190610a5391906136ac565b73ffffffffffffffffffffffffffffffffffffffff1614610aa9576040517f08c379a0000000000000000000000000000000000000000000000000000000008152600401610aa09061374b565b60405180910390fd5b600660009054906101000a900473ffffffffffffffffffffffffffffffffffffffff1673ffffffffffffffffffffffffffffffffffffffff16638a91a6c883306040518363ffffffff1660e01b8152600401610b0692919061376b565b600060405180830381600087803b158015610b2057600080fd5b505af1158015610b34573d6000803e3d6000fd5b50505050610b543382600160405180602001604052806000815250611a52565b5050565b6000610b626119d4565b610b6c6004611c02565b6000610b786004611c18565b905060006040518060800160405280838152602001876002811115610ba057610b9f6131ce565b5b815260200186815260200185815250905080600760008481526020019081526020016000206000820151816000015560208201518160010160006101000a81548160ff02191690836002811115610bfa57610bf96131ce565b5b02179055506040820151816002019081610c149190613940565b506060820151816003019081610c2a9190613940565b5090505081925050509392505050565b610c426119d4565b610c4c6000611c26565b565b6000601e9050600560009054906101000a900473ffffffffffffffffffffffffffffffffffffffff1673ffffffffffffffffffffffffffffffffffffffff166323b872dd3330846040518463ffffffff1660e01b8152600401610cb393929190613a12565b6020604051808303816000875af1158015610cd2573d6000803e3d6000fd5b505050506040513d601f19601f82011682018060405250810190610cf69190613a5e565b50610d1233848460405180602001604052806000815250611a52565b505050565b6000600860008373ffffffffffffffffffffffffffffffffffffffff1673ffffffffffffffffffffffffffffffffffffffff1681526020019081526020016000205411610d99576040517f08c379a0000000000000000000000000000000000000000000000000000000008152600401610d9090613ad7565b60405180910390fd5b6001600860008373ffffffffffffffffffffffffffffffffffffffff1673ffffffffffffffffffffffffffffffffffffffff1681526020019081526020016000206000828254610de99190613af7565b925050819055506000600660009054906101000a900473ffffffffffffffffffffffffffffffffffffffff1673ffffffffffffffffffffffffffffffffffffffff166370a08231836040518263ffffffff1660e01b8152600401610e4d9190613147565b602060405180830381865afa158015610e6a573d6000803e3d6000fd5b505050506040513d601f19601f82011682018060405250810190610e8e9190613b40565b905060005b81811015610fe1576000600660009054906101000a900473ffffffffffffffffffffffffffffffffffffffff1673ffffffffffffffffffffffffffffffffffffffff16632f745c5985846040518363ffffffff1660e01b8152600401610efa929190613b6d565b602060405180830381865afa158015610f17573d6000803e3d6000fd5b505050506040513d601f19601f82011682018060405250810190610f3b9190613b40565b9050600660009054906101000a900473ffffffffffffffffffffffffffffffffffffffff1673ffffffffffffffffffffffffffffffffffffffff1663618857ba82600a6040518363ffffffff1660e01b8152600401610f9b929190613bd1565b600060405180830381600087803b158015610fb557600080fd5b505af1158015610fc9573d6000803e3d6000fd5b50505050508080610fd9906135e3565b915050610e93565b505050565b6000600360009054906101000a900473ffffffffffffffffffffffffffffffffffffffff16905090565b61102261101b6116ab565b8383611cec565b5050565b60076020528060005260406000206000915090508060000154908060010160009054906101000a900460ff169080600201805461106290613430565b80601f016020809104026020016040519081016040528092919081815260200182805461108e90613430565b80156110db5780601f106110b0576101008083540402835291602001916110db565b820191906000526020600020905b8154815290600101906020018083116110be57829003601f168201915b5050505050908060030180546110f090613430565b80601f016020809104026020016040519081016040528092919081815260200182805461111c90613430565b80156111695780601f1061113e57610100808354040283529160200191611169565b820191906000526020600020905b81548152906001019060200180831161114c57829003601f168201915b5050505050905084565b8273ffffffffffffffffffffffffffffffffffffffff163373ffffffffffffffffffffffffffffffffffffffff1614806111b357506111b28333611489565b5b6111f2576040517f08c379a00000000000000000000000000000000000000000000000000000000081526004016111e990613c46565b60405180910390fd5b6111fd838383611e58565b505050565b8160076000848152602001908152602001600020600001541461125a576040517f08c379a000000000000000000000000000000000000000000000000000000000815260040161125190613677565b60405180910390fd5b600080600281111561126f5761126e6131ce565b5b6007600085815260200190815260200160002060010160009054906101000a900460ff1660028111156112a5576112a46131ce565b5b0361131057678ac7230489e80000905081600860003373ffffffffffffffffffffffffffffffffffffffff1673ffffffffffffffffffffffffffffffffffffffff16815260200190815260200160002060008282546113049190613c66565b925050819055506113cd565b60016002811115611324576113236131ce565b5b6007600085815260200190815260200160002060010160009054906101000a900460ff16600281111561135a576113596131ce565b5b03611370576801158e460913d0000090506113cc565b600280811115611383576113826131ce565b5b6007600085815260200190815260200160002060010160009054906101000a900460ff1660028111156113b9576113b86131ce565b5b036113cb576801a055690d9db8000090505b5b5b81816113d99190613c9a565b34101561141b576040517f08c379a000000000000000000000000000000000000000000000000000000000815260040161141290613d28565b60405180910390fd5b61143633848460405180602001604052806000815250611a52565b61143e610fe6565b73ffffffffffffffffffffffffffffffffffffffff166108fc349081150290604051600060405180830381858888f19350505050158015611483573d6000803e3d6000fd5b50505050565b6000600160008473ffffffffffffffffffffffffffffffffffffffff1673ffffffffffffffffffffffffffffffffffffffff16815260200190815260200160002060008373ffffffffffffffffffffffffffffffffffffffff1673ffffffffffffffffffffffffffffffffffffffff16815260200190815260200160002060009054906101000a900460ff16905092915050565b6115256116ab565b73ffffffffffffffffffffffffffffffffffffffff168573ffffffffffffffffffffffffffffffffffffffff16148061156b575061156a856115656116ab565b611489565b5b6115aa576040517f08c379a00000000000000000000000000000000000000000000000000000000081526004016115a1906134d3565b60405180910390fd5b6115b7858585858561209e565b5050505050565b6115c66119d4565b600073ffffffffffffffffffffffffffffffffffffffff168173ffffffffffffffffffffffffffffffffffffffff1603611635576040517f08c379a000000000000000000000000000000000000000000000000000000000815260040161162c90613dba565b60405180910390fd5b61163e81611c26565b50565b60007f01ffc9a7000000000000000000000000000000000000000000000000000000007bffffffffffffffffffffffffffffffffffffffffffffffffffffffff1916827bffffffffffffffffffffffffffffffffffffffffffffffffffffffff1916149050919050565b600033905090565b81518351146116f7576040517f08c379a00000000000000000000000000000000000000000000000000000000081526004016116ee90613e4c565b60405180910390fd5b600073ffffffffffffffffffffffffffffffffffffffff168473ffffffffffffffffffffffffffffffffffffffff1603611766576040517f08c379a000000000000000000000000000000000000000000000000000000000815260040161175d90613ede565b60405180910390fd5b60006117706116ab565b9050611780818787878787612339565b60005b84518110156119315760008582815181106117a1576117a0613585565b5b6020026020010151905060008583815181106117c0576117bf613585565b5b60200260200101519050600080600084815260200190815260200160002060008b73ffffffffffffffffffffffffffffffffffffffff1673ffffffffffffffffffffffffffffffffffffffff16815260200190815260200160002054905081811015611861576040517f08c379a000000000000000000000000000000000000000000000000000000000815260040161185890613f70565b60405180910390fd5b81810360008085815260200190815260200160002060008c73ffffffffffffffffffffffffffffffffffffffff1673ffffffffffffffffffffffffffffffffffffffff168152602001908152602001600020819055508160008085815260200190815260200160002060008b73ffffffffffffffffffffffffffffffffffffffff1673ffffffffffffffffffffffffffffffffffffffff16815260200190815260200160002060008282546119169190613c66565b925050819055505050508061192a906135e3565b9050611783565b508473ffffffffffffffffffffffffffffffffffffffff168673ffffffffffffffffffffffffffffffffffffffff168273ffffffffffffffffffffffffffffffffffffffff167f4a39dc06d4c0dbc64b70af90fd698a233a518aa5d07e595d983b8c0526c8f7fb87876040516119a8929190613f90565b60405180910390a46119be818787878787612341565b6119cc818787878787612349565b505050505050565b6119dc6116ab565b73ffffffffffffffffffffffffffffffffffffffff166119fa610fe6565b73ffffffffffffffffffffffffffffffffffffffff1614611a50576040517f08c379a0000000000000000000000000000000000000000000000000000000008152600401611a4790614013565b60405180910390fd5b565b600073ffffffffffffffffffffffffffffffffffffffff168473ffffffffffffffffffffffffffffffffffffffff1603611ac1576040517f08c379a0000000000000000000000000000000000000000000000000000000008152600401611ab8906140a5565b60405180910390fd5b6000611acb6116ab565b90506000611ad885612520565b90506000611ae585612520565b9050611af683600089858589612339565b8460008088815260200190815260200160002060008973ffffffffffffffffffffffffffffffffffffffff1673ffffffffffffffffffffffffffffffffffffffff1681526020019081526020016000206000828254611b559190613c66565b925050819055508673ffffffffffffffffffffffffffffffffffffffff16600073ffffffffffffffffffffffffffffffffffffffff168473ffffffffffffffffffffffffffffffffffffffff167fc3d58168c5ae7397731d063d5bbf3d657854427343f4c083240f7aacaa2d0f628989604051611bd39291906140c5565b60405180910390a4611bea83600089858589612341565b611bf98360008989898961259a565b50505050505050565b6001816000016000828254019250508190555050565b600081600001549050919050565b6000600360009054906101000a900473ffffffffffffffffffffffffffffffffffffffff16905081600360006101000a81548173ffffffffffffffffffffffffffffffffffffffff021916908373ffffffffffffffffffffffffffffffffffffffff1602179055508173ffffffffffffffffffffffffffffffffffffffff168173ffffffffffffffffffffffffffffffffffffffff167f8be0079c531659141344cd1fd0a4f28419497f9722a3daafe3b4186f6b6457e060405160405180910390a35050565b8173ffffffffffffffffffffffffffffffffffffffff168373ffffffffffffffffffffffffffffffffffffffff1603611d5a576040517f08c379a0000000000000000000000000000000000000000000000000000000008152600401611d5190614160565b60405180910390fd5b80600160008573ffffffffffffffffffffffffffffffffffffffff1673ffffffffffffffffffffffffffffffffffffffff16815260200190815260200160002060008473ffffffffffffffffffffffffffffffffffffffff1673ffffffffffffffffffffffffffffffffffffffff16815260200190815260200160002060006101000a81548160ff0219169083151502179055508173ffffffffffffffffffffffffffffffffffffffff168373ffffffffffffffffffffffffffffffffffffffff167f17307eab39ab6107e8899845ad3d59bd9653f200f220920489ca2b5937696c3183604051611e4b9190612946565b60405180910390a3505050565b600073ffffffffffffffffffffffffffffffffffffffff168373ffffffffffffffffffffffffffffffffffffffff1603611ec7576040517f08c379a0000000000000000000000000000000000000000000000000000000008152600401611ebe906141f2565b60405180910390fd5b6000611ed16116ab565b90506000611ede84612520565b90506000611eeb84612520565b9050611f0b83876000858560405180602001604052806000815250612339565b600080600087815260200190815260200160002060008873ffffffffffffffffffffffffffffffffffffffff1673ffffffffffffffffffffffffffffffffffffffff16815260200190815260200160002054905084811015611fa2576040517f08c379a0000000000000000000000000000000000000000000000000000000008152600401611f9990614284565b60405180910390fd5b84810360008088815260200190815260200160002060008973ffffffffffffffffffffffffffffffffffffffff1673ffffffffffffffffffffffffffffffffffffffff16815260200190815260200160002081905550600073ffffffffffffffffffffffffffffffffffffffff168773ffffffffffffffffffffffffffffffffffffffff168573ffffffffffffffffffffffffffffffffffffffff167fc3d58168c5ae7397731d063d5bbf3d657854427343f4c083240f7aacaa2d0f62898960405161206f9291906140c5565b60405180910390a461209584886000868660405180602001604052806000815250612341565b50505050505050565b600073ffffffffffffffffffffffffffffffffffffffff168473ffffffffffffffffffffffffffffffffffffffff160361210d576040517f08c379a000000000000000000000000000000000000000000000000000000000815260040161210490613ede565b60405180910390fd5b60006121176116ab565b9050600061212485612520565b9050600061213185612520565b9050612141838989858589612339565b600080600088815260200190815260200160002060008a73ffffffffffffffffffffffffffffffffffffffff1673ffffffffffffffffffffffffffffffffffffffff168152602001908152602001600020549050858110156121d8576040517f08c379a00000000000000000000000000000000000000000000000000000000081526004016121cf90613f70565b60405180910390fd5b85810360008089815260200190815260200160002060008b73ffffffffffffffffffffffffffffffffffffffff1673ffffffffffffffffffffffffffffffffffffffff168152602001908152602001600020819055508560008089815260200190815260200160002060008a73ffffffffffffffffffffffffffffffffffffffff1673ffffffffffffffffffffffffffffffffffffffff168152602001908152602001600020600082825461228d9190613c66565b925050819055508773ffffffffffffffffffffffffffffffffffffffff168973ffffffffffffffffffffffffffffffffffffffff168573ffffffffffffffffffffffffffffffffffffffff167fc3d58168c5ae7397731d063d5bbf3d657854427343f4c083240f7aacaa2d0f628a8a60405161230a9291906140c5565b60405180910390a4612320848a8a86868a612341565b61232e848a8a8a8a8a61259a565b505050505050505050565b505050505050565b505050505050565b6123688473ffffffffffffffffffffffffffffffffffffffff16612771565b15612518578373ffffffffffffffffffffffffffffffffffffffff1663bc197c8187878686866040518663ffffffff1660e01b81526004016123ae9594939291906142f9565b6020604051808303816000875af19250505080156123ea57506040513d601f19601f820116820180604052508101906123e79190614376565b60015b61248f576123f66143b0565b806308c379a003612452575061240a6143d2565b806124155750612454565b806040517f08c379a00000000000000000000000000000000000000000000000000000000081526004016124499190612a1e565b60405180910390fd5b505b6040517f08c379a0000000000000000000000000000000000000000000000000000000008152600401612486906144d4565b60405180910390fd5b63bc197c8160e01b7bffffffffffffffffffffffffffffffffffffffffffffffffffffffff1916817bffffffffffffffffffffffffffffffffffffffffffffffffffffffff191614612516576040517f08c379a000000000000000000000000000000000000000000000000000000000815260040161250d90614566565b60405180910390fd5b505b505050505050565b60606000600167ffffffffffffffff81111561253f5761253e612a72565b5b60405190808252806020026020018201604052801561256d5781602001602082028036833780820191505090505b509050828160008151811061258557612584613585565b5b60200260200101818152505080915050919050565b6125b98473ffffffffffffffffffffffffffffffffffffffff16612771565b15612769578373ffffffffffffffffffffffffffffffffffffffff1663f23a6e6187878686866040518663ffffffff1660e01b81526004016125ff959493929190614586565b6020604051808303816000875af192505050801561263b57506040513d601f19601f820116820180604052508101906126389190614376565b60015b6126e0576126476143b0565b806308c379a0036126a3575061265b6143d2565b8061266657506126a5565b806040517f08c379a000000000000000000000000000000000000000000000000000000000815260040161269a9190612a1e565b60405180910390fd5b505b6040517f08c379a00000000000000000000000000000000000000000000000000000000081526004016126d7906144d4565b60405180910390fd5b63f23a6e6160e01b7bffffffffffffffffffffffffffffffffffffffffffffffffffffffff1916817bffffffffffffffffffffffffffffffffffffffffffffffffffffffff191614612767576040517f08c379a000000000000000000000000000000000000000000000000000000000815260040161275e90614566565b60405180910390fd5b505b505050505050565b6000808273ffffffffffffffffffffffffffffffffffffffff163b119050919050565b6000604051905090565b600080fd5b600080fd5b600073ffffffffffffffffffffffffffffffffffffffff82169050919050565b60006127d3826127a8565b9050919050565b6127e3816127c8565b81146127ee57600080fd5b50565b600081359050612800816127da565b92915050565b6000819050919050565b61281981612806565b811461282457600080fd5b50565b60008135905061283681612810565b92915050565b600080604083850312156128535761285261279e565b5b6000612861858286016127f1565b925050602061287285828601612827565b9150509250929050565b61288581612806565b82525050565b60006020820190506128a0600083018461287c565b92915050565b60007fffffffff0000000000000000000000000000000000000000000000000000000082169050919050565b6128db816128a6565b81146128e657600080fd5b50565b6000813590506128f8816128d2565b92915050565b6000602082840312156129145761291361279e565b5b6000612922848285016128e9565b91505092915050565b60008115159050919050565b6129408161292b565b82525050565b600060208201905061295b6000830184612937565b92915050565b6000602082840312156129775761297661279e565b5b600061298584828501612827565b91505092915050565b600081519050919050565b600082825260208201905092915050565b60005b838110156129c85780820151818401526020810190506129ad565b60008484015250505050565b6000601f19601f8301169050919050565b60006129f08261298e565b6129fa8185612999565b9350612a0a8185602086016129aa565b612a13816129d4565b840191505092915050565b60006020820190508181036000830152612a3881846129e5565b905092915050565b600060208284031215612a5657612a5561279e565b5b6000612a64848285016127f1565b91505092915050565b600080fd5b7f4e487b7100000000000000000000000000000000000000000000000000000000600052604160045260246000fd5b612aaa826129d4565b810181811067ffffffffffffffff82111715612ac957612ac8612a72565b5b80604052505050565b6000612adc612794565b9050612ae88282612aa1565b919050565b600067ffffffffffffffff821115612b0857612b07612a72565b5b602082029050602081019050919050565b600080fd5b6000612b31612b2c84612aed565b612ad2565b90508083825260208201905060208402830185811115612b5457612b53612b19565b5b835b81811015612b7d5780612b698882612827565b845260208401935050602081019050612b56565b5050509392505050565b600082601f830112612b9c57612b9b612a6d565b5b8135612bac848260208601612b1e565b91505092915050565b600080fd5b600067ffffffffffffffff821115612bd557612bd4612a72565b5b612bde826129d4565b9050602081019050919050565b82818337600083830152505050565b6000612c0d612c0884612bba565b612ad2565b905082815260208101848484011115612c2957612c28612bb5565b5b612c34848285612beb565b509392505050565b600082601f830112612c5157612c50612a6d565b5b8135612c61848260208601612bfa565b91505092915050565b600080600080600060a08688031215612c8657612c8561279e565b5b6000612c94888289016127f1565b9550506020612ca5888289016127f1565b945050604086013567ffffffffffffffff811115612cc657612cc56127a3565b5b612cd288828901612b87565b935050606086013567ffffffffffffffff811115612cf357612cf26127a3565b5b612cff88828901612b87565b925050608086013567ffffffffffffffff811115612d2057612d1f6127a3565b5b612d2c88828901612c3c565b9150509295509295909350565b600067ffffffffffffffff821115612d5457612d53612a72565b5b602082029050602081019050919050565b6000612d78612d7384612d39565b612ad2565b90508083825260208201905060208402830185811115612d9b57612d9a612b19565b5b835b81811015612dc45780612db088826127f1565b845260208401935050602081019050612d9d565b5050509392505050565b600082601f830112612de357612de2612a6d565b5b8135612df3848260208601612d65565b91505092915050565b60008060408385031215612e1357612e1261279e565b5b600083013567ffffffffffffffff811115612e3157612e306127a3565b5b612e3d85828601612dce565b925050602083013567ffffffffffffffff811115612e5e57612e5d6127a3565b5b612e6a85828601612b87565b9150509250929050565b600081519050919050565b600082825260208201905092915050565b6000819050602082019050919050565b612ea981612806565b82525050565b6000612ebb8383612ea0565b60208301905092915050565b6000602082019050919050565b6000612edf82612e74565b612ee98185612e7f565b9350612ef483612e90565b8060005b83811015612f25578151612f0c8882612eaf565b9750612f1783612ec7565b925050600181019050612ef8565b5085935050505092915050565b60006020820190508181036000830152612f4c8184612ed4565b905092915050565b600080600060608486031215612f6d57612f6c61279e565b5b6000612f7b868287016127f1565b9350506020612f8c86828701612827565b9250506040612f9d86828701612827565b9150509250925092565b60008060408385031215612fbe57612fbd61279e565b5b6000612fcc85828601612827565b9250506020612fdd85828601612827565b9150509250929050565b60038110612ff457600080fd5b50565b60008135905061300681612fe7565b92915050565b600067ffffffffffffffff82111561302757613026612a72565b5b613030826129d4565b9050602081019050919050565b600061305061304b8461300c565b612ad2565b90508281526020810184848401111561306c5761306b612bb5565b5b613077848285612beb565b509392505050565b600082601f83011261309457613093612a6d565b5b81356130a484826020860161303d565b91505092915050565b6000806000606084860312156130c6576130c561279e565b5b60006130d486828701612ff7565b935050602084013567ffffffffffffffff8111156130f5576130f46127a3565b5b6131018682870161307f565b925050604084013567ffffffffffffffff811115613122576131216127a3565b5b61312e8682870161307f565b9150509250925092565b613141816127c8565b82525050565b600060208201905061315c6000830184613138565b92915050565b61316b8161292b565b811461317657600080fd5b50565b60008135905061318881613162565b92915050565b600080604083850312156131a5576131a461279e565b5b60006131b3858286016127f1565b92505060206131c485828601613179565b9150509250929050565b7f4e487b7100000000000000000000000000000000000000000000000000000000600052602160045260246000fd5b6003811061320e5761320d6131ce565b5b50565b600081905061321f826131fd565b919050565b600061322f82613211565b9050919050565b61323f81613224565b82525050565b600060808201905061325a600083018761287c565b6132676020830186613236565b818103604083015261327981856129e5565b9050818103606083015261328d81846129e5565b905095945050505050565b600080604083850312156132af576132ae61279e565b5b60006132bd858286016127f1565b92505060206132ce858286016127f1565b9150509250929050565b600080600080600060a086880312156132f4576132f361279e565b5b6000613302888289016127f1565b9550506020613313888289016127f1565b945050604061332488828901612827565b935050606061333588828901612827565b925050608086013567ffffffffffffffff811115613356576133556127a3565b5b61336288828901612c3c565b9150509295509295909350565b7f455243313135353a2061646472657373207a65726f206973206e6f742061207660008201527f616c6964206f776e657200000000000000000000000000000000000000000000602082015250565b60006133cb602a83612999565b91506133d68261336f565b604082019050919050565b600060208201905081810360008301526133fa816133be565b9050919050565b7f4e487b7100000000000000000000000000000000000000000000000000000000600052602260045260246000fd5b6000600282049050600182168061344857607f821691505b60208210810361345b5761345a613401565b5b50919050565b7f455243313135353a2063616c6c6572206973206e6f7420746f6b656e206f776e60008201527f6572206f7220617070726f766564000000000000000000000000000000000000602082015250565b60006134bd602e83612999565b91506134c882613461565b604082019050919050565b600060208201905081810360008301526134ec816134b0565b9050919050565b7f455243313135353a206163636f756e747320616e6420696473206c656e67746860008201527f206d69736d617463680000000000000000000000000000000000000000000000602082015250565b600061354f602983612999565b915061355a826134f3565b604082019050919050565b6000602082019050818103600083015261357e81613542565b9050919050565b7f4e487b7100000000000000000000000000000000000000000000000000000000600052603260045260246000fd5b7f4e487b7100000000000000000000000000000000000000000000000000000000600052601160045260246000fd5b60006135ee82612806565b91507fffffffffffffffffffffffffffffffffffffffffffffffffffffffffffffffff82036136205761361f6135b4565b5b600182019050919050565b7f4974656d20646f6573206e6f742065786973742e000000000000000000000000600082015250565b6000613661601483612999565b915061366c8261362b565b602082019050919050565b6000602082019050818103600083015261369081613654565b9050919050565b6000815190506136a6816127da565b92915050565b6000602082840312156136c2576136c161279e565b5b60006136d084828501613697565b91505092915050565b7f4e6f7420746865206f776e6572206f662074686520756e69717565206361726460008201527f2e00000000000000000000000000000000000000000000000000000000000000602082015250565b6000613735602183612999565b9150613740826136d9565b604082019050919050565b6000602082019050818103600083015261376481613728565b9050919050565b6000604082019050613780600083018561287c565b61378d6020830184613138565b9392505050565b60008190508160005260206000209050919050565b60006020601f8301049050919050565b600082821b905092915050565b6000600883026137f67fffffffffffffffffffffffffffffffffffffffffffffffffffffffffffffffff826137b9565b61380086836137b9565b95508019841693508086168417925050509392505050565b6000819050919050565b600061383d61383861383384612806565b613818565b612806565b9050919050565b6000819050919050565b61385783613822565b61386b61386382613844565b8484546137c6565b825550505050565b600090565b613880613873565b61388b81848461384e565b505050565b5b818110156138af576138a4600082613878565b600181019050613891565b5050565b601f8211156138f4576138c581613794565b6138ce846137a9565b810160208510156138dd578190505b6138f16138e9856137a9565b830182613890565b50505b505050565b600082821c905092915050565b6000613917600019846008026138f9565b1980831691505092915050565b60006139308383613906565b9150826002028217905092915050565b6139498261298e565b67ffffffffffffffff81111561396257613961612a72565b5b61396c8254613430565b6139778282856138b3565b600060209050601f8311600181146139aa5760008415613998578287015190505b6139a28582613924565b865550613a0a565b601f1984166139b886613794565b60005b828110156139e0578489015182556001820191506020850194506020810190506139bb565b868310156139fd57848901516139f9601f891682613906565b8355505b6001600288020188555050505b505050505050565b6000606082019050613a276000830186613138565b613a346020830185613138565b613a41604083018461287c565b949350505050565b600081519050613a5881613162565b92915050565b600060208284031215613a7457613a7361279e565b5b6000613a8284828501613a49565b91505092915050565b7f4e6f20706f7765722d75707320617661696c61626c6500000000000000000000600082015250565b6000613ac1601683612999565b9150613acc82613a8b565b602082019050919050565b60006020820190508181036000830152613af081613ab4565b9050919050565b6000613b0282612806565b9150613b0d83612806565b9250828203905081811115613b2557613b246135b4565b5b92915050565b600081519050613b3a81612810565b92915050565b600060208284031215613b5657613b5561279e565b5b6000613b6484828501613b2b565b91505092915050565b6000604082019050613b826000830185613138565b613b8f602083018461287c565b9392505050565b6000819050919050565b6000613bbb613bb6613bb184613b96565b613818565b612806565b9050919050565b613bcb81613ba0565b82525050565b6000604082019050613be6600083018561287c565b613bf36020830184613bc2565b9392505050565b7f4e6f7420617574686f72697a65642e0000000000000000000000000000000000600082015250565b6000613c30600f83612999565b9150613c3b82613bfa565b602082019050919050565b60006020820190508181036000830152613c5f81613c23565b9050919050565b6000613c7182612806565b9150613c7c83612806565b9250828201905080821115613c9457613c936135b4565b5b92915050565b6000613ca582612806565b9150613cb083612806565b9250828202613cbe81612806565b91508282048414831517613cd557613cd46135b4565b5b5092915050565b7f496e73756666696369656e74204554482073656e742e00000000000000000000600082015250565b6000613d12601683612999565b9150613d1d82613cdc565b602082019050919050565b60006020820190508181036000830152613d4181613d05565b9050919050565b7f4f776e61626c653a206e6577206f776e657220697320746865207a65726f206160008201527f6464726573730000000000000000000000000000000000000000000000000000602082015250565b6000613da4602683612999565b9150613daf82613d48565b604082019050919050565b60006020820190508181036000830152613dd381613d97565b9050919050565b7f455243313135353a2069647320616e6420616d6f756e7473206c656e6774682060008201527f6d69736d61746368000000000000000000000000000000000000000000000000602082015250565b6000613e36602883612999565b9150613e4182613dda565b604082019050919050565b60006020820190508181036000830152613e6581613e29565b9050919050565b7f455243313135353a207472616e7366657220746f20746865207a65726f20616460008201527f6472657373000000000000000000000000000000000000000000000000000000602082015250565b6000613ec8602583612999565b9150613ed382613e6c565b604082019050919050565b60006020820190508181036000830152613ef781613ebb565b9050919050565b7f455243313135353a20696e73756666696369656e742062616c616e636520666f60008201527f72207472616e7366657200000000000000000000000000000000000000000000602082015250565b6000613f5a602a83612999565b9150613f6582613efe565b604082019050919050565b60006020820190508181036000830152613f8981613f4d565b9050919050565b60006040820190508181036000830152613faa8185612ed4565b90508181036020830152613fbe8184612ed4565b90509392505050565b7f4f776e61626c653a2063616c6c6572206973206e6f7420746865206f776e6572600082015250565b6000613ffd602083612999565b915061400882613fc7565b602082019050919050565b6000602082019050818103600083015261402c81613ff0565b9050919050565b7f455243313135353a206d696e7420746f20746865207a65726f2061646472657360008201527f7300000000000000000000000000000000000000000000000000000000000000602082015250565b600061408f602183612999565b915061409a82614033565b604082019050919050565b600060208201905081810360008301526140be81614082565b9050919050565b60006040820190506140da600083018561287c565b6140e7602083018461287c565b9392505050565b7f455243313135353a2073657474696e6720617070726f76616c2073746174757360008201527f20666f722073656c660000000000000000000000000000000000000000000000602082015250565b600061414a602983612999565b9150614155826140ee565b604082019050919050565b600060208201905081810360008301526141798161413d565b9050919050565b7f455243313135353a206275726e2066726f6d20746865207a65726f206164647260008201527f6573730000000000000000000000000000000000000000000000000000000000602082015250565b60006141dc602383612999565b91506141e782614180565b604082019050919050565b6000602082019050818103600083015261420b816141cf565b9050919050565b7f455243313135353a206275726e20616d6f756e7420657863656564732062616c60008201527f616e636500000000000000000000000000000000000000000000000000000000602082015250565b600061426e602483612999565b915061427982614212565b604082019050919050565b6000602082019050818103600083015261429d81614261565b9050919050565b600081519050919050565b600082825260208201905092915050565b60006142cb826142a4565b6142d581856142af565b93506142e58185602086016129aa565b6142ee816129d4565b840191505092915050565b600060a08201905061430e6000830188613138565b61431b6020830187613138565b818103604083015261432d8186612ed4565b905081810360608301526143418185612ed4565b9050818103608083015261435581846142c0565b90509695505050505050565b600081519050614370816128d2565b92915050565b60006020828403121561438c5761438b61279e565b5b600061439a84828501614361565b91505092915050565b60008160e01c9050919050565b600060033d11156143cf5760046000803e6143cc6000516143a3565b90505b90565b600060443d1061445f576143e4612794565b60043d036004823e80513d602482011167ffffffffffffffff8211171561440c57505061445f565b808201805167ffffffffffffffff81111561442a575050505061445f565b80602083010160043d03850181111561444757505050505061445f565b61445682602001850186612aa1565b82955050505050505b90565b7f455243313135353a207472616e7366657220746f206e6f6e2d4552433131353560008201527f526563656976657220696d706c656d656e746572000000000000000000000000602082015250565b60006144be603483612999565b91506144c982614462565b604082019050919050565b600060208201905081810360008301526144ed816144b1565b9050919050565b7f455243313135353a204552433131353552656365697665722072656a6563746560008201527f6420746f6b656e73000000000000000000000000000000000000000000000000602082015250565b6000614550602883612999565b915061455b826144f4565b604082019050919050565b6000602082019050818103600083015261457f81614543565b9050919050565b600060a08201905061459b6000830188613138565b6145a86020830187613138565b6145b5604083018661287c565b6145c2606083018561287c565b81810360808301526145d481846142c0565b9050969550505050505056fea2646970667358221220a369dbbae2e29ceee1b251707212e3c9e21772ee34147af7232a66cb8621fd5364736f6c63430008130033",
  "immutableReferences": {},
  "source": "// SPDX-License-Identifier: MIT\npragma solidity ^0.8.19;\n\nimport \"@openzeppelin/contracts/token/ERC1155/ERC1155.sol\";\nimport \"@openzeppelin/contracts/utils/Counters.sol\";\nimport \"@openzeppelin/contracts/access/Ownable.sol\";\nimport \"./ERC20SmartContract.sol\"; // Importing the local ERC20 contract.\nimport \"./ERC721SmartContract.sol\"; // Importing the local ERC721 contract.\n\ncontract GameItems is ERC1155, Ownable {\n    using Counters for Counters.Counter;\n\n    Counters.Counter private _itemIds;\n\n    // Addresses of the deployed ERC20 and ERC721 contracts\n    GoldCoin private erc20Token;\n    UniqueCards private erc721Token;\n\n    enum ItemType {\n        PowerUp,\n        Mod,\n        UniqueAttribute\n    }\n\n    struct Item {\n        uint256 id;\n        ItemType itemType;\n        string name;\n        string description;\n    }\n\n    mapping(uint256 => Item) public items;\n    mapping(address => uint256) private playerPowerUps;\n\n    constructor(\n        address _erc20Address,\n        address _erc721Address\n    ) ERC1155(\"\") Ownable() {\n        erc20Token = GoldCoin(_erc20Address);\n        erc721Token = UniqueCards(_erc721Address);\n    }\n\n    function createItem(\n        ItemType itemType,\n        string memory name,\n        string memory description\n    ) external onlyOwner returns (uint256) {\n        _itemIds.increment();\n        uint256 newItemId = _itemIds.current();\n\n        Item memory newItem = Item({\n            id: newItemId,\n            itemType: itemType,\n            name: name,\n            description: description\n        });\n\n        items[newItemId] = newItem;\n\n        return newItemId;\n    }\n\n    function mintItem(\n        address to,\n        uint256 itemId,\n        uint256 amount\n    ) external onlyOwner {\n        require(items[itemId].id == itemId, \"Item does not exist.\");\n        _mint(to, itemId, amount, \"\");\n    }\n\n    function burnItem(address owner, uint256 itemId, uint256 amount) external {\n        require(\n            msg.sender == owner || isApprovedForAll(owner, msg.sender),\n            \"Not authorized.\"\n        );\n        _burn(owner, itemId, amount);\n    }\n\n    function purchaseItem(uint256 itemId, uint256 amount) external payable {\n        require(items[itemId].id == itemId, \"Item does not exist.\");\n\n        uint256 price;\n\n        if (items[itemId].itemType == ItemType.PowerUp) {\n            price = 10 * 1e18; // Setting the price for power-ups\n            playerPowerUps[msg.sender] += amount; // Tracking power-up purchases\n        } else if (items[itemId].itemType == ItemType.Mod) {\n            price = 20 * 1e18;\n        } else if (items[itemId].itemType == ItemType.UniqueAttribute) {\n            price = 30 * 1e18;\n        }\n\n        require(msg.value >= price * amount, \"Insufficient ETH sent.\");\n        _mint(msg.sender, itemId, amount, \"\");\n        payable(owner()).transfer(msg.value);\n    }\n\n    function purchaseWithGoldCoin(uint256 itemId, uint256 amount) external {\n        uint256 price = 30; // Assuming a fixed price for all items when purchased with GoldCoin\n        erc20Token.transferFrom(msg.sender, address(this), price);\n        _mint(msg.sender, itemId, amount, \"\");\n    }\n\n    function tradeUniqueCardForItem(uint256 cardId, uint256 itemId) external {\n        require(\n            erc721Token.ownerOf(cardId) == msg.sender,\n            \"Not the owner of the unique card.\"\n        );\n        erc721Token.tradeCard(cardId, address(this));\n        _mint(msg.sender, itemId, 1, \"\");\n    }\n\n    // Modified function for players to use a power-up\n    function usePowerUp(address player) external {\n        require(playerPowerUps[player] > 0, \"No power-ups available\");\n        playerPowerUps[player] -= 1; // Decrement the power-up count\n\n        // Increase attributes for each card the player owns\n        uint256 cardCount = erc721Token.balanceOf(player);\n        for (uint256 i = 0; i < cardCount; i++) {\n            uint256 cardId = erc721Token.tokenOfOwnerByIndex(player, i);\n            erc721Token.increaseCardAttributes(cardId, 10); // 10% increase\n        }\n    }\n\n    function hasPowerUp(address player) external view returns (bool) {\n        return playerPowerUps[player] > 0;\n    }\n}\n",
  "sourcePath": "/Users/ibrahimallahbuksh/BlockchainProject/contracts/ERC1155SmartContract.sol",
  "compiler": {
    "name": "solc",
    "version": "0.8.19+commit.7dd6d404.Emscripten.clang"
  },
  "schemaVersion": "3.4.16",
  "updatedAt": "2023-11-19T00:45:24.656Z",
  "networkType": "ethereum",
  "devdoc": {
    "events": {
      "ApprovalForAll(address,address,bool)": {
        "details": "Emitted when `account` grants or revokes permission to `operator` to transfer their tokens, according to `approved`."
      },
      "TransferBatch(address,address,address,uint256[],uint256[])": {
        "details": "Equivalent to multiple {TransferSingle} events, where `operator`, `from` and `to` are the same for all transfers."
      },
      "TransferSingle(address,address,address,uint256,uint256)": {
        "details": "Emitted when `value` tokens of token type `id` are transferred from `from` to `to` by `operator`."
      },
      "URI(string,uint256)": {
        "details": "Emitted when the URI for token type `id` changes to `value`, if it is a non-programmatic URI. If an {URI} event was emitted for `id`, the standard https://eips.ethereum.org/EIPS/eip-1155#metadata-extensions[guarantees] that `value` will equal the value returned by {IERC1155MetadataURI-uri}."
      }
    },
    "kind": "dev",
    "methods": {
      "balanceOf(address,uint256)": {
        "details": "See {IERC1155-balanceOf}. Requirements: - `account` cannot be the zero address."
      },
      "balanceOfBatch(address[],uint256[])": {
        "details": "See {IERC1155-balanceOfBatch}. Requirements: - `accounts` and `ids` must have the same length."
      },
      "isApprovedForAll(address,address)": {
        "details": "See {IERC1155-isApprovedForAll}."
      },
      "owner()": {
        "details": "Returns the address of the current owner."
      },
      "renounceOwnership()": {
        "details": "Leaves the contract without owner. It will not be possible to call `onlyOwner` functions. Can only be called by the current owner. NOTE: Renouncing ownership will leave the contract without an owner, thereby disabling any functionality that is only available to the owner."
      },
      "safeBatchTransferFrom(address,address,uint256[],uint256[],bytes)": {
        "details": "See {IERC1155-safeBatchTransferFrom}."
      },
      "safeTransferFrom(address,address,uint256,uint256,bytes)": {
        "details": "See {IERC1155-safeTransferFrom}."
      },
      "setApprovalForAll(address,bool)": {
        "details": "See {IERC1155-setApprovalForAll}."
      },
      "supportsInterface(bytes4)": {
        "details": "See {IERC165-supportsInterface}."
      },
      "transferOwnership(address)": {
        "details": "Transfers ownership of the contract to a new account (`newOwner`). Can only be called by the current owner."
      },
      "uri(uint256)": {
        "details": "See {IERC1155MetadataURI-uri}. This implementation returns the same URI for *all* token types. It relies on the token type ID substitution mechanism https://eips.ethereum.org/EIPS/eip-1155#metadata[defined in the EIP]. Clients calling this function must replace the `\\{id\\}` substring with the actual token type ID."
      }
    },
    "version": 1
  },
  "userdoc": {
    "kind": "user",
    "methods": {},
    "version": 1
  }
}