{
  "contractName": "GameItems",
  "abi": [
    {
      "inputs": [
        {
          "internalType": "address",
          "name": "_erc20Address",
          "type": "address"
        },
        {
          "internalType": "address",
          "name": "_erc721Address",
          "type": "address"
        }
      ],
      "stateMutability": "nonpayable",
      "type": "constructor"
    },
    {
      "anonymous": false,
      "inputs": [
        {
          "indexed": true,
          "internalType": "address",
          "name": "account",
          "type": "address"
        },
        {
          "indexed": true,
          "internalType": "address",
          "name": "operator",
          "type": "address"
        },
        {
          "indexed": false,
          "internalType": "bool",
          "name": "approved",
          "type": "bool"
        }
      ],
      "name": "ApprovalForAll",
      "type": "event"
    },
    {
      "anonymous": false,
      "inputs": [
        {
          "indexed": true,
          "internalType": "address",
          "name": "owner",
          "type": "address"
        },
        {
          "indexed": false,
          "internalType": "uint256",
          "name": "itemId",
          "type": "uint256"
        },
        {
          "indexed": false,
          "internalType": "uint256",
          "name": "amount",
          "type": "uint256"
        }
      ],
      "name": "ItemBurned",
      "type": "event"
    },
    {
      "anonymous": false,
      "inputs": [
        {
          "indexed": false,
          "internalType": "uint256",
          "name": "itemId",
          "type": "uint256"
        },
        {
          "indexed": false,
          "internalType": "enum GameItems.ItemType",
          "name": "itemType",
          "type": "uint8"
        },
        {
          "indexed": false,
          "internalType": "string",
          "name": "name",
          "type": "string"
        },
        {
          "indexed": false,
          "internalType": "string",
          "name": "description",
          "type": "string"
        }
      ],
      "name": "ItemCreated",
      "type": "event"
    },
    {
      "anonymous": false,
      "inputs": [
        {
          "indexed": true,
          "internalType": "address",
          "name": "to",
          "type": "address"
        },
        {
          "indexed": false,
          "internalType": "uint256",
          "name": "itemId",
          "type": "uint256"
        },
        {
          "indexed": false,
          "internalType": "uint256",
          "name": "amount",
          "type": "uint256"
        }
      ],
      "name": "ItemMinted",
      "type": "event"
    },
    {
      "anonymous": false,
      "inputs": [
        {
          "indexed": true,
          "internalType": "address",
          "name": "buyer",
          "type": "address"
        },
        {
          "indexed": false,
          "internalType": "uint256",
          "name": "itemId",
          "type": "uint256"
        },
        {
          "indexed": false,
          "internalType": "uint256",
          "name": "amount",
          "type": "uint256"
        },
        {
          "indexed": false,
          "internalType": "string",
          "name": "paymentType",
          "type": "string"
        }
      ],
      "name": "ItemPurchased",
      "type": "event"
    },
    {
      "anonymous": false,
      "inputs": [
        {
          "indexed": true,
          "internalType": "address",
          "name": "player",
          "type": "address"
        },
        {
          "indexed": false,
          "internalType": "uint256[]",
          "name": "cardIds",
          "type": "uint256[]"
        }
      ],
      "name": "ModPowerUpUsed",
      "type": "event"
    },
    {
      "anonymous": false,
      "inputs": [
        {
          "indexed": true,
          "internalType": "address",
          "name": "previousOwner",
          "type": "address"
        },
        {
          "indexed": true,
          "internalType": "address",
          "name": "newOwner",
          "type": "address"
        }
      ],
      "name": "OwnershipTransferred",
      "type": "event"
    },
    {
      "anonymous": false,
      "inputs": [
        {
          "indexed": true,
          "internalType": "address",
          "name": "player",
          "type": "address"
        },
        {
          "indexed": false,
          "internalType": "uint256[]",
          "name": "cardIds",
          "type": "uint256[]"
        }
      ],
      "name": "PowerUpUsed",
      "type": "event"
    },
    {
      "anonymous": false,
      "inputs": [
        {
          "indexed": true,
          "internalType": "address",
          "name": "operator",
          "type": "address"
        },
        {
          "indexed": true,
          "internalType": "address",
          "name": "from",
          "type": "address"
        },
        {
          "indexed": true,
          "internalType": "address",
          "name": "to",
          "type": "address"
        },
        {
          "indexed": false,
          "internalType": "uint256[]",
          "name": "ids",
          "type": "uint256[]"
        },
        {
          "indexed": false,
          "internalType": "uint256[]",
          "name": "values",
          "type": "uint256[]"
        }
      ],
      "name": "TransferBatch",
      "type": "event"
    },
    {
      "anonymous": false,
      "inputs": [
        {
          "indexed": true,
          "internalType": "address",
          "name": "operator",
          "type": "address"
        },
        {
          "indexed": true,
          "internalType": "address",
          "name": "from",
          "type": "address"
        },
        {
          "indexed": true,
          "internalType": "address",
          "name": "to",
          "type": "address"
        },
        {
          "indexed": false,
          "internalType": "uint256",
          "name": "id",
          "type": "uint256"
        },
        {
          "indexed": false,
          "internalType": "uint256",
          "name": "value",
          "type": "uint256"
        }
      ],
      "name": "TransferSingle",
      "type": "event"
    },
    {
      "anonymous": false,
      "inputs": [
        {
          "indexed": false,
          "internalType": "string",
          "name": "value",
          "type": "string"
        },
        {
          "indexed": true,
          "internalType": "uint256",
          "name": "id",
          "type": "uint256"
        }
      ],
      "name": "URI",
      "type": "event"
    },
    {
      "inputs": [
        {
          "internalType": "address",
          "name": "account",
          "type": "address"
        },
        {
          "internalType": "uint256",
          "name": "id",
          "type": "uint256"
        }
      ],
      "name": "balanceOf",
      "outputs": [
        {
          "internalType": "uint256",
          "name": "",
          "type": "uint256"
        }
      ],
      "stateMutability": "view",
      "type": "function",
      "constant": true
    },
    {
      "inputs": [
        {
          "internalType": "address[]",
          "name": "accounts",
          "type": "address[]"
        },
        {
          "internalType": "uint256[]",
          "name": "ids",
          "type": "uint256[]"
        }
      ],
      "name": "balanceOfBatch",
      "outputs": [
        {
          "internalType": "uint256[]",
          "name": "",
          "type": "uint256[]"
        }
      ],
      "stateMutability": "view",
      "type": "function",
      "constant": true
    },
    {
      "inputs": [],
      "name": "currPhase",
      "outputs": [
        {
          "internalType": "enum GameItems.Phase",
          "name": "",
          "type": "uint8"
        }
      ],
      "stateMutability": "view",
      "type": "function",
      "constant": true
    },
    {
      "inputs": [
        {
          "internalType": "address",
          "name": "account",
          "type": "address"
        },
        {
          "internalType": "address",
          "name": "operator",
          "type": "address"
        }
      ],
      "name": "isApprovedForAll",
      "outputs": [
        {
          "internalType": "bool",
          "name": "",
          "type": "bool"
        }
      ],
      "stateMutability": "view",
      "type": "function",
      "constant": true
    },
    {
      "inputs": [
        {
          "internalType": "uint256",
          "name": "",
          "type": "uint256"
        }
      ],
      "name": "items",
      "outputs": [
        {
          "internalType": "uint256",
          "name": "id",
          "type": "uint256"
        },
        {
          "internalType": "enum GameItems.ItemType",
          "name": "itemType",
          "type": "uint8"
        },
        {
          "internalType": "string",
          "name": "name",
          "type": "string"
        },
        {
          "internalType": "string",
          "name": "description",
          "type": "string"
        }
      ],
      "stateMutability": "view",
      "type": "function",
      "constant": true
    },
    {
      "inputs": [],
      "name": "owner",
      "outputs": [
        {
          "internalType": "address",
          "name": "",
          "type": "address"
        }
      ],
      "stateMutability": "view",
      "type": "function",
      "constant": true
    },
    {
      "inputs": [],
      "name": "renounceOwnership",
      "outputs": [],
      "stateMutability": "nonpayable",
      "type": "function"
    },
    {
      "inputs": [
        {
          "internalType": "address",
          "name": "from",
          "type": "address"
        },
        {
          "internalType": "address",
          "name": "to",
          "type": "address"
        },
        {
          "internalType": "uint256[]",
          "name": "ids",
          "type": "uint256[]"
        },
        {
          "internalType": "uint256[]",
          "name": "amounts",
          "type": "uint256[]"
        },
        {
          "internalType": "bytes",
          "name": "data",
          "type": "bytes"
        }
      ],
      "name": "safeBatchTransferFrom",
      "outputs": [],
      "stateMutability": "nonpayable",
      "type": "function"
    },
    {
      "inputs": [
        {
          "internalType": "address",
          "name": "from",
          "type": "address"
        },
        {
          "internalType": "address",
          "name": "to",
          "type": "address"
        },
        {
          "internalType": "uint256",
          "name": "id",
          "type": "uint256"
        },
        {
          "internalType": "uint256",
          "name": "amount",
          "type": "uint256"
        },
        {
          "internalType": "bytes",
          "name": "data",
          "type": "bytes"
        }
      ],
      "name": "safeTransferFrom",
      "outputs": [],
      "stateMutability": "nonpayable",
      "type": "function"
    },
    {
      "inputs": [
        {
          "internalType": "address",
          "name": "operator",
          "type": "address"
        },
        {
          "internalType": "bool",
          "name": "approved",
          "type": "bool"
        }
      ],
      "name": "setApprovalForAll",
      "outputs": [],
      "stateMutability": "nonpayable",
      "type": "function"
    },
    {
      "inputs": [
        {
          "internalType": "bytes4",
          "name": "interfaceId",
          "type": "bytes4"
        }
      ],
      "name": "supportsInterface",
      "outputs": [
        {
          "internalType": "bool",
          "name": "",
          "type": "bool"
        }
      ],
      "stateMutability": "view",
      "type": "function",
      "constant": true
    },
    {
      "inputs": [
        {
          "internalType": "address",
          "name": "newOwner",
          "type": "address"
        }
      ],
      "name": "transferOwnership",
      "outputs": [],
      "stateMutability": "nonpayable",
      "type": "function"
    },
    {
      "inputs": [
        {
          "internalType": "uint256",
          "name": "",
          "type": "uint256"
        }
      ],
      "name": "uri",
      "outputs": [
        {
          "internalType": "string",
          "name": "",
          "type": "string"
        }
      ],
      "stateMutability": "view",
      "type": "function",
      "constant": true
    },
    {
      "inputs": [
        {
          "internalType": "enum GameItems.Phase",
          "name": "x",
          "type": "uint8"
        }
      ],
      "name": "changePhase",
      "outputs": [],
      "stateMutability": "nonpayable",
      "type": "function"
    },
    {
      "inputs": [
        {
          "internalType": "enum GameItems.ItemType",
          "name": "itemType",
          "type": "uint8"
        },
        {
          "internalType": "string",
          "name": "name",
          "type": "string"
        },
        {
          "internalType": "string",
          "name": "description",
          "type": "string"
        }
      ],
      "name": "createItem",
      "outputs": [
        {
          "internalType": "uint256",
          "name": "",
          "type": "uint256"
        }
      ],
      "stateMutability": "nonpayable",
      "type": "function"
    },
    {
      "inputs": [
        {
          "internalType": "address",
          "name": "to",
          "type": "address"
        },
        {
          "internalType": "uint256",
          "name": "itemId",
          "type": "uint256"
        },
        {
          "internalType": "uint256",
          "name": "amount",
          "type": "uint256"
        }
      ],
      "name": "mintItem",
      "outputs": [],
      "stateMutability": "nonpayable",
      "type": "function"
    },
    {
      "inputs": [
        {
          "internalType": "address",
          "name": "owner",
          "type": "address"
        },
        {
          "internalType": "uint256",
          "name": "itemId",
          "type": "uint256"
        },
        {
          "internalType": "uint256",
          "name": "amount",
          "type": "uint256"
        }
      ],
      "name": "burnItem",
      "outputs": [],
      "stateMutability": "nonpayable",
      "type": "function"
    },
    {
      "inputs": [
        {
          "internalType": "uint256",
          "name": "itemId",
          "type": "uint256"
        }
      ],
      "name": "purchaseItem",
      "outputs": [],
      "stateMutability": "payable",
      "type": "function",
      "payable": true
    },
    {
      "inputs": [
        {
          "internalType": "uint256",
          "name": "itemId",
          "type": "uint256"
        }
      ],
      "name": "purchaseWithGoldCoin",
      "outputs": [],
      "stateMutability": "nonpayable",
      "type": "function"
    },
    {
      "inputs": [
        {
          "internalType": "address",
          "name": "player",
          "type": "address"
        }
      ],
      "name": "useModPowerUp",
      "outputs": [],
      "stateMutability": "nonpayable",
      "type": "function"
    },
    {
      "inputs": [
        {
          "internalType": "address",
          "name": "player",
          "type": "address"
        }
      ],
      "name": "hasModPowerUp",
      "outputs": [
        {
          "internalType": "bool",
          "name": "",
          "type": "bool"
        }
      ],
      "stateMutability": "view",
      "type": "function",
      "constant": true
    },
    {
      "inputs": [
        {
          "internalType": "address",
          "name": "player",
          "type": "address"
        }
      ],
      "name": "usePowerUp",
      "outputs": [],
      "stateMutability": "nonpayable",
      "type": "function"
    },
    {
      "inputs": [
        {
          "internalType": "address",
          "name": "player",
          "type": "address"
        }
      ],
      "name": "hasPowerUp",
      "outputs": [
        {
          "internalType": "bool",
          "name": "",
          "type": "bool"
        }
      ],
      "stateMutability": "view",
      "type": "function",
      "constant": true
    }
  ],
  "bytecode": "0x60806040526000600660146101000a81548160ff021916908360028111156200002d576200002c62000214565b5b02179055503480156200003f57600080fd5b50604051620051f3380380620051f38339818101604052810190620000659190620002ad565b6040518060200160405280600081525062000086816200013160201b60201c565b50620000a76200009b6200014660201b60201c565b6200014e60201b60201c565b81600560006101000a81548173ffffffffffffffffffffffffffffffffffffffff021916908373ffffffffffffffffffffffffffffffffffffffff16021790555080600660006101000a81548173ffffffffffffffffffffffffffffffffffffffff021916908373ffffffffffffffffffffffffffffffffffffffff160217905550505062000655565b80600290816200014291906200056e565b5050565b600033905090565b6000600360009054906101000a900473ffffffffffffffffffffffffffffffffffffffff16905081600360006101000a81548173ffffffffffffffffffffffffffffffffffffffff021916908373ffffffffffffffffffffffffffffffffffffffff1602179055508173ffffffffffffffffffffffffffffffffffffffff168173ffffffffffffffffffffffffffffffffffffffff167f8be0079c531659141344cd1fd0a4f28419497f9722a3daafe3b4186f6b6457e060405160405180910390a35050565b7f4e487b7100000000000000000000000000000000000000000000000000000000600052602160045260246000fd5b600080fd5b600073ffffffffffffffffffffffffffffffffffffffff82169050919050565b6000620002758262000248565b9050919050565b620002878162000268565b81146200029357600080fd5b50565b600081519050620002a7816200027c565b92915050565b60008060408385031215620002c757620002c662000243565b5b6000620002d78582860162000296565b9250506020620002ea8582860162000296565b9150509250929050565b600081519050919050565b7f4e487b7100000000000000000000000000000000000000000000000000000000600052604160045260246000fd5b7f4e487b7100000000000000000000000000000000000000000000000000000000600052602260045260246000fd5b600060028204905060018216806200037657607f821691505b6020821081036200038c576200038b6200032e565b5b50919050565b60008190508160005260206000209050919050565b60006020601f8301049050919050565b600082821b905092915050565b600060088302620003f67fffffffffffffffffffffffffffffffffffffffffffffffffffffffffffffffff82620003b7565b620004028683620003b7565b95508019841693508086168417925050509392505050565b6000819050919050565b6000819050919050565b60006200044f6200044962000443846200041a565b62000424565b6200041a565b9050919050565b6000819050919050565b6200046b836200042e565b620004836200047a8262000456565b848454620003c4565b825550505050565b600090565b6200049a6200048b565b620004a781848462000460565b505050565b5b81811015620004cf57620004c360008262000490565b600181019050620004ad565b5050565b601f8211156200051e57620004e88162000392565b620004f384620003a7565b8101602085101562000503578190505b6200051b6200051285620003a7565b830182620004ac565b50505b505050565b600082821c905092915050565b6000620005436000198460080262000523565b1980831691505092915050565b60006200055e838362000530565b9150826002028217905092915050565b6200057982620002f4565b67ffffffffffffffff811115620005955762000594620002ff565b5b620005a182546200035d565b620005ae828285620004d3565b600060209050601f831160018114620005e65760008415620005d1578287015190505b620005dd858262000550565b8655506200064d565b601f198416620005f68662000392565b60005b828110156200062057848901518255600182019150602085019450602081019050620005f9565b868310156200064057848901516200063c601f89168262000530565b8355505b6001600288020188555050505b505050505050565b614b8e80620006656000396000f3fe60806040526004361061013f5760003560e01c80638b651827116100b6578063cf0cc75d1161006f578063cf0cc75d14610492578063d2581535146104bb578063d38ea5bf146104e4578063e985e9c514610500578063f242432a1461053d578063f2fde38b146105665761013f565b80638b6518271461036f5780638da5cb5b14610398578063a22cb465146103c3578063ad51c670146103ec578063b0db809a14610429578063bfb231d2146104525761013f565b80632eb2c2d6116101085780632eb2c2d6146102615780633cc893801461028a5780634e1273f4146102b5578063696a50b4146102f25780636c150b2c1461031b578063715018a6146103585761013f565b8062fdd58e1461014457806301ffc9a7146101815780630721c297146101be5780630e89341c146101e757806313e8ee7e14610224575b600080fd5b34801561015057600080fd5b5061016b60048036038101906101669190612cc7565b61058f565b6040516101789190612d16565b60405180910390f35b34801561018d57600080fd5b506101a860048036038101906101a39190612d89565b610657565b6040516101b59190612dd1565b60405180910390f35b3480156101ca57600080fd5b506101e560048036038101906101e09190612e11565b610739565b005b3480156101f357600080fd5b5061020e60048036038101906102099190612e3e565b61076e565b60405161021b9190612efb565b60405180910390f35b34801561023057600080fd5b5061024b60048036038101906102469190612f1d565b610802565b6040516102589190612dd1565b60405180910390f35b34801561026d57600080fd5b5061028860048036038101906102839190613147565b61084d565b005b34801561029657600080fd5b5061029f6108ee565b6040516102ac919061328d565b60405180910390f35b3480156102c157600080fd5b506102dc60048036038101906102d7919061336b565b610901565b6040516102e991906134a1565b60405180910390f35b3480156102fe57600080fd5b50610319600480360381019061031491906134c3565b610a1a565b005b34801561032757600080fd5b50610342600480360381019061033d91906135dc565b610aea565b60405161034f9190612d16565b60405180910390f35b34801561036457600080fd5b5061036d610c03565b005b34801561037b57600080fd5b5061039660048036038101906103919190612f1d565b610c17565b005b3480156103a457600080fd5b506103ad610fa2565b6040516103ba9190613676565b60405180910390f35b3480156103cf57600080fd5b506103ea60048036038101906103e591906136bd565b610fcc565b005b3480156103f857600080fd5b50610413600480360381019061040e9190612f1d565b610fe2565b6040516104209190612dd1565b60405180910390f35b34801561043557600080fd5b50610450600480360381019061044b9190612f1d565b61102d565b005b34801561045e57600080fd5b5061047960048036038101906104749190612e3e565b6113b8565b6040516104899493929190613745565b60405180910390f35b34801561049e57600080fd5b506104b960048036038101906104b49190612e3e565b611505565b005b3480156104c757600080fd5b506104e260048036038101906104dd91906134c3565b61161f565b005b6104fe60048036038101906104f99190612e3e565b6116fe565b005b34801561050c57600080fd5b5061052760048036038101906105229190613798565b611914565b6040516105349190612dd1565b60405180910390f35b34801561054957600080fd5b50610564600480360381019061055f91906137d8565b6119a8565b005b34801561057257600080fd5b5061058d60048036038101906105889190612f1d565b611a49565b005b60008073ffffffffffffffffffffffffffffffffffffffff168373ffffffffffffffffffffffffffffffffffffffff16036105ff576040517f08c379a00000000000000000000000000000000000000000000000000000000081526004016105f6906138e1565b60405180910390fd5b60008083815260200190815260200160002060008473ffffffffffffffffffffffffffffffffffffffff1673ffffffffffffffffffffffffffffffffffffffff16815260200190815260200160002054905092915050565b60007fd9b67a26000000000000000000000000000000000000000000000000000000007bffffffffffffffffffffffffffffffffffffffffffffffffffffffff1916827bffffffffffffffffffffffffffffffffffffffffffffffffffffffff1916148061072257507f0e89341c000000000000000000000000000000000000000000000000000000007bffffffffffffffffffffffffffffffffffffffffffffffffffffffff1916827bffffffffffffffffffffffffffffffffffffffffffffffffffffffff1916145b80610732575061073182611acc565b5b9050919050565b610741611b36565b80600660146101000a81548160ff0219169083600281111561076657610765613216565b5b021790555050565b60606002805461077d90613930565b80601f01602080910402602001604051908101604052809291908181526020018280546107a990613930565b80156107f65780601f106107cb576101008083540402835291602001916107f6565b820191906000526020600020905b8154815290600101906020018083116107d957829003601f168201915b50505050509050919050565b600080600860008473ffffffffffffffffffffffffffffffffffffffff1673ffffffffffffffffffffffffffffffffffffffff16815260200190815260200160002054119050919050565b610855611bb4565b73ffffffffffffffffffffffffffffffffffffffff168573ffffffffffffffffffffffffffffffffffffffff16148061089b575061089a85610895611bb4565b611914565b5b6108da576040517f08c379a00000000000000000000000000000000000000000000000000000000081526004016108d1906139d3565b60405180910390fd5b6108e78585858585611bbc565b5050505050565b600660149054906101000a900460ff1681565b60608151835114610947576040517f08c379a000000000000000000000000000000000000000000000000000000000815260040161093e90613a65565b60405180910390fd5b6000835167ffffffffffffffff81111561096457610963612f4f565b5b6040519080825280602002602001820160405280156109925781602001602082028036833780820191505090505b50905060005b8451811015610a0f576109df8582815181106109b7576109b6613a85565b5b60200260200101518583815181106109d2576109d1613a85565b5b602002602001015161058f565b8282815181106109f2576109f1613a85565b5b60200260200101818152505080610a0890613ae3565b9050610998565b508091505092915050565b610a22611b36565b81600760008481526020019081526020016000206000015414610a7a576040517f08c379a0000000000000000000000000000000000000000000000000000000008152600401610a7190613b77565b60405180910390fd5b610a9583838360405180602001604052806000815250611edd565b8273ffffffffffffffffffffffffffffffffffffffff167fd9be9c40c7e99dfc974fa3fe3b790af02afd2939b5dedfccb1ba12933eb27a8e8383604051610add929190613b97565b60405180910390a2505050565b6000610af4611b36565b610afe600461208d565b6000610b0a60046120a3565b90506040518060800160405280828152602001866002811115610b3057610b2f613216565b5b815260200185815260200184815250600760008381526020019081526020016000206000820151816000015560208201518160010160006101000a81548160ff02191690836002811115610b8757610b86613216565b5b02179055506040820151816002019081610ba19190613d6c565b506060820151816003019081610bb79190613d6c565b509050507fe3786fec9d04be3961f31c0789fa364ced3e8283b71bc5a6ccd1a5b1327622a181868686604051610bf09493929190613745565b60405180910390a1809150509392505050565b610c0b611b36565b610c1560006120b1565b565b6000600860008373ffffffffffffffffffffffffffffffffffffffff1673ffffffffffffffffffffffffffffffffffffffff1681526020019081526020016000205411610c99576040517f08c379a0000000000000000000000000000000000000000000000000000000008152600401610c9090613e8a565b60405180910390fd5b6001600860008373ffffffffffffffffffffffffffffffffffffffff1673ffffffffffffffffffffffffffffffffffffffff1681526020019081526020016000206000828254610ce99190613eaa565b925050819055506000600660009054906101000a900473ffffffffffffffffffffffffffffffffffffffff1673ffffffffffffffffffffffffffffffffffffffff166370a08231836040518263ffffffff1660e01b8152600401610d4d9190613676565b602060405180830381865afa158015610d6a573d6000803e3d6000fd5b505050506040513d601f19601f82011682018060405250810190610d8e9190613ef3565b905060008167ffffffffffffffff811115610dac57610dab612f4f565b5b604051908082528060200260200182016040528015610dda5781602001602082028036833780820191505090505b50905060005b82811015610f4e576000600660009054906101000a900473ffffffffffffffffffffffffffffffffffffffff1673ffffffffffffffffffffffffffffffffffffffff16632f745c5986846040518363ffffffff1660e01b8152600401610e47929190613f20565b602060405180830381865afa158015610e64573d6000803e3d6000fd5b505050506040513d601f19601f82011682018060405250810190610e889190613ef3565b9050600660009054906101000a900473ffffffffffffffffffffffffffffffffffffffff1673ffffffffffffffffffffffffffffffffffffffff1663369e87cc82600a6040518363ffffffff1660e01b8152600401610ee8929190613f84565b600060405180830381600087803b158015610f0257600080fd5b505af1158015610f16573d6000803e3d6000fd5b5050505080838381518110610f2e57610f2d613a85565b5b602002602001018181525050508080610f4690613ae3565b915050610de0565b508273ffffffffffffffffffffffffffffffffffffffff167ff1bb0ce00e3d119057981f306f30fd23b2899482bc1d7550b233f6bac2b28e1a82604051610f9591906134a1565b60405180910390a2505050565b6000600360009054906101000a900473ffffffffffffffffffffffffffffffffffffffff16905090565b610fde610fd7611bb4565b8383612177565b5050565b600080600960008473ffffffffffffffffffffffffffffffffffffffff1673ffffffffffffffffffffffffffffffffffffffff16815260200190815260200160002054119050919050565b6000600960008373ffffffffffffffffffffffffffffffffffffffff1673ffffffffffffffffffffffffffffffffffffffff16815260200190815260200160002054116110af576040517f08c379a00000000000000000000000000000000000000000000000000000000081526004016110a690613ff9565b60405180910390fd5b6001600960008373ffffffffffffffffffffffffffffffffffffffff1673ffffffffffffffffffffffffffffffffffffffff16815260200190815260200160002060008282546110ff9190613eaa565b925050819055506000600660009054906101000a900473ffffffffffffffffffffffffffffffffffffffff1673ffffffffffffffffffffffffffffffffffffffff166370a08231836040518263ffffffff1660e01b81526004016111639190613676565b602060405180830381865afa158015611180573d6000803e3d6000fd5b505050506040513d601f19601f820116820180604052508101906111a49190613ef3565b905060008167ffffffffffffffff8111156111c2576111c1612f4f565b5b6040519080825280602002602001820160405280156111f05781602001602082028036833780820191505090505b50905060005b82811015611364576000600660009054906101000a900473ffffffffffffffffffffffffffffffffffffffff1673ffffffffffffffffffffffffffffffffffffffff16632f745c5986846040518363ffffffff1660e01b815260040161125d929190613f20565b602060405180830381865afa15801561127a573d6000803e3d6000fd5b505050506040513d601f19601f8201168201806040525081019061129e9190613ef3565b9050600660009054906101000a900473ffffffffffffffffffffffffffffffffffffffff1673ffffffffffffffffffffffffffffffffffffffff1663713d895882600a6040518363ffffffff1660e01b81526004016112fe929190613f84565b600060405180830381600087803b15801561131857600080fd5b505af115801561132c573d6000803e3d6000fd5b505050508083838151811061134457611343613a85565b5b60200260200101818152505050808061135c90613ae3565b9150506111f6565b508273ffffffffffffffffffffffffffffffffffffffff167f6e80a7c5f8fac0b714ef287cd8bb45316e76b24becb6773fe75e846be759c094826040516113ab91906134a1565b60405180910390a2505050565b60076020528060005260406000206000915090508060000154908060010160009054906101000a900460ff16908060020180546113f490613930565b80601f016020809104026020016040519081016040528092919081815260200182805461142090613930565b801561146d5780601f106114425761010080835404028352916020019161146d565b820191906000526020600020905b81548152906001019060200180831161145057829003601f168201915b50505050509080600301805461148290613930565b80601f01602080910402602001604051908101604052809291908181526020018280546114ae90613930565b80156114fb5780601f106114d0576101008083540402835291602001916114fb565b820191906000526020600020905b8154815290600101906020018083116114de57829003601f168201915b5050505050905084565b6000601e9050600560009054906101000a900473ffffffffffffffffffffffffffffffffffffffff1673ffffffffffffffffffffffffffffffffffffffff166323b872dd3330846040518463ffffffff1660e01b815260040161156a93929190614019565b6020604051808303816000875af1158015611589573d6000803e3d6000fd5b505050506040513d601f19601f820116820180604052508101906115ad9190614065565b506115ca3383600160405180602001604052806000815250611edd565b3373ffffffffffffffffffffffffffffffffffffffff167f1c707da32414b7aa5f73cda4705ee7b18994631f72e0e2ac5591b23dc53c40c9836001604051611613929190614119565b60405180910390a25050565b8273ffffffffffffffffffffffffffffffffffffffff163373ffffffffffffffffffffffffffffffffffffffff16148061165f575061165e8333611914565b5b61169e576040517f08c379a0000000000000000000000000000000000000000000000000000000008152600401611695906141a1565b60405180910390fd5b6116a98383836122e3565b8273ffffffffffffffffffffffffffffffffffffffff167fca29b5193c49b3f0cb8da1e82b521db2857868fcd608682d536a6444a936460c83836040516116f1929190613b97565b60405180910390a2505050565b80600760008381526020019081526020016000206000015414611756576040517f08c379a000000000000000000000000000000000000000000000000000000000815260040161174d90613b77565b60405180910390fd5b600080600281111561176b5761176a613216565b5b6007600084815260200190815260200160002060010160009054906101000a900460ff1660028111156117a1576117a0613216565b5b036117b657670de0b6b3a76400009050611812565b600160028111156117ca576117c9613216565b5b6007600084815260200190815260200160002060010160009054906101000a900460ff166002811115611800576117ff613216565b5b0361181157671bc16d674ec8000090505b5b80341015611855576040517f08c379a000000000000000000000000000000000000000000000000000000000815260040161184c9061420d565b60405180910390fd5b6118713383600160405180602001604052806000815250611edd565b611879610fa2565b73ffffffffffffffffffffffffffffffffffffffff166108fc349081150290604051600060405180830381858888f193505050501580156118be573d6000803e3d6000fd5b503373ffffffffffffffffffffffffffffffffffffffff167f1c707da32414b7aa5f73cda4705ee7b18994631f72e0e2ac5591b23dc53c40c9836001604051611908929190614279565b60405180910390a25050565b6000600160008473ffffffffffffffffffffffffffffffffffffffff1673ffffffffffffffffffffffffffffffffffffffff16815260200190815260200160002060008373ffffffffffffffffffffffffffffffffffffffff1673ffffffffffffffffffffffffffffffffffffffff16815260200190815260200160002060009054906101000a900460ff16905092915050565b6119b0611bb4565b73ffffffffffffffffffffffffffffffffffffffff168573ffffffffffffffffffffffffffffffffffffffff1614806119f657506119f5856119f0611bb4565b611914565b5b611a35576040517f08c379a0000000000000000000000000000000000000000000000000000000008152600401611a2c906139d3565b60405180910390fd5b611a428585858585612529565b5050505050565b611a51611b36565b600073ffffffffffffffffffffffffffffffffffffffff168173ffffffffffffffffffffffffffffffffffffffff1603611ac0576040517f08c379a0000000000000000000000000000000000000000000000000000000008152600401611ab790614327565b60405180910390fd5b611ac9816120b1565b50565b60007f01ffc9a7000000000000000000000000000000000000000000000000000000007bffffffffffffffffffffffffffffffffffffffffffffffffffffffff1916827bffffffffffffffffffffffffffffffffffffffffffffffffffffffff1916149050919050565b611b3e611bb4565b73ffffffffffffffffffffffffffffffffffffffff16611b5c610fa2565b73ffffffffffffffffffffffffffffffffffffffff1614611bb2576040517f08c379a0000000000000000000000000000000000000000000000000000000008152600401611ba990614393565b60405180910390fd5b565b600033905090565b8151835114611c00576040517f08c379a0000000000000000000000000000000000000000000000000000000008152600401611bf790614425565b60405180910390fd5b600073ffffffffffffffffffffffffffffffffffffffff168473ffffffffffffffffffffffffffffffffffffffff1603611c6f576040517f08c379a0000000000000000000000000000000000000000000000000000000008152600401611c66906144b7565b60405180910390fd5b6000611c79611bb4565b9050611c898187878787876127c4565b60005b8451811015611e3a576000858281518110611caa57611ca9613a85565b5b602002602001015190506000858381518110611cc957611cc8613a85565b5b60200260200101519050600080600084815260200190815260200160002060008b73ffffffffffffffffffffffffffffffffffffffff1673ffffffffffffffffffffffffffffffffffffffff16815260200190815260200160002054905081811015611d6a576040517f08c379a0000000000000000000000000000000000000000000000000000000008152600401611d6190614549565b60405180910390fd5b81810360008085815260200190815260200160002060008c73ffffffffffffffffffffffffffffffffffffffff1673ffffffffffffffffffffffffffffffffffffffff168152602001908152602001600020819055508160008085815260200190815260200160002060008b73ffffffffffffffffffffffffffffffffffffffff1673ffffffffffffffffffffffffffffffffffffffff1681526020019081526020016000206000828254611e1f9190614569565b9250508190555050505080611e3390613ae3565b9050611c8c565b508473ffffffffffffffffffffffffffffffffffffffff168673ffffffffffffffffffffffffffffffffffffffff168273ffffffffffffffffffffffffffffffffffffffff167f4a39dc06d4c0dbc64b70af90fd698a233a518aa5d07e595d983b8c0526c8f7fb8787604051611eb192919061459d565b60405180910390a4611ec78187878787876127cc565b611ed58187878787876127d4565b505050505050565b600073ffffffffffffffffffffffffffffffffffffffff168473ffffffffffffffffffffffffffffffffffffffff1603611f4c576040517f08c379a0000000000000000000000000000000000000000000000000000000008152600401611f4390614646565b60405180910390fd5b6000611f56611bb4565b90506000611f63856129ab565b90506000611f70856129ab565b9050611f81836000898585896127c4565b8460008088815260200190815260200160002060008973ffffffffffffffffffffffffffffffffffffffff1673ffffffffffffffffffffffffffffffffffffffff1681526020019081526020016000206000828254611fe09190614569565b925050819055508673ffffffffffffffffffffffffffffffffffffffff16600073ffffffffffffffffffffffffffffffffffffffff168473ffffffffffffffffffffffffffffffffffffffff167fc3d58168c5ae7397731d063d5bbf3d657854427343f4c083240f7aacaa2d0f62898960405161205e929190613b97565b60405180910390a4612075836000898585896127cc565b61208483600089898989612a25565b50505050505050565b6001816000016000828254019250508190555050565b600081600001549050919050565b6000600360009054906101000a900473ffffffffffffffffffffffffffffffffffffffff16905081600360006101000a81548173ffffffffffffffffffffffffffffffffffffffff021916908373ffffffffffffffffffffffffffffffffffffffff1602179055508173ffffffffffffffffffffffffffffffffffffffff168173ffffffffffffffffffffffffffffffffffffffff167f8be0079c531659141344cd1fd0a4f28419497f9722a3daafe3b4186f6b6457e060405160405180910390a35050565b8173ffffffffffffffffffffffffffffffffffffffff168373ffffffffffffffffffffffffffffffffffffffff16036121e5576040517f08c379a00000000000000000000000000000000000000000000000000000000081526004016121dc906146d8565b60405180910390fd5b80600160008573ffffffffffffffffffffffffffffffffffffffff1673ffffffffffffffffffffffffffffffffffffffff16815260200190815260200160002060008473ffffffffffffffffffffffffffffffffffffffff1673ffffffffffffffffffffffffffffffffffffffff16815260200190815260200160002060006101000a81548160ff0219169083151502179055508173ffffffffffffffffffffffffffffffffffffffff168373ffffffffffffffffffffffffffffffffffffffff167f17307eab39ab6107e8899845ad3d59bd9653f200f220920489ca2b5937696c31836040516122d69190612dd1565b60405180910390a3505050565b600073ffffffffffffffffffffffffffffffffffffffff168373ffffffffffffffffffffffffffffffffffffffff1603612352576040517f08c379a00000000000000000000000000000000000000000000000000000000081526004016123499061476a565b60405180910390fd5b600061235c611bb4565b90506000612369846129ab565b90506000612376846129ab565b9050612396838760008585604051806020016040528060008152506127c4565b600080600087815260200190815260200160002060008873ffffffffffffffffffffffffffffffffffffffff1673ffffffffffffffffffffffffffffffffffffffff1681526020019081526020016000205490508481101561242d576040517f08c379a0000000000000000000000000000000000000000000000000000000008152600401612424906147fc565b60405180910390fd5b84810360008088815260200190815260200160002060008973ffffffffffffffffffffffffffffffffffffffff1673ffffffffffffffffffffffffffffffffffffffff16815260200190815260200160002081905550600073ffffffffffffffffffffffffffffffffffffffff168773ffffffffffffffffffffffffffffffffffffffff168573ffffffffffffffffffffffffffffffffffffffff167fc3d58168c5ae7397731d063d5bbf3d657854427343f4c083240f7aacaa2d0f6289896040516124fa929190613b97565b60405180910390a4612520848860008686604051806020016040528060008152506127cc565b50505050505050565b600073ffffffffffffffffffffffffffffffffffffffff168473ffffffffffffffffffffffffffffffffffffffff1603612598576040517f08c379a000000000000000000000000000000000000000000000000000000000815260040161258f906144b7565b60405180910390fd5b60006125a2611bb4565b905060006125af856129ab565b905060006125bc856129ab565b90506125cc8389898585896127c4565b600080600088815260200190815260200160002060008a73ffffffffffffffffffffffffffffffffffffffff1673ffffffffffffffffffffffffffffffffffffffff16815260200190815260200160002054905085811015612663576040517f08c379a000000000000000000000000000000000000000000000000000000000815260040161265a90614549565b60405180910390fd5b85810360008089815260200190815260200160002060008b73ffffffffffffffffffffffffffffffffffffffff1673ffffffffffffffffffffffffffffffffffffffff168152602001908152602001600020819055508560008089815260200190815260200160002060008a73ffffffffffffffffffffffffffffffffffffffff1673ffffffffffffffffffffffffffffffffffffffff16815260200190815260200160002060008282546127189190614569565b925050819055508773ffffffffffffffffffffffffffffffffffffffff168973ffffffffffffffffffffffffffffffffffffffff168573ffffffffffffffffffffffffffffffffffffffff167fc3d58168c5ae7397731d063d5bbf3d657854427343f4c083240f7aacaa2d0f628a8a604051612795929190613b97565b60405180910390a46127ab848a8a86868a6127cc565b6127b9848a8a8a8a8a612a25565b505050505050505050565b505050505050565b505050505050565b6127f38473ffffffffffffffffffffffffffffffffffffffff16612bfc565b156129a3578373ffffffffffffffffffffffffffffffffffffffff1663bc197c8187878686866040518663ffffffff1660e01b8152600401612839959493929190614871565b6020604051808303816000875af192505050801561287557506040513d601f19601f8201168201806040525081019061287291906148ee565b60015b61291a57612881614928565b806308c379a0036128dd575061289561494a565b806128a057506128df565b806040517f08c379a00000000000000000000000000000000000000000000000000000000081526004016128d49190612efb565b60405180910390fd5b505b6040517f08c379a000000000000000000000000000000000000000000000000000000000815260040161291190614a4c565b60405180910390fd5b63bc197c8160e01b7bffffffffffffffffffffffffffffffffffffffffffffffffffffffff1916817bffffffffffffffffffffffffffffffffffffffffffffffffffffffff1916146129a1576040517f08c379a000000000000000000000000000000000000000000000000000000000815260040161299890614ade565b60405180910390fd5b505b505050505050565b60606000600167ffffffffffffffff8111156129ca576129c9612f4f565b5b6040519080825280602002602001820160405280156129f85781602001602082028036833780820191505090505b5090508281600081518110612a1057612a0f613a85565b5b60200260200101818152505080915050919050565b612a448473ffffffffffffffffffffffffffffffffffffffff16612bfc565b15612bf4578373ffffffffffffffffffffffffffffffffffffffff1663f23a6e6187878686866040518663ffffffff1660e01b8152600401612a8a959493929190614afe565b6020604051808303816000875af1925050508015612ac657506040513d601f19601f82011682018060405250810190612ac391906148ee565b60015b612b6b57612ad2614928565b806308c379a003612b2e5750612ae661494a565b80612af15750612b30565b806040517f08c379a0000000000000000000000000000000000000000000000000000000008152600401612b259190612efb565b60405180910390fd5b505b6040517f08c379a0000000000000000000000000000000000000000000000000000000008152600401612b6290614a4c565b60405180910390fd5b63f23a6e6160e01b7bffffffffffffffffffffffffffffffffffffffffffffffffffffffff1916817bffffffffffffffffffffffffffffffffffffffffffffffffffffffff191614612bf2576040517f08c379a0000000000000000000000000000000000000000000000000000000008152600401612be990614ade565b60405180910390fd5b505b505050505050565b6000808273ffffffffffffffffffffffffffffffffffffffff163b119050919050565b6000604051905090565b600080fd5b600080fd5b600073ffffffffffffffffffffffffffffffffffffffff82169050919050565b6000612c5e82612c33565b9050919050565b612c6e81612c53565b8114612c7957600080fd5b50565b600081359050612c8b81612c65565b92915050565b6000819050919050565b612ca481612c91565b8114612caf57600080fd5b50565b600081359050612cc181612c9b565b92915050565b60008060408385031215612cde57612cdd612c29565b5b6000612cec85828601612c7c565b9250506020612cfd85828601612cb2565b9150509250929050565b612d1081612c91565b82525050565b6000602082019050612d2b6000830184612d07565b92915050565b60007fffffffff0000000000000000000000000000000000000000000000000000000082169050919050565b612d6681612d31565b8114612d7157600080fd5b50565b600081359050612d8381612d5d565b92915050565b600060208284031215612d9f57612d9e612c29565b5b6000612dad84828501612d74565b91505092915050565b60008115159050919050565b612dcb81612db6565b82525050565b6000602082019050612de66000830184612dc2565b92915050565b60038110612df957600080fd5b50565b600081359050612e0b81612dec565b92915050565b600060208284031215612e2757612e26612c29565b5b6000612e3584828501612dfc565b91505092915050565b600060208284031215612e5457612e53612c29565b5b6000612e6284828501612cb2565b91505092915050565b600081519050919050565b600082825260208201905092915050565b60005b83811015612ea5578082015181840152602081019050612e8a565b60008484015250505050565b6000601f19601f8301169050919050565b6000612ecd82612e6b565b612ed78185612e76565b9350612ee7818560208601612e87565b612ef081612eb1565b840191505092915050565b60006020820190508181036000830152612f158184612ec2565b905092915050565b600060208284031215612f3357612f32612c29565b5b6000612f4184828501612c7c565b91505092915050565b600080fd5b7f4e487b7100000000000000000000000000000000000000000000000000000000600052604160045260246000fd5b612f8782612eb1565b810181811067ffffffffffffffff82111715612fa657612fa5612f4f565b5b80604052505050565b6000612fb9612c1f565b9050612fc58282612f7e565b919050565b600067ffffffffffffffff821115612fe557612fe4612f4f565b5b602082029050602081019050919050565b600080fd5b600061300e61300984612fca565b612faf565b9050808382526020820190506020840283018581111561303157613030612ff6565b5b835b8181101561305a57806130468882612cb2565b845260208401935050602081019050613033565b5050509392505050565b600082601f83011261307957613078612f4a565b5b8135613089848260208601612ffb565b91505092915050565b600080fd5b600067ffffffffffffffff8211156130b2576130b1612f4f565b5b6130bb82612eb1565b9050602081019050919050565b82818337600083830152505050565b60006130ea6130e584613097565b612faf565b90508281526020810184848401111561310657613105613092565b5b6131118482856130c8565b509392505050565b600082601f83011261312e5761312d612f4a565b5b813561313e8482602086016130d7565b91505092915050565b600080600080600060a0868803121561316357613162612c29565b5b600061317188828901612c7c565b955050602061318288828901612c7c565b945050604086013567ffffffffffffffff8111156131a3576131a2612c2e565b5b6131af88828901613064565b935050606086013567ffffffffffffffff8111156131d0576131cf612c2e565b5b6131dc88828901613064565b925050608086013567ffffffffffffffff8111156131fd576131fc612c2e565b5b61320988828901613119565b9150509295509295909350565b7f4e487b7100000000000000000000000000000000000000000000000000000000600052602160045260246000fd5b6003811061325657613255613216565b5b50565b600081905061326782613245565b919050565b600061327782613259565b9050919050565b6132878161326c565b82525050565b60006020820190506132a2600083018461327e565b92915050565b600067ffffffffffffffff8211156132c3576132c2612f4f565b5b602082029050602081019050919050565b60006132e76132e2846132a8565b612faf565b9050808382526020820190506020840283018581111561330a57613309612ff6565b5b835b81811015613333578061331f8882612c7c565b84526020840193505060208101905061330c565b5050509392505050565b600082601f83011261335257613351612f4a565b5b81356133628482602086016132d4565b91505092915050565b6000806040838503121561338257613381612c29565b5b600083013567ffffffffffffffff8111156133a05761339f612c2e565b5b6133ac8582860161333d565b925050602083013567ffffffffffffffff8111156133cd576133cc612c2e565b5b6133d985828601613064565b9150509250929050565b600081519050919050565b600082825260208201905092915050565b6000819050602082019050919050565b61341881612c91565b82525050565b600061342a838361340f565b60208301905092915050565b6000602082019050919050565b600061344e826133e3565b61345881856133ee565b9350613463836133ff565b8060005b8381101561349457815161347b888261341e565b975061348683613436565b925050600181019050613467565b5085935050505092915050565b600060208201905081810360008301526134bb8184613443565b905092915050565b6000806000606084860312156134dc576134db612c29565b5b60006134ea86828701612c7c565b93505060206134fb86828701612cb2565b925050604061350c86828701612cb2565b9150509250925092565b6003811061352357600080fd5b50565b60008135905061353581613516565b92915050565b600067ffffffffffffffff82111561355657613555612f4f565b5b61355f82612eb1565b9050602081019050919050565b600061357f61357a8461353b565b612faf565b90508281526020810184848401111561359b5761359a613092565b5b6135a68482856130c8565b509392505050565b600082601f8301126135c3576135c2612f4a565b5b81356135d384826020860161356c565b91505092915050565b6000806000606084860312156135f5576135f4612c29565b5b600061360386828701613526565b935050602084013567ffffffffffffffff81111561362457613623612c2e565b5b613630868287016135ae565b925050604084013567ffffffffffffffff81111561365157613650612c2e565b5b61365d868287016135ae565b9150509250925092565b61367081612c53565b82525050565b600060208201905061368b6000830184613667565b92915050565b61369a81612db6565b81146136a557600080fd5b50565b6000813590506136b781613691565b92915050565b600080604083850312156136d4576136d3612c29565b5b60006136e285828601612c7c565b92505060206136f3858286016136a8565b9150509250929050565b6003811061370e5761370d613216565b5b50565b600081905061371f826136fd565b919050565b600061372f82613711565b9050919050565b61373f81613724565b82525050565b600060808201905061375a6000830187612d07565b6137676020830186613736565b81810360408301526137798185612ec2565b9050818103606083015261378d8184612ec2565b905095945050505050565b600080604083850312156137af576137ae612c29565b5b60006137bd85828601612c7c565b92505060206137ce85828601612c7c565b9150509250929050565b600080600080600060a086880312156137f4576137f3612c29565b5b600061380288828901612c7c565b955050602061381388828901612c7c565b945050604061382488828901612cb2565b935050606061383588828901612cb2565b925050608086013567ffffffffffffffff81111561385657613855612c2e565b5b61386288828901613119565b9150509295509295909350565b7f455243313135353a2061646472657373207a65726f206973206e6f742061207660008201527f616c6964206f776e657200000000000000000000000000000000000000000000602082015250565b60006138cb602a83612e76565b91506138d68261386f565b604082019050919050565b600060208201905081810360008301526138fa816138be565b9050919050565b7f4e487b7100000000000000000000000000000000000000000000000000000000600052602260045260246000fd5b6000600282049050600182168061394857607f821691505b60208210810361395b5761395a613901565b5b50919050565b7f455243313135353a2063616c6c6572206973206e6f7420746f6b656e206f776e60008201527f6572206f7220617070726f766564000000000000000000000000000000000000602082015250565b60006139bd602e83612e76565b91506139c882613961565b604082019050919050565b600060208201905081810360008301526139ec816139b0565b9050919050565b7f455243313135353a206163636f756e747320616e6420696473206c656e67746860008201527f206d69736d617463680000000000000000000000000000000000000000000000602082015250565b6000613a4f602983612e76565b9150613a5a826139f3565b604082019050919050565b60006020820190508181036000830152613a7e81613a42565b9050919050565b7f4e487b7100000000000000000000000000000000000000000000000000000000600052603260045260246000fd5b7f4e487b7100000000000000000000000000000000000000000000000000000000600052601160045260246000fd5b6000613aee82612c91565b91507fffffffffffffffffffffffffffffffffffffffffffffffffffffffffffffffff8203613b2057613b1f613ab4565b5b600182019050919050565b7f4974656d20646f6573206e6f742065786973742e000000000000000000000000600082015250565b6000613b61601483612e76565b9150613b6c82613b2b565b602082019050919050565b60006020820190508181036000830152613b9081613b54565b9050919050565b6000604082019050613bac6000830185612d07565b613bb96020830184612d07565b9392505050565b60008190508160005260206000209050919050565b60006020601f8301049050919050565b600082821b905092915050565b600060088302613c227fffffffffffffffffffffffffffffffffffffffffffffffffffffffffffffffff82613be5565b613c2c8683613be5565b95508019841693508086168417925050509392505050565b6000819050919050565b6000613c69613c64613c5f84612c91565b613c44565b612c91565b9050919050565b6000819050919050565b613c8383613c4e565b613c97613c8f82613c70565b848454613bf2565b825550505050565b600090565b613cac613c9f565b613cb7818484613c7a565b505050565b5b81811015613cdb57613cd0600082613ca4565b600181019050613cbd565b5050565b601f821115613d2057613cf181613bc0565b613cfa84613bd5565b81016020851015613d09578190505b613d1d613d1585613bd5565b830182613cbc565b50505b505050565b600082821c905092915050565b6000613d4360001984600802613d25565b1980831691505092915050565b6000613d5c8383613d32565b9150826002028217905092915050565b613d7582612e6b565b67ffffffffffffffff811115613d8e57613d8d612f4f565b5b613d988254613930565b613da3828285613cdf565b600060209050601f831160018114613dd65760008415613dc4578287015190505b613dce8582613d50565b865550613e36565b601f198416613de486613bc0565b60005b82811015613e0c57848901518255600182019150602085019450602081019050613de7565b86831015613e295784890151613e25601f891682613d32565b8355505b6001600288020188555050505b505050505050565b7f4e6f20706f7765722d75707320617661696c61626c6500000000000000000000600082015250565b6000613e74601683612e76565b9150613e7f82613e3e565b602082019050919050565b60006020820190508181036000830152613ea381613e67565b9050919050565b6000613eb582612c91565b9150613ec083612c91565b9250828203905081811115613ed857613ed7613ab4565b5b92915050565b600081519050613eed81612c9b565b92915050565b600060208284031215613f0957613f08612c29565b5b6000613f1784828501613ede565b91505092915050565b6000604082019050613f356000830185613667565b613f426020830184612d07565b9392505050565b6000819050919050565b6000613f6e613f69613f6484613f49565b613c44565b612c91565b9050919050565b613f7e81613f53565b82525050565b6000604082019050613f996000830185612d07565b613fa66020830184613f75565b9392505050565b7f4e6f206d6f6420706f7765722d75707320617661696c61626c65000000000000600082015250565b6000613fe3601a83612e76565b9150613fee82613fad565b602082019050919050565b6000602082019050818103600083015261401281613fd6565b9050919050565b600060608201905061402e6000830186613667565b61403b6020830185613667565b6140486040830184612d07565b949350505050565b60008151905061405f81613691565b92915050565b60006020828403121561407b5761407a612c29565b5b600061408984828501614050565b91505092915050565b6000819050919050565b60006140b76140b26140ad84614092565b613c44565b612c91565b9050919050565b6140c78161409c565b82525050565b7f476f6c64436f696e000000000000000000000000000000000000000000000000600082015250565b6000614103600883612e76565b915061410e826140cd565b602082019050919050565b600060608201905061412e6000830185612d07565b61413b60208301846140be565b818103604083015261414c816140f6565b90509392505050565b7f4e6f7420617574686f72697a65642e0000000000000000000000000000000000600082015250565b600061418b600f83612e76565b915061419682614155565b602082019050919050565b600060208201905081810360008301526141ba8161417e565b9050919050565b7f496e73756666696369656e74204554482073656e742e00000000000000000000600082015250565b60006141f7601683612e76565b9150614202826141c1565b602082019050919050565b60006020820190508181036000830152614226816141ea565b9050919050565b7f4554480000000000000000000000000000000000000000000000000000000000600082015250565b6000614263600383612e76565b915061426e8261422d565b602082019050919050565b600060608201905061428e6000830185612d07565b61429b60208301846140be565b81810360408301526142ac81614256565b90509392505050565b7f4f776e61626c653a206e6577206f776e657220697320746865207a65726f206160008201527f6464726573730000000000000000000000000000000000000000000000000000602082015250565b6000614311602683612e76565b915061431c826142b5565b604082019050919050565b6000602082019050818103600083015261434081614304565b9050919050565b7f4f776e61626c653a2063616c6c6572206973206e6f7420746865206f776e6572600082015250565b600061437d602083612e76565b915061438882614347565b602082019050919050565b600060208201905081810360008301526143ac81614370565b9050919050565b7f455243313135353a2069647320616e6420616d6f756e7473206c656e6774682060008201527f6d69736d61746368000000000000000000000000000000000000000000000000602082015250565b600061440f602883612e76565b915061441a826143b3565b604082019050919050565b6000602082019050818103600083015261443e81614402565b9050919050565b7f455243313135353a207472616e7366657220746f20746865207a65726f20616460008201527f6472657373000000000000000000000000000000000000000000000000000000602082015250565b60006144a1602583612e76565b91506144ac82614445565b604082019050919050565b600060208201905081810360008301526144d081614494565b9050919050565b7f455243313135353a20696e73756666696369656e742062616c616e636520666f60008201527f72207472616e7366657200000000000000000000000000000000000000000000602082015250565b6000614533602a83612e76565b915061453e826144d7565b604082019050919050565b6000602082019050818103600083015261456281614526565b9050919050565b600061457482612c91565b915061457f83612c91565b925082820190508082111561459757614596613ab4565b5b92915050565b600060408201905081810360008301526145b78185613443565b905081810360208301526145cb8184613443565b90509392505050565b7f455243313135353a206d696e7420746f20746865207a65726f2061646472657360008201527f7300000000000000000000000000000000000000000000000000000000000000602082015250565b6000614630602183612e76565b915061463b826145d4565b604082019050919050565b6000602082019050818103600083015261465f81614623565b9050919050565b7f455243313135353a2073657474696e6720617070726f76616c2073746174757360008201527f20666f722073656c660000000000000000000000000000000000000000000000602082015250565b60006146c2602983612e76565b91506146cd82614666565b604082019050919050565b600060208201905081810360008301526146f1816146b5565b9050919050565b7f455243313135353a206275726e2066726f6d20746865207a65726f206164647260008201527f6573730000000000000000000000000000000000000000000000000000000000602082015250565b6000614754602383612e76565b915061475f826146f8565b604082019050919050565b6000602082019050818103600083015261478381614747565b9050919050565b7f455243313135353a206275726e20616d6f756e7420657863656564732062616c60008201527f616e636500000000000000000000000000000000000000000000000000000000602082015250565b60006147e6602483612e76565b91506147f18261478a565b604082019050919050565b60006020820190508181036000830152614815816147d9565b9050919050565b600081519050919050565b600082825260208201905092915050565b60006148438261481c565b61484d8185614827565b935061485d818560208601612e87565b61486681612eb1565b840191505092915050565b600060a0820190506148866000830188613667565b6148936020830187613667565b81810360408301526148a58186613443565b905081810360608301526148b98185613443565b905081810360808301526148cd8184614838565b90509695505050505050565b6000815190506148e881612d5d565b92915050565b60006020828403121561490457614903612c29565b5b6000614912848285016148d9565b91505092915050565b60008160e01c9050919050565b600060033d11156149475760046000803e61494460005161491b565b90505b90565b600060443d106149d75761495c612c1f565b60043d036004823e80513d602482011167ffffffffffffffff821117156149845750506149d7565b808201805167ffffffffffffffff8111156149a257505050506149d7565b80602083010160043d0385018111156149bf5750505050506149d7565b6149ce82602001850186612f7e565b82955050505050505b90565b7f455243313135353a207472616e7366657220746f206e6f6e2d4552433131353560008201527f526563656976657220696d706c656d656e746572000000000000000000000000602082015250565b6000614a36603483612e76565b9150614a41826149da565b604082019050919050565b60006020820190508181036000830152614a6581614a29565b9050919050565b7f455243313135353a204552433131353552656365697665722072656a6563746560008201527f6420746f6b656e73000000000000000000000000000000000000000000000000602082015250565b6000614ac8602883612e76565b9150614ad382614a6c565b604082019050919050565b60006020820190508181036000830152614af781614abb565b9050919050565b600060a082019050614b136000830188613667565b614b206020830187613667565b614b2d6040830186612d07565b614b3a6060830185612d07565b8181036080830152614b4c8184614838565b9050969550505050505056fea2646970667358221220f6d29d805bf165f5e01f662df2327085d9191fa9ca2959e7498c18e7c2b9cd0a64736f6c63430008130033",
  "immutableReferences": {},
  "source": "// SPDX-License-Identifier: MIT\npragma solidity ^0.8.19;\n\nimport \"@openzeppelin/contracts/token/ERC1155/ERC1155.sol\";\nimport \"@openzeppelin/contracts/utils/Counters.sol\";\nimport \"@openzeppelin/contracts/access/Ownable.sol\";\nimport \"./ERC20SmartContract.sol\"; // Importing the local ERC20 contract.\nimport \"./ERC721SmartContract.sol\"; // Importing the local ERC721 contract.\n\ncontract GameItems is ERC1155, Ownable {\n    using Counters for Counters.Counter;\n    Counters.Counter private _itemIds;\n\n    // Addresses of the deployed ERC20 and ERC721 contracts\n    GoldCoin private erc20Token;\n    UniqueCards private erc721Token;\n\n    enum Phase {\n        Register,\n        Play,\n        Done\n    }\n    Phase public currPhase = Phase.Register;\n    //modifiers\n    modifier validPhase(Phase reqPhase) {\n        require(currPhase == reqPhase);\n        _;\n    }\n\n    function changePhase(Phase x) public onlyOwner {\n        // require(x > currPhase);\n        currPhase = x;\n    }\n\n    enum ItemType {\n        PowerUp,\n        Mod,\n        UniqueAttribute\n    }\n    struct Item {\n        uint256 id;\n        ItemType itemType;\n        string name;\n        string description;\n    }\n    mapping(uint256 => Item) public items;\n    mapping(address => uint256) private playerPowerUps;\n    mapping(address => uint256) private playerModPowerUps;\n\n    // Event declarations\n    event ItemCreated(\n        uint256 itemId,\n        ItemType itemType,\n        string name,\n        string description\n    );\n    event ItemMinted(address indexed to, uint256 itemId, uint256 amount);\n    event ItemBurned(address indexed owner, uint256 itemId, uint256 amount);\n    event ItemPurchased(\n        address indexed buyer,\n        uint256 itemId,\n        uint256 amount,\n        string paymentType\n    );\n    event PowerUpUsed(address indexed player, uint256[] cardIds);\n    event ModPowerUpUsed(address indexed player, uint256[] cardIds);\n\n    constructor(\n        address _erc20Address,\n        address _erc721Address\n    ) ERC1155(\"\") Ownable() {\n        erc20Token = GoldCoin(_erc20Address);\n        erc721Token = UniqueCards(_erc721Address);\n    }\n\n    function createItem(\n        ItemType itemType,\n        string memory name,\n        string memory description\n    ) external onlyOwner returns (uint256) {\n        _itemIds.increment();\n        uint256 newItemId = _itemIds.current();\n        items[newItemId] = Item({\n            id: newItemId,\n            itemType: itemType,\n            name: name,\n            description: description\n        });\n        emit ItemCreated(newItemId, itemType, name, description);\n        return newItemId;\n    }\n\n    function mintItem(\n        address to,\n        uint256 itemId,\n        uint256 amount\n    ) external onlyOwner {\n        require(items[itemId].id == itemId, \"Item does not exist.\");\n        _mint(to, itemId, amount, \"\");\n        emit ItemMinted(to, itemId, amount);\n    }\n\n    function burnItem(address owner, uint256 itemId, uint256 amount) external {\n        require(\n            msg.sender == owner || isApprovedForAll(owner, msg.sender),\n            \"Not authorized.\"\n        );\n        _burn(owner, itemId, amount);\n        emit ItemBurned(owner, itemId, amount);\n    }\n\n    function purchaseItem(uint256 itemId) external payable {\n        require(items[itemId].id == itemId, \"Item does not exist.\");\n        uint256 price;\n\n        if (items[itemId].itemType == ItemType.PowerUp) {\n            price = 1 * 1e18;\n        } else if (items[itemId].itemType == ItemType.Mod) {\n            price = 2 * 1e18;\n        }\n\n        require(msg.value >= price, \"Insufficient ETH sent.\");\n        _mint(msg.sender, itemId, 1, \"\");\n        payable(owner()).transfer(msg.value);\n        emit ItemPurchased(msg.sender, itemId, 1, \"ETH\");\n    }\n\n    function purchaseWithGoldCoin(uint256 itemId) external {\n        uint256 price = 30; // Example price for items\n        erc20Token.transferFrom(msg.sender, address(this), price);\n        _mint(msg.sender, itemId, 1, \"\");\n        emit ItemPurchased(msg.sender, itemId, 1, \"GoldCoin\");\n    }\n\n    function useModPowerUp(address player) external {\n        require(playerModPowerUps[player] > 0, \"No mod power-ups available\");\n        playerModPowerUps[player] -= 1;\n        uint256 cardCount = erc721Token.balanceOf(player);\n        uint256[] memory cardIds = new uint256[](cardCount);\n        for (uint256 i = 0; i < cardCount; i++) {\n            uint256 cardId = erc721Token.tokenOfOwnerByIndex(player, i);\n            erc721Token.increaseCardDefense(cardId, 10); // Modify the attribute increase as needed\n            cardIds[i] = cardId;\n        }\n        emit ModPowerUpUsed(player, cardIds);\n    }\n\n    function hasModPowerUp(address player) external view returns (bool) {\n        return playerModPowerUps[player] > 0;\n    }\n\n    function usePowerUp(address player) external {\n        require(playerPowerUps[player] > 0, \"No power-ups available\");\n        playerPowerUps[player] -= 1;\n        uint256 cardCount = erc721Token.balanceOf(player);\n        uint256[] memory cardIds = new uint256[](cardCount);\n        for (uint256 i = 0; i < cardCount; i++) {\n            uint256 cardId = erc721Token.tokenOfOwnerByIndex(player, i);\n            erc721Token.increaseCardAttack(cardId, 10);\n            cardIds[i] = cardId;\n        }\n        emit PowerUpUsed(player, cardIds);\n    }\n\n    function hasPowerUp(address player) external view returns (bool) {\n        return playerPowerUps[player] > 0;\n    }\n}\n",
  "sourcePath": "/Users/kartiksehgal/Code/git/BlockchainProject/newBlockchainProject/BlockchainProject/contracts/ERC1155SmartContract.sol",
  "compiler": {
    "name": "solc",
    "version": "0.8.19+commit.7dd6d404.Emscripten.clang"
  },
  "schemaVersion": "3.4.16",
  "updatedAt": "2023-12-03T22:29:51.839Z",
  "networkType": "ethereum",
  "devdoc": {
    "events": {
      "ApprovalForAll(address,address,bool)": {
        "details": "Emitted when `account` grants or revokes permission to `operator` to transfer their tokens, according to `approved`."
      },
      "TransferBatch(address,address,address,uint256[],uint256[])": {
        "details": "Equivalent to multiple {TransferSingle} events, where `operator`, `from` and `to` are the same for all transfers."
      },
      "TransferSingle(address,address,address,uint256,uint256)": {
        "details": "Emitted when `value` tokens of token type `id` are transferred from `from` to `to` by `operator`."
      },
      "URI(string,uint256)": {
        "details": "Emitted when the URI for token type `id` changes to `value`, if it is a non-programmatic URI. If an {URI} event was emitted for `id`, the standard https://eips.ethereum.org/EIPS/eip-1155#metadata-extensions[guarantees] that `value` will equal the value returned by {IERC1155MetadataURI-uri}."
      }
    },
    "kind": "dev",
    "methods": {
      "balanceOf(address,uint256)": {
        "details": "See {IERC1155-balanceOf}. Requirements: - `account` cannot be the zero address."
      },
      "balanceOfBatch(address[],uint256[])": {
        "details": "See {IERC1155-balanceOfBatch}. Requirements: - `accounts` and `ids` must have the same length."
      },
      "isApprovedForAll(address,address)": {
        "details": "See {IERC1155-isApprovedForAll}."
      },
      "owner()": {
        "details": "Returns the address of the current owner."
      },
      "renounceOwnership()": {
        "details": "Leaves the contract without owner. It will not be possible to call `onlyOwner` functions. Can only be called by the current owner. NOTE: Renouncing ownership will leave the contract without an owner, thereby disabling any functionality that is only available to the owner."
      },
      "safeBatchTransferFrom(address,address,uint256[],uint256[],bytes)": {
        "details": "See {IERC1155-safeBatchTransferFrom}."
      },
      "safeTransferFrom(address,address,uint256,uint256,bytes)": {
        "details": "See {IERC1155-safeTransferFrom}."
      },
      "setApprovalForAll(address,bool)": {
        "details": "See {IERC1155-setApprovalForAll}."
      },
      "supportsInterface(bytes4)": {
        "details": "See {IERC165-supportsInterface}."
      },
      "transferOwnership(address)": {
        "details": "Transfers ownership of the contract to a new account (`newOwner`). Can only be called by the current owner."
      },
      "uri(uint256)": {
        "details": "See {IERC1155MetadataURI-uri}. This implementation returns the same URI for *all* token types. It relies on the token type ID substitution mechanism https://eips.ethereum.org/EIPS/eip-1155#metadata[defined in the EIP]. Clients calling this function must replace the `\\{id\\}` substring with the actual token type ID."
      }
    },
    "version": 1
  },
  "userdoc": {
    "kind": "user",
    "methods": {},
    "version": 1
  }
}