{
  "contractName": "GameItems",
  "abi": [
    {
      "inputs": [
        {
          "internalType": "address",
          "name": "_erc20Address",
          "type": "address"
        },
        {
          "internalType": "address",
          "name": "_erc721Address",
          "type": "address"
        }
      ],
      "stateMutability": "nonpayable",
      "type": "constructor"
    },
    {
      "anonymous": false,
      "inputs": [
        {
          "indexed": true,
          "internalType": "address",
          "name": "account",
          "type": "address"
        },
        {
          "indexed": true,
          "internalType": "address",
          "name": "operator",
          "type": "address"
        },
        {
          "indexed": false,
          "internalType": "bool",
          "name": "approved",
          "type": "bool"
        }
      ],
      "name": "ApprovalForAll",
      "type": "event"
    },
    {
      "anonymous": false,
      "inputs": [
        {
          "indexed": true,
          "internalType": "address",
          "name": "owner",
          "type": "address"
        },
        {
          "indexed": false,
          "internalType": "uint256",
          "name": "itemId",
          "type": "uint256"
        },
        {
          "indexed": false,
          "internalType": "uint256",
          "name": "amount",
          "type": "uint256"
        }
      ],
      "name": "ItemBurned",
      "type": "event"
    },
    {
      "anonymous": false,
      "inputs": [
        {
          "indexed": false,
          "internalType": "uint256",
          "name": "itemId",
          "type": "uint256"
        },
        {
          "indexed": false,
          "internalType": "enum GameItems.ItemType",
          "name": "itemType",
          "type": "uint8"
        },
        {
          "indexed": false,
          "internalType": "string",
          "name": "name",
          "type": "string"
        },
        {
          "indexed": false,
          "internalType": "string",
          "name": "description",
          "type": "string"
        }
      ],
      "name": "ItemCreated",
      "type": "event"
    },
    {
      "anonymous": false,
      "inputs": [
        {
          "indexed": true,
          "internalType": "address",
          "name": "to",
          "type": "address"
        },
        {
          "indexed": false,
          "internalType": "uint256",
          "name": "itemId",
          "type": "uint256"
        },
        {
          "indexed": false,
          "internalType": "uint256",
          "name": "amount",
          "type": "uint256"
        }
      ],
      "name": "ItemMinted",
      "type": "event"
    },
    {
      "anonymous": false,
      "inputs": [
        {
          "indexed": true,
          "internalType": "address",
          "name": "buyer",
          "type": "address"
        },
        {
          "indexed": false,
          "internalType": "uint256",
          "name": "itemId",
          "type": "uint256"
        },
        {
          "indexed": false,
          "internalType": "uint256",
          "name": "amount",
          "type": "uint256"
        },
        {
          "indexed": false,
          "internalType": "string",
          "name": "paymentType",
          "type": "string"
        }
      ],
      "name": "ItemPurchased",
      "type": "event"
    },
    {
      "anonymous": false,
      "inputs": [
        {
          "indexed": true,
          "internalType": "address",
          "name": "previousOwner",
          "type": "address"
        },
        {
          "indexed": true,
          "internalType": "address",
          "name": "newOwner",
          "type": "address"
        }
      ],
      "name": "OwnershipTransferred",
      "type": "event"
    },
    {
      "anonymous": false,
      "inputs": [
        {
          "indexed": true,
          "internalType": "address",
          "name": "player",
          "type": "address"
        },
        {
          "indexed": false,
          "internalType": "uint256[]",
          "name": "cardIds",
          "type": "uint256[]"
        }
      ],
      "name": "PowerUpUsed",
      "type": "event"
    },
    {
      "anonymous": false,
      "inputs": [
        {
          "indexed": true,
          "internalType": "address",
          "name": "operator",
          "type": "address"
        },
        {
          "indexed": true,
          "internalType": "address",
          "name": "from",
          "type": "address"
        },
        {
          "indexed": true,
          "internalType": "address",
          "name": "to",
          "type": "address"
        },
        {
          "indexed": false,
          "internalType": "uint256[]",
          "name": "ids",
          "type": "uint256[]"
        },
        {
          "indexed": false,
          "internalType": "uint256[]",
          "name": "values",
          "type": "uint256[]"
        }
      ],
      "name": "TransferBatch",
      "type": "event"
    },
    {
      "anonymous": false,
      "inputs": [
        {
          "indexed": true,
          "internalType": "address",
          "name": "operator",
          "type": "address"
        },
        {
          "indexed": true,
          "internalType": "address",
          "name": "from",
          "type": "address"
        },
        {
          "indexed": true,
          "internalType": "address",
          "name": "to",
          "type": "address"
        },
        {
          "indexed": false,
          "internalType": "uint256",
          "name": "id",
          "type": "uint256"
        },
        {
          "indexed": false,
          "internalType": "uint256",
          "name": "value",
          "type": "uint256"
        }
      ],
      "name": "TransferSingle",
      "type": "event"
    },
    {
      "anonymous": false,
      "inputs": [
        {
          "indexed": false,
          "internalType": "string",
          "name": "value",
          "type": "string"
        },
        {
          "indexed": true,
          "internalType": "uint256",
          "name": "id",
          "type": "uint256"
        }
      ],
      "name": "URI",
      "type": "event"
    },
    {
      "inputs": [
        {
          "internalType": "address",
          "name": "account",
          "type": "address"
        },
        {
          "internalType": "uint256",
          "name": "id",
          "type": "uint256"
        }
      ],
      "name": "balanceOf",
      "outputs": [
        {
          "internalType": "uint256",
          "name": "",
          "type": "uint256"
        }
      ],
      "stateMutability": "view",
      "type": "function"
    },
    {
      "inputs": [
        {
          "internalType": "address[]",
          "name": "accounts",
          "type": "address[]"
        },
        {
          "internalType": "uint256[]",
          "name": "ids",
          "type": "uint256[]"
        }
      ],
      "name": "balanceOfBatch",
      "outputs": [
        {
          "internalType": "uint256[]",
          "name": "",
          "type": "uint256[]"
        }
      ],
      "stateMutability": "view",
      "type": "function"
    },
    {
      "inputs": [],
      "name": "currPhase",
      "outputs": [
        {
          "internalType": "enum GameItems.Phase",
          "name": "",
          "type": "uint8"
        }
      ],
      "stateMutability": "view",
      "type": "function"
    },
    {
      "inputs": [
        {
          "internalType": "address",
          "name": "account",
          "type": "address"
        },
        {
          "internalType": "address",
          "name": "operator",
          "type": "address"
        }
      ],
      "name": "isApprovedForAll",
      "outputs": [
        {
          "internalType": "bool",
          "name": "",
          "type": "bool"
        }
      ],
      "stateMutability": "view",
      "type": "function"
    },
    {
      "inputs": [
        {
          "internalType": "uint256",
          "name": "",
          "type": "uint256"
        }
      ],
      "name": "items",
      "outputs": [
        {
          "internalType": "uint256",
          "name": "id",
          "type": "uint256"
        },
        {
          "internalType": "enum GameItems.ItemType",
          "name": "itemType",
          "type": "uint8"
        },
        {
          "internalType": "string",
          "name": "name",
          "type": "string"
        },
        {
          "internalType": "string",
          "name": "description",
          "type": "string"
        }
      ],
      "stateMutability": "view",
      "type": "function"
    },
    {
      "inputs": [],
      "name": "owner",
      "outputs": [
        {
          "internalType": "address",
          "name": "",
          "type": "address"
        }
      ],
      "stateMutability": "view",
      "type": "function"
    },
    {
      "inputs": [],
      "name": "renounceOwnership",
      "outputs": [],
      "stateMutability": "nonpayable",
      "type": "function"
    },
    {
      "inputs": [
        {
          "internalType": "address",
          "name": "from",
          "type": "address"
        },
        {
          "internalType": "address",
          "name": "to",
          "type": "address"
        },
        {
          "internalType": "uint256[]",
          "name": "ids",
          "type": "uint256[]"
        },
        {
          "internalType": "uint256[]",
          "name": "amounts",
          "type": "uint256[]"
        },
        {
          "internalType": "bytes",
          "name": "data",
          "type": "bytes"
        }
      ],
      "name": "safeBatchTransferFrom",
      "outputs": [],
      "stateMutability": "nonpayable",
      "type": "function"
    },
    {
      "inputs": [
        {
          "internalType": "address",
          "name": "from",
          "type": "address"
        },
        {
          "internalType": "address",
          "name": "to",
          "type": "address"
        },
        {
          "internalType": "uint256",
          "name": "id",
          "type": "uint256"
        },
        {
          "internalType": "uint256",
          "name": "amount",
          "type": "uint256"
        },
        {
          "internalType": "bytes",
          "name": "data",
          "type": "bytes"
        }
      ],
      "name": "safeTransferFrom",
      "outputs": [],
      "stateMutability": "nonpayable",
      "type": "function"
    },
    {
      "inputs": [
        {
          "internalType": "address",
          "name": "operator",
          "type": "address"
        },
        {
          "internalType": "bool",
          "name": "approved",
          "type": "bool"
        }
      ],
      "name": "setApprovalForAll",
      "outputs": [],
      "stateMutability": "nonpayable",
      "type": "function"
    },
    {
      "inputs": [
        {
          "internalType": "bytes4",
          "name": "interfaceId",
          "type": "bytes4"
        }
      ],
      "name": "supportsInterface",
      "outputs": [
        {
          "internalType": "bool",
          "name": "",
          "type": "bool"
        }
      ],
      "stateMutability": "view",
      "type": "function"
    },
    {
      "inputs": [
        {
          "internalType": "address",
          "name": "newOwner",
          "type": "address"
        }
      ],
      "name": "transferOwnership",
      "outputs": [],
      "stateMutability": "nonpayable",
      "type": "function"
    },
    {
      "inputs": [
        {
          "internalType": "uint256",
          "name": "",
          "type": "uint256"
        }
      ],
      "name": "uri",
      "outputs": [
        {
          "internalType": "string",
          "name": "",
          "type": "string"
        }
      ],
      "stateMutability": "view",
      "type": "function"
    },
    {
      "inputs": [
        {
          "internalType": "enum GameItems.Phase",
          "name": "x",
          "type": "uint8"
        }
      ],
      "name": "changePhase",
      "outputs": [],
      "stateMutability": "nonpayable",
      "type": "function"
    },
    {
      "inputs": [
        {
          "internalType": "enum GameItems.ItemType",
          "name": "itemType",
          "type": "uint8"
        },
        {
          "internalType": "string",
          "name": "name",
          "type": "string"
        },
        {
          "internalType": "string",
          "name": "description",
          "type": "string"
        }
      ],
      "name": "createItem",
      "outputs": [
        {
          "internalType": "uint256",
          "name": "",
          "type": "uint256"
        }
      ],
      "stateMutability": "nonpayable",
      "type": "function"
    },
    {
      "inputs": [
        {
          "internalType": "address",
          "name": "to",
          "type": "address"
        },
        {
          "internalType": "uint256",
          "name": "itemId",
          "type": "uint256"
        },
        {
          "internalType": "uint256",
          "name": "amount",
          "type": "uint256"
        }
      ],
      "name": "mintItem",
      "outputs": [],
      "stateMutability": "nonpayable",
      "type": "function"
    },
    {
      "inputs": [
        {
          "internalType": "address",
          "name": "owner",
          "type": "address"
        },
        {
          "internalType": "uint256",
          "name": "itemId",
          "type": "uint256"
        },
        {
          "internalType": "uint256",
          "name": "amount",
          "type": "uint256"
        }
      ],
      "name": "burnItem",
      "outputs": [],
      "stateMutability": "nonpayable",
      "type": "function"
    },
    {
      "inputs": [
        {
          "internalType": "uint256",
          "name": "itemId",
          "type": "uint256"
        }
      ],
      "name": "purchaseItem",
      "outputs": [],
      "stateMutability": "payable",
      "type": "function"
    },
    {
      "inputs": [
        {
          "internalType": "uint256",
          "name": "itemId",
          "type": "uint256"
        }
      ],
      "name": "purchaseWithGoldCoin",
      "outputs": [],
      "stateMutability": "nonpayable",
      "type": "function"
    },
    {
      "inputs": [
        {
          "internalType": "uint256",
          "name": "cardId",
          "type": "uint256"
        },
        {
          "internalType": "uint256",
          "name": "itemId",
          "type": "uint256"
        }
      ],
      "name": "tradeUniqueCardForItem",
      "outputs": [],
      "stateMutability": "nonpayable",
      "type": "function"
    },
    {
      "inputs": [
        {
          "internalType": "address",
          "name": "player",
          "type": "address"
        }
      ],
      "name": "usePowerUp",
      "outputs": [],
      "stateMutability": "nonpayable",
      "type": "function"
    },
    {
      "inputs": [
        {
          "internalType": "address",
          "name": "player",
          "type": "address"
        }
      ],
      "name": "hasPowerUp",
      "outputs": [
        {
          "internalType": "bool",
          "name": "",
          "type": "bool"
        }
      ],
      "stateMutability": "view",
      "type": "function"
    }
  ],
  "bytecode": "0x60806040526000600660146101000a81548160ff021916908360028111156200002d576200002c62000214565b5b02179055503480156200003f57600080fd5b5060405162005088380380620050888339818101604052810190620000659190620002ad565b6040518060200160405280600081525062000086816200013160201b60201c565b50620000a76200009b6200014660201b60201c565b6200014e60201b60201c565b81600560006101000a81548173ffffffffffffffffffffffffffffffffffffffff021916908373ffffffffffffffffffffffffffffffffffffffff16021790555080600660006101000a81548173ffffffffffffffffffffffffffffffffffffffff021916908373ffffffffffffffffffffffffffffffffffffffff160217905550505062000655565b80600290816200014291906200056e565b5050565b600033905090565b6000600360009054906101000a900473ffffffffffffffffffffffffffffffffffffffff16905081600360006101000a81548173ffffffffffffffffffffffffffffffffffffffff021916908373ffffffffffffffffffffffffffffffffffffffff1602179055508173ffffffffffffffffffffffffffffffffffffffff168173ffffffffffffffffffffffffffffffffffffffff167f8be0079c531659141344cd1fd0a4f28419497f9722a3daafe3b4186f6b6457e060405160405180910390a35050565b7f4e487b7100000000000000000000000000000000000000000000000000000000600052602160045260246000fd5b600080fd5b600073ffffffffffffffffffffffffffffffffffffffff82169050919050565b6000620002758262000248565b9050919050565b620002878162000268565b81146200029357600080fd5b50565b600081519050620002a7816200027c565b92915050565b60008060408385031215620002c757620002c662000243565b5b6000620002d78582860162000296565b9250506020620002ea8582860162000296565b9150509250929050565b600081519050919050565b7f4e487b7100000000000000000000000000000000000000000000000000000000600052604160045260246000fd5b7f4e487b7100000000000000000000000000000000000000000000000000000000600052602260045260246000fd5b600060028204905060018216806200037657607f821691505b6020821081036200038c576200038b6200032e565b5b50919050565b60008190508160005260206000209050919050565b60006020601f8301049050919050565b600082821b905092915050565b600060088302620003f67fffffffffffffffffffffffffffffffffffffffffffffffffffffffffffffffff82620003b7565b620004028683620003b7565b95508019841693508086168417925050509392505050565b6000819050919050565b6000819050919050565b60006200044f6200044962000443846200041a565b62000424565b6200041a565b9050919050565b6000819050919050565b6200046b836200042e565b620004836200047a8262000456565b848454620003c4565b825550505050565b600090565b6200049a6200048b565b620004a781848462000460565b505050565b5b81811015620004cf57620004c360008262000490565b600181019050620004ad565b5050565b601f8211156200051e57620004e88162000392565b620004f384620003a7565b8101602085101562000503578190505b6200051b6200051285620003a7565b830182620004ac565b50505b505050565b600082821c905092915050565b6000620005436000198460080262000523565b1980831691505092915050565b60006200055e838362000530565b9150826002028217905092915050565b6200057982620002f4565b67ffffffffffffffff811115620005955762000594620002ff565b5b620005a182546200035d565b620005ae828285620004d3565b600060209050601f831160018114620005e65760008415620005d1578287015190505b620005dd858262000550565b8655506200064d565b601f198416620005f68662000392565b60005b828110156200062057848901518255600182019150602085019450602081019050620005f9565b868310156200064057848901516200063c601f89168262000530565b8355505b6001600288020188555050505b505050505050565b614a2380620006656000396000f3fe6080604052600436106101345760003560e01c8063715018a6116100ab578063cf0cc75d1161006f578063cf0cc75d1461044a578063d258153514610473578063d38ea5bf1461049c578063e985e9c5146104b8578063f242432a146104f5578063f2fde38b1461051e57610134565b8063715018a6146103765780638b6518271461038d5780638da5cb5b146103b6578063a22cb465146103e1578063bfb231d21461040a57610134565b80632eb2c2d6116100fd5780632eb2c2d6146102565780633cc893801461027f5780634e1273f4146102aa578063696a50b4146102e75780636bbbcec8146103105780636c150b2c1461033957610134565b8062fdd58e1461013957806301ffc9a7146101765780630721c297146101b35780630e89341c146101dc57806313e8ee7e14610219575b600080fd5b34801561014557600080fd5b50610160600480360381019061015b9190612a03565b610547565b60405161016d9190612a52565b60405180910390f35b34801561018257600080fd5b5061019d60048036038101906101989190612ac5565b61060f565b6040516101aa9190612b0d565b60405180910390f35b3480156101bf57600080fd5b506101da60048036038101906101d59190612b4d565b6106f1565b005b3480156101e857600080fd5b5061020360048036038101906101fe9190612b7a565b610726565b6040516102109190612c37565b60405180910390f35b34801561022557600080fd5b50610240600480360381019061023b9190612c59565b6107ba565b60405161024d9190612b0d565b60405180910390f35b34801561026257600080fd5b5061027d60048036038101906102789190612e83565b610805565b005b34801561028b57600080fd5b506102946108a6565b6040516102a19190612fc9565b60405180910390f35b3480156102b657600080fd5b506102d160048036038101906102cc91906130a7565b6108b9565b6040516102de91906131dd565b60405180910390f35b3480156102f357600080fd5b5061030e600480360381019061030991906131ff565b6109d2565b005b34801561031c57600080fd5b5061033760048036038101906103329190613252565b610aa2565b005b34801561034557600080fd5b50610360600480360381019061035b9190613358565b610cab565b60405161036d9190612a52565b60405180910390f35b34801561038257600080fd5b5061038b610dc4565b005b34801561039957600080fd5b506103b460048036038101906103af9190612c59565b610dd8565b005b3480156103c257600080fd5b506103cb611163565b6040516103d891906133f2565b60405180910390f35b3480156103ed57600080fd5b5061040860048036038101906104039190613439565b61118d565b005b34801561041657600080fd5b50610431600480360381019061042c9190612b7a565b6111a3565b60405161044194939291906134c1565b60405180910390f35b34801561045657600080fd5b50610471600480360381019061046c9190612b7a565b6112f0565b005b34801561047f57600080fd5b5061049a600480360381019061049591906131ff565b61140a565b005b6104b660048036038101906104b19190612b7a565b6114e9565b005b3480156104c457600080fd5b506104df60048036038101906104da9190613514565b611650565b6040516104ec9190612b0d565b60405180910390f35b34801561050157600080fd5b5061051c60048036038101906105179190613554565b6116e4565b005b34801561052a57600080fd5b5061054560048036038101906105409190612c59565b611785565b005b60008073ffffffffffffffffffffffffffffffffffffffff168373ffffffffffffffffffffffffffffffffffffffff16036105b7576040517f08c379a00000000000000000000000000000000000000000000000000000000081526004016105ae9061365d565b60405180910390fd5b60008083815260200190815260200160002060008473ffffffffffffffffffffffffffffffffffffffff1673ffffffffffffffffffffffffffffffffffffffff16815260200190815260200160002054905092915050565b60007fd9b67a26000000000000000000000000000000000000000000000000000000007bffffffffffffffffffffffffffffffffffffffffffffffffffffffff1916827bffffffffffffffffffffffffffffffffffffffffffffffffffffffff191614806106da57507f0e89341c000000000000000000000000000000000000000000000000000000007bffffffffffffffffffffffffffffffffffffffffffffffffffffffff1916827bffffffffffffffffffffffffffffffffffffffffffffffffffffffff1916145b806106ea57506106e982611808565b5b9050919050565b6106f9611872565b80600660146101000a81548160ff0219169083600281111561071e5761071d612f52565b5b021790555050565b606060028054610735906136ac565b80601f0160208091040260200160405190810160405280929190818152602001828054610761906136ac565b80156107ae5780601f10610783576101008083540402835291602001916107ae565b820191906000526020600020905b81548152906001019060200180831161079157829003601f168201915b50505050509050919050565b600080600860008473ffffffffffffffffffffffffffffffffffffffff1673ffffffffffffffffffffffffffffffffffffffff16815260200190815260200160002054119050919050565b61080d6118f0565b73ffffffffffffffffffffffffffffffffffffffff168573ffffffffffffffffffffffffffffffffffffffff16148061085357506108528561084d6118f0565b611650565b5b610892576040517f08c379a00000000000000000000000000000000000000000000000000000000081526004016108899061374f565b60405180910390fd5b61089f85858585856118f8565b5050505050565b600660149054906101000a900460ff1681565b606081518351146108ff576040517f08c379a00000000000000000000000000000000000000000000000000000000081526004016108f6906137e1565b60405180910390fd5b6000835167ffffffffffffffff81111561091c5761091b612c8b565b5b60405190808252806020026020018201604052801561094a5781602001602082028036833780820191505090505b50905060005b84518110156109c75761099785828151811061096f5761096e613801565b5b602002602001015185838151811061098a57610989613801565b5b6020026020010151610547565b8282815181106109aa576109a9613801565b5b602002602001018181525050806109c09061385f565b9050610950565b508091505092915050565b6109da611872565b81600760008481526020019081526020016000206000015414610a32576040517f08c379a0000000000000000000000000000000000000000000000000000000008152600401610a29906138f3565b60405180910390fd5b610a4d83838360405180602001604052806000815250611c19565b8273ffffffffffffffffffffffffffffffffffffffff167fd9be9c40c7e99dfc974fa3fe3b790af02afd2939b5dedfccb1ba12933eb27a8e8383604051610a95929190613913565b60405180910390a2505050565b3373ffffffffffffffffffffffffffffffffffffffff16600660009054906101000a900473ffffffffffffffffffffffffffffffffffffffff1673ffffffffffffffffffffffffffffffffffffffff16636352211e846040518263ffffffff1660e01b8152600401610b149190612a52565b602060405180830381865afa158015610b31573d6000803e3d6000fd5b505050506040513d601f19601f82011682018060405250810190610b559190613951565b73ffffffffffffffffffffffffffffffffffffffff1614610bab576040517f08c379a0000000000000000000000000000000000000000000000000000000008152600401610ba2906139f0565b60405180910390fd5b600660009054906101000a900473ffffffffffffffffffffffffffffffffffffffff1673ffffffffffffffffffffffffffffffffffffffff16638a91a6c883306040518363ffffffff1660e01b8152600401610c08929190613a10565b600060405180830381600087803b158015610c2257600080fd5b505af1158015610c36573d6000803e3d6000fd5b50505050610c563382600160405180602001604052806000815250611c19565b3373ffffffffffffffffffffffffffffffffffffffff167f1c707da32414b7aa5f73cda4705ee7b18994631f72e0e2ac5591b23dc53c40c9826001604051610c9f929190613aca565b60405180910390a25050565b6000610cb5611872565b610cbf6004611dc9565b6000610ccb6004611ddf565b90506040518060800160405280828152602001866002811115610cf157610cf0612f52565b5b815260200185815260200184815250600760008381526020019081526020016000206000820151816000015560208201518160010160006101000a81548160ff02191690836002811115610d4857610d47612f52565b5b02179055506040820151816002019081610d629190613ca8565b506060820151816003019081610d789190613ca8565b509050507fe3786fec9d04be3961f31c0789fa364ced3e8283b71bc5a6ccd1a5b1327622a181868686604051610db194939291906134c1565b60405180910390a1809150509392505050565b610dcc611872565b610dd66000611ded565b565b6000600860008373ffffffffffffffffffffffffffffffffffffffff1673ffffffffffffffffffffffffffffffffffffffff1681526020019081526020016000205411610e5a576040517f08c379a0000000000000000000000000000000000000000000000000000000008152600401610e5190613dc6565b60405180910390fd5b6001600860008373ffffffffffffffffffffffffffffffffffffffff1673ffffffffffffffffffffffffffffffffffffffff1681526020019081526020016000206000828254610eaa9190613de6565b925050819055506000600660009054906101000a900473ffffffffffffffffffffffffffffffffffffffff1673ffffffffffffffffffffffffffffffffffffffff166370a08231836040518263ffffffff1660e01b8152600401610f0e91906133f2565b602060405180830381865afa158015610f2b573d6000803e3d6000fd5b505050506040513d601f19601f82011682018060405250810190610f4f9190613e2f565b905060008167ffffffffffffffff811115610f6d57610f6c612c8b565b5b604051908082528060200260200182016040528015610f9b5781602001602082028036833780820191505090505b50905060005b8281101561110f576000600660009054906101000a900473ffffffffffffffffffffffffffffffffffffffff1673ffffffffffffffffffffffffffffffffffffffff16632f745c5986846040518363ffffffff1660e01b8152600401611008929190613e5c565b602060405180830381865afa158015611025573d6000803e3d6000fd5b505050506040513d601f19601f820116820180604052508101906110499190613e2f565b9050600660009054906101000a900473ffffffffffffffffffffffffffffffffffffffff1673ffffffffffffffffffffffffffffffffffffffff1663618857ba82600a6040518363ffffffff1660e01b81526004016110a9929190613ec0565b600060405180830381600087803b1580156110c357600080fd5b505af11580156110d7573d6000803e3d6000fd5b50505050808383815181106110ef576110ee613801565b5b6020026020010181815250505080806111079061385f565b915050610fa1565b508273ffffffffffffffffffffffffffffffffffffffff167ff1bb0ce00e3d119057981f306f30fd23b2899482bc1d7550b233f6bac2b28e1a8260405161115691906131dd565b60405180910390a2505050565b6000600360009054906101000a900473ffffffffffffffffffffffffffffffffffffffff16905090565b61119f6111986118f0565b8383611eb3565b5050565b60076020528060005260406000206000915090508060000154908060010160009054906101000a900460ff16908060020180546111df906136ac565b80601f016020809104026020016040519081016040528092919081815260200182805461120b906136ac565b80156112585780601f1061122d57610100808354040283529160200191611258565b820191906000526020600020905b81548152906001019060200180831161123b57829003601f168201915b50505050509080600301805461126d906136ac565b80601f0160208091040260200160405190810160405280929190818152602001828054611299906136ac565b80156112e65780601f106112bb576101008083540402835291602001916112e6565b820191906000526020600020905b8154815290600101906020018083116112c957829003601f168201915b5050505050905084565b6000601e9050600560009054906101000a900473ffffffffffffffffffffffffffffffffffffffff1673ffffffffffffffffffffffffffffffffffffffff166323b872dd3330846040518463ffffffff1660e01b815260040161135593929190613ee9565b6020604051808303816000875af1158015611374573d6000803e3d6000fd5b505050506040513d601f19601f820116820180604052508101906113989190613f35565b506113b53383600160405180602001604052806000815250611c19565b3373ffffffffffffffffffffffffffffffffffffffff167f1c707da32414b7aa5f73cda4705ee7b18994631f72e0e2ac5591b23dc53c40c98360016040516113fe929190613fae565b60405180910390a25050565b8273ffffffffffffffffffffffffffffffffffffffff163373ffffffffffffffffffffffffffffffffffffffff16148061144a57506114498333611650565b5b611489576040517f08c379a000000000000000000000000000000000000000000000000000000000815260040161148090614036565b60405180910390fd5b61149483838361201f565b8273ffffffffffffffffffffffffffffffffffffffff167fca29b5193c49b3f0cb8da1e82b521db2857868fcd608682d536a6444a936460c83836040516114dc929190613913565b60405180910390a2505050565b80600760008381526020019081526020016000206000015414611541576040517f08c379a0000000000000000000000000000000000000000000000000000000008152600401611538906138f3565b60405180910390fd5b6000670de0b6b3a7640000905080341015611591576040517f08c379a0000000000000000000000000000000000000000000000000000000008152600401611588906140a2565b60405180910390fd5b6115ad3383600160405180602001604052806000815250611c19565b6115b5611163565b73ffffffffffffffffffffffffffffffffffffffff166108fc349081150290604051600060405180830381858888f193505050501580156115fa573d6000803e3d6000fd5b503373ffffffffffffffffffffffffffffffffffffffff167f1c707da32414b7aa5f73cda4705ee7b18994631f72e0e2ac5591b23dc53c40c983600160405161164492919061410e565b60405180910390a25050565b6000600160008473ffffffffffffffffffffffffffffffffffffffff1673ffffffffffffffffffffffffffffffffffffffff16815260200190815260200160002060008373ffffffffffffffffffffffffffffffffffffffff1673ffffffffffffffffffffffffffffffffffffffff16815260200190815260200160002060009054906101000a900460ff16905092915050565b6116ec6118f0565b73ffffffffffffffffffffffffffffffffffffffff168573ffffffffffffffffffffffffffffffffffffffff16148061173257506117318561172c6118f0565b611650565b5b611771576040517f08c379a00000000000000000000000000000000000000000000000000000000081526004016117689061374f565b60405180910390fd5b61177e8585858585612265565b5050505050565b61178d611872565b600073ffffffffffffffffffffffffffffffffffffffff168173ffffffffffffffffffffffffffffffffffffffff16036117fc576040517f08c379a00000000000000000000000000000000000000000000000000000000081526004016117f3906141bc565b60405180910390fd5b61180581611ded565b50565b60007f01ffc9a7000000000000000000000000000000000000000000000000000000007bffffffffffffffffffffffffffffffffffffffffffffffffffffffff1916827bffffffffffffffffffffffffffffffffffffffffffffffffffffffff1916149050919050565b61187a6118f0565b73ffffffffffffffffffffffffffffffffffffffff16611898611163565b73ffffffffffffffffffffffffffffffffffffffff16146118ee576040517f08c379a00000000000000000000000000000000000000000000000000000000081526004016118e590614228565b60405180910390fd5b565b600033905090565b815183511461193c576040517f08c379a0000000000000000000000000000000000000000000000000000000008152600401611933906142ba565b60405180910390fd5b600073ffffffffffffffffffffffffffffffffffffffff168473ffffffffffffffffffffffffffffffffffffffff16036119ab576040517f08c379a00000000000000000000000000000000000000000000000000000000081526004016119a29061434c565b60405180910390fd5b60006119b56118f0565b90506119c5818787878787612500565b60005b8451811015611b765760008582815181106119e6576119e5613801565b5b602002602001015190506000858381518110611a0557611a04613801565b5b60200260200101519050600080600084815260200190815260200160002060008b73ffffffffffffffffffffffffffffffffffffffff1673ffffffffffffffffffffffffffffffffffffffff16815260200190815260200160002054905081811015611aa6576040517f08c379a0000000000000000000000000000000000000000000000000000000008152600401611a9d906143de565b60405180910390fd5b81810360008085815260200190815260200160002060008c73ffffffffffffffffffffffffffffffffffffffff1673ffffffffffffffffffffffffffffffffffffffff168152602001908152602001600020819055508160008085815260200190815260200160002060008b73ffffffffffffffffffffffffffffffffffffffff1673ffffffffffffffffffffffffffffffffffffffff1681526020019081526020016000206000828254611b5b91906143fe565b9250508190555050505080611b6f9061385f565b90506119c8565b508473ffffffffffffffffffffffffffffffffffffffff168673ffffffffffffffffffffffffffffffffffffffff168273ffffffffffffffffffffffffffffffffffffffff167f4a39dc06d4c0dbc64b70af90fd698a233a518aa5d07e595d983b8c0526c8f7fb8787604051611bed929190614432565b60405180910390a4611c03818787878787612508565b611c11818787878787612510565b505050505050565b600073ffffffffffffffffffffffffffffffffffffffff168473ffffffffffffffffffffffffffffffffffffffff1603611c88576040517f08c379a0000000000000000000000000000000000000000000000000000000008152600401611c7f906144db565b60405180910390fd5b6000611c926118f0565b90506000611c9f856126e7565b90506000611cac856126e7565b9050611cbd83600089858589612500565b8460008088815260200190815260200160002060008973ffffffffffffffffffffffffffffffffffffffff1673ffffffffffffffffffffffffffffffffffffffff1681526020019081526020016000206000828254611d1c91906143fe565b925050819055508673ffffffffffffffffffffffffffffffffffffffff16600073ffffffffffffffffffffffffffffffffffffffff168473ffffffffffffffffffffffffffffffffffffffff167fc3d58168c5ae7397731d063d5bbf3d657854427343f4c083240f7aacaa2d0f628989604051611d9a929190613913565b60405180910390a4611db183600089858589612508565b611dc083600089898989612761565b50505050505050565b6001816000016000828254019250508190555050565b600081600001549050919050565b6000600360009054906101000a900473ffffffffffffffffffffffffffffffffffffffff16905081600360006101000a81548173ffffffffffffffffffffffffffffffffffffffff021916908373ffffffffffffffffffffffffffffffffffffffff1602179055508173ffffffffffffffffffffffffffffffffffffffff168173ffffffffffffffffffffffffffffffffffffffff167f8be0079c531659141344cd1fd0a4f28419497f9722a3daafe3b4186f6b6457e060405160405180910390a35050565b8173ffffffffffffffffffffffffffffffffffffffff168373ffffffffffffffffffffffffffffffffffffffff1603611f21576040517f08c379a0000000000000000000000000000000000000000000000000000000008152600401611f189061456d565b60405180910390fd5b80600160008573ffffffffffffffffffffffffffffffffffffffff1673ffffffffffffffffffffffffffffffffffffffff16815260200190815260200160002060008473ffffffffffffffffffffffffffffffffffffffff1673ffffffffffffffffffffffffffffffffffffffff16815260200190815260200160002060006101000a81548160ff0219169083151502179055508173ffffffffffffffffffffffffffffffffffffffff168373ffffffffffffffffffffffffffffffffffffffff167f17307eab39ab6107e8899845ad3d59bd9653f200f220920489ca2b5937696c31836040516120129190612b0d565b60405180910390a3505050565b600073ffffffffffffffffffffffffffffffffffffffff168373ffffffffffffffffffffffffffffffffffffffff160361208e576040517f08c379a0000000000000000000000000000000000000000000000000000000008152600401612085906145ff565b60405180910390fd5b60006120986118f0565b905060006120a5846126e7565b905060006120b2846126e7565b90506120d283876000858560405180602001604052806000815250612500565b600080600087815260200190815260200160002060008873ffffffffffffffffffffffffffffffffffffffff1673ffffffffffffffffffffffffffffffffffffffff16815260200190815260200160002054905084811015612169576040517f08c379a000000000000000000000000000000000000000000000000000000000815260040161216090614691565b60405180910390fd5b84810360008088815260200190815260200160002060008973ffffffffffffffffffffffffffffffffffffffff1673ffffffffffffffffffffffffffffffffffffffff16815260200190815260200160002081905550600073ffffffffffffffffffffffffffffffffffffffff168773ffffffffffffffffffffffffffffffffffffffff168573ffffffffffffffffffffffffffffffffffffffff167fc3d58168c5ae7397731d063d5bbf3d657854427343f4c083240f7aacaa2d0f628989604051612236929190613913565b60405180910390a461225c84886000868660405180602001604052806000815250612508565b50505050505050565b600073ffffffffffffffffffffffffffffffffffffffff168473ffffffffffffffffffffffffffffffffffffffff16036122d4576040517f08c379a00000000000000000000000000000000000000000000000000000000081526004016122cb9061434c565b60405180910390fd5b60006122de6118f0565b905060006122eb856126e7565b905060006122f8856126e7565b9050612308838989858589612500565b600080600088815260200190815260200160002060008a73ffffffffffffffffffffffffffffffffffffffff1673ffffffffffffffffffffffffffffffffffffffff1681526020019081526020016000205490508581101561239f576040517f08c379a0000000000000000000000000000000000000000000000000000000008152600401612396906143de565b60405180910390fd5b85810360008089815260200190815260200160002060008b73ffffffffffffffffffffffffffffffffffffffff1673ffffffffffffffffffffffffffffffffffffffff168152602001908152602001600020819055508560008089815260200190815260200160002060008a73ffffffffffffffffffffffffffffffffffffffff1673ffffffffffffffffffffffffffffffffffffffff168152602001908152602001600020600082825461245491906143fe565b925050819055508773ffffffffffffffffffffffffffffffffffffffff168973ffffffffffffffffffffffffffffffffffffffff168573ffffffffffffffffffffffffffffffffffffffff167fc3d58168c5ae7397731d063d5bbf3d657854427343f4c083240f7aacaa2d0f628a8a6040516124d1929190613913565b60405180910390a46124e7848a8a86868a612508565b6124f5848a8a8a8a8a612761565b505050505050505050565b505050505050565b505050505050565b61252f8473ffffffffffffffffffffffffffffffffffffffff16612938565b156126df578373ffffffffffffffffffffffffffffffffffffffff1663bc197c8187878686866040518663ffffffff1660e01b8152600401612575959493929190614706565b6020604051808303816000875af19250505080156125b157506040513d601f19601f820116820180604052508101906125ae9190614783565b60015b612656576125bd6147bd565b806308c379a00361261957506125d16147df565b806125dc575061261b565b806040517f08c379a00000000000000000000000000000000000000000000000000000000081526004016126109190612c37565b60405180910390fd5b505b6040517f08c379a000000000000000000000000000000000000000000000000000000000815260040161264d906148e1565b60405180910390fd5b63bc197c8160e01b7bffffffffffffffffffffffffffffffffffffffffffffffffffffffff1916817bffffffffffffffffffffffffffffffffffffffffffffffffffffffff1916146126dd576040517f08c379a00000000000000000000000000000000000000000000000000000000081526004016126d490614973565b60405180910390fd5b505b505050505050565b60606000600167ffffffffffffffff81111561270657612705612c8b565b5b6040519080825280602002602001820160405280156127345781602001602082028036833780820191505090505b509050828160008151811061274c5761274b613801565b5b60200260200101818152505080915050919050565b6127808473ffffffffffffffffffffffffffffffffffffffff16612938565b15612930578373ffffffffffffffffffffffffffffffffffffffff1663f23a6e6187878686866040518663ffffffff1660e01b81526004016127c6959493929190614993565b6020604051808303816000875af192505050801561280257506040513d601f19601f820116820180604052508101906127ff9190614783565b60015b6128a75761280e6147bd565b806308c379a00361286a57506128226147df565b8061282d575061286c565b806040517f08c379a00000000000000000000000000000000000000000000000000000000081526004016128619190612c37565b60405180910390fd5b505b6040517f08c379a000000000000000000000000000000000000000000000000000000000815260040161289e906148e1565b60405180910390fd5b63f23a6e6160e01b7bffffffffffffffffffffffffffffffffffffffffffffffffffffffff1916817bffffffffffffffffffffffffffffffffffffffffffffffffffffffff19161461292e576040517f08c379a000000000000000000000000000000000000000000000000000000000815260040161292590614973565b60405180910390fd5b505b505050505050565b6000808273ffffffffffffffffffffffffffffffffffffffff163b119050919050565b6000604051905090565b600080fd5b600080fd5b600073ffffffffffffffffffffffffffffffffffffffff82169050919050565b600061299a8261296f565b9050919050565b6129aa8161298f565b81146129b557600080fd5b50565b6000813590506129c7816129a1565b92915050565b6000819050919050565b6129e0816129cd565b81146129eb57600080fd5b50565b6000813590506129fd816129d7565b92915050565b60008060408385031215612a1a57612a19612965565b5b6000612a28858286016129b8565b9250506020612a39858286016129ee565b9150509250929050565b612a4c816129cd565b82525050565b6000602082019050612a676000830184612a43565b92915050565b60007fffffffff0000000000000000000000000000000000000000000000000000000082169050919050565b612aa281612a6d565b8114612aad57600080fd5b50565b600081359050612abf81612a99565b92915050565b600060208284031215612adb57612ada612965565b5b6000612ae984828501612ab0565b91505092915050565b60008115159050919050565b612b0781612af2565b82525050565b6000602082019050612b226000830184612afe565b92915050565b60038110612b3557600080fd5b50565b600081359050612b4781612b28565b92915050565b600060208284031215612b6357612b62612965565b5b6000612b7184828501612b38565b91505092915050565b600060208284031215612b9057612b8f612965565b5b6000612b9e848285016129ee565b91505092915050565b600081519050919050565b600082825260208201905092915050565b60005b83811015612be1578082015181840152602081019050612bc6565b60008484015250505050565b6000601f19601f8301169050919050565b6000612c0982612ba7565b612c138185612bb2565b9350612c23818560208601612bc3565b612c2c81612bed565b840191505092915050565b60006020820190508181036000830152612c518184612bfe565b905092915050565b600060208284031215612c6f57612c6e612965565b5b6000612c7d848285016129b8565b91505092915050565b600080fd5b7f4e487b7100000000000000000000000000000000000000000000000000000000600052604160045260246000fd5b612cc382612bed565b810181811067ffffffffffffffff82111715612ce257612ce1612c8b565b5b80604052505050565b6000612cf561295b565b9050612d018282612cba565b919050565b600067ffffffffffffffff821115612d2157612d20612c8b565b5b602082029050602081019050919050565b600080fd5b6000612d4a612d4584612d06565b612ceb565b90508083825260208201905060208402830185811115612d6d57612d6c612d32565b5b835b81811015612d965780612d8288826129ee565b845260208401935050602081019050612d6f565b5050509392505050565b600082601f830112612db557612db4612c86565b5b8135612dc5848260208601612d37565b91505092915050565b600080fd5b600067ffffffffffffffff821115612dee57612ded612c8b565b5b612df782612bed565b9050602081019050919050565b82818337600083830152505050565b6000612e26612e2184612dd3565b612ceb565b905082815260208101848484011115612e4257612e41612dce565b5b612e4d848285612e04565b509392505050565b600082601f830112612e6a57612e69612c86565b5b8135612e7a848260208601612e13565b91505092915050565b600080600080600060a08688031215612e9f57612e9e612965565b5b6000612ead888289016129b8565b9550506020612ebe888289016129b8565b945050604086013567ffffffffffffffff811115612edf57612ede61296a565b5b612eeb88828901612da0565b935050606086013567ffffffffffffffff811115612f0c57612f0b61296a565b5b612f1888828901612da0565b925050608086013567ffffffffffffffff811115612f3957612f3861296a565b5b612f4588828901612e55565b9150509295509295909350565b7f4e487b7100000000000000000000000000000000000000000000000000000000600052602160045260246000fd5b60038110612f9257612f91612f52565b5b50565b6000819050612fa382612f81565b919050565b6000612fb382612f95565b9050919050565b612fc381612fa8565b82525050565b6000602082019050612fde6000830184612fba565b92915050565b600067ffffffffffffffff821115612fff57612ffe612c8b565b5b602082029050602081019050919050565b600061302361301e84612fe4565b612ceb565b9050808382526020820190506020840283018581111561304657613045612d32565b5b835b8181101561306f578061305b88826129b8565b845260208401935050602081019050613048565b5050509392505050565b600082601f83011261308e5761308d612c86565b5b813561309e848260208601613010565b91505092915050565b600080604083850312156130be576130bd612965565b5b600083013567ffffffffffffffff8111156130dc576130db61296a565b5b6130e885828601613079565b925050602083013567ffffffffffffffff8111156131095761310861296a565b5b61311585828601612da0565b9150509250929050565b600081519050919050565b600082825260208201905092915050565b6000819050602082019050919050565b613154816129cd565b82525050565b6000613166838361314b565b60208301905092915050565b6000602082019050919050565b600061318a8261311f565b613194818561312a565b935061319f8361313b565b8060005b838110156131d05781516131b7888261315a565b97506131c283613172565b9250506001810190506131a3565b5085935050505092915050565b600060208201905081810360008301526131f7818461317f565b905092915050565b60008060006060848603121561321857613217612965565b5b6000613226868287016129b8565b9350506020613237868287016129ee565b9250506040613248868287016129ee565b9150509250925092565b6000806040838503121561326957613268612965565b5b6000613277858286016129ee565b9250506020613288858286016129ee565b9150509250929050565b6003811061329f57600080fd5b50565b6000813590506132b181613292565b92915050565b600067ffffffffffffffff8211156132d2576132d1612c8b565b5b6132db82612bed565b9050602081019050919050565b60006132fb6132f6846132b7565b612ceb565b90508281526020810184848401111561331757613316612dce565b5b613322848285612e04565b509392505050565b600082601f83011261333f5761333e612c86565b5b813561334f8482602086016132e8565b91505092915050565b60008060006060848603121561337157613370612965565b5b600061337f868287016132a2565b935050602084013567ffffffffffffffff8111156133a05761339f61296a565b5b6133ac8682870161332a565b925050604084013567ffffffffffffffff8111156133cd576133cc61296a565b5b6133d98682870161332a565b9150509250925092565b6133ec8161298f565b82525050565b600060208201905061340760008301846133e3565b92915050565b61341681612af2565b811461342157600080fd5b50565b6000813590506134338161340d565b92915050565b600080604083850312156134505761344f612965565b5b600061345e858286016129b8565b925050602061346f85828601613424565b9150509250929050565b6003811061348a57613489612f52565b5b50565b600081905061349b82613479565b919050565b60006134ab8261348d565b9050919050565b6134bb816134a0565b82525050565b60006080820190506134d66000830187612a43565b6134e360208301866134b2565b81810360408301526134f58185612bfe565b905081810360608301526135098184612bfe565b905095945050505050565b6000806040838503121561352b5761352a612965565b5b6000613539858286016129b8565b925050602061354a858286016129b8565b9150509250929050565b600080600080600060a086880312156135705761356f612965565b5b600061357e888289016129b8565b955050602061358f888289016129b8565b94505060406135a0888289016129ee565b93505060606135b1888289016129ee565b925050608086013567ffffffffffffffff8111156135d2576135d161296a565b5b6135de88828901612e55565b9150509295509295909350565b7f455243313135353a2061646472657373207a65726f206973206e6f742061207660008201527f616c6964206f776e657200000000000000000000000000000000000000000000602082015250565b6000613647602a83612bb2565b9150613652826135eb565b604082019050919050565b600060208201905081810360008301526136768161363a565b9050919050565b7f4e487b7100000000000000000000000000000000000000000000000000000000600052602260045260246000fd5b600060028204905060018216806136c457607f821691505b6020821081036136d7576136d661367d565b5b50919050565b7f455243313135353a2063616c6c6572206973206e6f7420746f6b656e206f776e60008201527f6572206f7220617070726f766564000000000000000000000000000000000000602082015250565b6000613739602e83612bb2565b9150613744826136dd565b604082019050919050565b600060208201905081810360008301526137688161372c565b9050919050565b7f455243313135353a206163636f756e747320616e6420696473206c656e67746860008201527f206d69736d617463680000000000000000000000000000000000000000000000602082015250565b60006137cb602983612bb2565b91506137d68261376f565b604082019050919050565b600060208201905081810360008301526137fa816137be565b9050919050565b7f4e487b7100000000000000000000000000000000000000000000000000000000600052603260045260246000fd5b7f4e487b7100000000000000000000000000000000000000000000000000000000600052601160045260246000fd5b600061386a826129cd565b91507fffffffffffffffffffffffffffffffffffffffffffffffffffffffffffffffff820361389c5761389b613830565b5b600182019050919050565b7f4974656d20646f6573206e6f742065786973742e000000000000000000000000600082015250565b60006138dd601483612bb2565b91506138e8826138a7565b602082019050919050565b6000602082019050818103600083015261390c816138d0565b9050919050565b60006040820190506139286000830185612a43565b6139356020830184612a43565b9392505050565b60008151905061394b816129a1565b92915050565b60006020828403121561396757613966612965565b5b60006139758482850161393c565b91505092915050565b7f4e6f7420746865206f776e6572206f662074686520756e69717565206361726460008201527f2e00000000000000000000000000000000000000000000000000000000000000602082015250565b60006139da602183612bb2565b91506139e58261397e565b604082019050919050565b60006020820190508181036000830152613a09816139cd565b9050919050565b6000604082019050613a256000830185612a43565b613a3260208301846133e3565b9392505050565b6000819050919050565b6000819050919050565b6000613a68613a63613a5e84613a39565b613a43565b6129cd565b9050919050565b613a7881613a4d565b82525050565b7f5472616465000000000000000000000000000000000000000000000000000000600082015250565b6000613ab4600583612bb2565b9150613abf82613a7e565b602082019050919050565b6000606082019050613adf6000830185612a43565b613aec6020830184613a6f565b8181036040830152613afd81613aa7565b90509392505050565b60008190508160005260206000209050919050565b60006020601f8301049050919050565b600082821b905092915050565b600060088302613b687fffffffffffffffffffffffffffffffffffffffffffffffffffffffffffffffff82613b2b565b613b728683613b2b565b95508019841693508086168417925050509392505050565b6000613ba5613ba0613b9b846129cd565b613a43565b6129cd565b9050919050565b6000819050919050565b613bbf83613b8a565b613bd3613bcb82613bac565b848454613b38565b825550505050565b600090565b613be8613bdb565b613bf3818484613bb6565b505050565b5b81811015613c1757613c0c600082613be0565b600181019050613bf9565b5050565b601f821115613c5c57613c2d81613b06565b613c3684613b1b565b81016020851015613c45578190505b613c59613c5185613b1b565b830182613bf8565b50505b505050565b600082821c905092915050565b6000613c7f60001984600802613c61565b1980831691505092915050565b6000613c988383613c6e565b9150826002028217905092915050565b613cb182612ba7565b67ffffffffffffffff811115613cca57613cc9612c8b565b5b613cd482546136ac565b613cdf828285613c1b565b600060209050601f831160018114613d125760008415613d00578287015190505b613d0a8582613c8c565b865550613d72565b601f198416613d2086613b06565b60005b82811015613d4857848901518255600182019150602085019450602081019050613d23565b86831015613d655784890151613d61601f891682613c6e565b8355505b6001600288020188555050505b505050505050565b7f4e6f20706f7765722d75707320617661696c61626c6500000000000000000000600082015250565b6000613db0601683612bb2565b9150613dbb82613d7a565b602082019050919050565b60006020820190508181036000830152613ddf81613da3565b9050919050565b6000613df1826129cd565b9150613dfc836129cd565b9250828203905081811115613e1457613e13613830565b5b92915050565b600081519050613e29816129d7565b92915050565b600060208284031215613e4557613e44612965565b5b6000613e5384828501613e1a565b91505092915050565b6000604082019050613e7160008301856133e3565b613e7e6020830184612a43565b9392505050565b6000819050919050565b6000613eaa613ea5613ea084613e85565b613a43565b6129cd565b9050919050565b613eba81613e8f565b82525050565b6000604082019050613ed56000830185612a43565b613ee26020830184613eb1565b9392505050565b6000606082019050613efe60008301866133e3565b613f0b60208301856133e3565b613f186040830184612a43565b949350505050565b600081519050613f2f8161340d565b92915050565b600060208284031215613f4b57613f4a612965565b5b6000613f5984828501613f20565b91505092915050565b7f476f6c64436f696e000000000000000000000000000000000000000000000000600082015250565b6000613f98600883612bb2565b9150613fa382613f62565b602082019050919050565b6000606082019050613fc36000830185612a43565b613fd06020830184613a6f565b8181036040830152613fe181613f8b565b90509392505050565b7f4e6f7420617574686f72697a65642e0000000000000000000000000000000000600082015250565b6000614020600f83612bb2565b915061402b82613fea565b602082019050919050565b6000602082019050818103600083015261404f81614013565b9050919050565b7f496e73756666696369656e74204554482073656e742e00000000000000000000600082015250565b600061408c601683612bb2565b915061409782614056565b602082019050919050565b600060208201905081810360008301526140bb8161407f565b9050919050565b7f4554480000000000000000000000000000000000000000000000000000000000600082015250565b60006140f8600383612bb2565b9150614103826140c2565b602082019050919050565b60006060820190506141236000830185612a43565b6141306020830184613a6f565b8181036040830152614141816140eb565b90509392505050565b7f4f776e61626c653a206e6577206f776e657220697320746865207a65726f206160008201527f6464726573730000000000000000000000000000000000000000000000000000602082015250565b60006141a6602683612bb2565b91506141b18261414a565b604082019050919050565b600060208201905081810360008301526141d581614199565b9050919050565b7f4f776e61626c653a2063616c6c6572206973206e6f7420746865206f776e6572600082015250565b6000614212602083612bb2565b915061421d826141dc565b602082019050919050565b6000602082019050818103600083015261424181614205565b9050919050565b7f455243313135353a2069647320616e6420616d6f756e7473206c656e6774682060008201527f6d69736d61746368000000000000000000000000000000000000000000000000602082015250565b60006142a4602883612bb2565b91506142af82614248565b604082019050919050565b600060208201905081810360008301526142d381614297565b9050919050565b7f455243313135353a207472616e7366657220746f20746865207a65726f20616460008201527f6472657373000000000000000000000000000000000000000000000000000000602082015250565b6000614336602583612bb2565b9150614341826142da565b604082019050919050565b6000602082019050818103600083015261436581614329565b9050919050565b7f455243313135353a20696e73756666696369656e742062616c616e636520666f60008201527f72207472616e7366657200000000000000000000000000000000000000000000602082015250565b60006143c8602a83612bb2565b91506143d38261436c565b604082019050919050565b600060208201905081810360008301526143f7816143bb565b9050919050565b6000614409826129cd565b9150614414836129cd565b925082820190508082111561442c5761442b613830565b5b92915050565b6000604082019050818103600083015261444c818561317f565b90508181036020830152614460818461317f565b90509392505050565b7f455243313135353a206d696e7420746f20746865207a65726f2061646472657360008201527f7300000000000000000000000000000000000000000000000000000000000000602082015250565b60006144c5602183612bb2565b91506144d082614469565b604082019050919050565b600060208201905081810360008301526144f4816144b8565b9050919050565b7f455243313135353a2073657474696e6720617070726f76616c2073746174757360008201527f20666f722073656c660000000000000000000000000000000000000000000000602082015250565b6000614557602983612bb2565b9150614562826144fb565b604082019050919050565b600060208201905081810360008301526145868161454a565b9050919050565b7f455243313135353a206275726e2066726f6d20746865207a65726f206164647260008201527f6573730000000000000000000000000000000000000000000000000000000000602082015250565b60006145e9602383612bb2565b91506145f48261458d565b604082019050919050565b60006020820190508181036000830152614618816145dc565b9050919050565b7f455243313135353a206275726e20616d6f756e7420657863656564732062616c60008201527f616e636500000000000000000000000000000000000000000000000000000000602082015250565b600061467b602483612bb2565b91506146868261461f565b604082019050919050565b600060208201905081810360008301526146aa8161466e565b9050919050565b600081519050919050565b600082825260208201905092915050565b60006146d8826146b1565b6146e281856146bc565b93506146f2818560208601612bc3565b6146fb81612bed565b840191505092915050565b600060a08201905061471b60008301886133e3565b61472860208301876133e3565b818103604083015261473a818661317f565b9050818103606083015261474e818561317f565b9050818103608083015261476281846146cd565b90509695505050505050565b60008151905061477d81612a99565b92915050565b60006020828403121561479957614798612965565b5b60006147a78482850161476e565b91505092915050565b60008160e01c9050919050565b600060033d11156147dc5760046000803e6147d96000516147b0565b90505b90565b600060443d1061486c576147f161295b565b60043d036004823e80513d602482011167ffffffffffffffff8211171561481957505061486c565b808201805167ffffffffffffffff811115614837575050505061486c565b80602083010160043d03850181111561485457505050505061486c565b61486382602001850186612cba565b82955050505050505b90565b7f455243313135353a207472616e7366657220746f206e6f6e2d4552433131353560008201527f526563656976657220696d706c656d656e746572000000000000000000000000602082015250565b60006148cb603483612bb2565b91506148d68261486f565b604082019050919050565b600060208201905081810360008301526148fa816148be565b9050919050565b7f455243313135353a204552433131353552656365697665722072656a6563746560008201527f6420746f6b656e73000000000000000000000000000000000000000000000000602082015250565b600061495d602883612bb2565b915061496882614901565b604082019050919050565b6000602082019050818103600083015261498c81614950565b9050919050565b600060a0820190506149a860008301886133e3565b6149b560208301876133e3565b6149c26040830186612a43565b6149cf6060830185612a43565b81810360808301526149e181846146cd565b9050969550505050505056fea2646970667358221220bb2146ec7a716da41922d55dfc28ac97f1da045fa24a32d09b10aabe0342da4a64736f6c63430008130033",
  "immutableReferences": {},
  "source": "// SPDX-License-Identifier: MIT\npragma solidity ^0.8.19;\n\nimport \"@openzeppelin/contracts/token/ERC1155/ERC1155.sol\";\nimport \"@openzeppelin/contracts/utils/Counters.sol\";\nimport \"@openzeppelin/contracts/access/Ownable.sol\";\nimport \"./ERC20SmartContract.sol\"; // Importing the local ERC20 contract.\nimport \"./ERC721SmartContract.sol\"; // Importing the local ERC721 contract.\n\ncontract GameItems is ERC1155, Ownable {\n    using Counters for Counters.Counter;\n    Counters.Counter private _itemIds;\n\n    // Addresses of the deployed ERC20 and ERC721 contracts\n    GoldCoin private erc20Token;\n    UniqueCards private erc721Token;\n\n    enum Phase {\n        Register,\n        Play,\n        Done\n    }\n    Phase public currPhase = Phase.Register;\n    //modifiers\n    modifier validPhase(Phase reqPhase) {\n        require(currPhase == reqPhase);\n        _;\n    }\n\n    function changePhase(Phase x) public onlyOwner {\n        // require(x > currPhase);\n        currPhase = x;\n    }\n\n    enum ItemType {\n        PowerUp,\n        Mod,\n        UniqueAttribute\n    }\n    struct Item {\n        uint256 id;\n        ItemType itemType;\n        string name;\n        string description;\n    }\n    mapping(uint256 => Item) public items;\n    mapping(address => uint256) private playerPowerUps;\n\n    // Event declarations\n    event ItemCreated(\n        uint256 itemId,\n        ItemType itemType,\n        string name,\n        string description\n    );\n    event ItemMinted(address indexed to, uint256 itemId, uint256 amount);\n    event ItemBurned(address indexed owner, uint256 itemId, uint256 amount);\n    event ItemPurchased(\n        address indexed buyer,\n        uint256 itemId,\n        uint256 amount,\n        string paymentType\n    );\n    event PowerUpUsed(address indexed player, uint256[] cardIds);\n\n    constructor(\n        address _erc20Address,\n        address _erc721Address\n    ) ERC1155(\"\") Ownable() {\n        erc20Token = GoldCoin(_erc20Address);\n        erc721Token = UniqueCards(_erc721Address);\n    }\n\n    function createItem(\n        ItemType itemType,\n        string memory name,\n        string memory description\n    ) external onlyOwner returns (uint256) {\n        _itemIds.increment();\n        uint256 newItemId = _itemIds.current();\n        items[newItemId] = Item({\n            id: newItemId,\n            itemType: itemType,\n            name: name,\n            description: description\n        });\n        emit ItemCreated(newItemId, itemType, name, description);\n        return newItemId;\n    }\n\n    function mintItem(\n        address to,\n        uint256 itemId,\n        uint256 amount\n    ) external onlyOwner {\n        require(items[itemId].id == itemId, \"Item does not exist.\");\n        _mint(to, itemId, amount, \"\");\n        emit ItemMinted(to, itemId, amount);\n    }\n\n    function burnItem(address owner, uint256 itemId, uint256 amount) external {\n        require(\n            msg.sender == owner || isApprovedForAll(owner, msg.sender),\n            \"Not authorized.\"\n        );\n        _burn(owner, itemId, amount);\n        emit ItemBurned(owner, itemId, amount);\n    }\n\n    function purchaseItem(uint256 itemId) external payable {\n        require(items[itemId].id == itemId, \"Item does not exist.\");\n        uint256 price = 1 * 1e18; // Example price for power-ups\n        require(msg.value >= price, \"Insufficient ETH sent.\");\n        _mint(msg.sender, itemId, 1, \"\");\n        payable(owner()).transfer(msg.value);\n        emit ItemPurchased(msg.sender, itemId, 1, \"ETH\");\n    }\n\n    function purchaseWithGoldCoin(uint256 itemId) external {\n        uint256 price = 30; // Example price for items\n        erc20Token.transferFrom(msg.sender, address(this), price);\n        _mint(msg.sender, itemId, 1, \"\");\n        emit ItemPurchased(msg.sender, itemId, 1, \"GoldCoin\");\n    }\n\n    function tradeUniqueCardForItem(uint256 cardId, uint256 itemId) external {\n        require(\n            erc721Token.ownerOf(cardId) == msg.sender,\n            \"Not the owner of the unique card.\"\n        );\n        erc721Token.tradeCard(cardId, address(this));\n        _mint(msg.sender, itemId, 1, \"\");\n        emit ItemPurchased(msg.sender, itemId, 1, \"Trade\");\n    }\n\n    function usePowerUp(address player) external {\n        require(playerPowerUps[player] > 0, \"No power-ups available\");\n        playerPowerUps[player] -= 1;\n        uint256 cardCount = erc721Token.balanceOf(player);\n        uint256[] memory cardIds = new uint256[](cardCount);\n        for (uint256 i = 0; i < cardCount; i++) {\n            uint256 cardId = erc721Token.tokenOfOwnerByIndex(player, i);\n            erc721Token.increaseCardAttributes(cardId, 10);\n            cardIds[i] = cardId;\n        }\n        emit PowerUpUsed(player, cardIds);\n    }\n\n    function hasPowerUp(address player) external view returns (bool) {\n        return playerPowerUps[player] > 0;\n    }\n}\n",
  "sourcePath": "/Users/ibrahimallahbuksh/BlockchainProject/contracts/ERC1155SmartContract.sol",
  "compiler": {
    "name": "solc",
    "version": "0.8.19+commit.7dd6d404.Emscripten.clang"
  },
  "schemaVersion": "3.4.16",
  "updatedAt": "2023-11-20T02:11:11.662Z",
  "devdoc": {
    "events": {
      "ApprovalForAll(address,address,bool)": {
        "details": "Emitted when `account` grants or revokes permission to `operator` to transfer their tokens, according to `approved`."
      },
      "TransferBatch(address,address,address,uint256[],uint256[])": {
        "details": "Equivalent to multiple {TransferSingle} events, where `operator`, `from` and `to` are the same for all transfers."
      },
      "TransferSingle(address,address,address,uint256,uint256)": {
        "details": "Emitted when `value` tokens of token type `id` are transferred from `from` to `to` by `operator`."
      },
      "URI(string,uint256)": {
        "details": "Emitted when the URI for token type `id` changes to `value`, if it is a non-programmatic URI. If an {URI} event was emitted for `id`, the standard https://eips.ethereum.org/EIPS/eip-1155#metadata-extensions[guarantees] that `value` will equal the value returned by {IERC1155MetadataURI-uri}."
      }
    },
    "kind": "dev",
    "methods": {
      "balanceOf(address,uint256)": {
        "details": "See {IERC1155-balanceOf}. Requirements: - `account` cannot be the zero address."
      },
      "balanceOfBatch(address[],uint256[])": {
        "details": "See {IERC1155-balanceOfBatch}. Requirements: - `accounts` and `ids` must have the same length."
      },
      "isApprovedForAll(address,address)": {
        "details": "See {IERC1155-isApprovedForAll}."
      },
      "owner()": {
        "details": "Returns the address of the current owner."
      },
      "renounceOwnership()": {
        "details": "Leaves the contract without owner. It will not be possible to call `onlyOwner` functions. Can only be called by the current owner. NOTE: Renouncing ownership will leave the contract without an owner, thereby disabling any functionality that is only available to the owner."
      },
      "safeBatchTransferFrom(address,address,uint256[],uint256[],bytes)": {
        "details": "See {IERC1155-safeBatchTransferFrom}."
      },
      "safeTransferFrom(address,address,uint256,uint256,bytes)": {
        "details": "See {IERC1155-safeTransferFrom}."
      },
      "setApprovalForAll(address,bool)": {
        "details": "See {IERC1155-setApprovalForAll}."
      },
      "supportsInterface(bytes4)": {
        "details": "See {IERC165-supportsInterface}."
      },
      "transferOwnership(address)": {
        "details": "Transfers ownership of the contract to a new account (`newOwner`). Can only be called by the current owner."
      },
      "uri(uint256)": {
        "details": "See {IERC1155MetadataURI-uri}. This implementation returns the same URI for *all* token types. It relies on the token type ID substitution mechanism https://eips.ethereum.org/EIPS/eip-1155#metadata[defined in the EIP]. Clients calling this function must replace the `\\{id\\}` substring with the actual token type ID."
      }
    },
    "version": 1
  },
  "userdoc": {
    "kind": "user",
    "methods": {},
    "version": 1
  }
}