{
  "contractName": "GameItems",
  "abi": [
    {
      "inputs": [
        {
          "internalType": "address",
          "name": "_erc20Address",
          "type": "address"
        },
        {
          "internalType": "address",
          "name": "_erc721Address",
          "type": "address"
        }
      ],
      "stateMutability": "nonpayable",
      "type": "constructor"
    },
    {
      "anonymous": false,
      "inputs": [
        {
          "indexed": true,
          "internalType": "address",
          "name": "account",
          "type": "address"
        },
        {
          "indexed": true,
          "internalType": "address",
          "name": "operator",
          "type": "address"
        },
        {
          "indexed": false,
          "internalType": "bool",
          "name": "approved",
          "type": "bool"
        }
      ],
      "name": "ApprovalForAll",
      "type": "event"
    },
    {
      "anonymous": false,
      "inputs": [
        {
          "indexed": true,
          "internalType": "address",
          "name": "previousOwner",
          "type": "address"
        },
        {
          "indexed": true,
          "internalType": "address",
          "name": "newOwner",
          "type": "address"
        }
      ],
      "name": "OwnershipTransferred",
      "type": "event"
    },
    {
      "anonymous": false,
      "inputs": [
        {
          "indexed": true,
          "internalType": "address",
          "name": "operator",
          "type": "address"
        },
        {
          "indexed": true,
          "internalType": "address",
          "name": "from",
          "type": "address"
        },
        {
          "indexed": true,
          "internalType": "address",
          "name": "to",
          "type": "address"
        },
        {
          "indexed": false,
          "internalType": "uint256[]",
          "name": "ids",
          "type": "uint256[]"
        },
        {
          "indexed": false,
          "internalType": "uint256[]",
          "name": "values",
          "type": "uint256[]"
        }
      ],
      "name": "TransferBatch",
      "type": "event"
    },
    {
      "anonymous": false,
      "inputs": [
        {
          "indexed": true,
          "internalType": "address",
          "name": "operator",
          "type": "address"
        },
        {
          "indexed": true,
          "internalType": "address",
          "name": "from",
          "type": "address"
        },
        {
          "indexed": true,
          "internalType": "address",
          "name": "to",
          "type": "address"
        },
        {
          "indexed": false,
          "internalType": "uint256",
          "name": "id",
          "type": "uint256"
        },
        {
          "indexed": false,
          "internalType": "uint256",
          "name": "value",
          "type": "uint256"
        }
      ],
      "name": "TransferSingle",
      "type": "event"
    },
    {
      "anonymous": false,
      "inputs": [
        {
          "indexed": false,
          "internalType": "string",
          "name": "value",
          "type": "string"
        },
        {
          "indexed": true,
          "internalType": "uint256",
          "name": "id",
          "type": "uint256"
        }
      ],
      "name": "URI",
      "type": "event"
    },
    {
      "inputs": [
        {
          "internalType": "address",
          "name": "account",
          "type": "address"
        },
        {
          "internalType": "uint256",
          "name": "id",
          "type": "uint256"
        }
      ],
      "name": "balanceOf",
      "outputs": [
        {
          "internalType": "uint256",
          "name": "",
          "type": "uint256"
        }
      ],
      "stateMutability": "view",
      "type": "function",
      "constant": true
    },
    {
      "inputs": [
        {
          "internalType": "address[]",
          "name": "accounts",
          "type": "address[]"
        },
        {
          "internalType": "uint256[]",
          "name": "ids",
          "type": "uint256[]"
        }
      ],
      "name": "balanceOfBatch",
      "outputs": [
        {
          "internalType": "uint256[]",
          "name": "",
          "type": "uint256[]"
        }
      ],
      "stateMutability": "view",
      "type": "function",
      "constant": true
    },
    {
      "inputs": [
        {
          "internalType": "address",
          "name": "account",
          "type": "address"
        },
        {
          "internalType": "address",
          "name": "operator",
          "type": "address"
        }
      ],
      "name": "isApprovedForAll",
      "outputs": [
        {
          "internalType": "bool",
          "name": "",
          "type": "bool"
        }
      ],
      "stateMutability": "view",
      "type": "function",
      "constant": true
    },
    {
      "inputs": [
        {
          "internalType": "uint256",
          "name": "",
          "type": "uint256"
        }
      ],
      "name": "items",
      "outputs": [
        {
          "internalType": "uint256",
          "name": "id",
          "type": "uint256"
        },
        {
          "internalType": "enum GameItems.ItemType",
          "name": "itemType",
          "type": "uint8"
        },
        {
          "internalType": "string",
          "name": "name",
          "type": "string"
        },
        {
          "internalType": "string",
          "name": "description",
          "type": "string"
        }
      ],
      "stateMutability": "view",
      "type": "function",
      "constant": true
    },
    {
      "inputs": [],
      "name": "owner",
      "outputs": [
        {
          "internalType": "address",
          "name": "",
          "type": "address"
        }
      ],
      "stateMutability": "view",
      "type": "function",
      "constant": true
    },
    {
      "inputs": [],
      "name": "renounceOwnership",
      "outputs": [],
      "stateMutability": "nonpayable",
      "type": "function"
    },
    {
      "inputs": [
        {
          "internalType": "address",
          "name": "from",
          "type": "address"
        },
        {
          "internalType": "address",
          "name": "to",
          "type": "address"
        },
        {
          "internalType": "uint256[]",
          "name": "ids",
          "type": "uint256[]"
        },
        {
          "internalType": "uint256[]",
          "name": "amounts",
          "type": "uint256[]"
        },
        {
          "internalType": "bytes",
          "name": "data",
          "type": "bytes"
        }
      ],
      "name": "safeBatchTransferFrom",
      "outputs": [],
      "stateMutability": "nonpayable",
      "type": "function"
    },
    {
      "inputs": [
        {
          "internalType": "address",
          "name": "from",
          "type": "address"
        },
        {
          "internalType": "address",
          "name": "to",
          "type": "address"
        },
        {
          "internalType": "uint256",
          "name": "id",
          "type": "uint256"
        },
        {
          "internalType": "uint256",
          "name": "amount",
          "type": "uint256"
        },
        {
          "internalType": "bytes",
          "name": "data",
          "type": "bytes"
        }
      ],
      "name": "safeTransferFrom",
      "outputs": [],
      "stateMutability": "nonpayable",
      "type": "function"
    },
    {
      "inputs": [
        {
          "internalType": "address",
          "name": "operator",
          "type": "address"
        },
        {
          "internalType": "bool",
          "name": "approved",
          "type": "bool"
        }
      ],
      "name": "setApprovalForAll",
      "outputs": [],
      "stateMutability": "nonpayable",
      "type": "function"
    },
    {
      "inputs": [
        {
          "internalType": "bytes4",
          "name": "interfaceId",
          "type": "bytes4"
        }
      ],
      "name": "supportsInterface",
      "outputs": [
        {
          "internalType": "bool",
          "name": "",
          "type": "bool"
        }
      ],
      "stateMutability": "view",
      "type": "function",
      "constant": true
    },
    {
      "inputs": [
        {
          "internalType": "address",
          "name": "newOwner",
          "type": "address"
        }
      ],
      "name": "transferOwnership",
      "outputs": [],
      "stateMutability": "nonpayable",
      "type": "function"
    },
    {
      "inputs": [
        {
          "internalType": "uint256",
          "name": "",
          "type": "uint256"
        }
      ],
      "name": "uri",
      "outputs": [
        {
          "internalType": "string",
          "name": "",
          "type": "string"
        }
      ],
      "stateMutability": "view",
      "type": "function",
      "constant": true
    },
    {
      "inputs": [
        {
          "internalType": "enum GameItems.ItemType",
          "name": "itemType",
          "type": "uint8"
        },
        {
          "internalType": "string",
          "name": "name",
          "type": "string"
        },
        {
          "internalType": "string",
          "name": "description",
          "type": "string"
        }
      ],
      "name": "createItem",
      "outputs": [
        {
          "internalType": "uint256",
          "name": "",
          "type": "uint256"
        }
      ],
      "stateMutability": "nonpayable",
      "type": "function"
    },
    {
      "inputs": [
        {
          "internalType": "address",
          "name": "to",
          "type": "address"
        },
        {
          "internalType": "uint256",
          "name": "itemId",
          "type": "uint256"
        },
        {
          "internalType": "uint256",
          "name": "amount",
          "type": "uint256"
        }
      ],
      "name": "mintItem",
      "outputs": [],
      "stateMutability": "nonpayable",
      "type": "function"
    },
    {
      "inputs": [
        {
          "internalType": "address",
          "name": "owner",
          "type": "address"
        },
        {
          "internalType": "uint256",
          "name": "itemId",
          "type": "uint256"
        },
        {
          "internalType": "uint256",
          "name": "amount",
          "type": "uint256"
        }
      ],
      "name": "burnItem",
      "outputs": [],
      "stateMutability": "nonpayable",
      "type": "function"
    },
    {
      "inputs": [
        {
          "internalType": "uint256",
          "name": "itemId",
          "type": "uint256"
        },
        {
          "internalType": "uint256",
          "name": "amount",
          "type": "uint256"
        }
      ],
      "name": "purchaseItem",
      "outputs": [],
      "stateMutability": "payable",
      "type": "function",
      "payable": true
    },
    {
      "inputs": [
        {
          "internalType": "uint256",
          "name": "itemId",
          "type": "uint256"
        },
        {
          "internalType": "uint256",
          "name": "amount",
          "type": "uint256"
        }
      ],
      "name": "purchaseWithGoldCoin",
      "outputs": [],
      "stateMutability": "nonpayable",
      "type": "function"
    },
    {
      "inputs": [
        {
          "internalType": "uint256",
          "name": "cardId",
          "type": "uint256"
        },
        {
          "internalType": "uint256",
          "name": "itemId",
          "type": "uint256"
        }
      ],
      "name": "tradeUniqueCardForItem",
      "outputs": [],
      "stateMutability": "nonpayable",
      "type": "function"
    },
    {
      "inputs": [
        {
          "internalType": "address",
          "name": "account",
          "type": "address"
        }
      ],
      "name": "getAllBalances",
      "outputs": [
        {
          "internalType": "uint256[]",
          "name": "itemIds",
          "type": "uint256[]"
        },
        {
          "internalType": "uint256[]",
          "name": "balances",
          "type": "uint256[]"
        }
      ],
      "stateMutability": "view",
      "type": "function",
      "constant": true
    },
    {
      "inputs": [
        {
          "internalType": "address[]",
          "name": "recipients",
          "type": "address[]"
        },
        {
          "internalType": "uint256[]",
          "name": "itemIds",
          "type": "uint256[]"
        },
        {
          "internalType": "uint256[]",
          "name": "amounts",
          "type": "uint256[]"
        }
      ],
      "name": "batchTransfer",
      "outputs": [],
      "stateMutability": "nonpayable",
      "type": "function"
    }
  ],
  "bytecode": "0x60806040523480156200001157600080fd5b5060405162004ba838038062004ba8833981810160405281019062000037919062000250565b6040518060200160405280600081525062000058816200010360201b60201c565b50620000796200006d6200011860201b60201c565b6200012060201b60201c565b81600560006101000a81548173ffffffffffffffffffffffffffffffffffffffff021916908373ffffffffffffffffffffffffffffffffffffffff16021790555080600660006101000a81548173ffffffffffffffffffffffffffffffffffffffff021916908373ffffffffffffffffffffffffffffffffffffffff1602179055505050620005f8565b806002908162000114919062000511565b5050565b600033905090565b6000600360009054906101000a900473ffffffffffffffffffffffffffffffffffffffff16905081600360006101000a81548173ffffffffffffffffffffffffffffffffffffffff021916908373ffffffffffffffffffffffffffffffffffffffff1602179055508173ffffffffffffffffffffffffffffffffffffffff168173ffffffffffffffffffffffffffffffffffffffff167f8be0079c531659141344cd1fd0a4f28419497f9722a3daafe3b4186f6b6457e060405160405180910390a35050565b600080fd5b600073ffffffffffffffffffffffffffffffffffffffff82169050919050565b60006200021882620001eb565b9050919050565b6200022a816200020b565b81146200023657600080fd5b50565b6000815190506200024a816200021f565b92915050565b600080604083850312156200026a5762000269620001e6565b5b60006200027a8582860162000239565b92505060206200028d8582860162000239565b9150509250929050565b600081519050919050565b7f4e487b7100000000000000000000000000000000000000000000000000000000600052604160045260246000fd5b7f4e487b7100000000000000000000000000000000000000000000000000000000600052602260045260246000fd5b600060028204905060018216806200031957607f821691505b6020821081036200032f576200032e620002d1565b5b50919050565b60008190508160005260206000209050919050565b60006020601f8301049050919050565b600082821b905092915050565b600060088302620003997fffffffffffffffffffffffffffffffffffffffffffffffffffffffffffffffff826200035a565b620003a586836200035a565b95508019841693508086168417925050509392505050565b6000819050919050565b6000819050919050565b6000620003f2620003ec620003e684620003bd565b620003c7565b620003bd565b9050919050565b6000819050919050565b6200040e83620003d1565b620004266200041d82620003f9565b84845462000367565b825550505050565b600090565b6200043d6200042e565b6200044a81848462000403565b505050565b5b8181101562000472576200046660008262000433565b60018101905062000450565b5050565b601f821115620004c1576200048b8162000335565b62000496846200034a565b81016020851015620004a6578190505b620004be620004b5856200034a565b8301826200044f565b50505b505050565b600082821c905092915050565b6000620004e660001984600802620004c6565b1980831691505092915050565b6000620005018383620004d3565b9150826002028217905092915050565b6200051c8262000297565b67ffffffffffffffff811115620005385762000537620002a2565b5b62000544825462000300565b6200055182828562000476565b600060209050601f83116001811462000589576000841562000574578287015190505b620005808582620004f3565b865550620005f0565b601f198416620005998662000335565b60005b82811015620005c3578489015182556001820191506020850194506020810190506200059c565b86831015620005e35784890151620005df601f891682620004d3565b8355505b6001600288020188555050505b505050505050565b6145a080620006086000396000f3fe60806040526004361061011e5760003560e01c80637abacccc116100a0578063d258153511610064578063d25815351461040a578063e067569814610433578063e985e9c51461044f578063f242432a1461048c578063f2fde38b146104b55761011e565b80637abacccc1461030f5780638da5cb5b14610338578063a22cb46514610363578063bfb231d21461038c578063c53d6ce1146103cc5761011e565b80634e1273f4116100e75780634e1273f41461022c578063696a50b4146102695780636bbbcec8146102925780636c150b2c146102bb578063715018a6146102f85761011e565b8062fdd58e1461012357806301ffc9a7146101605780630e89341c1461019d5780631ef690c4146101da5780632eb2c2d614610203575b600080fd5b34801561012f57600080fd5b5061014a60048036038101906101459190612790565b6104de565b60405161015791906127df565b60405180910390f35b34801561016c57600080fd5b5061018760048036038101906101829190612852565b6105a6565b604051610194919061289a565b60405180910390f35b3480156101a957600080fd5b506101c460048036038101906101bf91906128b5565b610688565b6040516101d19190612972565b60405180910390f35b3480156101e657600080fd5b5061020160048036038101906101fc9190612b9f565b61071c565b005b34801561020f57600080fd5b5061022a60048036038101906102259190612cfb565b6108b2565b005b34801561023857600080fd5b50610253600480360381019061024e9190612dca565b610953565b6040516102609190612f00565b60405180910390f35b34801561027557600080fd5b50610290600480360381019061028b9190612f22565b610a6c565b005b34801561029e57600080fd5b506102b960048036038101906102b49190612f75565b610aec565b005b3480156102c757600080fd5b506102e260048036038101906102dd919061307b565b610ca4565b6040516102ef91906127df565b60405180910390f35b34801561030457600080fd5b5061030d610d86565b005b34801561031b57600080fd5b5061033660048036038101906103319190612f75565b610d9a565b005b34801561034457600080fd5b5061034d610e63565b60405161035a9190613115565b60405180910390f35b34801561036f57600080fd5b5061038a6004803603810190610385919061315c565b610e8d565b005b34801561039857600080fd5b506103b360048036038101906103ae91906128b5565b610ea3565b6040516103c39493929190613213565b60405180910390f35b3480156103d857600080fd5b506103f360048036038101906103ee9190613266565b610ff0565b604051610401929190613293565b60405180910390f35b34801561041657600080fd5b50610431600480360381019061042c9190612f22565b61111d565b005b61044d60048036038101906104489190612f75565b6111ac565b005b34801561045b57600080fd5b50610476600480360381019061047191906132ca565b6113dd565b604051610483919061289a565b60405180910390f35b34801561049857600080fd5b506104b360048036038101906104ae919061330a565b611471565b005b3480156104c157600080fd5b506104dc60048036038101906104d79190613266565b611512565b005b60008073ffffffffffffffffffffffffffffffffffffffff168373ffffffffffffffffffffffffffffffffffffffff160361054e576040517f08c379a000000000000000000000000000000000000000000000000000000000815260040161054590613413565b60405180910390fd5b60008083815260200190815260200160002060008473ffffffffffffffffffffffffffffffffffffffff1673ffffffffffffffffffffffffffffffffffffffff16815260200190815260200160002054905092915050565b60007fd9b67a26000000000000000000000000000000000000000000000000000000007bffffffffffffffffffffffffffffffffffffffffffffffffffffffff1916827bffffffffffffffffffffffffffffffffffffffffffffffffffffffff1916148061067157507f0e89341c000000000000000000000000000000000000000000000000000000007bffffffffffffffffffffffffffffffffffffffffffffffffffffffff1916827bffffffffffffffffffffffffffffffffffffffffffffffffffffffff1916145b80610681575061068082611595565b5b9050919050565b60606002805461069790613462565b80601f01602080910402602001604051908101604052809291908181526020018280546106c390613462565b80156107105780601f106106e557610100808354040283529160200191610710565b820191906000526020600020905b8154815290600101906020018083116106f357829003601f168201915b50505050509050919050565b8151835114801561072e575080518251145b61076d576040517f08c379a0000000000000000000000000000000000000000000000000000000008152600401610764906134df565b60405180910390fd5b60005b83518110156108ac57600083828151811061078e5761078d6134ff565b5b6020026020010151905060008383815181106107ad576107ac6134ff565b5b6020026020010151905060008684815181106107cc576107cb6134ff565b5b602002602001015190508260076000858152602001908152602001600020600001541461082e576040517f08c379a00000000000000000000000000000000000000000000000000000000081526004016108259061357a565b60405180910390fd5b8161083933856104de565b101561087a576040517f08c379a00000000000000000000000000000000000000000000000000000000081526004016108719061360c565b60405180910390fd5b61089633828585604051806020016040528060008152506115ff565b50505080806108a49061365b565b915050610770565b50505050565b6108ba61189a565b73ffffffffffffffffffffffffffffffffffffffff168573ffffffffffffffffffffffffffffffffffffffff16148061090057506108ff856108fa61189a565b6113dd565b5b61093f576040517f08c379a000000000000000000000000000000000000000000000000000000000815260040161093690613715565b60405180910390fd5b61094c85858585856118a2565b5050505050565b60608151835114610999576040517f08c379a0000000000000000000000000000000000000000000000000000000008152600401610990906137a7565b60405180910390fd5b6000835167ffffffffffffffff8111156109b6576109b5612999565b5b6040519080825280602002602001820160405280156109e45781602001602082028036833780820191505090505b50905060005b8451811015610a6157610a31858281518110610a0957610a086134ff565b5b6020026020010151858381518110610a2457610a236134ff565b5b60200260200101516104de565b828281518110610a4457610a436134ff565b5b60200260200101818152505080610a5a9061365b565b90506109ea565b508091505092915050565b610a74611bc3565b81600760008481526020019081526020016000206000015414610acc576040517f08c379a0000000000000000000000000000000000000000000000000000000008152600401610ac39061357a565b60405180910390fd5b610ae783838360405180602001604052806000815250611c41565b505050565b3373ffffffffffffffffffffffffffffffffffffffff16600660009054906101000a900473ffffffffffffffffffffffffffffffffffffffff1673ffffffffffffffffffffffffffffffffffffffff16636352211e846040518263ffffffff1660e01b8152600401610b5e91906127df565b602060405180830381865afa158015610b7b573d6000803e3d6000fd5b505050506040513d601f19601f82011682018060405250810190610b9f91906137dc565b73ffffffffffffffffffffffffffffffffffffffff1614610bf5576040517f08c379a0000000000000000000000000000000000000000000000000000000008152600401610bec9061387b565b60405180910390fd5b600660009054906101000a900473ffffffffffffffffffffffffffffffffffffffff1673ffffffffffffffffffffffffffffffffffffffff16638a91a6c883306040518363ffffffff1660e01b8152600401610c5292919061389b565b600060405180830381600087803b158015610c6c57600080fd5b505af1158015610c80573d6000803e3d6000fd5b50505050610ca03382600160405180602001604052806000815250611c41565b5050565b6000610cae611bc3565b610cb86004611df1565b6000610cc46004611e07565b905060006040518060800160405280838152602001876002811115610cec57610ceb61319c565b5b815260200186815260200185815250905080600760008481526020019081526020016000206000820151816000015560208201518160010160006101000a81548160ff02191690836002811115610d4657610d4561319c565b5b02179055506040820151816002019081610d609190613a70565b506060820151816003019081610d769190613a70565b5090505081925050509392505050565b610d8e611bc3565b610d986000611e15565b565b6000601e9050600560009054906101000a900473ffffffffffffffffffffffffffffffffffffffff1673ffffffffffffffffffffffffffffffffffffffff166323b872dd3330846040518463ffffffff1660e01b8152600401610dff93929190613b42565b6020604051808303816000875af1158015610e1e573d6000803e3d6000fd5b505050506040513d601f19601f82011682018060405250810190610e429190613b8e565b50610e5e33848460405180602001604052806000815250611c41565b505050565b6000600360009054906101000a900473ffffffffffffffffffffffffffffffffffffffff16905090565b610e9f610e9861189a565b8383611edb565b5050565b60076020528060005260406000206000915090508060000154908060010160009054906101000a900460ff1690806002018054610edf90613462565b80601f0160208091040260200160405190810160405280929190818152602001828054610f0b90613462565b8015610f585780601f10610f2d57610100808354040283529160200191610f58565b820191906000526020600020905b815481529060010190602001808311610f3b57829003601f168201915b505050505090806003018054610f6d90613462565b80601f0160208091040260200160405190810160405280929190818152602001828054610f9990613462565b8015610fe65780601f10610fbb57610100808354040283529160200191610fe6565b820191906000526020600020905b815481529060010190602001808311610fc957829003601f168201915b5050505050905084565b6060806000610fff6004611e07565b90508067ffffffffffffffff81111561101b5761101a612999565b5b6040519080825280602002602001820160405280156110495781602001602082028036833780820191505090505b5092508067ffffffffffffffff81111561106657611065612999565b5b6040519080825280602002602001820160405280156110945781602001602082028036833780820191505090505b50915060005b81811015611116576001816110af9190613bbb565b8482815181106110c2576110c16134ff565b5b6020026020010181815250506110e4856001836110df9190613bbb565b6104de565b8382815181106110f7576110f66134ff565b5b602002602001018181525050808061110e9061365b565b91505061109a565b5050915091565b8273ffffffffffffffffffffffffffffffffffffffff163373ffffffffffffffffffffffffffffffffffffffff16148061115d575061115c83336113dd565b5b61119c576040517f08c379a000000000000000000000000000000000000000000000000000000000815260040161119390613c3b565b60405180910390fd5b6111a7838383612047565b505050565b81600760008481526020019081526020016000206000015414611204576040517f08c379a00000000000000000000000000000000000000000000000000000000081526004016111fb9061357a565b60405180910390fd5b60008060028111156112195761121861319c565b5b6007600085815260200190815260200160002060010160009054906101000a900460ff16600281111561124f5761124e61319c565b5b0361126457678ac7230489e800009050611321565b600160028111156112785761127761319c565b5b6007600085815260200190815260200160002060010160009054906101000a900460ff1660028111156112ae576112ad61319c565b5b036112c4576801158e460913d000009050611320565b6002808111156112d7576112d661319c565b5b6007600085815260200190815260200160002060010160009054906101000a900460ff16600281111561130d5761130c61319c565b5b0361131f576801a055690d9db8000090505b5b5b818161132d9190613c5b565b34101561136f576040517f08c379a000000000000000000000000000000000000000000000000000000000815260040161136690613ce9565b60405180910390fd5b61138a33848460405180602001604052806000815250611c41565b611392610e63565b73ffffffffffffffffffffffffffffffffffffffff166108fc349081150290604051600060405180830381858888f193505050501580156113d7573d6000803e3d6000fd5b50505050565b6000600160008473ffffffffffffffffffffffffffffffffffffffff1673ffffffffffffffffffffffffffffffffffffffff16815260200190815260200160002060008373ffffffffffffffffffffffffffffffffffffffff1673ffffffffffffffffffffffffffffffffffffffff16815260200190815260200160002060009054906101000a900460ff16905092915050565b61147961189a565b73ffffffffffffffffffffffffffffffffffffffff168573ffffffffffffffffffffffffffffffffffffffff1614806114bf57506114be856114b961189a565b6113dd565b5b6114fe576040517f08c379a00000000000000000000000000000000000000000000000000000000081526004016114f590613715565b60405180910390fd5b61150b85858585856115ff565b5050505050565b61151a611bc3565b600073ffffffffffffffffffffffffffffffffffffffff168173ffffffffffffffffffffffffffffffffffffffff1603611589576040517f08c379a000000000000000000000000000000000000000000000000000000000815260040161158090613d7b565b60405180910390fd5b61159281611e15565b50565b60007f01ffc9a7000000000000000000000000000000000000000000000000000000007bffffffffffffffffffffffffffffffffffffffffffffffffffffffff1916827bffffffffffffffffffffffffffffffffffffffffffffffffffffffff1916149050919050565b600073ffffffffffffffffffffffffffffffffffffffff168473ffffffffffffffffffffffffffffffffffffffff160361166e576040517f08c379a000000000000000000000000000000000000000000000000000000000815260040161166590613e0d565b60405180910390fd5b600061167861189a565b905060006116858561228d565b905060006116928561228d565b90506116a2838989858589612307565b600080600088815260200190815260200160002060008a73ffffffffffffffffffffffffffffffffffffffff1673ffffffffffffffffffffffffffffffffffffffff16815260200190815260200160002054905085811015611739576040517f08c379a000000000000000000000000000000000000000000000000000000000815260040161173090613e9f565b60405180910390fd5b85810360008089815260200190815260200160002060008b73ffffffffffffffffffffffffffffffffffffffff1673ffffffffffffffffffffffffffffffffffffffff168152602001908152602001600020819055508560008089815260200190815260200160002060008a73ffffffffffffffffffffffffffffffffffffffff1673ffffffffffffffffffffffffffffffffffffffff16815260200190815260200160002060008282546117ee9190613bbb565b925050819055508773ffffffffffffffffffffffffffffffffffffffff168973ffffffffffffffffffffffffffffffffffffffff168573ffffffffffffffffffffffffffffffffffffffff167fc3d58168c5ae7397731d063d5bbf3d657854427343f4c083240f7aacaa2d0f628a8a60405161186b929190613ebf565b60405180910390a4611881848a8a86868a61230f565b61188f848a8a8a8a8a612317565b505050505050505050565b600033905090565b81518351146118e6576040517f08c379a00000000000000000000000000000000000000000000000000000000081526004016118dd90613f5a565b60405180910390fd5b600073ffffffffffffffffffffffffffffffffffffffff168473ffffffffffffffffffffffffffffffffffffffff1603611955576040517f08c379a000000000000000000000000000000000000000000000000000000000815260040161194c90613e0d565b60405180910390fd5b600061195f61189a565b905061196f818787878787612307565b60005b8451811015611b205760008582815181106119905761198f6134ff565b5b6020026020010151905060008583815181106119af576119ae6134ff565b5b60200260200101519050600080600084815260200190815260200160002060008b73ffffffffffffffffffffffffffffffffffffffff1673ffffffffffffffffffffffffffffffffffffffff16815260200190815260200160002054905081811015611a50576040517f08c379a0000000000000000000000000000000000000000000000000000000008152600401611a4790613e9f565b60405180910390fd5b81810360008085815260200190815260200160002060008c73ffffffffffffffffffffffffffffffffffffffff1673ffffffffffffffffffffffffffffffffffffffff168152602001908152602001600020819055508160008085815260200190815260200160002060008b73ffffffffffffffffffffffffffffffffffffffff1673ffffffffffffffffffffffffffffffffffffffff1681526020019081526020016000206000828254611b059190613bbb565b9250508190555050505080611b199061365b565b9050611972565b508473ffffffffffffffffffffffffffffffffffffffff168673ffffffffffffffffffffffffffffffffffffffff168273ffffffffffffffffffffffffffffffffffffffff167f4a39dc06d4c0dbc64b70af90fd698a233a518aa5d07e595d983b8c0526c8f7fb8787604051611b97929190613293565b60405180910390a4611bad81878787878761230f565b611bbb8187878787876124ee565b505050505050565b611bcb61189a565b73ffffffffffffffffffffffffffffffffffffffff16611be9610e63565b73ffffffffffffffffffffffffffffffffffffffff1614611c3f576040517f08c379a0000000000000000000000000000000000000000000000000000000008152600401611c3690613fc6565b60405180910390fd5b565b600073ffffffffffffffffffffffffffffffffffffffff168473ffffffffffffffffffffffffffffffffffffffff1603611cb0576040517f08c379a0000000000000000000000000000000000000000000000000000000008152600401611ca790614058565b60405180910390fd5b6000611cba61189a565b90506000611cc78561228d565b90506000611cd48561228d565b9050611ce583600089858589612307565b8460008088815260200190815260200160002060008973ffffffffffffffffffffffffffffffffffffffff1673ffffffffffffffffffffffffffffffffffffffff1681526020019081526020016000206000828254611d449190613bbb565b925050819055508673ffffffffffffffffffffffffffffffffffffffff16600073ffffffffffffffffffffffffffffffffffffffff168473ffffffffffffffffffffffffffffffffffffffff167fc3d58168c5ae7397731d063d5bbf3d657854427343f4c083240f7aacaa2d0f628989604051611dc2929190613ebf565b60405180910390a4611dd98360008985858961230f565b611de883600089898989612317565b50505050505050565b6001816000016000828254019250508190555050565b600081600001549050919050565b6000600360009054906101000a900473ffffffffffffffffffffffffffffffffffffffff16905081600360006101000a81548173ffffffffffffffffffffffffffffffffffffffff021916908373ffffffffffffffffffffffffffffffffffffffff1602179055508173ffffffffffffffffffffffffffffffffffffffff168173ffffffffffffffffffffffffffffffffffffffff167f8be0079c531659141344cd1fd0a4f28419497f9722a3daafe3b4186f6b6457e060405160405180910390a35050565b8173ffffffffffffffffffffffffffffffffffffffff168373ffffffffffffffffffffffffffffffffffffffff1603611f49576040517f08c379a0000000000000000000000000000000000000000000000000000000008152600401611f40906140ea565b60405180910390fd5b80600160008573ffffffffffffffffffffffffffffffffffffffff1673ffffffffffffffffffffffffffffffffffffffff16815260200190815260200160002060008473ffffffffffffffffffffffffffffffffffffffff1673ffffffffffffffffffffffffffffffffffffffff16815260200190815260200160002060006101000a81548160ff0219169083151502179055508173ffffffffffffffffffffffffffffffffffffffff168373ffffffffffffffffffffffffffffffffffffffff167f17307eab39ab6107e8899845ad3d59bd9653f200f220920489ca2b5937696c318360405161203a919061289a565b60405180910390a3505050565b600073ffffffffffffffffffffffffffffffffffffffff168373ffffffffffffffffffffffffffffffffffffffff16036120b6576040517f08c379a00000000000000000000000000000000000000000000000000000000081526004016120ad9061417c565b60405180910390fd5b60006120c061189a565b905060006120cd8461228d565b905060006120da8461228d565b90506120fa83876000858560405180602001604052806000815250612307565b600080600087815260200190815260200160002060008873ffffffffffffffffffffffffffffffffffffffff1673ffffffffffffffffffffffffffffffffffffffff16815260200190815260200160002054905084811015612191576040517f08c379a00000000000000000000000000000000000000000000000000000000081526004016121889061420e565b60405180910390fd5b84810360008088815260200190815260200160002060008973ffffffffffffffffffffffffffffffffffffffff1673ffffffffffffffffffffffffffffffffffffffff16815260200190815260200160002081905550600073ffffffffffffffffffffffffffffffffffffffff168773ffffffffffffffffffffffffffffffffffffffff168573ffffffffffffffffffffffffffffffffffffffff167fc3d58168c5ae7397731d063d5bbf3d657854427343f4c083240f7aacaa2d0f62898960405161225e929190613ebf565b60405180910390a46122848488600086866040518060200160405280600081525061230f565b50505050505050565b60606000600167ffffffffffffffff8111156122ac576122ab612999565b5b6040519080825280602002602001820160405280156122da5781602001602082028036833780820191505090505b50905082816000815181106122f2576122f16134ff565b5b60200260200101818152505080915050919050565b505050505050565b505050505050565b6123368473ffffffffffffffffffffffffffffffffffffffff166126c5565b156124e6578373ffffffffffffffffffffffffffffffffffffffff1663f23a6e6187878686866040518663ffffffff1660e01b815260040161237c959493929190614283565b6020604051808303816000875af19250505080156123b857506040513d601f19601f820116820180604052508101906123b591906142f2565b60015b61245d576123c461432c565b806308c379a00361242057506123d861434e565b806123e35750612422565b806040517f08c379a00000000000000000000000000000000000000000000000000000000081526004016124179190612972565b60405180910390fd5b505b6040517f08c379a000000000000000000000000000000000000000000000000000000000815260040161245490614450565b60405180910390fd5b63f23a6e6160e01b7bffffffffffffffffffffffffffffffffffffffffffffffffffffffff1916817bffffffffffffffffffffffffffffffffffffffffffffffffffffffff1916146124e4576040517f08c379a00000000000000000000000000000000000000000000000000000000081526004016124db906144e2565b60405180910390fd5b505b505050505050565b61250d8473ffffffffffffffffffffffffffffffffffffffff166126c5565b156126bd578373ffffffffffffffffffffffffffffffffffffffff1663bc197c8187878686866040518663ffffffff1660e01b8152600401612553959493929190614502565b6020604051808303816000875af192505050801561258f57506040513d601f19601f8201168201806040525081019061258c91906142f2565b60015b6126345761259b61432c565b806308c379a0036125f757506125af61434e565b806125ba57506125f9565b806040517f08c379a00000000000000000000000000000000000000000000000000000000081526004016125ee9190612972565b60405180910390fd5b505b6040517f08c379a000000000000000000000000000000000000000000000000000000000815260040161262b90614450565b60405180910390fd5b63bc197c8160e01b7bffffffffffffffffffffffffffffffffffffffffffffffffffffffff1916817bffffffffffffffffffffffffffffffffffffffffffffffffffffffff1916146126bb576040517f08c379a00000000000000000000000000000000000000000000000000000000081526004016126b2906144e2565b60405180910390fd5b505b505050505050565b6000808273ffffffffffffffffffffffffffffffffffffffff163b119050919050565b6000604051905090565b600080fd5b600080fd5b600073ffffffffffffffffffffffffffffffffffffffff82169050919050565b6000612727826126fc565b9050919050565b6127378161271c565b811461274257600080fd5b50565b6000813590506127548161272e565b92915050565b6000819050919050565b61276d8161275a565b811461277857600080fd5b50565b60008135905061278a81612764565b92915050565b600080604083850312156127a7576127a66126f2565b5b60006127b585828601612745565b92505060206127c68582860161277b565b9150509250929050565b6127d98161275a565b82525050565b60006020820190506127f460008301846127d0565b92915050565b60007fffffffff0000000000000000000000000000000000000000000000000000000082169050919050565b61282f816127fa565b811461283a57600080fd5b50565b60008135905061284c81612826565b92915050565b600060208284031215612868576128676126f2565b5b60006128768482850161283d565b91505092915050565b60008115159050919050565b6128948161287f565b82525050565b60006020820190506128af600083018461288b565b92915050565b6000602082840312156128cb576128ca6126f2565b5b60006128d98482850161277b565b91505092915050565b600081519050919050565b600082825260208201905092915050565b60005b8381101561291c578082015181840152602081019050612901565b60008484015250505050565b6000601f19601f8301169050919050565b6000612944826128e2565b61294e81856128ed565b935061295e8185602086016128fe565b61296781612928565b840191505092915050565b6000602082019050818103600083015261298c8184612939565b905092915050565b600080fd5b7f4e487b7100000000000000000000000000000000000000000000000000000000600052604160045260246000fd5b6129d182612928565b810181811067ffffffffffffffff821117156129f0576129ef612999565b5b80604052505050565b6000612a036126e8565b9050612a0f82826129c8565b919050565b600067ffffffffffffffff821115612a2f57612a2e612999565b5b602082029050602081019050919050565b600080fd5b6000612a58612a5384612a14565b6129f9565b90508083825260208201905060208402830185811115612a7b57612a7a612a40565b5b835b81811015612aa45780612a908882612745565b845260208401935050602081019050612a7d565b5050509392505050565b600082601f830112612ac357612ac2612994565b5b8135612ad3848260208601612a45565b91505092915050565b600067ffffffffffffffff821115612af757612af6612999565b5b602082029050602081019050919050565b6000612b1b612b1684612adc565b6129f9565b90508083825260208201905060208402830185811115612b3e57612b3d612a40565b5b835b81811015612b675780612b53888261277b565b845260208401935050602081019050612b40565b5050509392505050565b600082601f830112612b8657612b85612994565b5b8135612b96848260208601612b08565b91505092915050565b600080600060608486031215612bb857612bb76126f2565b5b600084013567ffffffffffffffff811115612bd657612bd56126f7565b5b612be286828701612aae565b935050602084013567ffffffffffffffff811115612c0357612c026126f7565b5b612c0f86828701612b71565b925050604084013567ffffffffffffffff811115612c3057612c2f6126f7565b5b612c3c86828701612b71565b9150509250925092565b600080fd5b600067ffffffffffffffff821115612c6657612c65612999565b5b612c6f82612928565b9050602081019050919050565b82818337600083830152505050565b6000612c9e612c9984612c4b565b6129f9565b905082815260208101848484011115612cba57612cb9612c46565b5b612cc5848285612c7c565b509392505050565b600082601f830112612ce257612ce1612994565b5b8135612cf2848260208601612c8b565b91505092915050565b600080600080600060a08688031215612d1757612d166126f2565b5b6000612d2588828901612745565b9550506020612d3688828901612745565b945050604086013567ffffffffffffffff811115612d5757612d566126f7565b5b612d6388828901612b71565b935050606086013567ffffffffffffffff811115612d8457612d836126f7565b5b612d9088828901612b71565b925050608086013567ffffffffffffffff811115612db157612db06126f7565b5b612dbd88828901612ccd565b9150509295509295909350565b60008060408385031215612de157612de06126f2565b5b600083013567ffffffffffffffff811115612dff57612dfe6126f7565b5b612e0b85828601612aae565b925050602083013567ffffffffffffffff811115612e2c57612e2b6126f7565b5b612e3885828601612b71565b9150509250929050565b600081519050919050565b600082825260208201905092915050565b6000819050602082019050919050565b612e778161275a565b82525050565b6000612e898383612e6e565b60208301905092915050565b6000602082019050919050565b6000612ead82612e42565b612eb78185612e4d565b9350612ec283612e5e565b8060005b83811015612ef3578151612eda8882612e7d565b9750612ee583612e95565b925050600181019050612ec6565b5085935050505092915050565b60006020820190508181036000830152612f1a8184612ea2565b905092915050565b600080600060608486031215612f3b57612f3a6126f2565b5b6000612f4986828701612745565b9350506020612f5a8682870161277b565b9250506040612f6b8682870161277b565b9150509250925092565b60008060408385031215612f8c57612f8b6126f2565b5b6000612f9a8582860161277b565b9250506020612fab8582860161277b565b9150509250929050565b60038110612fc257600080fd5b50565b600081359050612fd481612fb5565b92915050565b600067ffffffffffffffff821115612ff557612ff4612999565b5b612ffe82612928565b9050602081019050919050565b600061301e61301984612fda565b6129f9565b90508281526020810184848401111561303a57613039612c46565b5b613045848285612c7c565b509392505050565b600082601f83011261306257613061612994565b5b813561307284826020860161300b565b91505092915050565b600080600060608486031215613094576130936126f2565b5b60006130a286828701612fc5565b935050602084013567ffffffffffffffff8111156130c3576130c26126f7565b5b6130cf8682870161304d565b925050604084013567ffffffffffffffff8111156130f0576130ef6126f7565b5b6130fc8682870161304d565b9150509250925092565b61310f8161271c565b82525050565b600060208201905061312a6000830184613106565b92915050565b6131398161287f565b811461314457600080fd5b50565b60008135905061315681613130565b92915050565b60008060408385031215613173576131726126f2565b5b600061318185828601612745565b925050602061319285828601613147565b9150509250929050565b7f4e487b7100000000000000000000000000000000000000000000000000000000600052602160045260246000fd5b600381106131dc576131db61319c565b5b50565b60008190506131ed826131cb565b919050565b60006131fd826131df565b9050919050565b61320d816131f2565b82525050565b600060808201905061322860008301876127d0565b6132356020830186613204565b81810360408301526132478185612939565b9050818103606083015261325b8184612939565b905095945050505050565b60006020828403121561327c5761327b6126f2565b5b600061328a84828501612745565b91505092915050565b600060408201905081810360008301526132ad8185612ea2565b905081810360208301526132c18184612ea2565b90509392505050565b600080604083850312156132e1576132e06126f2565b5b60006132ef85828601612745565b925050602061330085828601612745565b9150509250929050565b600080600080600060a08688031215613326576133256126f2565b5b600061333488828901612745565b955050602061334588828901612745565b94505060406133568882890161277b565b93505060606133678882890161277b565b925050608086013567ffffffffffffffff811115613388576133876126f7565b5b61339488828901612ccd565b9150509295509295909350565b7f455243313135353a2061646472657373207a65726f206973206e6f742061207660008201527f616c6964206f776e657200000000000000000000000000000000000000000000602082015250565b60006133fd602a836128ed565b9150613408826133a1565b604082019050919050565b6000602082019050818103600083015261342c816133f0565b9050919050565b7f4e487b7100000000000000000000000000000000000000000000000000000000600052602260045260246000fd5b6000600282049050600182168061347a57607f821691505b60208210810361348d5761348c613433565b5b50919050565b7f417272617973206d7573742068617665207468652073616d65206c656e677468600082015250565b60006134c96020836128ed565b91506134d482613493565b602082019050919050565b600060208201905081810360008301526134f8816134bc565b9050919050565b7f4e487b7100000000000000000000000000000000000000000000000000000000600052603260045260246000fd5b7f4974656d20646f6573206e6f742065786973742e000000000000000000000000600082015250565b60006135646014836128ed565b915061356f8261352e565b602082019050919050565b6000602082019050818103600083015261359381613557565b9050919050565b7f496e73756666696369656e74206974656d2062616c616e636520666f7220747260008201527f616e736665720000000000000000000000000000000000000000000000000000602082015250565b60006135f66026836128ed565b91506136018261359a565b604082019050919050565b60006020820190508181036000830152613625816135e9565b9050919050565b7f4e487b7100000000000000000000000000000000000000000000000000000000600052601160045260246000fd5b60006136668261275a565b91507fffffffffffffffffffffffffffffffffffffffffffffffffffffffffffffffff82036136985761369761362c565b5b600182019050919050565b7f455243313135353a2063616c6c6572206973206e6f7420746f6b656e206f776e60008201527f6572206f7220617070726f766564000000000000000000000000000000000000602082015250565b60006136ff602e836128ed565b915061370a826136a3565b604082019050919050565b6000602082019050818103600083015261372e816136f2565b9050919050565b7f455243313135353a206163636f756e747320616e6420696473206c656e67746860008201527f206d69736d617463680000000000000000000000000000000000000000000000602082015250565b60006137916029836128ed565b915061379c82613735565b604082019050919050565b600060208201905081810360008301526137c081613784565b9050919050565b6000815190506137d68161272e565b92915050565b6000602082840312156137f2576137f16126f2565b5b6000613800848285016137c7565b91505092915050565b7f4e6f7420746865206f776e6572206f662074686520756e69717565206361726460008201527f2e00000000000000000000000000000000000000000000000000000000000000602082015250565b60006138656021836128ed565b915061387082613809565b604082019050919050565b6000602082019050818103600083015261389481613858565b9050919050565b60006040820190506138b060008301856127d0565b6138bd6020830184613106565b9392505050565b60008190508160005260206000209050919050565b60006020601f8301049050919050565b600082821b905092915050565b6000600883026139267fffffffffffffffffffffffffffffffffffffffffffffffffffffffffffffffff826138e9565b61393086836138e9565b95508019841693508086168417925050509392505050565b6000819050919050565b600061396d6139686139638461275a565b613948565b61275a565b9050919050565b6000819050919050565b61398783613952565b61399b61399382613974565b8484546138f6565b825550505050565b600090565b6139b06139a3565b6139bb81848461397e565b505050565b5b818110156139df576139d46000826139a8565b6001810190506139c1565b5050565b601f821115613a24576139f5816138c4565b6139fe846138d9565b81016020851015613a0d578190505b613a21613a19856138d9565b8301826139c0565b50505b505050565b600082821c905092915050565b6000613a4760001984600802613a29565b1980831691505092915050565b6000613a608383613a36565b9150826002028217905092915050565b613a79826128e2565b67ffffffffffffffff811115613a9257613a91612999565b5b613a9c8254613462565b613aa78282856139e3565b600060209050601f831160018114613ada5760008415613ac8578287015190505b613ad28582613a54565b865550613b3a565b601f198416613ae8866138c4565b60005b82811015613b1057848901518255600182019150602085019450602081019050613aeb565b86831015613b2d5784890151613b29601f891682613a36565b8355505b6001600288020188555050505b505050505050565b6000606082019050613b576000830186613106565b613b646020830185613106565b613b7160408301846127d0565b949350505050565b600081519050613b8881613130565b92915050565b600060208284031215613ba457613ba36126f2565b5b6000613bb284828501613b79565b91505092915050565b6000613bc68261275a565b9150613bd18361275a565b9250828201905080821115613be957613be861362c565b5b92915050565b7f4e6f7420617574686f72697a65642e0000000000000000000000000000000000600082015250565b6000613c25600f836128ed565b9150613c3082613bef565b602082019050919050565b60006020820190508181036000830152613c5481613c18565b9050919050565b6000613c668261275a565b9150613c718361275a565b9250828202613c7f8161275a565b91508282048414831517613c9657613c9561362c565b5b5092915050565b7f496e73756666696369656e74204554482073656e742e00000000000000000000600082015250565b6000613cd36016836128ed565b9150613cde82613c9d565b602082019050919050565b60006020820190508181036000830152613d0281613cc6565b9050919050565b7f4f776e61626c653a206e6577206f776e657220697320746865207a65726f206160008201527f6464726573730000000000000000000000000000000000000000000000000000602082015250565b6000613d656026836128ed565b9150613d7082613d09565b604082019050919050565b60006020820190508181036000830152613d9481613d58565b9050919050565b7f455243313135353a207472616e7366657220746f20746865207a65726f20616460008201527f6472657373000000000000000000000000000000000000000000000000000000602082015250565b6000613df76025836128ed565b9150613e0282613d9b565b604082019050919050565b60006020820190508181036000830152613e2681613dea565b9050919050565b7f455243313135353a20696e73756666696369656e742062616c616e636520666f60008201527f72207472616e7366657200000000000000000000000000000000000000000000602082015250565b6000613e89602a836128ed565b9150613e9482613e2d565b604082019050919050565b60006020820190508181036000830152613eb881613e7c565b9050919050565b6000604082019050613ed460008301856127d0565b613ee160208301846127d0565b9392505050565b7f455243313135353a2069647320616e6420616d6f756e7473206c656e6774682060008201527f6d69736d61746368000000000000000000000000000000000000000000000000602082015250565b6000613f446028836128ed565b9150613f4f82613ee8565b604082019050919050565b60006020820190508181036000830152613f7381613f37565b9050919050565b7f4f776e61626c653a2063616c6c6572206973206e6f7420746865206f776e6572600082015250565b6000613fb06020836128ed565b9150613fbb82613f7a565b602082019050919050565b60006020820190508181036000830152613fdf81613fa3565b9050919050565b7f455243313135353a206d696e7420746f20746865207a65726f2061646472657360008201527f7300000000000000000000000000000000000000000000000000000000000000602082015250565b60006140426021836128ed565b915061404d82613fe6565b604082019050919050565b6000602082019050818103600083015261407181614035565b9050919050565b7f455243313135353a2073657474696e6720617070726f76616c2073746174757360008201527f20666f722073656c660000000000000000000000000000000000000000000000602082015250565b60006140d46029836128ed565b91506140df82614078565b604082019050919050565b60006020820190508181036000830152614103816140c7565b9050919050565b7f455243313135353a206275726e2066726f6d20746865207a65726f206164647260008201527f6573730000000000000000000000000000000000000000000000000000000000602082015250565b60006141666023836128ed565b91506141718261410a565b604082019050919050565b6000602082019050818103600083015261419581614159565b9050919050565b7f455243313135353a206275726e20616d6f756e7420657863656564732062616c60008201527f616e636500000000000000000000000000000000000000000000000000000000602082015250565b60006141f86024836128ed565b91506142038261419c565b604082019050919050565b60006020820190508181036000830152614227816141eb565b9050919050565b600081519050919050565b600082825260208201905092915050565b60006142558261422e565b61425f8185614239565b935061426f8185602086016128fe565b61427881612928565b840191505092915050565b600060a0820190506142986000830188613106565b6142a56020830187613106565b6142b260408301866127d0565b6142bf60608301856127d0565b81810360808301526142d1818461424a565b90509695505050505050565b6000815190506142ec81612826565b92915050565b600060208284031215614308576143076126f2565b5b6000614316848285016142dd565b91505092915050565b60008160e01c9050919050565b600060033d111561434b5760046000803e61434860005161431f565b90505b90565b600060443d106143db576143606126e8565b60043d036004823e80513d602482011167ffffffffffffffff821117156143885750506143db565b808201805167ffffffffffffffff8111156143a657505050506143db565b80602083010160043d0385018111156143c35750505050506143db565b6143d2826020018501866129c8565b82955050505050505b90565b7f455243313135353a207472616e7366657220746f206e6f6e2d4552433131353560008201527f526563656976657220696d706c656d656e746572000000000000000000000000602082015250565b600061443a6034836128ed565b9150614445826143de565b604082019050919050565b600060208201905081810360008301526144698161442d565b9050919050565b7f455243313135353a204552433131353552656365697665722072656a6563746560008201527f6420746f6b656e73000000000000000000000000000000000000000000000000602082015250565b60006144cc6028836128ed565b91506144d782614470565b604082019050919050565b600060208201905081810360008301526144fb816144bf565b9050919050565b600060a0820190506145176000830188613106565b6145246020830187613106565b81810360408301526145368186612ea2565b9050818103606083015261454a8185612ea2565b9050818103608083015261455e818461424a565b9050969550505050505056fea2646970667358221220c846cf18535c29ced351714df96d2753f4f3a4ca30090de1f4e8ee82b84f417364736f6c63430008130033",
  "immutableReferences": {},
  "source": "// SPDX-License-Identifier: MIT\n\npragma solidity ^0.8.19;\n\nimport \"@openzeppelin/contracts/token/ERC1155/ERC1155.sol\";\nimport \"@openzeppelin/contracts/utils/Counters.sol\";\nimport \"@openzeppelin/contracts/access/Ownable.sol\";\nimport \"./ERC20SmartContract.sol\"; // Importing the local ERC20 contract.\nimport \"./ERC721SmartContract.sol\"; // Importing the local ERC721 contract.\n\ncontract GameItems is ERC1155, Ownable {\n    using Counters for Counters.Counter;\n\n    Counters.Counter private _itemIds;\n\n    // Addresses of the deployed ERC20 and ERC721 contracts\n    GoldCoin private erc20Token;\n    UniqueCards private erc721Token;\n\n    enum ItemType {\n        PowerUp,\n        Mod,\n        UniqueAttribute\n    }\n\n    struct Item {\n        uint256 id;\n        ItemType itemType;\n        string name;\n        string description;\n    }\n\n    mapping(uint256 => Item) public items;\n\n    constructor(\n        address _erc20Address,\n        address _erc721Address\n    ) ERC1155(\"\") Ownable() {\n        erc20Token = GoldCoin(_erc20Address);\n        erc721Token = UniqueCards(_erc721Address);\n    }\n\n    function createItem(\n        ItemType itemType,\n        string memory name,\n        string memory description\n    ) external onlyOwner returns (uint256) {\n        _itemIds.increment();\n        uint256 newItemId = _itemIds.current();\n\n        Item memory newItem = Item({\n            id: newItemId,\n            itemType: itemType,\n            name: name,\n            description: description\n        });\n\n        items[newItemId] = newItem;\n\n        return newItemId;\n    }\n\n    function mintItem(\n        address to,\n        uint256 itemId,\n        uint256 amount\n    ) external onlyOwner {\n        require(items[itemId].id == itemId, \"Item does not exist.\");\n        _mint(to, itemId, amount, \"\");\n    }\n\n    function burnItem(address owner, uint256 itemId, uint256 amount) external {\n        require(\n            msg.sender == owner || isApprovedForAll(owner, msg.sender),\n            \"Not authorized.\"\n        );\n        _burn(owner, itemId, amount);\n    }\n\n    function purchaseItem(uint256 itemId, uint256 amount) external payable {\n        require(items[itemId].id == itemId, \"Item does not exist.\");\n\n        uint256 price;\n\n        if (items[itemId].itemType == ItemType.PowerUp) {\n            price = 10 * 1e18;\n        } else if (items[itemId].itemType == ItemType.Mod) {\n            price = 20 * 1e18;\n        } else if (items[itemId].itemType == ItemType.UniqueAttribute) {\n            price = 30 * 1e18;\n        }\n\n        require(msg.value >= price * amount, \"Insufficient ETH sent.\");\n\n        _mint(msg.sender, itemId, amount, \"\");\n        payable(owner()).transfer(msg.value);\n    }\n\n    function purchaseWithGoldCoin(uint256 itemId, uint256 amount) external {\n        uint256 price = 30;\n        erc20Token.transferFrom(msg.sender, address(this), price);\n        _mint(msg.sender, itemId, amount, \"\");\n    }\n\n    function tradeUniqueCardForItem(uint256 cardId, uint256 itemId) external {\n        require(\n            erc721Token.ownerOf(cardId) == msg.sender,\n            \"Not the owner of the unique card.\"\n        );\n        erc721Token.tradeCard(cardId, address(this));\n        _mint(msg.sender, itemId, 1, \"\");\n    }\n\n    function getAllBalances(\n        address account\n    )\n        external\n        view\n        returns (uint256[] memory itemIds, uint256[] memory balances)\n    {\n        uint256 itemCount = _itemIds.current(); // Assuming _itemIds is your counter for items\n        itemIds = new uint256[](itemCount);\n        balances = new uint256[](itemCount);\n\n        for (uint256 i = 0; i < itemCount; i++) {\n            itemIds[i] = i + 1; // Assuming item IDs start at 1\n            balances[i] = balanceOf(account, i + 1);\n        }\n\n        return (itemIds, balances);\n    }\n\n    function batchTransfer(\n        address[] memory recipients,\n        uint256[] memory itemIds,\n        uint256[] memory amounts\n    ) external {\n        require(\n            recipients.length == itemIds.length &&\n                itemIds.length == amounts.length,\n            \"Arrays must have the same length\"\n        );\n\n        for (uint256 i = 0; i < recipients.length; i++) {\n            uint256 itemId = itemIds[i];\n            uint256 amount = amounts[i];\n            address recipient = recipients[i];\n\n            require(items[itemId].id == itemId, \"Item does not exist.\");\n            require(\n                balanceOf(msg.sender, itemId) >= amount,\n                \"Insufficient item balance for transfer\"\n            );\n\n            _safeTransferFrom(msg.sender, recipient, itemId, amount, \"\");\n        }\n    }\n}\n",
  "sourcePath": "/Users/ibrahimallahbuksh/BlockchainProject/contracts/ERC1155SmartContract.sol",
  "compiler": {
    "name": "solc",
    "version": "0.8.19+commit.7dd6d404.Emscripten.clang"
  },
  "schemaVersion": "3.4.16",
  "updatedAt": "2023-11-18T01:39:35.681Z",
  "networkType": "ethereum",
  "devdoc": {
    "events": {
      "ApprovalForAll(address,address,bool)": {
        "details": "Emitted when `account` grants or revokes permission to `operator` to transfer their tokens, according to `approved`."
      },
      "TransferBatch(address,address,address,uint256[],uint256[])": {
        "details": "Equivalent to multiple {TransferSingle} events, where `operator`, `from` and `to` are the same for all transfers."
      },
      "TransferSingle(address,address,address,uint256,uint256)": {
        "details": "Emitted when `value` tokens of token type `id` are transferred from `from` to `to` by `operator`."
      },
      "URI(string,uint256)": {
        "details": "Emitted when the URI for token type `id` changes to `value`, if it is a non-programmatic URI. If an {URI} event was emitted for `id`, the standard https://eips.ethereum.org/EIPS/eip-1155#metadata-extensions[guarantees] that `value` will equal the value returned by {IERC1155MetadataURI-uri}."
      }
    },
    "kind": "dev",
    "methods": {
      "balanceOf(address,uint256)": {
        "details": "See {IERC1155-balanceOf}. Requirements: - `account` cannot be the zero address."
      },
      "balanceOfBatch(address[],uint256[])": {
        "details": "See {IERC1155-balanceOfBatch}. Requirements: - `accounts` and `ids` must have the same length."
      },
      "isApprovedForAll(address,address)": {
        "details": "See {IERC1155-isApprovedForAll}."
      },
      "owner()": {
        "details": "Returns the address of the current owner."
      },
      "renounceOwnership()": {
        "details": "Leaves the contract without owner. It will not be possible to call `onlyOwner` functions. Can only be called by the current owner. NOTE: Renouncing ownership will leave the contract without an owner, thereby disabling any functionality that is only available to the owner."
      },
      "safeBatchTransferFrom(address,address,uint256[],uint256[],bytes)": {
        "details": "See {IERC1155-safeBatchTransferFrom}."
      },
      "safeTransferFrom(address,address,uint256,uint256,bytes)": {
        "details": "See {IERC1155-safeTransferFrom}."
      },
      "setApprovalForAll(address,bool)": {
        "details": "See {IERC1155-setApprovalForAll}."
      },
      "supportsInterface(bytes4)": {
        "details": "See {IERC165-supportsInterface}."
      },
      "transferOwnership(address)": {
        "details": "Transfers ownership of the contract to a new account (`newOwner`). Can only be called by the current owner."
      },
      "uri(uint256)": {
        "details": "See {IERC1155MetadataURI-uri}. This implementation returns the same URI for *all* token types. It relies on the token type ID substitution mechanism https://eips.ethereum.org/EIPS/eip-1155#metadata[defined in the EIP]. Clients calling this function must replace the `\\{id\\}` substring with the actual token type ID."
      }
    },
    "version": 1
  },
  "userdoc": {
    "kind": "user",
    "methods": {},
    "version": 1
  }
}