{
  "contractName": "GoldCoin",
  "abi": [
    {
      "inputs": [
        {
          "internalType": "address",
          "name": "initialOwner",
          "type": "address"
        },
        {
          "internalType": "uint256",
          "name": "initialOwnerSupply",
          "type": "uint256"
        },
        {
          "internalType": "uint256",
          "name": "initialContractSupply",
          "type": "uint256"
        }
      ],
      "stateMutability": "nonpayable",
      "type": "constructor"
    },
    {
      "anonymous": false,
      "inputs": [
        {
          "indexed": true,
          "internalType": "address",
          "name": "owner",
          "type": "address"
        },
        {
          "indexed": true,
          "internalType": "address",
          "name": "spender",
          "type": "address"
        },
        {
          "indexed": false,
          "internalType": "uint256",
          "name": "value",
          "type": "uint256"
        }
      ],
      "name": "Approval",
      "type": "event"
    },
    {
      "anonymous": false,
      "inputs": [
        {
          "indexed": true,
          "internalType": "address",
          "name": "previousOwner",
          "type": "address"
        },
        {
          "indexed": true,
          "internalType": "address",
          "name": "newOwner",
          "type": "address"
        }
      ],
      "name": "OwnershipTransferred",
      "type": "event"
    },
    {
      "anonymous": false,
      "inputs": [
        {
          "indexed": true,
          "internalType": "address",
          "name": "from",
          "type": "address"
        },
        {
          "indexed": true,
          "internalType": "address",
          "name": "to",
          "type": "address"
        },
        {
          "indexed": false,
          "internalType": "uint256",
          "name": "value",
          "type": "uint256"
        }
      ],
      "name": "Transfer",
      "type": "event"
    },
    {
      "inputs": [
        {
          "internalType": "address",
          "name": "owner",
          "type": "address"
        },
        {
          "internalType": "address",
          "name": "spender",
          "type": "address"
        }
      ],
      "name": "allowance",
      "outputs": [
        {
          "internalType": "uint256",
          "name": "",
          "type": "uint256"
        }
      ],
      "stateMutability": "view",
      "type": "function",
      "constant": true
    },
    {
      "inputs": [
        {
          "internalType": "address",
          "name": "spender",
          "type": "address"
        },
        {
          "internalType": "uint256",
          "name": "amount",
          "type": "uint256"
        }
      ],
      "name": "approve",
      "outputs": [
        {
          "internalType": "bool",
          "name": "",
          "type": "bool"
        }
      ],
      "stateMutability": "nonpayable",
      "type": "function"
    },
    {
      "inputs": [
        {
          "internalType": "address",
          "name": "account",
          "type": "address"
        }
      ],
      "name": "balanceOf",
      "outputs": [
        {
          "internalType": "uint256",
          "name": "",
          "type": "uint256"
        }
      ],
      "stateMutability": "view",
      "type": "function",
      "constant": true
    },
    {
      "inputs": [],
      "name": "decimals",
      "outputs": [
        {
          "internalType": "uint8",
          "name": "",
          "type": "uint8"
        }
      ],
      "stateMutability": "view",
      "type": "function",
      "constant": true
    },
    {
      "inputs": [
        {
          "internalType": "address",
          "name": "spender",
          "type": "address"
        },
        {
          "internalType": "uint256",
          "name": "subtractedValue",
          "type": "uint256"
        }
      ],
      "name": "decreaseAllowance",
      "outputs": [
        {
          "internalType": "bool",
          "name": "",
          "type": "bool"
        }
      ],
      "stateMutability": "nonpayable",
      "type": "function"
    },
    {
      "inputs": [
        {
          "internalType": "address",
          "name": "spender",
          "type": "address"
        },
        {
          "internalType": "uint256",
          "name": "addedValue",
          "type": "uint256"
        }
      ],
      "name": "increaseAllowance",
      "outputs": [
        {
          "internalType": "bool",
          "name": "",
          "type": "bool"
        }
      ],
      "stateMutability": "nonpayable",
      "type": "function"
    },
    {
      "inputs": [],
      "name": "name",
      "outputs": [
        {
          "internalType": "string",
          "name": "",
          "type": "string"
        }
      ],
      "stateMutability": "view",
      "type": "function",
      "constant": true
    },
    {
      "inputs": [],
      "name": "owner",
      "outputs": [
        {
          "internalType": "address",
          "name": "",
          "type": "address"
        }
      ],
      "stateMutability": "view",
      "type": "function",
      "constant": true
    },
    {
      "inputs": [],
      "name": "rate",
      "outputs": [
        {
          "internalType": "uint256",
          "name": "",
          "type": "uint256"
        }
      ],
      "stateMutability": "view",
      "type": "function",
      "constant": true
    },
    {
      "inputs": [],
      "name": "renounceOwnership",
      "outputs": [],
      "stateMutability": "nonpayable",
      "type": "function"
    },
    {
      "inputs": [],
      "name": "symbol",
      "outputs": [
        {
          "internalType": "string",
          "name": "",
          "type": "string"
        }
      ],
      "stateMutability": "view",
      "type": "function",
      "constant": true
    },
    {
      "inputs": [],
      "name": "totalSupply",
      "outputs": [
        {
          "internalType": "uint256",
          "name": "",
          "type": "uint256"
        }
      ],
      "stateMutability": "view",
      "type": "function",
      "constant": true
    },
    {
      "inputs": [
        {
          "internalType": "address",
          "name": "to",
          "type": "address"
        },
        {
          "internalType": "uint256",
          "name": "amount",
          "type": "uint256"
        }
      ],
      "name": "transfer",
      "outputs": [
        {
          "internalType": "bool",
          "name": "",
          "type": "bool"
        }
      ],
      "stateMutability": "nonpayable",
      "type": "function"
    },
    {
      "inputs": [
        {
          "internalType": "address",
          "name": "from",
          "type": "address"
        },
        {
          "internalType": "address",
          "name": "to",
          "type": "address"
        },
        {
          "internalType": "uint256",
          "name": "amount",
          "type": "uint256"
        }
      ],
      "name": "transferFrom",
      "outputs": [
        {
          "internalType": "bool",
          "name": "",
          "type": "bool"
        }
      ],
      "stateMutability": "nonpayable",
      "type": "function"
    },
    {
      "inputs": [
        {
          "internalType": "address",
          "name": "newOwner",
          "type": "address"
        }
      ],
      "name": "transferOwnership",
      "outputs": [],
      "stateMutability": "nonpayable",
      "type": "function"
    },
    {
      "inputs": [
        {
          "internalType": "address",
          "name": "to",
          "type": "address"
        },
        {
          "internalType": "uint256",
          "name": "amount",
          "type": "uint256"
        }
      ],
      "name": "mint",
      "outputs": [],
      "stateMutability": "nonpayable",
      "type": "function"
    },
    {
      "inputs": [],
      "name": "buyGoldCoins",
      "outputs": [],
      "stateMutability": "payable",
      "type": "function",
      "payable": true
    },
    {
      "inputs": [
        {
          "internalType": "uint256",
          "name": "newRate",
          "type": "uint256"
        }
      ],
      "name": "setRate",
      "outputs": [],
      "stateMutability": "nonpayable",
      "type": "function"
    },
    {
      "inputs": [],
      "name": "withdraw",
      "outputs": [],
      "stateMutability": "nonpayable",
      "type": "function"
    }
  ],
  "bytecode": "0x60806040526103e86006553480156200001757600080fd5b50604051620024b2380380620024b283398181016040528101906200003d919062000406565b6040518060400160405280600881526020017f476f6c64436f696e0000000000000000000000000000000000000000000000008152506040518060400160405280600281526020017f47430000000000000000000000000000000000000000000000000000000000008152508160039081620000ba9190620006d2565b508060049081620000cc9190620006d2565b505050620000ef620000e36200011c60201b60201c565b6200012460201b60201c565b620001018383620001ea60201b60201c565b620001133082620001ea60201b60201c565b505050620008d4565b600033905090565b6000600560009054906101000a900473ffffffffffffffffffffffffffffffffffffffff16905081600560006101000a81548173ffffffffffffffffffffffffffffffffffffffff021916908373ffffffffffffffffffffffffffffffffffffffff1602179055508173ffffffffffffffffffffffffffffffffffffffff168173ffffffffffffffffffffffffffffffffffffffff167f8be0079c531659141344cd1fd0a4f28419497f9722a3daafe3b4186f6b6457e060405160405180910390a35050565b600073ffffffffffffffffffffffffffffffffffffffff168273ffffffffffffffffffffffffffffffffffffffff16036200025c576040517f08c379a000000000000000000000000000000000000000000000000000000000815260040162000253906200081a565b60405180910390fd5b62000270600083836200035760201b60201c565b80600260008282546200028491906200086b565b92505081905550806000808473ffffffffffffffffffffffffffffffffffffffff1673ffffffffffffffffffffffffffffffffffffffff168152602001908152602001600020600082825401925050819055508173ffffffffffffffffffffffffffffffffffffffff16600073ffffffffffffffffffffffffffffffffffffffff167fddf252ad1be2c89b69c2b068fc378daa952ba7f163c4a11628f55a4df523b3ef83604051620003379190620008b7565b60405180910390a362000353600083836200035c60201b60201c565b5050565b505050565b505050565b600080fd5b600073ffffffffffffffffffffffffffffffffffffffff82169050919050565b6000620003938262000366565b9050919050565b620003a58162000386565b8114620003b157600080fd5b50565b600081519050620003c5816200039a565b92915050565b6000819050919050565b620003e081620003cb565b8114620003ec57600080fd5b50565b6000815190506200040081620003d5565b92915050565b60008060006060848603121562000422576200042162000361565b5b60006200043286828701620003b4565b93505060206200044586828701620003ef565b92505060406200045886828701620003ef565b9150509250925092565b600081519050919050565b7f4e487b7100000000000000000000000000000000000000000000000000000000600052604160045260246000fd5b7f4e487b7100000000000000000000000000000000000000000000000000000000600052602260045260246000fd5b60006002820490506001821680620004e457607f821691505b602082108103620004fa57620004f96200049c565b5b50919050565b60008190508160005260206000209050919050565b60006020601f8301049050919050565b600082821b905092915050565b600060088302620005647fffffffffffffffffffffffffffffffffffffffffffffffffffffffffffffffff8262000525565b62000570868362000525565b95508019841693508086168417925050509392505050565b6000819050919050565b6000620005b3620005ad620005a784620003cb565b62000588565b620003cb565b9050919050565b6000819050919050565b620005cf8362000592565b620005e7620005de82620005ba565b84845462000532565b825550505050565b600090565b620005fe620005ef565b6200060b818484620005c4565b505050565b5b81811015620006335762000627600082620005f4565b60018101905062000611565b5050565b601f82111562000682576200064c8162000500565b620006578462000515565b8101602085101562000667578190505b6200067f620006768562000515565b83018262000610565b50505b505050565b600082821c905092915050565b6000620006a76000198460080262000687565b1980831691505092915050565b6000620006c2838362000694565b9150826002028217905092915050565b620006dd8262000462565b67ffffffffffffffff811115620006f957620006f86200046d565b5b620007058254620004cb565b6200071282828562000637565b600060209050601f8311600181146200074a576000841562000735578287015190505b620007418582620006b4565b865550620007b1565b601f1984166200075a8662000500565b60005b8281101562000784578489015182556001820191506020850194506020810190506200075d565b86831015620007a45784890151620007a0601f89168262000694565b8355505b6001600288020188555050505b505050505050565b600082825260208201905092915050565b7f45524332303a206d696e7420746f20746865207a65726f206164647265737300600082015250565b600062000802601f83620007b9565b91506200080f82620007ca565b602082019050919050565b600060208201905081810360008301526200083581620007f3565b9050919050565b7f4e487b7100000000000000000000000000000000000000000000000000000000600052601160045260246000fd5b60006200087882620003cb565b91506200088583620003cb565b9250828201905080821115620008a0576200089f6200083c565b5b92915050565b620008b181620003cb565b82525050565b6000602082019050620008ce6000830184620008a6565b92915050565b611bce80620008e46000396000f3fe6080604052600436106101145760003560e01c806340c10f19116100a057806395d89b411161006457806395d89b411461036e578063a457c2d714610399578063a9059cbb146103d6578063dd62ed3e14610413578063f2fde38b1461045057610114565b806340c10f19146102bc57806370a08231146102e5578063715018a6146103225780637cef6e3f146103395780638da5cb5b1461034357610114565b80632c4e722e116100e75780632c4e722e146101e9578063313ce5671461021457806334fcf4371461023f57806339509351146102685780633ccfd60b146102a557610114565b806306fdde0314610119578063095ea7b31461014457806318160ddd1461018157806323b872dd146101ac575b600080fd5b34801561012557600080fd5b5061012e610479565b60405161013b91906111aa565b60405180910390f35b34801561015057600080fd5b5061016b60048036038101906101669190611265565b61050b565b60405161017891906112c0565b60405180910390f35b34801561018d57600080fd5b5061019661052e565b6040516101a391906112ea565b60405180910390f35b3480156101b857600080fd5b506101d360048036038101906101ce9190611305565b610538565b6040516101e091906112c0565b60405180910390f35b3480156101f557600080fd5b506101fe610567565b60405161020b91906112ea565b60405180910390f35b34801561022057600080fd5b5061022961056d565b6040516102369190611374565b60405180910390f35b34801561024b57600080fd5b506102666004803603810190610261919061138f565b610576565b005b34801561027457600080fd5b5061028f600480360381019061028a9190611265565b610588565b60405161029c91906112c0565b60405180910390f35b3480156102b157600080fd5b506102ba6105bf565b005b3480156102c857600080fd5b506102e360048036038101906102de9190611265565b61061d565b005b3480156102f157600080fd5b5061030c600480360381019061030791906113bc565b610633565b60405161031991906112ea565b60405180910390f35b34801561032e57600080fd5b5061033761067b565b005b61034161068f565b005b34801561034f57600080fd5b50610358610743565b60405161036591906113f8565b60405180910390f35b34801561037a57600080fd5b5061038361076d565b60405161039091906111aa565b60405180910390f35b3480156103a557600080fd5b506103c060048036038101906103bb9190611265565b6107ff565b6040516103cd91906112c0565b60405180910390f35b3480156103e257600080fd5b506103fd60048036038101906103f89190611265565b610876565b60405161040a91906112c0565b60405180910390f35b34801561041f57600080fd5b5061043a60048036038101906104359190611413565b610899565b60405161044791906112ea565b60405180910390f35b34801561045c57600080fd5b50610477600480360381019061047291906113bc565b610920565b005b60606003805461048890611482565b80601f01602080910402602001604051908101604052809291908181526020018280546104b490611482565b80156105015780601f106104d657610100808354040283529160200191610501565b820191906000526020600020905b8154815290600101906020018083116104e457829003601f168201915b5050505050905090565b6000806105166109a3565b90506105238185856109ab565b600191505092915050565b6000600254905090565b6000806105436109a3565b9050610550858285610b74565b61055b858585610c00565b60019150509392505050565b60065481565b60006012905090565b61057e610e76565b8060068190555050565b6000806105936109a3565b90506105b48185856105a58589610899565b6105af91906114e2565b6109ab565b600191505092915050565b6105c7610e76565b60004790506105d4610743565b73ffffffffffffffffffffffffffffffffffffffff166108fc829081150290604051600060405180830381858888f19350505050158015610619573d6000803e3d6000fd5b5050565b610625610e76565b61062f8282610ef4565b5050565b60008060008373ffffffffffffffffffffffffffffffffffffffff1673ffffffffffffffffffffffffffffffffffffffff168152602001908152602001600020549050919050565b610683610e76565b61068d600061104a565b565b60006006543461069f9190611516565b905060006106ac30610633565b9050600082116106f1576040517f08c379a00000000000000000000000000000000000000000000000000000000081526004016106e8906115a4565b60405180910390fd5b80821115610734576040517f08c379a000000000000000000000000000000000000000000000000000000000815260040161072b90611636565b60405180910390fd5b61073f303384610c00565b5050565b6000600560009054906101000a900473ffffffffffffffffffffffffffffffffffffffff16905090565b60606004805461077c90611482565b80601f01602080910402602001604051908101604052809291908181526020018280546107a890611482565b80156107f55780601f106107ca576101008083540402835291602001916107f5565b820191906000526020600020905b8154815290600101906020018083116107d857829003601f168201915b5050505050905090565b60008061080a6109a3565b905060006108188286610899565b90508381101561085d576040517f08c379a0000000000000000000000000000000000000000000000000000000008152600401610854906116c8565b60405180910390fd5b61086a82868684036109ab565b60019250505092915050565b6000806108816109a3565b905061088e818585610c00565b600191505092915050565b6000600160008473ffffffffffffffffffffffffffffffffffffffff1673ffffffffffffffffffffffffffffffffffffffff16815260200190815260200160002060008373ffffffffffffffffffffffffffffffffffffffff1673ffffffffffffffffffffffffffffffffffffffff16815260200190815260200160002054905092915050565b610928610e76565b600073ffffffffffffffffffffffffffffffffffffffff168173ffffffffffffffffffffffffffffffffffffffff1603610997576040517f08c379a000000000000000000000000000000000000000000000000000000000815260040161098e9061175a565b60405180910390fd5b6109a08161104a565b50565b600033905090565b600073ffffffffffffffffffffffffffffffffffffffff168373ffffffffffffffffffffffffffffffffffffffff1603610a1a576040517f08c379a0000000000000000000000000000000000000000000000000000000008152600401610a11906117ec565b60405180910390fd5b600073ffffffffffffffffffffffffffffffffffffffff168273ffffffffffffffffffffffffffffffffffffffff1603610a89576040517f08c379a0000000000000000000000000000000000000000000000000000000008152600401610a809061187e565b60405180910390fd5b80600160008573ffffffffffffffffffffffffffffffffffffffff1673ffffffffffffffffffffffffffffffffffffffff16815260200190815260200160002060008473ffffffffffffffffffffffffffffffffffffffff1673ffffffffffffffffffffffffffffffffffffffff168152602001908152602001600020819055508173ffffffffffffffffffffffffffffffffffffffff168373ffffffffffffffffffffffffffffffffffffffff167f8c5be1e5ebec7d5bd14f71427d1e84f3dd0314c0f7b2291e5b200ac8c7c3b92583604051610b6791906112ea565b60405180910390a3505050565b6000610b808484610899565b90507fffffffffffffffffffffffffffffffffffffffffffffffffffffffffffffffff8114610bfa5781811015610bec576040517f08c379a0000000000000000000000000000000000000000000000000000000008152600401610be3906118ea565b60405180910390fd5b610bf984848484036109ab565b5b50505050565b600073ffffffffffffffffffffffffffffffffffffffff168373ffffffffffffffffffffffffffffffffffffffff1603610c6f576040517f08c379a0000000000000000000000000000000000000000000000000000000008152600401610c669061197c565b60405180910390fd5b600073ffffffffffffffffffffffffffffffffffffffff168273ffffffffffffffffffffffffffffffffffffffff1603610cde576040517f08c379a0000000000000000000000000000000000000000000000000000000008152600401610cd590611a0e565b60405180910390fd5b610ce9838383611110565b60008060008573ffffffffffffffffffffffffffffffffffffffff1673ffffffffffffffffffffffffffffffffffffffff16815260200190815260200160002054905081811015610d6f576040517f08c379a0000000000000000000000000000000000000000000000000000000008152600401610d6690611aa0565b60405180910390fd5b8181036000808673ffffffffffffffffffffffffffffffffffffffff1673ffffffffffffffffffffffffffffffffffffffff16815260200190815260200160002081905550816000808573ffffffffffffffffffffffffffffffffffffffff1673ffffffffffffffffffffffffffffffffffffffff168152602001908152602001600020600082825401925050819055508273ffffffffffffffffffffffffffffffffffffffff168473ffffffffffffffffffffffffffffffffffffffff167fddf252ad1be2c89b69c2b068fc378daa952ba7f163c4a11628f55a4df523b3ef84604051610e5d91906112ea565b60405180910390a3610e70848484611115565b50505050565b610e7e6109a3565b73ffffffffffffffffffffffffffffffffffffffff16610e9c610743565b73ffffffffffffffffffffffffffffffffffffffff1614610ef2576040517f08c379a0000000000000000000000000000000000000000000000000000000008152600401610ee990611b0c565b60405180910390fd5b565b600073ffffffffffffffffffffffffffffffffffffffff168273ffffffffffffffffffffffffffffffffffffffff1603610f63576040517f08c379a0000000000000000000000000000000000000000000000000000000008152600401610f5a90611b78565b60405180910390fd5b610f6f60008383611110565b8060026000828254610f8191906114e2565b92505081905550806000808473ffffffffffffffffffffffffffffffffffffffff1673ffffffffffffffffffffffffffffffffffffffff168152602001908152602001600020600082825401925050819055508173ffffffffffffffffffffffffffffffffffffffff16600073ffffffffffffffffffffffffffffffffffffffff167fddf252ad1be2c89b69c2b068fc378daa952ba7f163c4a11628f55a4df523b3ef8360405161103291906112ea565b60405180910390a361104660008383611115565b5050565b6000600560009054906101000a900473ffffffffffffffffffffffffffffffffffffffff16905081600560006101000a81548173ffffffffffffffffffffffffffffffffffffffff021916908373ffffffffffffffffffffffffffffffffffffffff1602179055508173ffffffffffffffffffffffffffffffffffffffff168173ffffffffffffffffffffffffffffffffffffffff167f8be0079c531659141344cd1fd0a4f28419497f9722a3daafe3b4186f6b6457e060405160405180910390a35050565b505050565b505050565b600081519050919050565b600082825260208201905092915050565b60005b83811015611154578082015181840152602081019050611139565b60008484015250505050565b6000601f19601f8301169050919050565b600061117c8261111a565b6111868185611125565b9350611196818560208601611136565b61119f81611160565b840191505092915050565b600060208201905081810360008301526111c48184611171565b905092915050565b600080fd5b600073ffffffffffffffffffffffffffffffffffffffff82169050919050565b60006111fc826111d1565b9050919050565b61120c816111f1565b811461121757600080fd5b50565b60008135905061122981611203565b92915050565b6000819050919050565b6112428161122f565b811461124d57600080fd5b50565b60008135905061125f81611239565b92915050565b6000806040838503121561127c5761127b6111cc565b5b600061128a8582860161121a565b925050602061129b85828601611250565b9150509250929050565b60008115159050919050565b6112ba816112a5565b82525050565b60006020820190506112d560008301846112b1565b92915050565b6112e48161122f565b82525050565b60006020820190506112ff60008301846112db565b92915050565b60008060006060848603121561131e5761131d6111cc565b5b600061132c8682870161121a565b935050602061133d8682870161121a565b925050604061134e86828701611250565b9150509250925092565b600060ff82169050919050565b61136e81611358565b82525050565b60006020820190506113896000830184611365565b92915050565b6000602082840312156113a5576113a46111cc565b5b60006113b384828501611250565b91505092915050565b6000602082840312156113d2576113d16111cc565b5b60006113e08482850161121a565b91505092915050565b6113f2816111f1565b82525050565b600060208201905061140d60008301846113e9565b92915050565b6000806040838503121561142a576114296111cc565b5b60006114388582860161121a565b92505060206114498582860161121a565b9150509250929050565b7f4e487b7100000000000000000000000000000000000000000000000000000000600052602260045260246000fd5b6000600282049050600182168061149a57607f821691505b6020821081036114ad576114ac611453565b5b50919050565b7f4e487b7100000000000000000000000000000000000000000000000000000000600052601160045260246000fd5b60006114ed8261122f565b91506114f88361122f565b92508282019050808211156115105761150f6114b3565b5b92915050565b60006115218261122f565b915061152c8361122f565b925082820261153a8161122f565b91508282048414831517611551576115506114b3565b5b5092915050565b7f596f75206e65656420746f2073656e6420736f6d652045746865720000000000600082015250565b600061158e601b83611125565b915061159982611558565b602082019050919050565b600060208201905081810360008301526115bd81611581565b9050919050565b7f4e6f7420656e6f75676820476f6c64436f696e7320696e20746865207265736560008201527f7276650000000000000000000000000000000000000000000000000000000000602082015250565b6000611620602383611125565b915061162b826115c4565b604082019050919050565b6000602082019050818103600083015261164f81611613565b9050919050565b7f45524332303a2064656372656173656420616c6c6f77616e63652062656c6f7760008201527f207a65726f000000000000000000000000000000000000000000000000000000602082015250565b60006116b2602583611125565b91506116bd82611656565b604082019050919050565b600060208201905081810360008301526116e1816116a5565b9050919050565b7f4f776e61626c653a206e6577206f776e657220697320746865207a65726f206160008201527f6464726573730000000000000000000000000000000000000000000000000000602082015250565b6000611744602683611125565b915061174f826116e8565b604082019050919050565b6000602082019050818103600083015261177381611737565b9050919050565b7f45524332303a20617070726f76652066726f6d20746865207a65726f2061646460008201527f7265737300000000000000000000000000000000000000000000000000000000602082015250565b60006117d6602483611125565b91506117e18261177a565b604082019050919050565b60006020820190508181036000830152611805816117c9565b9050919050565b7f45524332303a20617070726f766520746f20746865207a65726f20616464726560008201527f7373000000000000000000000000000000000000000000000000000000000000602082015250565b6000611868602283611125565b91506118738261180c565b604082019050919050565b600060208201905081810360008301526118978161185b565b9050919050565b7f45524332303a20696e73756666696369656e7420616c6c6f77616e6365000000600082015250565b60006118d4601d83611125565b91506118df8261189e565b602082019050919050565b60006020820190508181036000830152611903816118c7565b9050919050565b7f45524332303a207472616e736665722066726f6d20746865207a65726f20616460008201527f6472657373000000000000000000000000000000000000000000000000000000602082015250565b6000611966602583611125565b91506119718261190a565b604082019050919050565b6000602082019050818103600083015261199581611959565b9050919050565b7f45524332303a207472616e7366657220746f20746865207a65726f206164647260008201527f6573730000000000000000000000000000000000000000000000000000000000602082015250565b60006119f8602383611125565b9150611a038261199c565b604082019050919050565b60006020820190508181036000830152611a27816119eb565b9050919050565b7f45524332303a207472616e7366657220616d6f756e742065786365656473206260008201527f616c616e63650000000000000000000000000000000000000000000000000000602082015250565b6000611a8a602683611125565b9150611a9582611a2e565b604082019050919050565b60006020820190508181036000830152611ab981611a7d565b9050919050565b7f4f776e61626c653a2063616c6c6572206973206e6f7420746865206f776e6572600082015250565b6000611af6602083611125565b9150611b0182611ac0565b602082019050919050565b60006020820190508181036000830152611b2581611ae9565b9050919050565b7f45524332303a206d696e7420746f20746865207a65726f206164647265737300600082015250565b6000611b62601f83611125565b9150611b6d82611b2c565b602082019050919050565b60006020820190508181036000830152611b9181611b55565b905091905056fea26469706673582212203adda176f397e59d79b07295256b97dc3cf5a680b27a6ac7853255260a7dcb4464736f6c63430008130033",
  "immutableReferences": {},
  "source": "// SPDX-License-Identifier: MIT\npragma solidity ^0.8.19;\n\nimport \"@openzeppelin/contracts/token/ERC20/ERC20.sol\";\nimport \"@openzeppelin/contracts/access/Ownable.sol\";\n\ncontract GoldCoin is ERC20, Ownable {\n    uint256 public rate = 1000; // Number of GoldCoins per Ether\n\n    constructor(\n        address initialOwner,\n        uint256 initialOwnerSupply,\n        uint256 initialContractSupply\n    ) ERC20(\"GoldCoin\", \"GC\") {\n        // Mint initial supply to the owner\n        _mint(initialOwner, initialOwnerSupply);\n\n        // Mint initial supply to the contract itself\n        _mint(address(this), initialContractSupply);\n    }\n\n    function mint(address to, uint256 amount) public onlyOwner {\n        _mint(to, amount);\n    }\n\n    // Function to allow users to buy GoldCoins with Ether\n    function buyGoldCoins() public payable {\n        uint256 amountTobuy = msg.value * rate;\n        uint256 dexBalance = balanceOf(address(this));\n        require(amountTobuy > 0, \"You need to send some Ether\");\n        require(\n            amountTobuy <= dexBalance,\n            \"Not enough GoldCoins in the reserve\"\n        );\n        _transfer(address(this), msg.sender, amountTobuy);\n    }\n\n    // Function to set the exchange rate, only callable by the owner\n    function setRate(uint256 newRate) public onlyOwner {\n        rate = newRate;\n    }\n\n    // Function to withdraw Ether from the contract, only callable by the owner\n    function withdraw() public onlyOwner {\n        uint256 balance = address(this).balance;\n        payable(owner()).transfer(balance);\n    }\n}\n",
  "sourcePath": "/Users/ibrahimallahbuksh/BlockchainProject/contracts/ERC20SmartContract.sol",
  "compiler": {
    "name": "solc",
    "version": "0.8.19+commit.7dd6d404.Emscripten.clang"
  },
  "schemaVersion": "3.4.16",
  "updatedAt": "2023-11-19T18:52:33.251Z",
  "networkType": "ethereum",
  "devdoc": {
    "events": {
      "Approval(address,address,uint256)": {
        "details": "Emitted when the allowance of a `spender` for an `owner` is set by a call to {approve}. `value` is the new allowance."
      },
      "Transfer(address,address,uint256)": {
        "details": "Emitted when `value` tokens are moved from one account (`from`) to another (`to`). Note that `value` may be zero."
      }
    },
    "kind": "dev",
    "methods": {
      "allowance(address,address)": {
        "details": "See {IERC20-allowance}."
      },
      "approve(address,uint256)": {
        "details": "See {IERC20-approve}. NOTE: If `amount` is the maximum `uint256`, the allowance is not updated on `transferFrom`. This is semantically equivalent to an infinite approval. Requirements: - `spender` cannot be the zero address."
      },
      "balanceOf(address)": {
        "details": "See {IERC20-balanceOf}."
      },
      "decimals()": {
        "details": "Returns the number of decimals used to get its user representation. For example, if `decimals` equals `2`, a balance of `505` tokens should be displayed to a user as `5.05` (`505 / 10 ** 2`). Tokens usually opt for a value of 18, imitating the relationship between Ether and Wei. This is the default value returned by this function, unless it's overridden. NOTE: This information is only used for _display_ purposes: it in no way affects any of the arithmetic of the contract, including {IERC20-balanceOf} and {IERC20-transfer}."
      },
      "decreaseAllowance(address,uint256)": {
        "details": "Atomically decreases the allowance granted to `spender` by the caller. This is an alternative to {approve} that can be used as a mitigation for problems described in {IERC20-approve}. Emits an {Approval} event indicating the updated allowance. Requirements: - `spender` cannot be the zero address. - `spender` must have allowance for the caller of at least `subtractedValue`."
      },
      "increaseAllowance(address,uint256)": {
        "details": "Atomically increases the allowance granted to `spender` by the caller. This is an alternative to {approve} that can be used as a mitigation for problems described in {IERC20-approve}. Emits an {Approval} event indicating the updated allowance. Requirements: - `spender` cannot be the zero address."
      },
      "name()": {
        "details": "Returns the name of the token."
      },
      "owner()": {
        "details": "Returns the address of the current owner."
      },
      "renounceOwnership()": {
        "details": "Leaves the contract without owner. It will not be possible to call `onlyOwner` functions. Can only be called by the current owner. NOTE: Renouncing ownership will leave the contract without an owner, thereby disabling any functionality that is only available to the owner."
      },
      "symbol()": {
        "details": "Returns the symbol of the token, usually a shorter version of the name."
      },
      "totalSupply()": {
        "details": "See {IERC20-totalSupply}."
      },
      "transfer(address,uint256)": {
        "details": "See {IERC20-transfer}. Requirements: - `to` cannot be the zero address. - the caller must have a balance of at least `amount`."
      },
      "transferFrom(address,address,uint256)": {
        "details": "See {IERC20-transferFrom}. Emits an {Approval} event indicating the updated allowance. This is not required by the EIP. See the note at the beginning of {ERC20}. NOTE: Does not update the allowance if the current allowance is the maximum `uint256`. Requirements: - `from` and `to` cannot be the zero address. - `from` must have a balance of at least `amount`. - the caller must have allowance for ``from``'s tokens of at least `amount`."
      },
      "transferOwnership(address)": {
        "details": "Transfers ownership of the contract to a new account (`newOwner`). Can only be called by the current owner."
      }
    },
    "version": 1
  },
  "userdoc": {
    "kind": "user",
    "methods": {},
    "version": 1
  }
}