{
  "contractName": "GoldCoin",
  "abi": [
    {
      "inputs": [
        {
          "internalType": "address",
          "name": "initialOwner",
          "type": "address"
        },
        {
          "internalType": "uint256",
          "name": "initialOwnerSupply",
          "type": "uint256"
        },
        {
          "internalType": "uint256",
          "name": "initialContractSupply",
          "type": "uint256"
        }
      ],
      "stateMutability": "nonpayable",
      "type": "constructor"
    },
    {
      "anonymous": false,
      "inputs": [
        {
          "indexed": true,
          "internalType": "address",
          "name": "owner",
          "type": "address"
        },
        {
          "indexed": true,
          "internalType": "address",
          "name": "spender",
          "type": "address"
        },
        {
          "indexed": false,
          "internalType": "uint256",
          "name": "value",
          "type": "uint256"
        }
      ],
      "name": "Approval",
      "type": "event"
    },
    {
      "anonymous": false,
      "inputs": [
        {
          "indexed": true,
          "internalType": "address",
          "name": "buyer",
          "type": "address"
        },
        {
          "indexed": false,
          "internalType": "uint256",
          "name": "etherAmount",
          "type": "uint256"
        },
        {
          "indexed": false,
          "internalType": "uint256",
          "name": "goldCoinAmount",
          "type": "uint256"
        }
      ],
      "name": "GoldCoinPurchase",
      "type": "event"
    },
    {
      "anonymous": false,
      "inputs": [
        {
          "indexed": true,
          "internalType": "address",
          "name": "to",
          "type": "address"
        },
        {
          "indexed": false,
          "internalType": "uint256",
          "name": "amount",
          "type": "uint256"
        }
      ],
      "name": "Mint",
      "type": "event"
    },
    {
      "anonymous": false,
      "inputs": [
        {
          "indexed": true,
          "internalType": "address",
          "name": "previousOwner",
          "type": "address"
        },
        {
          "indexed": true,
          "internalType": "address",
          "name": "newOwner",
          "type": "address"
        }
      ],
      "name": "OwnershipTransferred",
      "type": "event"
    },
    {
      "anonymous": false,
      "inputs": [
        {
          "indexed": false,
          "internalType": "uint256",
          "name": "newRate",
          "type": "uint256"
        }
      ],
      "name": "RateChange",
      "type": "event"
    },
    {
      "anonymous": false,
      "inputs": [
        {
          "indexed": true,
          "internalType": "address",
          "name": "from",
          "type": "address"
        },
        {
          "indexed": true,
          "internalType": "address",
          "name": "to",
          "type": "address"
        },
        {
          "indexed": false,
          "internalType": "uint256",
          "name": "value",
          "type": "uint256"
        }
      ],
      "name": "Transfer",
      "type": "event"
    },
    {
      "anonymous": false,
      "inputs": [
        {
          "indexed": true,
          "internalType": "address",
          "name": "owner",
          "type": "address"
        },
        {
          "indexed": false,
          "internalType": "uint256",
          "name": "amount",
          "type": "uint256"
        }
      ],
      "name": "Withdrawal",
      "type": "event"
    },
    {
      "inputs": [
        {
          "internalType": "address",
          "name": "owner",
          "type": "address"
        },
        {
          "internalType": "address",
          "name": "spender",
          "type": "address"
        }
      ],
      "name": "allowance",
      "outputs": [
        {
          "internalType": "uint256",
          "name": "",
          "type": "uint256"
        }
      ],
      "stateMutability": "view",
      "type": "function",
      "constant": true
    },
    {
      "inputs": [
        {
          "internalType": "address",
          "name": "spender",
          "type": "address"
        },
        {
          "internalType": "uint256",
          "name": "amount",
          "type": "uint256"
        }
      ],
      "name": "approve",
      "outputs": [
        {
          "internalType": "bool",
          "name": "",
          "type": "bool"
        }
      ],
      "stateMutability": "nonpayable",
      "type": "function"
    },
    {
      "inputs": [
        {
          "internalType": "address",
          "name": "account",
          "type": "address"
        }
      ],
      "name": "balanceOf",
      "outputs": [
        {
          "internalType": "uint256",
          "name": "",
          "type": "uint256"
        }
      ],
      "stateMutability": "view",
      "type": "function",
      "constant": true
    },
    {
      "inputs": [],
      "name": "decimals",
      "outputs": [
        {
          "internalType": "uint8",
          "name": "",
          "type": "uint8"
        }
      ],
      "stateMutability": "view",
      "type": "function",
      "constant": true
    },
    {
      "inputs": [
        {
          "internalType": "address",
          "name": "spender",
          "type": "address"
        },
        {
          "internalType": "uint256",
          "name": "subtractedValue",
          "type": "uint256"
        }
      ],
      "name": "decreaseAllowance",
      "outputs": [
        {
          "internalType": "bool",
          "name": "",
          "type": "bool"
        }
      ],
      "stateMutability": "nonpayable",
      "type": "function"
    },
    {
      "inputs": [
        {
          "internalType": "address",
          "name": "spender",
          "type": "address"
        },
        {
          "internalType": "uint256",
          "name": "addedValue",
          "type": "uint256"
        }
      ],
      "name": "increaseAllowance",
      "outputs": [
        {
          "internalType": "bool",
          "name": "",
          "type": "bool"
        }
      ],
      "stateMutability": "nonpayable",
      "type": "function"
    },
    {
      "inputs": [],
      "name": "name",
      "outputs": [
        {
          "internalType": "string",
          "name": "",
          "type": "string"
        }
      ],
      "stateMutability": "view",
      "type": "function",
      "constant": true
    },
    {
      "inputs": [],
      "name": "owner",
      "outputs": [
        {
          "internalType": "address",
          "name": "",
          "type": "address"
        }
      ],
      "stateMutability": "view",
      "type": "function",
      "constant": true
    },
    {
      "inputs": [],
      "name": "rate",
      "outputs": [
        {
          "internalType": "uint256",
          "name": "",
          "type": "uint256"
        }
      ],
      "stateMutability": "view",
      "type": "function",
      "constant": true
    },
    {
      "inputs": [],
      "name": "renounceOwnership",
      "outputs": [],
      "stateMutability": "nonpayable",
      "type": "function"
    },
    {
      "inputs": [],
      "name": "symbol",
      "outputs": [
        {
          "internalType": "string",
          "name": "",
          "type": "string"
        }
      ],
      "stateMutability": "view",
      "type": "function",
      "constant": true
    },
    {
      "inputs": [],
      "name": "totalSupply",
      "outputs": [
        {
          "internalType": "uint256",
          "name": "",
          "type": "uint256"
        }
      ],
      "stateMutability": "view",
      "type": "function",
      "constant": true
    },
    {
      "inputs": [
        {
          "internalType": "address",
          "name": "to",
          "type": "address"
        },
        {
          "internalType": "uint256",
          "name": "amount",
          "type": "uint256"
        }
      ],
      "name": "transfer",
      "outputs": [
        {
          "internalType": "bool",
          "name": "",
          "type": "bool"
        }
      ],
      "stateMutability": "nonpayable",
      "type": "function"
    },
    {
      "inputs": [
        {
          "internalType": "address",
          "name": "from",
          "type": "address"
        },
        {
          "internalType": "address",
          "name": "to",
          "type": "address"
        },
        {
          "internalType": "uint256",
          "name": "amount",
          "type": "uint256"
        }
      ],
      "name": "transferFrom",
      "outputs": [
        {
          "internalType": "bool",
          "name": "",
          "type": "bool"
        }
      ],
      "stateMutability": "nonpayable",
      "type": "function"
    },
    {
      "inputs": [
        {
          "internalType": "address",
          "name": "newOwner",
          "type": "address"
        }
      ],
      "name": "transferOwnership",
      "outputs": [],
      "stateMutability": "nonpayable",
      "type": "function"
    },
    {
      "inputs": [
        {
          "internalType": "address",
          "name": "to",
          "type": "address"
        },
        {
          "internalType": "uint256",
          "name": "amount",
          "type": "uint256"
        }
      ],
      "name": "mint",
      "outputs": [],
      "stateMutability": "nonpayable",
      "type": "function"
    },
    {
      "inputs": [],
      "name": "buyGoldCoins",
      "outputs": [],
      "stateMutability": "payable",
      "type": "function",
      "payable": true
    },
    {
      "inputs": [
        {
          "internalType": "uint256",
          "name": "newRate",
          "type": "uint256"
        }
      ],
      "name": "setRate",
      "outputs": [],
      "stateMutability": "nonpayable",
      "type": "function"
    },
    {
      "inputs": [],
      "name": "withdraw",
      "outputs": [],
      "stateMutability": "nonpayable",
      "type": "function"
    }
  ],
  "bytecode": "0x60806040526103e86006553480156200001757600080fd5b50604051620027263803806200272683398181016040528101906200003d9190620004d0565b6040518060400160405280600881526020017f476f6c64436f696e0000000000000000000000000000000000000000000000008152506040518060400160405280600281526020017f47430000000000000000000000000000000000000000000000000000000000008152508160039081620000ba91906200079c565b508060049081620000cc91906200079c565b505050620000ef620000e3620001e660201b60201c565b620001ee60201b60201c565b6200011683670de0b6b3a7640000846200010a9190620008b2565b620002b460201b60201c565b6200013d30670de0b6b3a764000083620001319190620008b2565b620002b460201b60201c565b8273ffffffffffffffffffffffffffffffffffffffff167f0f6798a560793a54c3bcfe86a93cde1e73087d944c0ea20544137d4121396885836040516200018591906200090e565b60405180910390a23073ffffffffffffffffffffffffffffffffffffffff167f0f6798a560793a54c3bcfe86a93cde1e73087d944c0ea20544137d412139688582604051620001d591906200090e565b60405180910390a2505050620009e9565b600033905090565b6000600560009054906101000a900473ffffffffffffffffffffffffffffffffffffffff16905081600560006101000a81548173ffffffffffffffffffffffffffffffffffffffff021916908373ffffffffffffffffffffffffffffffffffffffff1602179055508173ffffffffffffffffffffffffffffffffffffffff168173ffffffffffffffffffffffffffffffffffffffff167f8be0079c531659141344cd1fd0a4f28419497f9722a3daafe3b4186f6b6457e060405160405180910390a35050565b600073ffffffffffffffffffffffffffffffffffffffff168273ffffffffffffffffffffffffffffffffffffffff160362000326576040517f08c379a00000000000000000000000000000000000000000000000000000000081526004016200031d906200098c565b60405180910390fd5b6200033a600083836200042160201b60201c565b80600260008282546200034e9190620009ae565b92505081905550806000808473ffffffffffffffffffffffffffffffffffffffff1673ffffffffffffffffffffffffffffffffffffffff168152602001908152602001600020600082825401925050819055508173ffffffffffffffffffffffffffffffffffffffff16600073ffffffffffffffffffffffffffffffffffffffff167fddf252ad1be2c89b69c2b068fc378daa952ba7f163c4a11628f55a4df523b3ef836040516200040191906200090e565b60405180910390a36200041d600083836200042660201b60201c565b5050565b505050565b505050565b600080fd5b600073ffffffffffffffffffffffffffffffffffffffff82169050919050565b60006200045d8262000430565b9050919050565b6200046f8162000450565b81146200047b57600080fd5b50565b6000815190506200048f8162000464565b92915050565b6000819050919050565b620004aa8162000495565b8114620004b657600080fd5b50565b600081519050620004ca816200049f565b92915050565b600080600060608486031215620004ec57620004eb6200042b565b5b6000620004fc868287016200047e565b93505060206200050f86828701620004b9565b92505060406200052286828701620004b9565b9150509250925092565b600081519050919050565b7f4e487b7100000000000000000000000000000000000000000000000000000000600052604160045260246000fd5b7f4e487b7100000000000000000000000000000000000000000000000000000000600052602260045260246000fd5b60006002820490506001821680620005ae57607f821691505b602082108103620005c457620005c362000566565b5b50919050565b60008190508160005260206000209050919050565b60006020601f8301049050919050565b600082821b905092915050565b6000600883026200062e7fffffffffffffffffffffffffffffffffffffffffffffffffffffffffffffffff82620005ef565b6200063a8683620005ef565b95508019841693508086168417925050509392505050565b6000819050919050565b60006200067d62000677620006718462000495565b62000652565b62000495565b9050919050565b6000819050919050565b62000699836200065c565b620006b1620006a88262000684565b848454620005fc565b825550505050565b600090565b620006c8620006b9565b620006d58184846200068e565b505050565b5b81811015620006fd57620006f1600082620006be565b600181019050620006db565b5050565b601f8211156200074c576200071681620005ca565b6200072184620005df565b8101602085101562000731578190505b620007496200074085620005df565b830182620006da565b50505b505050565b600082821c905092915050565b6000620007716000198460080262000751565b1980831691505092915050565b60006200078c83836200075e565b9150826002028217905092915050565b620007a7826200052c565b67ffffffffffffffff811115620007c357620007c262000537565b5b620007cf825462000595565b620007dc82828562000701565b600060209050601f831160018114620008145760008415620007ff578287015190505b6200080b85826200077e565b8655506200087b565b601f1984166200082486620005ca565b60005b828110156200084e5784890151825560018201915060208501945060208101905062000827565b868310156200086e57848901516200086a601f8916826200075e565b8355505b6001600288020188555050505b505050505050565b7f4e487b7100000000000000000000000000000000000000000000000000000000600052601160045260246000fd5b6000620008bf8262000495565b9150620008cc8362000495565b9250828202620008dc8162000495565b91508282048414831517620008f657620008f562000883565b5b5092915050565b620009088162000495565b82525050565b6000602082019050620009256000830184620008fd565b92915050565b600082825260208201905092915050565b7f45524332303a206d696e7420746f20746865207a65726f206164647265737300600082015250565b600062000974601f836200092b565b915062000981826200093c565b602082019050919050565b60006020820190508181036000830152620009a78162000965565b9050919050565b6000620009bb8262000495565b9150620009c88362000495565b9250828201905080821115620009e357620009e262000883565b5b92915050565b611d2d80620009f96000396000f3fe6080604052600436106101145760003560e01c806340c10f19116100a057806395d89b411161006457806395d89b411461036e578063a457c2d714610399578063a9059cbb146103d6578063dd62ed3e14610413578063f2fde38b1461045057610114565b806340c10f19146102bc57806370a08231146102e5578063715018a6146103225780637cef6e3f146103395780638da5cb5b1461034357610114565b80632c4e722e116100e75780632c4e722e146101e9578063313ce5671461021457806334fcf4371461023f57806339509351146102685780633ccfd60b146102a557610114565b806306fdde0314610119578063095ea7b31461014457806318160ddd1461018157806323b872dd146101ac575b600080fd5b34801561012557600080fd5b5061012e610479565b60405161013b91906112e0565b60405180910390f35b34801561015057600080fd5b5061016b6004803603810190610166919061139b565b61050b565b60405161017891906113f6565b60405180910390f35b34801561018d57600080fd5b5061019661052e565b6040516101a39190611420565b60405180910390f35b3480156101b857600080fd5b506101d360048036038101906101ce919061143b565b610538565b6040516101e091906113f6565b60405180910390f35b3480156101f557600080fd5b506101fe610567565b60405161020b9190611420565b60405180910390f35b34801561022057600080fd5b5061022961056d565b60405161023691906114aa565b60405180910390f35b34801561024b57600080fd5b50610266600480360381019061026191906114c5565b610576565b005b34801561027457600080fd5b5061028f600480360381019061028a919061139b565b6105bf565b60405161029c91906113f6565b60405180910390f35b3480156102b157600080fd5b506102ba6105f6565b005b3480156102c857600080fd5b506102e360048036038101906102de919061139b565b6106a9565b005b3480156102f157600080fd5b5061030c600480360381019061030791906114f2565b61070d565b6040516103199190611420565b60405180910390f35b34801561032e57600080fd5b50610337610755565b005b610341610769565b005b34801561034f57600080fd5b50610358610879565b604051610365919061152e565b60405180910390f35b34801561037a57600080fd5b506103836108a3565b60405161039091906112e0565b60405180910390f35b3480156103a557600080fd5b506103c060048036038101906103bb919061139b565b610935565b6040516103cd91906113f6565b60405180910390f35b3480156103e257600080fd5b506103fd60048036038101906103f8919061139b565b6109ac565b60405161040a91906113f6565b60405180910390f35b34801561041f57600080fd5b5061043a60048036038101906104359190611549565b6109cf565b6040516104479190611420565b60405180910390f35b34801561045c57600080fd5b50610477600480360381019061047291906114f2565b610a56565b005b606060038054610488906115b8565b80601f01602080910402602001604051908101604052809291908181526020018280546104b4906115b8565b80156105015780601f106104d657610100808354040283529160200191610501565b820191906000526020600020905b8154815290600101906020018083116104e457829003601f168201915b5050505050905090565b600080610516610ad9565b9050610523818585610ae1565b600191505092915050565b6000600254905090565b600080610543610ad9565b9050610550858285610caa565b61055b858585610d36565b60019150509392505050565b60065481565b60006012905090565b61057e610fac565b806006819055507f0b6eb270e68ec2b65cffce354325dcd6cb2449e0e8fec1184cd58da0c7b0344b816040516105b49190611420565b60405180910390a150565b6000806105ca610ad9565b90506105eb8185856105dc85896109cf565b6105e69190611618565b610ae1565b600191505092915050565b6105fe610fac565b600047905061060b610879565b73ffffffffffffffffffffffffffffffffffffffff166108fc829081150290604051600060405180830381858888f19350505050158015610650573d6000803e3d6000fd5b50610659610879565b73ffffffffffffffffffffffffffffffffffffffff167f7fcf532c15f0a6db0bd6d0e038bea71d30d808c7d98cb3bf7268a95bf5081b658260405161069e9190611420565b60405180910390a250565b6106b1610fac565b6106bb828261102a565b8173ffffffffffffffffffffffffffffffffffffffff167f0f6798a560793a54c3bcfe86a93cde1e73087d944c0ea20544137d4121396885826040516107019190611420565b60405180910390a25050565b60008060008373ffffffffffffffffffffffffffffffffffffffff1673ffffffffffffffffffffffffffffffffffffffff168152602001908152602001600020549050919050565b61075d610fac565b6107676000611180565b565b60003490506000612710905060008183610783919061164c565b905060006107903061070d565b9050600082116107d5576040517f08c379a00000000000000000000000000000000000000000000000000000000081526004016107cc906116da565b60405180910390fd5b80821115610818576040517f08c379a000000000000000000000000000000000000000000000000000000000815260040161080f9061176c565b60405180910390fd5b610823303384610d36565b3373ffffffffffffffffffffffffffffffffffffffff167f8f6858cb7d8f337371e31af24ec9a33ca8c2940cd52f0a9de2f8498788edda06858460405161086b92919061178c565b60405180910390a250505050565b6000600560009054906101000a900473ffffffffffffffffffffffffffffffffffffffff16905090565b6060600480546108b2906115b8565b80601f01602080910402602001604051908101604052809291908181526020018280546108de906115b8565b801561092b5780601f106109005761010080835404028352916020019161092b565b820191906000526020600020905b81548152906001019060200180831161090e57829003601f168201915b5050505050905090565b600080610940610ad9565b9050600061094e82866109cf565b905083811015610993576040517f08c379a000000000000000000000000000000000000000000000000000000000815260040161098a90611827565b60405180910390fd5b6109a08286868403610ae1565b60019250505092915050565b6000806109b7610ad9565b90506109c4818585610d36565b600191505092915050565b6000600160008473ffffffffffffffffffffffffffffffffffffffff1673ffffffffffffffffffffffffffffffffffffffff16815260200190815260200160002060008373ffffffffffffffffffffffffffffffffffffffff1673ffffffffffffffffffffffffffffffffffffffff16815260200190815260200160002054905092915050565b610a5e610fac565b600073ffffffffffffffffffffffffffffffffffffffff168173ffffffffffffffffffffffffffffffffffffffff1603610acd576040517f08c379a0000000000000000000000000000000000000000000000000000000008152600401610ac4906118b9565b60405180910390fd5b610ad681611180565b50565b600033905090565b600073ffffffffffffffffffffffffffffffffffffffff168373ffffffffffffffffffffffffffffffffffffffff1603610b50576040517f08c379a0000000000000000000000000000000000000000000000000000000008152600401610b479061194b565b60405180910390fd5b600073ffffffffffffffffffffffffffffffffffffffff168273ffffffffffffffffffffffffffffffffffffffff1603610bbf576040517f08c379a0000000000000000000000000000000000000000000000000000000008152600401610bb6906119dd565b60405180910390fd5b80600160008573ffffffffffffffffffffffffffffffffffffffff1673ffffffffffffffffffffffffffffffffffffffff16815260200190815260200160002060008473ffffffffffffffffffffffffffffffffffffffff1673ffffffffffffffffffffffffffffffffffffffff168152602001908152602001600020819055508173ffffffffffffffffffffffffffffffffffffffff168373ffffffffffffffffffffffffffffffffffffffff167f8c5be1e5ebec7d5bd14f71427d1e84f3dd0314c0f7b2291e5b200ac8c7c3b92583604051610c9d9190611420565b60405180910390a3505050565b6000610cb684846109cf565b90507fffffffffffffffffffffffffffffffffffffffffffffffffffffffffffffffff8114610d305781811015610d22576040517f08c379a0000000000000000000000000000000000000000000000000000000008152600401610d1990611a49565b60405180910390fd5b610d2f8484848403610ae1565b5b50505050565b600073ffffffffffffffffffffffffffffffffffffffff168373ffffffffffffffffffffffffffffffffffffffff1603610da5576040517f08c379a0000000000000000000000000000000000000000000000000000000008152600401610d9c90611adb565b60405180910390fd5b600073ffffffffffffffffffffffffffffffffffffffff168273ffffffffffffffffffffffffffffffffffffffff1603610e14576040517f08c379a0000000000000000000000000000000000000000000000000000000008152600401610e0b90611b6d565b60405180910390fd5b610e1f838383611246565b60008060008573ffffffffffffffffffffffffffffffffffffffff1673ffffffffffffffffffffffffffffffffffffffff16815260200190815260200160002054905081811015610ea5576040517f08c379a0000000000000000000000000000000000000000000000000000000008152600401610e9c90611bff565b60405180910390fd5b8181036000808673ffffffffffffffffffffffffffffffffffffffff1673ffffffffffffffffffffffffffffffffffffffff16815260200190815260200160002081905550816000808573ffffffffffffffffffffffffffffffffffffffff1673ffffffffffffffffffffffffffffffffffffffff168152602001908152602001600020600082825401925050819055508273ffffffffffffffffffffffffffffffffffffffff168473ffffffffffffffffffffffffffffffffffffffff167fddf252ad1be2c89b69c2b068fc378daa952ba7f163c4a11628f55a4df523b3ef84604051610f939190611420565b60405180910390a3610fa684848461124b565b50505050565b610fb4610ad9565b73ffffffffffffffffffffffffffffffffffffffff16610fd2610879565b73ffffffffffffffffffffffffffffffffffffffff1614611028576040517f08c379a000000000000000000000000000000000000000000000000000000000815260040161101f90611c6b565b60405180910390fd5b565b600073ffffffffffffffffffffffffffffffffffffffff168273ffffffffffffffffffffffffffffffffffffffff1603611099576040517f08c379a000000000000000000000000000000000000000000000000000000000815260040161109090611cd7565b60405180910390fd5b6110a560008383611246565b80600260008282546110b79190611618565b92505081905550806000808473ffffffffffffffffffffffffffffffffffffffff1673ffffffffffffffffffffffffffffffffffffffff168152602001908152602001600020600082825401925050819055508173ffffffffffffffffffffffffffffffffffffffff16600073ffffffffffffffffffffffffffffffffffffffff167fddf252ad1be2c89b69c2b068fc378daa952ba7f163c4a11628f55a4df523b3ef836040516111689190611420565b60405180910390a361117c6000838361124b565b5050565b6000600560009054906101000a900473ffffffffffffffffffffffffffffffffffffffff16905081600560006101000a81548173ffffffffffffffffffffffffffffffffffffffff021916908373ffffffffffffffffffffffffffffffffffffffff1602179055508173ffffffffffffffffffffffffffffffffffffffff168173ffffffffffffffffffffffffffffffffffffffff167f8be0079c531659141344cd1fd0a4f28419497f9722a3daafe3b4186f6b6457e060405160405180910390a35050565b505050565b505050565b600081519050919050565b600082825260208201905092915050565b60005b8381101561128a57808201518184015260208101905061126f565b60008484015250505050565b6000601f19601f8301169050919050565b60006112b282611250565b6112bc818561125b565b93506112cc81856020860161126c565b6112d581611296565b840191505092915050565b600060208201905081810360008301526112fa81846112a7565b905092915050565b600080fd5b600073ffffffffffffffffffffffffffffffffffffffff82169050919050565b600061133282611307565b9050919050565b61134281611327565b811461134d57600080fd5b50565b60008135905061135f81611339565b92915050565b6000819050919050565b61137881611365565b811461138357600080fd5b50565b6000813590506113958161136f565b92915050565b600080604083850312156113b2576113b1611302565b5b60006113c085828601611350565b92505060206113d185828601611386565b9150509250929050565b60008115159050919050565b6113f0816113db565b82525050565b600060208201905061140b60008301846113e7565b92915050565b61141a81611365565b82525050565b60006020820190506114356000830184611411565b92915050565b60008060006060848603121561145457611453611302565b5b600061146286828701611350565b935050602061147386828701611350565b925050604061148486828701611386565b9150509250925092565b600060ff82169050919050565b6114a48161148e565b82525050565b60006020820190506114bf600083018461149b565b92915050565b6000602082840312156114db576114da611302565b5b60006114e984828501611386565b91505092915050565b60006020828403121561150857611507611302565b5b600061151684828501611350565b91505092915050565b61152881611327565b82525050565b6000602082019050611543600083018461151f565b92915050565b600080604083850312156115605761155f611302565b5b600061156e85828601611350565b925050602061157f85828601611350565b9150509250929050565b7f4e487b7100000000000000000000000000000000000000000000000000000000600052602260045260246000fd5b600060028204905060018216806115d057607f821691505b6020821081036115e3576115e2611589565b5b50919050565b7f4e487b7100000000000000000000000000000000000000000000000000000000600052601160045260246000fd5b600061162382611365565b915061162e83611365565b9250828201905080821115611646576116456115e9565b5b92915050565b600061165782611365565b915061166283611365565b925082820261167081611365565b91508282048414831517611687576116866115e9565b5b5092915050565b7f596f75206e65656420746f2073656e6420736f6d652045746865720000000000600082015250565b60006116c4601b8361125b565b91506116cf8261168e565b602082019050919050565b600060208201905081810360008301526116f3816116b7565b9050919050565b7f4e6f7420656e6f75676820476f6c64436f696e7320696e20746865207265736560008201527f7276650000000000000000000000000000000000000000000000000000000000602082015250565b600061175660238361125b565b9150611761826116fa565b604082019050919050565b6000602082019050818103600083015261178581611749565b9050919050565b60006040820190506117a16000830185611411565b6117ae6020830184611411565b9392505050565b7f45524332303a2064656372656173656420616c6c6f77616e63652062656c6f7760008201527f207a65726f000000000000000000000000000000000000000000000000000000602082015250565b600061181160258361125b565b915061181c826117b5565b604082019050919050565b6000602082019050818103600083015261184081611804565b9050919050565b7f4f776e61626c653a206e6577206f776e657220697320746865207a65726f206160008201527f6464726573730000000000000000000000000000000000000000000000000000602082015250565b60006118a360268361125b565b91506118ae82611847565b604082019050919050565b600060208201905081810360008301526118d281611896565b9050919050565b7f45524332303a20617070726f76652066726f6d20746865207a65726f2061646460008201527f7265737300000000000000000000000000000000000000000000000000000000602082015250565b600061193560248361125b565b9150611940826118d9565b604082019050919050565b6000602082019050818103600083015261196481611928565b9050919050565b7f45524332303a20617070726f766520746f20746865207a65726f20616464726560008201527f7373000000000000000000000000000000000000000000000000000000000000602082015250565b60006119c760228361125b565b91506119d28261196b565b604082019050919050565b600060208201905081810360008301526119f6816119ba565b9050919050565b7f45524332303a20696e73756666696369656e7420616c6c6f77616e6365000000600082015250565b6000611a33601d8361125b565b9150611a3e826119fd565b602082019050919050565b60006020820190508181036000830152611a6281611a26565b9050919050565b7f45524332303a207472616e736665722066726f6d20746865207a65726f20616460008201527f6472657373000000000000000000000000000000000000000000000000000000602082015250565b6000611ac560258361125b565b9150611ad082611a69565b604082019050919050565b60006020820190508181036000830152611af481611ab8565b9050919050565b7f45524332303a207472616e7366657220746f20746865207a65726f206164647260008201527f6573730000000000000000000000000000000000000000000000000000000000602082015250565b6000611b5760238361125b565b9150611b6282611afb565b604082019050919050565b60006020820190508181036000830152611b8681611b4a565b9050919050565b7f45524332303a207472616e7366657220616d6f756e742065786365656473206260008201527f616c616e63650000000000000000000000000000000000000000000000000000602082015250565b6000611be960268361125b565b9150611bf482611b8d565b604082019050919050565b60006020820190508181036000830152611c1881611bdc565b9050919050565b7f4f776e61626c653a2063616c6c6572206973206e6f7420746865206f776e6572600082015250565b6000611c5560208361125b565b9150611c6082611c1f565b602082019050919050565b60006020820190508181036000830152611c8481611c48565b9050919050565b7f45524332303a206d696e7420746f20746865207a65726f206164647265737300600082015250565b6000611cc1601f8361125b565b9150611ccc82611c8b565b602082019050919050565b60006020820190508181036000830152611cf081611cb4565b905091905056fea26469706673582212205b89dead7ee21f8721a05876d96dcae007eda51e9b9d3172db9032eb20ba859c64736f6c63430008130033",
  "immutableReferences": {},
  "source": "// SPDX-License-Identifier: MIT\npragma solidity ^0.8.19;\n\nimport \"@openzeppelin/contracts/token/ERC20/ERC20.sol\";\nimport \"@openzeppelin/contracts/access/Ownable.sol\";\n\ncontract GoldCoin is ERC20, Ownable {\n    uint256 public rate = 1000; // Number of GoldCoins per Ether\n\n    // Define events\n    event Mint(address indexed to, uint256 amount);\n    event GoldCoinPurchase(\n        address indexed buyer,\n        uint256 etherAmount,\n        uint256 goldCoinAmount\n    );\n    event RateChange(uint256 newRate);\n    event Withdrawal(address indexed owner, uint256 amount);\n\n    constructor(\n        address initialOwner,\n        uint256 initialOwnerSupply,\n        uint256 initialContractSupply\n    ) ERC20(\"GoldCoin\", \"GC\") {\n        // Mint initial supply to the owner and the contract\n        _mint(initialOwner, initialOwnerSupply * 10 ** 18);\n        _mint(address(this), initialContractSupply * 10 ** 18);\n\n        // Emit the Mint events\n        emit Mint(initialOwner, initialOwnerSupply);\n        emit Mint(address(this), initialContractSupply);\n    }\n\n    function mint(address to, uint256 amount) public onlyOwner {\n        _mint(to, amount);\n        emit Mint(to, amount);\n    }\n\n    function buyGoldCoins() public payable {\n        uint256 weiAmount = msg.value;\n        // Local rate calculation: Number of GoldCoins per wei\n        // For example, 1,000,000 GoldCoins for 1 wei\n        uint256 localRate = 10000; // Adjust this rate as needed for testing\n\n        // Calculate the number of tokens to buy\n        uint256 tokensToBuy = weiAmount * localRate;\n        uint256 dexBalance = balanceOf(address(this));\n        require(tokensToBuy > 0, \"You need to send some Ether\");\n        require(\n            tokensToBuy <= dexBalance,\n            \"Not enough GoldCoins in the reserve\"\n        );\n        _transfer(address(this), msg.sender, tokensToBuy);\n\n        emit GoldCoinPurchase(msg.sender, weiAmount, tokensToBuy);\n    }\n\n    // Function to set the exchange rate, only callable by the owner\n    function setRate(uint256 newRate) public onlyOwner {\n        rate = newRate;\n        emit RateChange(newRate);\n    }\n\n    // Function to withdraw Ether from the contract, only callable by the owner\n    function withdraw() public onlyOwner {\n        uint256 balance = address(this).balance;\n        payable(owner()).transfer(balance);\n        emit Withdrawal(owner(), balance);\n    }\n}\n",
  "sourcePath": "/Users/ibrahimallahbuksh/BlockchainProject/contracts/ERC20SmartContract.sol",
  "compiler": {
    "name": "solc",
    "version": "0.8.19+commit.7dd6d404.Emscripten.clang"
  },
  "schemaVersion": "3.4.16",
  "updatedAt": "2023-11-19T23:10:49.158Z",
  "networkType": "ethereum",
  "devdoc": {
    "events": {
      "Approval(address,address,uint256)": {
        "details": "Emitted when the allowance of a `spender` for an `owner` is set by a call to {approve}. `value` is the new allowance."
      },
      "Transfer(address,address,uint256)": {
        "details": "Emitted when `value` tokens are moved from one account (`from`) to another (`to`). Note that `value` may be zero."
      }
    },
    "kind": "dev",
    "methods": {
      "allowance(address,address)": {
        "details": "See {IERC20-allowance}."
      },
      "approve(address,uint256)": {
        "details": "See {IERC20-approve}. NOTE: If `amount` is the maximum `uint256`, the allowance is not updated on `transferFrom`. This is semantically equivalent to an infinite approval. Requirements: - `spender` cannot be the zero address."
      },
      "balanceOf(address)": {
        "details": "See {IERC20-balanceOf}."
      },
      "decimals()": {
        "details": "Returns the number of decimals used to get its user representation. For example, if `decimals` equals `2`, a balance of `505` tokens should be displayed to a user as `5.05` (`505 / 10 ** 2`). Tokens usually opt for a value of 18, imitating the relationship between Ether and Wei. This is the default value returned by this function, unless it's overridden. NOTE: This information is only used for _display_ purposes: it in no way affects any of the arithmetic of the contract, including {IERC20-balanceOf} and {IERC20-transfer}."
      },
      "decreaseAllowance(address,uint256)": {
        "details": "Atomically decreases the allowance granted to `spender` by the caller. This is an alternative to {approve} that can be used as a mitigation for problems described in {IERC20-approve}. Emits an {Approval} event indicating the updated allowance. Requirements: - `spender` cannot be the zero address. - `spender` must have allowance for the caller of at least `subtractedValue`."
      },
      "increaseAllowance(address,uint256)": {
        "details": "Atomically increases the allowance granted to `spender` by the caller. This is an alternative to {approve} that can be used as a mitigation for problems described in {IERC20-approve}. Emits an {Approval} event indicating the updated allowance. Requirements: - `spender` cannot be the zero address."
      },
      "name()": {
        "details": "Returns the name of the token."
      },
      "owner()": {
        "details": "Returns the address of the current owner."
      },
      "renounceOwnership()": {
        "details": "Leaves the contract without owner. It will not be possible to call `onlyOwner` functions. Can only be called by the current owner. NOTE: Renouncing ownership will leave the contract without an owner, thereby disabling any functionality that is only available to the owner."
      },
      "symbol()": {
        "details": "Returns the symbol of the token, usually a shorter version of the name."
      },
      "totalSupply()": {
        "details": "See {IERC20-totalSupply}."
      },
      "transfer(address,uint256)": {
        "details": "See {IERC20-transfer}. Requirements: - `to` cannot be the zero address. - the caller must have a balance of at least `amount`."
      },
      "transferFrom(address,address,uint256)": {
        "details": "See {IERC20-transferFrom}. Emits an {Approval} event indicating the updated allowance. This is not required by the EIP. See the note at the beginning of {ERC20}. NOTE: Does not update the allowance if the current allowance is the maximum `uint256`. Requirements: - `from` and `to` cannot be the zero address. - `from` must have a balance of at least `amount`. - the caller must have allowance for ``from``'s tokens of at least `amount`."
      },
      "transferOwnership(address)": {
        "details": "Transfers ownership of the contract to a new account (`newOwner`). Can only be called by the current owner."
      }
    },
    "version": 1
  },
  "userdoc": {
    "kind": "user",
    "methods": {},
    "version": 1
  }
}