{
  "contractName": "GoldCoin",
  "abi": [
    {
      "inputs": [
        {
          "internalType": "address",
          "name": "initialOwner",
          "type": "address"
        },
        {
          "internalType": "uint256",
          "name": "initialOwnerSupply",
          "type": "uint256"
        },
        {
          "internalType": "uint256",
          "name": "initialContractSupply",
          "type": "uint256"
        }
      ],
      "stateMutability": "nonpayable",
      "type": "constructor"
    },
    {
      "anonymous": false,
      "inputs": [
        {
          "indexed": true,
          "internalType": "address",
          "name": "owner",
          "type": "address"
        },
        {
          "indexed": true,
          "internalType": "address",
          "name": "spender",
          "type": "address"
        },
        {
          "indexed": false,
          "internalType": "uint256",
          "name": "value",
          "type": "uint256"
        }
      ],
      "name": "Approval",
      "type": "event"
    },
    {
      "anonymous": false,
      "inputs": [
        {
          "indexed": true,
          "internalType": "address",
          "name": "buyer",
          "type": "address"
        },
        {
          "indexed": false,
          "internalType": "uint256",
          "name": "etherAmount",
          "type": "uint256"
        },
        {
          "indexed": false,
          "internalType": "uint256",
          "name": "goldCoinAmount",
          "type": "uint256"
        }
      ],
      "name": "GoldCoinPurchase",
      "type": "event"
    },
    {
      "anonymous": false,
      "inputs": [
        {
          "indexed": true,
          "internalType": "address",
          "name": "to",
          "type": "address"
        },
        {
          "indexed": false,
          "internalType": "uint256",
          "name": "amount",
          "type": "uint256"
        }
      ],
      "name": "Mint",
      "type": "event"
    },
    {
      "anonymous": false,
      "inputs": [
        {
          "indexed": true,
          "internalType": "address",
          "name": "previousOwner",
          "type": "address"
        },
        {
          "indexed": true,
          "internalType": "address",
          "name": "newOwner",
          "type": "address"
        }
      ],
      "name": "OwnershipTransferred",
      "type": "event"
    },
    {
      "anonymous": false,
      "inputs": [
        {
          "indexed": false,
          "internalType": "uint256",
          "name": "newRate",
          "type": "uint256"
        }
      ],
      "name": "RateChange",
      "type": "event"
    },
    {
      "anonymous": false,
      "inputs": [
        {
          "indexed": true,
          "internalType": "address",
          "name": "from",
          "type": "address"
        },
        {
          "indexed": true,
          "internalType": "address",
          "name": "to",
          "type": "address"
        },
        {
          "indexed": false,
          "internalType": "uint256",
          "name": "value",
          "type": "uint256"
        }
      ],
      "name": "Transfer",
      "type": "event"
    },
    {
      "anonymous": false,
      "inputs": [
        {
          "indexed": true,
          "internalType": "address",
          "name": "owner",
          "type": "address"
        },
        {
          "indexed": false,
          "internalType": "uint256",
          "name": "amount",
          "type": "uint256"
        }
      ],
      "name": "Withdrawal",
      "type": "event"
    },
    {
      "inputs": [
        {
          "internalType": "address",
          "name": "owner",
          "type": "address"
        },
        {
          "internalType": "address",
          "name": "spender",
          "type": "address"
        }
      ],
      "name": "allowance",
      "outputs": [
        {
          "internalType": "uint256",
          "name": "",
          "type": "uint256"
        }
      ],
      "stateMutability": "view",
      "type": "function"
    },
    {
      "inputs": [
        {
          "internalType": "address",
          "name": "spender",
          "type": "address"
        },
        {
          "internalType": "uint256",
          "name": "amount",
          "type": "uint256"
        }
      ],
      "name": "approve",
      "outputs": [
        {
          "internalType": "bool",
          "name": "",
          "type": "bool"
        }
      ],
      "stateMutability": "nonpayable",
      "type": "function"
    },
    {
      "inputs": [
        {
          "internalType": "address",
          "name": "account",
          "type": "address"
        }
      ],
      "name": "balanceOf",
      "outputs": [
        {
          "internalType": "uint256",
          "name": "",
          "type": "uint256"
        }
      ],
      "stateMutability": "view",
      "type": "function"
    },
    {
      "inputs": [],
      "name": "decimals",
      "outputs": [
        {
          "internalType": "uint8",
          "name": "",
          "type": "uint8"
        }
      ],
      "stateMutability": "view",
      "type": "function"
    },
    {
      "inputs": [
        {
          "internalType": "address",
          "name": "spender",
          "type": "address"
        },
        {
          "internalType": "uint256",
          "name": "subtractedValue",
          "type": "uint256"
        }
      ],
      "name": "decreaseAllowance",
      "outputs": [
        {
          "internalType": "bool",
          "name": "",
          "type": "bool"
        }
      ],
      "stateMutability": "nonpayable",
      "type": "function"
    },
    {
      "inputs": [
        {
          "internalType": "address",
          "name": "spender",
          "type": "address"
        },
        {
          "internalType": "uint256",
          "name": "addedValue",
          "type": "uint256"
        }
      ],
      "name": "increaseAllowance",
      "outputs": [
        {
          "internalType": "bool",
          "name": "",
          "type": "bool"
        }
      ],
      "stateMutability": "nonpayable",
      "type": "function"
    },
    {
      "inputs": [],
      "name": "name",
      "outputs": [
        {
          "internalType": "string",
          "name": "",
          "type": "string"
        }
      ],
      "stateMutability": "view",
      "type": "function"
    },
    {
      "inputs": [],
      "name": "owner",
      "outputs": [
        {
          "internalType": "address",
          "name": "",
          "type": "address"
        }
      ],
      "stateMutability": "view",
      "type": "function"
    },
    {
      "inputs": [],
      "name": "rate",
      "outputs": [
        {
          "internalType": "uint256",
          "name": "",
          "type": "uint256"
        }
      ],
      "stateMutability": "view",
      "type": "function"
    },
    {
      "inputs": [],
      "name": "renounceOwnership",
      "outputs": [],
      "stateMutability": "nonpayable",
      "type": "function"
    },
    {
      "inputs": [],
      "name": "symbol",
      "outputs": [
        {
          "internalType": "string",
          "name": "",
          "type": "string"
        }
      ],
      "stateMutability": "view",
      "type": "function"
    },
    {
      "inputs": [],
      "name": "totalSupply",
      "outputs": [
        {
          "internalType": "uint256",
          "name": "",
          "type": "uint256"
        }
      ],
      "stateMutability": "view",
      "type": "function"
    },
    {
      "inputs": [
        {
          "internalType": "address",
          "name": "to",
          "type": "address"
        },
        {
          "internalType": "uint256",
          "name": "amount",
          "type": "uint256"
        }
      ],
      "name": "transfer",
      "outputs": [
        {
          "internalType": "bool",
          "name": "",
          "type": "bool"
        }
      ],
      "stateMutability": "nonpayable",
      "type": "function"
    },
    {
      "inputs": [
        {
          "internalType": "address",
          "name": "from",
          "type": "address"
        },
        {
          "internalType": "address",
          "name": "to",
          "type": "address"
        },
        {
          "internalType": "uint256",
          "name": "amount",
          "type": "uint256"
        }
      ],
      "name": "transferFrom",
      "outputs": [
        {
          "internalType": "bool",
          "name": "",
          "type": "bool"
        }
      ],
      "stateMutability": "nonpayable",
      "type": "function"
    },
    {
      "inputs": [
        {
          "internalType": "address",
          "name": "newOwner",
          "type": "address"
        }
      ],
      "name": "transferOwnership",
      "outputs": [],
      "stateMutability": "nonpayable",
      "type": "function"
    },
    {
      "inputs": [
        {
          "internalType": "address",
          "name": "to",
          "type": "address"
        },
        {
          "internalType": "uint256",
          "name": "amount",
          "type": "uint256"
        }
      ],
      "name": "mint",
      "outputs": [],
      "stateMutability": "nonpayable",
      "type": "function"
    },
    {
      "inputs": [
        {
          "internalType": "address",
          "name": "player",
          "type": "address"
        }
      ],
      "name": "buyGoldCoins",
      "outputs": [],
      "stateMutability": "payable",
      "type": "function"
    },
    {
      "inputs": [
        {
          "internalType": "uint256",
          "name": "newRate",
          "type": "uint256"
        }
      ],
      "name": "setRate",
      "outputs": [],
      "stateMutability": "nonpayable",
      "type": "function"
    },
    {
      "inputs": [],
      "name": "withdraw",
      "outputs": [],
      "stateMutability": "nonpayable",
      "type": "function"
    }
  ],
  "bytecode": "0x60806040526103e86006553480156200001757600080fd5b50604051620027e9380380620027e983398181016040528101906200003d9190620004d0565b6040518060400160405280600881526020017f476f6c64436f696e0000000000000000000000000000000000000000000000008152506040518060400160405280600281526020017f47430000000000000000000000000000000000000000000000000000000000008152508160039081620000ba91906200079c565b508060049081620000cc91906200079c565b505050620000ef620000e3620001e660201b60201c565b620001ee60201b60201c565b6200011683670de0b6b3a7640000846200010a9190620008b2565b620002b460201b60201c565b6200013d30670de0b6b3a764000083620001319190620008b2565b620002b460201b60201c565b8273ffffffffffffffffffffffffffffffffffffffff167f0f6798a560793a54c3bcfe86a93cde1e73087d944c0ea20544137d4121396885836040516200018591906200090e565b60405180910390a23073ffffffffffffffffffffffffffffffffffffffff167f0f6798a560793a54c3bcfe86a93cde1e73087d944c0ea20544137d412139688582604051620001d591906200090e565b60405180910390a2505050620009e9565b600033905090565b6000600560009054906101000a900473ffffffffffffffffffffffffffffffffffffffff16905081600560006101000a81548173ffffffffffffffffffffffffffffffffffffffff021916908373ffffffffffffffffffffffffffffffffffffffff1602179055508173ffffffffffffffffffffffffffffffffffffffff168173ffffffffffffffffffffffffffffffffffffffff167f8be0079c531659141344cd1fd0a4f28419497f9722a3daafe3b4186f6b6457e060405160405180910390a35050565b600073ffffffffffffffffffffffffffffffffffffffff168273ffffffffffffffffffffffffffffffffffffffff160362000326576040517f08c379a00000000000000000000000000000000000000000000000000000000081526004016200031d906200098c565b60405180910390fd5b6200033a600083836200042160201b60201c565b80600260008282546200034e9190620009ae565b92505081905550806000808473ffffffffffffffffffffffffffffffffffffffff1673ffffffffffffffffffffffffffffffffffffffff168152602001908152602001600020600082825401925050819055508173ffffffffffffffffffffffffffffffffffffffff16600073ffffffffffffffffffffffffffffffffffffffff167fddf252ad1be2c89b69c2b068fc378daa952ba7f163c4a11628f55a4df523b3ef836040516200040191906200090e565b60405180910390a36200041d600083836200042660201b60201c565b5050565b505050565b505050565b600080fd5b600073ffffffffffffffffffffffffffffffffffffffff82169050919050565b60006200045d8262000430565b9050919050565b6200046f8162000450565b81146200047b57600080fd5b50565b6000815190506200048f8162000464565b92915050565b6000819050919050565b620004aa8162000495565b8114620004b657600080fd5b50565b600081519050620004ca816200049f565b92915050565b600080600060608486031215620004ec57620004eb6200042b565b5b6000620004fc868287016200047e565b93505060206200050f86828701620004b9565b92505060406200052286828701620004b9565b9150509250925092565b600081519050919050565b7f4e487b7100000000000000000000000000000000000000000000000000000000600052604160045260246000fd5b7f4e487b7100000000000000000000000000000000000000000000000000000000600052602260045260246000fd5b60006002820490506001821680620005ae57607f821691505b602082108103620005c457620005c362000566565b5b50919050565b60008190508160005260206000209050919050565b60006020601f8301049050919050565b600082821b905092915050565b6000600883026200062e7fffffffffffffffffffffffffffffffffffffffffffffffffffffffffffffffff82620005ef565b6200063a8683620005ef565b95508019841693508086168417925050509392505050565b6000819050919050565b60006200067d62000677620006718462000495565b62000652565b62000495565b9050919050565b6000819050919050565b62000699836200065c565b620006b1620006a88262000684565b848454620005fc565b825550505050565b600090565b620006c8620006b9565b620006d58184846200068e565b505050565b5b81811015620006fd57620006f1600082620006be565b600181019050620006db565b5050565b601f8211156200074c576200071681620005ca565b6200072184620005df565b8101602085101562000731578190505b620007496200074085620005df565b830182620006da565b50505b505050565b600082821c905092915050565b6000620007716000198460080262000751565b1980831691505092915050565b60006200078c83836200075e565b9150826002028217905092915050565b620007a7826200052c565b67ffffffffffffffff811115620007c357620007c262000537565b5b620007cf825462000595565b620007dc82828562000701565b600060209050601f831160018114620008145760008415620007ff578287015190505b6200080b85826200077e565b8655506200087b565b601f1984166200082486620005ca565b60005b828110156200084e5784890151825560018201915060208501945060208101905062000827565b868310156200086e57848901516200086a601f8916826200075e565b8355505b6001600288020188555050505b505050505050565b7f4e487b7100000000000000000000000000000000000000000000000000000000600052601160045260246000fd5b6000620008bf8262000495565b9150620008cc8362000495565b9250828202620008dc8162000495565b91508282048414831517620008f657620008f562000883565b5b5092915050565b620009088162000495565b82525050565b6000602082019050620009256000830184620008fd565b92915050565b600082825260208201905092915050565b7f45524332303a206d696e7420746f20746865207a65726f206164647265737300600082015250565b600062000974601f836200092b565b915062000981826200093c565b602082019050919050565b60006020820190508181036000830152620009a78162000965565b9050919050565b6000620009bb8262000495565b9150620009c88362000495565b9250828201905080821115620009e357620009e262000883565b5b92915050565b611df080620009f96000396000f3fe6080604052600436106101145760003560e01c806340c10f19116100a057806395d89b411161006457806395d89b4114610380578063a457c2d7146103ab578063a9059cbb146103e8578063dd62ed3e14610425578063f2fde38b1461046257610114565b806340c10f19146102bc578063584c9f47146102e557806370a0823114610301578063715018a61461033e5780638da5cb5b1461035557610114565b80632c4e722e116100e75780632c4e722e146101e9578063313ce5671461021457806334fcf4371461023f57806339509351146102685780633ccfd60b146102a557610114565b806306fdde0314610119578063095ea7b31461014457806318160ddd1461018157806323b872dd146101ac575b600080fd5b34801561012557600080fd5b5061012e61048b565b60405161013b9190611337565b60405180910390f35b34801561015057600080fd5b5061016b600480360381019061016691906113f2565b61051d565b604051610178919061144d565b60405180910390f35b34801561018d57600080fd5b50610196610540565b6040516101a39190611477565b60405180910390f35b3480156101b857600080fd5b506101d360048036038101906101ce9190611492565b61054a565b6040516101e0919061144d565b60405180910390f35b3480156101f557600080fd5b506101fe610579565b60405161020b9190611477565b60405180910390f35b34801561022057600080fd5b5061022961057f565b6040516102369190611501565b60405180910390f35b34801561024b57600080fd5b506102666004803603810190610261919061151c565b610588565b005b34801561027457600080fd5b5061028f600480360381019061028a91906113f2565b6105d1565b60405161029c919061144d565b60405180910390f35b3480156102b157600080fd5b506102ba610608565b005b3480156102c857600080fd5b506102e360048036038101906102de91906113f2565b6106bb565b005b6102ff60048036038101906102fa9190611549565b61071f565b005b34801561030d57600080fd5b5061032860048036038101906103239190611549565b610874565b6040516103359190611477565b60405180910390f35b34801561034a57600080fd5b506103536108bc565b005b34801561036157600080fd5b5061036a6108d0565b6040516103779190611585565b60405180910390f35b34801561038c57600080fd5b506103956108fa565b6040516103a29190611337565b60405180910390f35b3480156103b757600080fd5b506103d260048036038101906103cd91906113f2565b61098c565b6040516103df919061144d565b60405180910390f35b3480156103f457600080fd5b5061040f600480360381019061040a91906113f2565b610a03565b60405161041c919061144d565b60405180910390f35b34801561043157600080fd5b5061044c600480360381019061044791906115a0565b610a26565b6040516104599190611477565b60405180910390f35b34801561046e57600080fd5b5061048960048036038101906104849190611549565b610aad565b005b60606003805461049a9061160f565b80601f01602080910402602001604051908101604052809291908181526020018280546104c69061160f565b80156105135780601f106104e857610100808354040283529160200191610513565b820191906000526020600020905b8154815290600101906020018083116104f657829003601f168201915b5050505050905090565b600080610528610b30565b9050610535818585610b38565b600191505092915050565b6000600254905090565b600080610555610b30565b9050610562858285610d01565b61056d858585610d8d565b60019150509392505050565b60065481565b60006012905090565b610590611003565b806006819055507f0b6eb270e68ec2b65cffce354325dcd6cb2449e0e8fec1184cd58da0c7b0344b816040516105c69190611477565b60405180910390a150565b6000806105dc610b30565b90506105fd8185856105ee8589610a26565b6105f8919061166f565b610b38565b600191505092915050565b610610611003565b600047905061061d6108d0565b73ffffffffffffffffffffffffffffffffffffffff166108fc829081150290604051600060405180830381858888f19350505050158015610662573d6000803e3d6000fd5b5061066b6108d0565b73ffffffffffffffffffffffffffffffffffffffff167f7fcf532c15f0a6db0bd6d0e038bea71d30d808c7d98cb3bf7268a95bf5081b65826040516106b09190611477565b60405180910390a250565b6106c3611003565b6106cd8282611081565b8173ffffffffffffffffffffffffffffffffffffffff167f0f6798a560793a54c3bcfe86a93cde1e73087d944c0ea20544137d4121396885826040516107139190611477565b60405180910390a25050565b6000349050662386f26fc1000081101561076e576040517f08c379a0000000000000000000000000000000000000000000000000000000008152600401610765906116ef565b60405180910390fd5b60006006548261077e919061170f565b9050600061078b30610874565b9050600082116107d0576040517f08c379a00000000000000000000000000000000000000000000000000000000081526004016107c79061179d565b60405180910390fd5b80821115610813576040517f08c379a000000000000000000000000000000000000000000000000000000000815260040161080a9061182f565b60405180910390fd5b61081e308584610d8d565b8373ffffffffffffffffffffffffffffffffffffffff167f8f6858cb7d8f337371e31af24ec9a33ca8c2940cd52f0a9de2f8498788edda06848460405161086692919061184f565b60405180910390a250505050565b60008060008373ffffffffffffffffffffffffffffffffffffffff1673ffffffffffffffffffffffffffffffffffffffff168152602001908152602001600020549050919050565b6108c4611003565b6108ce60006111d7565b565b6000600560009054906101000a900473ffffffffffffffffffffffffffffffffffffffff16905090565b6060600480546109099061160f565b80601f01602080910402602001604051908101604052809291908181526020018280546109359061160f565b80156109825780601f1061095757610100808354040283529160200191610982565b820191906000526020600020905b81548152906001019060200180831161096557829003601f168201915b5050505050905090565b600080610997610b30565b905060006109a58286610a26565b9050838110156109ea576040517f08c379a00000000000000000000000000000000000000000000000000000000081526004016109e1906118ea565b60405180910390fd5b6109f78286868403610b38565b60019250505092915050565b600080610a0e610b30565b9050610a1b818585610d8d565b600191505092915050565b6000600160008473ffffffffffffffffffffffffffffffffffffffff1673ffffffffffffffffffffffffffffffffffffffff16815260200190815260200160002060008373ffffffffffffffffffffffffffffffffffffffff1673ffffffffffffffffffffffffffffffffffffffff16815260200190815260200160002054905092915050565b610ab5611003565b600073ffffffffffffffffffffffffffffffffffffffff168173ffffffffffffffffffffffffffffffffffffffff1603610b24576040517f08c379a0000000000000000000000000000000000000000000000000000000008152600401610b1b9061197c565b60405180910390fd5b610b2d816111d7565b50565b600033905090565b600073ffffffffffffffffffffffffffffffffffffffff168373ffffffffffffffffffffffffffffffffffffffff1603610ba7576040517f08c379a0000000000000000000000000000000000000000000000000000000008152600401610b9e90611a0e565b60405180910390fd5b600073ffffffffffffffffffffffffffffffffffffffff168273ffffffffffffffffffffffffffffffffffffffff1603610c16576040517f08c379a0000000000000000000000000000000000000000000000000000000008152600401610c0d90611aa0565b60405180910390fd5b80600160008573ffffffffffffffffffffffffffffffffffffffff1673ffffffffffffffffffffffffffffffffffffffff16815260200190815260200160002060008473ffffffffffffffffffffffffffffffffffffffff1673ffffffffffffffffffffffffffffffffffffffff168152602001908152602001600020819055508173ffffffffffffffffffffffffffffffffffffffff168373ffffffffffffffffffffffffffffffffffffffff167f8c5be1e5ebec7d5bd14f71427d1e84f3dd0314c0f7b2291e5b200ac8c7c3b92583604051610cf49190611477565b60405180910390a3505050565b6000610d0d8484610a26565b90507fffffffffffffffffffffffffffffffffffffffffffffffffffffffffffffffff8114610d875781811015610d79576040517f08c379a0000000000000000000000000000000000000000000000000000000008152600401610d7090611b0c565b60405180910390fd5b610d868484848403610b38565b5b50505050565b600073ffffffffffffffffffffffffffffffffffffffff168373ffffffffffffffffffffffffffffffffffffffff1603610dfc576040517f08c379a0000000000000000000000000000000000000000000000000000000008152600401610df390611b9e565b60405180910390fd5b600073ffffffffffffffffffffffffffffffffffffffff168273ffffffffffffffffffffffffffffffffffffffff1603610e6b576040517f08c379a0000000000000000000000000000000000000000000000000000000008152600401610e6290611c30565b60405180910390fd5b610e7683838361129d565b60008060008573ffffffffffffffffffffffffffffffffffffffff1673ffffffffffffffffffffffffffffffffffffffff16815260200190815260200160002054905081811015610efc576040517f08c379a0000000000000000000000000000000000000000000000000000000008152600401610ef390611cc2565b60405180910390fd5b8181036000808673ffffffffffffffffffffffffffffffffffffffff1673ffffffffffffffffffffffffffffffffffffffff16815260200190815260200160002081905550816000808573ffffffffffffffffffffffffffffffffffffffff1673ffffffffffffffffffffffffffffffffffffffff168152602001908152602001600020600082825401925050819055508273ffffffffffffffffffffffffffffffffffffffff168473ffffffffffffffffffffffffffffffffffffffff167fddf252ad1be2c89b69c2b068fc378daa952ba7f163c4a11628f55a4df523b3ef84604051610fea9190611477565b60405180910390a3610ffd8484846112a2565b50505050565b61100b610b30565b73ffffffffffffffffffffffffffffffffffffffff166110296108d0565b73ffffffffffffffffffffffffffffffffffffffff161461107f576040517f08c379a000000000000000000000000000000000000000000000000000000000815260040161107690611d2e565b60405180910390fd5b565b600073ffffffffffffffffffffffffffffffffffffffff168273ffffffffffffffffffffffffffffffffffffffff16036110f0576040517f08c379a00000000000000000000000000000000000000000000000000000000081526004016110e790611d9a565b60405180910390fd5b6110fc6000838361129d565b806002600082825461110e919061166f565b92505081905550806000808473ffffffffffffffffffffffffffffffffffffffff1673ffffffffffffffffffffffffffffffffffffffff168152602001908152602001600020600082825401925050819055508173ffffffffffffffffffffffffffffffffffffffff16600073ffffffffffffffffffffffffffffffffffffffff167fddf252ad1be2c89b69c2b068fc378daa952ba7f163c4a11628f55a4df523b3ef836040516111bf9190611477565b60405180910390a36111d3600083836112a2565b5050565b6000600560009054906101000a900473ffffffffffffffffffffffffffffffffffffffff16905081600560006101000a81548173ffffffffffffffffffffffffffffffffffffffff021916908373ffffffffffffffffffffffffffffffffffffffff1602179055508173ffffffffffffffffffffffffffffffffffffffff168173ffffffffffffffffffffffffffffffffffffffff167f8be0079c531659141344cd1fd0a4f28419497f9722a3daafe3b4186f6b6457e060405160405180910390a35050565b505050565b505050565b600081519050919050565b600082825260208201905092915050565b60005b838110156112e15780820151818401526020810190506112c6565b60008484015250505050565b6000601f19601f8301169050919050565b6000611309826112a7565b61131381856112b2565b93506113238185602086016112c3565b61132c816112ed565b840191505092915050565b6000602082019050818103600083015261135181846112fe565b905092915050565b600080fd5b600073ffffffffffffffffffffffffffffffffffffffff82169050919050565b60006113898261135e565b9050919050565b6113998161137e565b81146113a457600080fd5b50565b6000813590506113b681611390565b92915050565b6000819050919050565b6113cf816113bc565b81146113da57600080fd5b50565b6000813590506113ec816113c6565b92915050565b6000806040838503121561140957611408611359565b5b6000611417858286016113a7565b9250506020611428858286016113dd565b9150509250929050565b60008115159050919050565b61144781611432565b82525050565b6000602082019050611462600083018461143e565b92915050565b611471816113bc565b82525050565b600060208201905061148c6000830184611468565b92915050565b6000806000606084860312156114ab576114aa611359565b5b60006114b9868287016113a7565b93505060206114ca868287016113a7565b92505060406114db868287016113dd565b9150509250925092565b600060ff82169050919050565b6114fb816114e5565b82525050565b600060208201905061151660008301846114f2565b92915050565b60006020828403121561153257611531611359565b5b6000611540848285016113dd565b91505092915050565b60006020828403121561155f5761155e611359565b5b600061156d848285016113a7565b91505092915050565b61157f8161137e565b82525050565b600060208201905061159a6000830184611576565b92915050565b600080604083850312156115b7576115b6611359565b5b60006115c5858286016113a7565b92505060206115d6858286016113a7565b9150509250929050565b7f4e487b7100000000000000000000000000000000000000000000000000000000600052602260045260246000fd5b6000600282049050600182168061162757607f821691505b60208210810361163a576116396115e0565b5b50919050565b7f4e487b7100000000000000000000000000000000000000000000000000000000600052601160045260246000fd5b600061167a826113bc565b9150611685836113bc565b925082820190508082111561169d5761169c611640565b5b92915050565b7f4d696e696d756d20707572636861736520697320302e30312045746865720000600082015250565b60006116d9601e836112b2565b91506116e4826116a3565b602082019050919050565b60006020820190508181036000830152611708816116cc565b9050919050565b600061171a826113bc565b9150611725836113bc565b9250828202611733816113bc565b9150828204841483151761174a57611749611640565b5b5092915050565b7f596f75206e65656420746f2073656e6420736f6d652045746865720000000000600082015250565b6000611787601b836112b2565b915061179282611751565b602082019050919050565b600060208201905081810360008301526117b68161177a565b9050919050565b7f4e6f7420656e6f75676820476f6c64436f696e7320696e20746865207265736560008201527f7276650000000000000000000000000000000000000000000000000000000000602082015250565b60006118196023836112b2565b9150611824826117bd565b604082019050919050565b600060208201905081810360008301526118488161180c565b9050919050565b60006040820190506118646000830185611468565b6118716020830184611468565b9392505050565b7f45524332303a2064656372656173656420616c6c6f77616e63652062656c6f7760008201527f207a65726f000000000000000000000000000000000000000000000000000000602082015250565b60006118d46025836112b2565b91506118df82611878565b604082019050919050565b60006020820190508181036000830152611903816118c7565b9050919050565b7f4f776e61626c653a206e6577206f776e657220697320746865207a65726f206160008201527f6464726573730000000000000000000000000000000000000000000000000000602082015250565b60006119666026836112b2565b91506119718261190a565b604082019050919050565b6000602082019050818103600083015261199581611959565b9050919050565b7f45524332303a20617070726f76652066726f6d20746865207a65726f2061646460008201527f7265737300000000000000000000000000000000000000000000000000000000602082015250565b60006119f86024836112b2565b9150611a038261199c565b604082019050919050565b60006020820190508181036000830152611a27816119eb565b9050919050565b7f45524332303a20617070726f766520746f20746865207a65726f20616464726560008201527f7373000000000000000000000000000000000000000000000000000000000000602082015250565b6000611a8a6022836112b2565b9150611a9582611a2e565b604082019050919050565b60006020820190508181036000830152611ab981611a7d565b9050919050565b7f45524332303a20696e73756666696369656e7420616c6c6f77616e6365000000600082015250565b6000611af6601d836112b2565b9150611b0182611ac0565b602082019050919050565b60006020820190508181036000830152611b2581611ae9565b9050919050565b7f45524332303a207472616e736665722066726f6d20746865207a65726f20616460008201527f6472657373000000000000000000000000000000000000000000000000000000602082015250565b6000611b886025836112b2565b9150611b9382611b2c565b604082019050919050565b60006020820190508181036000830152611bb781611b7b565b9050919050565b7f45524332303a207472616e7366657220746f20746865207a65726f206164647260008201527f6573730000000000000000000000000000000000000000000000000000000000602082015250565b6000611c1a6023836112b2565b9150611c2582611bbe565b604082019050919050565b60006020820190508181036000830152611c4981611c0d565b9050919050565b7f45524332303a207472616e7366657220616d6f756e742065786365656473206260008201527f616c616e63650000000000000000000000000000000000000000000000000000602082015250565b6000611cac6026836112b2565b9150611cb782611c50565b604082019050919050565b60006020820190508181036000830152611cdb81611c9f565b9050919050565b7f4f776e61626c653a2063616c6c6572206973206e6f7420746865206f776e6572600082015250565b6000611d186020836112b2565b9150611d2382611ce2565b602082019050919050565b60006020820190508181036000830152611d4781611d0b565b9050919050565b7f45524332303a206d696e7420746f20746865207a65726f206164647265737300600082015250565b6000611d84601f836112b2565b9150611d8f82611d4e565b602082019050919050565b60006020820190508181036000830152611db381611d77565b905091905056fea2646970667358221220f5375c20373867f7b4e17973b8d6e7ee23d087bb3d888757d9f112d4a803470064736f6c63430008130033",
  "immutableReferences": {},
  "source": "// SPDX-License-Identifier: MIT\npragma solidity ^0.8.19;\n\nimport \"@openzeppelin/contracts/token/ERC20/ERC20.sol\";\nimport \"@openzeppelin/contracts/access/Ownable.sol\";\n\ncontract GoldCoin is ERC20, Ownable {\n    uint256 public rate = 1000; // Number of GoldCoins per Ether\n\n    // Define events\n    event Mint(address indexed to, uint256 amount);\n    event GoldCoinPurchase(\n        address indexed buyer,\n        uint256 etherAmount,\n        uint256 goldCoinAmount\n    );\n    event RateChange(uint256 newRate);\n    event Withdrawal(address indexed owner, uint256 amount);\n\n    constructor(\n        address initialOwner,\n        uint256 initialOwnerSupply,\n        uint256 initialContractSupply\n    ) ERC20(\"GoldCoin\", \"GC\") {\n        // Mint initial supply to the owner and the contract\n        _mint(initialOwner, initialOwnerSupply * 10 ** 18);\n        _mint(address(this), initialContractSupply * 10 ** 18);\n\n        // Emit the Mint events\n        emit Mint(initialOwner, initialOwnerSupply);\n        emit Mint(address(this), initialContractSupply);\n    }\n\n    function mint(address to, uint256 amount) public onlyOwner {\n        _mint(to, amount);\n        emit Mint(to, amount);\n    }\n\n    function buyGoldCoins(address player) public payable {\n        uint256 weiAmount = msg.value;\n        require(weiAmount >= 0.01 ether, \"Minimum purchase is 0.01 Ether\");\n\n        // Calculate tokens to buy based on the rate (1000 GoldCoins per Ether)\n        uint256 tokensToBuy = weiAmount * rate;\n\n        uint256 dexBalance = balanceOf(address(this));\n        require(tokensToBuy > 0, \"You need to send some Ether\");\n        require(\n            tokensToBuy <= dexBalance,\n            \"Not enough GoldCoins in the reserve\"\n        );\n\n        _transfer(address(this), player, tokensToBuy);\n\n        emit GoldCoinPurchase(player, weiAmount, tokensToBuy);\n    }\n\n    // Function to set the exchange rate, only callable by the owner\n    function setRate(uint256 newRate) public onlyOwner {\n        rate = newRate;\n        emit RateChange(newRate);\n    }\n\n    // Function to withdraw Ether from the contract, only callable by the owner\n    function withdraw() public onlyOwner {\n        uint256 balance = address(this).balance;\n        payable(owner()).transfer(balance);\n        emit Withdrawal(owner(), balance);\n    }\n}\n",
  "sourcePath": "/Users/ibrahimallahbuksh/BlockchainProject/contracts/ERC20SmartContract.sol",
  "compiler": {
    "name": "solc",
    "version": "0.8.19+commit.7dd6d404.Emscripten.clang"
  },
  "schemaVersion": "3.4.16",
  "updatedAt": "2023-11-20T00:49:34.040Z",
  "devdoc": {
    "events": {
      "Approval(address,address,uint256)": {
        "details": "Emitted when the allowance of a `spender` for an `owner` is set by a call to {approve}. `value` is the new allowance."
      },
      "Transfer(address,address,uint256)": {
        "details": "Emitted when `value` tokens are moved from one account (`from`) to another (`to`). Note that `value` may be zero."
      }
    },
    "kind": "dev",
    "methods": {
      "allowance(address,address)": {
        "details": "See {IERC20-allowance}."
      },
      "approve(address,uint256)": {
        "details": "See {IERC20-approve}. NOTE: If `amount` is the maximum `uint256`, the allowance is not updated on `transferFrom`. This is semantically equivalent to an infinite approval. Requirements: - `spender` cannot be the zero address."
      },
      "balanceOf(address)": {
        "details": "See {IERC20-balanceOf}."
      },
      "decimals()": {
        "details": "Returns the number of decimals used to get its user representation. For example, if `decimals` equals `2`, a balance of `505` tokens should be displayed to a user as `5.05` (`505 / 10 ** 2`). Tokens usually opt for a value of 18, imitating the relationship between Ether and Wei. This is the default value returned by this function, unless it's overridden. NOTE: This information is only used for _display_ purposes: it in no way affects any of the arithmetic of the contract, including {IERC20-balanceOf} and {IERC20-transfer}."
      },
      "decreaseAllowance(address,uint256)": {
        "details": "Atomically decreases the allowance granted to `spender` by the caller. This is an alternative to {approve} that can be used as a mitigation for problems described in {IERC20-approve}. Emits an {Approval} event indicating the updated allowance. Requirements: - `spender` cannot be the zero address. - `spender` must have allowance for the caller of at least `subtractedValue`."
      },
      "increaseAllowance(address,uint256)": {
        "details": "Atomically increases the allowance granted to `spender` by the caller. This is an alternative to {approve} that can be used as a mitigation for problems described in {IERC20-approve}. Emits an {Approval} event indicating the updated allowance. Requirements: - `spender` cannot be the zero address."
      },
      "name()": {
        "details": "Returns the name of the token."
      },
      "owner()": {
        "details": "Returns the address of the current owner."
      },
      "renounceOwnership()": {
        "details": "Leaves the contract without owner. It will not be possible to call `onlyOwner` functions. Can only be called by the current owner. NOTE: Renouncing ownership will leave the contract without an owner, thereby disabling any functionality that is only available to the owner."
      },
      "symbol()": {
        "details": "Returns the symbol of the token, usually a shorter version of the name."
      },
      "totalSupply()": {
        "details": "See {IERC20-totalSupply}."
      },
      "transfer(address,uint256)": {
        "details": "See {IERC20-transfer}. Requirements: - `to` cannot be the zero address. - the caller must have a balance of at least `amount`."
      },
      "transferFrom(address,address,uint256)": {
        "details": "See {IERC20-transferFrom}. Emits an {Approval} event indicating the updated allowance. This is not required by the EIP. See the note at the beginning of {ERC20}. NOTE: Does not update the allowance if the current allowance is the maximum `uint256`. Requirements: - `from` and `to` cannot be the zero address. - `from` must have a balance of at least `amount`. - the caller must have allowance for ``from``'s tokens of at least `amount`."
      },
      "transferOwnership(address)": {
        "details": "Transfers ownership of the contract to a new account (`newOwner`). Can only be called by the current owner."
      }
    },
    "version": 1
  },
  "userdoc": {
    "kind": "user",
    "methods": {},
    "version": 1
  }
}