{
  "contractName": "GoldCoin",
  "abi": [
    {
      "inputs": [],
      "stateMutability": "nonpayable",
      "type": "constructor"
    },
    {
      "anonymous": false,
      "inputs": [
        {
          "indexed": true,
          "internalType": "address",
          "name": "owner",
          "type": "address"
        },
        {
          "indexed": true,
          "internalType": "address",
          "name": "spender",
          "type": "address"
        },
        {
          "indexed": false,
          "internalType": "uint256",
          "name": "value",
          "type": "uint256"
        }
      ],
      "name": "Approval",
      "type": "event"
    },
    {
      "anonymous": false,
      "inputs": [
        {
          "indexed": true,
          "internalType": "address",
          "name": "buyer",
          "type": "address"
        },
        {
          "indexed": false,
          "internalType": "uint256",
          "name": "etherAmount",
          "type": "uint256"
        },
        {
          "indexed": false,
          "internalType": "uint256",
          "name": "goldCoinAmount",
          "type": "uint256"
        }
      ],
      "name": "GoldCoinPurchase",
      "type": "event"
    },
    {
      "anonymous": false,
      "inputs": [
        {
          "indexed": true,
          "internalType": "address",
          "name": "to",
          "type": "address"
        },
        {
          "indexed": false,
          "internalType": "uint256",
          "name": "amount",
          "type": "uint256"
        }
      ],
      "name": "Mint",
      "type": "event"
    },
    {
      "anonymous": false,
      "inputs": [
        {
          "indexed": false,
          "internalType": "uint256",
          "name": "newRate",
          "type": "uint256"
        }
      ],
      "name": "RateChange",
      "type": "event"
    },
    {
      "anonymous": false,
      "inputs": [
        {
          "indexed": true,
          "internalType": "address",
          "name": "from",
          "type": "address"
        },
        {
          "indexed": true,
          "internalType": "address",
          "name": "to",
          "type": "address"
        },
        {
          "indexed": false,
          "internalType": "uint256",
          "name": "value",
          "type": "uint256"
        }
      ],
      "name": "Transfer",
      "type": "event"
    },
    {
      "anonymous": false,
      "inputs": [
        {
          "indexed": true,
          "internalType": "address",
          "name": "owner",
          "type": "address"
        },
        {
          "indexed": false,
          "internalType": "uint256",
          "name": "amount",
          "type": "uint256"
        }
      ],
      "name": "Withdrawal",
      "type": "event"
    },
    {
      "inputs": [
        {
          "internalType": "address",
          "name": "owner",
          "type": "address"
        },
        {
          "internalType": "address",
          "name": "spender",
          "type": "address"
        }
      ],
      "name": "allowance",
      "outputs": [
        {
          "internalType": "uint256",
          "name": "",
          "type": "uint256"
        }
      ],
      "stateMutability": "view",
      "type": "function",
      "constant": true
    },
    {
      "inputs": [
        {
          "internalType": "address",
          "name": "spender",
          "type": "address"
        },
        {
          "internalType": "uint256",
          "name": "amount",
          "type": "uint256"
        }
      ],
      "name": "approve",
      "outputs": [
        {
          "internalType": "bool",
          "name": "",
          "type": "bool"
        }
      ],
      "stateMutability": "nonpayable",
      "type": "function"
    },
    {
      "inputs": [
        {
          "internalType": "address",
          "name": "account",
          "type": "address"
        }
      ],
      "name": "balanceOf",
      "outputs": [
        {
          "internalType": "uint256",
          "name": "",
          "type": "uint256"
        }
      ],
      "stateMutability": "view",
      "type": "function",
      "constant": true
    },
    {
      "inputs": [],
      "name": "decimals",
      "outputs": [
        {
          "internalType": "uint8",
          "name": "",
          "type": "uint8"
        }
      ],
      "stateMutability": "view",
      "type": "function",
      "constant": true
    },
    {
      "inputs": [
        {
          "internalType": "address",
          "name": "spender",
          "type": "address"
        },
        {
          "internalType": "uint256",
          "name": "subtractedValue",
          "type": "uint256"
        }
      ],
      "name": "decreaseAllowance",
      "outputs": [
        {
          "internalType": "bool",
          "name": "",
          "type": "bool"
        }
      ],
      "stateMutability": "nonpayable",
      "type": "function"
    },
    {
      "inputs": [
        {
          "internalType": "address",
          "name": "spender",
          "type": "address"
        },
        {
          "internalType": "uint256",
          "name": "addedValue",
          "type": "uint256"
        }
      ],
      "name": "increaseAllowance",
      "outputs": [
        {
          "internalType": "bool",
          "name": "",
          "type": "bool"
        }
      ],
      "stateMutability": "nonpayable",
      "type": "function"
    },
    {
      "inputs": [],
      "name": "name",
      "outputs": [
        {
          "internalType": "string",
          "name": "",
          "type": "string"
        }
      ],
      "stateMutability": "view",
      "type": "function",
      "constant": true
    },
    {
      "inputs": [],
      "name": "symbol",
      "outputs": [
        {
          "internalType": "string",
          "name": "",
          "type": "string"
        }
      ],
      "stateMutability": "view",
      "type": "function",
      "constant": true
    },
    {
      "inputs": [],
      "name": "totalSupply",
      "outputs": [
        {
          "internalType": "uint256",
          "name": "",
          "type": "uint256"
        }
      ],
      "stateMutability": "view",
      "type": "function",
      "constant": true
    },
    {
      "inputs": [
        {
          "internalType": "address",
          "name": "to",
          "type": "address"
        },
        {
          "internalType": "uint256",
          "name": "amount",
          "type": "uint256"
        }
      ],
      "name": "transfer",
      "outputs": [
        {
          "internalType": "bool",
          "name": "",
          "type": "bool"
        }
      ],
      "stateMutability": "nonpayable",
      "type": "function"
    },
    {
      "inputs": [
        {
          "internalType": "address",
          "name": "from",
          "type": "address"
        },
        {
          "internalType": "address",
          "name": "to",
          "type": "address"
        },
        {
          "internalType": "uint256",
          "name": "amount",
          "type": "uint256"
        }
      ],
      "name": "transferFrom",
      "outputs": [
        {
          "internalType": "bool",
          "name": "",
          "type": "bool"
        }
      ],
      "stateMutability": "nonpayable",
      "type": "function"
    },
    {
      "inputs": [
        {
          "internalType": "address",
          "name": "to",
          "type": "address"
        },
        {
          "internalType": "uint256",
          "name": "amount",
          "type": "uint256"
        }
      ],
      "name": "mint",
      "outputs": [],
      "stateMutability": "nonpayable",
      "type": "function"
    },
    {
      "inputs": [
        {
          "internalType": "address",
          "name": "player",
          "type": "address"
        }
      ],
      "name": "buyGoldCoins",
      "outputs": [],
      "stateMutability": "payable",
      "type": "function",
      "payable": true
    }
  ],
  "bytecode": "0x6080604052620f42406005556207a1206006553480156200001f57600080fd5b506040518060400160405280600881526020017f476f6c64436f696e0000000000000000000000000000000000000000000000008152506040518060400160405280600281526020017f474300000000000000000000000000000000000000000000000000000000000081525081600390816200009d9190620005a5565b508060049081620000af9190620005a5565b5050506000339050620000e081670de0b6b3a7640000600554620000d49190620006bb565b620001b460201b60201c565b6200010930670de0b6b3a7640000600654620000fd9190620006bb565b620001b460201b60201c565b8073ffffffffffffffffffffffffffffffffffffffff167f0f6798a560793a54c3bcfe86a93cde1e73087d944c0ea20544137d412139688560055460405162000153919062000717565b60405180910390a23073ffffffffffffffffffffffffffffffffffffffff167f0f6798a560793a54c3bcfe86a93cde1e73087d944c0ea20544137d4121396885600654604051620001a5919062000717565b60405180910390a250620007f2565b600073ffffffffffffffffffffffffffffffffffffffff168273ffffffffffffffffffffffffffffffffffffffff160362000226576040517f08c379a00000000000000000000000000000000000000000000000000000000081526004016200021d9062000795565b60405180910390fd5b6200023a600083836200032160201b60201c565b80600260008282546200024e9190620007b7565b92505081905550806000808473ffffffffffffffffffffffffffffffffffffffff1673ffffffffffffffffffffffffffffffffffffffff168152602001908152602001600020600082825401925050819055508173ffffffffffffffffffffffffffffffffffffffff16600073ffffffffffffffffffffffffffffffffffffffff167fddf252ad1be2c89b69c2b068fc378daa952ba7f163c4a11628f55a4df523b3ef8360405162000301919062000717565b60405180910390a36200031d600083836200032660201b60201c565b5050565b505050565b505050565b600081519050919050565b7f4e487b7100000000000000000000000000000000000000000000000000000000600052604160045260246000fd5b7f4e487b7100000000000000000000000000000000000000000000000000000000600052602260045260246000fd5b60006002820490506001821680620003ad57607f821691505b602082108103620003c357620003c262000365565b5b50919050565b60008190508160005260206000209050919050565b60006020601f8301049050919050565b600082821b905092915050565b6000600883026200042d7fffffffffffffffffffffffffffffffffffffffffffffffffffffffffffffffff82620003ee565b620004398683620003ee565b95508019841693508086168417925050509392505050565b6000819050919050565b6000819050919050565b600062000486620004806200047a8462000451565b6200045b565b62000451565b9050919050565b6000819050919050565b620004a28362000465565b620004ba620004b1826200048d565b848454620003fb565b825550505050565b600090565b620004d1620004c2565b620004de81848462000497565b505050565b5b818110156200050657620004fa600082620004c7565b600181019050620004e4565b5050565b601f82111562000555576200051f81620003c9565b6200052a84620003de565b810160208510156200053a578190505b620005526200054985620003de565b830182620004e3565b50505b505050565b600082821c905092915050565b60006200057a600019846008026200055a565b1980831691505092915050565b600062000595838362000567565b9150826002028217905092915050565b620005b0826200032b565b67ffffffffffffffff811115620005cc57620005cb62000336565b5b620005d8825462000394565b620005e58282856200050a565b600060209050601f8311600181146200061d576000841562000608578287015190505b62000614858262000587565b86555062000684565b601f1984166200062d86620003c9565b60005b82811015620006575784890151825560018201915060208501945060208101905062000630565b8683101562000677578489015162000673601f89168262000567565b8355505b6001600288020188555050505b505050505050565b7f4e487b7100000000000000000000000000000000000000000000000000000000600052601160045260246000fd5b6000620006c88262000451565b9150620006d58362000451565b9250828202620006e58162000451565b91508282048414831517620006ff57620006fe6200068c565b5b5092915050565b620007118162000451565b82525050565b60006020820190506200072e600083018462000706565b92915050565b600082825260208201905092915050565b7f45524332303a206d696e7420746f20746865207a65726f206164647265737300600082015250565b60006200077d601f8362000734565b91506200078a8262000745565b602082019050919050565b60006020820190508181036000830152620007b0816200076e565b9050919050565b6000620007c48262000451565b9150620007d18362000451565b9250828201905080821115620007ec57620007eb6200068c565b5b92915050565b61189880620008026000396000f3fe6080604052600436106100c25760003560e01c806340c10f191161007f57806395d89b411161005957806395d89b4114610281578063a457c2d7146102ac578063a9059cbb146102e9578063dd62ed3e14610326576100c2565b806340c10f19146101ff578063584c9f471461022857806370a0823114610244576100c2565b806306fdde03146100c7578063095ea7b3146100f257806318160ddd1461012f57806323b872dd1461015a578063313ce5671461019757806339509351146101c2575b600080fd5b3480156100d357600080fd5b506100dc610363565b6040516100e99190610e8e565b60405180910390f35b3480156100fe57600080fd5b5061011960048036038101906101149190610f49565b6103f5565b6040516101269190610fa4565b60405180910390f35b34801561013b57600080fd5b50610144610418565b6040516101519190610fce565b60405180910390f35b34801561016657600080fd5b50610181600480360381019061017c9190610fe9565b610422565b60405161018e9190610fa4565b60405180910390f35b3480156101a357600080fd5b506101ac610451565b6040516101b99190611058565b60405180910390f35b3480156101ce57600080fd5b506101e960048036038101906101e49190610f49565b61045a565b6040516101f69190610fa4565b60405180910390f35b34801561020b57600080fd5b5061022660048036038101906102219190610f49565b610491565b005b610242600480360381019061023d9190611073565b6104ed565b005b34801561025057600080fd5b5061026b60048036038101906102669190611073565b6105d0565b6040516102789190610fce565b60405180910390f35b34801561028d57600080fd5b50610296610618565b6040516102a39190610e8e565b60405180910390f35b3480156102b857600080fd5b506102d360048036038101906102ce9190610f49565b6106aa565b6040516102e09190610fa4565b60405180910390f35b3480156102f557600080fd5b50610310600480360381019061030b9190610f49565b610721565b60405161031d9190610fa4565b60405180910390f35b34801561033257600080fd5b5061034d600480360381019061034891906110a0565b610744565b60405161035a9190610fce565b60405180910390f35b6060600380546103729061110f565b80601f016020809104026020016040519081016040528092919081815260200182805461039e9061110f565b80156103eb5780601f106103c0576101008083540402835291602001916103eb565b820191906000526020600020905b8154815290600101906020018083116103ce57829003601f168201915b5050505050905090565b6000806104006107cb565b905061040d8185856107d3565b600191505092915050565b6000600254905090565b60008061042d6107cb565b905061043a85828561099c565b610445858585610a28565b60019150509392505050565b60006012905090565b6000806104656107cb565b90506104868185856104778589610744565b610481919061116f565b6107d3565b600191505092915050565b61049b8282610c9e565b8173ffffffffffffffffffffffffffffffffffffffff167f0f6798a560793a54c3bcfe86a93cde1e73087d944c0ea20544137d4121396885826040516104e19190610fce565b60405180910390a25050565b600067016345785d8a000090506000610504610451565b600a61051091906112d6565b6103e861051d9190611321565b9050600061052a306105d0565b90508082111561056f576040517f08c379a0000000000000000000000000000000000000000000000000000000008152600401610566906113d5565b60405180910390fd5b61057a308584610a28565b8373ffffffffffffffffffffffffffffffffffffffff167f8f6858cb7d8f337371e31af24ec9a33ca8c2940cd52f0a9de2f8498788edda0634846040516105c29291906113f5565b60405180910390a250505050565b60008060008373ffffffffffffffffffffffffffffffffffffffff1673ffffffffffffffffffffffffffffffffffffffff168152602001908152602001600020549050919050565b6060600480546106279061110f565b80601f01602080910402602001604051908101604052809291908181526020018280546106539061110f565b80156106a05780601f10610675576101008083540402835291602001916106a0565b820191906000526020600020905b81548152906001019060200180831161068357829003601f168201915b5050505050905090565b6000806106b56107cb565b905060006106c38286610744565b905083811015610708576040517f08c379a00000000000000000000000000000000000000000000000000000000081526004016106ff90611490565b60405180910390fd5b61071582868684036107d3565b60019250505092915050565b60008061072c6107cb565b9050610739818585610a28565b600191505092915050565b6000600160008473ffffffffffffffffffffffffffffffffffffffff1673ffffffffffffffffffffffffffffffffffffffff16815260200190815260200160002060008373ffffffffffffffffffffffffffffffffffffffff1673ffffffffffffffffffffffffffffffffffffffff16815260200190815260200160002054905092915050565b600033905090565b600073ffffffffffffffffffffffffffffffffffffffff168373ffffffffffffffffffffffffffffffffffffffff1603610842576040517f08c379a000000000000000000000000000000000000000000000000000000000815260040161083990611522565b60405180910390fd5b600073ffffffffffffffffffffffffffffffffffffffff168273ffffffffffffffffffffffffffffffffffffffff16036108b1576040517f08c379a00000000000000000000000000000000000000000000000000000000081526004016108a8906115b4565b60405180910390fd5b80600160008573ffffffffffffffffffffffffffffffffffffffff1673ffffffffffffffffffffffffffffffffffffffff16815260200190815260200160002060008473ffffffffffffffffffffffffffffffffffffffff1673ffffffffffffffffffffffffffffffffffffffff168152602001908152602001600020819055508173ffffffffffffffffffffffffffffffffffffffff168373ffffffffffffffffffffffffffffffffffffffff167f8c5be1e5ebec7d5bd14f71427d1e84f3dd0314c0f7b2291e5b200ac8c7c3b9258360405161098f9190610fce565b60405180910390a3505050565b60006109a88484610744565b90507fffffffffffffffffffffffffffffffffffffffffffffffffffffffffffffffff8114610a225781811015610a14576040517f08c379a0000000000000000000000000000000000000000000000000000000008152600401610a0b90611620565b60405180910390fd5b610a2184848484036107d3565b5b50505050565b600073ffffffffffffffffffffffffffffffffffffffff168373ffffffffffffffffffffffffffffffffffffffff1603610a97576040517f08c379a0000000000000000000000000000000000000000000000000000000008152600401610a8e906116b2565b60405180910390fd5b600073ffffffffffffffffffffffffffffffffffffffff168273ffffffffffffffffffffffffffffffffffffffff1603610b06576040517f08c379a0000000000000000000000000000000000000000000000000000000008152600401610afd90611744565b60405180910390fd5b610b11838383610df4565b60008060008573ffffffffffffffffffffffffffffffffffffffff1673ffffffffffffffffffffffffffffffffffffffff16815260200190815260200160002054905081811015610b97576040517f08c379a0000000000000000000000000000000000000000000000000000000008152600401610b8e906117d6565b60405180910390fd5b8181036000808673ffffffffffffffffffffffffffffffffffffffff1673ffffffffffffffffffffffffffffffffffffffff16815260200190815260200160002081905550816000808573ffffffffffffffffffffffffffffffffffffffff1673ffffffffffffffffffffffffffffffffffffffff168152602001908152602001600020600082825401925050819055508273ffffffffffffffffffffffffffffffffffffffff168473ffffffffffffffffffffffffffffffffffffffff167fddf252ad1be2c89b69c2b068fc378daa952ba7f163c4a11628f55a4df523b3ef84604051610c859190610fce565b60405180910390a3610c98848484610df9565b50505050565b600073ffffffffffffffffffffffffffffffffffffffff168273ffffffffffffffffffffffffffffffffffffffff1603610d0d576040517f08c379a0000000000000000000000000000000000000000000000000000000008152600401610d0490611842565b60405180910390fd5b610d1960008383610df4565b8060026000828254610d2b919061116f565b92505081905550806000808473ffffffffffffffffffffffffffffffffffffffff1673ffffffffffffffffffffffffffffffffffffffff168152602001908152602001600020600082825401925050819055508173ffffffffffffffffffffffffffffffffffffffff16600073ffffffffffffffffffffffffffffffffffffffff167fddf252ad1be2c89b69c2b068fc378daa952ba7f163c4a11628f55a4df523b3ef83604051610ddc9190610fce565b60405180910390a3610df060008383610df9565b5050565b505050565b505050565b600081519050919050565b600082825260208201905092915050565b60005b83811015610e38578082015181840152602081019050610e1d565b60008484015250505050565b6000601f19601f8301169050919050565b6000610e6082610dfe565b610e6a8185610e09565b9350610e7a818560208601610e1a565b610e8381610e44565b840191505092915050565b60006020820190508181036000830152610ea88184610e55565b905092915050565b600080fd5b600073ffffffffffffffffffffffffffffffffffffffff82169050919050565b6000610ee082610eb5565b9050919050565b610ef081610ed5565b8114610efb57600080fd5b50565b600081359050610f0d81610ee7565b92915050565b6000819050919050565b610f2681610f13565b8114610f3157600080fd5b50565b600081359050610f4381610f1d565b92915050565b60008060408385031215610f6057610f5f610eb0565b5b6000610f6e85828601610efe565b9250506020610f7f85828601610f34565b9150509250929050565b60008115159050919050565b610f9e81610f89565b82525050565b6000602082019050610fb96000830184610f95565b92915050565b610fc881610f13565b82525050565b6000602082019050610fe36000830184610fbf565b92915050565b60008060006060848603121561100257611001610eb0565b5b600061101086828701610efe565b935050602061102186828701610efe565b925050604061103286828701610f34565b9150509250925092565b600060ff82169050919050565b6110528161103c565b82525050565b600060208201905061106d6000830184611049565b92915050565b60006020828403121561108957611088610eb0565b5b600061109784828501610efe565b91505092915050565b600080604083850312156110b7576110b6610eb0565b5b60006110c585828601610efe565b92505060206110d685828601610efe565b9150509250929050565b7f4e487b7100000000000000000000000000000000000000000000000000000000600052602260045260246000fd5b6000600282049050600182168061112757607f821691505b60208210810361113a576111396110e0565b5b50919050565b7f4e487b7100000000000000000000000000000000000000000000000000000000600052601160045260246000fd5b600061117a82610f13565b915061118583610f13565b925082820190508082111561119d5761119c611140565b5b92915050565b60008160011c9050919050565b6000808291508390505b60018511156111fa578086048111156111d6576111d5611140565b5b60018516156111e55780820291505b80810290506111f3856111a3565b94506111ba565b94509492505050565b60008261121357600190506112cf565b8161122157600090506112cf565b8160018114611237576002811461124157611270565b60019150506112cf565b60ff84111561125357611252611140565b5b8360020a91508482111561126a57611269611140565b5b506112cf565b5060208310610133831016604e8410600b84101617156112a55782820a9050838111156112a05761129f611140565b5b6112cf565b6112b284848460016111b0565b925090508184048111156112c9576112c8611140565b5b81810290505b9392505050565b60006112e182610f13565b91506112ec8361103c565b92506113197fffffffffffffffffffffffffffffffffffffffffffffffffffffffffffffffff8484611203565b905092915050565b600061132c82610f13565b915061133783610f13565b925082820261134581610f13565b9150828204841483151761135c5761135b611140565b5b5092915050565b7f4e6f7420656e6f75676820476f6c64436f696e7320696e20746865207265736560008201527f7276650000000000000000000000000000000000000000000000000000000000602082015250565b60006113bf602383610e09565b91506113ca82611363565b604082019050919050565b600060208201905081810360008301526113ee816113b2565b9050919050565b600060408201905061140a6000830185610fbf565b6114176020830184610fbf565b9392505050565b7f45524332303a2064656372656173656420616c6c6f77616e63652062656c6f7760008201527f207a65726f000000000000000000000000000000000000000000000000000000602082015250565b600061147a602583610e09565b91506114858261141e565b604082019050919050565b600060208201905081810360008301526114a98161146d565b9050919050565b7f45524332303a20617070726f76652066726f6d20746865207a65726f2061646460008201527f7265737300000000000000000000000000000000000000000000000000000000602082015250565b600061150c602483610e09565b9150611517826114b0565b604082019050919050565b6000602082019050818103600083015261153b816114ff565b9050919050565b7f45524332303a20617070726f766520746f20746865207a65726f20616464726560008201527f7373000000000000000000000000000000000000000000000000000000000000602082015250565b600061159e602283610e09565b91506115a982611542565b604082019050919050565b600060208201905081810360008301526115cd81611591565b9050919050565b7f45524332303a20696e73756666696369656e7420616c6c6f77616e6365000000600082015250565b600061160a601d83610e09565b9150611615826115d4565b602082019050919050565b60006020820190508181036000830152611639816115fd565b9050919050565b7f45524332303a207472616e736665722066726f6d20746865207a65726f20616460008201527f6472657373000000000000000000000000000000000000000000000000000000602082015250565b600061169c602583610e09565b91506116a782611640565b604082019050919050565b600060208201905081810360008301526116cb8161168f565b9050919050565b7f45524332303a207472616e7366657220746f20746865207a65726f206164647260008201527f6573730000000000000000000000000000000000000000000000000000000000602082015250565b600061172e602383610e09565b9150611739826116d2565b604082019050919050565b6000602082019050818103600083015261175d81611721565b9050919050565b7f45524332303a207472616e7366657220616d6f756e742065786365656473206260008201527f616c616e63650000000000000000000000000000000000000000000000000000602082015250565b60006117c0602683610e09565b91506117cb82611764565b604082019050919050565b600060208201905081810360008301526117ef816117b3565b9050919050565b7f45524332303a206d696e7420746f20746865207a65726f206164647265737300600082015250565b600061182c601f83610e09565b9150611837826117f6565b602082019050919050565b6000602082019050818103600083015261185b8161181f565b905091905056fea2646970667358221220e097fb49be7479c2b6eca2fa36f2413a4807712c3cd1aed5b29835c329a9e92e64736f6c63430008130033",
  "immutableReferences": {},
  "source": "// SPDX-License-Identifier: MIT\npragma solidity ^0.8.19;\n\nimport \"@openzeppelin/contracts/token/ERC20/ERC20.sol\";\nimport \"@openzeppelin/contracts/access/Ownable.sol\";\n\ncontract GoldCoin is ERC20 {\n    // Define events\n    uint256 initialOwnerSupply = 1000000; // Adjust as needed\n    uint256 initialContractSupply = 500000; // Adjust as needed\n    event Mint(address indexed to, uint256 amount);\n    event GoldCoinPurchase(\n        address indexed buyer,\n        uint256 etherAmount,\n        uint256 goldCoinAmount\n    );\n    event RateChange(uint256 newRate);\n    event Withdrawal(address indexed owner, uint256 amount);\n\n    constructor() ERC20(\"GoldCoin\", \"GC\") {\n        address initialOwner = msg.sender;\n        // Mint initial supply to the owner and the contract\n        _mint(initialOwner, initialOwnerSupply * 10 ** 18);\n        _mint(address(this), initialContractSupply * 10 ** 18);\n\n        // Emit the Mint events\n        emit Mint(initialOwner, initialOwnerSupply);\n        emit Mint(address(this), initialContractSupply);\n    }\n\n    function mint(address to, uint256 amount) public {\n        _mint(to, amount);\n        emit Mint(to, amount);\n    }\n\n    function buyGoldCoins(address player) external payable {\n        uint256 price = 0.1 ether; // Fixed price for buying 1000 GoldCoins\n        uint256 goldCoinsPerPurchase = 1000 * 10 ** decimals(); // Fixed amount of GoldCoins per purchase\n\n        uint256 dexBalance = balanceOf(address(this));\n        require(\n            goldCoinsPerPurchase <= dexBalance,\n            \"Not enough GoldCoins in the reserve\"\n        );\n\n        _transfer(address(this), player, goldCoinsPerPurchase);\n\n        emit GoldCoinPurchase(player, msg.value, goldCoinsPerPurchase);\n    }\n\n    // Function to withdraw Ether from the contract, only callable by the owner\n    // function withdraw() public {\n    //     uint256 balance = address(this).balance;\n    //     payable(owner()).transfer(balance);\n    //     emit Withdrawal(owner(), balance);\n    // }\n}\n",
  "sourcePath": "/Users/kartiksehgal/Code/git/BlockchainProject/newBlockchainProject/BlockchainProject/contracts/ERC20SmartContract.sol",
  "compiler": {
    "name": "solc",
    "version": "0.8.19+commit.7dd6d404.Emscripten.clang"
  },
  "schemaVersion": "3.4.16",
  "updatedAt": "2023-12-03T22:29:51.805Z",
  "networkType": "ethereum",
  "devdoc": {
    "events": {
      "Approval(address,address,uint256)": {
        "details": "Emitted when the allowance of a `spender` for an `owner` is set by a call to {approve}. `value` is the new allowance."
      },
      "Transfer(address,address,uint256)": {
        "details": "Emitted when `value` tokens are moved from one account (`from`) to another (`to`). Note that `value` may be zero."
      }
    },
    "kind": "dev",
    "methods": {
      "allowance(address,address)": {
        "details": "See {IERC20-allowance}."
      },
      "approve(address,uint256)": {
        "details": "See {IERC20-approve}. NOTE: If `amount` is the maximum `uint256`, the allowance is not updated on `transferFrom`. This is semantically equivalent to an infinite approval. Requirements: - `spender` cannot be the zero address."
      },
      "balanceOf(address)": {
        "details": "See {IERC20-balanceOf}."
      },
      "decimals()": {
        "details": "Returns the number of decimals used to get its user representation. For example, if `decimals` equals `2`, a balance of `505` tokens should be displayed to a user as `5.05` (`505 / 10 ** 2`). Tokens usually opt for a value of 18, imitating the relationship between Ether and Wei. This is the default value returned by this function, unless it's overridden. NOTE: This information is only used for _display_ purposes: it in no way affects any of the arithmetic of the contract, including {IERC20-balanceOf} and {IERC20-transfer}."
      },
      "decreaseAllowance(address,uint256)": {
        "details": "Atomically decreases the allowance granted to `spender` by the caller. This is an alternative to {approve} that can be used as a mitigation for problems described in {IERC20-approve}. Emits an {Approval} event indicating the updated allowance. Requirements: - `spender` cannot be the zero address. - `spender` must have allowance for the caller of at least `subtractedValue`."
      },
      "increaseAllowance(address,uint256)": {
        "details": "Atomically increases the allowance granted to `spender` by the caller. This is an alternative to {approve} that can be used as a mitigation for problems described in {IERC20-approve}. Emits an {Approval} event indicating the updated allowance. Requirements: - `spender` cannot be the zero address."
      },
      "name()": {
        "details": "Returns the name of the token."
      },
      "symbol()": {
        "details": "Returns the symbol of the token, usually a shorter version of the name."
      },
      "totalSupply()": {
        "details": "See {IERC20-totalSupply}."
      },
      "transfer(address,uint256)": {
        "details": "See {IERC20-transfer}. Requirements: - `to` cannot be the zero address. - the caller must have a balance of at least `amount`."
      },
      "transferFrom(address,address,uint256)": {
        "details": "See {IERC20-transferFrom}. Emits an {Approval} event indicating the updated allowance. This is not required by the EIP. See the note at the beginning of {ERC20}. NOTE: Does not update the allowance if the current allowance is the maximum `uint256`. Requirements: - `from` and `to` cannot be the zero address. - `from` must have a balance of at least `amount`. - the caller must have allowance for ``from``'s tokens of at least `amount`."
      }
    },
    "version": 1
  },
  "userdoc": {
    "kind": "user",
    "methods": {},
    "version": 1
  }
}