{
  "contractName": "PlayerRegistration",
  "abi": [
    {
      "inputs": [
        {
          "internalType": "address",
          "name": "_goldCoinAddress",
          "type": "address"
        },
        {
          "internalType": "address",
          "name": "_cardsAddress",
          "type": "address"
        },
        {
          "internalType": "address",
          "name": "_itemsAddress",
          "type": "address"
        }
      ],
      "stateMutability": "nonpayable",
      "type": "constructor"
    },
    {
      "inputs": [
        {
          "internalType": "uint256",
          "name": "",
          "type": "uint256"
        }
      ],
      "name": "games",
      "outputs": [
        {
          "internalType": "address",
          "name": "player1",
          "type": "address"
        },
        {
          "internalType": "address",
          "name": "player2",
          "type": "address"
        },
        {
          "internalType": "uint256",
          "name": "betAmount",
          "type": "uint256"
        },
        {
          "internalType": "bool",
          "name": "isActive",
          "type": "bool"
        }
      ],
      "stateMutability": "view",
      "type": "function",
      "constant": true
    },
    {
      "inputs": [],
      "name": "nextGameId",
      "outputs": [
        {
          "internalType": "uint256",
          "name": "",
          "type": "uint256"
        }
      ],
      "stateMutability": "view",
      "type": "function",
      "constant": true
    },
    {
      "inputs": [
        {
          "internalType": "address",
          "name": "",
          "type": "address"
        }
      ],
      "name": "playerBets",
      "outputs": [
        {
          "internalType": "uint256",
          "name": "",
          "type": "uint256"
        }
      ],
      "stateMutability": "view",
      "type": "function",
      "constant": true
    },
    {
      "inputs": [
        {
          "internalType": "address",
          "name": "",
          "type": "address"
        }
      ],
      "name": "players",
      "outputs": [
        {
          "internalType": "address",
          "name": "playerAddress",
          "type": "address"
        }
      ],
      "stateMutability": "view",
      "type": "function",
      "constant": true
    },
    {
      "inputs": [],
      "name": "registerPlayer",
      "outputs": [],
      "stateMutability": "nonpayable",
      "type": "function"
    },
    {
      "inputs": [
        {
          "internalType": "address",
          "name": "playerAddress",
          "type": "address"
        }
      ],
      "name": "getPlayerCards",
      "outputs": [
        {
          "internalType": "uint256[]",
          "name": "",
          "type": "uint256[]"
        }
      ],
      "stateMutability": "view",
      "type": "function",
      "constant": true
    },
    {
      "inputs": [
        {
          "internalType": "address",
          "name": "player1",
          "type": "address"
        },
        {
          "internalType": "address",
          "name": "player2",
          "type": "address"
        }
      ],
      "name": "startGame",
      "outputs": [],
      "stateMutability": "nonpayable",
      "type": "function"
    },
    {
      "inputs": [
        {
          "internalType": "uint256",
          "name": "gameId",
          "type": "uint256"
        },
        {
          "internalType": "uint256",
          "name": "attackerCardId",
          "type": "uint256"
        },
        {
          "internalType": "uint256",
          "name": "defenderCardId",
          "type": "uint256"
        }
      ],
      "name": "attackCard",
      "outputs": [],
      "stateMutability": "nonpayable",
      "type": "function"
    }
  ],
  "bytecode": "0x60806040523480156200001157600080fd5b5060405162001a4338038062001a4383398181016040528101906200003791906200016c565b826000806101000a81548173ffffffffffffffffffffffffffffffffffffffff021916908373ffffffffffffffffffffffffffffffffffffffff16021790555081600160006101000a81548173ffffffffffffffffffffffffffffffffffffffff021916908373ffffffffffffffffffffffffffffffffffffffff16021790555080600260006101000a81548173ffffffffffffffffffffffffffffffffffffffff021916908373ffffffffffffffffffffffffffffffffffffffff160217905550505050620001c8565b600080fd5b600073ffffffffffffffffffffffffffffffffffffffff82169050919050565b6000620001348262000107565b9050919050565b620001468162000127565b81146200015257600080fd5b50565b60008151905062000166816200013b565b92915050565b60008060006060848603121562000188576200018762000102565b5b6000620001988682870162000155565b9350506020620001ab8682870162000155565b9250506040620001be8682870162000155565b9150509250925092565b61186b80620001d86000396000f3fe608060405234801561001057600080fd5b50600436106100885760003560e01c8063b135bbb01161005b578063b135bbb014610116578063c7aa327b14610134578063e2eb41ff14610164578063eb23b56b1461019457610088565b80630939ed341461008d578063117a5b90146100a95780635c07a4b0146100dc578063ad5c21d9146100e6575b600080fd5b6100a760048036038101906100a29190610eb4565b6101b0565b005b6100c360048036038101906100be9190610f07565b6105a4565b6040516100d39493929190610f9f565b60405180910390f35b6100e4610621565b005b61010060048036038101906100fb9190611010565b610845565b60405161010d91906110fb565b60405180910390f35b61011e6108df565b60405161012b919061111d565b60405180910390f35b61014e60048036038101906101499190611010565b6108e5565b60405161015b919061111d565b60405180910390f35b61017e60048036038101906101799190611010565b6108fd565b60405161018b9190611138565b60405180910390f35b6101ae60048036038101906101a99190611153565b61093b565b005b60006003600085815260200190815260200160002090508060030160009054906101000a900460ff16610218576040517f08c379a000000000000000000000000000000000000000000000000000000000815260040161020f906111f0565b60405180910390fd5b3373ffffffffffffffffffffffffffffffffffffffff16600160009054906101000a900473ffffffffffffffffffffffffffffffffffffffff1673ffffffffffffffffffffffffffffffffffffffff16636352211e856040518263ffffffff1660e01b815260040161028a919061111d565b602060405180830381865afa1580156102a7573d6000803e3d6000fd5b505050506040513d601f19601f820116820180604052508101906102cb9190611225565b73ffffffffffffffffffffffffffffffffffffffff1614610321576040517f08c379a0000000000000000000000000000000000000000000000000000000008152600401610318906112c4565b60405180910390fd5b6000600160009054906101000a900473ffffffffffffffffffffffffffffffffffffffff1673ffffffffffffffffffffffffffffffffffffffff1663d5aaa5b0856040518263ffffffff1660e01b815260040161037e919061111d565b6040805180830381865afa15801561039a573d6000803e3d6000fd5b505050506040513d601f19601f820116820180604052508101906103be91906112f9565b5090506000600160009054906101000a900473ffffffffffffffffffffffffffffffffffffffff1673ffffffffffffffffffffffffffffffffffffffff1663d5aaa5b0856040518263ffffffff1660e01b815260040161041e919061111d565b6040805180830381865afa15801561043a573d6000803e3d6000fd5b505050506040513d601f19601f8201168201806040525081019061045e91906112f9565b9150508181111561050e57600082826104779190611368565b9050600160009054906101000a900473ffffffffffffffffffffffffffffffffffffffff1673ffffffffffffffffffffffffffffffffffffffff16633e81872d86836040518363ffffffff1660e01b81526004016104d692919061139c565b600060405180830381600087803b1580156104f057600080fd5b505af1158015610504573d6000803e3d6000fd5b505050505061059c565b600160009054906101000a900473ffffffffffffffffffffffffffffffffffffffff1673ffffffffffffffffffffffffffffffffffffffff1663ba7e7d05856040518263ffffffff1660e01b8152600401610569919061111d565b600060405180830381600087803b15801561058357600080fd5b505af1158015610597573d6000803e3d6000fd5b505050505b505050505050565b60036020528060005260406000206000915090508060000160009054906101000a900473ffffffffffffffffffffffffffffffffffffffff16908060010160009054906101000a900473ffffffffffffffffffffffffffffffffffffffff16908060020154908060030160009054906101000a900460ff16905084565b6000600660003373ffffffffffffffffffffffffffffffffffffffff1673ffffffffffffffffffffffffffffffffffffffff1681526020019081526020016000209050338160000160006101000a81548173ffffffffffffffffffffffffffffffffffffffff021916908373ffffffffffffffffffffffffffffffffffffffff16021790555060005b60058110156108415760006106bd610e2c565b905060006106c9610e2c565b90506000600160009054906101000a900473ffffffffffffffffffffffffffffffffffffffff1673ffffffffffffffffffffffffffffffffffffffff1663f7ee23dc84846040518363ffffffff1660e01b815260040161072a929190611483565b6020604051808303816000875af1158015610749573d6000803e3d6000fd5b505050506040513d601f19601f8201168201806040525081019061076d91906114d2565b9050600160009054906101000a900473ffffffffffffffffffffffffffffffffffffffff1673ffffffffffffffffffffffffffffffffffffffff166323b872dd3033846040518463ffffffff1660e01b81526004016107ce939291906114ff565b600060405180830381600087803b1580156107e857600080fd5b505af11580156107fc573d6000803e3d6000fd5b5050505084600101819080600181540180825580915050600190039060005260206000200160009091909190915055505050808061083990611536565b9150506106aa565b5050565b6060600660008373ffffffffffffffffffffffffffffffffffffffff1673ffffffffffffffffffffffffffffffffffffffff1681526020019081526020016000206001018054806020026020016040519081016040528092919081815260200182805480156108d357602002820191906000526020600020905b8154815260200190600101908083116108bf575b50505050509050919050565b60045481565b60056020528060005260406000206000915090505481565b60066020528060005260406000206000915090508060000160009054906101000a900473ffffffffffffffffffffffffffffffffffffffff16905081565b600068056bc75e2d6310000090508060008054906101000a900473ffffffffffffffffffffffffffffffffffffffff1673ffffffffffffffffffffffffffffffffffffffff166370a08231856040518263ffffffff1660e01b81526004016109a39190611138565b602060405180830381865afa1580156109c0573d6000803e3d6000fd5b505050506040513d601f19601f820116820180604052508101906109e491906114d2565b1015610a25576040517f08c379a0000000000000000000000000000000000000000000000000000000008152600401610a1c906115f0565b60405180910390fd5b8060008054906101000a900473ffffffffffffffffffffffffffffffffffffffff1673ffffffffffffffffffffffffffffffffffffffff166370a08231846040518263ffffffff1660e01b8152600401610a7f9190611138565b602060405180830381865afa158015610a9c573d6000803e3d6000fd5b505050506040513d601f19601f82011682018060405250810190610ac091906114d2565b1015610b01576040517f08c379a0000000000000000000000000000000000000000000000000000000008152600401610af890611682565b60405180910390fd5b60008054906101000a900473ffffffffffffffffffffffffffffffffffffffff1673ffffffffffffffffffffffffffffffffffffffff166323b872dd8430846040518463ffffffff1660e01b8152600401610b5e939291906114ff565b6020604051808303816000875af1158015610b7d573d6000803e3d6000fd5b505050506040513d601f19601f82011682018060405250810190610ba191906116ce565b5060008054906101000a900473ffffffffffffffffffffffffffffffffffffffff1673ffffffffffffffffffffffffffffffffffffffff166323b872dd8330846040518463ffffffff1660e01b8152600401610bff939291906114ff565b6020604051808303816000875af1158015610c1e573d6000803e3d6000fd5b505050506040513d601f19601f82011682018060405250810190610c4291906116ce565b5080600560008573ffffffffffffffffffffffffffffffffffffffff1673ffffffffffffffffffffffffffffffffffffffff1681526020019081526020016000206000828254610c9291906116fb565b9250508190555080600560008473ffffffffffffffffffffffffffffffffffffffff1673ffffffffffffffffffffffffffffffffffffffff1681526020019081526020016000206000828254610ce891906116fb565b9250508190555060405180608001604052808473ffffffffffffffffffffffffffffffffffffffff1681526020018373ffffffffffffffffffffffffffffffffffffffff1681526020018281526020016001151581525060036000600454815260200190815260200160002060008201518160000160006101000a81548173ffffffffffffffffffffffffffffffffffffffff021916908373ffffffffffffffffffffffffffffffffffffffff16021790555060208201518160010160006101000a81548173ffffffffffffffffffffffffffffffffffffffff021916908373ffffffffffffffffffffffffffffffffffffffff1602179055506040820151816002015560608201518160030160006101000a81548160ff02191690831515021790555090505060046000815480929190610e2290611536565b9190505550505050565b60006001600f424433604051602001610e4793929190611798565b6040516020818303038152906040528051906020012060001c610e6a9190611804565b610e7491906116fb565b905090565b600080fd5b6000819050919050565b610e9181610e7e565b8114610e9c57600080fd5b50565b600081359050610eae81610e88565b92915050565b600080600060608486031215610ecd57610ecc610e79565b5b6000610edb86828701610e9f565b9350506020610eec86828701610e9f565b9250506040610efd86828701610e9f565b9150509250925092565b600060208284031215610f1d57610f1c610e79565b5b6000610f2b84828501610e9f565b91505092915050565b600073ffffffffffffffffffffffffffffffffffffffff82169050919050565b6000610f5f82610f34565b9050919050565b610f6f81610f54565b82525050565b610f7e81610e7e565b82525050565b60008115159050919050565b610f9981610f84565b82525050565b6000608082019050610fb46000830187610f66565b610fc16020830186610f66565b610fce6040830185610f75565b610fdb6060830184610f90565b95945050505050565b610fed81610f54565b8114610ff857600080fd5b50565b60008135905061100a81610fe4565b92915050565b60006020828403121561102657611025610e79565b5b600061103484828501610ffb565b91505092915050565b600081519050919050565b600082825260208201905092915050565b6000819050602082019050919050565b61107281610e7e565b82525050565b60006110848383611069565b60208301905092915050565b6000602082019050919050565b60006110a88261103d565b6110b28185611048565b93506110bd83611059565b8060005b838110156110ee5781516110d58882611078565b97506110e083611090565b9250506001810190506110c1565b5085935050505092915050565b60006020820190508181036000830152611115818461109d565b905092915050565b60006020820190506111326000830184610f75565b92915050565b600060208201905061114d6000830184610f66565b92915050565b6000806040838503121561116a57611169610e79565b5b600061117885828601610ffb565b925050602061118985828601610ffb565b9150509250929050565b600082825260208201905092915050565b7f47616d65206973206e6f74206163746976650000000000000000000000000000600082015250565b60006111da601283611193565b91506111e5826111a4565b602082019050919050565b60006020820190508181036000830152611209816111cd565b9050919050565b60008151905061121f81610fe4565b92915050565b60006020828403121561123b5761123a610e79565b5b600061124984828501611210565b91505092915050565b7f4e6f7420746865206f776e6572206f66207468652061747461636b696e67206360008201527f6172640000000000000000000000000000000000000000000000000000000000602082015250565b60006112ae602383611193565b91506112b982611252565b604082019050919050565b600060208201905081810360008301526112dd816112a1565b9050919050565b6000815190506112f381610e88565b92915050565b600080604083850312156113105761130f610e79565b5b600061131e858286016112e4565b925050602061132f858286016112e4565b9150509250929050565b7f4e487b7100000000000000000000000000000000000000000000000000000000600052601160045260246000fd5b600061137382610e7e565b915061137e83610e7e565b925082820390508181111561139657611395611339565b5b92915050565b60006040820190506113b16000830185610f75565b6113be6020830184610f75565b9392505050565b7f5374617274657220436172640000000000000000000000000000000000000000600082015250565b60006113fb600c83611193565b9150611406826113c5565b602082019050919050565b7f5468697320697320612073746172746572206361726420666f72206e6577207060008201527f6c61796572730000000000000000000000000000000000000000000000000000602082015250565b600061146d602683611193565b915061147882611411565b604082019050919050565b6000608082019050818103600083015261149c816113ee565b905081810360208301526114af81611460565b90506114be6040830185610f75565b6114cb6060830184610f75565b9392505050565b6000602082840312156114e8576114e7610e79565b5b60006114f6848285016112e4565b91505092915050565b60006060820190506115146000830186610f66565b6115216020830185610f66565b61152e6040830184610f75565b949350505050565b600061154182610e7e565b91507fffffffffffffffffffffffffffffffffffffffffffffffffffffffffffffffff820361157357611572611339565b5b600182019050919050565b7f506c6179657220312068617320696e73756666696369656e742062616c616e6360008201527f6500000000000000000000000000000000000000000000000000000000000000602082015250565b60006115da602183611193565b91506115e58261157e565b604082019050919050565b60006020820190508181036000830152611609816115cd565b9050919050565b7f506c6179657220322068617320696e73756666696369656e742062616c616e6360008201527f6500000000000000000000000000000000000000000000000000000000000000602082015250565b600061166c602183611193565b915061167782611610565b604082019050919050565b6000602082019050818103600083015261169b8161165f565b9050919050565b6116ab81610f84565b81146116b657600080fd5b50565b6000815190506116c8816116a2565b92915050565b6000602082840312156116e4576116e3610e79565b5b60006116f2848285016116b9565b91505092915050565b600061170682610e7e565b915061171183610e7e565b925082820190508082111561172957611728611339565b5b92915050565b6000819050919050565b61174a61174582610e7e565b61172f565b82525050565b60008160601b9050919050565b600061176882611750565b9050919050565b600061177a8261175d565b9050919050565b61179261178d82610f54565b61176f565b82525050565b60006117a48286611739565b6020820191506117b48285611739565b6020820191506117c48284611781565b601482019150819050949350505050565b7f4e487b7100000000000000000000000000000000000000000000000000000000600052601260045260246000fd5b600061180f82610e7e565b915061181a83610e7e565b92508261182a576118296117d5565b5b82820690509291505056fea26469706673582212209811728532881b803e0b26d1d854d771ef74a82e298acddf58111a1baa55d5ee64736f6c63430008130033",
  "immutableReferences": {},
  "source": "// SPDX-License-Identifier: MIT\npragma solidity ^0.8.19;\n\nimport \"./ERC20SmartContract.sol\";\nimport \"./ERC721SmartContract.sol\";\nimport \"./ERC1155SmartContract.sol\";\n\ncontract PlayerRegistration {\n    GoldCoin private goldCoinContract;\n    UniqueCards private cardsContract;\n    GameItems private itemsContract;\n\n    // Define a structure to represent a game\n    struct Game {\n        address player1;\n        address player2;\n        uint256 betAmount;\n        bool isActive;\n    }\n\n    // Mapping to store ongoing games\n    mapping(uint256 => Game) public games;\n    uint256 public nextGameId;\n\n    // Mapping to store player bets\n    mapping(address => uint256) public playerBets;\n\n    constructor(\n        address _goldCoinAddress,\n        address _cardsAddress,\n        address _itemsAddress\n    ) {\n        goldCoinContract = GoldCoin(_goldCoinAddress);\n        cardsContract = UniqueCards(_cardsAddress);\n        itemsContract = GameItems(_itemsAddress);\n    }\n\n    function pseudoRandom() private view returns (uint) {\n        return\n            (uint(\n                keccak256(\n                    abi.encodePacked(\n                        block.timestamp,\n                        block.prevrandao,\n                        msg.sender\n                    )\n                )\n            ) % 15) + 1;\n    }\n\n    struct Player {\n        address playerAddress;\n        uint256[] cardIds; // Array of owned card IDs\n    }\n\n    mapping(address => Player) public players;\n\n    function registerPlayer() public {\n        Player storage player = players[msg.sender];\n        player.playerAddress = msg.sender;\n\n        // Assign 5 unique cards to the player\n        for (uint256 i = 0; i < 5; i++) {\n            uint256 attack = pseudoRandom();\n            uint256 defense = pseudoRandom();\n            uint256 newCardId = cardsContract.createUniqueCard(\n                \"Starter Card\",\n                \"This is a starter card for new players\",\n                attack,\n                defense\n            );\n            cardsContract.transferFrom(address(this), msg.sender, newCardId);\n            player.cardIds.push(newCardId); // Add new card ID to the player's card list\n        }\n\n        // Assign power-up if available\n        // ... existing power-up code ...\n    }\n\n    // Function to get a player's card IDs\n    function getPlayerCards(\n        address playerAddress\n    ) public view returns (uint256[] memory) {\n        return players[playerAddress].cardIds;\n    }\n\n    function startGame(address player1, address player2) external {\n        uint256 betAmount = 100 * 10 ** 18; // 100 GoldCoins\n\n        // Ensure both players have sufficient balance and have consented\n        require(\n            goldCoinContract.balanceOf(player1) >= betAmount,\n            \"Player 1 has insufficient balance\"\n        );\n        require(\n            goldCoinContract.balanceOf(player2) >= betAmount,\n            \"Player 2 has insufficient balance\"\n        );\n\n        // Transfer coins to the contract as a bet\n        goldCoinContract.transferFrom(player1, address(this), betAmount);\n        goldCoinContract.transferFrom(player2, address(this), betAmount);\n\n        // Record the bet for each player\n        playerBets[player1] += betAmount;\n        playerBets[player2] += betAmount;\n\n        // Create a new game instance\n        games[nextGameId] = Game({\n            player1: player1,\n            player2: player2,\n            betAmount: betAmount,\n            isActive: true\n        });\n\n        nextGameId++; // Increment the game ID for the next game\n    }\n\n    function attackCard(\n        uint256 gameId,\n        uint256 attackerCardId,\n        uint256 defenderCardId\n    ) external {\n        Game storage game = games[gameId];\n        require(game.isActive, \"Game is not active\");\n\n        // Check if the player owns the attacking card\n        require(\n            cardsContract.ownerOf(attackerCardId) == msg.sender,\n            \"Not the owner of the attacking card\"\n        );\n\n        // Fetch card details\n        (uint256 attackerAttack, ) = cardsContract.getCardAttributes(\n            attackerCardId\n        );\n        (, uint256 defenderDefense) = cardsContract.getCardAttributes(\n            defenderCardId\n        );\n\n        // Apply attack logic\n        if (defenderDefense > attackerAttack) {\n            uint256 newDefense = defenderDefense - attackerAttack;\n            cardsContract.updateCardDefense(defenderCardId, newDefense);\n        } else {\n            // Card is defeated, burn the defender's card\n            cardsContract.burnCard(defenderCardId);\n        }\n    }\n}\n",
  "sourcePath": "/Users/ibrahimallahbuksh/BlockchainProject/contracts/StartGame.sol",
  "compiler": {
    "name": "solc",
    "version": "0.8.19+commit.7dd6d404.Emscripten.clang"
  },
  "schemaVersion": "3.4.16",
  "updatedAt": "2023-11-19T18:52:33.276Z",
  "networkType": "ethereum",
  "devdoc": {
    "kind": "dev",
    "methods": {},
    "version": 1
  },
  "userdoc": {
    "kind": "user",
    "methods": {},
    "version": 1
  }
}