{
  "contractName": "PlayerRegistration",
  "abi": [
    {
      "inputs": [
        {
          "internalType": "address",
          "name": "_goldCoinAddress",
          "type": "address"
        },
        {
          "internalType": "address",
          "name": "_cardsAddress",
          "type": "address"
        },
        {
          "internalType": "address",
          "name": "_itemsAddress",
          "type": "address"
        }
      ],
      "stateMutability": "nonpayable",
      "type": "constructor"
    },
    {
      "inputs": [
        {
          "internalType": "uint256",
          "name": "",
          "type": "uint256"
        }
      ],
      "name": "games",
      "outputs": [
        {
          "internalType": "address",
          "name": "player1",
          "type": "address"
        },
        {
          "internalType": "address",
          "name": "player2",
          "type": "address"
        },
        {
          "internalType": "uint256",
          "name": "betAmount",
          "type": "uint256"
        },
        {
          "internalType": "bool",
          "name": "isActive",
          "type": "bool"
        }
      ],
      "stateMutability": "view",
      "type": "function"
    },
    {
      "inputs": [],
      "name": "nextGameId",
      "outputs": [
        {
          "internalType": "uint256",
          "name": "",
          "type": "uint256"
        }
      ],
      "stateMutability": "view",
      "type": "function"
    },
    {
      "inputs": [
        {
          "internalType": "address",
          "name": "",
          "type": "address"
        }
      ],
      "name": "playerBets",
      "outputs": [
        {
          "internalType": "uint256",
          "name": "",
          "type": "uint256"
        }
      ],
      "stateMutability": "view",
      "type": "function"
    },
    {
      "inputs": [],
      "name": "registerPlayer",
      "outputs": [],
      "stateMutability": "nonpayable",
      "type": "function"
    },
    {
      "inputs": [
        {
          "internalType": "address",
          "name": "player1",
          "type": "address"
        },
        {
          "internalType": "address",
          "name": "player2",
          "type": "address"
        }
      ],
      "name": "startGame",
      "outputs": [],
      "stateMutability": "nonpayable",
      "type": "function"
    },
    {
      "inputs": [
        {
          "internalType": "uint256",
          "name": "gameId",
          "type": "uint256"
        },
        {
          "internalType": "uint256",
          "name": "attackerCardId",
          "type": "uint256"
        },
        {
          "internalType": "uint256",
          "name": "defenderCardId",
          "type": "uint256"
        }
      ],
      "name": "attackCard",
      "outputs": [],
      "stateMutability": "nonpayable",
      "type": "function"
    }
  ],
  "bytecode": "0x60806040523480156200001157600080fd5b50604051620019973803806200199783398181016040528101906200003791906200016c565b826000806101000a81548173ffffffffffffffffffffffffffffffffffffffff021916908373ffffffffffffffffffffffffffffffffffffffff16021790555081600160006101000a81548173ffffffffffffffffffffffffffffffffffffffff021916908373ffffffffffffffffffffffffffffffffffffffff16021790555080600260006101000a81548173ffffffffffffffffffffffffffffffffffffffff021916908373ffffffffffffffffffffffffffffffffffffffff160217905550505050620001c8565b600080fd5b600073ffffffffffffffffffffffffffffffffffffffff82169050919050565b6000620001348262000107565b9050919050565b620001468162000127565b81146200015257600080fd5b50565b60008151905062000166816200013b565b92915050565b60008060006060848603121562000188576200018762000102565b5b6000620001988682870162000155565b9350506020620001ab8682870162000155565b9250506040620001be8682870162000155565b9150509250925092565b6117bf80620001d86000396000f3fe608060405234801561001057600080fd5b50600436106100625760003560e01c80630939ed3414610067578063117a5b90146100835780635c07a4b0146100b6578063b135bbb0146100c0578063c7aa327b146100de578063eb23b56b1461010e575b600080fd5b610081600480360381019061007c9190610e6c565b61012a565b005b61009d60048036038101906100989190610ebf565b61051e565b6040516100ad9493929190610f57565b60405180910390f35b6100be61059b565b005b6100c86108d5565b6040516100d59190610f9c565b60405180910390f35b6100f860048036038101906100f39190610fe3565b6108db565b6040516101059190610f9c565b60405180910390f35b61012860048036038101906101239190611010565b6108f3565b005b60006003600085815260200190815260200160002090508060030160009054906101000a900460ff16610192576040517f08c379a0000000000000000000000000000000000000000000000000000000008152600401610189906110ad565b60405180910390fd5b3373ffffffffffffffffffffffffffffffffffffffff16600160009054906101000a900473ffffffffffffffffffffffffffffffffffffffff1673ffffffffffffffffffffffffffffffffffffffff16636352211e856040518263ffffffff1660e01b81526004016102049190610f9c565b602060405180830381865afa158015610221573d6000803e3d6000fd5b505050506040513d601f19601f8201168201806040525081019061024591906110e2565b73ffffffffffffffffffffffffffffffffffffffff161461029b576040517f08c379a000000000000000000000000000000000000000000000000000000000815260040161029290611181565b60405180910390fd5b6000600160009054906101000a900473ffffffffffffffffffffffffffffffffffffffff1673ffffffffffffffffffffffffffffffffffffffff1663d5aaa5b0856040518263ffffffff1660e01b81526004016102f89190610f9c565b6040805180830381865afa158015610314573d6000803e3d6000fd5b505050506040513d601f19601f8201168201806040525081019061033891906111b6565b5090506000600160009054906101000a900473ffffffffffffffffffffffffffffffffffffffff1673ffffffffffffffffffffffffffffffffffffffff1663d5aaa5b0856040518263ffffffff1660e01b81526004016103989190610f9c565b6040805180830381865afa1580156103b4573d6000803e3d6000fd5b505050506040513d601f19601f820116820180604052508101906103d891906111b6565b9150508181111561048857600082826103f19190611225565b9050600160009054906101000a900473ffffffffffffffffffffffffffffffffffffffff1673ffffffffffffffffffffffffffffffffffffffff16633e81872d86836040518363ffffffff1660e01b8152600401610450929190611259565b600060405180830381600087803b15801561046a57600080fd5b505af115801561047e573d6000803e3d6000fd5b5050505050610516565b600160009054906101000a900473ffffffffffffffffffffffffffffffffffffffff1673ffffffffffffffffffffffffffffffffffffffff1663ba7e7d05856040518263ffffffff1660e01b81526004016104e39190610f9c565b600060405180830381600087803b1580156104fd57600080fd5b505af1158015610511573d6000803e3d6000fd5b505050505b505050505050565b60036020528060005260406000206000915090508060000160009054906101000a900473ffffffffffffffffffffffffffffffffffffffff16908060010160009054906101000a900473ffffffffffffffffffffffffffffffffffffffff16908060020154908060030160009054906101000a900460ff16905084565b60005b600581101561070a5760006105b1610de4565b905060006105bd610de4565b90506000600160009054906101000a900473ffffffffffffffffffffffffffffffffffffffff1673ffffffffffffffffffffffffffffffffffffffff1663f7ee23dc84846040518363ffffffff1660e01b815260040161061e929190611340565b6020604051808303816000875af115801561063d573d6000803e3d6000fd5b505050506040513d601f19601f82011682018060405250810190610661919061138f565b9050600160009054906101000a900473ffffffffffffffffffffffffffffffffffffffff1673ffffffffffffffffffffffffffffffffffffffff166323b872dd3033846040518463ffffffff1660e01b81526004016106c2939291906113bc565b600060405180830381600087803b1580156106dc57600080fd5b505af11580156106f0573d6000803e3d6000fd5b505050505050508080610702906113f3565b91505061059e565b50600260009054906101000a900473ffffffffffffffffffffffffffffffffffffffff1673ffffffffffffffffffffffffffffffffffffffff166313e8ee7e336040518263ffffffff1660e01b8152600401610766919061143b565b602060405180830381865afa158015610783573d6000803e3d6000fd5b505050506040513d601f19601f820116820180604052508101906107a79190611482565b156108d357600060019050600260009054906101000a900473ffffffffffffffffffffffffffffffffffffffff1673ffffffffffffffffffffffffffffffffffffffff1663696a50b4338360016040518463ffffffff1660e01b8152600401610812939291906114f4565b600060405180830381600087803b15801561082c57600080fd5b505af1158015610840573d6000803e3d6000fd5b50505050600260009054906101000a900473ffffffffffffffffffffffffffffffffffffffff1673ffffffffffffffffffffffffffffffffffffffff16638b651827336040518263ffffffff1660e01b815260040161089f919061143b565b600060405180830381600087803b1580156108b957600080fd5b505af11580156108cd573d6000803e3d6000fd5b50505050505b565b60045481565b60056020528060005260406000206000915090505481565b600068056bc75e2d6310000090508060008054906101000a900473ffffffffffffffffffffffffffffffffffffffff1673ffffffffffffffffffffffffffffffffffffffff166370a08231856040518263ffffffff1660e01b815260040161095b919061143b565b602060405180830381865afa158015610978573d6000803e3d6000fd5b505050506040513d601f19601f8201168201806040525081019061099c919061138f565b10156109dd576040517f08c379a00000000000000000000000000000000000000000000000000000000081526004016109d49061159d565b60405180910390fd5b8060008054906101000a900473ffffffffffffffffffffffffffffffffffffffff1673ffffffffffffffffffffffffffffffffffffffff166370a08231846040518263ffffffff1660e01b8152600401610a37919061143b565b602060405180830381865afa158015610a54573d6000803e3d6000fd5b505050506040513d601f19601f82011682018060405250810190610a78919061138f565b1015610ab9576040517f08c379a0000000000000000000000000000000000000000000000000000000008152600401610ab09061162f565b60405180910390fd5b60008054906101000a900473ffffffffffffffffffffffffffffffffffffffff1673ffffffffffffffffffffffffffffffffffffffff166323b872dd8430846040518463ffffffff1660e01b8152600401610b16939291906113bc565b6020604051808303816000875af1158015610b35573d6000803e3d6000fd5b505050506040513d601f19601f82011682018060405250810190610b599190611482565b5060008054906101000a900473ffffffffffffffffffffffffffffffffffffffff1673ffffffffffffffffffffffffffffffffffffffff166323b872dd8330846040518463ffffffff1660e01b8152600401610bb7939291906113bc565b6020604051808303816000875af1158015610bd6573d6000803e3d6000fd5b505050506040513d601f19601f82011682018060405250810190610bfa9190611482565b5080600560008573ffffffffffffffffffffffffffffffffffffffff1673ffffffffffffffffffffffffffffffffffffffff1681526020019081526020016000206000828254610c4a919061164f565b9250508190555080600560008473ffffffffffffffffffffffffffffffffffffffff1673ffffffffffffffffffffffffffffffffffffffff1681526020019081526020016000206000828254610ca0919061164f565b9250508190555060405180608001604052808473ffffffffffffffffffffffffffffffffffffffff1681526020018373ffffffffffffffffffffffffffffffffffffffff1681526020018281526020016001151581525060036000600454815260200190815260200160002060008201518160000160006101000a81548173ffffffffffffffffffffffffffffffffffffffff021916908373ffffffffffffffffffffffffffffffffffffffff16021790555060208201518160010160006101000a81548173ffffffffffffffffffffffffffffffffffffffff021916908373ffffffffffffffffffffffffffffffffffffffff1602179055506040820151816002015560608201518160030160006101000a81548160ff02191690831515021790555090505060046000815480929190610dda906113f3565b9190505550505050565b60006001600f424433604051602001610dff939291906116ec565b6040516020818303038152906040528051906020012060001c610e229190611758565b610e2c919061164f565b905090565b600080fd5b6000819050919050565b610e4981610e36565b8114610e5457600080fd5b50565b600081359050610e6681610e40565b92915050565b600080600060608486031215610e8557610e84610e31565b5b6000610e9386828701610e57565b9350506020610ea486828701610e57565b9250506040610eb586828701610e57565b9150509250925092565b600060208284031215610ed557610ed4610e31565b5b6000610ee384828501610e57565b91505092915050565b600073ffffffffffffffffffffffffffffffffffffffff82169050919050565b6000610f1782610eec565b9050919050565b610f2781610f0c565b82525050565b610f3681610e36565b82525050565b60008115159050919050565b610f5181610f3c565b82525050565b6000608082019050610f6c6000830187610f1e565b610f796020830186610f1e565b610f866040830185610f2d565b610f936060830184610f48565b95945050505050565b6000602082019050610fb16000830184610f2d565b92915050565b610fc081610f0c565b8114610fcb57600080fd5b50565b600081359050610fdd81610fb7565b92915050565b600060208284031215610ff957610ff8610e31565b5b600061100784828501610fce565b91505092915050565b6000806040838503121561102757611026610e31565b5b600061103585828601610fce565b925050602061104685828601610fce565b9150509250929050565b600082825260208201905092915050565b7f47616d65206973206e6f74206163746976650000000000000000000000000000600082015250565b6000611097601283611050565b91506110a282611061565b602082019050919050565b600060208201905081810360008301526110c68161108a565b9050919050565b6000815190506110dc81610fb7565b92915050565b6000602082840312156110f8576110f7610e31565b5b6000611106848285016110cd565b91505092915050565b7f4e6f7420746865206f776e6572206f66207468652061747461636b696e67206360008201527f6172640000000000000000000000000000000000000000000000000000000000602082015250565b600061116b602383611050565b91506111768261110f565b604082019050919050565b6000602082019050818103600083015261119a8161115e565b9050919050565b6000815190506111b081610e40565b92915050565b600080604083850312156111cd576111cc610e31565b5b60006111db858286016111a1565b92505060206111ec858286016111a1565b9150509250929050565b7f4e487b7100000000000000000000000000000000000000000000000000000000600052601160045260246000fd5b600061123082610e36565b915061123b83610e36565b9250828203905081811115611253576112526111f6565b5b92915050565b600060408201905061126e6000830185610f2d565b61127b6020830184610f2d565b9392505050565b7f5374617274657220436172640000000000000000000000000000000000000000600082015250565b60006112b8600c83611050565b91506112c382611282565b602082019050919050565b7f5468697320697320612073746172746572206361726420666f72206e6577207060008201527f6c61796572730000000000000000000000000000000000000000000000000000602082015250565b600061132a602683611050565b9150611335826112ce565b604082019050919050565b60006080820190508181036000830152611359816112ab565b9050818103602083015261136c8161131d565b905061137b6040830185610f2d565b6113886060830184610f2d565b9392505050565b6000602082840312156113a5576113a4610e31565b5b60006113b3848285016111a1565b91505092915050565b60006060820190506113d16000830186610f1e565b6113de6020830185610f1e565b6113eb6040830184610f2d565b949350505050565b60006113fe82610e36565b91507fffffffffffffffffffffffffffffffffffffffffffffffffffffffffffffffff82036114305761142f6111f6565b5b600182019050919050565b60006020820190506114506000830184610f1e565b92915050565b61145f81610f3c565b811461146a57600080fd5b50565b60008151905061147c81611456565b92915050565b60006020828403121561149857611497610e31565b5b60006114a68482850161146d565b91505092915050565b6000819050919050565b6000819050919050565b60006114de6114d96114d4846114af565b6114b9565b610e36565b9050919050565b6114ee816114c3565b82525050565b60006060820190506115096000830186610f1e565b6115166020830185610f2d565b61152360408301846114e5565b949350505050565b7f506c6179657220312068617320696e73756666696369656e742062616c616e6360008201527f6500000000000000000000000000000000000000000000000000000000000000602082015250565b6000611587602183611050565b91506115928261152b565b604082019050919050565b600060208201905081810360008301526115b68161157a565b9050919050565b7f506c6179657220322068617320696e73756666696369656e742062616c616e6360008201527f6500000000000000000000000000000000000000000000000000000000000000602082015250565b6000611619602183611050565b9150611624826115bd565b604082019050919050565b600060208201905081810360008301526116488161160c565b9050919050565b600061165a82610e36565b915061166583610e36565b925082820190508082111561167d5761167c6111f6565b5b92915050565b6000819050919050565b61169e61169982610e36565b611683565b82525050565b60008160601b9050919050565b60006116bc826116a4565b9050919050565b60006116ce826116b1565b9050919050565b6116e66116e182610f0c565b6116c3565b82525050565b60006116f8828661168d565b602082019150611708828561168d565b60208201915061171882846116d5565b601482019150819050949350505050565b7f4e487b7100000000000000000000000000000000000000000000000000000000600052601260045260246000fd5b600061176382610e36565b915061176e83610e36565b92508261177e5761177d611729565b5b82820690509291505056fea26469706673582212203272dbcf59596d946cc5d331ec5ead37f2ba56c5ff88d1898f378d293e93053064736f6c63430008130033",
  "immutableReferences": {},
  "source": "// SPDX-License-Identifier: MIT\npragma solidity ^0.8.19;\n\nimport \"./ERC20SmartContract.sol\";\nimport \"./ERC721SmartContract.sol\";\nimport \"./ERC1155SmartContract.sol\";\n\ncontract PlayerRegistration {\n    GoldCoin private goldCoinContract;\n    UniqueCards private cardsContract;\n    GameItems private itemsContract;\n\n    // Define a structure to represent a game\n    struct Game {\n        address player1;\n        address player2;\n        uint256 betAmount;\n        bool isActive;\n    }\n\n    // Mapping to store ongoing games\n    mapping(uint256 => Game) public games;\n    uint256 public nextGameId;\n\n    // Mapping to store player bets\n    mapping(address => uint256) public playerBets;\n\n    constructor(\n        address _goldCoinAddress,\n        address _cardsAddress,\n        address _itemsAddress\n    ) {\n        goldCoinContract = GoldCoin(_goldCoinAddress);\n        cardsContract = UniqueCards(_cardsAddress);\n        itemsContract = GameItems(_itemsAddress);\n    }\n\n    function pseudoRandom() private view returns (uint) {\n        return\n            (uint(\n                keccak256(\n                    abi.encodePacked(\n                        block.timestamp,\n                        block.prevrandao,\n                        msg.sender\n                    )\n                )\n            ) % 15) + 1;\n    }\n\n    function registerPlayer() public {\n        // Loop to create and assign 5 unique cards to the player\n        for (uint256 i = 0; i < 5; i++) {\n            uint256 attack = pseudoRandom();\n            uint256 defense = pseudoRandom();\n\n            // Create a new ERC721 card with random attack and defense\n            uint256 newCardId = cardsContract.createUniqueCard(\n                \"Starter Card\",\n                \"This is a starter card for new players\",\n                attack,\n                defense\n            );\n\n            // Transfer the newly created card to the player\n            cardsContract.transferFrom(address(this), msg.sender, newCardId);\n        }\n\n        // Check if the player has purchased a power-up and assign it\n        if (itemsContract.hasPowerUp(msg.sender)) {\n            uint256 powerUpItemId = 1; // Assuming 1 is the ID for the power-up\n            itemsContract.mintItem(msg.sender, powerUpItemId, 1); // Mint one power-up\n            itemsContract.usePowerUp(msg.sender); // Indicate the power-up is used\n        }\n    }\n\n    function startGame(address player1, address player2) external {\n        uint256 betAmount = 100 * 10 ** 18; // 100 GoldCoins\n\n        // Ensure both players have sufficient balance and have consented\n        require(\n            goldCoinContract.balanceOf(player1) >= betAmount,\n            \"Player 1 has insufficient balance\"\n        );\n        require(\n            goldCoinContract.balanceOf(player2) >= betAmount,\n            \"Player 2 has insufficient balance\"\n        );\n\n        // Transfer coins to the contract as a bet\n        goldCoinContract.transferFrom(player1, address(this), betAmount);\n        goldCoinContract.transferFrom(player2, address(this), betAmount);\n\n        // Record the bet for each player\n        playerBets[player1] += betAmount;\n        playerBets[player2] += betAmount;\n\n        // Create a new game instance\n        games[nextGameId] = Game({\n            player1: player1,\n            player2: player2,\n            betAmount: betAmount,\n            isActive: true\n        });\n\n        nextGameId++; // Increment the game ID for the next game\n    }\n\n    function attackCard(\n        uint256 gameId,\n        uint256 attackerCardId,\n        uint256 defenderCardId\n    ) external {\n        Game storage game = games[gameId];\n        require(game.isActive, \"Game is not active\");\n\n        // Check if the player owns the attacking card\n        require(\n            cardsContract.ownerOf(attackerCardId) == msg.sender,\n            \"Not the owner of the attacking card\"\n        );\n\n        // Fetch card details\n        (uint256 attackerAttack, ) = cardsContract.getCardAttributes(\n            attackerCardId\n        );\n        (, uint256 defenderDefense) = cardsContract.getCardAttributes(\n            defenderCardId\n        );\n\n        // Apply attack logic\n        if (defenderDefense > attackerAttack) {\n            uint256 newDefense = defenderDefense - attackerAttack;\n            cardsContract.updateCardDefense(defenderCardId, newDefense);\n        } else {\n            // Card is defeated, burn the defender's card\n            cardsContract.burnCard(defenderCardId);\n        }\n    }\n}\n",
  "sourcePath": "/Users/ibrahimallahbuksh/BlockchainProject/contracts/StartGame.sol",
  "compiler": {
    "name": "solc",
    "version": "0.8.19+commit.7dd6d404.Emscripten.clang"
  },
  "schemaVersion": "3.4.16",
  "updatedAt": "2023-11-19T04:53:50.772Z",
  "devdoc": {
    "kind": "dev",
    "methods": {},
    "version": 1
  },
  "userdoc": {
    "kind": "user",
    "methods": {},
    "version": 1
  }
}