{
  "contractName": "PlayerRegistration",
  "abi": [
    {
      "inputs": [
        {
          "internalType": "address",
          "name": "_goldCoinAddress",
          "type": "address"
        },
        {
          "internalType": "address",
          "name": "_cardsAddress",
          "type": "address"
        },
        {
          "internalType": "address",
          "name": "_itemsAddress",
          "type": "address"
        }
      ],
      "stateMutability": "nonpayable",
      "type": "constructor"
    },
    {
      "inputs": [
        {
          "internalType": "address",
          "name": "playerAddress",
          "type": "address"
        }
      ],
      "name": "registerPlayer",
      "outputs": [],
      "stateMutability": "nonpayable",
      "type": "function"
    }
  ],
  "bytecode": "0x608060405234801561001057600080fd5b50604051610bd8380380610bd88339818101604052810190610032919061015f565b826000806101000a81548173ffffffffffffffffffffffffffffffffffffffff021916908373ffffffffffffffffffffffffffffffffffffffff16021790555081600160006101000a81548173ffffffffffffffffffffffffffffffffffffffff021916908373ffffffffffffffffffffffffffffffffffffffff16021790555080600260006101000a81548173ffffffffffffffffffffffffffffffffffffffff021916908373ffffffffffffffffffffffffffffffffffffffff1602179055505050506101b2565b600080fd5b600073ffffffffffffffffffffffffffffffffffffffff82169050919050565b600061012c82610101565b9050919050565b61013c81610121565b811461014757600080fd5b50565b60008151905061015981610133565b92915050565b600080600060608486031215610178576101776100fc565b5b60006101868682870161014a565b93505060206101978682870161014a565b92505060406101a88682870161014a565b9150509250925092565b610a17806101c16000396000f3fe608060405234801561001057600080fd5b506004361061002b5760003560e01c80636b5cc6d914610030575b600080fd5b61004a600480360381019061004591906104cd565b61004c565b005b60008054906101000a900473ffffffffffffffffffffffffffffffffffffffff1673ffffffffffffffffffffffffffffffffffffffff166340c10f1982683635c9adc5dea000006040518363ffffffff1660e01b81526004016100b0929190610558565b600060405180830381600087803b1580156100ca57600080fd5b505af11580156100de573d6000803e3d6000fd5b5050505060005b60058110156102515760006100f861041d565b9050600061010461041d565b90506000600160009054906101000a900473ffffffffffffffffffffffffffffffffffffffff1673ffffffffffffffffffffffffffffffffffffffff1663f7ee23dc84846040518363ffffffff1660e01b815260040161016592919061065f565b6020604051808303816000875af1158015610184573d6000803e3d6000fd5b505050506040513d601f19601f820116820180604052508101906101a891906106da565b9050600160009054906101000a900473ffffffffffffffffffffffffffffffffffffffff1673ffffffffffffffffffffffffffffffffffffffff166323b872dd3087846040518463ffffffff1660e01b815260040161020993929190610707565b600060405180830381600087803b15801561022357600080fd5b505af1158015610237573d6000803e3d6000fd5b5050505050505080806102499061076d565b9150506100e5565b50600260009054906101000a900473ffffffffffffffffffffffffffffffffffffffff1673ffffffffffffffffffffffffffffffffffffffff166313e8ee7e826040518263ffffffff1660e01b81526004016102ad91906107b5565b602060405180830381865afa1580156102ca573d6000803e3d6000fd5b505050506040513d601f19601f820116820180604052508101906102ee9190610808565b1561041a57600060019050600260009054906101000a900473ffffffffffffffffffffffffffffffffffffffff1673ffffffffffffffffffffffffffffffffffffffff1663696a50b4838360016040518463ffffffff1660e01b815260040161035993929190610870565b600060405180830381600087803b15801561037357600080fd5b505af1158015610387573d6000803e3d6000fd5b50505050600260009054906101000a900473ffffffffffffffffffffffffffffffffffffffff1673ffffffffffffffffffffffffffffffffffffffff16638b651827836040518263ffffffff1660e01b81526004016103e691906107b5565b600060405180830381600087803b15801561040057600080fd5b505af1158015610414573d6000803e3d6000fd5b50505050505b50565b60006001600a42443360405160200161043893929190610910565b6040516020818303038152906040528051906020012060001c61045b919061097c565b61046591906109ad565b905090565b600080fd5b600073ffffffffffffffffffffffffffffffffffffffff82169050919050565b600061049a8261046f565b9050919050565b6104aa8161048f565b81146104b557600080fd5b50565b6000813590506104c7816104a1565b92915050565b6000602082840312156104e3576104e261046a565b5b60006104f1848285016104b8565b91505092915050565b6105038161048f565b82525050565b6000819050919050565b6000819050919050565b6000819050919050565b600061054261053d61053884610509565b61051d565b610513565b9050919050565b61055281610527565b82525050565b600060408201905061056d60008301856104fa565b61057a6020830184610549565b9392505050565b600082825260208201905092915050565b7f5374617274657220436172640000000000000000000000000000000000000000600082015250565b60006105c8600c83610581565b91506105d382610592565b602082019050919050565b7f5468697320697320612073746172746572206361726420666f72206e6577207060008201527f6c61796572730000000000000000000000000000000000000000000000000000602082015250565b600061063a602683610581565b9150610645826105de565b604082019050919050565b61065981610513565b82525050565b60006080820190508181036000830152610678816105bb565b9050818103602083015261068b8161062d565b905061069a6040830185610650565b6106a76060830184610650565b9392505050565b6106b781610513565b81146106c257600080fd5b50565b6000815190506106d4816106ae565b92915050565b6000602082840312156106f0576106ef61046a565b5b60006106fe848285016106c5565b91505092915050565b600060608201905061071c60008301866104fa565b61072960208301856104fa565b6107366040830184610650565b949350505050565b7f4e487b7100000000000000000000000000000000000000000000000000000000600052601160045260246000fd5b600061077882610513565b91507fffffffffffffffffffffffffffffffffffffffffffffffffffffffffffffffff82036107aa576107a961073e565b5b600182019050919050565b60006020820190506107ca60008301846104fa565b92915050565b60008115159050919050565b6107e5816107d0565b81146107f057600080fd5b50565b600081519050610802816107dc565b92915050565b60006020828403121561081e5761081d61046a565b5b600061082c848285016107f3565b91505092915050565b6000819050919050565b600061085a61085561085084610835565b61051d565b610513565b9050919050565b61086a8161083f565b82525050565b600060608201905061088560008301866104fa565b6108926020830185610650565b61089f6040830184610861565b949350505050565b6000819050919050565b6108c26108bd82610513565b6108a7565b82525050565b60008160601b9050919050565b60006108e0826108c8565b9050919050565b60006108f2826108d5565b9050919050565b61090a6109058261048f565b6108e7565b82525050565b600061091c82866108b1565b60208201915061092c82856108b1565b60208201915061093c82846108f9565b601482019150819050949350505050565b7f4e487b7100000000000000000000000000000000000000000000000000000000600052601260045260246000fd5b600061098782610513565b915061099283610513565b9250826109a2576109a161094d565b5b828206905092915050565b60006109b882610513565b91506109c383610513565b92508282019050808211156109db576109da61073e565b5b9291505056fea2646970667358221220d4c07de42fcfac5018bd6f648aeda0cdc74ba51bef816c5442ef6f10157feb0a64736f6c63430008130033",
  "immutableReferences": {},
  "source": "// SPDX-License-Identifier: MIT\npragma solidity ^0.8.19;\n\nimport \"./ERC20SmartContract.sol\";\nimport \"./ERC721SmartContract.sol\";\nimport \"./ERC1155SmartContract.sol\";\n\ncontract PlayerRegistration {\n    GoldCoin private goldCoinContract;\n    UniqueCards private cardsContract;\n    GameItems private itemsContract;\n\n    constructor(\n        address _goldCoinAddress,\n        address _cardsAddress,\n        address _itemsAddress\n    ) {\n        goldCoinContract = GoldCoin(_goldCoinAddress);\n        cardsContract = UniqueCards(_cardsAddress);\n        itemsContract = GameItems(_itemsAddress);\n    }\n\n    function pseudoRandom() private view returns (uint) {\n        return\n            (uint(\n                keccak256(\n                    abi.encodePacked(\n                        block.timestamp,\n                        block.prevrandao,\n                        msg.sender\n                    )\n                )\n            ) % 10) + 1;\n    }\n\n    function registerPlayer(address playerAddress) public {\n        // Mint ERC20 tokens to the player\n        goldCoinContract.mint(playerAddress, 1000 * 10 ** 18); // Minting 1000 GoldCoins\n\n        // Loop to create and assign 5 unique cards to the player\n        for (uint256 i = 0; i < 5; i++) {\n            uint256 attack = pseudoRandom();\n            uint256 defense = pseudoRandom();\n\n            // Create a new ERC721 card with random attack and defense\n            uint256 newCardId = cardsContract.createUniqueCard(\n                \"Starter Card\",\n                \"This is a starter card for new players\",\n                attack,\n                defense\n            );\n\n            // Transfer the newly created card to the player\n            cardsContract.transferFrom(address(this), playerAddress, newCardId);\n        }\n\n        // Check if the player has purchased a power-up and assign it\n        if (itemsContract.hasPowerUp(playerAddress)) {\n            uint256 powerUpItemId = 1; // Assuming 1 is the ID for the power-up\n            itemsContract.mintItem(playerAddress, powerUpItemId, 1); // Mint one power-up\n            itemsContract.usePowerUp(playerAddress); // Indicate the power-up is used\n        }\n    }\n}\n",
  "sourcePath": "/Users/ibrahimallahbuksh/BlockchainProject/contracts/StartGame.sol",
  "compiler": {
    "name": "solc",
    "version": "0.8.19+commit.7dd6d404.Emscripten.clang"
  },
  "schemaVersion": "3.4.16",
  "updatedAt": "2023-11-18T21:26:45.126Z",
  "devdoc": {
    "kind": "dev",
    "methods": {},
    "version": 1
  },
  "userdoc": {
    "kind": "user",
    "methods": {},
    "version": 1
  }
}