{
  "contractName": "PlayerRegistration",
  "abi": [
    {
      "inputs": [
        {
          "internalType": "address",
          "name": "_goldCoinAddress",
          "type": "address"
        },
        {
          "internalType": "address",
          "name": "_cardsAddress",
          "type": "address"
        },
        {
          "internalType": "address",
          "name": "_itemsAddress",
          "type": "address"
        }
      ],
      "stateMutability": "nonpayable",
      "type": "constructor"
    },
    {
      "inputs": [
        {
          "internalType": "uint256",
          "name": "",
          "type": "uint256"
        }
      ],
      "name": "activeCards",
      "outputs": [
        {
          "internalType": "bool",
          "name": "",
          "type": "bool"
        }
      ],
      "stateMutability": "view",
      "type": "function",
      "constant": true
    },
    {
      "inputs": [
        {
          "internalType": "uint256",
          "name": "",
          "type": "uint256"
        }
      ],
      "name": "allPlayers",
      "outputs": [
        {
          "internalType": "address",
          "name": "",
          "type": "address"
        }
      ],
      "stateMutability": "view",
      "type": "function",
      "constant": true
    },
    {
      "inputs": [
        {
          "internalType": "uint256",
          "name": "",
          "type": "uint256"
        }
      ],
      "name": "games",
      "outputs": [
        {
          "internalType": "address",
          "name": "player1",
          "type": "address"
        },
        {
          "internalType": "address",
          "name": "player2",
          "type": "address"
        },
        {
          "internalType": "uint256",
          "name": "betAmount",
          "type": "uint256"
        },
        {
          "internalType": "bool",
          "name": "isActive",
          "type": "bool"
        }
      ],
      "stateMutability": "view",
      "type": "function",
      "constant": true
    },
    {
      "inputs": [],
      "name": "nextGameId",
      "outputs": [
        {
          "internalType": "uint256",
          "name": "",
          "type": "uint256"
        }
      ],
      "stateMutability": "view",
      "type": "function",
      "constant": true
    },
    {
      "inputs": [
        {
          "internalType": "address",
          "name": "",
          "type": "address"
        }
      ],
      "name": "playerBets",
      "outputs": [
        {
          "internalType": "uint256",
          "name": "",
          "type": "uint256"
        }
      ],
      "stateMutability": "view",
      "type": "function",
      "constant": true
    },
    {
      "inputs": [
        {
          "internalType": "address",
          "name": "",
          "type": "address"
        }
      ],
      "name": "players",
      "outputs": [
        {
          "internalType": "address",
          "name": "playerAddress",
          "type": "address"
        }
      ],
      "stateMutability": "view",
      "type": "function",
      "constant": true
    },
    {
      "inputs": [],
      "name": "registerPlayer",
      "outputs": [],
      "stateMutability": "nonpayable",
      "type": "function"
    },
    {
      "inputs": [
        {
          "internalType": "address",
          "name": "playerAddress",
          "type": "address"
        }
      ],
      "name": "getPlayerCards",
      "outputs": [
        {
          "internalType": "uint256[]",
          "name": "",
          "type": "uint256[]"
        }
      ],
      "stateMutability": "view",
      "type": "function",
      "constant": true
    },
    {
      "inputs": [],
      "name": "getAllPlayers",
      "outputs": [
        {
          "internalType": "address[]",
          "name": "",
          "type": "address[]"
        }
      ],
      "stateMutability": "view",
      "type": "function",
      "constant": true
    },
    {
      "inputs": [
        {
          "internalType": "address",
          "name": "player1",
          "type": "address"
        },
        {
          "internalType": "address",
          "name": "player2",
          "type": "address"
        }
      ],
      "name": "startGame",
      "outputs": [],
      "stateMutability": "nonpayable",
      "type": "function"
    },
    {
      "inputs": [
        {
          "internalType": "uint256",
          "name": "gameId",
          "type": "uint256"
        },
        {
          "internalType": "uint256",
          "name": "attackerCardId",
          "type": "uint256"
        },
        {
          "internalType": "uint256",
          "name": "defenderCardId",
          "type": "uint256"
        }
      ],
      "name": "attackCard",
      "outputs": [],
      "stateMutability": "nonpayable",
      "type": "function"
    }
  ],
  "bytecode": "0x60806040523480156200001157600080fd5b50604051620025c0380380620025c083398181016040528101906200003791906200016c565b826000806101000a81548173ffffffffffffffffffffffffffffffffffffffff021916908373ffffffffffffffffffffffffffffffffffffffff16021790555081600160006101000a81548173ffffffffffffffffffffffffffffffffffffffff021916908373ffffffffffffffffffffffffffffffffffffffff16021790555080600260006101000a81548173ffffffffffffffffffffffffffffffffffffffff021916908373ffffffffffffffffffffffffffffffffffffffff160217905550505050620001c8565b600080fd5b600073ffffffffffffffffffffffffffffffffffffffff82169050919050565b6000620001348262000107565b9050919050565b620001468162000127565b81146200015257600080fd5b50565b60008151905062000166816200013b565b92915050565b60008060006060848603121562000188576200018762000102565b5b6000620001988682870162000155565b9350506020620001ab8682870162000155565b9250506040620001be8682870162000155565b9150509250925092565b6123e880620001d86000396000f3fe608060405234801561001057600080fd5b50600436106100a95760003560e01c8063b135bbb011610071578063b135bbb014610167578063c7aa327b14610185578063c9da8713146101b5578063e2eb41ff146101e5578063eb23b56b14610215578063efa1c48214610231576100a9565b80630544ce5e146100ae5780630939ed34146100de578063117a5b90146100fa5780635c07a4b01461012d578063ad5c21d914610137575b600080fd5b6100c860048036038101906100c3919061189c565b61024f565b6040516100d5919061190a565b60405180910390f35b6100f860048036038101906100f39190611925565b61028e565b005b610114600480360381019061010f919061189c565b6106e8565b60405161012494939291906119a2565b60405180910390f35b610135610765565b005b610151600480360381019061014c9190611a13565b610a83565b60405161015e9190611afe565b60405180910390f35b61016f610b1d565b60405161017c9190611b20565b60405180910390f35b61019f600480360381019061019a9190611a13565b610b23565b6040516101ac9190611b20565b60405180910390f35b6101cf60048036038101906101ca919061189c565b610b3b565b6040516101dc9190611b3b565b60405180910390f35b6101ff60048036038101906101fa9190611a13565b610b5b565b60405161020c919061190a565b60405180910390f35b61022f600480360381019061022a9190611b56565b610b99565b005b610239611176565b6040516102469190611c54565b60405180910390f35b6007818154811061025f57600080fd5b906000526020600020016000915054906101000a900473ffffffffffffffffffffffffffffffffffffffff1681565b60006003600085815260200190815260200160002090508060030160009054906101000a900460ff166102f6576040517f08c379a00000000000000000000000000000000000000000000000000000000081526004016102ed90611cd3565b60405180910390fd5b3373ffffffffffffffffffffffffffffffffffffffff16600160009054906101000a900473ffffffffffffffffffffffffffffffffffffffff1673ffffffffffffffffffffffffffffffffffffffff16636352211e856040518263ffffffff1660e01b81526004016103689190611b20565b602060405180830381865afa158015610385573d6000803e3d6000fd5b505050506040513d601f19601f820116820180604052508101906103a99190611d08565b73ffffffffffffffffffffffffffffffffffffffff16146103ff576040517f08c379a00000000000000000000000000000000000000000000000000000000081526004016103f690611da7565b60405180910390fd5b6000600160009054906101000a900473ffffffffffffffffffffffffffffffffffffffff1673ffffffffffffffffffffffffffffffffffffffff1663d5aaa5b0856040518263ffffffff1660e01b815260040161045c9190611b20565b6040805180830381865afa158015610478573d6000803e3d6000fd5b505050506040513d601f19601f8201168201806040525081019061049c9190611ddc565b5090506000600160009054906101000a900473ffffffffffffffffffffffffffffffffffffffff1673ffffffffffffffffffffffffffffffffffffffff1663d5aaa5b0856040518263ffffffff1660e01b81526004016104fc9190611b20565b6040805180830381865afa158015610518573d6000803e3d6000fd5b505050506040513d601f19601f8201168201806040525081019061053c9190611ddc565b915050818111156105ec57600082826105559190611e4b565b9050600160009054906101000a900473ffffffffffffffffffffffffffffffffffffffff1673ffffffffffffffffffffffffffffffffffffffff16633e81872d86836040518363ffffffff1660e01b81526004016105b4929190611e7f565b600060405180830381600087803b1580156105ce57600080fd5b505af11580156105e2573d6000803e3d6000fd5b5050505050610619565b60006008600086815260200190815260200160002060006101000a81548160ff0219169083151502179055505b6106468360010160009054906101000a900473ffffffffffffffffffffffffffffffffffffffff16611204565b1561067e57610679868460000160009054906101000a900473ffffffffffffffffffffffffffffffffffffffff1661137f565b6106e0565b6106ab8360000160009054906101000a900473ffffffffffffffffffffffffffffffffffffffff16611204565b156106df576106de868460010160009054906101000a900473ffffffffffffffffffffffffffffffffffffffff1661137f565b5b5b505050505050565b60036020528060005260406000206000915090508060000160009054906101000a900473ffffffffffffffffffffffffffffffffffffffff16908060010160009054906101000a900473ffffffffffffffffffffffffffffffffffffffff16908060020154908060030160009054906101000a900460ff16905084565b6000600660003373ffffffffffffffffffffffffffffffffffffffff1673ffffffffffffffffffffffffffffffffffffffff1681526020019081526020016000209050338160000160006101000a81548173ffffffffffffffffffffffffffffffffffffffff021916908373ffffffffffffffffffffffffffffffffffffffff160217905550600073ffffffffffffffffffffffffffffffffffffffff16600660003373ffffffffffffffffffffffffffffffffffffffff1673ffffffffffffffffffffffffffffffffffffffff16815260200190815260200160002060000160009054906101000a900473ffffffffffffffffffffffffffffffffffffffff1673ffffffffffffffffffffffffffffffffffffffff16036108e5576007339080600181540180825580915050600190039060005260206000200160009091909190916101000a81548173ffffffffffffffffffffffffffffffffffffffff021916908373ffffffffffffffffffffffffffffffffffffffff1602179055505b60005b6005811015610a7f5760006108fb611599565b90506000610907611599565b90506000600160009054906101000a900473ffffffffffffffffffffffffffffffffffffffff1673ffffffffffffffffffffffffffffffffffffffff1663f7ee23dc84846040518363ffffffff1660e01b8152600401610968929190611f66565b6020604051808303816000875af1158015610987573d6000803e3d6000fd5b505050506040513d601f19601f820116820180604052508101906109ab9190611fb5565b9050600160009054906101000a900473ffffffffffffffffffffffffffffffffffffffff1673ffffffffffffffffffffffffffffffffffffffff166323b872dd3033846040518463ffffffff1660e01b8152600401610a0c93929190611fe2565b600060405180830381600087803b158015610a2657600080fd5b505af1158015610a3a573d6000803e3d6000fd5b50505050846001018190806001815401808255809150506001900390600052602060002001600090919091909150555050508080610a7790612019565b9150506108e8565b5050565b6060600660008373ffffffffffffffffffffffffffffffffffffffff1673ffffffffffffffffffffffffffffffffffffffff168152602001908152602001600020600101805480602002602001604051908101604052809291908181526020018280548015610b1157602002820191906000526020600020905b815481526020019060010190808311610afd575b50505050509050919050565b60045481565b60056020528060005260406000206000915090505481565b60086020528060005260406000206000915054906101000a900460ff1681565b60066020528060005260406000206000915090508060000160009054906101000a900473ffffffffffffffffffffffffffffffffffffffff16905081565b60005b610ba583610a83565b51811015610c0e57600160086000610bbc86610a83565b8481518110610bce57610bcd612061565b5b6020026020010151815260200190815260200160002060006101000a81548160ff0219169083151502179055508080610c0690612019565b915050610b9c565b5060005b610c1b82610a83565b51811015610c8457600160086000610c3285610a83565b8481518110610c4457610c43612061565b5b6020026020010151815260200190815260200160002060006101000a81548160ff0219169083151502179055508080610c7c90612019565b915050610c12565b50600068056bc75e2d6310000090508060008054906101000a900473ffffffffffffffffffffffffffffffffffffffff1673ffffffffffffffffffffffffffffffffffffffff166370a08231856040518263ffffffff1660e01b8152600401610ced919061190a565b602060405180830381865afa158015610d0a573d6000803e3d6000fd5b505050506040513d601f19601f82011682018060405250810190610d2e9190611fb5565b1015610d6f576040517f08c379a0000000000000000000000000000000000000000000000000000000008152600401610d6690612102565b60405180910390fd5b8060008054906101000a900473ffffffffffffffffffffffffffffffffffffffff1673ffffffffffffffffffffffffffffffffffffffff166370a08231846040518263ffffffff1660e01b8152600401610dc9919061190a565b602060405180830381865afa158015610de6573d6000803e3d6000fd5b505050506040513d601f19601f82011682018060405250810190610e0a9190611fb5565b1015610e4b576040517f08c379a0000000000000000000000000000000000000000000000000000000008152600401610e4290612194565b60405180910390fd5b60008054906101000a900473ffffffffffffffffffffffffffffffffffffffff1673ffffffffffffffffffffffffffffffffffffffff166323b872dd8430846040518463ffffffff1660e01b8152600401610ea893929190611fe2565b6020604051808303816000875af1158015610ec7573d6000803e3d6000fd5b505050506040513d601f19601f82011682018060405250810190610eeb91906121e0565b5060008054906101000a900473ffffffffffffffffffffffffffffffffffffffff1673ffffffffffffffffffffffffffffffffffffffff166323b872dd8330846040518463ffffffff1660e01b8152600401610f4993929190611fe2565b6020604051808303816000875af1158015610f68573d6000803e3d6000fd5b505050506040513d601f19601f82011682018060405250810190610f8c91906121e0565b5080600560008573ffffffffffffffffffffffffffffffffffffffff1673ffffffffffffffffffffffffffffffffffffffff1681526020019081526020016000206000828254610fdc919061220d565b9250508190555080600560008473ffffffffffffffffffffffffffffffffffffffff1673ffffffffffffffffffffffffffffffffffffffff1681526020019081526020016000206000828254611032919061220d565b9250508190555060405180608001604052808473ffffffffffffffffffffffffffffffffffffffff1681526020018373ffffffffffffffffffffffffffffffffffffffff1681526020018281526020016001151581525060036000600454815260200190815260200160002060008201518160000160006101000a81548173ffffffffffffffffffffffffffffffffffffffff021916908373ffffffffffffffffffffffffffffffffffffffff16021790555060208201518160010160006101000a81548173ffffffffffffffffffffffffffffffffffffffff021916908373ffffffffffffffffffffffffffffffffffffffff1602179055506040820151816002015560608201518160030160006101000a81548160ff0219169083151502179055509050506004600081548092919061116c90612019565b9190505550505050565b606060078054806020026020016040519081016040528092919081815260200182805480156111fa57602002820191906000526020600020905b8160009054906101000a900473ffffffffffffffffffffffffffffffffffffffff1673ffffffffffffffffffffffffffffffffffffffff16815260200190600101908083116111b0575b5050505050905090565b600080600660008473ffffffffffffffffffffffffffffffffffffffff1673ffffffffffffffffffffffffffffffffffffffff1681526020019081526020016000206040518060400160405290816000820160009054906101000a900473ffffffffffffffffffffffffffffffffffffffff1673ffffffffffffffffffffffffffffffffffffffff1673ffffffffffffffffffffffffffffffffffffffff168152602001600182018054806020026020016040519081016040528092919081815260200182805480156112f657602002820191906000526020600020905b8154815260200190600101908083116112e2575b505050505081525050905060005b81602001515181101561137357600860008360200151838151811061132c5761132b612061565b5b6020026020010151815260200190815260200160002060009054906101000a900460ff16156113605760009250505061137a565b808061136b90612019565b915050611304565b5060019150505b919050565b60006003600084815260200190815260200160002090506000600282600201546113a99190612241565b905060008054906101000a900473ffffffffffffffffffffffffffffffffffffffff1673ffffffffffffffffffffffffffffffffffffffff1663a9059cbb84836040518363ffffffff1660e01b8152600401611406929190612283565b6020604051808303816000875af1158015611425573d6000803e3d6000fd5b505050506040513d601f19601f8201168201806040525081019061144991906121e0565b506114778260000160009054906101000a900473ffffffffffffffffffffffffffffffffffffffff166115e6565b6114a48260010160009054906101000a900473ffffffffffffffffffffffffffffffffffffffff166115e6565b60008260030160006101000a81548160ff0219169083151502179055506000600560008460000160009054906101000a900473ffffffffffffffffffffffffffffffffffffffff1673ffffffffffffffffffffffffffffffffffffffff1673ffffffffffffffffffffffffffffffffffffffff168152602001908152602001600020819055506000600560008460010160009054906101000a900473ffffffffffffffffffffffffffffffffffffffff1673ffffffffffffffffffffffffffffffffffffffff1673ffffffffffffffffffffffffffffffffffffffff1681526020019081526020016000208190555050505050565b60006001600f4244336040516020016115b493929190612315565b6040516020818303038152906040528051906020012060001c6115d79190612381565b6115e1919061220d565b905090565b6000600660008373ffffffffffffffffffffffffffffffffffffffff1673ffffffffffffffffffffffffffffffffffffffff168152602001908152602001600020905060005b81600101805490508110156117d057600082600101828154811061165357611652612061565b5b906000526020600020015490508373ffffffffffffffffffffffffffffffffffffffff16600160009054906101000a900473ffffffffffffffffffffffffffffffffffffffff1673ffffffffffffffffffffffffffffffffffffffff16636352211e836040518263ffffffff1660e01b81526004016116d29190611b20565b602060405180830381865afa1580156116ef573d6000803e3d6000fd5b505050506040513d601f19601f820116820180604052508101906117139190611d08565b73ffffffffffffffffffffffffffffffffffffffff16036117bc57600160009054906101000a900473ffffffffffffffffffffffffffffffffffffffff1673ffffffffffffffffffffffffffffffffffffffff1663ba7e7d05826040518263ffffffff1660e01b81526004016117899190611b20565b600060405180830381600087803b1580156117a357600080fd5b505af11580156117b7573d6000803e3d6000fd5b505050505b5080806117c890612019565b91505061162c565b50600660008373ffffffffffffffffffffffffffffffffffffffff1673ffffffffffffffffffffffffffffffffffffffff168152602001908152602001600020600101600061181f9190611823565b5050565b50805460008255906000526020600020908101906118419190611844565b50565b5b8082111561185d576000816000905550600101611845565b5090565b600080fd5b6000819050919050565b61187981611866565b811461188457600080fd5b50565b60008135905061189681611870565b92915050565b6000602082840312156118b2576118b1611861565b5b60006118c084828501611887565b91505092915050565b600073ffffffffffffffffffffffffffffffffffffffff82169050919050565b60006118f4826118c9565b9050919050565b611904816118e9565b82525050565b600060208201905061191f60008301846118fb565b92915050565b60008060006060848603121561193e5761193d611861565b5b600061194c86828701611887565b935050602061195d86828701611887565b925050604061196e86828701611887565b9150509250925092565b61198181611866565b82525050565b60008115159050919050565b61199c81611987565b82525050565b60006080820190506119b760008301876118fb565b6119c460208301866118fb565b6119d16040830185611978565b6119de6060830184611993565b95945050505050565b6119f0816118e9565b81146119fb57600080fd5b50565b600081359050611a0d816119e7565b92915050565b600060208284031215611a2957611a28611861565b5b6000611a37848285016119fe565b91505092915050565b600081519050919050565b600082825260208201905092915050565b6000819050602082019050919050565b611a7581611866565b82525050565b6000611a878383611a6c565b60208301905092915050565b6000602082019050919050565b6000611aab82611a40565b611ab58185611a4b565b9350611ac083611a5c565b8060005b83811015611af1578151611ad88882611a7b565b9750611ae383611a93565b925050600181019050611ac4565b5085935050505092915050565b60006020820190508181036000830152611b188184611aa0565b905092915050565b6000602082019050611b356000830184611978565b92915050565b6000602082019050611b506000830184611993565b92915050565b60008060408385031215611b6d57611b6c611861565b5b6000611b7b858286016119fe565b9250506020611b8c858286016119fe565b9150509250929050565b600081519050919050565b600082825260208201905092915050565b6000819050602082019050919050565b611bcb816118e9565b82525050565b6000611bdd8383611bc2565b60208301905092915050565b6000602082019050919050565b6000611c0182611b96565b611c0b8185611ba1565b9350611c1683611bb2565b8060005b83811015611c47578151611c2e8882611bd1565b9750611c3983611be9565b925050600181019050611c1a565b5085935050505092915050565b60006020820190508181036000830152611c6e8184611bf6565b905092915050565b600082825260208201905092915050565b7f47616d65206973206e6f74206163746976650000000000000000000000000000600082015250565b6000611cbd601283611c76565b9150611cc882611c87565b602082019050919050565b60006020820190508181036000830152611cec81611cb0565b9050919050565b600081519050611d02816119e7565b92915050565b600060208284031215611d1e57611d1d611861565b5b6000611d2c84828501611cf3565b91505092915050565b7f4e6f7420746865206f776e6572206f66207468652061747461636b696e67206360008201527f6172640000000000000000000000000000000000000000000000000000000000602082015250565b6000611d91602383611c76565b9150611d9c82611d35565b604082019050919050565b60006020820190508181036000830152611dc081611d84565b9050919050565b600081519050611dd681611870565b92915050565b60008060408385031215611df357611df2611861565b5b6000611e0185828601611dc7565b9250506020611e1285828601611dc7565b9150509250929050565b7f4e487b7100000000000000000000000000000000000000000000000000000000600052601160045260246000fd5b6000611e5682611866565b9150611e6183611866565b9250828203905081811115611e7957611e78611e1c565b5b92915050565b6000604082019050611e946000830185611978565b611ea16020830184611978565b9392505050565b7f5374617274657220436172640000000000000000000000000000000000000000600082015250565b6000611ede600c83611c76565b9150611ee982611ea8565b602082019050919050565b7f5468697320697320612073746172746572206361726420666f72206e6577207060008201527f6c61796572730000000000000000000000000000000000000000000000000000602082015250565b6000611f50602683611c76565b9150611f5b82611ef4565b604082019050919050565b60006080820190508181036000830152611f7f81611ed1565b90508181036020830152611f9281611f43565b9050611fa16040830185611978565b611fae6060830184611978565b9392505050565b600060208284031215611fcb57611fca611861565b5b6000611fd984828501611dc7565b91505092915050565b6000606082019050611ff760008301866118fb565b61200460208301856118fb565b6120116040830184611978565b949350505050565b600061202482611866565b91507fffffffffffffffffffffffffffffffffffffffffffffffffffffffffffffffff820361205657612055611e1c565b5b600182019050919050565b7f4e487b7100000000000000000000000000000000000000000000000000000000600052603260045260246000fd5b7f506c6179657220312068617320696e73756666696369656e742062616c616e6360008201527f6500000000000000000000000000000000000000000000000000000000000000602082015250565b60006120ec602183611c76565b91506120f782612090565b604082019050919050565b6000602082019050818103600083015261211b816120df565b9050919050565b7f506c6179657220322068617320696e73756666696369656e742062616c616e6360008201527f6500000000000000000000000000000000000000000000000000000000000000602082015250565b600061217e602183611c76565b915061218982612122565b604082019050919050565b600060208201905081810360008301526121ad81612171565b9050919050565b6121bd81611987565b81146121c857600080fd5b50565b6000815190506121da816121b4565b92915050565b6000602082840312156121f6576121f5611861565b5b6000612204848285016121cb565b91505092915050565b600061221882611866565b915061222383611866565b925082820190508082111561223b5761223a611e1c565b5b92915050565b600061224c82611866565b915061225783611866565b925082820261226581611866565b9150828204841483151761227c5761227b611e1c565b5b5092915050565b600060408201905061229860008301856118fb565b6122a56020830184611978565b9392505050565b6000819050919050565b6122c76122c282611866565b6122ac565b82525050565b60008160601b9050919050565b60006122e5826122cd565b9050919050565b60006122f7826122da565b9050919050565b61230f61230a826118e9565b6122ec565b82525050565b600061232182866122b6565b60208201915061233182856122b6565b60208201915061234182846122fe565b601482019150819050949350505050565b7f4e487b7100000000000000000000000000000000000000000000000000000000600052601260045260246000fd5b600061238c82611866565b915061239783611866565b9250826123a7576123a6612352565b5b82820690509291505056fea26469706673582212204a189423eebf57705a50e391b3328e4877566389c600a7147d4a27092cfe265264736f6c63430008130033",
  "immutableReferences": {},
  "source": "// SPDX-License-Identifier: MIT\npragma solidity ^0.8.19;\n\nimport \"./ERC20SmartContract.sol\";\nimport \"./ERC721SmartContract.sol\";\nimport \"./ERC1155SmartContract.sol\";\n\ncontract PlayerRegistration {\n    GoldCoin private goldCoinContract;\n    UniqueCards private cardsContract;\n    GameItems private itemsContract;\n\n    // Define a structure to represent a game\n    struct Game {\n        address player1;\n        address player2;\n        uint256 betAmount;\n        bool isActive;\n    }\n\n    // Mapping to store ongoing games\n    mapping(uint256 => Game) public games;\n    uint256 public nextGameId;\n\n    // Mapping to store player bets\n    mapping(address => uint256) public playerBets;\n\n    constructor(\n        address _goldCoinAddress,\n        address _cardsAddress,\n        address _itemsAddress\n    ) {\n        goldCoinContract = GoldCoin(_goldCoinAddress);\n        cardsContract = UniqueCards(_cardsAddress);\n        itemsContract = GameItems(_itemsAddress);\n    }\n\n    function pseudoRandom() private view returns (uint) {\n        return\n            (uint(\n                keccak256(\n                    abi.encodePacked(\n                        block.timestamp,\n                        block.prevrandao,\n                        msg.sender\n                    )\n                )\n            ) % 15) + 1;\n    }\n\n    struct Player {\n        address playerAddress;\n        uint256[] cardIds; // Array of owned card IDs\n    }\n\n    mapping(address => Player) public players;\n\n    address[] public allPlayers;\n\n    function registerPlayer() public {\n        Player storage player = players[msg.sender];\n        player.playerAddress = msg.sender;\n\n        if (players[msg.sender].playerAddress == address(0)) {\n            allPlayers.push(msg.sender);\n        }\n\n        // Assign 5 unique cards to the player\n        for (uint256 i = 0; i < 5; i++) {\n            uint256 attack = pseudoRandom();\n            uint256 defense = pseudoRandom();\n            uint256 newCardId = cardsContract.createUniqueCard(\n                \"Starter Card\",\n                \"This is a starter card for new players\",\n                attack,\n                defense\n            );\n            cardsContract.transferFrom(address(this), msg.sender, newCardId);\n            player.cardIds.push(newCardId); // Add new card ID to the player's card list\n        }\n    }\n\n    // Function to get a player's card IDs\n    function getPlayerCards(\n        address playerAddress\n    ) public view returns (uint256[] memory) {\n        return players[playerAddress].cardIds;\n    }\n\n    function getAllPlayers() public view returns (address[] memory) {\n        return allPlayers;\n    }\n\n    function startGame(address player1, address player2) external {\n        // Mark all player cards as active\n        for (uint256 i = 0; i < getPlayerCards(player1).length; i++) {\n            activeCards[getPlayerCards(player1)[i]] = true;\n        }\n        for (uint256 i = 0; i < getPlayerCards(player2).length; i++) {\n            activeCards[getPlayerCards(player2)[i]] = true;\n        }\n        uint256 betAmount = 100 * 10 ** 18; // 100 GoldCoins\n\n        // Ensure both players have sufficient balance and have consented\n        require(\n            goldCoinContract.balanceOf(player1) >= betAmount,\n            \"Player 1 has insufficient balance\"\n        );\n        require(\n            goldCoinContract.balanceOf(player2) >= betAmount,\n            \"Player 2 has insufficient balance\"\n        );\n\n        // Transfer coins to the contract as a bet\n        goldCoinContract.transferFrom(player1, address(this), betAmount);\n        goldCoinContract.transferFrom(player2, address(this), betAmount);\n\n        // Record the bet for each player\n        playerBets[player1] += betAmount;\n        playerBets[player2] += betAmount;\n\n        // Create a new game instance\n        games[nextGameId] = Game({\n            player1: player1,\n            player2: player2,\n            betAmount: betAmount,\n            isActive: true\n        });\n\n        nextGameId++; // Increment the game ID for the next game\n    }\n\n    mapping(uint256 => bool) public activeCards;\n\n    function isPlayerDefeated(address player) private view returns (bool) {\n        Player memory playerData = players[player];\n        for (uint256 i = 0; i < playerData.cardIds.length; i++) {\n            if (activeCards[playerData.cardIds[i]]) {\n                return false; // Player still has active cards\n            }\n        }\n        return true; // All cards are defeated\n    }\n\n    function attackCard(\n        uint256 gameId,\n        uint256 attackerCardId,\n        uint256 defenderCardId\n    ) external {\n        Game storage game = games[gameId];\n        require(game.isActive, \"Game is not active\");\n\n        // Check if the player owns the attacking card\n        require(\n            cardsContract.ownerOf(attackerCardId) == msg.sender,\n            \"Not the owner of the attacking card\"\n        );\n\n        // Fetch card details\n        (uint256 attackerAttack, ) = cardsContract.getCardAttributes(\n            attackerCardId\n        );\n        (, uint256 defenderDefense) = cardsContract.getCardAttributes(\n            defenderCardId\n        );\n\n        // Apply attack logic\n        if (defenderDefense > attackerAttack) {\n            uint256 newDefense = defenderDefense - attackerAttack;\n            cardsContract.updateCardDefense(defenderCardId, newDefense);\n        } else {\n            // Card is defeated, mark it as inactive\n            activeCards[defenderCardId] = false;\n        }\n\n        // Check if either player has been defeated\n        if (isPlayerDefeated(game.player2)) {\n            endGame(gameId, game.player1); // Player 1 wins\n        } else if (isPlayerDefeated(game.player1)) {\n            endGame(gameId, game.player2); // Player 2 wins\n        }\n    }\n\n    function endGame(uint256 gameId, address winner) private {\n        Game storage game = games[gameId];\n        uint256 totalBet = game.betAmount * 2;\n        goldCoinContract.transfer(winner, totalBet); // Award the winner\n\n        // Burn cards for both players\n        burnPlayerCards(game.player1);\n        burnPlayerCards(game.player2);\n\n        // Reset game state\n        game.isActive = false;\n        playerBets[game.player1] = 0;\n        playerBets[game.player2] = 0;\n\n        // Other cleanup operations\n    }\n\n    function burnPlayerCards(address player) private {\n        Player storage playerData = players[player];\n        for (uint256 i = 0; i < playerData.cardIds.length; i++) {\n            uint256 cardId = playerData.cardIds[i];\n            if (cardsContract.ownerOf(cardId) == player) {\n                cardsContract.burnCard(cardId);\n            }\n        }\n        delete players[player].cardIds; // Clear the player's card array\n    }\n}\n",
  "sourcePath": "/Users/ibrahimallahbuksh/BlockchainProject/contracts/StartGame.sol",
  "compiler": {
    "name": "solc",
    "version": "0.8.19+commit.7dd6d404.Emscripten.clang"
  },
  "schemaVersion": "3.4.16",
  "updatedAt": "2023-11-19T20:35:45.298Z",
  "networkType": "ethereum",
  "devdoc": {
    "kind": "dev",
    "methods": {},
    "version": 1
  },
  "userdoc": {
    "kind": "user",
    "methods": {},
    "version": 1
  }
}