{
  "contractName": "PlayerRegistration",
  "abi": [
    {
      "inputs": [
        {
          "internalType": "address",
          "name": "_goldCoinAddress",
          "type": "address"
        },
        {
          "internalType": "address",
          "name": "_cardsAddress",
          "type": "address"
        },
        {
          "internalType": "address",
          "name": "_itemsAddress",
          "type": "address"
        }
      ],
      "stateMutability": "nonpayable",
      "type": "constructor"
    },
    {
      "anonymous": false,
      "inputs": [
        {
          "indexed": false,
          "internalType": "uint256",
          "name": "gameId",
          "type": "uint256"
        },
        {
          "indexed": false,
          "internalType": "uint256",
          "name": "attackerCardId",
          "type": "uint256"
        },
        {
          "indexed": false,
          "internalType": "uint256",
          "name": "defenderCardId",
          "type": "uint256"
        },
        {
          "indexed": false,
          "internalType": "bool",
          "name": "defenderDefeated",
          "type": "bool"
        }
      ],
      "name": "CardAttack",
      "type": "event"
    },
    {
      "anonymous": false,
      "inputs": [
        {
          "indexed": false,
          "internalType": "uint256",
          "name": "gameId",
          "type": "uint256"
        },
        {
          "indexed": false,
          "internalType": "address",
          "name": "winner",
          "type": "address"
        }
      ],
      "name": "GameEnded",
      "type": "event"
    },
    {
      "anonymous": false,
      "inputs": [
        {
          "indexed": false,
          "internalType": "uint256",
          "name": "gameId",
          "type": "uint256"
        },
        {
          "indexed": false,
          "internalType": "address",
          "name": "player1",
          "type": "address"
        },
        {
          "indexed": false,
          "internalType": "address",
          "name": "player2",
          "type": "address"
        },
        {
          "indexed": false,
          "internalType": "uint256",
          "name": "betAmount",
          "type": "uint256"
        }
      ],
      "name": "GameStarted",
      "type": "event"
    },
    {
      "anonymous": false,
      "inputs": [
        {
          "indexed": false,
          "internalType": "address",
          "name": "player",
          "type": "address"
        }
      ],
      "name": "PlayerRegistered",
      "type": "event"
    },
    {
      "inputs": [
        {
          "internalType": "uint256",
          "name": "",
          "type": "uint256"
        }
      ],
      "name": "activeCards",
      "outputs": [
        {
          "internalType": "bool",
          "name": "",
          "type": "bool"
        }
      ],
      "stateMutability": "view",
      "type": "function",
      "constant": true
    },
    {
      "inputs": [
        {
          "internalType": "uint256",
          "name": "",
          "type": "uint256"
        }
      ],
      "name": "allPlayers",
      "outputs": [
        {
          "internalType": "address",
          "name": "",
          "type": "address"
        }
      ],
      "stateMutability": "view",
      "type": "function",
      "constant": true
    },
    {
      "inputs": [
        {
          "internalType": "uint256",
          "name": "",
          "type": "uint256"
        }
      ],
      "name": "games",
      "outputs": [
        {
          "internalType": "address",
          "name": "player1",
          "type": "address"
        },
        {
          "internalType": "address",
          "name": "player2",
          "type": "address"
        },
        {
          "internalType": "uint256",
          "name": "betAmount",
          "type": "uint256"
        },
        {
          "internalType": "bool",
          "name": "isActive",
          "type": "bool"
        }
      ],
      "stateMutability": "view",
      "type": "function",
      "constant": true
    },
    {
      "inputs": [],
      "name": "nextGameId",
      "outputs": [
        {
          "internalType": "uint256",
          "name": "",
          "type": "uint256"
        }
      ],
      "stateMutability": "view",
      "type": "function",
      "constant": true
    },
    {
      "inputs": [
        {
          "internalType": "address",
          "name": "",
          "type": "address"
        }
      ],
      "name": "playerBets",
      "outputs": [
        {
          "internalType": "uint256",
          "name": "",
          "type": "uint256"
        }
      ],
      "stateMutability": "view",
      "type": "function",
      "constant": true
    },
    {
      "inputs": [
        {
          "internalType": "address",
          "name": "",
          "type": "address"
        }
      ],
      "name": "players",
      "outputs": [
        {
          "internalType": "address",
          "name": "playerAddress",
          "type": "address"
        }
      ],
      "stateMutability": "view",
      "type": "function",
      "constant": true
    },
    {
      "inputs": [],
      "name": "registerPlayer",
      "outputs": [],
      "stateMutability": "nonpayable",
      "type": "function"
    },
    {
      "inputs": [
        {
          "internalType": "address",
          "name": "playerAddress",
          "type": "address"
        }
      ],
      "name": "getPlayerCards",
      "outputs": [
        {
          "internalType": "uint256[]",
          "name": "",
          "type": "uint256[]"
        }
      ],
      "stateMutability": "view",
      "type": "function",
      "constant": true
    },
    {
      "inputs": [],
      "name": "getAllPlayers",
      "outputs": [
        {
          "internalType": "address[]",
          "name": "",
          "type": "address[]"
        }
      ],
      "stateMutability": "view",
      "type": "function",
      "constant": true
    },
    {
      "inputs": [
        {
          "internalType": "address",
          "name": "player1",
          "type": "address"
        },
        {
          "internalType": "address",
          "name": "player2",
          "type": "address"
        }
      ],
      "name": "startGame",
      "outputs": [],
      "stateMutability": "nonpayable",
      "type": "function"
    },
    {
      "inputs": [
        {
          "internalType": "uint256",
          "name": "gameId",
          "type": "uint256"
        },
        {
          "internalType": "uint256",
          "name": "attackerCardId",
          "type": "uint256"
        },
        {
          "internalType": "uint256",
          "name": "defenderCardId",
          "type": "uint256"
        }
      ],
      "name": "attackCard",
      "outputs": [],
      "stateMutability": "nonpayable",
      "type": "function"
    }
  ],
  "bytecode": "0x60806040523480156200001157600080fd5b50604051620027863803806200278683398181016040528101906200003791906200016c565b826000806101000a81548173ffffffffffffffffffffffffffffffffffffffff021916908373ffffffffffffffffffffffffffffffffffffffff16021790555081600160006101000a81548173ffffffffffffffffffffffffffffffffffffffff021916908373ffffffffffffffffffffffffffffffffffffffff16021790555080600260006101000a81548173ffffffffffffffffffffffffffffffffffffffff021916908373ffffffffffffffffffffffffffffffffffffffff160217905550505050620001c8565b600080fd5b600073ffffffffffffffffffffffffffffffffffffffff82169050919050565b6000620001348262000107565b9050919050565b620001468162000127565b81146200015257600080fd5b50565b60008151905062000166816200013b565b92915050565b60008060006060848603121562000188576200018762000102565b5b6000620001988682870162000155565b9350506020620001ab8682870162000155565b9250506040620001be8682870162000155565b9150509250925092565b6125ae80620001d86000396000f3fe608060405234801561001057600080fd5b50600436106100a95760003560e01c8063b135bbb011610071578063b135bbb014610167578063c7aa327b14610185578063c9da8713146101b5578063e2eb41ff146101e5578063eb23b56b14610215578063efa1c48214610231576100a9565b80630544ce5e146100ae5780630939ed34146100de578063117a5b90146100fa5780635c07a4b01461012d578063ad5c21d914610137575b600080fd5b6100c860048036038101906100c391906119af565b61024f565b6040516100d59190611a1d565b60405180910390f35b6100f860048036038101906100f39190611a38565b61028e565b005b610114600480360381019061010f91906119af565b61074c565b6040516101249493929190611ab5565b60405180910390f35b6101356107c9565b005b610151600480360381019061014c9190611b26565b610b1e565b60405161015e9190611c11565b60405180910390f35b61016f610bb8565b60405161017c9190611c33565b60405180910390f35b61019f600480360381019061019a9190611b26565b610bbe565b6040516101ac9190611c33565b60405180910390f35b6101cf60048036038101906101ca91906119af565b610bd6565b6040516101dc9190611c4e565b60405180910390f35b6101ff60048036038101906101fa9190611b26565b610bf6565b60405161020c9190611a1d565b60405180910390f35b61022f600480360381019061022a9190611c69565b610c34565b005b610239611250565b6040516102469190611d67565b60405180910390f35b6007818154811061025f57600080fd5b906000526020600020016000915054906101000a900473ffffffffffffffffffffffffffffffffffffffff1681565b60006003600085815260200190815260200160002090508060030160009054906101000a900460ff166102f6576040517f08c379a00000000000000000000000000000000000000000000000000000000081526004016102ed90611de6565b60405180910390fd5b3373ffffffffffffffffffffffffffffffffffffffff16600160009054906101000a900473ffffffffffffffffffffffffffffffffffffffff1673ffffffffffffffffffffffffffffffffffffffff16636352211e856040518263ffffffff1660e01b81526004016103689190611c33565b602060405180830381865afa158015610385573d6000803e3d6000fd5b505050506040513d601f19601f820116820180604052508101906103a99190611e1b565b73ffffffffffffffffffffffffffffffffffffffff16146103ff576040517f08c379a00000000000000000000000000000000000000000000000000000000081526004016103f690611eba565b60405180910390fd5b6000600160009054906101000a900473ffffffffffffffffffffffffffffffffffffffff1673ffffffffffffffffffffffffffffffffffffffff1663d5aaa5b0856040518263ffffffff1660e01b815260040161045c9190611c33565b6040805180830381865afa158015610478573d6000803e3d6000fd5b505050506040513d601f19601f8201168201806040525081019061049c9190611eef565b5090506000600160009054906101000a900473ffffffffffffffffffffffffffffffffffffffff1673ffffffffffffffffffffffffffffffffffffffff1663d5aaa5b0856040518263ffffffff1660e01b81526004016104fc9190611c33565b6040805180830381865afa158015610518573d6000803e3d6000fd5b505050506040513d601f19601f8201168201806040525081019061053c9190611eef565b915050818111156105ec57600082826105559190611f5e565b9050600160009054906101000a900473ffffffffffffffffffffffffffffffffffffffff1673ffffffffffffffffffffffffffffffffffffffff16633e81872d86836040518363ffffffff1660e01b81526004016105b4929190611f92565b600060405180830381600087803b1580156105ce57600080fd5b505af11580156105e2573d6000803e3d6000fd5b5050505050610619565b60006008600086815260200190815260200160002060006101000a81548160ff0219169083151502179055505b60006008600086815260200190815260200160002060009054906101000a900460ff161590507f8fe141642c76534da64a37f2bd41ebbae8b600ee2601c789b248c2550d4c7ca9878787846040516106749493929190611fbb565b60405180910390a16106a98460010160009054906101000a900473ffffffffffffffffffffffffffffffffffffffff166112de565b156106e1576106dc878560000160009054906101000a900473ffffffffffffffffffffffffffffffffffffffff16611459565b610743565b61070e8460000160009054906101000a900473ffffffffffffffffffffffffffffffffffffffff166112de565b1561074257610741878560010160009054906101000a900473ffffffffffffffffffffffffffffffffffffffff16611459565b5b5b50505050505050565b60036020528060005260406000206000915090508060000160009054906101000a900473ffffffffffffffffffffffffffffffffffffffff16908060010160009054906101000a900473ffffffffffffffffffffffffffffffffffffffff16908060020154908060030160009054906101000a900460ff16905084565b6000600660003373ffffffffffffffffffffffffffffffffffffffff1673ffffffffffffffffffffffffffffffffffffffff1681526020019081526020016000209050338160000160006101000a81548173ffffffffffffffffffffffffffffffffffffffff021916908373ffffffffffffffffffffffffffffffffffffffff160217905550600073ffffffffffffffffffffffffffffffffffffffff16600660003373ffffffffffffffffffffffffffffffffffffffff1673ffffffffffffffffffffffffffffffffffffffff16815260200190815260200160002060000160009054906101000a900473ffffffffffffffffffffffffffffffffffffffff1673ffffffffffffffffffffffffffffffffffffffff1603610949576007339080600181540180825580915050600190039060005260206000200160009091909190916101000a81548173ffffffffffffffffffffffffffffffffffffffff021916908373ffffffffffffffffffffffffffffffffffffffff1602179055505b60005b6005811015610ae357600061095f6116ac565b9050600061096b6116ac565b90506000600160009054906101000a900473ffffffffffffffffffffffffffffffffffffffff1673ffffffffffffffffffffffffffffffffffffffff1663f7ee23dc84846040518363ffffffff1660e01b81526004016109cc9291906120be565b6020604051808303816000875af11580156109eb573d6000803e3d6000fd5b505050506040513d601f19601f82011682018060405250810190610a0f919061210d565b9050600160009054906101000a900473ffffffffffffffffffffffffffffffffffffffff1673ffffffffffffffffffffffffffffffffffffffff166323b872dd3033846040518463ffffffff1660e01b8152600401610a709392919061213a565b600060405180830381600087803b158015610a8a57600080fd5b505af1158015610a9e573d6000803e3d6000fd5b50505050846001018190806001815401808255809150506001900390600052602060002001600090919091909150555050508080610adb90612171565b91505061094c565b507f8cd3331e32cec677d80b82cf0f71496605e7ed6ff864a3ccedc7d5d11d838c8333604051610b139190611a1d565b60405180910390a150565b6060600660008373ffffffffffffffffffffffffffffffffffffffff1673ffffffffffffffffffffffffffffffffffffffff168152602001908152602001600020600101805480602002602001604051908101604052809291908181526020018280548015610bac57602002820191906000526020600020905b815481526020019060010190808311610b98575b50505050509050919050565b60045481565b60056020528060005260406000206000915090505481565b60086020528060005260406000206000915054906101000a900460ff1681565b60066020528060005260406000206000915090508060000160009054906101000a900473ffffffffffffffffffffffffffffffffffffffff16905081565b60005b610c4083610b1e565b51811015610ca957600160086000610c5786610b1e565b8481518110610c6957610c686121b9565b5b6020026020010151815260200190815260200160002060006101000a81548160ff0219169083151502179055508080610ca190612171565b915050610c37565b5060005b610cb682610b1e565b51811015610d1f57600160086000610ccd85610b1e565b8481518110610cdf57610cde6121b9565b5b6020026020010151815260200190815260200160002060006101000a81548160ff0219169083151502179055508080610d1790612171565b915050610cad565b50600068056bc75e2d6310000090508060008054906101000a900473ffffffffffffffffffffffffffffffffffffffff1673ffffffffffffffffffffffffffffffffffffffff166370a08231856040518263ffffffff1660e01b8152600401610d889190611a1d565b602060405180830381865afa158015610da5573d6000803e3d6000fd5b505050506040513d601f19601f82011682018060405250810190610dc9919061210d565b1015610e0a576040517f08c379a0000000000000000000000000000000000000000000000000000000008152600401610e019061225a565b60405180910390fd5b8060008054906101000a900473ffffffffffffffffffffffffffffffffffffffff1673ffffffffffffffffffffffffffffffffffffffff166370a08231846040518263ffffffff1660e01b8152600401610e649190611a1d565b602060405180830381865afa158015610e81573d6000803e3d6000fd5b505050506040513d601f19601f82011682018060405250810190610ea5919061210d565b1015610ee6576040517f08c379a0000000000000000000000000000000000000000000000000000000008152600401610edd906122ec565b60405180910390fd5b60008054906101000a900473ffffffffffffffffffffffffffffffffffffffff1673ffffffffffffffffffffffffffffffffffffffff166323b872dd8430846040518463ffffffff1660e01b8152600401610f439392919061213a565b6020604051808303816000875af1158015610f62573d6000803e3d6000fd5b505050506040513d601f19601f82011682018060405250810190610f869190612338565b5060008054906101000a900473ffffffffffffffffffffffffffffffffffffffff1673ffffffffffffffffffffffffffffffffffffffff166323b872dd8330846040518463ffffffff1660e01b8152600401610fe49392919061213a565b6020604051808303816000875af1158015611003573d6000803e3d6000fd5b505050506040513d601f19601f820116820180604052508101906110279190612338565b5080600560008573ffffffffffffffffffffffffffffffffffffffff1673ffffffffffffffffffffffffffffffffffffffff16815260200190815260200160002060008282546110779190612365565b9250508190555080600560008473ffffffffffffffffffffffffffffffffffffffff1673ffffffffffffffffffffffffffffffffffffffff16815260200190815260200160002060008282546110cd9190612365565b9250508190555060405180608001604052808473ffffffffffffffffffffffffffffffffffffffff1681526020018373ffffffffffffffffffffffffffffffffffffffff1681526020018281526020016001151581525060036000600454815260200190815260200160002060008201518160000160006101000a81548173ffffffffffffffffffffffffffffffffffffffff021916908373ffffffffffffffffffffffffffffffffffffffff16021790555060208201518160010160006101000a81548173ffffffffffffffffffffffffffffffffffffffff021916908373ffffffffffffffffffffffffffffffffffffffff1602179055506040820151816002015560608201518160030160006101000a81548160ff0219169083151502179055509050506004600081548092919061120790612171565b91905055507f8e9434a1dd433fabbc1e2c2c4ac88cf8a8cd87237bdcedc535cb522716f55b416004548484846040516112439493929190612399565b60405180910390a1505050565b606060078054806020026020016040519081016040528092919081815260200182805480156112d457602002820191906000526020600020905b8160009054906101000a900473ffffffffffffffffffffffffffffffffffffffff1673ffffffffffffffffffffffffffffffffffffffff168152602001906001019080831161128a575b5050505050905090565b600080600660008473ffffffffffffffffffffffffffffffffffffffff1673ffffffffffffffffffffffffffffffffffffffff1681526020019081526020016000206040518060400160405290816000820160009054906101000a900473ffffffffffffffffffffffffffffffffffffffff1673ffffffffffffffffffffffffffffffffffffffff1673ffffffffffffffffffffffffffffffffffffffff168152602001600182018054806020026020016040519081016040528092919081815260200182805480156113d057602002820191906000526020600020905b8154815260200190600101908083116113bc575b505050505081525050905060005b81602001515181101561144d576008600083602001518381518110611406576114056121b9565b5b6020026020010151815260200190815260200160002060009054906101000a900460ff161561143a57600092505050611454565b808061144590612171565b9150506113de565b5060019150505b919050565b600060036000848152602001908152602001600020905060006002826002015461148391906123de565b905060008054906101000a900473ffffffffffffffffffffffffffffffffffffffff1673ffffffffffffffffffffffffffffffffffffffff1663a9059cbb84836040518363ffffffff1660e01b81526004016114e0929190612420565b6020604051808303816000875af11580156114ff573d6000803e3d6000fd5b505050506040513d601f19601f820116820180604052508101906115239190612338565b506115518260000160009054906101000a900473ffffffffffffffffffffffffffffffffffffffff166116f9565b61157e8260010160009054906101000a900473ffffffffffffffffffffffffffffffffffffffff166116f9565b60008260030160006101000a81548160ff0219169083151502179055506000600560008460000160009054906101000a900473ffffffffffffffffffffffffffffffffffffffff1673ffffffffffffffffffffffffffffffffffffffff1673ffffffffffffffffffffffffffffffffffffffff168152602001908152602001600020819055506000600560008460010160009054906101000a900473ffffffffffffffffffffffffffffffffffffffff1673ffffffffffffffffffffffffffffffffffffffff1673ffffffffffffffffffffffffffffffffffffffff168152602001908152602001600020819055507f3d5fcd8fa3235aeb3897f25c8ea49989174981afcb01b9d03189d1056a16775b848460405161169e929190612449565b60405180910390a150505050565b60006001600f4244336040516020016116c7939291906124db565b6040516020818303038152906040528051906020012060001c6116ea9190612547565b6116f49190612365565b905090565b6000600660008373ffffffffffffffffffffffffffffffffffffffff1673ffffffffffffffffffffffffffffffffffffffff168152602001908152602001600020905060005b81600101805490508110156118e3576000826001018281548110611766576117656121b9565b5b906000526020600020015490508373ffffffffffffffffffffffffffffffffffffffff16600160009054906101000a900473ffffffffffffffffffffffffffffffffffffffff1673ffffffffffffffffffffffffffffffffffffffff16636352211e836040518263ffffffff1660e01b81526004016117e59190611c33565b602060405180830381865afa158015611802573d6000803e3d6000fd5b505050506040513d601f19601f820116820180604052508101906118269190611e1b565b73ffffffffffffffffffffffffffffffffffffffff16036118cf57600160009054906101000a900473ffffffffffffffffffffffffffffffffffffffff1673ffffffffffffffffffffffffffffffffffffffff1663ba7e7d05826040518263ffffffff1660e01b815260040161189c9190611c33565b600060405180830381600087803b1580156118b657600080fd5b505af11580156118ca573d6000803e3d6000fd5b505050505b5080806118db90612171565b91505061173f565b50600660008373ffffffffffffffffffffffffffffffffffffffff1673ffffffffffffffffffffffffffffffffffffffff16815260200190815260200160002060010160006119329190611936565b5050565b50805460008255906000526020600020908101906119549190611957565b50565b5b80821115611970576000816000905550600101611958565b5090565b600080fd5b6000819050919050565b61198c81611979565b811461199757600080fd5b50565b6000813590506119a981611983565b92915050565b6000602082840312156119c5576119c4611974565b5b60006119d38482850161199a565b91505092915050565b600073ffffffffffffffffffffffffffffffffffffffff82169050919050565b6000611a07826119dc565b9050919050565b611a17816119fc565b82525050565b6000602082019050611a326000830184611a0e565b92915050565b600080600060608486031215611a5157611a50611974565b5b6000611a5f8682870161199a565b9350506020611a708682870161199a565b9250506040611a818682870161199a565b9150509250925092565b611a9481611979565b82525050565b60008115159050919050565b611aaf81611a9a565b82525050565b6000608082019050611aca6000830187611a0e565b611ad76020830186611a0e565b611ae46040830185611a8b565b611af16060830184611aa6565b95945050505050565b611b03816119fc565b8114611b0e57600080fd5b50565b600081359050611b2081611afa565b92915050565b600060208284031215611b3c57611b3b611974565b5b6000611b4a84828501611b11565b91505092915050565b600081519050919050565b600082825260208201905092915050565b6000819050602082019050919050565b611b8881611979565b82525050565b6000611b9a8383611b7f565b60208301905092915050565b6000602082019050919050565b6000611bbe82611b53565b611bc88185611b5e565b9350611bd383611b6f565b8060005b83811015611c04578151611beb8882611b8e565b9750611bf683611ba6565b925050600181019050611bd7565b5085935050505092915050565b60006020820190508181036000830152611c2b8184611bb3565b905092915050565b6000602082019050611c486000830184611a8b565b92915050565b6000602082019050611c636000830184611aa6565b92915050565b60008060408385031215611c8057611c7f611974565b5b6000611c8e85828601611b11565b9250506020611c9f85828601611b11565b9150509250929050565b600081519050919050565b600082825260208201905092915050565b6000819050602082019050919050565b611cde816119fc565b82525050565b6000611cf08383611cd5565b60208301905092915050565b6000602082019050919050565b6000611d1482611ca9565b611d1e8185611cb4565b9350611d2983611cc5565b8060005b83811015611d5a578151611d418882611ce4565b9750611d4c83611cfc565b925050600181019050611d2d565b5085935050505092915050565b60006020820190508181036000830152611d818184611d09565b905092915050565b600082825260208201905092915050565b7f47616d65206973206e6f74206163746976650000000000000000000000000000600082015250565b6000611dd0601283611d89565b9150611ddb82611d9a565b602082019050919050565b60006020820190508181036000830152611dff81611dc3565b9050919050565b600081519050611e1581611afa565b92915050565b600060208284031215611e3157611e30611974565b5b6000611e3f84828501611e06565b91505092915050565b7f4e6f7420746865206f776e6572206f66207468652061747461636b696e67206360008201527f6172640000000000000000000000000000000000000000000000000000000000602082015250565b6000611ea4602383611d89565b9150611eaf82611e48565b604082019050919050565b60006020820190508181036000830152611ed381611e97565b9050919050565b600081519050611ee981611983565b92915050565b60008060408385031215611f0657611f05611974565b5b6000611f1485828601611eda565b9250506020611f2585828601611eda565b9150509250929050565b7f4e487b7100000000000000000000000000000000000000000000000000000000600052601160045260246000fd5b6000611f6982611979565b9150611f7483611979565b9250828203905081811115611f8c57611f8b611f2f565b5b92915050565b6000604082019050611fa76000830185611a8b565b611fb46020830184611a8b565b9392505050565b6000608082019050611fd06000830187611a8b565b611fdd6020830186611a8b565b611fea6040830185611a8b565b611ff76060830184611aa6565b95945050505050565b7f5374617274657220436172640000000000000000000000000000000000000000600082015250565b6000612036600c83611d89565b915061204182612000565b602082019050919050565b7f5468697320697320612073746172746572206361726420666f72206e6577207060008201527f6c61796572730000000000000000000000000000000000000000000000000000602082015250565b60006120a8602683611d89565b91506120b38261204c565b604082019050919050565b600060808201905081810360008301526120d781612029565b905081810360208301526120ea8161209b565b90506120f96040830185611a8b565b6121066060830184611a8b565b9392505050565b60006020828403121561212357612122611974565b5b600061213184828501611eda565b91505092915050565b600060608201905061214f6000830186611a0e565b61215c6020830185611a0e565b6121696040830184611a8b565b949350505050565b600061217c82611979565b91507fffffffffffffffffffffffffffffffffffffffffffffffffffffffffffffffff82036121ae576121ad611f2f565b5b600182019050919050565b7f4e487b7100000000000000000000000000000000000000000000000000000000600052603260045260246000fd5b7f506c6179657220312068617320696e73756666696369656e742062616c616e6360008201527f6500000000000000000000000000000000000000000000000000000000000000602082015250565b6000612244602183611d89565b915061224f826121e8565b604082019050919050565b6000602082019050818103600083015261227381612237565b9050919050565b7f506c6179657220322068617320696e73756666696369656e742062616c616e6360008201527f6500000000000000000000000000000000000000000000000000000000000000602082015250565b60006122d6602183611d89565b91506122e18261227a565b604082019050919050565b60006020820190508181036000830152612305816122c9565b9050919050565b61231581611a9a565b811461232057600080fd5b50565b6000815190506123328161230c565b92915050565b60006020828403121561234e5761234d611974565b5b600061235c84828501612323565b91505092915050565b600061237082611979565b915061237b83611979565b925082820190508082111561239357612392611f2f565b5b92915050565b60006080820190506123ae6000830187611a8b565b6123bb6020830186611a0e565b6123c86040830185611a0e565b6123d56060830184611a8b565b95945050505050565b60006123e982611979565b91506123f483611979565b925082820261240281611979565b9150828204841483151761241957612418611f2f565b5b5092915050565b60006040820190506124356000830185611a0e565b6124426020830184611a8b565b9392505050565b600060408201905061245e6000830185611a8b565b61246b6020830184611a0e565b9392505050565b6000819050919050565b61248d61248882611979565b612472565b82525050565b60008160601b9050919050565b60006124ab82612493565b9050919050565b60006124bd826124a0565b9050919050565b6124d56124d0826119fc565b6124b2565b82525050565b60006124e7828661247c565b6020820191506124f7828561247c565b60208201915061250782846124c4565b601482019150819050949350505050565b7f4e487b7100000000000000000000000000000000000000000000000000000000600052601260045260246000fd5b600061255282611979565b915061255d83611979565b92508261256d5761256c612518565b5b82820690509291505056fea2646970667358221220b65c35279d730049c717b228dd849486aeb0f824fec4b05c8778401fac9aa8ed64736f6c63430008130033",
  "immutableReferences": {},
  "source": "// SPDX-License-Identifier: MIT\npragma solidity ^0.8.19;\n\nimport \"./ERC20SmartContract.sol\";\nimport \"./ERC721SmartContract.sol\";\nimport \"./ERC1155SmartContract.sol\";\n\ncontract PlayerRegistration {\n    GoldCoin private goldCoinContract;\n    UniqueCards private cardsContract;\n    GameItems private itemsContract;\n\n    // Define a structure to represent a game\n    struct Game {\n        address player1;\n        address player2;\n        uint256 betAmount;\n        bool isActive;\n    }\n\n    // Mapping to store ongoing games\n    mapping(uint256 => Game) public games;\n    uint256 public nextGameId;\n\n    // Mapping to store player bets\n    mapping(address => uint256) public playerBets;\n\n    constructor(\n        address _goldCoinAddress,\n        address _cardsAddress,\n        address _itemsAddress\n    ) {\n        goldCoinContract = GoldCoin(_goldCoinAddress);\n        cardsContract = UniqueCards(_cardsAddress);\n        itemsContract = GameItems(_itemsAddress);\n    }\n\n    event PlayerRegistered(address player);\n    event GameStarted(\n        uint256 gameId,\n        address player1,\n        address player2,\n        uint256 betAmount\n    );\n    event CardAttack(\n        uint256 gameId,\n        uint256 attackerCardId,\n        uint256 defenderCardId,\n        bool defenderDefeated\n    );\n    event GameEnded(uint256 gameId, address winner);\n\n    function pseudoRandom() private view returns (uint) {\n        return\n            (uint(\n                keccak256(\n                    abi.encodePacked(\n                        block.timestamp,\n                        block.prevrandao,\n                        msg.sender\n                    )\n                )\n            ) % 15) + 1;\n    }\n\n    struct Player {\n        address playerAddress;\n        uint256[] cardIds; // Array of owned card IDs\n    }\n\n    mapping(address => Player) public players;\n\n    address[] public allPlayers;\n\n    function registerPlayer() public {\n        Player storage player = players[msg.sender];\n        player.playerAddress = msg.sender;\n\n        if (players[msg.sender].playerAddress == address(0)) {\n            allPlayers.push(msg.sender);\n        }\n\n        // Assign 5 unique cards to the player\n        for (uint256 i = 0; i < 5; i++) {\n            uint256 attack = pseudoRandom();\n            uint256 defense = pseudoRandom();\n            uint256 newCardId = cardsContract.createUniqueCard(\n                \"Starter Card\",\n                \"This is a starter card for new players\",\n                attack,\n                defense\n            );\n            cardsContract.transferFrom(address(this), msg.sender, newCardId);\n            player.cardIds.push(newCardId); // Add new card ID to the player's card list\n        }\n        emit PlayerRegistered(msg.sender);\n    }\n\n    // Function to get a player's card IDs\n    function getPlayerCards(\n        address playerAddress\n    ) public view returns (uint256[] memory) {\n        return players[playerAddress].cardIds;\n    }\n\n    function getAllPlayers() public view returns (address[] memory) {\n        return allPlayers;\n    }\n\n    function startGame(address player1, address player2) external {\n        // Mark all player cards as active\n        for (uint256 i = 0; i < getPlayerCards(player1).length; i++) {\n            activeCards[getPlayerCards(player1)[i]] = true;\n        }\n        for (uint256 i = 0; i < getPlayerCards(player2).length; i++) {\n            activeCards[getPlayerCards(player2)[i]] = true;\n        }\n        uint256 betAmount = 100 * 10 ** 18; // 100 GoldCoins\n\n        // Ensure both players have sufficient balance and have consented\n        require(\n            goldCoinContract.balanceOf(player1) >= betAmount,\n            \"Player 1 has insufficient balance\"\n        );\n        require(\n            goldCoinContract.balanceOf(player2) >= betAmount,\n            \"Player 2 has insufficient balance\"\n        );\n\n        // Transfer coins to the contract as a bet\n        goldCoinContract.transferFrom(player1, address(this), betAmount);\n        goldCoinContract.transferFrom(player2, address(this), betAmount);\n\n        // Record the bet for each player\n        playerBets[player1] += betAmount;\n        playerBets[player2] += betAmount;\n\n        // Create a new game instance\n        games[nextGameId] = Game({\n            player1: player1,\n            player2: player2,\n            betAmount: betAmount,\n            isActive: true\n        });\n\n        nextGameId++; // Increment the game ID for the next game\n        emit GameStarted(nextGameId, player1, player2, betAmount);\n    }\n\n    mapping(uint256 => bool) public activeCards;\n\n    function isPlayerDefeated(address player) private view returns (bool) {\n        Player memory playerData = players[player];\n        for (uint256 i = 0; i < playerData.cardIds.length; i++) {\n            if (activeCards[playerData.cardIds[i]]) {\n                return false; // Player still has active cards\n            }\n        }\n        return true; // All cards are defeated\n    }\n\n    function attackCard(\n        uint256 gameId,\n        uint256 attackerCardId,\n        uint256 defenderCardId\n    ) external {\n        Game storage game = games[gameId];\n        require(game.isActive, \"Game is not active\");\n\n        // Check if the player owns the attacking card\n        require(\n            cardsContract.ownerOf(attackerCardId) == msg.sender,\n            \"Not the owner of the attacking card\"\n        );\n\n        // Fetch card details\n        (uint256 attackerAttack, ) = cardsContract.getCardAttributes(\n            attackerCardId\n        );\n        (, uint256 defenderDefense) = cardsContract.getCardAttributes(\n            defenderCardId\n        );\n\n        // Apply attack logic\n        if (defenderDefense > attackerAttack) {\n            uint256 newDefense = defenderDefense - attackerAttack;\n            cardsContract.updateCardDefense(defenderCardId, newDefense);\n        } else {\n            // Card is defeated, mark it as inactive\n            activeCards[defenderCardId] = false;\n        }\n\n        bool defenderDefeated = !activeCards[defenderCardId];\n        emit CardAttack(\n            gameId,\n            attackerCardId,\n            defenderCardId,\n            defenderDefeated\n        );\n\n        // Check if either player has been defeated\n        if (isPlayerDefeated(game.player2)) {\n            endGame(gameId, game.player1); // Player 1 wins\n        } else if (isPlayerDefeated(game.player1)) {\n            endGame(gameId, game.player2); // Player 2 wins\n        }\n    }\n\n    function endGame(uint256 gameId, address winner) private {\n        Game storage game = games[gameId];\n        uint256 totalBet = game.betAmount * 2;\n        goldCoinContract.transfer(winner, totalBet); // Award the winner\n\n        // Burn cards for both players\n        burnPlayerCards(game.player1);\n        burnPlayerCards(game.player2);\n\n        // Reset game state\n        game.isActive = false;\n        playerBets[game.player1] = 0;\n        playerBets[game.player2] = 0;\n\n        emit GameEnded(gameId, winner);\n    }\n\n    function burnPlayerCards(address player) private {\n        Player storage playerData = players[player];\n        for (uint256 i = 0; i < playerData.cardIds.length; i++) {\n            uint256 cardId = playerData.cardIds[i];\n            if (cardsContract.ownerOf(cardId) == player) {\n                cardsContract.burnCard(cardId);\n            }\n        }\n        delete players[player].cardIds; // Clear the player's card array\n    }\n}\n",
  "sourcePath": "/Users/ibrahimallahbuksh/BlockchainProject/contracts/StartGame.sol",
  "compiler": {
    "name": "solc",
    "version": "0.8.19+commit.7dd6d404.Emscripten.clang"
  },
  "schemaVersion": "3.4.16",
  "updatedAt": "2023-11-19T21:08:27.548Z",
  "networkType": "ethereum",
  "devdoc": {
    "kind": "dev",
    "methods": {},
    "version": 1
  },
  "userdoc": {
    "kind": "user",
    "methods": {},
    "version": 1
  }
}