{
  "contractName": "PlayerRegistration",
  "abi": [
    {
      "inputs": [
        {
          "internalType": "address",
          "name": "_goldCoinAddress",
          "type": "address"
        },
        {
          "internalType": "address",
          "name": "_cardsAddress",
          "type": "address"
        },
        {
          "internalType": "address",
          "name": "_itemsAddress",
          "type": "address"
        }
      ],
      "stateMutability": "nonpayable",
      "type": "constructor"
    },
    {
      "inputs": [
        {
          "internalType": "uint256",
          "name": "",
          "type": "uint256"
        }
      ],
      "name": "games",
      "outputs": [
        {
          "internalType": "address",
          "name": "player1",
          "type": "address"
        },
        {
          "internalType": "address",
          "name": "player2",
          "type": "address"
        },
        {
          "internalType": "uint256",
          "name": "betAmount",
          "type": "uint256"
        },
        {
          "internalType": "bool",
          "name": "isActive",
          "type": "bool"
        }
      ],
      "stateMutability": "view",
      "type": "function",
      "constant": true
    },
    {
      "inputs": [],
      "name": "nextGameId",
      "outputs": [
        {
          "internalType": "uint256",
          "name": "",
          "type": "uint256"
        }
      ],
      "stateMutability": "view",
      "type": "function",
      "constant": true
    },
    {
      "inputs": [
        {
          "internalType": "address",
          "name": "",
          "type": "address"
        }
      ],
      "name": "playerBets",
      "outputs": [
        {
          "internalType": "uint256",
          "name": "",
          "type": "uint256"
        }
      ],
      "stateMutability": "view",
      "type": "function",
      "constant": true
    },
    {
      "inputs": [
        {
          "internalType": "address",
          "name": "playerAddress",
          "type": "address"
        }
      ],
      "name": "registerPlayer",
      "outputs": [],
      "stateMutability": "nonpayable",
      "type": "function"
    },
    {
      "inputs": [
        {
          "internalType": "address",
          "name": "player1",
          "type": "address"
        },
        {
          "internalType": "address",
          "name": "player2",
          "type": "address"
        }
      ],
      "name": "startGame",
      "outputs": [],
      "stateMutability": "nonpayable",
      "type": "function"
    },
    {
      "inputs": [
        {
          "internalType": "uint256",
          "name": "gameId",
          "type": "uint256"
        },
        {
          "internalType": "uint256",
          "name": "attackerCardId",
          "type": "uint256"
        },
        {
          "internalType": "uint256",
          "name": "defenderCardId",
          "type": "uint256"
        }
      ],
      "name": "attack",
      "outputs": [],
      "stateMutability": "nonpayable",
      "type": "function"
    }
  ],
  "bytecode": "0x60806040523480156200001157600080fd5b5060405162001aa438038062001aa483398181016040528101906200003791906200016c565b826000806101000a81548173ffffffffffffffffffffffffffffffffffffffff021916908373ffffffffffffffffffffffffffffffffffffffff16021790555081600160006101000a81548173ffffffffffffffffffffffffffffffffffffffff021916908373ffffffffffffffffffffffffffffffffffffffff16021790555080600260006101000a81548173ffffffffffffffffffffffffffffffffffffffff021916908373ffffffffffffffffffffffffffffffffffffffff160217905550505050620001c8565b600080fd5b600073ffffffffffffffffffffffffffffffffffffffff82169050919050565b6000620001348262000107565b9050919050565b620001468162000127565b81146200015257600080fd5b50565b60008151905062000166816200013b565b92915050565b60008060006060848603121562000188576200018762000102565b5b6000620001988682870162000155565b9350506020620001ab8682870162000155565b9250506040620001be8682870162000155565b9150509250925092565b6118cc80620001d86000396000f3fe608060405234801561001057600080fd5b50600436106100625760003560e01c8063117a5b9014610067578063407f85f81461009a5780636b5cc6d9146100b6578063b135bbb0146100d2578063c7aa327b146100f0578063eb23b56b14610120575b600080fd5b610081600480360381019061007c9190610f15565b61013c565b6040516100919493929190610fad565b60405180910390f35b6100b460048036038101906100af9190610ff2565b6101b9565b005b6100d060048036038101906100cb9190611071565b6105ad565b005b6100da61097e565b6040516100e7919061109e565b60405180910390f35b61010a60048036038101906101059190611071565b610984565b604051610117919061109e565b60405180910390f35b61013a600480360381019061013591906110b9565b61099c565b005b60036020528060005260406000206000915090508060000160009054906101000a900473ffffffffffffffffffffffffffffffffffffffff16908060010160009054906101000a900473ffffffffffffffffffffffffffffffffffffffff16908060020154908060030160009054906101000a900460ff16905084565b60006003600085815260200190815260200160002090508060030160009054906101000a900460ff16610221576040517f08c379a000000000000000000000000000000000000000000000000000000000815260040161021890611156565b60405180910390fd5b3373ffffffffffffffffffffffffffffffffffffffff16600160009054906101000a900473ffffffffffffffffffffffffffffffffffffffff1673ffffffffffffffffffffffffffffffffffffffff16636352211e856040518263ffffffff1660e01b8152600401610293919061109e565b602060405180830381865afa1580156102b0573d6000803e3d6000fd5b505050506040513d601f19601f820116820180604052508101906102d4919061118b565b73ffffffffffffffffffffffffffffffffffffffff161461032a576040517f08c379a00000000000000000000000000000000000000000000000000000000081526004016103219061122a565b60405180910390fd5b6000600160009054906101000a900473ffffffffffffffffffffffffffffffffffffffff1673ffffffffffffffffffffffffffffffffffffffff1663d5aaa5b0856040518263ffffffff1660e01b8152600401610387919061109e565b6040805180830381865afa1580156103a3573d6000803e3d6000fd5b505050506040513d601f19601f820116820180604052508101906103c7919061125f565b5090506000600160009054906101000a900473ffffffffffffffffffffffffffffffffffffffff1673ffffffffffffffffffffffffffffffffffffffff1663d5aaa5b0856040518263ffffffff1660e01b8152600401610427919061109e565b6040805180830381865afa158015610443573d6000803e3d6000fd5b505050506040513d601f19601f82011682018060405250810190610467919061125f565b91505081811115610517576000828261048091906112ce565b9050600160009054906101000a900473ffffffffffffffffffffffffffffffffffffffff1673ffffffffffffffffffffffffffffffffffffffff16633e81872d86836040518363ffffffff1660e01b81526004016104df929190611302565b600060405180830381600087803b1580156104f957600080fd5b505af115801561050d573d6000803e3d6000fd5b50505050506105a5565b600160009054906101000a900473ffffffffffffffffffffffffffffffffffffffff1673ffffffffffffffffffffffffffffffffffffffff1663ba7e7d05856040518263ffffffff1660e01b8152600401610572919061109e565b600060405180830381600087803b15801561058c57600080fd5b505af11580156105a0573d6000803e3d6000fd5b505050505b505050505050565b60008054906101000a900473ffffffffffffffffffffffffffffffffffffffff1673ffffffffffffffffffffffffffffffffffffffff166340c10f1982683635c9adc5dea000006040518363ffffffff1660e01b8152600401610611929190611370565b600060405180830381600087803b15801561062b57600080fd5b505af115801561063f573d6000803e3d6000fd5b5050505060005b60058110156107b2576000610659610e8d565b90506000610665610e8d565b90506000600160009054906101000a900473ffffffffffffffffffffffffffffffffffffffff1673ffffffffffffffffffffffffffffffffffffffff1663f7ee23dc84846040518363ffffffff1660e01b81526004016106c6929190611457565b6020604051808303816000875af11580156106e5573d6000803e3d6000fd5b505050506040513d601f19601f8201168201806040525081019061070991906114a6565b9050600160009054906101000a900473ffffffffffffffffffffffffffffffffffffffff1673ffffffffffffffffffffffffffffffffffffffff166323b872dd3087846040518463ffffffff1660e01b815260040161076a939291906114d3565b600060405180830381600087803b15801561078457600080fd5b505af1158015610798573d6000803e3d6000fd5b5050505050505080806107aa9061150a565b915050610646565b50600260009054906101000a900473ffffffffffffffffffffffffffffffffffffffff1673ffffffffffffffffffffffffffffffffffffffff166313e8ee7e826040518263ffffffff1660e01b815260040161080e9190611552565b602060405180830381865afa15801561082b573d6000803e3d6000fd5b505050506040513d601f19601f8201168201806040525081019061084f9190611599565b1561097b57600060019050600260009054906101000a900473ffffffffffffffffffffffffffffffffffffffff1673ffffffffffffffffffffffffffffffffffffffff1663696a50b4838360016040518463ffffffff1660e01b81526004016108ba93929190611601565b600060405180830381600087803b1580156108d457600080fd5b505af11580156108e8573d6000803e3d6000fd5b50505050600260009054906101000a900473ffffffffffffffffffffffffffffffffffffffff1673ffffffffffffffffffffffffffffffffffffffff16638b651827836040518263ffffffff1660e01b81526004016109479190611552565b600060405180830381600087803b15801561096157600080fd5b505af1158015610975573d6000803e3d6000fd5b50505050505b50565b60045481565b60056020528060005260406000206000915090505481565b600068056bc75e2d6310000090508060008054906101000a900473ffffffffffffffffffffffffffffffffffffffff1673ffffffffffffffffffffffffffffffffffffffff166370a08231856040518263ffffffff1660e01b8152600401610a049190611552565b602060405180830381865afa158015610a21573d6000803e3d6000fd5b505050506040513d601f19601f82011682018060405250810190610a4591906114a6565b1015610a86576040517f08c379a0000000000000000000000000000000000000000000000000000000008152600401610a7d906116aa565b60405180910390fd5b8060008054906101000a900473ffffffffffffffffffffffffffffffffffffffff1673ffffffffffffffffffffffffffffffffffffffff166370a08231846040518263ffffffff1660e01b8152600401610ae09190611552565b602060405180830381865afa158015610afd573d6000803e3d6000fd5b505050506040513d601f19601f82011682018060405250810190610b2191906114a6565b1015610b62576040517f08c379a0000000000000000000000000000000000000000000000000000000008152600401610b599061173c565b60405180910390fd5b60008054906101000a900473ffffffffffffffffffffffffffffffffffffffff1673ffffffffffffffffffffffffffffffffffffffff166323b872dd8430846040518463ffffffff1660e01b8152600401610bbf939291906114d3565b6020604051808303816000875af1158015610bde573d6000803e3d6000fd5b505050506040513d601f19601f82011682018060405250810190610c029190611599565b5060008054906101000a900473ffffffffffffffffffffffffffffffffffffffff1673ffffffffffffffffffffffffffffffffffffffff166323b872dd8330846040518463ffffffff1660e01b8152600401610c60939291906114d3565b6020604051808303816000875af1158015610c7f573d6000803e3d6000fd5b505050506040513d601f19601f82011682018060405250810190610ca39190611599565b5080600560008573ffffffffffffffffffffffffffffffffffffffff1673ffffffffffffffffffffffffffffffffffffffff1681526020019081526020016000206000828254610cf3919061175c565b9250508190555080600560008473ffffffffffffffffffffffffffffffffffffffff1673ffffffffffffffffffffffffffffffffffffffff1681526020019081526020016000206000828254610d49919061175c565b9250508190555060405180608001604052808473ffffffffffffffffffffffffffffffffffffffff1681526020018373ffffffffffffffffffffffffffffffffffffffff1681526020018281526020016001151581525060036000600454815260200190815260200160002060008201518160000160006101000a81548173ffffffffffffffffffffffffffffffffffffffff021916908373ffffffffffffffffffffffffffffffffffffffff16021790555060208201518160010160006101000a81548173ffffffffffffffffffffffffffffffffffffffff021916908373ffffffffffffffffffffffffffffffffffffffff1602179055506040820151816002015560608201518160030160006101000a81548160ff02191690831515021790555090505060046000815480929190610e839061150a565b9190505550505050565b60006001600a424433604051602001610ea8939291906117f9565b6040516020818303038152906040528051906020012060001c610ecb9190611865565b610ed5919061175c565b905090565b600080fd5b6000819050919050565b610ef281610edf565b8114610efd57600080fd5b50565b600081359050610f0f81610ee9565b92915050565b600060208284031215610f2b57610f2a610eda565b5b6000610f3984828501610f00565b91505092915050565b600073ffffffffffffffffffffffffffffffffffffffff82169050919050565b6000610f6d82610f42565b9050919050565b610f7d81610f62565b82525050565b610f8c81610edf565b82525050565b60008115159050919050565b610fa781610f92565b82525050565b6000608082019050610fc26000830187610f74565b610fcf6020830186610f74565b610fdc6040830185610f83565b610fe96060830184610f9e565b95945050505050565b60008060006060848603121561100b5761100a610eda565b5b600061101986828701610f00565b935050602061102a86828701610f00565b925050604061103b86828701610f00565b9150509250925092565b61104e81610f62565b811461105957600080fd5b50565b60008135905061106b81611045565b92915050565b60006020828403121561108757611086610eda565b5b60006110958482850161105c565b91505092915050565b60006020820190506110b36000830184610f83565b92915050565b600080604083850312156110d0576110cf610eda565b5b60006110de8582860161105c565b92505060206110ef8582860161105c565b9150509250929050565b600082825260208201905092915050565b7f47616d65206973206e6f74206163746976650000000000000000000000000000600082015250565b60006111406012836110f9565b915061114b8261110a565b602082019050919050565b6000602082019050818103600083015261116f81611133565b9050919050565b60008151905061118581611045565b92915050565b6000602082840312156111a1576111a0610eda565b5b60006111af84828501611176565b91505092915050565b7f4e6f7420746865206f776e6572206f66207468652061747461636b696e67206360008201527f6172640000000000000000000000000000000000000000000000000000000000602082015250565b60006112146023836110f9565b915061121f826111b8565b604082019050919050565b6000602082019050818103600083015261124381611207565b9050919050565b60008151905061125981610ee9565b92915050565b6000806040838503121561127657611275610eda565b5b60006112848582860161124a565b92505060206112958582860161124a565b9150509250929050565b7f4e487b7100000000000000000000000000000000000000000000000000000000600052601160045260246000fd5b60006112d982610edf565b91506112e483610edf565b92508282039050818111156112fc576112fb61129f565b5b92915050565b60006040820190506113176000830185610f83565b6113246020830184610f83565b9392505050565b6000819050919050565b6000819050919050565b600061135a6113556113508461132b565b611335565b610edf565b9050919050565b61136a8161133f565b82525050565b60006040820190506113856000830185610f74565b6113926020830184611361565b9392505050565b7f5374617274657220436172640000000000000000000000000000000000000000600082015250565b60006113cf600c836110f9565b91506113da82611399565b602082019050919050565b7f5468697320697320612073746172746572206361726420666f72206e6577207060008201527f6c61796572730000000000000000000000000000000000000000000000000000602082015250565b60006114416026836110f9565b915061144c826113e5565b604082019050919050565b60006080820190508181036000830152611470816113c2565b9050818103602083015261148381611434565b90506114926040830185610f83565b61149f6060830184610f83565b9392505050565b6000602082840312156114bc576114bb610eda565b5b60006114ca8482850161124a565b91505092915050565b60006060820190506114e86000830186610f74565b6114f56020830185610f74565b6115026040830184610f83565b949350505050565b600061151582610edf565b91507fffffffffffffffffffffffffffffffffffffffffffffffffffffffffffffffff82036115475761154661129f565b5b600182019050919050565b60006020820190506115676000830184610f74565b92915050565b61157681610f92565b811461158157600080fd5b50565b6000815190506115938161156d565b92915050565b6000602082840312156115af576115ae610eda565b5b60006115bd84828501611584565b91505092915050565b6000819050919050565b60006115eb6115e66115e1846115c6565b611335565b610edf565b9050919050565b6115fb816115d0565b82525050565b60006060820190506116166000830186610f74565b6116236020830185610f83565b61163060408301846115f2565b949350505050565b7f506c6179657220312068617320696e73756666696369656e742062616c616e6360008201527f6500000000000000000000000000000000000000000000000000000000000000602082015250565b60006116946021836110f9565b915061169f82611638565b604082019050919050565b600060208201905081810360008301526116c381611687565b9050919050565b7f506c6179657220322068617320696e73756666696369656e742062616c616e6360008201527f6500000000000000000000000000000000000000000000000000000000000000602082015250565b60006117266021836110f9565b9150611731826116ca565b604082019050919050565b6000602082019050818103600083015261175581611719565b9050919050565b600061176782610edf565b915061177283610edf565b925082820190508082111561178a5761178961129f565b5b92915050565b6000819050919050565b6117ab6117a682610edf565b611790565b82525050565b60008160601b9050919050565b60006117c9826117b1565b9050919050565b60006117db826117be565b9050919050565b6117f36117ee82610f62565b6117d0565b82525050565b6000611805828661179a565b602082019150611815828561179a565b60208201915061182582846117e2565b601482019150819050949350505050565b7f4e487b7100000000000000000000000000000000000000000000000000000000600052601260045260246000fd5b600061187082610edf565b915061187b83610edf565b92508261188b5761188a611836565b5b82820690509291505056fea2646970667358221220c0239d94058ffc065e7430b0f1951becd5ff3c4697c050bade8239a333dc8cec64736f6c63430008130033",
  "immutableReferences": {},
  "source": "// SPDX-License-Identifier: MIT\npragma solidity ^0.8.19;\n\nimport \"./ERC20SmartContract.sol\";\nimport \"./ERC721SmartContract.sol\";\nimport \"./ERC1155SmartContract.sol\";\n\ncontract PlayerRegistration {\n    GoldCoin private goldCoinContract;\n    UniqueCards private cardsContract;\n    GameItems private itemsContract;\n\n    // Define a structure to represent a game\n    struct Game {\n        address player1;\n        address player2;\n        uint256 betAmount;\n        bool isActive;\n    }\n\n    // Mapping to store ongoing games\n    mapping(uint256 => Game) public games;\n    uint256 public nextGameId;\n\n    // Mapping to store player bets\n    mapping(address => uint256) public playerBets;\n\n    constructor(\n        address _goldCoinAddress,\n        address _cardsAddress,\n        address _itemsAddress\n    ) {\n        goldCoinContract = GoldCoin(_goldCoinAddress);\n        cardsContract = UniqueCards(_cardsAddress);\n        itemsContract = GameItems(_itemsAddress);\n    }\n\n    function pseudoRandom() private view returns (uint) {\n        return\n            (uint(\n                keccak256(\n                    abi.encodePacked(\n                        block.timestamp,\n                        block.prevrandao,\n                        msg.sender\n                    )\n                )\n            ) % 10) + 1;\n    }\n\n    function registerPlayer(address playerAddress) public {\n        // Mint ERC20 tokens to the player\n        goldCoinContract.mint(playerAddress, 1000 * 10 ** 18); // Minting 1000 GoldCoins\n\n        // Loop to create and assign 5 unique cards to the player\n        for (uint256 i = 0; i < 5; i++) {\n            uint256 attack = pseudoRandom();\n            uint256 defense = pseudoRandom();\n\n            // Create a new ERC721 card with random attack and defense\n            uint256 newCardId = cardsContract.createUniqueCard(\n                \"Starter Card\",\n                \"This is a starter card for new players\",\n                attack,\n                defense\n            );\n\n            // Transfer the newly created card to the player\n            cardsContract.transferFrom(address(this), playerAddress, newCardId);\n        }\n\n        // Check if the player has purchased a power-up and assign it\n        if (itemsContract.hasPowerUp(playerAddress)) {\n            uint256 powerUpItemId = 1; // Assuming 1 is the ID for the power-up\n            itemsContract.mintItem(playerAddress, powerUpItemId, 1); // Mint one power-up\n            itemsContract.usePowerUp(playerAddress); // Indicate the power-up is used\n        }\n    }\n\n    function startGame(address player1, address player2) external {\n        uint256 betAmount = 100 * 10 ** 18; // 100 GoldCoins\n\n        // Ensure both players have sufficient balance and have consented\n        require(\n            goldCoinContract.balanceOf(player1) >= betAmount,\n            \"Player 1 has insufficient balance\"\n        );\n        require(\n            goldCoinContract.balanceOf(player2) >= betAmount,\n            \"Player 2 has insufficient balance\"\n        );\n\n        // Transfer coins to the contract as a bet\n        goldCoinContract.transferFrom(player1, address(this), betAmount);\n        goldCoinContract.transferFrom(player2, address(this), betAmount);\n\n        // Record the bet for each player\n        playerBets[player1] += betAmount;\n        playerBets[player2] += betAmount;\n\n        // Create a new game instance\n        games[nextGameId] = Game({\n            player1: player1,\n            player2: player2,\n            betAmount: betAmount,\n            isActive: true\n        });\n\n        nextGameId++; // Increment the game ID for the next game\n    }\n\n    function attack(\n        uint256 gameId,\n        uint256 attackerCardId,\n        uint256 defenderCardId\n    ) external {\n        Game storage game = games[gameId];\n        require(game.isActive, \"Game is not active\");\n\n        // Check if the player owns the attacking card\n        require(\n            cardsContract.ownerOf(attackerCardId) == msg.sender,\n            \"Not the owner of the attacking card\"\n        );\n\n        // Fetch card details\n        (uint256 attackerAttack, ) = cardsContract.getCardAttributes(\n            attackerCardId\n        );\n        (, uint256 defenderDefense) = cardsContract.getCardAttributes(\n            defenderCardId\n        );\n\n        // Apply attack logic\n        if (defenderDefense > attackerAttack) {\n            uint256 newDefense = defenderDefense - attackerAttack;\n            cardsContract.updateCardDefense(defenderCardId, newDefense);\n        } else {\n            // Card is defeated, burn the defender's card\n            cardsContract.burnCard(defenderCardId);\n        }\n    }\n}\n",
  "sourcePath": "/Users/ibrahimallahbuksh/BlockchainProject/contracts/StartGame.sol",
  "compiler": {
    "name": "solc",
    "version": "0.8.19+commit.7dd6d404.Emscripten.clang"
  },
  "schemaVersion": "3.4.16",
  "updatedAt": "2023-11-19T00:45:24.665Z",
  "networkType": "ethereum",
  "devdoc": {
    "kind": "dev",
    "methods": {},
    "version": 1
  },
  "userdoc": {
    "kind": "user",
    "methods": {},
    "version": 1
  }
}