{
  "contractName": "PlayerRegistration",
  "abi": [
    {
      "inputs": [
        {
          "internalType": "address",
          "name": "_goldCoinAddress",
          "type": "address"
        },
        {
          "internalType": "address",
          "name": "_cardsAddress",
          "type": "address"
        },
        {
          "internalType": "address",
          "name": "_itemsAddress",
          "type": "address"
        }
      ],
      "stateMutability": "nonpayable",
      "type": "constructor"
    },
    {
      "anonymous": false,
      "inputs": [
        {
          "indexed": false,
          "internalType": "uint256",
          "name": "gameId",
          "type": "uint256"
        },
        {
          "indexed": false,
          "internalType": "uint256",
          "name": "attackerCardId",
          "type": "uint256"
        },
        {
          "indexed": false,
          "internalType": "uint256",
          "name": "defenderCardId",
          "type": "uint256"
        },
        {
          "indexed": false,
          "internalType": "bool",
          "name": "defenderDefeated",
          "type": "bool"
        }
      ],
      "name": "CardAttack",
      "type": "event"
    },
    {
      "anonymous": false,
      "inputs": [
        {
          "indexed": false,
          "internalType": "uint256",
          "name": "gameId",
          "type": "uint256"
        },
        {
          "indexed": false,
          "internalType": "address",
          "name": "winner",
          "type": "address"
        }
      ],
      "name": "GameEnded",
      "type": "event"
    },
    {
      "anonymous": false,
      "inputs": [
        {
          "indexed": false,
          "internalType": "uint256",
          "name": "gameId",
          "type": "uint256"
        },
        {
          "indexed": false,
          "internalType": "address",
          "name": "player1",
          "type": "address"
        },
        {
          "indexed": false,
          "internalType": "address",
          "name": "player2",
          "type": "address"
        },
        {
          "indexed": false,
          "internalType": "uint256",
          "name": "betAmount",
          "type": "uint256"
        }
      ],
      "name": "GameStarted",
      "type": "event"
    },
    {
      "anonymous": false,
      "inputs": [
        {
          "indexed": false,
          "internalType": "address",
          "name": "player",
          "type": "address"
        }
      ],
      "name": "PlayerRegistered",
      "type": "event"
    },
    {
      "inputs": [
        {
          "internalType": "uint256",
          "name": "",
          "type": "uint256"
        }
      ],
      "name": "activeCards",
      "outputs": [
        {
          "internalType": "bool",
          "name": "",
          "type": "bool"
        }
      ],
      "stateMutability": "view",
      "type": "function",
      "constant": true
    },
    {
      "inputs": [
        {
          "internalType": "uint256",
          "name": "",
          "type": "uint256"
        }
      ],
      "name": "allPlayers",
      "outputs": [
        {
          "internalType": "address",
          "name": "",
          "type": "address"
        }
      ],
      "stateMutability": "view",
      "type": "function",
      "constant": true
    },
    {
      "inputs": [
        {
          "internalType": "uint256",
          "name": "",
          "type": "uint256"
        }
      ],
      "name": "games",
      "outputs": [
        {
          "internalType": "address",
          "name": "player1",
          "type": "address"
        },
        {
          "internalType": "address",
          "name": "player2",
          "type": "address"
        },
        {
          "internalType": "uint256",
          "name": "betAmount",
          "type": "uint256"
        },
        {
          "internalType": "bool",
          "name": "isActive",
          "type": "bool"
        }
      ],
      "stateMutability": "view",
      "type": "function",
      "constant": true
    },
    {
      "inputs": [],
      "name": "nextGameId",
      "outputs": [
        {
          "internalType": "uint256",
          "name": "",
          "type": "uint256"
        }
      ],
      "stateMutability": "view",
      "type": "function",
      "constant": true
    },
    {
      "inputs": [
        {
          "internalType": "address",
          "name": "",
          "type": "address"
        }
      ],
      "name": "playerBets",
      "outputs": [
        {
          "internalType": "uint256",
          "name": "",
          "type": "uint256"
        }
      ],
      "stateMutability": "view",
      "type": "function",
      "constant": true
    },
    {
      "inputs": [
        {
          "internalType": "address",
          "name": "",
          "type": "address"
        }
      ],
      "name": "players",
      "outputs": [
        {
          "internalType": "address",
          "name": "playerAddress",
          "type": "address"
        }
      ],
      "stateMutability": "view",
      "type": "function",
      "constant": true
    },
    {
      "inputs": [
        {
          "internalType": "address",
          "name": "currPlayer",
          "type": "address"
        }
      ],
      "name": "registerPlayer",
      "outputs": [],
      "stateMutability": "nonpayable",
      "type": "function"
    },
    {
      "inputs": [
        {
          "internalType": "address",
          "name": "playerAddress",
          "type": "address"
        }
      ],
      "name": "getPlayerCards",
      "outputs": [
        {
          "internalType": "uint256[]",
          "name": "",
          "type": "uint256[]"
        }
      ],
      "stateMutability": "view",
      "type": "function",
      "constant": true
    },
    {
      "inputs": [],
      "name": "getAllPlayers",
      "outputs": [
        {
          "internalType": "address[]",
          "name": "",
          "type": "address[]"
        }
      ],
      "stateMutability": "view",
      "type": "function",
      "constant": true
    },
    {
      "inputs": [
        {
          "internalType": "address",
          "name": "player1",
          "type": "address"
        },
        {
          "internalType": "address",
          "name": "player2",
          "type": "address"
        }
      ],
      "name": "startGame",
      "outputs": [],
      "stateMutability": "nonpayable",
      "type": "function"
    },
    {
      "inputs": [
        {
          "internalType": "uint256",
          "name": "gameId",
          "type": "uint256"
        },
        {
          "internalType": "uint256",
          "name": "attackerCardId",
          "type": "uint256"
        },
        {
          "internalType": "uint256",
          "name": "defenderCardId",
          "type": "uint256"
        }
      ],
      "name": "attackCard",
      "outputs": [],
      "stateMutability": "nonpayable",
      "type": "function"
    }
  ],
  "bytecode": "0x60806040523480156200001157600080fd5b506040516200275b3803806200275b83398181016040528101906200003791906200016c565b826000806101000a81548173ffffffffffffffffffffffffffffffffffffffff021916908373ffffffffffffffffffffffffffffffffffffffff16021790555081600160006101000a81548173ffffffffffffffffffffffffffffffffffffffff021916908373ffffffffffffffffffffffffffffffffffffffff16021790555080600260006101000a81548173ffffffffffffffffffffffffffffffffffffffff021916908373ffffffffffffffffffffffffffffffffffffffff160217905550505050620001c8565b600080fd5b600073ffffffffffffffffffffffffffffffffffffffff82169050919050565b6000620001348262000107565b9050919050565b620001468162000127565b81146200015257600080fd5b50565b60008151905062000166816200013b565b92915050565b60008060006060848603121562000188576200018762000102565b5b6000620001988682870162000155565b9350506020620001ab8682870162000155565b9250506040620001be8682870162000155565b9150509250925092565b61258380620001d86000396000f3fe608060405234801561001057600080fd5b50600436106100a95760003560e01c8063b135bbb011610071578063b135bbb014610179578063c7aa327b14610197578063c9da8713146101c7578063e2eb41ff146101f7578063eb23b56b14610227578063efa1c48214610243576100a9565b80630544ce5e146100ae5780630939ed34146100de578063117a5b90146100fa5780636b5cc6d91461012d578063ad5c21d914610149575b600080fd5b6100c860048036038101906100c39190611984565b610261565b6040516100d591906119f2565b60405180910390f35b6100f860048036038101906100f39190611a0d565b6102a0565b005b610114600480360381019061010f9190611984565b61075e565b6040516101249493929190611a8a565b60405180910390f35b61014760048036038101906101429190611afb565b6107db565b005b610163600480360381019061015e9190611afb565b610af3565b6040516101709190611be6565b60405180910390f35b610181610b8d565b60405161018e9190611c08565b60405180910390f35b6101b160048036038101906101ac9190611afb565b610b93565b6040516101be9190611c08565b60405180910390f35b6101e160048036038101906101dc9190611984565b610bab565b6040516101ee9190611c23565b60405180910390f35b610211600480360381019061020c9190611afb565b610bcb565b60405161021e91906119f2565b60405180910390f35b610241600480360381019061023c9190611c3e565b610c09565b005b61024b611225565b6040516102589190611d3c565b60405180910390f35b6007818154811061027157600080fd5b906000526020600020016000915054906101000a900473ffffffffffffffffffffffffffffffffffffffff1681565b60006003600085815260200190815260200160002090508060030160009054906101000a900460ff16610308576040517f08c379a00000000000000000000000000000000000000000000000000000000081526004016102ff90611dbb565b60405180910390fd5b3373ffffffffffffffffffffffffffffffffffffffff16600160009054906101000a900473ffffffffffffffffffffffffffffffffffffffff1673ffffffffffffffffffffffffffffffffffffffff16636352211e856040518263ffffffff1660e01b815260040161037a9190611c08565b602060405180830381865afa158015610397573d6000803e3d6000fd5b505050506040513d601f19601f820116820180604052508101906103bb9190611df0565b73ffffffffffffffffffffffffffffffffffffffff1614610411576040517f08c379a000000000000000000000000000000000000000000000000000000000815260040161040890611e8f565b60405180910390fd5b6000600160009054906101000a900473ffffffffffffffffffffffffffffffffffffffff1673ffffffffffffffffffffffffffffffffffffffff1663d5aaa5b0856040518263ffffffff1660e01b815260040161046e9190611c08565b6040805180830381865afa15801561048a573d6000803e3d6000fd5b505050506040513d601f19601f820116820180604052508101906104ae9190611ec4565b5090506000600160009054906101000a900473ffffffffffffffffffffffffffffffffffffffff1673ffffffffffffffffffffffffffffffffffffffff1663d5aaa5b0856040518263ffffffff1660e01b815260040161050e9190611c08565b6040805180830381865afa15801561052a573d6000803e3d6000fd5b505050506040513d601f19601f8201168201806040525081019061054e9190611ec4565b915050818111156105fe57600082826105679190611f33565b9050600160009054906101000a900473ffffffffffffffffffffffffffffffffffffffff1673ffffffffffffffffffffffffffffffffffffffff16633e81872d86836040518363ffffffff1660e01b81526004016105c6929190611f67565b600060405180830381600087803b1580156105e057600080fd5b505af11580156105f4573d6000803e3d6000fd5b505050505061062b565b60006008600086815260200190815260200160002060006101000a81548160ff0219169083151502179055505b60006008600086815260200190815260200160002060009054906101000a900460ff161590507f8fe141642c76534da64a37f2bd41ebbae8b600ee2601c789b248c2550d4c7ca9878787846040516106869493929190611f90565b60405180910390a16106bb8460010160009054906101000a900473ffffffffffffffffffffffffffffffffffffffff166112b3565b156106f3576106ee878560000160009054906101000a900473ffffffffffffffffffffffffffffffffffffffff1661142e565b610755565b6107208460000160009054906101000a900473ffffffffffffffffffffffffffffffffffffffff166112b3565b1561075457610753878560010160009054906101000a900473ffffffffffffffffffffffffffffffffffffffff1661142e565b5b5b50505050505050565b60036020528060005260406000206000915090508060000160009054906101000a900473ffffffffffffffffffffffffffffffffffffffff16908060010160009054906101000a900473ffffffffffffffffffffffffffffffffffffffff16908060020154908060030160009054906101000a900460ff16905084565b6000600660008373ffffffffffffffffffffffffffffffffffffffff1673ffffffffffffffffffffffffffffffffffffffff1681526020019081526020016000209050600073ffffffffffffffffffffffffffffffffffffffff168160000160009054906101000a900473ffffffffffffffffffffffffffffffffffffffff1673ffffffffffffffffffffffffffffffffffffffff1603610aef57818160000160006101000a81548173ffffffffffffffffffffffffffffffffffffffff021916908373ffffffffffffffffffffffffffffffffffffffff1602179055506007829080600181540180825580915050600190039060005260206000200160009091909190916101000a81548173ffffffffffffffffffffffffffffffffffffffff021916908373ffffffffffffffffffffffffffffffffffffffff16021790555060005b6005811015610ab6576000610932611681565b9050600061093e611681565b90506000600160009054906101000a900473ffffffffffffffffffffffffffffffffffffffff1673ffffffffffffffffffffffffffffffffffffffff1663f7ee23dc84846040518363ffffffff1660e01b815260040161099f929190612093565b6020604051808303816000875af11580156109be573d6000803e3d6000fd5b505050506040513d601f19601f820116820180604052508101906109e291906120e2565b9050600160009054906101000a900473ffffffffffffffffffffffffffffffffffffffff1673ffffffffffffffffffffffffffffffffffffffff166323b872dd3088846040518463ffffffff1660e01b8152600401610a439392919061210f565b600060405180830381600087803b158015610a5d57600080fd5b505af1158015610a71573d6000803e3d6000fd5b50505050846001018190806001815401808255809150506001900390600052602060002001600090919091909150555050508080610aae90612146565b91505061091f565b507f8cd3331e32cec677d80b82cf0f71496605e7ed6ff864a3ccedc7d5d11d838c8382604051610ae691906119f2565b60405180910390a15b5050565b6060600660008373ffffffffffffffffffffffffffffffffffffffff1673ffffffffffffffffffffffffffffffffffffffff168152602001908152602001600020600101805480602002602001604051908101604052809291908181526020018280548015610b8157602002820191906000526020600020905b815481526020019060010190808311610b6d575b50505050509050919050565b60045481565b60056020528060005260406000206000915090505481565b60086020528060005260406000206000915054906101000a900460ff1681565b60066020528060005260406000206000915090508060000160009054906101000a900473ffffffffffffffffffffffffffffffffffffffff16905081565b60005b610c1583610af3565b51811015610c7e57600160086000610c2c86610af3565b8481518110610c3e57610c3d61218e565b5b6020026020010151815260200190815260200160002060006101000a81548160ff0219169083151502179055508080610c7690612146565b915050610c0c565b5060005b610c8b82610af3565b51811015610cf457600160086000610ca285610af3565b8481518110610cb457610cb361218e565b5b6020026020010151815260200190815260200160002060006101000a81548160ff0219169083151502179055508080610cec90612146565b915050610c82565b50600068056bc75e2d6310000090508060008054906101000a900473ffffffffffffffffffffffffffffffffffffffff1673ffffffffffffffffffffffffffffffffffffffff166370a08231856040518263ffffffff1660e01b8152600401610d5d91906119f2565b602060405180830381865afa158015610d7a573d6000803e3d6000fd5b505050506040513d601f19601f82011682018060405250810190610d9e91906120e2565b1015610ddf576040517f08c379a0000000000000000000000000000000000000000000000000000000008152600401610dd69061222f565b60405180910390fd5b8060008054906101000a900473ffffffffffffffffffffffffffffffffffffffff1673ffffffffffffffffffffffffffffffffffffffff166370a08231846040518263ffffffff1660e01b8152600401610e3991906119f2565b602060405180830381865afa158015610e56573d6000803e3d6000fd5b505050506040513d601f19601f82011682018060405250810190610e7a91906120e2565b1015610ebb576040517f08c379a0000000000000000000000000000000000000000000000000000000008152600401610eb2906122c1565b60405180910390fd5b60008054906101000a900473ffffffffffffffffffffffffffffffffffffffff1673ffffffffffffffffffffffffffffffffffffffff166323b872dd8430846040518463ffffffff1660e01b8152600401610f189392919061210f565b6020604051808303816000875af1158015610f37573d6000803e3d6000fd5b505050506040513d601f19601f82011682018060405250810190610f5b919061230d565b5060008054906101000a900473ffffffffffffffffffffffffffffffffffffffff1673ffffffffffffffffffffffffffffffffffffffff166323b872dd8330846040518463ffffffff1660e01b8152600401610fb99392919061210f565b6020604051808303816000875af1158015610fd8573d6000803e3d6000fd5b505050506040513d601f19601f82011682018060405250810190610ffc919061230d565b5080600560008573ffffffffffffffffffffffffffffffffffffffff1673ffffffffffffffffffffffffffffffffffffffff168152602001908152602001600020600082825461104c919061233a565b9250508190555080600560008473ffffffffffffffffffffffffffffffffffffffff1673ffffffffffffffffffffffffffffffffffffffff16815260200190815260200160002060008282546110a2919061233a565b9250508190555060405180608001604052808473ffffffffffffffffffffffffffffffffffffffff1681526020018373ffffffffffffffffffffffffffffffffffffffff1681526020018281526020016001151581525060036000600454815260200190815260200160002060008201518160000160006101000a81548173ffffffffffffffffffffffffffffffffffffffff021916908373ffffffffffffffffffffffffffffffffffffffff16021790555060208201518160010160006101000a81548173ffffffffffffffffffffffffffffffffffffffff021916908373ffffffffffffffffffffffffffffffffffffffff1602179055506040820151816002015560608201518160030160006101000a81548160ff021916908315150217905550905050600460008154809291906111dc90612146565b91905055507f8e9434a1dd433fabbc1e2c2c4ac88cf8a8cd87237bdcedc535cb522716f55b41600454848484604051611218949392919061236e565b60405180910390a1505050565b606060078054806020026020016040519081016040528092919081815260200182805480156112a957602002820191906000526020600020905b8160009054906101000a900473ffffffffffffffffffffffffffffffffffffffff1673ffffffffffffffffffffffffffffffffffffffff168152602001906001019080831161125f575b5050505050905090565b600080600660008473ffffffffffffffffffffffffffffffffffffffff1673ffffffffffffffffffffffffffffffffffffffff1681526020019081526020016000206040518060400160405290816000820160009054906101000a900473ffffffffffffffffffffffffffffffffffffffff1673ffffffffffffffffffffffffffffffffffffffff1673ffffffffffffffffffffffffffffffffffffffff168152602001600182018054806020026020016040519081016040528092919081815260200182805480156113a557602002820191906000526020600020905b815481526020019060010190808311611391575b505050505081525050905060005b8160200151518110156114225760086000836020015183815181106113db576113da61218e565b5b6020026020010151815260200190815260200160002060009054906101000a900460ff161561140f57600092505050611429565b808061141a90612146565b9150506113b3565b5060019150505b919050565b600060036000848152602001908152602001600020905060006002826002015461145891906123b3565b905060008054906101000a900473ffffffffffffffffffffffffffffffffffffffff1673ffffffffffffffffffffffffffffffffffffffff1663a9059cbb84836040518363ffffffff1660e01b81526004016114b59291906123f5565b6020604051808303816000875af11580156114d4573d6000803e3d6000fd5b505050506040513d601f19601f820116820180604052508101906114f8919061230d565b506115268260000160009054906101000a900473ffffffffffffffffffffffffffffffffffffffff166116ce565b6115538260010160009054906101000a900473ffffffffffffffffffffffffffffffffffffffff166116ce565b60008260030160006101000a81548160ff0219169083151502179055506000600560008460000160009054906101000a900473ffffffffffffffffffffffffffffffffffffffff1673ffffffffffffffffffffffffffffffffffffffff1673ffffffffffffffffffffffffffffffffffffffff168152602001908152602001600020819055506000600560008460010160009054906101000a900473ffffffffffffffffffffffffffffffffffffffff1673ffffffffffffffffffffffffffffffffffffffff1673ffffffffffffffffffffffffffffffffffffffff168152602001908152602001600020819055507f3d5fcd8fa3235aeb3897f25c8ea49989174981afcb01b9d03189d1056a16775b848460405161167392919061241e565b60405180910390a150505050565b60006001600f42443360405160200161169c939291906124b0565b6040516020818303038152906040528051906020012060001c6116bf919061251c565b6116c9919061233a565b905090565b6000600660008373ffffffffffffffffffffffffffffffffffffffff1673ffffffffffffffffffffffffffffffffffffffff168152602001908152602001600020905060005b81600101805490508110156118b857600082600101828154811061173b5761173a61218e565b5b906000526020600020015490508373ffffffffffffffffffffffffffffffffffffffff16600160009054906101000a900473ffffffffffffffffffffffffffffffffffffffff1673ffffffffffffffffffffffffffffffffffffffff16636352211e836040518263ffffffff1660e01b81526004016117ba9190611c08565b602060405180830381865afa1580156117d7573d6000803e3d6000fd5b505050506040513d601f19601f820116820180604052508101906117fb9190611df0565b73ffffffffffffffffffffffffffffffffffffffff16036118a457600160009054906101000a900473ffffffffffffffffffffffffffffffffffffffff1673ffffffffffffffffffffffffffffffffffffffff1663ba7e7d05826040518263ffffffff1660e01b81526004016118719190611c08565b600060405180830381600087803b15801561188b57600080fd5b505af115801561189f573d6000803e3d6000fd5b505050505b5080806118b090612146565b915050611714565b50600660008373ffffffffffffffffffffffffffffffffffffffff1673ffffffffffffffffffffffffffffffffffffffff1681526020019081526020016000206001016000611907919061190b565b5050565b5080546000825590600052602060002090810190611929919061192c565b50565b5b8082111561194557600081600090555060010161192d565b5090565b600080fd5b6000819050919050565b6119618161194e565b811461196c57600080fd5b50565b60008135905061197e81611958565b92915050565b60006020828403121561199a57611999611949565b5b60006119a88482850161196f565b91505092915050565b600073ffffffffffffffffffffffffffffffffffffffff82169050919050565b60006119dc826119b1565b9050919050565b6119ec816119d1565b82525050565b6000602082019050611a0760008301846119e3565b92915050565b600080600060608486031215611a2657611a25611949565b5b6000611a348682870161196f565b9350506020611a458682870161196f565b9250506040611a568682870161196f565b9150509250925092565b611a698161194e565b82525050565b60008115159050919050565b611a8481611a6f565b82525050565b6000608082019050611a9f60008301876119e3565b611aac60208301866119e3565b611ab96040830185611a60565b611ac66060830184611a7b565b95945050505050565b611ad8816119d1565b8114611ae357600080fd5b50565b600081359050611af581611acf565b92915050565b600060208284031215611b1157611b10611949565b5b6000611b1f84828501611ae6565b91505092915050565b600081519050919050565b600082825260208201905092915050565b6000819050602082019050919050565b611b5d8161194e565b82525050565b6000611b6f8383611b54565b60208301905092915050565b6000602082019050919050565b6000611b9382611b28565b611b9d8185611b33565b9350611ba883611b44565b8060005b83811015611bd9578151611bc08882611b63565b9750611bcb83611b7b565b925050600181019050611bac565b5085935050505092915050565b60006020820190508181036000830152611c008184611b88565b905092915050565b6000602082019050611c1d6000830184611a60565b92915050565b6000602082019050611c386000830184611a7b565b92915050565b60008060408385031215611c5557611c54611949565b5b6000611c6385828601611ae6565b9250506020611c7485828601611ae6565b9150509250929050565b600081519050919050565b600082825260208201905092915050565b6000819050602082019050919050565b611cb3816119d1565b82525050565b6000611cc58383611caa565b60208301905092915050565b6000602082019050919050565b6000611ce982611c7e565b611cf38185611c89565b9350611cfe83611c9a565b8060005b83811015611d2f578151611d168882611cb9565b9750611d2183611cd1565b925050600181019050611d02565b5085935050505092915050565b60006020820190508181036000830152611d568184611cde565b905092915050565b600082825260208201905092915050565b7f47616d65206973206e6f74206163746976650000000000000000000000000000600082015250565b6000611da5601283611d5e565b9150611db082611d6f565b602082019050919050565b60006020820190508181036000830152611dd481611d98565b9050919050565b600081519050611dea81611acf565b92915050565b600060208284031215611e0657611e05611949565b5b6000611e1484828501611ddb565b91505092915050565b7f4e6f7420746865206f776e6572206f66207468652061747461636b696e67206360008201527f6172640000000000000000000000000000000000000000000000000000000000602082015250565b6000611e79602383611d5e565b9150611e8482611e1d565b604082019050919050565b60006020820190508181036000830152611ea881611e6c565b9050919050565b600081519050611ebe81611958565b92915050565b60008060408385031215611edb57611eda611949565b5b6000611ee985828601611eaf565b9250506020611efa85828601611eaf565b9150509250929050565b7f4e487b7100000000000000000000000000000000000000000000000000000000600052601160045260246000fd5b6000611f3e8261194e565b9150611f498361194e565b9250828203905081811115611f6157611f60611f04565b5b92915050565b6000604082019050611f7c6000830185611a60565b611f896020830184611a60565b9392505050565b6000608082019050611fa56000830187611a60565b611fb26020830186611a60565b611fbf6040830185611a60565b611fcc6060830184611a7b565b95945050505050565b7f5374617274657220436172640000000000000000000000000000000000000000600082015250565b600061200b600c83611d5e565b915061201682611fd5565b602082019050919050565b7f5468697320697320612073746172746572206361726420666f72206e6577207060008201527f6c61796572730000000000000000000000000000000000000000000000000000602082015250565b600061207d602683611d5e565b915061208882612021565b604082019050919050565b600060808201905081810360008301526120ac81611ffe565b905081810360208301526120bf81612070565b90506120ce6040830185611a60565b6120db6060830184611a60565b9392505050565b6000602082840312156120f8576120f7611949565b5b600061210684828501611eaf565b91505092915050565b600060608201905061212460008301866119e3565b61213160208301856119e3565b61213e6040830184611a60565b949350505050565b60006121518261194e565b91507fffffffffffffffffffffffffffffffffffffffffffffffffffffffffffffffff820361218357612182611f04565b5b600182019050919050565b7f4e487b7100000000000000000000000000000000000000000000000000000000600052603260045260246000fd5b7f506c6179657220312068617320696e73756666696369656e742062616c616e6360008201527f6500000000000000000000000000000000000000000000000000000000000000602082015250565b6000612219602183611d5e565b9150612224826121bd565b604082019050919050565b600060208201905081810360008301526122488161220c565b9050919050565b7f506c6179657220322068617320696e73756666696369656e742062616c616e6360008201527f6500000000000000000000000000000000000000000000000000000000000000602082015250565b60006122ab602183611d5e565b91506122b68261224f565b604082019050919050565b600060208201905081810360008301526122da8161229e565b9050919050565b6122ea81611a6f565b81146122f557600080fd5b50565b600081519050612307816122e1565b92915050565b60006020828403121561232357612322611949565b5b6000612331848285016122f8565b91505092915050565b60006123458261194e565b91506123508361194e565b925082820190508082111561236857612367611f04565b5b92915050565b60006080820190506123836000830187611a60565b61239060208301866119e3565b61239d60408301856119e3565b6123aa6060830184611a60565b95945050505050565b60006123be8261194e565b91506123c98361194e565b92508282026123d78161194e565b915082820484148315176123ee576123ed611f04565b5b5092915050565b600060408201905061240a60008301856119e3565b6124176020830184611a60565b9392505050565b60006040820190506124336000830185611a60565b61244060208301846119e3565b9392505050565b6000819050919050565b61246261245d8261194e565b612447565b82525050565b60008160601b9050919050565b600061248082612468565b9050919050565b600061249282612475565b9050919050565b6124aa6124a5826119d1565b612487565b82525050565b60006124bc8286612451565b6020820191506124cc8285612451565b6020820191506124dc8284612499565b601482019150819050949350505050565b7f4e487b7100000000000000000000000000000000000000000000000000000000600052601260045260246000fd5b60006125278261194e565b91506125328361194e565b925082612542576125416124ed565b5b82820690509291505056fea2646970667358221220ec8c3a27b695eb7700de452fe55e9f263809b3fbbf89031a4b5409f51ec9b43a64736f6c63430008130033",
  "immutableReferences": {},
  "source": "// SPDX-License-Identifier: MIT\npragma solidity ^0.8.19;\n\nimport \"./ERC20SmartContract.sol\";\nimport \"./ERC721SmartContract.sol\";\nimport \"./ERC1155SmartContract.sol\";\n\ncontract PlayerRegistration {\n    GoldCoin private goldCoinContract;\n    UniqueCards private cardsContract;\n    GameItems private itemsContract;\n\n    // Define a structure to represent a game\n    struct Game {\n        address player1;\n        address player2;\n        uint256 betAmount;\n        bool isActive;\n    }\n\n    // Mapping to store ongoing games\n    mapping(uint256 => Game) public games;\n    uint256 public nextGameId;\n\n    // Mapping to store player bets\n    mapping(address => uint256) public playerBets;\n\n    constructor(\n        address _goldCoinAddress,\n        address _cardsAddress,\n        address _itemsAddress\n    ) {\n        goldCoinContract = GoldCoin(_goldCoinAddress);\n        cardsContract = UniqueCards(_cardsAddress);\n        itemsContract = GameItems(_itemsAddress);\n    }\n\n    event PlayerRegistered(address player);\n    event GameStarted(\n        uint256 gameId,\n        address player1,\n        address player2,\n        uint256 betAmount\n    );\n    event CardAttack(\n        uint256 gameId,\n        uint256 attackerCardId,\n        uint256 defenderCardId,\n        bool defenderDefeated\n    );\n    event GameEnded(uint256 gameId, address winner);\n\n    function pseudoRandom() private view returns (uint) {\n        return\n            (uint(\n                keccak256(\n                    abi.encodePacked(\n                        block.timestamp,\n                        block.prevrandao,\n                        msg.sender\n                    )\n                )\n            ) % 15) + 1;\n    }\n\n    struct Player {\n        address playerAddress;\n        uint256[] cardIds; // Array of owned card IDs\n    }\n\n    mapping(address => Player) public players;\n\n    address[] public allPlayers;\n\n    function registerPlayer(address currPlayer) public {\n        Player storage player = players[currPlayer];\n\n        // Check if the player is already registered\n        if (player.playerAddress == address(0)) {\n            player.playerAddress = currPlayer;\n            allPlayers.push(currPlayer); // Add new player to the array\n\n            // Assign 5 unique cards to the player\n            for (uint256 i = 0; i < 5; i++) {\n                uint256 attack = pseudoRandom();\n                uint256 defense = pseudoRandom();\n                uint256 newCardId = cardsContract.createUniqueCard(\n                    \"Starter Card\",\n                    \"This is a starter card for new players\",\n                    attack,\n                    defense\n                );\n                cardsContract.transferFrom(\n                    address(this),\n                    currPlayer,\n                    newCardId\n                );\n                player.cardIds.push(newCardId); // Add new card ID to the player's card list\n            }\n            emit PlayerRegistered(currPlayer);\n        }\n    }\n\n    // Function to get a player's card IDs\n    function getPlayerCards(\n        address playerAddress\n    ) public view returns (uint256[] memory) {\n        return players[playerAddress].cardIds;\n    }\n\n    function getAllPlayers() public view returns (address[] memory) {\n        return allPlayers;\n    }\n\n    function startGame(address player1, address player2) external {\n        // Mark all player cards as active\n        for (uint256 i = 0; i < getPlayerCards(player1).length; i++) {\n            activeCards[getPlayerCards(player1)[i]] = true;\n        }\n        for (uint256 i = 0; i < getPlayerCards(player2).length; i++) {\n            activeCards[getPlayerCards(player2)[i]] = true;\n        }\n        uint256 betAmount = 100 * 10 ** 18; // 100 GoldCoins\n\n        // Ensure both players have sufficient balance and have consented\n        require(\n            goldCoinContract.balanceOf(player1) >= betAmount,\n            \"Player 1 has insufficient balance\"\n        );\n        require(\n            goldCoinContract.balanceOf(player2) >= betAmount,\n            \"Player 2 has insufficient balance\"\n        );\n\n        // Transfer coins to the contract as a bet\n        goldCoinContract.transferFrom(player1, address(this), betAmount);\n        goldCoinContract.transferFrom(player2, address(this), betAmount);\n\n        // Record the bet for each player\n        playerBets[player1] += betAmount;\n        playerBets[player2] += betAmount;\n\n        // Create a new game instance\n        games[nextGameId] = Game({\n            player1: player1,\n            player2: player2,\n            betAmount: betAmount,\n            isActive: true\n        });\n\n        nextGameId++; // Increment the game ID for the next game\n        emit GameStarted(nextGameId, player1, player2, betAmount);\n    }\n\n    mapping(uint256 => bool) public activeCards;\n\n    function isPlayerDefeated(address player) private view returns (bool) {\n        Player memory playerData = players[player];\n        for (uint256 i = 0; i < playerData.cardIds.length; i++) {\n            if (activeCards[playerData.cardIds[i]]) {\n                return false; // Player still has active cards\n            }\n        }\n        return true; // All cards are defeated\n    }\n\n    function attackCard(\n        uint256 gameId,\n        uint256 attackerCardId,\n        uint256 defenderCardId\n    ) external {\n        Game storage game = games[gameId];\n        require(game.isActive, \"Game is not active\");\n\n        // Check if the player owns the attacking card\n        require(\n            cardsContract.ownerOf(attackerCardId) == msg.sender,\n            \"Not the owner of the attacking card\"\n        );\n\n        // Fetch card details\n        (uint256 attackerAttack, ) = cardsContract.getCardAttributes(\n            attackerCardId\n        );\n        (, uint256 defenderDefense) = cardsContract.getCardAttributes(\n            defenderCardId\n        );\n\n        // Apply attack logic\n        if (defenderDefense > attackerAttack) {\n            uint256 newDefense = defenderDefense - attackerAttack;\n            cardsContract.updateCardDefense(defenderCardId, newDefense);\n        } else {\n            // Card is defeated, mark it as inactive\n            activeCards[defenderCardId] = false;\n        }\n\n        bool defenderDefeated = !activeCards[defenderCardId];\n        emit CardAttack(\n            gameId,\n            attackerCardId,\n            defenderCardId,\n            defenderDefeated\n        );\n\n        // Check if either player has been defeated\n        if (isPlayerDefeated(game.player2)) {\n            endGame(gameId, game.player1); // Player 1 wins\n        } else if (isPlayerDefeated(game.player1)) {\n            endGame(gameId, game.player2); // Player 2 wins\n        }\n    }\n\n    function endGame(uint256 gameId, address winner) private {\n        Game storage game = games[gameId];\n        uint256 totalBet = game.betAmount * 2;\n        goldCoinContract.transfer(winner, totalBet); // Award the winner\n\n        // Burn cards for both players\n        burnPlayerCards(game.player1);\n        burnPlayerCards(game.player2);\n\n        // Reset game state\n        game.isActive = false;\n        playerBets[game.player1] = 0;\n        playerBets[game.player2] = 0;\n\n        emit GameEnded(gameId, winner);\n    }\n\n    function burnPlayerCards(address player) private {\n        Player storage playerData = players[player];\n        for (uint256 i = 0; i < playerData.cardIds.length; i++) {\n            uint256 cardId = playerData.cardIds[i];\n            if (cardsContract.ownerOf(cardId) == player) {\n                cardsContract.burnCard(cardId);\n            }\n        }\n        delete players[player].cardIds; // Clear the player's card array\n    }\n}\n",
  "sourcePath": "/Users/ibrahimallahbuksh/BlockchainProject/contracts/StartGame.sol",
  "compiler": {
    "name": "solc",
    "version": "0.8.19+commit.7dd6d404.Emscripten.clang"
  },
  "schemaVersion": "3.4.16",
  "updatedAt": "2023-11-20T01:47:14.192Z",
  "networkType": "ethereum",
  "devdoc": {
    "kind": "dev",
    "methods": {},
    "version": 1
  },
  "userdoc": {
    "kind": "user",
    "methods": {},
    "version": 1
  }
}