{
  "contractName": "UniqueCards",
  "abi": [
    {
      "inputs": [],
      "stateMutability": "nonpayable",
      "type": "constructor"
    },
    {
      "anonymous": false,
      "inputs": [
        {
          "indexed": true,
          "internalType": "address",
          "name": "owner",
          "type": "address"
        },
        {
          "indexed": true,
          "internalType": "address",
          "name": "approved",
          "type": "address"
        },
        {
          "indexed": true,
          "internalType": "uint256",
          "name": "tokenId",
          "type": "uint256"
        }
      ],
      "name": "Approval",
      "type": "event"
    },
    {
      "anonymous": false,
      "inputs": [
        {
          "indexed": true,
          "internalType": "address",
          "name": "owner",
          "type": "address"
        },
        {
          "indexed": true,
          "internalType": "address",
          "name": "operator",
          "type": "address"
        },
        {
          "indexed": false,
          "internalType": "bool",
          "name": "approved",
          "type": "bool"
        }
      ],
      "name": "ApprovalForAll",
      "type": "event"
    },
    {
      "anonymous": false,
      "inputs": [
        {
          "indexed": true,
          "internalType": "address",
          "name": "previousOwner",
          "type": "address"
        },
        {
          "indexed": true,
          "internalType": "address",
          "name": "newOwner",
          "type": "address"
        }
      ],
      "name": "OwnershipTransferred",
      "type": "event"
    },
    {
      "anonymous": false,
      "inputs": [
        {
          "indexed": true,
          "internalType": "address",
          "name": "from",
          "type": "address"
        },
        {
          "indexed": true,
          "internalType": "address",
          "name": "to",
          "type": "address"
        },
        {
          "indexed": true,
          "internalType": "uint256",
          "name": "tokenId",
          "type": "uint256"
        }
      ],
      "name": "Transfer",
      "type": "event"
    },
    {
      "inputs": [
        {
          "internalType": "address",
          "name": "to",
          "type": "address"
        },
        {
          "internalType": "uint256",
          "name": "tokenId",
          "type": "uint256"
        }
      ],
      "name": "approve",
      "outputs": [],
      "stateMutability": "nonpayable",
      "type": "function"
    },
    {
      "inputs": [
        {
          "internalType": "address",
          "name": "owner",
          "type": "address"
        }
      ],
      "name": "balanceOf",
      "outputs": [
        {
          "internalType": "uint256",
          "name": "",
          "type": "uint256"
        }
      ],
      "stateMutability": "view",
      "type": "function"
    },
    {
      "inputs": [
        {
          "internalType": "uint256",
          "name": "",
          "type": "uint256"
        }
      ],
      "name": "cards",
      "outputs": [
        {
          "internalType": "uint256",
          "name": "id",
          "type": "uint256"
        },
        {
          "internalType": "string",
          "name": "name",
          "type": "string"
        },
        {
          "internalType": "string",
          "name": "description",
          "type": "string"
        },
        {
          "internalType": "uint256",
          "name": "attack",
          "type": "uint256"
        },
        {
          "internalType": "uint256",
          "name": "defense",
          "type": "uint256"
        }
      ],
      "stateMutability": "view",
      "type": "function"
    },
    {
      "inputs": [
        {
          "internalType": "uint256",
          "name": "tokenId",
          "type": "uint256"
        }
      ],
      "name": "getApproved",
      "outputs": [
        {
          "internalType": "address",
          "name": "",
          "type": "address"
        }
      ],
      "stateMutability": "view",
      "type": "function"
    },
    {
      "inputs": [
        {
          "internalType": "address",
          "name": "owner",
          "type": "address"
        },
        {
          "internalType": "address",
          "name": "operator",
          "type": "address"
        }
      ],
      "name": "isApprovedForAll",
      "outputs": [
        {
          "internalType": "bool",
          "name": "",
          "type": "bool"
        }
      ],
      "stateMutability": "view",
      "type": "function"
    },
    {
      "inputs": [],
      "name": "name",
      "outputs": [
        {
          "internalType": "string",
          "name": "",
          "type": "string"
        }
      ],
      "stateMutability": "view",
      "type": "function"
    },
    {
      "inputs": [],
      "name": "owner",
      "outputs": [
        {
          "internalType": "address",
          "name": "",
          "type": "address"
        }
      ],
      "stateMutability": "view",
      "type": "function"
    },
    {
      "inputs": [
        {
          "internalType": "uint256",
          "name": "tokenId",
          "type": "uint256"
        }
      ],
      "name": "ownerOf",
      "outputs": [
        {
          "internalType": "address",
          "name": "",
          "type": "address"
        }
      ],
      "stateMutability": "view",
      "type": "function"
    },
    {
      "inputs": [],
      "name": "renounceOwnership",
      "outputs": [],
      "stateMutability": "nonpayable",
      "type": "function"
    },
    {
      "inputs": [
        {
          "internalType": "address",
          "name": "from",
          "type": "address"
        },
        {
          "internalType": "address",
          "name": "to",
          "type": "address"
        },
        {
          "internalType": "uint256",
          "name": "tokenId",
          "type": "uint256"
        }
      ],
      "name": "safeTransferFrom",
      "outputs": [],
      "stateMutability": "nonpayable",
      "type": "function"
    },
    {
      "inputs": [
        {
          "internalType": "address",
          "name": "from",
          "type": "address"
        },
        {
          "internalType": "address",
          "name": "to",
          "type": "address"
        },
        {
          "internalType": "uint256",
          "name": "tokenId",
          "type": "uint256"
        },
        {
          "internalType": "bytes",
          "name": "data",
          "type": "bytes"
        }
      ],
      "name": "safeTransferFrom",
      "outputs": [],
      "stateMutability": "nonpayable",
      "type": "function"
    },
    {
      "inputs": [
        {
          "internalType": "address",
          "name": "operator",
          "type": "address"
        },
        {
          "internalType": "bool",
          "name": "approved",
          "type": "bool"
        }
      ],
      "name": "setApprovalForAll",
      "outputs": [],
      "stateMutability": "nonpayable",
      "type": "function"
    },
    {
      "inputs": [
        {
          "internalType": "bytes4",
          "name": "interfaceId",
          "type": "bytes4"
        }
      ],
      "name": "supportsInterface",
      "outputs": [
        {
          "internalType": "bool",
          "name": "",
          "type": "bool"
        }
      ],
      "stateMutability": "view",
      "type": "function"
    },
    {
      "inputs": [],
      "name": "symbol",
      "outputs": [
        {
          "internalType": "string",
          "name": "",
          "type": "string"
        }
      ],
      "stateMutability": "view",
      "type": "function"
    },
    {
      "inputs": [
        {
          "internalType": "uint256",
          "name": "index",
          "type": "uint256"
        }
      ],
      "name": "tokenByIndex",
      "outputs": [
        {
          "internalType": "uint256",
          "name": "",
          "type": "uint256"
        }
      ],
      "stateMutability": "view",
      "type": "function"
    },
    {
      "inputs": [
        {
          "internalType": "address",
          "name": "owner",
          "type": "address"
        },
        {
          "internalType": "uint256",
          "name": "index",
          "type": "uint256"
        }
      ],
      "name": "tokenOfOwnerByIndex",
      "outputs": [
        {
          "internalType": "uint256",
          "name": "",
          "type": "uint256"
        }
      ],
      "stateMutability": "view",
      "type": "function"
    },
    {
      "inputs": [
        {
          "internalType": "uint256",
          "name": "tokenId",
          "type": "uint256"
        }
      ],
      "name": "tokenURI",
      "outputs": [
        {
          "internalType": "string",
          "name": "",
          "type": "string"
        }
      ],
      "stateMutability": "view",
      "type": "function"
    },
    {
      "inputs": [],
      "name": "totalSupply",
      "outputs": [
        {
          "internalType": "uint256",
          "name": "",
          "type": "uint256"
        }
      ],
      "stateMutability": "view",
      "type": "function"
    },
    {
      "inputs": [
        {
          "internalType": "address",
          "name": "from",
          "type": "address"
        },
        {
          "internalType": "address",
          "name": "to",
          "type": "address"
        },
        {
          "internalType": "uint256",
          "name": "tokenId",
          "type": "uint256"
        }
      ],
      "name": "transferFrom",
      "outputs": [],
      "stateMutability": "nonpayable",
      "type": "function"
    },
    {
      "inputs": [
        {
          "internalType": "address",
          "name": "newOwner",
          "type": "address"
        }
      ],
      "name": "transferOwnership",
      "outputs": [],
      "stateMutability": "nonpayable",
      "type": "function"
    },
    {
      "inputs": [
        {
          "internalType": "string",
          "name": "name",
          "type": "string"
        },
        {
          "internalType": "string",
          "name": "description",
          "type": "string"
        },
        {
          "internalType": "uint256",
          "name": "attack",
          "type": "uint256"
        },
        {
          "internalType": "uint256",
          "name": "defense",
          "type": "uint256"
        }
      ],
      "name": "createUniqueCard",
      "outputs": [
        {
          "internalType": "uint256",
          "name": "",
          "type": "uint256"
        }
      ],
      "stateMutability": "nonpayable",
      "type": "function"
    },
    {
      "inputs": [
        {
          "internalType": "uint256",
          "name": "cardId",
          "type": "uint256"
        }
      ],
      "name": "purchaseUniqueCard",
      "outputs": [],
      "stateMutability": "payable",
      "type": "function"
    },
    {
      "inputs": [
        {
          "internalType": "uint256",
          "name": "cardId",
          "type": "uint256"
        },
        {
          "internalType": "address",
          "name": "recipient",
          "type": "address"
        }
      ],
      "name": "tradeCard",
      "outputs": [],
      "stateMutability": "nonpayable",
      "type": "function"
    },
    {
      "inputs": [
        {
          "internalType": "uint256",
          "name": "cardId",
          "type": "uint256"
        },
        {
          "internalType": "uint256",
          "name": "percentIncrease",
          "type": "uint256"
        }
      ],
      "name": "increaseCardAttributes",
      "outputs": [],
      "stateMutability": "nonpayable",
      "type": "function"
    }
  ],
  "bytecode": "0x60806040523480156200001157600080fd5b506040518060400160405280600b81526020017f556e6971756543617264730000000000000000000000000000000000000000008152506040518060400160405280600281526020017f554300000000000000000000000000000000000000000000000000000000000081525081600090816200008f919062000412565b508060019081620000a1919062000412565b505050620000c4620000b8620000ca60201b60201c565b620000d260201b60201c565b620004f9565b600033905090565b6000600a60009054906101000a900473ffffffffffffffffffffffffffffffffffffffff16905081600a60006101000a81548173ffffffffffffffffffffffffffffffffffffffff021916908373ffffffffffffffffffffffffffffffffffffffff1602179055508173ffffffffffffffffffffffffffffffffffffffff168173ffffffffffffffffffffffffffffffffffffffff167f8be0079c531659141344cd1fd0a4f28419497f9722a3daafe3b4186f6b6457e060405160405180910390a35050565b600081519050919050565b7f4e487b7100000000000000000000000000000000000000000000000000000000600052604160045260246000fd5b7f4e487b7100000000000000000000000000000000000000000000000000000000600052602260045260246000fd5b600060028204905060018216806200021a57607f821691505b60208210810362000230576200022f620001d2565b5b50919050565b60008190508160005260206000209050919050565b60006020601f8301049050919050565b600082821b905092915050565b6000600883026200029a7fffffffffffffffffffffffffffffffffffffffffffffffffffffffffffffffff826200025b565b620002a686836200025b565b95508019841693508086168417925050509392505050565b6000819050919050565b6000819050919050565b6000620002f3620002ed620002e784620002be565b620002c8565b620002be565b9050919050565b6000819050919050565b6200030f83620002d2565b620003276200031e82620002fa565b84845462000268565b825550505050565b600090565b6200033e6200032f565b6200034b81848462000304565b505050565b5b8181101562000373576200036760008262000334565b60018101905062000351565b5050565b601f821115620003c2576200038c8162000236565b62000397846200024b565b81016020851015620003a7578190505b620003bf620003b6856200024b565b83018262000350565b50505b505050565b600082821c905092915050565b6000620003e760001984600802620003c7565b1980831691505092915050565b6000620004028383620003d4565b9150826002028217905092915050565b6200041d8262000198565b67ffffffffffffffff811115620004395762000438620001a3565b5b62000445825462000201565b6200045282828562000377565b600060209050601f8311600181146200048a576000841562000475578287015190505b620004818582620003f4565b865550620004f1565b601f1984166200049a8662000236565b60005b82811015620004c4578489015182556001820191506020850194506020810190506200049d565b86831015620004e45784890151620004e0601f891682620003d4565b8355505b6001600288020188555050505b505050505050565b613f2980620005096000396000f3fe60806040526004361061014b5760003560e01c8063715018a6116100b6578063b88d4fde1161006f578063b88d4fde146104b8578063c87b56dd146104e1578063e985e9c51461051e578063ec5ac24b1461055b578063f2fde38b14610577578063f7ee23dc146105a05761014b565b8063715018a6146103b85780638a91a6c8146103cf5780638da5cb5b146103f85780638dc107681461042357806395d89b4114610464578063a22cb4651461048f5761014b565b80632f745c59116101085780632f745c591461027257806342842e0e146102af5780634f6ccce7146102d8578063618857ba146103155780636352211e1461033e57806370a082311461037b5761014b565b806301ffc9a71461015057806306fdde031461018d578063081812fc146101b8578063095ea7b3146101f557806318160ddd1461021e57806323b872dd14610249575b600080fd5b34801561015c57600080fd5b5061017760048036038101906101729190612794565b6105dd565b60405161018491906127dc565b60405180910390f35b34801561019957600080fd5b506101a2610657565b6040516101af9190612887565b60405180910390f35b3480156101c457600080fd5b506101df60048036038101906101da91906128df565b6106e9565b6040516101ec919061294d565b60405180910390f35b34801561020157600080fd5b5061021c60048036038101906102179190612994565b61072f565b005b34801561022a57600080fd5b50610233610846565b60405161024091906129e3565b60405180910390f35b34801561025557600080fd5b50610270600480360381019061026b91906129fe565b610853565b005b34801561027e57600080fd5b5061029960048036038101906102949190612994565b6108b3565b6040516102a691906129e3565b60405180910390f35b3480156102bb57600080fd5b506102d660048036038101906102d191906129fe565b610958565b005b3480156102e457600080fd5b506102ff60048036038101906102fa91906128df565b610978565b60405161030c91906129e3565b60405180910390f35b34801561032157600080fd5b5061033c60048036038101906103379190612a51565b6109e9565b005b34801561034a57600080fd5b50610365600480360381019061036091906128df565b610af5565b604051610372919061294d565b60405180910390f35b34801561038757600080fd5b506103a2600480360381019061039d9190612a91565b610b7b565b6040516103af91906129e3565b60405180910390f35b3480156103c457600080fd5b506103cd610c32565b005b3480156103db57600080fd5b506103f660048036038101906103f19190612abe565b610c46565b005b34801561040457600080fd5b5061040d610cdb565b60405161041a919061294d565b60405180910390f35b34801561042f57600080fd5b5061044a600480360381019061044591906128df565b610d05565b60405161045b959493929190612afe565b60405180910390f35b34801561047057600080fd5b50610479610e4b565b6040516104869190612887565b60405180910390f35b34801561049b57600080fd5b506104b660048036038101906104b19190612b8b565b610edd565b005b3480156104c457600080fd5b506104df60048036038101906104da9190612d00565b610ef3565b005b3480156104ed57600080fd5b50610508600480360381019061050391906128df565b610f55565b6040516105159190612887565b60405180910390f35b34801561052a57600080fd5b5061054560048036038101906105409190612d83565b610fbd565b60405161055291906127dc565b60405180910390f35b610575600480360381019061057091906128df565b611051565b005b34801561058357600080fd5b5061059e60048036038101906105999190612a91565b6111e3565b005b3480156105ac57600080fd5b506105c760048036038101906105c29190612e64565b611266565b6040516105d491906129e3565b60405180910390f35b60007f780e9d63000000000000000000000000000000000000000000000000000000007bffffffffffffffffffffffffffffffffffffffffffffffffffffffff1916827bffffffffffffffffffffffffffffffffffffffffffffffffffffffff19161480610650575061064f82611325565b5b9050919050565b60606000805461066690612f32565b80601f016020809104026020016040519081016040528092919081815260200182805461069290612f32565b80156106df5780601f106106b4576101008083540402835291602001916106df565b820191906000526020600020905b8154815290600101906020018083116106c257829003601f168201915b5050505050905090565b60006106f482611407565b6004600083815260200190815260200160002060009054906101000a900473ffffffffffffffffffffffffffffffffffffffff169050919050565b600061073a82610af5565b90508073ffffffffffffffffffffffffffffffffffffffff168373ffffffffffffffffffffffffffffffffffffffff16036107aa576040517f08c379a00000000000000000000000000000000000000000000000000000000081526004016107a190612fd5565b60405180910390fd5b8073ffffffffffffffffffffffffffffffffffffffff166107c9611452565b73ffffffffffffffffffffffffffffffffffffffff1614806107f857506107f7816107f2611452565b610fbd565b5b610837576040517f08c379a000000000000000000000000000000000000000000000000000000000815260040161082e90613067565b60405180910390fd5b610841838361145a565b505050565b6000600880549050905090565b61086461085e611452565b82611513565b6108a3576040517f08c379a000000000000000000000000000000000000000000000000000000000815260040161089a906130f9565b60405180910390fd5b6108ae8383836115a8565b505050565b60006108be83610b7b565b82106108ff576040517f08c379a00000000000000000000000000000000000000000000000000000000081526004016108f69061318b565b60405180910390fd5b600660008473ffffffffffffffffffffffffffffffffffffffff1673ffffffffffffffffffffffffffffffffffffffff168152602001908152602001600020600083815260200190815260200160002054905092915050565b61097383838360405180602001604052806000815250610ef3565b505050565b6000610982610846565b82106109c3576040517f08c379a00000000000000000000000000000000000000000000000000000000081526004016109ba9061321d565b60405180910390fd5b600882815481106109d7576109d661323d565b5b90600052602060002001549050919050565b6109f16118a1565b81600c60008481526020019081526020016000206000015414610a49576040517f08c379a0000000000000000000000000000000000000000000000000000000008152600401610a40906132b8565b60405180910390fd5b6064816064610a589190613307565b600c600085815260200190815260200160002060030154610a79919061333b565b610a8391906133ac565b600c6000848152602001908152602001600020600301819055506064816064610aac9190613307565b600c600085815260200190815260200160002060040154610acd919061333b565b610ad791906133ac565b600c6000848152602001908152602001600020600401819055505050565b600080610b018361191f565b9050600073ffffffffffffffffffffffffffffffffffffffff168173ffffffffffffffffffffffffffffffffffffffff1603610b72576040517f08c379a0000000000000000000000000000000000000000000000000000000008152600401610b6990613429565b60405180910390fd5b80915050919050565b60008073ffffffffffffffffffffffffffffffffffffffff168273ffffffffffffffffffffffffffffffffffffffff1603610beb576040517f08c379a0000000000000000000000000000000000000000000000000000000008152600401610be2906134bb565b60405180910390fd5b600360008373ffffffffffffffffffffffffffffffffffffffff1673ffffffffffffffffffffffffffffffffffffffff168152602001908152602001600020549050919050565b610c3a6118a1565b610c44600061195c565b565b3373ffffffffffffffffffffffffffffffffffffffff16610c6683610af5565b73ffffffffffffffffffffffffffffffffffffffff1614610cbc576040517f08c379a0000000000000000000000000000000000000000000000000000000008152600401610cb390613527565b60405180910390fd5b610cd733828460405180602001604052806000815250611a22565b5050565b6000600a60009054906101000a900473ffffffffffffffffffffffffffffffffffffffff16905090565b600c602052806000526040600020600091509050806000015490806001018054610d2e90612f32565b80601f0160208091040260200160405190810160405280929190818152602001828054610d5a90612f32565b8015610da75780601f10610d7c57610100808354040283529160200191610da7565b820191906000526020600020905b815481529060010190602001808311610d8a57829003601f168201915b505050505090806002018054610dbc90612f32565b80601f0160208091040260200160405190810160405280929190818152602001828054610de890612f32565b8015610e355780601f10610e0a57610100808354040283529160200191610e35565b820191906000526020600020905b815481529060010190602001808311610e1857829003601f168201915b5050505050908060030154908060040154905085565b606060018054610e5a90612f32565b80601f0160208091040260200160405190810160405280929190818152602001828054610e8690612f32565b8015610ed35780601f10610ea857610100808354040283529160200191610ed3565b820191906000526020600020905b815481529060010190602001808311610eb657829003601f168201915b5050505050905090565b610eef610ee8611452565b8383611a7e565b5050565b610f04610efe611452565b83611513565b610f43576040517f08c379a0000000000000000000000000000000000000000000000000000000008152600401610f3a906130f9565b60405180910390fd5b610f4f84848484611a22565b50505050565b6060610f6082611407565b6000610f6a611bea565b90506000815111610f8a5760405180602001604052806000815250610fb5565b80610f9484611c01565b604051602001610fa5929190613583565b6040516020818303038152906040525b915050919050565b6000600560008473ffffffffffffffffffffffffffffffffffffffff1673ffffffffffffffffffffffffffffffffffffffff16815260200190815260200160002060008373ffffffffffffffffffffffffffffffffffffffff1673ffffffffffffffffffffffffffffffffffffffff16815260200190815260200160002060009054906101000a900460ff16905092915050565b80600c600083815260200190815260200160002060000154146110a9576040517f08c379a00000000000000000000000000000000000000000000000000000000081526004016110a0906132b8565b60405180910390fd5b6110b1610cdb565b73ffffffffffffffffffffffffffffffffffffffff166110d082610af5565b73ffffffffffffffffffffffffffffffffffffffff1614611126576040517f08c379a000000000000000000000000000000000000000000000000000000000815260040161111d90613619565b60405180910390fd5b662386f26fc10000341015611170576040517f08c379a000000000000000000000000000000000000000000000000000000000815260040161116790613685565b60405180910390fd5b61119261117b610cdb565b338360405180602001604052806000815250611a22565b61119a610cdb565b73ffffffffffffffffffffffffffffffffffffffff166108fc349081150290604051600060405180830381858888f193505050501580156111df573d6000803e3d6000fd5b5050565b6111eb6118a1565b600073ffffffffffffffffffffffffffffffffffffffff168173ffffffffffffffffffffffffffffffffffffffff160361125a576040517f08c379a000000000000000000000000000000000000000000000000000000000815260040161125190613717565b60405180910390fd5b6112638161195c565b50565b60006112706118a1565b61127a600b611ccf565b6000611286600b611ce5565b90506040518060a0016040528082815260200187815260200186815260200185815260200184815250600c60008381526020019081526020016000206000820151816000015560208201518160010190816112e191906138e3565b5060408201518160020190816112f791906138e3565b5060608201518160030155608082015181600401559050506113193382611cf3565b80915050949350505050565b60007f80ac58cd000000000000000000000000000000000000000000000000000000007bffffffffffffffffffffffffffffffffffffffffffffffffffffffff1916827bffffffffffffffffffffffffffffffffffffffffffffffffffffffff191614806113f057507f5b5e139f000000000000000000000000000000000000000000000000000000007bffffffffffffffffffffffffffffffffffffffffffffffffffffffff1916827bffffffffffffffffffffffffffffffffffffffffffffffffffffffff1916145b8061140057506113ff82611f10565b5b9050919050565b61141081611f7a565b61144f576040517f08c379a000000000000000000000000000000000000000000000000000000000815260040161144690613429565b60405180910390fd5b50565b600033905090565b816004600083815260200190815260200160002060006101000a81548173ffffffffffffffffffffffffffffffffffffffff021916908373ffffffffffffffffffffffffffffffffffffffff160217905550808273ffffffffffffffffffffffffffffffffffffffff166114cd83610af5565b73ffffffffffffffffffffffffffffffffffffffff167f8c5be1e5ebec7d5bd14f71427d1e84f3dd0314c0f7b2291e5b200ac8c7c3b92560405160405180910390a45050565b60008061151f83610af5565b90508073ffffffffffffffffffffffffffffffffffffffff168473ffffffffffffffffffffffffffffffffffffffff16148061156157506115608185610fbd565b5b8061159f57508373ffffffffffffffffffffffffffffffffffffffff16611587846106e9565b73ffffffffffffffffffffffffffffffffffffffff16145b91505092915050565b8273ffffffffffffffffffffffffffffffffffffffff166115c882610af5565b73ffffffffffffffffffffffffffffffffffffffff161461161e576040517f08c379a000000000000000000000000000000000000000000000000000000000815260040161161590613a27565b60405180910390fd5b600073ffffffffffffffffffffffffffffffffffffffff168273ffffffffffffffffffffffffffffffffffffffff160361168d576040517f08c379a000000000000000000000000000000000000000000000000000000000815260040161168490613ab9565b60405180910390fd5b61169a8383836001611fbb565b8273ffffffffffffffffffffffffffffffffffffffff166116ba82610af5565b73ffffffffffffffffffffffffffffffffffffffff1614611710576040517f08c379a000000000000000000000000000000000000000000000000000000000815260040161170790613a27565b60405180910390fd5b6004600082815260200190815260200160002060006101000a81549073ffffffffffffffffffffffffffffffffffffffff02191690556001600360008573ffffffffffffffffffffffffffffffffffffffff1673ffffffffffffffffffffffffffffffffffffffff168152602001908152602001600020600082825403925050819055506001600360008473ffffffffffffffffffffffffffffffffffffffff1673ffffffffffffffffffffffffffffffffffffffff16815260200190815260200160002060008282540192505081905550816002600083815260200190815260200160002060006101000a81548173ffffffffffffffffffffffffffffffffffffffff021916908373ffffffffffffffffffffffffffffffffffffffff160217905550808273ffffffffffffffffffffffffffffffffffffffff168473ffffffffffffffffffffffffffffffffffffffff167fddf252ad1be2c89b69c2b068fc378daa952ba7f163c4a11628f55a4df523b3ef60405160405180910390a461189c8383836001612119565b505050565b6118a9611452565b73ffffffffffffffffffffffffffffffffffffffff166118c7610cdb565b73ffffffffffffffffffffffffffffffffffffffff161461191d576040517f08c379a000000000000000000000000000000000000000000000000000000000815260040161191490613b25565b60405180910390fd5b565b60006002600083815260200190815260200160002060009054906101000a900473ffffffffffffffffffffffffffffffffffffffff169050919050565b6000600a60009054906101000a900473ffffffffffffffffffffffffffffffffffffffff16905081600a60006101000a81548173ffffffffffffffffffffffffffffffffffffffff021916908373ffffffffffffffffffffffffffffffffffffffff1602179055508173ffffffffffffffffffffffffffffffffffffffff168173ffffffffffffffffffffffffffffffffffffffff167f8be0079c531659141344cd1fd0a4f28419497f9722a3daafe3b4186f6b6457e060405160405180910390a35050565b611a2d8484846115a8565b611a398484848461211f565b611a78576040517f08c379a0000000000000000000000000000000000000000000000000000000008152600401611a6f90613bb7565b60405180910390fd5b50505050565b8173ffffffffffffffffffffffffffffffffffffffff168373ffffffffffffffffffffffffffffffffffffffff1603611aec576040517f08c379a0000000000000000000000000000000000000000000000000000000008152600401611ae390613c23565b60405180910390fd5b80600560008573ffffffffffffffffffffffffffffffffffffffff1673ffffffffffffffffffffffffffffffffffffffff16815260200190815260200160002060008473ffffffffffffffffffffffffffffffffffffffff1673ffffffffffffffffffffffffffffffffffffffff16815260200190815260200160002060006101000a81548160ff0219169083151502179055508173ffffffffffffffffffffffffffffffffffffffff168373ffffffffffffffffffffffffffffffffffffffff167f17307eab39ab6107e8899845ad3d59bd9653f200f220920489ca2b5937696c3183604051611bdd91906127dc565b60405180910390a3505050565b606060405180602001604052806000815250905090565b606060006001611c10846122a6565b01905060008167ffffffffffffffff811115611c2f57611c2e612bd5565b5b6040519080825280601f01601f191660200182016040528015611c615781602001600182028036833780820191505090505b509050600082602001820190505b600115611cc4578080600190039150507f3031323334353637383961626364656600000000000000000000000000000000600a86061a8153600a8581611cb857611cb761337d565b5b04945060008503611c6f575b819350505050919050565b6001816000016000828254019250508190555050565b600081600001549050919050565b600073ffffffffffffffffffffffffffffffffffffffff168273ffffffffffffffffffffffffffffffffffffffff1603611d62576040517f08c379a0000000000000000000000000000000000000000000000000000000008152600401611d5990613c8f565b60405180910390fd5b611d6b81611f7a565b15611dab576040517f08c379a0000000000000000000000000000000000000000000000000000000008152600401611da290613cfb565b60405180910390fd5b611db9600083836001611fbb565b611dc281611f7a565b15611e02576040517f08c379a0000000000000000000000000000000000000000000000000000000008152600401611df990613cfb565b60405180910390fd5b6001600360008473ffffffffffffffffffffffffffffffffffffffff1673ffffffffffffffffffffffffffffffffffffffff16815260200190815260200160002060008282540192505081905550816002600083815260200190815260200160002060006101000a81548173ffffffffffffffffffffffffffffffffffffffff021916908373ffffffffffffffffffffffffffffffffffffffff160217905550808273ffffffffffffffffffffffffffffffffffffffff16600073ffffffffffffffffffffffffffffffffffffffff167fddf252ad1be2c89b69c2b068fc378daa952ba7f163c4a11628f55a4df523b3ef60405160405180910390a4611f0c600083836001612119565b5050565b60007f01ffc9a7000000000000000000000000000000000000000000000000000000007bffffffffffffffffffffffffffffffffffffffffffffffffffffffff1916827bffffffffffffffffffffffffffffffffffffffffffffffffffffffff1916149050919050565b60008073ffffffffffffffffffffffffffffffffffffffff16611f9c8361191f565b73ffffffffffffffffffffffffffffffffffffffff1614159050919050565b611fc7848484846123f9565b600181111561200b576040517f08c379a000000000000000000000000000000000000000000000000000000000815260040161200290613d8d565b60405180910390fd5b6000829050600073ffffffffffffffffffffffffffffffffffffffff168573ffffffffffffffffffffffffffffffffffffffff16036120525761204d816123ff565b612091565b8373ffffffffffffffffffffffffffffffffffffffff168573ffffffffffffffffffffffffffffffffffffffff16146120905761208f8582612448565b5b5b600073ffffffffffffffffffffffffffffffffffffffff168473ffffffffffffffffffffffffffffffffffffffff16036120d3576120ce816125b5565b612112565b8473ffffffffffffffffffffffffffffffffffffffff168473ffffffffffffffffffffffffffffffffffffffff1614612111576121108482612686565b5b5b5050505050565b50505050565b60006121408473ffffffffffffffffffffffffffffffffffffffff16612705565b15612299578373ffffffffffffffffffffffffffffffffffffffff1663150b7a02612169611452565b8786866040518563ffffffff1660e01b815260040161218b9493929190613e02565b6020604051808303816000875af19250505080156121c757506040513d601f19601f820116820180604052508101906121c49190613e63565b60015b612249573d80600081146121f7576040519150601f19603f3d011682016040523d82523d6000602084013e6121fc565b606091505b506000815103612241576040517f08c379a000000000000000000000000000000000000000000000000000000000815260040161223890613bb7565b60405180910390fd5b805181602001fd5b63150b7a0260e01b7bffffffffffffffffffffffffffffffffffffffffffffffffffffffff1916817bffffffffffffffffffffffffffffffffffffffffffffffffffffffff19161491505061229e565b600190505b949350505050565b600080600090507a184f03e93ff9f4daa797ed6e38ed64bf6a1f0100000000000000008310612304577a184f03e93ff9f4daa797ed6e38ed64bf6a1f01000000000000000083816122fa576122f961337d565b5b0492506040810190505b6d04ee2d6d415b85acef81000000008310612341576d04ee2d6d415b85acef810000000083816123375761233661337d565b5b0492506020810190505b662386f26fc10000831061237057662386f26fc1000083816123665761236561337d565b5b0492506010810190505b6305f5e1008310612399576305f5e100838161238f5761238e61337d565b5b0492506008810190505b61271083106123be5761271083816123b4576123b361337d565b5b0492506004810190505b606483106123e157606483816123d7576123d661337d565b5b0492506002810190505b600a83106123f0576001810190505b80915050919050565b50505050565b6008805490506009600083815260200190815260200160002081905550600881908060018154018082558091505060019003906000526020600020016000909190919091505550565b6000600161245584610b7b565b61245f9190613e90565b9050600060076000848152602001908152602001600020549050818114612544576000600660008673ffffffffffffffffffffffffffffffffffffffff1673ffffffffffffffffffffffffffffffffffffffff168152602001908152602001600020600084815260200190815260200160002054905080600660008773ffffffffffffffffffffffffffffffffffffffff1673ffffffffffffffffffffffffffffffffffffffff168152602001908152602001600020600084815260200190815260200160002081905550816007600083815260200190815260200160002081905550505b6007600084815260200190815260200160002060009055600660008573ffffffffffffffffffffffffffffffffffffffff1673ffffffffffffffffffffffffffffffffffffffff16815260200190815260200160002060008381526020019081526020016000206000905550505050565b600060016008805490506125c99190613e90565b90506000600960008481526020019081526020016000205490506000600883815481106125f9576125f861323d565b5b90600052602060002001549050806008838154811061261b5761261a61323d565b5b90600052602060002001819055508160096000838152602001908152602001600020819055506009600085815260200190815260200160002060009055600880548061266a57612669613ec4565b5b6001900381819060005260206000200160009055905550505050565b600061269183610b7b565b905081600660008573ffffffffffffffffffffffffffffffffffffffff1673ffffffffffffffffffffffffffffffffffffffff168152602001908152602001600020600083815260200190815260200160002081905550806007600084815260200190815260200160002081905550505050565b6000808273ffffffffffffffffffffffffffffffffffffffff163b119050919050565b6000604051905090565b600080fd5b600080fd5b60007fffffffff0000000000000000000000000000000000000000000000000000000082169050919050565b6127718161273c565b811461277c57600080fd5b50565b60008135905061278e81612768565b92915050565b6000602082840312156127aa576127a9612732565b5b60006127b88482850161277f565b91505092915050565b60008115159050919050565b6127d6816127c1565b82525050565b60006020820190506127f160008301846127cd565b92915050565b600081519050919050565b600082825260208201905092915050565b60005b83811015612831578082015181840152602081019050612816565b60008484015250505050565b6000601f19601f8301169050919050565b6000612859826127f7565b6128638185612802565b9350612873818560208601612813565b61287c8161283d565b840191505092915050565b600060208201905081810360008301526128a1818461284e565b905092915050565b6000819050919050565b6128bc816128a9565b81146128c757600080fd5b50565b6000813590506128d9816128b3565b92915050565b6000602082840312156128f5576128f4612732565b5b6000612903848285016128ca565b91505092915050565b600073ffffffffffffffffffffffffffffffffffffffff82169050919050565b60006129378261290c565b9050919050565b6129478161292c565b82525050565b6000602082019050612962600083018461293e565b92915050565b6129718161292c565b811461297c57600080fd5b50565b60008135905061298e81612968565b92915050565b600080604083850312156129ab576129aa612732565b5b60006129b98582860161297f565b92505060206129ca858286016128ca565b9150509250929050565b6129dd816128a9565b82525050565b60006020820190506129f860008301846129d4565b92915050565b600080600060608486031215612a1757612a16612732565b5b6000612a258682870161297f565b9350506020612a368682870161297f565b9250506040612a47868287016128ca565b9150509250925092565b60008060408385031215612a6857612a67612732565b5b6000612a76858286016128ca565b9250506020612a87858286016128ca565b9150509250929050565b600060208284031215612aa757612aa6612732565b5b6000612ab58482850161297f565b91505092915050565b60008060408385031215612ad557612ad4612732565b5b6000612ae3858286016128ca565b9250506020612af48582860161297f565b9150509250929050565b600060a082019050612b1360008301886129d4565b8181036020830152612b25818761284e565b90508181036040830152612b39818661284e565b9050612b4860608301856129d4565b612b5560808301846129d4565b9695505050505050565b612b68816127c1565b8114612b7357600080fd5b50565b600081359050612b8581612b5f565b92915050565b60008060408385031215612ba257612ba1612732565b5b6000612bb08582860161297f565b9250506020612bc185828601612b76565b9150509250929050565b600080fd5b600080fd5b7f4e487b7100000000000000000000000000000000000000000000000000000000600052604160045260246000fd5b612c0d8261283d565b810181811067ffffffffffffffff82111715612c2c57612c2b612bd5565b5b80604052505050565b6000612c3f612728565b9050612c4b8282612c04565b919050565b600067ffffffffffffffff821115612c6b57612c6a612bd5565b5b612c748261283d565b9050602081019050919050565b82818337600083830152505050565b6000612ca3612c9e84612c50565b612c35565b905082815260208101848484011115612cbf57612cbe612bd0565b5b612cca848285612c81565b509392505050565b600082601f830112612ce757612ce6612bcb565b5b8135612cf7848260208601612c90565b91505092915050565b60008060008060808587031215612d1a57612d19612732565b5b6000612d288782880161297f565b9450506020612d398782880161297f565b9350506040612d4a878288016128ca565b925050606085013567ffffffffffffffff811115612d6b57612d6a612737565b5b612d7787828801612cd2565b91505092959194509250565b60008060408385031215612d9a57612d99612732565b5b6000612da88582860161297f565b9250506020612db98582860161297f565b9150509250929050565b600067ffffffffffffffff821115612dde57612ddd612bd5565b5b612de78261283d565b9050602081019050919050565b6000612e07612e0284612dc3565b612c35565b905082815260208101848484011115612e2357612e22612bd0565b5b612e2e848285612c81565b509392505050565b600082601f830112612e4b57612e4a612bcb565b5b8135612e5b848260208601612df4565b91505092915050565b60008060008060808587031215612e7e57612e7d612732565b5b600085013567ffffffffffffffff811115612e9c57612e9b612737565b5b612ea887828801612e36565b945050602085013567ffffffffffffffff811115612ec957612ec8612737565b5b612ed587828801612e36565b9350506040612ee6878288016128ca565b9250506060612ef7878288016128ca565b91505092959194509250565b7f4e487b7100000000000000000000000000000000000000000000000000000000600052602260045260246000fd5b60006002820490506001821680612f4a57607f821691505b602082108103612f5d57612f5c612f03565b5b50919050565b7f4552433732313a20617070726f76616c20746f2063757272656e74206f776e6560008201527f7200000000000000000000000000000000000000000000000000000000000000602082015250565b6000612fbf602183612802565b9150612fca82612f63565b604082019050919050565b60006020820190508181036000830152612fee81612fb2565b9050919050565b7f4552433732313a20617070726f76652063616c6c6572206973206e6f7420746f60008201527f6b656e206f776e6572206f7220617070726f76656420666f7220616c6c000000602082015250565b6000613051603d83612802565b915061305c82612ff5565b604082019050919050565b6000602082019050818103600083015261308081613044565b9050919050565b7f4552433732313a2063616c6c6572206973206e6f7420746f6b656e206f776e6560008201527f72206f7220617070726f76656400000000000000000000000000000000000000602082015250565b60006130e3602d83612802565b91506130ee82613087565b604082019050919050565b60006020820190508181036000830152613112816130d6565b9050919050565b7f455243373231456e756d657261626c653a206f776e657220696e646578206f7560008201527f74206f6620626f756e6473000000000000000000000000000000000000000000602082015250565b6000613175602b83612802565b915061318082613119565b604082019050919050565b600060208201905081810360008301526131a481613168565b9050919050565b7f455243373231456e756d657261626c653a20676c6f62616c20696e646578206f60008201527f7574206f6620626f756e64730000000000000000000000000000000000000000602082015250565b6000613207602c83612802565b9150613212826131ab565b604082019050919050565b60006020820190508181036000830152613236816131fa565b9050919050565b7f4e487b7100000000000000000000000000000000000000000000000000000000600052603260045260246000fd5b7f4361726420646f6573206e6f742065786973742e000000000000000000000000600082015250565b60006132a2601483612802565b91506132ad8261326c565b602082019050919050565b600060208201905081810360008301526132d181613295565b9050919050565b7f4e487b7100000000000000000000000000000000000000000000000000000000600052601160045260246000fd5b6000613312826128a9565b915061331d836128a9565b9250828201905080821115613335576133346132d8565b5b92915050565b6000613346826128a9565b9150613351836128a9565b925082820261335f816128a9565b91508282048414831517613376576133756132d8565b5b5092915050565b7f4e487b7100000000000000000000000000000000000000000000000000000000600052601260045260246000fd5b60006133b7826128a9565b91506133c2836128a9565b9250826133d2576133d161337d565b5b828204905092915050565b7f4552433732313a20696e76616c696420746f6b656e2049440000000000000000600082015250565b6000613413601883612802565b915061341e826133dd565b602082019050919050565b6000602082019050818103600083015261344281613406565b9050919050565b7f4552433732313a2061646472657373207a65726f206973206e6f74206120766160008201527f6c6964206f776e65720000000000000000000000000000000000000000000000602082015250565b60006134a5602983612802565b91506134b082613449565b604082019050919050565b600060208201905081810360008301526134d481613498565b9050919050565b7f4e6f7420746865206f776e6572206f662074686520636172642e000000000000600082015250565b6000613511601a83612802565b915061351c826134db565b602082019050919050565b6000602082019050818103600083015261354081613504565b9050919050565b600081905092915050565b600061355d826127f7565b6135678185613547565b9350613577818560208601612813565b80840191505092915050565b600061358f8285613552565b915061359b8284613552565b91508190509392505050565b7f43617264206973206e6f7420617661696c61626c6520666f722070757263686160008201527f73652e0000000000000000000000000000000000000000000000000000000000602082015250565b6000613603602383612802565b915061360e826135a7565b604082019050919050565b60006020820190508181036000830152613632816135f6565b9050919050565b7f496e73756666696369656e74204554482073656e742e00000000000000000000600082015250565b600061366f601683612802565b915061367a82613639565b602082019050919050565b6000602082019050818103600083015261369e81613662565b9050919050565b7f4f776e61626c653a206e6577206f776e657220697320746865207a65726f206160008201527f6464726573730000000000000000000000000000000000000000000000000000602082015250565b6000613701602683612802565b915061370c826136a5565b604082019050919050565b60006020820190508181036000830152613730816136f4565b9050919050565b60008190508160005260206000209050919050565b60006020601f8301049050919050565b600082821b905092915050565b6000600883026137997fffffffffffffffffffffffffffffffffffffffffffffffffffffffffffffffff8261375c565b6137a3868361375c565b95508019841693508086168417925050509392505050565b6000819050919050565b60006137e06137db6137d6846128a9565b6137bb565b6128a9565b9050919050565b6000819050919050565b6137fa836137c5565b61380e613806826137e7565b848454613769565b825550505050565b600090565b613823613816565b61382e8184846137f1565b505050565b5b818110156138525761384760008261381b565b600181019050613834565b5050565b601f8211156138975761386881613737565b6138718461374c565b81016020851015613880578190505b61389461388c8561374c565b830182613833565b50505b505050565b600082821c905092915050565b60006138ba6000198460080261389c565b1980831691505092915050565b60006138d383836138a9565b9150826002028217905092915050565b6138ec826127f7565b67ffffffffffffffff81111561390557613904612bd5565b5b61390f8254612f32565b61391a828285613856565b600060209050601f83116001811461394d576000841561393b578287015190505b61394585826138c7565b8655506139ad565b601f19841661395b86613737565b60005b828110156139835784890151825560018201915060208501945060208101905061395e565b868310156139a0578489015161399c601f8916826138a9565b8355505b6001600288020188555050505b505050505050565b7f4552433732313a207472616e736665722066726f6d20696e636f72726563742060008201527f6f776e6572000000000000000000000000000000000000000000000000000000602082015250565b6000613a11602583612802565b9150613a1c826139b5565b604082019050919050565b60006020820190508181036000830152613a4081613a04565b9050919050565b7f4552433732313a207472616e7366657220746f20746865207a65726f2061646460008201527f7265737300000000000000000000000000000000000000000000000000000000602082015250565b6000613aa3602483612802565b9150613aae82613a47565b604082019050919050565b60006020820190508181036000830152613ad281613a96565b9050919050565b7f4f776e61626c653a2063616c6c6572206973206e6f7420746865206f776e6572600082015250565b6000613b0f602083612802565b9150613b1a82613ad9565b602082019050919050565b60006020820190508181036000830152613b3e81613b02565b9050919050565b7f4552433732313a207472616e7366657220746f206e6f6e20455243373231526560008201527f63656976657220696d706c656d656e7465720000000000000000000000000000602082015250565b6000613ba1603283612802565b9150613bac82613b45565b604082019050919050565b60006020820190508181036000830152613bd081613b94565b9050919050565b7f4552433732313a20617070726f766520746f2063616c6c657200000000000000600082015250565b6000613c0d601983612802565b9150613c1882613bd7565b602082019050919050565b60006020820190508181036000830152613c3c81613c00565b9050919050565b7f4552433732313a206d696e7420746f20746865207a65726f2061646472657373600082015250565b6000613c79602083612802565b9150613c8482613c43565b602082019050919050565b60006020820190508181036000830152613ca881613c6c565b9050919050565b7f4552433732313a20746f6b656e20616c7265616479206d696e74656400000000600082015250565b6000613ce5601c83612802565b9150613cf082613caf565b602082019050919050565b60006020820190508181036000830152613d1481613cd8565b9050919050565b7f455243373231456e756d657261626c653a20636f6e736563757469766520747260008201527f616e7366657273206e6f7420737570706f727465640000000000000000000000602082015250565b6000613d77603583612802565b9150613d8282613d1b565b604082019050919050565b60006020820190508181036000830152613da681613d6a565b9050919050565b600081519050919050565b600082825260208201905092915050565b6000613dd482613dad565b613dde8185613db8565b9350613dee818560208601612813565b613df78161283d565b840191505092915050565b6000608082019050613e17600083018761293e565b613e24602083018661293e565b613e3160408301856129d4565b8181036060830152613e438184613dc9565b905095945050505050565b600081519050613e5d81612768565b92915050565b600060208284031215613e7957613e78612732565b5b6000613e8784828501613e4e565b91505092915050565b6000613e9b826128a9565b9150613ea6836128a9565b9250828203905081811115613ebe57613ebd6132d8565b5b92915050565b7f4e487b7100000000000000000000000000000000000000000000000000000000600052603160045260246000fdfea26469706673582212205926a1f12b38c8e8433693b9f7b09f07918249305a2ba15f99e18d247a155e1464736f6c63430008130033",
  "immutableReferences": {},
  "source": "// SPDX-License-Identifier: MIT\npragma solidity ^0.8.19;\n\nimport \"@openzeppelin/contracts/token/ERC721/extensions/ERC721Enumerable.sol\";\nimport \"@openzeppelin/contracts/access/Ownable.sol\";\nimport \"@openzeppelin/contracts/utils/Counters.sol\";\n\ncontract UniqueCards is ERC721Enumerable, Ownable {\n    using Counters for Counters.Counter;\n    Counters.Counter private _tokenIds;\n\n    struct Card {\n        uint256 id;\n        string name;\n        string description;\n        uint256 attack;\n        uint256 defense;\n    }\n\n    mapping(uint256 => Card) public cards;\n\n    constructor() ERC721(\"UniqueCards\", \"UC\") {}\n\n    function createUniqueCard(\n        string memory name,\n        string memory description,\n        uint256 attack,\n        uint256 defense\n    ) external onlyOwner returns (uint256) {\n        _tokenIds.increment();\n        uint256 newCardId = _tokenIds.current();\n\n        cards[newCardId] = Card({\n            id: newCardId,\n            name: name,\n            description: description,\n            attack: attack,\n            defense: defense\n        });\n\n        _mint(msg.sender, newCardId);\n        return newCardId;\n    }\n\n    function purchaseUniqueCard(uint256 cardId) external payable {\n        // Ensure the card exists\n        require(cards[cardId].id == cardId, \"Card does not exist.\");\n\n        // Check if the card is owned by the contract owner/admin\n        require(\n            ownerOf(cardId) == owner(),\n            \"Card is not available for purchase.\"\n        );\n\n        // Implement the logic for the purchase amount (e.g., fixed amount, auction, etc.)\n        require(msg.value >= 0.01 ether, \"Insufficient ETH sent.\");\n\n        // Transfer ownership of the card to the buyer\n        _safeTransfer(owner(), msg.sender, cardId, \"\");\n\n        // Transfer the ETH to the contract owner or another wallet\n        payable(owner()).transfer(msg.value);\n    }\n\n    function tradeCard(uint256 cardId, address recipient) external {\n        // Ensure the caller is the current owner of the card\n        require(ownerOf(cardId) == msg.sender, \"Not the owner of the card.\");\n\n        // Safely transfer the card to the recipient\n        _safeTransfer(msg.sender, recipient, cardId, \"\");\n    }\n\n    function increaseCardAttributes(\n        uint256 cardId,\n        uint256 percentIncrease\n    ) external onlyOwner {\n        require(cards[cardId].id == cardId, \"Card does not exist.\");\n        cards[cardId].attack =\n            (cards[cardId].attack * (100 + percentIncrease)) /\n            100;\n        cards[cardId].defense =\n            (cards[cardId].defense * (100 + percentIncrease)) /\n            100;\n    }\n}\n",
  "sourcePath": "/Users/ibrahimallahbuksh/BlockchainProject/contracts/ERC721SmartContract.sol",
  "compiler": {
    "name": "solc",
    "version": "0.8.19+commit.7dd6d404.Emscripten.clang"
  },
  "schemaVersion": "3.4.16",
  "updatedAt": "2023-11-18T21:26:45.121Z",
  "devdoc": {
    "events": {
      "Approval(address,address,uint256)": {
        "details": "Emitted when `owner` enables `approved` to manage the `tokenId` token."
      },
      "ApprovalForAll(address,address,bool)": {
        "details": "Emitted when `owner` enables or disables (`approved`) `operator` to manage all of its assets."
      },
      "Transfer(address,address,uint256)": {
        "details": "Emitted when `tokenId` token is transferred from `from` to `to`."
      }
    },
    "kind": "dev",
    "methods": {
      "approve(address,uint256)": {
        "details": "See {IERC721-approve}."
      },
      "balanceOf(address)": {
        "details": "See {IERC721-balanceOf}."
      },
      "getApproved(uint256)": {
        "details": "See {IERC721-getApproved}."
      },
      "isApprovedForAll(address,address)": {
        "details": "See {IERC721-isApprovedForAll}."
      },
      "name()": {
        "details": "See {IERC721Metadata-name}."
      },
      "owner()": {
        "details": "Returns the address of the current owner."
      },
      "ownerOf(uint256)": {
        "details": "See {IERC721-ownerOf}."
      },
      "renounceOwnership()": {
        "details": "Leaves the contract without owner. It will not be possible to call `onlyOwner` functions. Can only be called by the current owner. NOTE: Renouncing ownership will leave the contract without an owner, thereby disabling any functionality that is only available to the owner."
      },
      "safeTransferFrom(address,address,uint256)": {
        "details": "See {IERC721-safeTransferFrom}."
      },
      "safeTransferFrom(address,address,uint256,bytes)": {
        "details": "See {IERC721-safeTransferFrom}."
      },
      "setApprovalForAll(address,bool)": {
        "details": "See {IERC721-setApprovalForAll}."
      },
      "supportsInterface(bytes4)": {
        "details": "See {IERC165-supportsInterface}."
      },
      "symbol()": {
        "details": "See {IERC721Metadata-symbol}."
      },
      "tokenByIndex(uint256)": {
        "details": "See {IERC721Enumerable-tokenByIndex}."
      },
      "tokenOfOwnerByIndex(address,uint256)": {
        "details": "See {IERC721Enumerable-tokenOfOwnerByIndex}."
      },
      "tokenURI(uint256)": {
        "details": "See {IERC721Metadata-tokenURI}."
      },
      "totalSupply()": {
        "details": "See {IERC721Enumerable-totalSupply}."
      },
      "transferFrom(address,address,uint256)": {
        "details": "See {IERC721-transferFrom}."
      },
      "transferOwnership(address)": {
        "details": "Transfers ownership of the contract to a new account (`newOwner`). Can only be called by the current owner."
      }
    },
    "version": 1
  },
  "userdoc": {
    "kind": "user",
    "methods": {},
    "version": 1
  }
}