{
  "contractName": "UniqueCards",
  "abi": [
    {
      "inputs": [],
      "stateMutability": "nonpayable",
      "type": "constructor"
    },
    {
      "anonymous": false,
      "inputs": [
        {
          "indexed": true,
          "internalType": "address",
          "name": "owner",
          "type": "address"
        },
        {
          "indexed": true,
          "internalType": "address",
          "name": "approved",
          "type": "address"
        },
        {
          "indexed": true,
          "internalType": "uint256",
          "name": "tokenId",
          "type": "uint256"
        }
      ],
      "name": "Approval",
      "type": "event"
    },
    {
      "anonymous": false,
      "inputs": [
        {
          "indexed": true,
          "internalType": "address",
          "name": "owner",
          "type": "address"
        },
        {
          "indexed": true,
          "internalType": "address",
          "name": "operator",
          "type": "address"
        },
        {
          "indexed": false,
          "internalType": "bool",
          "name": "approved",
          "type": "bool"
        }
      ],
      "name": "ApprovalForAll",
      "type": "event"
    },
    {
      "anonymous": false,
      "inputs": [
        {
          "indexed": true,
          "internalType": "address",
          "name": "previousOwner",
          "type": "address"
        },
        {
          "indexed": true,
          "internalType": "address",
          "name": "newOwner",
          "type": "address"
        }
      ],
      "name": "OwnershipTransferred",
      "type": "event"
    },
    {
      "anonymous": false,
      "inputs": [
        {
          "indexed": true,
          "internalType": "address",
          "name": "from",
          "type": "address"
        },
        {
          "indexed": true,
          "internalType": "address",
          "name": "to",
          "type": "address"
        },
        {
          "indexed": true,
          "internalType": "uint256",
          "name": "tokenId",
          "type": "uint256"
        }
      ],
      "name": "Transfer",
      "type": "event"
    },
    {
      "inputs": [
        {
          "internalType": "address",
          "name": "to",
          "type": "address"
        },
        {
          "internalType": "uint256",
          "name": "tokenId",
          "type": "uint256"
        }
      ],
      "name": "approve",
      "outputs": [],
      "stateMutability": "nonpayable",
      "type": "function"
    },
    {
      "inputs": [
        {
          "internalType": "address",
          "name": "owner",
          "type": "address"
        }
      ],
      "name": "balanceOf",
      "outputs": [
        {
          "internalType": "uint256",
          "name": "",
          "type": "uint256"
        }
      ],
      "stateMutability": "view",
      "type": "function"
    },
    {
      "inputs": [
        {
          "internalType": "uint256",
          "name": "",
          "type": "uint256"
        }
      ],
      "name": "cards",
      "outputs": [
        {
          "internalType": "uint256",
          "name": "id",
          "type": "uint256"
        },
        {
          "internalType": "string",
          "name": "name",
          "type": "string"
        },
        {
          "internalType": "string",
          "name": "description",
          "type": "string"
        }
      ],
      "stateMutability": "view",
      "type": "function"
    },
    {
      "inputs": [
        {
          "internalType": "uint256",
          "name": "tokenId",
          "type": "uint256"
        }
      ],
      "name": "getApproved",
      "outputs": [
        {
          "internalType": "address",
          "name": "",
          "type": "address"
        }
      ],
      "stateMutability": "view",
      "type": "function"
    },
    {
      "inputs": [
        {
          "internalType": "address",
          "name": "owner",
          "type": "address"
        },
        {
          "internalType": "address",
          "name": "operator",
          "type": "address"
        }
      ],
      "name": "isApprovedForAll",
      "outputs": [
        {
          "internalType": "bool",
          "name": "",
          "type": "bool"
        }
      ],
      "stateMutability": "view",
      "type": "function"
    },
    {
      "inputs": [],
      "name": "name",
      "outputs": [
        {
          "internalType": "string",
          "name": "",
          "type": "string"
        }
      ],
      "stateMutability": "view",
      "type": "function"
    },
    {
      "inputs": [],
      "name": "owner",
      "outputs": [
        {
          "internalType": "address",
          "name": "",
          "type": "address"
        }
      ],
      "stateMutability": "view",
      "type": "function"
    },
    {
      "inputs": [
        {
          "internalType": "uint256",
          "name": "tokenId",
          "type": "uint256"
        }
      ],
      "name": "ownerOf",
      "outputs": [
        {
          "internalType": "address",
          "name": "",
          "type": "address"
        }
      ],
      "stateMutability": "view",
      "type": "function"
    },
    {
      "inputs": [],
      "name": "renounceOwnership",
      "outputs": [],
      "stateMutability": "nonpayable",
      "type": "function"
    },
    {
      "inputs": [
        {
          "internalType": "address",
          "name": "from",
          "type": "address"
        },
        {
          "internalType": "address",
          "name": "to",
          "type": "address"
        },
        {
          "internalType": "uint256",
          "name": "tokenId",
          "type": "uint256"
        }
      ],
      "name": "safeTransferFrom",
      "outputs": [],
      "stateMutability": "nonpayable",
      "type": "function"
    },
    {
      "inputs": [
        {
          "internalType": "address",
          "name": "from",
          "type": "address"
        },
        {
          "internalType": "address",
          "name": "to",
          "type": "address"
        },
        {
          "internalType": "uint256",
          "name": "tokenId",
          "type": "uint256"
        },
        {
          "internalType": "bytes",
          "name": "data",
          "type": "bytes"
        }
      ],
      "name": "safeTransferFrom",
      "outputs": [],
      "stateMutability": "nonpayable",
      "type": "function"
    },
    {
      "inputs": [
        {
          "internalType": "address",
          "name": "operator",
          "type": "address"
        },
        {
          "internalType": "bool",
          "name": "approved",
          "type": "bool"
        }
      ],
      "name": "setApprovalForAll",
      "outputs": [],
      "stateMutability": "nonpayable",
      "type": "function"
    },
    {
      "inputs": [
        {
          "internalType": "bytes4",
          "name": "interfaceId",
          "type": "bytes4"
        }
      ],
      "name": "supportsInterface",
      "outputs": [
        {
          "internalType": "bool",
          "name": "",
          "type": "bool"
        }
      ],
      "stateMutability": "view",
      "type": "function"
    },
    {
      "inputs": [],
      "name": "symbol",
      "outputs": [
        {
          "internalType": "string",
          "name": "",
          "type": "string"
        }
      ],
      "stateMutability": "view",
      "type": "function"
    },
    {
      "inputs": [
        {
          "internalType": "uint256",
          "name": "index",
          "type": "uint256"
        }
      ],
      "name": "tokenByIndex",
      "outputs": [
        {
          "internalType": "uint256",
          "name": "",
          "type": "uint256"
        }
      ],
      "stateMutability": "view",
      "type": "function"
    },
    {
      "inputs": [
        {
          "internalType": "address",
          "name": "owner",
          "type": "address"
        },
        {
          "internalType": "uint256",
          "name": "index",
          "type": "uint256"
        }
      ],
      "name": "tokenOfOwnerByIndex",
      "outputs": [
        {
          "internalType": "uint256",
          "name": "",
          "type": "uint256"
        }
      ],
      "stateMutability": "view",
      "type": "function"
    },
    {
      "inputs": [
        {
          "internalType": "uint256",
          "name": "tokenId",
          "type": "uint256"
        }
      ],
      "name": "tokenURI",
      "outputs": [
        {
          "internalType": "string",
          "name": "",
          "type": "string"
        }
      ],
      "stateMutability": "view",
      "type": "function"
    },
    {
      "inputs": [],
      "name": "totalSupply",
      "outputs": [
        {
          "internalType": "uint256",
          "name": "",
          "type": "uint256"
        }
      ],
      "stateMutability": "view",
      "type": "function"
    },
    {
      "inputs": [
        {
          "internalType": "address",
          "name": "from",
          "type": "address"
        },
        {
          "internalType": "address",
          "name": "to",
          "type": "address"
        },
        {
          "internalType": "uint256",
          "name": "tokenId",
          "type": "uint256"
        }
      ],
      "name": "transferFrom",
      "outputs": [],
      "stateMutability": "nonpayable",
      "type": "function"
    },
    {
      "inputs": [
        {
          "internalType": "address",
          "name": "newOwner",
          "type": "address"
        }
      ],
      "name": "transferOwnership",
      "outputs": [],
      "stateMutability": "nonpayable",
      "type": "function"
    },
    {
      "inputs": [
        {
          "internalType": "string",
          "name": "name",
          "type": "string"
        },
        {
          "internalType": "string",
          "name": "description",
          "type": "string"
        }
      ],
      "name": "createUniqueCard",
      "outputs": [],
      "stateMutability": "nonpayable",
      "type": "function"
    },
    {
      "inputs": [
        {
          "internalType": "uint256",
          "name": "cardId",
          "type": "uint256"
        }
      ],
      "name": "purchaseUniqueCard",
      "outputs": [],
      "stateMutability": "payable",
      "type": "function"
    },
    {
      "inputs": [
        {
          "internalType": "uint256",
          "name": "cardId",
          "type": "uint256"
        },
        {
          "internalType": "address",
          "name": "recipient",
          "type": "address"
        }
      ],
      "name": "tradeCard",
      "outputs": [],
      "stateMutability": "nonpayable",
      "type": "function"
    }
  ],
  "bytecode": "0x608060405234801562000010575f80fd5b506040518060400160405280600b81526020017f556e6971756543617264730000000000000000000000000000000000000000008152506040518060400160405280600281526020017f5543000000000000000000000000000000000000000000000000000000000000815250815f90816200008d9190620003f6565b5080600190816200009f9190620003f6565b505050620000c2620000b6620000c860201b60201c565b620000cf60201b60201c565b620004da565b5f33905090565b5f600a5f9054906101000a900473ffffffffffffffffffffffffffffffffffffffff16905081600a5f6101000a81548173ffffffffffffffffffffffffffffffffffffffff021916908373ffffffffffffffffffffffffffffffffffffffff1602179055508173ffffffffffffffffffffffffffffffffffffffff168173ffffffffffffffffffffffffffffffffffffffff167f8be0079c531659141344cd1fd0a4f28419497f9722a3daafe3b4186f6b6457e060405160405180910390a35050565b5f81519050919050565b7f4e487b71000000000000000000000000000000000000000000000000000000005f52604160045260245ffd5b7f4e487b71000000000000000000000000000000000000000000000000000000005f52602260045260245ffd5b5f60028204905060018216806200020e57607f821691505b602082108103620002245762000223620001c9565b5b50919050565b5f819050815f5260205f209050919050565b5f6020601f8301049050919050565b5f82821b905092915050565b5f60088302620002887fffffffffffffffffffffffffffffffffffffffffffffffffffffffffffffffff826200024b565b6200029486836200024b565b95508019841693508086168417925050509392505050565b5f819050919050565b5f819050919050565b5f620002de620002d8620002d284620002ac565b620002b5565b620002ac565b9050919050565b5f819050919050565b620002f983620002be565b620003116200030882620002e5565b84845462000257565b825550505050565b5f90565b6200032762000319565b62000334818484620002ee565b505050565b5b818110156200035b576200034f5f826200031d565b6001810190506200033a565b5050565b601f821115620003aa5762000374816200022a565b6200037f846200023c565b810160208510156200038f578190505b620003a76200039e856200023c565b83018262000339565b50505b505050565b5f82821c905092915050565b5f620003cc5f1984600802620003af565b1980831691505092915050565b5f620003e68383620003bb565b9150826002028217905092915050565b620004018262000192565b67ffffffffffffffff8111156200041d576200041c6200019c565b5b620004298254620001f6565b620004368282856200035f565b5f60209050601f8311600181146200046c575f841562000457578287015190505b620004638582620003d9565b865550620004d2565b601f1984166200047c866200022a565b5f5b82811015620004a5578489015182556001820191506020850194506020810190506200047e565b86831015620004c55784890151620004c1601f891682620003bb565b8355505b6001600288020188555050505b505050505050565b613afe80620004e85f395ff3fe60806040526004361061013f575f3560e01c806370a08231116100b5578063a22cb4651161006e578063a22cb4651461046f578063b88d4fde14610497578063c87b56dd146104bf578063e985e9c5146104fb578063ec5ac24b14610537578063f2fde38b146105535761013f565b806370a0823114610363578063715018a61461039f5780638a91a6c8146103b55780638da5cb5b146103dd5780638dc107681461040757806395d89b41146104455761013f565b80632110c40b116101075780632110c40b1461023757806323b872dd1461025f5780632f745c591461028757806342842e0e146102c35780634f6ccce7146102eb5780636352211e146103275761013f565b806301ffc9a71461014357806306fdde031461017f578063081812fc146101a9578063095ea7b3146101e557806318160ddd1461020d575b5f80fd5b34801561014e575f80fd5b5061016960048036038101906101649190612548565b61057b565b604051610176919061258d565b60405180910390f35b34801561018a575f80fd5b506101936105f4565b6040516101a09190612630565b60405180910390f35b3480156101b4575f80fd5b506101cf60048036038101906101ca9190612683565b610683565b6040516101dc91906126ed565b60405180910390f35b3480156101f0575f80fd5b5061020b60048036038101906102069190612730565b6106c5565b005b348015610218575f80fd5b506102216107db565b60405161022e919061277d565b60405180910390f35b348015610242575f80fd5b5061025d600480360381019061025891906128c2565b6107e7565b005b34801561026a575f80fd5b5061028560048036038101906102809190612938565b610884565b005b348015610292575f80fd5b506102ad60048036038101906102a89190612730565b6108e4565b6040516102ba919061277d565b60405180910390f35b3480156102ce575f80fd5b506102e960048036038101906102e49190612938565b610984565b005b3480156102f6575f80fd5b50610311600480360381019061030c9190612683565b6109a3565b60405161031e919061277d565b60405180910390f35b348015610332575f80fd5b5061034d60048036038101906103489190612683565b610a11565b60405161035a91906126ed565b60405180910390f35b34801561036e575f80fd5b5061038960048036038101906103849190612988565b610a95565b604051610396919061277d565b60405180910390f35b3480156103aa575f80fd5b506103b3610b49565b005b3480156103c0575f80fd5b506103db60048036038101906103d691906129b3565b610b5c565b005b3480156103e8575f80fd5b506103f1610bf0565b6040516103fe91906126ed565b60405180910390f35b348015610412575f80fd5b5061042d60048036038101906104289190612683565b610c18565b60405161043c939291906129f1565b60405180910390f35b348015610450575f80fd5b50610459610d4a565b6040516104669190612630565b60405180910390f35b34801561047a575f80fd5b5061049560048036038101906104909190612a5e565b610dda565b005b3480156104a2575f80fd5b506104bd60048036038101906104b89190612b3a565b610df0565b005b3480156104ca575f80fd5b506104e560048036038101906104e09190612683565b610e52565b6040516104f29190612630565b60405180910390f35b348015610506575f80fd5b50610521600480360381019061051c9190612bba565b610eb7565b60405161052e919061258d565b60405180910390f35b610551600480360381019061054c9190612683565b610f45565b005b34801561055e575f80fd5b5061057960048036038101906105749190612988565b6110d0565b005b5f7f780e9d63000000000000000000000000000000000000000000000000000000007bffffffffffffffffffffffffffffffffffffffffffffffffffffffff1916827bffffffffffffffffffffffffffffffffffffffffffffffffffffffff191614806105ed57506105ec82611152565b5b9050919050565b60605f805461060290612c25565b80601f016020809104026020016040519081016040528092919081815260200182805461062e90612c25565b80156106795780601f1061065057610100808354040283529160200191610679565b820191905f5260205f20905b81548152906001019060200180831161065c57829003601f168201915b5050505050905090565b5f61068d82611233565b60045f8381526020019081526020015f205f9054906101000a900473ffffffffffffffffffffffffffffffffffffffff169050919050565b5f6106cf82610a11565b90508073ffffffffffffffffffffffffffffffffffffffff168373ffffffffffffffffffffffffffffffffffffffff160361073f576040517f08c379a000000000000000000000000000000000000000000000000000000000815260040161073690612cc5565b60405180910390fd5b8073ffffffffffffffffffffffffffffffffffffffff1661075e61127e565b73ffffffffffffffffffffffffffffffffffffffff16148061078d575061078c8161078761127e565b610eb7565b5b6107cc576040517f08c379a00000000000000000000000000000000000000000000000000000000081526004016107c390612d53565b60405180910390fd5b6107d68383611285565b505050565b5f600880549050905090565b6107ef61133b565b6107f9600b6113b9565b5f610804600b6113cd565b90505f604051806060016040528083815260200185815260200184815250905080600c5f8481526020019081526020015f205f820151815f015560208201518160010190816108539190612f0e565b5060408201518160020190816108699190612f0e565b5090505061087e610878610bf0565b836113d9565b50505050565b61089561088f61127e565b826115ec565b6108d4576040517f08c379a00000000000000000000000000000000000000000000000000000000081526004016108cb9061304d565b60405180910390fd5b6108df838383611680565b505050565b5f6108ee83610a95565b821061092f576040517f08c379a0000000000000000000000000000000000000000000000000000000008152600401610926906130db565b60405180910390fd5b60065f8473ffffffffffffffffffffffffffffffffffffffff1673ffffffffffffffffffffffffffffffffffffffff1681526020019081526020015f205f8381526020019081526020015f2054905092915050565b61099e83838360405180602001604052805f815250610df0565b505050565b5f6109ac6107db565b82106109ed576040517f08c379a00000000000000000000000000000000000000000000000000000000081526004016109e490613169565b60405180910390fd5b60088281548110610a0157610a00613187565b5b905f5260205f2001549050919050565b5f80610a1c8361196c565b90505f73ffffffffffffffffffffffffffffffffffffffff168173ffffffffffffffffffffffffffffffffffffffff1603610a8c576040517f08c379a0000000000000000000000000000000000000000000000000000000008152600401610a83906131fe565b60405180910390fd5b80915050919050565b5f8073ffffffffffffffffffffffffffffffffffffffff168273ffffffffffffffffffffffffffffffffffffffff1603610b04576040517f08c379a0000000000000000000000000000000000000000000000000000000008152600401610afb9061328c565b60405180910390fd5b60035f8373ffffffffffffffffffffffffffffffffffffffff1673ffffffffffffffffffffffffffffffffffffffff1681526020019081526020015f20549050919050565b610b5161133b565b610b5a5f6119a5565b565b3373ffffffffffffffffffffffffffffffffffffffff16610b7c83610a11565b73ffffffffffffffffffffffffffffffffffffffff1614610bd2576040517f08c379a0000000000000000000000000000000000000000000000000000000008152600401610bc9906132f4565b60405180910390fd5b610bec33828460405180602001604052805f815250611a68565b5050565b5f600a5f9054906101000a900473ffffffffffffffffffffffffffffffffffffffff16905090565b600c602052805f5260405f205f91509050805f015490806001018054610c3d90612c25565b80601f0160208091040260200160405190810160405280929190818152602001828054610c6990612c25565b8015610cb45780601f10610c8b57610100808354040283529160200191610cb4565b820191905f5260205f20905b815481529060010190602001808311610c9757829003601f168201915b505050505090806002018054610cc990612c25565b80601f0160208091040260200160405190810160405280929190818152602001828054610cf590612c25565b8015610d405780601f10610d1757610100808354040283529160200191610d40565b820191905f5260205f20905b815481529060010190602001808311610d2357829003601f168201915b5050505050905083565b606060018054610d5990612c25565b80601f0160208091040260200160405190810160405280929190818152602001828054610d8590612c25565b8015610dd05780601f10610da757610100808354040283529160200191610dd0565b820191905f5260205f20905b815481529060010190602001808311610db357829003601f168201915b5050505050905090565b610dec610de561127e565b8383611ac4565b5050565b610e01610dfb61127e565b836115ec565b610e40576040517f08c379a0000000000000000000000000000000000000000000000000000000008152600401610e379061304d565b60405180910390fd5b610e4c84848484611a68565b50505050565b6060610e5d82611233565b5f610e66611c2b565b90505f815111610e845760405180602001604052805f815250610eaf565b80610e8e84611c41565b604051602001610e9f92919061334c565b6040516020818303038152906040525b915050919050565b5f60055f8473ffffffffffffffffffffffffffffffffffffffff1673ffffffffffffffffffffffffffffffffffffffff1681526020019081526020015f205f8373ffffffffffffffffffffffffffffffffffffffff1673ffffffffffffffffffffffffffffffffffffffff1681526020019081526020015f205f9054906101000a900460ff16905092915050565b80600c5f8381526020019081526020015f205f015414610f9a576040517f08c379a0000000000000000000000000000000000000000000000000000000008152600401610f91906133b9565b60405180910390fd5b610fa2610bf0565b73ffffffffffffffffffffffffffffffffffffffff16610fc182610a11565b73ffffffffffffffffffffffffffffffffffffffff1614611017576040517f08c379a000000000000000000000000000000000000000000000000000000000815260040161100e90613447565b60405180910390fd5b662386f26fc10000341015611061576040517f08c379a0000000000000000000000000000000000000000000000000000000008152600401611058906134af565b60405180910390fd5b61108261106c610bf0565b338360405180602001604052805f815250611a68565b61108a610bf0565b73ffffffffffffffffffffffffffffffffffffffff166108fc3490811502906040515f60405180830381858888f193505050501580156110cc573d5f803e3d5ffd5b5050565b6110d861133b565b5f73ffffffffffffffffffffffffffffffffffffffff168173ffffffffffffffffffffffffffffffffffffffff1603611146576040517f08c379a000000000000000000000000000000000000000000000000000000000815260040161113d9061353d565b60405180910390fd5b61114f816119a5565b50565b5f7f80ac58cd000000000000000000000000000000000000000000000000000000007bffffffffffffffffffffffffffffffffffffffffffffffffffffffff1916827bffffffffffffffffffffffffffffffffffffffffffffffffffffffff1916148061121c57507f5b5e139f000000000000000000000000000000000000000000000000000000007bffffffffffffffffffffffffffffffffffffffffffffffffffffffff1916827bffffffffffffffffffffffffffffffffffffffffffffffffffffffff1916145b8061122c575061122b82611d0b565b5b9050919050565b61123c81611d74565b61127b576040517f08c379a0000000000000000000000000000000000000000000000000000000008152600401611272906131fe565b60405180910390fd5b50565b5f33905090565b8160045f8381526020019081526020015f205f6101000a81548173ffffffffffffffffffffffffffffffffffffffff021916908373ffffffffffffffffffffffffffffffffffffffff160217905550808273ffffffffffffffffffffffffffffffffffffffff166112f583610a11565b73ffffffffffffffffffffffffffffffffffffffff167f8c5be1e5ebec7d5bd14f71427d1e84f3dd0314c0f7b2291e5b200ac8c7c3b92560405160405180910390a45050565b61134361127e565b73ffffffffffffffffffffffffffffffffffffffff16611361610bf0565b73ffffffffffffffffffffffffffffffffffffffff16146113b7576040517f08c379a00000000000000000000000000000000000000000000000000000000081526004016113ae906135a5565b60405180910390fd5b565b6001815f015f828254019250508190555050565b5f815f01549050919050565b5f73ffffffffffffffffffffffffffffffffffffffff168273ffffffffffffffffffffffffffffffffffffffff1603611447576040517f08c379a000000000000000000000000000000000000000000000000000000000815260040161143e9061360d565b60405180910390fd5b61145081611d74565b15611490576040517f08c379a000000000000000000000000000000000000000000000000000000000815260040161148790613675565b60405180910390fd5b61149d5f83836001611db4565b6114a681611d74565b156114e6576040517f08c379a00000000000000000000000000000000000000000000000000000000081526004016114dd90613675565b60405180910390fd5b600160035f8473ffffffffffffffffffffffffffffffffffffffff1673ffffffffffffffffffffffffffffffffffffffff1681526020019081526020015f205f82825401925050819055508160025f8381526020019081526020015f205f6101000a81548173ffffffffffffffffffffffffffffffffffffffff021916908373ffffffffffffffffffffffffffffffffffffffff160217905550808273ffffffffffffffffffffffffffffffffffffffff165f73ffffffffffffffffffffffffffffffffffffffff167fddf252ad1be2c89b69c2b068fc378daa952ba7f163c4a11628f55a4df523b3ef60405160405180910390a46115e85f83836001611f0f565b5050565b5f806115f783610a11565b90508073ffffffffffffffffffffffffffffffffffffffff168473ffffffffffffffffffffffffffffffffffffffff16148061163957506116388185610eb7565b5b8061167757508373ffffffffffffffffffffffffffffffffffffffff1661165f84610683565b73ffffffffffffffffffffffffffffffffffffffff16145b91505092915050565b8273ffffffffffffffffffffffffffffffffffffffff166116a082610a11565b73ffffffffffffffffffffffffffffffffffffffff16146116f6576040517f08c379a00000000000000000000000000000000000000000000000000000000081526004016116ed90613703565b60405180910390fd5b5f73ffffffffffffffffffffffffffffffffffffffff168273ffffffffffffffffffffffffffffffffffffffff1603611764576040517f08c379a000000000000000000000000000000000000000000000000000000000815260040161175b90613791565b60405180910390fd5b6117718383836001611db4565b8273ffffffffffffffffffffffffffffffffffffffff1661179182610a11565b73ffffffffffffffffffffffffffffffffffffffff16146117e7576040517f08c379a00000000000000000000000000000000000000000000000000000000081526004016117de90613703565b60405180910390fd5b60045f8281526020019081526020015f205f6101000a81549073ffffffffffffffffffffffffffffffffffffffff0219169055600160035f8573ffffffffffffffffffffffffffffffffffffffff1673ffffffffffffffffffffffffffffffffffffffff1681526020019081526020015f205f8282540392505081905550600160035f8473ffffffffffffffffffffffffffffffffffffffff1673ffffffffffffffffffffffffffffffffffffffff1681526020019081526020015f205f82825401925050819055508160025f8381526020019081526020015f205f6101000a81548173ffffffffffffffffffffffffffffffffffffffff021916908373ffffffffffffffffffffffffffffffffffffffff160217905550808273ffffffffffffffffffffffffffffffffffffffff168473ffffffffffffffffffffffffffffffffffffffff167fddf252ad1be2c89b69c2b068fc378daa952ba7f163c4a11628f55a4df523b3ef60405160405180910390a46119678383836001611f0f565b505050565b5f60025f8381526020019081526020015f205f9054906101000a900473ffffffffffffffffffffffffffffffffffffffff169050919050565b5f600a5f9054906101000a900473ffffffffffffffffffffffffffffffffffffffff16905081600a5f6101000a81548173ffffffffffffffffffffffffffffffffffffffff021916908373ffffffffffffffffffffffffffffffffffffffff1602179055508173ffffffffffffffffffffffffffffffffffffffff168173ffffffffffffffffffffffffffffffffffffffff167f8be0079c531659141344cd1fd0a4f28419497f9722a3daafe3b4186f6b6457e060405160405180910390a35050565b611a73848484611680565b611a7f84848484611f15565b611abe576040517f08c379a0000000000000000000000000000000000000000000000000000000008152600401611ab59061381f565b60405180910390fd5b50505050565b8173ffffffffffffffffffffffffffffffffffffffff168373ffffffffffffffffffffffffffffffffffffffff1603611b32576040517f08c379a0000000000000000000000000000000000000000000000000000000008152600401611b2990613887565b60405180910390fd5b8060055f8573ffffffffffffffffffffffffffffffffffffffff1673ffffffffffffffffffffffffffffffffffffffff1681526020019081526020015f205f8473ffffffffffffffffffffffffffffffffffffffff1673ffffffffffffffffffffffffffffffffffffffff1681526020019081526020015f205f6101000a81548160ff0219169083151502179055508173ffffffffffffffffffffffffffffffffffffffff168373ffffffffffffffffffffffffffffffffffffffff167f17307eab39ab6107e8899845ad3d59bd9653f200f220920489ca2b5937696c3183604051611c1e919061258d565b60405180910390a3505050565b606060405180602001604052805f815250905090565b60605f6001611c4f84612097565b0190505f8167ffffffffffffffff811115611c6d57611c6c61279e565b5b6040519080825280601f01601f191660200182016040528015611c9f5781602001600182028036833780820191505090505b5090505f82602001820190505b600115611d00578080600190039150507f3031323334353637383961626364656600000000000000000000000000000000600a86061a8153600a8581611cf557611cf46138a5565b5b0494505f8503611cac575b819350505050919050565b5f7f01ffc9a7000000000000000000000000000000000000000000000000000000007bffffffffffffffffffffffffffffffffffffffffffffffffffffffff1916827bffffffffffffffffffffffffffffffffffffffffffffffffffffffff1916149050919050565b5f8073ffffffffffffffffffffffffffffffffffffffff16611d958361196c565b73ffffffffffffffffffffffffffffffffffffffff1614159050919050565b611dc0848484846121e8565b6001811115611e04576040517f08c379a0000000000000000000000000000000000000000000000000000000008152600401611dfb90613942565b60405180910390fd5b5f8290505f73ffffffffffffffffffffffffffffffffffffffff168573ffffffffffffffffffffffffffffffffffffffff1603611e4957611e44816121ee565b611e88565b8373ffffffffffffffffffffffffffffffffffffffff168573ffffffffffffffffffffffffffffffffffffffff1614611e8757611e868582612232565b5b5b5f73ffffffffffffffffffffffffffffffffffffffff168473ffffffffffffffffffffffffffffffffffffffff1603611ec957611ec481612388565b611f08565b8473ffffffffffffffffffffffffffffffffffffffff168473ffffffffffffffffffffffffffffffffffffffff1614611f0757611f068482612448565b5b5b5050505050565b50505050565b5f611f358473ffffffffffffffffffffffffffffffffffffffff166124c0565b1561208a578373ffffffffffffffffffffffffffffffffffffffff1663150b7a02611f5e61127e565b8786866040518563ffffffff1660e01b8152600401611f8094939291906139b2565b6020604051808303815f875af1925050508015611fbb57506040513d601f19601f82011682018060405250810190611fb89190613a10565b60015b61203a573d805f8114611fe9576040519150601f19603f3d011682016040523d82523d5f602084013e611fee565b606091505b505f815103612032576040517f08c379a00000000000000000000000000000000000000000000000000000000081526004016120299061381f565b60405180910390fd5b805181602001fd5b63150b7a0260e01b7bffffffffffffffffffffffffffffffffffffffffffffffffffffffff1916817bffffffffffffffffffffffffffffffffffffffffffffffffffffffff19161491505061208f565b600190505b949350505050565b5f805f90507a184f03e93ff9f4daa797ed6e38ed64bf6a1f01000000000000000083106120f3577a184f03e93ff9f4daa797ed6e38ed64bf6a1f01000000000000000083816120e9576120e86138a5565b5b0492506040810190505b6d04ee2d6d415b85acef81000000008310612130576d04ee2d6d415b85acef81000000008381612126576121256138a5565b5b0492506020810190505b662386f26fc10000831061215f57662386f26fc100008381612155576121546138a5565b5b0492506010810190505b6305f5e1008310612188576305f5e100838161217e5761217d6138a5565b5b0492506008810190505b61271083106121ad5761271083816121a3576121a26138a5565b5b0492506004810190505b606483106121d057606483816121c6576121c56138a5565b5b0492506002810190505b600a83106121df576001810190505b80915050919050565b50505050565b60088054905060095f8381526020019081526020015f2081905550600881908060018154018082558091505060019003905f5260205f20015f909190919091505550565b5f600161223e84610a95565b6122489190613a68565b90505f60075f8481526020019081526020015f2054905081811461231f575f60065f8673ffffffffffffffffffffffffffffffffffffffff1673ffffffffffffffffffffffffffffffffffffffff1681526020019081526020015f205f8481526020019081526020015f205490508060065f8773ffffffffffffffffffffffffffffffffffffffff1673ffffffffffffffffffffffffffffffffffffffff1681526020019081526020015f205f8481526020019081526020015f20819055508160075f8381526020019081526020015f2081905550505b60075f8481526020019081526020015f205f905560065f8573ffffffffffffffffffffffffffffffffffffffff1673ffffffffffffffffffffffffffffffffffffffff1681526020019081526020015f205f8381526020019081526020015f205f905550505050565b5f600160088054905061239b9190613a68565b90505f60095f8481526020019081526020015f205490505f600883815481106123c7576123c6613187565b5b905f5260205f200154905080600883815481106123e7576123e6613187565b5b905f5260205f2001819055508160095f8381526020019081526020015f208190555060095f8581526020019081526020015f205f9055600880548061242f5761242e613a9b565b5b600190038181905f5260205f20015f9055905550505050565b5f61245283610a95565b90508160065f8573ffffffffffffffffffffffffffffffffffffffff1673ffffffffffffffffffffffffffffffffffffffff1681526020019081526020015f205f8381526020019081526020015f20819055508060075f8481526020019081526020015f2081905550505050565b5f808273ffffffffffffffffffffffffffffffffffffffff163b119050919050565b5f604051905090565b5f80fd5b5f80fd5b5f7fffffffff0000000000000000000000000000000000000000000000000000000082169050919050565b612527816124f3565b8114612531575f80fd5b50565b5f813590506125428161251e565b92915050565b5f6020828403121561255d5761255c6124eb565b5b5f61256a84828501612534565b91505092915050565b5f8115159050919050565b61258781612573565b82525050565b5f6020820190506125a05f83018461257e565b92915050565b5f81519050919050565b5f82825260208201905092915050565b5f5b838110156125dd5780820151818401526020810190506125c2565b5f8484015250505050565b5f601f19601f8301169050919050565b5f612602826125a6565b61260c81856125b0565b935061261c8185602086016125c0565b612625816125e8565b840191505092915050565b5f6020820190508181035f83015261264881846125f8565b905092915050565b5f819050919050565b61266281612650565b811461266c575f80fd5b50565b5f8135905061267d81612659565b92915050565b5f60208284031215612698576126976124eb565b5b5f6126a58482850161266f565b91505092915050565b5f73ffffffffffffffffffffffffffffffffffffffff82169050919050565b5f6126d7826126ae565b9050919050565b6126e7816126cd565b82525050565b5f6020820190506127005f8301846126de565b92915050565b61270f816126cd565b8114612719575f80fd5b50565b5f8135905061272a81612706565b92915050565b5f8060408385031215612746576127456124eb565b5b5f6127538582860161271c565b92505060206127648582860161266f565b9150509250929050565b61277781612650565b82525050565b5f6020820190506127905f83018461276e565b92915050565b5f80fd5b5f80fd5b7f4e487b71000000000000000000000000000000000000000000000000000000005f52604160045260245ffd5b6127d4826125e8565b810181811067ffffffffffffffff821117156127f3576127f261279e565b5b80604052505050565b5f6128056124e2565b905061281182826127cb565b919050565b5f67ffffffffffffffff8211156128305761282f61279e565b5b612839826125e8565b9050602081019050919050565b828183375f83830152505050565b5f61286661286184612816565b6127fc565b9050828152602081018484840111156128825761288161279a565b5b61288d848285612846565b509392505050565b5f82601f8301126128a9576128a8612796565b5b81356128b9848260208601612854565b91505092915050565b5f80604083850312156128d8576128d76124eb565b5b5f83013567ffffffffffffffff8111156128f5576128f46124ef565b5b61290185828601612895565b925050602083013567ffffffffffffffff811115612922576129216124ef565b5b61292e85828601612895565b9150509250929050565b5f805f6060848603121561294f5761294e6124eb565b5b5f61295c8682870161271c565b935050602061296d8682870161271c565b925050604061297e8682870161266f565b9150509250925092565b5f6020828403121561299d5761299c6124eb565b5b5f6129aa8482850161271c565b91505092915050565b5f80604083850312156129c9576129c86124eb565b5b5f6129d68582860161266f565b92505060206129e78582860161271c565b9150509250929050565b5f606082019050612a045f83018661276e565b8181036020830152612a1681856125f8565b90508181036040830152612a2a81846125f8565b9050949350505050565b612a3d81612573565b8114612a47575f80fd5b50565b5f81359050612a5881612a34565b92915050565b5f8060408385031215612a7457612a736124eb565b5b5f612a818582860161271c565b9250506020612a9285828601612a4a565b9150509250929050565b5f67ffffffffffffffff821115612ab657612ab561279e565b5b612abf826125e8565b9050602081019050919050565b5f612ade612ad984612a9c565b6127fc565b905082815260208101848484011115612afa57612af961279a565b5b612b05848285612846565b509392505050565b5f82601f830112612b2157612b20612796565b5b8135612b31848260208601612acc565b91505092915050565b5f805f8060808587031215612b5257612b516124eb565b5b5f612b5f8782880161271c565b9450506020612b708782880161271c565b9350506040612b818782880161266f565b925050606085013567ffffffffffffffff811115612ba257612ba16124ef565b5b612bae87828801612b0d565b91505092959194509250565b5f8060408385031215612bd057612bcf6124eb565b5b5f612bdd8582860161271c565b9250506020612bee8582860161271c565b9150509250929050565b7f4e487b71000000000000000000000000000000000000000000000000000000005f52602260045260245ffd5b5f6002820490506001821680612c3c57607f821691505b602082108103612c4f57612c4e612bf8565b5b50919050565b7f4552433732313a20617070726f76616c20746f2063757272656e74206f776e655f8201527f7200000000000000000000000000000000000000000000000000000000000000602082015250565b5f612caf6021836125b0565b9150612cba82612c55565b604082019050919050565b5f6020820190508181035f830152612cdc81612ca3565b9050919050565b7f4552433732313a20617070726f76652063616c6c6572206973206e6f7420746f5f8201527f6b656e206f776e6572206f7220617070726f76656420666f7220616c6c000000602082015250565b5f612d3d603d836125b0565b9150612d4882612ce3565b604082019050919050565b5f6020820190508181035f830152612d6a81612d31565b9050919050565b5f819050815f5260205f209050919050565b5f6020601f8301049050919050565b5f82821b905092915050565b5f60088302612dcd7fffffffffffffffffffffffffffffffffffffffffffffffffffffffffffffffff82612d92565b612dd78683612d92565b95508019841693508086168417925050509392505050565b5f819050919050565b5f612e12612e0d612e0884612650565b612def565b612650565b9050919050565b5f819050919050565b612e2b83612df8565b612e3f612e3782612e19565b848454612d9e565b825550505050565b5f90565b612e53612e47565b612e5e818484612e22565b505050565b5b81811015612e8157612e765f82612e4b565b600181019050612e64565b5050565b601f821115612ec657612e9781612d71565b612ea084612d83565b81016020851015612eaf578190505b612ec3612ebb85612d83565b830182612e63565b50505b505050565b5f82821c905092915050565b5f612ee65f1984600802612ecb565b1980831691505092915050565b5f612efe8383612ed7565b9150826002028217905092915050565b612f17826125a6565b67ffffffffffffffff811115612f3057612f2f61279e565b5b612f3a8254612c25565b612f45828285612e85565b5f60209050601f831160018114612f76575f8415612f64578287015190505b612f6e8582612ef3565b865550612fd5565b601f198416612f8486612d71565b5f5b82811015612fab57848901518255600182019150602085019450602081019050612f86565b86831015612fc85784890151612fc4601f891682612ed7565b8355505b6001600288020188555050505b505050505050565b7f4552433732313a2063616c6c6572206973206e6f7420746f6b656e206f776e655f8201527f72206f7220617070726f76656400000000000000000000000000000000000000602082015250565b5f613037602d836125b0565b915061304282612fdd565b604082019050919050565b5f6020820190508181035f8301526130648161302b565b9050919050565b7f455243373231456e756d657261626c653a206f776e657220696e646578206f755f8201527f74206f6620626f756e6473000000000000000000000000000000000000000000602082015250565b5f6130c5602b836125b0565b91506130d08261306b565b604082019050919050565b5f6020820190508181035f8301526130f2816130b9565b9050919050565b7f455243373231456e756d657261626c653a20676c6f62616c20696e646578206f5f8201527f7574206f6620626f756e64730000000000000000000000000000000000000000602082015250565b5f613153602c836125b0565b915061315e826130f9565b604082019050919050565b5f6020820190508181035f83015261318081613147565b9050919050565b7f4e487b71000000000000000000000000000000000000000000000000000000005f52603260045260245ffd5b7f4552433732313a20696e76616c696420746f6b656e20494400000000000000005f82015250565b5f6131e86018836125b0565b91506131f3826131b4565b602082019050919050565b5f6020820190508181035f830152613215816131dc565b9050919050565b7f4552433732313a2061646472657373207a65726f206973206e6f7420612076615f8201527f6c6964206f776e65720000000000000000000000000000000000000000000000602082015250565b5f6132766029836125b0565b91506132818261321c565b604082019050919050565b5f6020820190508181035f8301526132a38161326a565b9050919050565b7f4e6f7420746865206f776e6572206f662074686520636172642e0000000000005f82015250565b5f6132de601a836125b0565b91506132e9826132aa565b602082019050919050565b5f6020820190508181035f83015261330b816132d2565b9050919050565b5f81905092915050565b5f613326826125a6565b6133308185613312565b93506133408185602086016125c0565b80840191505092915050565b5f613357828561331c565b9150613363828461331c565b91508190509392505050565b7f4361726420646f6573206e6f742065786973742e0000000000000000000000005f82015250565b5f6133a36014836125b0565b91506133ae8261336f565b602082019050919050565b5f6020820190508181035f8301526133d081613397565b9050919050565b7f43617264206973206e6f7420617661696c61626c6520666f72207075726368615f8201527f73652e0000000000000000000000000000000000000000000000000000000000602082015250565b5f6134316023836125b0565b915061343c826133d7565b604082019050919050565b5f6020820190508181035f83015261345e81613425565b9050919050565b7f496e73756666696369656e74204554482073656e742e000000000000000000005f82015250565b5f6134996016836125b0565b91506134a482613465565b602082019050919050565b5f6020820190508181035f8301526134c68161348d565b9050919050565b7f4f776e61626c653a206e6577206f776e657220697320746865207a65726f20615f8201527f6464726573730000000000000000000000000000000000000000000000000000602082015250565b5f6135276026836125b0565b9150613532826134cd565b604082019050919050565b5f6020820190508181035f8301526135548161351b565b9050919050565b7f4f776e61626c653a2063616c6c6572206973206e6f7420746865206f776e65725f82015250565b5f61358f6020836125b0565b915061359a8261355b565b602082019050919050565b5f6020820190508181035f8301526135bc81613583565b9050919050565b7f4552433732313a206d696e7420746f20746865207a65726f20616464726573735f82015250565b5f6135f76020836125b0565b9150613602826135c3565b602082019050919050565b5f6020820190508181035f830152613624816135eb565b9050919050565b7f4552433732313a20746f6b656e20616c7265616479206d696e746564000000005f82015250565b5f61365f601c836125b0565b915061366a8261362b565b602082019050919050565b5f6020820190508181035f83015261368c81613653565b9050919050565b7f4552433732313a207472616e736665722066726f6d20696e636f7272656374205f8201527f6f776e6572000000000000000000000000000000000000000000000000000000602082015250565b5f6136ed6025836125b0565b91506136f882613693565b604082019050919050565b5f6020820190508181035f83015261371a816136e1565b9050919050565b7f4552433732313a207472616e7366657220746f20746865207a65726f206164645f8201527f7265737300000000000000000000000000000000000000000000000000000000602082015250565b5f61377b6024836125b0565b915061378682613721565b604082019050919050565b5f6020820190508181035f8301526137a88161376f565b9050919050565b7f4552433732313a207472616e7366657220746f206e6f6e2045524337323152655f8201527f63656976657220696d706c656d656e7465720000000000000000000000000000602082015250565b5f6138096032836125b0565b9150613814826137af565b604082019050919050565b5f6020820190508181035f830152613836816137fd565b9050919050565b7f4552433732313a20617070726f766520746f2063616c6c6572000000000000005f82015250565b5f6138716019836125b0565b915061387c8261383d565b602082019050919050565b5f6020820190508181035f83015261389e81613865565b9050919050565b7f4e487b71000000000000000000000000000000000000000000000000000000005f52601260045260245ffd5b7f455243373231456e756d657261626c653a20636f6e73656375746976652074725f8201527f616e7366657273206e6f7420737570706f727465640000000000000000000000602082015250565b5f61392c6035836125b0565b9150613937826138d2565b604082019050919050565b5f6020820190508181035f83015261395981613920565b9050919050565b5f81519050919050565b5f82825260208201905092915050565b5f61398482613960565b61398e818561396a565b935061399e8185602086016125c0565b6139a7816125e8565b840191505092915050565b5f6080820190506139c55f8301876126de565b6139d260208301866126de565b6139df604083018561276e565b81810360608301526139f1818461397a565b905095945050505050565b5f81519050613a0a8161251e565b92915050565b5f60208284031215613a2557613a246124eb565b5b5f613a32848285016139fc565b91505092915050565b7f4e487b71000000000000000000000000000000000000000000000000000000005f52601160045260245ffd5b5f613a7282612650565b9150613a7d83612650565b9250828203905081811115613a9557613a94613a3b565b5b92915050565b7f4e487b71000000000000000000000000000000000000000000000000000000005f52603160045260245ffdfea26469706673582212204bff1c521e5fe6172e4c7f28a741707ed5edab8e32bf958f8d43793734bfe1b864736f6c63430008150033",
  "immutableReferences": {},
  "source": "// SPDX-License-Identifier: MIT\npragma solidity ^0.8.19;\n\nimport \"@openzeppelin/contracts/token/ERC721/extensions/ERC721Enumerable.sol\";\nimport \"@openzeppelin/contracts/utils/Counters.sol\";\nimport \"@openzeppelin/contracts/access/Ownable.sol\";\n\ncontract UniqueCards is ERC721Enumerable, Ownable {\n    using Counters for Counters.Counter;\n    Counters.Counter private _tokenIds;\n\n    struct Card {\n        uint256 id; // Unique identifier\n        string name; // Card name\n        string description; // Short description of the card\n        // Add other attributes as needed\n    }\n\n    mapping(uint256 => Card) public cards; // Mapping from token ID to card details\n\n    constructor() ERC721(\"UniqueCards\", \"UC\") Ownable() {}\n\n    function createUniqueCard(\n        string memory name,\n        string memory description\n    ) external onlyOwner {\n        _tokenIds.increment();\n        uint256 newCardId = _tokenIds.current();\n\n        Card memory newCard = Card({\n            id: newCardId,\n            name: name,\n            description: description\n        });\n\n        cards[newCardId] = newCard;\n        _mint(owner(), newCardId); // The card is initially owned by the contract owner/admin\n    }\n\n    function purchaseUniqueCard(uint256 cardId) external payable {\n        // Ensure the card exists\n        require(cards[cardId].id == cardId, \"Card does not exist.\");\n\n        // Check if the card is owned by the contract owner/admin\n        require(\n            ownerOf(cardId) == owner(),\n            \"Card is not available for purchase.\"\n        );\n\n        // Implement the logic for the purchase amount (e.g., fixed amount, auction, etc.)\n        require(msg.value >= 0.01 ether, \"Insufficient ETH sent.\");\n\n        // Transfer ownership of the card to the buyer\n        _safeTransfer(owner(), msg.sender, cardId, \"\");\n\n        // Transfer the ETH to the contract owner or another wallet\n        payable(owner()).transfer(msg.value);\n    }\n\n    function tradeCard(uint256 cardId, address recipient) external {\n        // Ensure the caller is the current owner of the card\n        require(ownerOf(cardId) == msg.sender, \"Not the owner of the card.\");\n\n        // Safely transfer the card to the recipient\n        _safeTransfer(msg.sender, recipient, cardId, \"\");\n    }\n}\n",
  "sourcePath": "/Users/ibrahimallahbuksh/BlockchainProject/contracts/ERC721SmartContract.sol",
  "compiler": {
    "name": "solc",
    "version": "0.8.21+commit.d9974bed.Emscripten.clang"
  },
  "schemaVersion": "3.4.16",
  "updatedAt": "2023-11-18T00:06:35.110Z",
  "devdoc": {
    "events": {
      "Approval(address,address,uint256)": {
        "details": "Emitted when `owner` enables `approved` to manage the `tokenId` token."
      },
      "ApprovalForAll(address,address,bool)": {
        "details": "Emitted when `owner` enables or disables (`approved`) `operator` to manage all of its assets."
      },
      "Transfer(address,address,uint256)": {
        "details": "Emitted when `tokenId` token is transferred from `from` to `to`."
      }
    },
    "kind": "dev",
    "methods": {
      "approve(address,uint256)": {
        "details": "See {IERC721-approve}."
      },
      "balanceOf(address)": {
        "details": "See {IERC721-balanceOf}."
      },
      "getApproved(uint256)": {
        "details": "See {IERC721-getApproved}."
      },
      "isApprovedForAll(address,address)": {
        "details": "See {IERC721-isApprovedForAll}."
      },
      "name()": {
        "details": "See {IERC721Metadata-name}."
      },
      "owner()": {
        "details": "Returns the address of the current owner."
      },
      "ownerOf(uint256)": {
        "details": "See {IERC721-ownerOf}."
      },
      "renounceOwnership()": {
        "details": "Leaves the contract without owner. It will not be possible to call `onlyOwner` functions. Can only be called by the current owner. NOTE: Renouncing ownership will leave the contract without an owner, thereby disabling any functionality that is only available to the owner."
      },
      "safeTransferFrom(address,address,uint256)": {
        "details": "See {IERC721-safeTransferFrom}."
      },
      "safeTransferFrom(address,address,uint256,bytes)": {
        "details": "See {IERC721-safeTransferFrom}."
      },
      "setApprovalForAll(address,bool)": {
        "details": "See {IERC721-setApprovalForAll}."
      },
      "supportsInterface(bytes4)": {
        "details": "See {IERC165-supportsInterface}."
      },
      "symbol()": {
        "details": "See {IERC721Metadata-symbol}."
      },
      "tokenByIndex(uint256)": {
        "details": "See {IERC721Enumerable-tokenByIndex}."
      },
      "tokenOfOwnerByIndex(address,uint256)": {
        "details": "See {IERC721Enumerable-tokenOfOwnerByIndex}."
      },
      "tokenURI(uint256)": {
        "details": "See {IERC721Metadata-tokenURI}."
      },
      "totalSupply()": {
        "details": "See {IERC721Enumerable-totalSupply}."
      },
      "transferFrom(address,address,uint256)": {
        "details": "See {IERC721-transferFrom}."
      },
      "transferOwnership(address)": {
        "details": "Transfers ownership of the contract to a new account (`newOwner`). Can only be called by the current owner."
      }
    },
    "version": 1
  },
  "userdoc": {
    "kind": "user",
    "methods": {},
    "version": 1
  }
}