{
  "contractName": "UniqueCards",
  "abi": [
    {
      "inputs": [],
      "stateMutability": "nonpayable",
      "type": "constructor"
    },
    {
      "anonymous": false,
      "inputs": [
        {
          "indexed": true,
          "internalType": "address",
          "name": "owner",
          "type": "address"
        },
        {
          "indexed": true,
          "internalType": "address",
          "name": "approved",
          "type": "address"
        },
        {
          "indexed": true,
          "internalType": "uint256",
          "name": "tokenId",
          "type": "uint256"
        }
      ],
      "name": "Approval",
      "type": "event"
    },
    {
      "anonymous": false,
      "inputs": [
        {
          "indexed": true,
          "internalType": "address",
          "name": "owner",
          "type": "address"
        },
        {
          "indexed": true,
          "internalType": "address",
          "name": "operator",
          "type": "address"
        },
        {
          "indexed": false,
          "internalType": "bool",
          "name": "approved",
          "type": "bool"
        }
      ],
      "name": "ApprovalForAll",
      "type": "event"
    },
    {
      "anonymous": false,
      "inputs": [
        {
          "indexed": true,
          "internalType": "address",
          "name": "previousOwner",
          "type": "address"
        },
        {
          "indexed": true,
          "internalType": "address",
          "name": "newOwner",
          "type": "address"
        }
      ],
      "name": "OwnershipTransferred",
      "type": "event"
    },
    {
      "anonymous": false,
      "inputs": [
        {
          "indexed": true,
          "internalType": "address",
          "name": "from",
          "type": "address"
        },
        {
          "indexed": true,
          "internalType": "address",
          "name": "to",
          "type": "address"
        },
        {
          "indexed": true,
          "internalType": "uint256",
          "name": "tokenId",
          "type": "uint256"
        }
      ],
      "name": "Transfer",
      "type": "event"
    },
    {
      "inputs": [
        {
          "internalType": "address",
          "name": "to",
          "type": "address"
        },
        {
          "internalType": "uint256",
          "name": "tokenId",
          "type": "uint256"
        }
      ],
      "name": "approve",
      "outputs": [],
      "stateMutability": "nonpayable",
      "type": "function"
    },
    {
      "inputs": [
        {
          "internalType": "address",
          "name": "owner",
          "type": "address"
        }
      ],
      "name": "balanceOf",
      "outputs": [
        {
          "internalType": "uint256",
          "name": "",
          "type": "uint256"
        }
      ],
      "stateMutability": "view",
      "type": "function",
      "constant": true
    },
    {
      "inputs": [
        {
          "internalType": "uint256",
          "name": "",
          "type": "uint256"
        }
      ],
      "name": "cards",
      "outputs": [
        {
          "internalType": "uint256",
          "name": "id",
          "type": "uint256"
        },
        {
          "internalType": "string",
          "name": "name",
          "type": "string"
        },
        {
          "internalType": "string",
          "name": "description",
          "type": "string"
        },
        {
          "internalType": "uint256",
          "name": "attack",
          "type": "uint256"
        },
        {
          "internalType": "uint256",
          "name": "defense",
          "type": "uint256"
        }
      ],
      "stateMutability": "view",
      "type": "function",
      "constant": true
    },
    {
      "inputs": [
        {
          "internalType": "uint256",
          "name": "tokenId",
          "type": "uint256"
        }
      ],
      "name": "getApproved",
      "outputs": [
        {
          "internalType": "address",
          "name": "",
          "type": "address"
        }
      ],
      "stateMutability": "view",
      "type": "function",
      "constant": true
    },
    {
      "inputs": [
        {
          "internalType": "address",
          "name": "owner",
          "type": "address"
        },
        {
          "internalType": "address",
          "name": "operator",
          "type": "address"
        }
      ],
      "name": "isApprovedForAll",
      "outputs": [
        {
          "internalType": "bool",
          "name": "",
          "type": "bool"
        }
      ],
      "stateMutability": "view",
      "type": "function",
      "constant": true
    },
    {
      "inputs": [],
      "name": "name",
      "outputs": [
        {
          "internalType": "string",
          "name": "",
          "type": "string"
        }
      ],
      "stateMutability": "view",
      "type": "function",
      "constant": true
    },
    {
      "inputs": [],
      "name": "owner",
      "outputs": [
        {
          "internalType": "address",
          "name": "",
          "type": "address"
        }
      ],
      "stateMutability": "view",
      "type": "function",
      "constant": true
    },
    {
      "inputs": [
        {
          "internalType": "uint256",
          "name": "tokenId",
          "type": "uint256"
        }
      ],
      "name": "ownerOf",
      "outputs": [
        {
          "internalType": "address",
          "name": "",
          "type": "address"
        }
      ],
      "stateMutability": "view",
      "type": "function",
      "constant": true
    },
    {
      "inputs": [],
      "name": "renounceOwnership",
      "outputs": [],
      "stateMutability": "nonpayable",
      "type": "function"
    },
    {
      "inputs": [
        {
          "internalType": "address",
          "name": "from",
          "type": "address"
        },
        {
          "internalType": "address",
          "name": "to",
          "type": "address"
        },
        {
          "internalType": "uint256",
          "name": "tokenId",
          "type": "uint256"
        }
      ],
      "name": "safeTransferFrom",
      "outputs": [],
      "stateMutability": "nonpayable",
      "type": "function"
    },
    {
      "inputs": [
        {
          "internalType": "address",
          "name": "from",
          "type": "address"
        },
        {
          "internalType": "address",
          "name": "to",
          "type": "address"
        },
        {
          "internalType": "uint256",
          "name": "tokenId",
          "type": "uint256"
        },
        {
          "internalType": "bytes",
          "name": "data",
          "type": "bytes"
        }
      ],
      "name": "safeTransferFrom",
      "outputs": [],
      "stateMutability": "nonpayable",
      "type": "function"
    },
    {
      "inputs": [
        {
          "internalType": "address",
          "name": "operator",
          "type": "address"
        },
        {
          "internalType": "bool",
          "name": "approved",
          "type": "bool"
        }
      ],
      "name": "setApprovalForAll",
      "outputs": [],
      "stateMutability": "nonpayable",
      "type": "function"
    },
    {
      "inputs": [
        {
          "internalType": "bytes4",
          "name": "interfaceId",
          "type": "bytes4"
        }
      ],
      "name": "supportsInterface",
      "outputs": [
        {
          "internalType": "bool",
          "name": "",
          "type": "bool"
        }
      ],
      "stateMutability": "view",
      "type": "function",
      "constant": true
    },
    {
      "inputs": [],
      "name": "symbol",
      "outputs": [
        {
          "internalType": "string",
          "name": "",
          "type": "string"
        }
      ],
      "stateMutability": "view",
      "type": "function",
      "constant": true
    },
    {
      "inputs": [
        {
          "internalType": "uint256",
          "name": "index",
          "type": "uint256"
        }
      ],
      "name": "tokenByIndex",
      "outputs": [
        {
          "internalType": "uint256",
          "name": "",
          "type": "uint256"
        }
      ],
      "stateMutability": "view",
      "type": "function",
      "constant": true
    },
    {
      "inputs": [
        {
          "internalType": "address",
          "name": "owner",
          "type": "address"
        },
        {
          "internalType": "uint256",
          "name": "index",
          "type": "uint256"
        }
      ],
      "name": "tokenOfOwnerByIndex",
      "outputs": [
        {
          "internalType": "uint256",
          "name": "",
          "type": "uint256"
        }
      ],
      "stateMutability": "view",
      "type": "function",
      "constant": true
    },
    {
      "inputs": [
        {
          "internalType": "uint256",
          "name": "tokenId",
          "type": "uint256"
        }
      ],
      "name": "tokenURI",
      "outputs": [
        {
          "internalType": "string",
          "name": "",
          "type": "string"
        }
      ],
      "stateMutability": "view",
      "type": "function",
      "constant": true
    },
    {
      "inputs": [],
      "name": "totalSupply",
      "outputs": [
        {
          "internalType": "uint256",
          "name": "",
          "type": "uint256"
        }
      ],
      "stateMutability": "view",
      "type": "function",
      "constant": true
    },
    {
      "inputs": [
        {
          "internalType": "address",
          "name": "from",
          "type": "address"
        },
        {
          "internalType": "address",
          "name": "to",
          "type": "address"
        },
        {
          "internalType": "uint256",
          "name": "tokenId",
          "type": "uint256"
        }
      ],
      "name": "transferFrom",
      "outputs": [],
      "stateMutability": "nonpayable",
      "type": "function"
    },
    {
      "inputs": [
        {
          "internalType": "address",
          "name": "newOwner",
          "type": "address"
        }
      ],
      "name": "transferOwnership",
      "outputs": [],
      "stateMutability": "nonpayable",
      "type": "function"
    },
    {
      "inputs": [
        {
          "internalType": "string",
          "name": "name",
          "type": "string"
        },
        {
          "internalType": "string",
          "name": "description",
          "type": "string"
        },
        {
          "internalType": "uint256",
          "name": "attack",
          "type": "uint256"
        },
        {
          "internalType": "uint256",
          "name": "defense",
          "type": "uint256"
        }
      ],
      "name": "createUniqueCard",
      "outputs": [
        {
          "internalType": "uint256",
          "name": "",
          "type": "uint256"
        }
      ],
      "stateMutability": "nonpayable",
      "type": "function"
    },
    {
      "inputs": [
        {
          "internalType": "uint256",
          "name": "cardId",
          "type": "uint256"
        }
      ],
      "name": "purchaseUniqueCard",
      "outputs": [],
      "stateMutability": "payable",
      "type": "function",
      "payable": true
    },
    {
      "inputs": [
        {
          "internalType": "uint256",
          "name": "cardId",
          "type": "uint256"
        },
        {
          "internalType": "address",
          "name": "recipient",
          "type": "address"
        }
      ],
      "name": "tradeCard",
      "outputs": [],
      "stateMutability": "nonpayable",
      "type": "function"
    },
    {
      "inputs": [
        {
          "internalType": "uint256",
          "name": "cardId",
          "type": "uint256"
        },
        {
          "internalType": "uint256",
          "name": "percentIncrease",
          "type": "uint256"
        }
      ],
      "name": "increaseCardAttributes",
      "outputs": [],
      "stateMutability": "nonpayable",
      "type": "function"
    },
    {
      "inputs": [
        {
          "internalType": "uint256",
          "name": "cardId",
          "type": "uint256"
        }
      ],
      "name": "getCardAttributes",
      "outputs": [
        {
          "internalType": "uint256",
          "name": "attack",
          "type": "uint256"
        },
        {
          "internalType": "uint256",
          "name": "defense",
          "type": "uint256"
        }
      ],
      "stateMutability": "view",
      "type": "function",
      "constant": true
    },
    {
      "inputs": [
        {
          "internalType": "uint256",
          "name": "cardId",
          "type": "uint256"
        },
        {
          "internalType": "uint256",
          "name": "newDefense",
          "type": "uint256"
        }
      ],
      "name": "updateCardDefense",
      "outputs": [],
      "stateMutability": "nonpayable",
      "type": "function"
    },
    {
      "inputs": [
        {
          "internalType": "uint256",
          "name": "cardId",
          "type": "uint256"
        }
      ],
      "name": "burnCard",
      "outputs": [],
      "stateMutability": "nonpayable",
      "type": "function"
    }
  ],
  "bytecode": "0x60806040523480156200001157600080fd5b506040518060400160405280600b81526020017f556e6971756543617264730000000000000000000000000000000000000000008152506040518060400160405280600281526020017f554300000000000000000000000000000000000000000000000000000000000081525081600090816200008f919062000412565b508060019081620000a1919062000412565b505050620000c4620000b8620000ca60201b60201c565b620000d260201b60201c565b620004f9565b600033905090565b6000600a60009054906101000a900473ffffffffffffffffffffffffffffffffffffffff16905081600a60006101000a81548173ffffffffffffffffffffffffffffffffffffffff021916908373ffffffffffffffffffffffffffffffffffffffff1602179055508173ffffffffffffffffffffffffffffffffffffffff168173ffffffffffffffffffffffffffffffffffffffff167f8be0079c531659141344cd1fd0a4f28419497f9722a3daafe3b4186f6b6457e060405160405180910390a35050565b600081519050919050565b7f4e487b7100000000000000000000000000000000000000000000000000000000600052604160045260246000fd5b7f4e487b7100000000000000000000000000000000000000000000000000000000600052602260045260246000fd5b600060028204905060018216806200021a57607f821691505b60208210810362000230576200022f620001d2565b5b50919050565b60008190508160005260206000209050919050565b60006020601f8301049050919050565b600082821b905092915050565b6000600883026200029a7fffffffffffffffffffffffffffffffffffffffffffffffffffffffffffffffff826200025b565b620002a686836200025b565b95508019841693508086168417925050509392505050565b6000819050919050565b6000819050919050565b6000620002f3620002ed620002e784620002be565b620002c8565b620002be565b9050919050565b6000819050919050565b6200030f83620002d2565b620003276200031e82620002fa565b84845462000268565b825550505050565b600090565b6200033e6200032f565b6200034b81848462000304565b505050565b5b8181101562000373576200036760008262000334565b60018101905062000351565b5050565b601f821115620003c2576200038c8162000236565b62000397846200024b565b81016020851015620003a7578190505b620003bf620003b6856200024b565b83018262000350565b50505b505050565b600082821c905092915050565b6000620003e760001984600802620003c7565b1980831691505092915050565b6000620004028383620003d4565b9150826002028217905092915050565b6200041d8262000198565b67ffffffffffffffff811115620004395762000438620001a3565b5b62000445825462000201565b6200045282828562000377565b600060209050601f8311600181146200048a576000841562000475578287015190505b620004818582620003f4565b865550620004f1565b601f1984166200049a8662000236565b60005b82811015620004c4578489015182556001820191506020850194506020810190506200049d565b86831015620004e45784890151620004e0601f891682620003d4565b8355505b6001600288020188555050505b505050505050565b61443980620005096000396000f3fe60806040526004361061019c5760003560e01c8063715018a6116100ec578063ba7e7d051161008a578063e985e9c511610064578063e985e9c5146105ff578063ec5ac24b1461063c578063f2fde38b14610658578063f7ee23dc146106815761019c565b8063ba7e7d051461055b578063c87b56dd14610584578063d5aaa5b0146105c15761019c565b80638dc10768116100c65780638dc107681461049d57806395d89b41146104de578063a22cb46514610509578063b88d4fde146105325761019c565b8063715018a6146104325780638a91a6c8146104495780638da5cb5b146104725761019c565b80632f745c59116101595780634f6ccce7116101335780634f6ccce714610352578063618857ba1461038f5780636352211e146103b857806370a08231146103f55761019c565b80632f745c59146102c35780633e81872d1461030057806342842e0e146103295761019c565b806301ffc9a7146101a157806306fdde03146101de578063081812fc14610209578063095ea7b31461024657806318160ddd1461026f57806323b872dd1461029a575b600080fd5b3480156101ad57600080fd5b506101c860048036038101906101c39190612ba3565b6106be565b6040516101d59190612beb565b60405180910390f35b3480156101ea57600080fd5b506101f3610738565b6040516102009190612c96565b60405180910390f35b34801561021557600080fd5b50610230600480360381019061022b9190612cee565b6107ca565b60405161023d9190612d5c565b60405180910390f35b34801561025257600080fd5b5061026d60048036038101906102689190612da3565b610810565b005b34801561027b57600080fd5b50610284610927565b6040516102919190612df2565b60405180910390f35b3480156102a657600080fd5b506102c160048036038101906102bc9190612e0d565b610934565b005b3480156102cf57600080fd5b506102ea60048036038101906102e59190612da3565b610994565b6040516102f79190612df2565b60405180910390f35b34801561030c57600080fd5b5061032760048036038101906103229190612e60565b610a39565b005b34801561033557600080fd5b50610350600480360381019061034b9190612e0d565b610ae8565b005b34801561035e57600080fd5b5061037960048036038101906103749190612cee565b610b08565b6040516103869190612df2565b60405180910390f35b34801561039b57600080fd5b506103b660048036038101906103b19190612e60565b610b79565b005b3480156103c457600080fd5b506103df60048036038101906103da9190612cee565b610c7d565b6040516103ec9190612d5c565b60405180910390f35b34801561040157600080fd5b5061041c60048036038101906104179190612ea0565b610d03565b6040516104299190612df2565b60405180910390f35b34801561043e57600080fd5b50610447610dba565b005b34801561045557600080fd5b50610470600480360381019061046b9190612ecd565b610dce565b005b34801561047e57600080fd5b50610487610e63565b6040516104949190612d5c565b60405180910390f35b3480156104a957600080fd5b506104c460048036038101906104bf9190612cee565b610e8d565b6040516104d5959493929190612f0d565b60405180910390f35b3480156104ea57600080fd5b506104f3610fd3565b6040516105009190612c96565b60405180910390f35b34801561051557600080fd5b50610530600480360381019061052b9190612f9a565b611065565b005b34801561053e57600080fd5b506105596004803603810190610554919061310f565b61107b565b005b34801561056757600080fd5b50610582600480360381019061057d9190612cee565b6110dd565b005b34801561059057600080fd5b506105ab60048036038101906105a69190612cee565b6111f0565b6040516105b89190612c96565b60405180910390f35b3480156105cd57600080fd5b506105e860048036038101906105e39190612cee565b611258565b6040516105f6929190613192565b60405180910390f35b34801561060b57600080fd5b50610626600480360381019061062191906131bb565b611286565b6040516106339190612beb565b60405180910390f35b61065660048036038101906106519190612cee565b61131a565b005b34801561066457600080fd5b5061067f600480360381019061067a9190612ea0565b6114ac565b005b34801561068d57600080fd5b506106a860048036038101906106a3919061329c565b61152f565b6040516106b59190612df2565b60405180910390f35b60007f780e9d63000000000000000000000000000000000000000000000000000000007bffffffffffffffffffffffffffffffffffffffffffffffffffffffff1916827bffffffffffffffffffffffffffffffffffffffffffffffffffffffff191614806107315750610730826115e6565b5b9050919050565b6060600080546107479061336a565b80601f01602080910402602001604051908101604052809291908181526020018280546107739061336a565b80156107c05780601f10610795576101008083540402835291602001916107c0565b820191906000526020600020905b8154815290600101906020018083116107a357829003601f168201915b5050505050905090565b60006107d5826116c8565b6004600083815260200190815260200160002060009054906101000a900473ffffffffffffffffffffffffffffffffffffffff169050919050565b600061081b82610c7d565b90508073ffffffffffffffffffffffffffffffffffffffff168373ffffffffffffffffffffffffffffffffffffffff160361088b576040517f08c379a00000000000000000000000000000000000000000000000000000000081526004016108829061340d565b60405180910390fd5b8073ffffffffffffffffffffffffffffffffffffffff166108aa611713565b73ffffffffffffffffffffffffffffffffffffffff1614806108d957506108d8816108d3611713565b611286565b5b610918576040517f08c379a000000000000000000000000000000000000000000000000000000000815260040161090f9061349f565b60405180910390fd5b610922838361171b565b505050565b6000600880549050905090565b61094561093f611713565b826117d4565b610984576040517f08c379a000000000000000000000000000000000000000000000000000000000815260040161097b90613531565b60405180910390fd5b61098f838383611869565b505050565b600061099f83610d03565b82106109e0576040517f08c379a00000000000000000000000000000000000000000000000000000000081526004016109d7906135c3565b60405180910390fd5b600660008473ffffffffffffffffffffffffffffffffffffffff1673ffffffffffffffffffffffffffffffffffffffff168152602001908152602001600020600083815260200190815260200160002054905092915050565b600b60009054906101000a900473ffffffffffffffffffffffffffffffffffffffff1673ffffffffffffffffffffffffffffffffffffffff163373ffffffffffffffffffffffffffffffffffffffff1614610ac9576040517f08c379a0000000000000000000000000000000000000000000000000000000008152600401610ac09061362f565b60405180910390fd5b80600d6000848152602001908152602001600020600401819055505050565b610b038383836040518060200160405280600081525061107b565b505050565b6000610b12610927565b8210610b53576040517f08c379a0000000000000000000000000000000000000000000000000000000008152600401610b4a906136c1565b60405180910390fd5b60088281548110610b6757610b666136e1565b5b90600052602060002001549050919050565b81600d60008481526020019081526020016000206000015414610bd1576040517f08c379a0000000000000000000000000000000000000000000000000000000008152600401610bc89061375c565b60405180910390fd5b6064816064610be091906137ab565b600d600085815260200190815260200160002060030154610c0191906137df565b610c0b9190613850565b600d6000848152602001908152602001600020600301819055506064816064610c3491906137ab565b600d600085815260200190815260200160002060040154610c5591906137df565b610c5f9190613850565b600d6000848152602001908152602001600020600401819055505050565b600080610c8983611b62565b9050600073ffffffffffffffffffffffffffffffffffffffff168173ffffffffffffffffffffffffffffffffffffffff1603610cfa576040517f08c379a0000000000000000000000000000000000000000000000000000000008152600401610cf1906138cd565b60405180910390fd5b80915050919050565b60008073ffffffffffffffffffffffffffffffffffffffff168273ffffffffffffffffffffffffffffffffffffffff1603610d73576040517f08c379a0000000000000000000000000000000000000000000000000000000008152600401610d6a9061395f565b60405180910390fd5b600360008373ffffffffffffffffffffffffffffffffffffffff1673ffffffffffffffffffffffffffffffffffffffff168152602001908152602001600020549050919050565b610dc2611b9f565b610dcc6000611c1d565b565b3373ffffffffffffffffffffffffffffffffffffffff16610dee83610c7d565b73ffffffffffffffffffffffffffffffffffffffff1614610e44576040517f08c379a0000000000000000000000000000000000000000000000000000000008152600401610e3b906139cb565b60405180910390fd5b610e5f33828460405180602001604052806000815250611ce3565b5050565b6000600a60009054906101000a900473ffffffffffffffffffffffffffffffffffffffff16905090565b600d602052806000526040600020600091509050806000015490806001018054610eb69061336a565b80601f0160208091040260200160405190810160405280929190818152602001828054610ee29061336a565b8015610f2f5780601f10610f0457610100808354040283529160200191610f2f565b820191906000526020600020905b815481529060010190602001808311610f1257829003601f168201915b505050505090806002018054610f449061336a565b80601f0160208091040260200160405190810160405280929190818152602001828054610f709061336a565b8015610fbd5780601f10610f9257610100808354040283529160200191610fbd565b820191906000526020600020905b815481529060010190602001808311610fa057829003601f168201915b5050505050908060030154908060040154905085565b606060018054610fe29061336a565b80601f016020809104026020016040519081016040528092919081815260200182805461100e9061336a565b801561105b5780601f106110305761010080835404028352916020019161105b565b820191906000526020600020905b81548152906001019060200180831161103e57829003601f168201915b5050505050905090565b611077611070611713565b8383611d3f565b5050565b61108c611086611713565b836117d4565b6110cb576040517f08c379a00000000000000000000000000000000000000000000000000000000081526004016110c290613531565b60405180910390fd5b6110d784848484611ce3565b50505050565b600b60009054906101000a900473ffffffffffffffffffffffffffffffffffffffff1673ffffffffffffffffffffffffffffffffffffffff163373ffffffffffffffffffffffffffffffffffffffff161461116d576040517f08c379a00000000000000000000000000000000000000000000000000000000081526004016111649061362f565b60405180910390fd5b600073ffffffffffffffffffffffffffffffffffffffff1661118e82610c7d565b73ffffffffffffffffffffffffffffffffffffffff16036111e4576040517f08c379a00000000000000000000000000000000000000000000000000000000081526004016111db90613a37565b60405180910390fd5b6111ed81611eab565b50565b60606111fb826116c8565b6000611205611ff9565b905060008151116112255760405180602001604052806000815250611250565b8061122f84612010565b604051602001611240929190613a93565b6040516020818303038152906040525b915050919050565b6000806000600d60008581526020019081526020016000209050806003015481600401549250925050915091565b6000600560008473ffffffffffffffffffffffffffffffffffffffff1673ffffffffffffffffffffffffffffffffffffffff16815260200190815260200160002060008373ffffffffffffffffffffffffffffffffffffffff1673ffffffffffffffffffffffffffffffffffffffff16815260200190815260200160002060009054906101000a900460ff16905092915050565b80600d60008381526020019081526020016000206000015414611372576040517f08c379a00000000000000000000000000000000000000000000000000000000081526004016113699061375c565b60405180910390fd5b61137a610e63565b73ffffffffffffffffffffffffffffffffffffffff1661139982610c7d565b73ffffffffffffffffffffffffffffffffffffffff16146113ef576040517f08c379a00000000000000000000000000000000000000000000000000000000081526004016113e690613b29565b60405180910390fd5b662386f26fc10000341015611439576040517f08c379a000000000000000000000000000000000000000000000000000000000815260040161143090613b95565b60405180910390fd5b61145b611444610e63565b338360405180602001604052806000815250611ce3565b611463610e63565b73ffffffffffffffffffffffffffffffffffffffff166108fc349081150290604051600060405180830381858888f193505050501580156114a8573d6000803e3d6000fd5b5050565b6114b4611b9f565b600073ffffffffffffffffffffffffffffffffffffffff168173ffffffffffffffffffffffffffffffffffffffff1603611523576040517f08c379a000000000000000000000000000000000000000000000000000000000815260040161151a90613c27565b60405180910390fd5b61152c81611c1d565b50565b600061153b600c6120de565b6000611547600c6120f4565b90506040518060a0016040528082815260200187815260200186815260200185815260200184815250600d60008381526020019081526020016000206000820151816000015560208201518160010190816115a29190613df3565b5060408201518160020190816115b89190613df3565b5060608201518160030155608082015181600401559050506115da3382612102565b80915050949350505050565b60007f80ac58cd000000000000000000000000000000000000000000000000000000007bffffffffffffffffffffffffffffffffffffffffffffffffffffffff1916827bffffffffffffffffffffffffffffffffffffffffffffffffffffffff191614806116b157507f5b5e139f000000000000000000000000000000000000000000000000000000007bffffffffffffffffffffffffffffffffffffffffffffffffffffffff1916827bffffffffffffffffffffffffffffffffffffffffffffffffffffffff1916145b806116c157506116c08261231f565b5b9050919050565b6116d181612389565b611710576040517f08c379a0000000000000000000000000000000000000000000000000000000008152600401611707906138cd565b60405180910390fd5b50565b600033905090565b816004600083815260200190815260200160002060006101000a81548173ffffffffffffffffffffffffffffffffffffffff021916908373ffffffffffffffffffffffffffffffffffffffff160217905550808273ffffffffffffffffffffffffffffffffffffffff1661178e83610c7d565b73ffffffffffffffffffffffffffffffffffffffff167f8c5be1e5ebec7d5bd14f71427d1e84f3dd0314c0f7b2291e5b200ac8c7c3b92560405160405180910390a45050565b6000806117e083610c7d565b90508073ffffffffffffffffffffffffffffffffffffffff168473ffffffffffffffffffffffffffffffffffffffff16148061182257506118218185611286565b5b8061186057508373ffffffffffffffffffffffffffffffffffffffff16611848846107ca565b73ffffffffffffffffffffffffffffffffffffffff16145b91505092915050565b8273ffffffffffffffffffffffffffffffffffffffff1661188982610c7d565b73ffffffffffffffffffffffffffffffffffffffff16146118df576040517f08c379a00000000000000000000000000000000000000000000000000000000081526004016118d690613f37565b60405180910390fd5b600073ffffffffffffffffffffffffffffffffffffffff168273ffffffffffffffffffffffffffffffffffffffff160361194e576040517f08c379a000000000000000000000000000000000000000000000000000000000815260040161194590613fc9565b60405180910390fd5b61195b83838360016123ca565b8273ffffffffffffffffffffffffffffffffffffffff1661197b82610c7d565b73ffffffffffffffffffffffffffffffffffffffff16146119d1576040517f08c379a00000000000000000000000000000000000000000000000000000000081526004016119c890613f37565b60405180910390fd5b6004600082815260200190815260200160002060006101000a81549073ffffffffffffffffffffffffffffffffffffffff02191690556001600360008573ffffffffffffffffffffffffffffffffffffffff1673ffffffffffffffffffffffffffffffffffffffff168152602001908152602001600020600082825403925050819055506001600360008473ffffffffffffffffffffffffffffffffffffffff1673ffffffffffffffffffffffffffffffffffffffff16815260200190815260200160002060008282540192505081905550816002600083815260200190815260200160002060006101000a81548173ffffffffffffffffffffffffffffffffffffffff021916908373ffffffffffffffffffffffffffffffffffffffff160217905550808273ffffffffffffffffffffffffffffffffffffffff168473ffffffffffffffffffffffffffffffffffffffff167fddf252ad1be2c89b69c2b068fc378daa952ba7f163c4a11628f55a4df523b3ef60405160405180910390a4611b5d8383836001612528565b505050565b60006002600083815260200190815260200160002060009054906101000a900473ffffffffffffffffffffffffffffffffffffffff169050919050565b611ba7611713565b73ffffffffffffffffffffffffffffffffffffffff16611bc5610e63565b73ffffffffffffffffffffffffffffffffffffffff1614611c1b576040517f08c379a0000000000000000000000000000000000000000000000000000000008152600401611c1290614035565b60405180910390fd5b565b6000600a60009054906101000a900473ffffffffffffffffffffffffffffffffffffffff16905081600a60006101000a81548173ffffffffffffffffffffffffffffffffffffffff021916908373ffffffffffffffffffffffffffffffffffffffff1602179055508173ffffffffffffffffffffffffffffffffffffffff168173ffffffffffffffffffffffffffffffffffffffff167f8be0079c531659141344cd1fd0a4f28419497f9722a3daafe3b4186f6b6457e060405160405180910390a35050565b611cee848484611869565b611cfa8484848461252e565b611d39576040517f08c379a0000000000000000000000000000000000000000000000000000000008152600401611d30906140c7565b60405180910390fd5b50505050565b8173ffffffffffffffffffffffffffffffffffffffff168373ffffffffffffffffffffffffffffffffffffffff1603611dad576040517f08c379a0000000000000000000000000000000000000000000000000000000008152600401611da490614133565b60405180910390fd5b80600560008573ffffffffffffffffffffffffffffffffffffffff1673ffffffffffffffffffffffffffffffffffffffff16815260200190815260200160002060008473ffffffffffffffffffffffffffffffffffffffff1673ffffffffffffffffffffffffffffffffffffffff16815260200190815260200160002060006101000a81548160ff0219169083151502179055508173ffffffffffffffffffffffffffffffffffffffff168373ffffffffffffffffffffffffffffffffffffffff167f17307eab39ab6107e8899845ad3d59bd9653f200f220920489ca2b5937696c3183604051611e9e9190612beb565b60405180910390a3505050565b6000611eb682610c7d565b9050611ec68160008460016123ca565b611ecf82610c7d565b90506004600083815260200190815260200160002060006101000a81549073ffffffffffffffffffffffffffffffffffffffff02191690556001600360008373ffffffffffffffffffffffffffffffffffffffff1673ffffffffffffffffffffffffffffffffffffffff168152602001908152602001600020600082825403925050819055506002600083815260200190815260200160002060006101000a81549073ffffffffffffffffffffffffffffffffffffffff021916905581600073ffffffffffffffffffffffffffffffffffffffff168273ffffffffffffffffffffffffffffffffffffffff167fddf252ad1be2c89b69c2b068fc378daa952ba7f163c4a11628f55a4df523b3ef60405160405180910390a4611ff5816000846001612528565b5050565b606060405180602001604052806000815250905090565b60606000600161201f846126b5565b01905060008167ffffffffffffffff81111561203e5761203d612fe4565b5b6040519080825280601f01601f1916602001820160405280156120705781602001600182028036833780820191505090505b509050600082602001820190505b6001156120d3578080600190039150507f3031323334353637383961626364656600000000000000000000000000000000600a86061a8153600a85816120c7576120c6613821565b5b0494506000850361207e575b819350505050919050565b6001816000016000828254019250508190555050565b600081600001549050919050565b600073ffffffffffffffffffffffffffffffffffffffff168273ffffffffffffffffffffffffffffffffffffffff1603612171576040517f08c379a00000000000000000000000000000000000000000000000000000000081526004016121689061419f565b60405180910390fd5b61217a81612389565b156121ba576040517f08c379a00000000000000000000000000000000000000000000000000000000081526004016121b19061420b565b60405180910390fd5b6121c86000838360016123ca565b6121d181612389565b15612211576040517f08c379a00000000000000000000000000000000000000000000000000000000081526004016122089061420b565b60405180910390fd5b6001600360008473ffffffffffffffffffffffffffffffffffffffff1673ffffffffffffffffffffffffffffffffffffffff16815260200190815260200160002060008282540192505081905550816002600083815260200190815260200160002060006101000a81548173ffffffffffffffffffffffffffffffffffffffff021916908373ffffffffffffffffffffffffffffffffffffffff160217905550808273ffffffffffffffffffffffffffffffffffffffff16600073ffffffffffffffffffffffffffffffffffffffff167fddf252ad1be2c89b69c2b068fc378daa952ba7f163c4a11628f55a4df523b3ef60405160405180910390a461231b600083836001612528565b5050565b60007f01ffc9a7000000000000000000000000000000000000000000000000000000007bffffffffffffffffffffffffffffffffffffffffffffffffffffffff1916827bffffffffffffffffffffffffffffffffffffffffffffffffffffffff1916149050919050565b60008073ffffffffffffffffffffffffffffffffffffffff166123ab83611b62565b73ffffffffffffffffffffffffffffffffffffffff1614159050919050565b6123d684848484612808565b600181111561241a576040517f08c379a00000000000000000000000000000000000000000000000000000000081526004016124119061429d565b60405180910390fd5b6000829050600073ffffffffffffffffffffffffffffffffffffffff168573ffffffffffffffffffffffffffffffffffffffff16036124615761245c8161280e565b6124a0565b8373ffffffffffffffffffffffffffffffffffffffff168573ffffffffffffffffffffffffffffffffffffffff161461249f5761249e8582612857565b5b5b600073ffffffffffffffffffffffffffffffffffffffff168473ffffffffffffffffffffffffffffffffffffffff16036124e2576124dd816129c4565b612521565b8473ffffffffffffffffffffffffffffffffffffffff168473ffffffffffffffffffffffffffffffffffffffff16146125205761251f8482612a95565b5b5b5050505050565b50505050565b600061254f8473ffffffffffffffffffffffffffffffffffffffff16612b14565b156126a8578373ffffffffffffffffffffffffffffffffffffffff1663150b7a02612578611713565b8786866040518563ffffffff1660e01b815260040161259a9493929190614312565b6020604051808303816000875af19250505080156125d657506040513d601f19601f820116820180604052508101906125d39190614373565b60015b612658573d8060008114612606576040519150601f19603f3d011682016040523d82523d6000602084013e61260b565b606091505b506000815103612650576040517f08c379a0000000000000000000000000000000000000000000000000000000008152600401612647906140c7565b60405180910390fd5b805181602001fd5b63150b7a0260e01b7bffffffffffffffffffffffffffffffffffffffffffffffffffffffff1916817bffffffffffffffffffffffffffffffffffffffffffffffffffffffff1916149150506126ad565b600190505b949350505050565b600080600090507a184f03e93ff9f4daa797ed6e38ed64bf6a1f0100000000000000008310612713577a184f03e93ff9f4daa797ed6e38ed64bf6a1f010000000000000000838161270957612708613821565b5b0492506040810190505b6d04ee2d6d415b85acef81000000008310612750576d04ee2d6d415b85acef8100000000838161274657612745613821565b5b0492506020810190505b662386f26fc10000831061277f57662386f26fc10000838161277557612774613821565b5b0492506010810190505b6305f5e10083106127a8576305f5e100838161279e5761279d613821565b5b0492506008810190505b61271083106127cd5761271083816127c3576127c2613821565b5b0492506004810190505b606483106127f057606483816127e6576127e5613821565b5b0492506002810190505b600a83106127ff576001810190505b80915050919050565b50505050565b6008805490506009600083815260200190815260200160002081905550600881908060018154018082558091505060019003906000526020600020016000909190919091505550565b6000600161286484610d03565b61286e91906143a0565b9050600060076000848152602001908152602001600020549050818114612953576000600660008673ffffffffffffffffffffffffffffffffffffffff1673ffffffffffffffffffffffffffffffffffffffff168152602001908152602001600020600084815260200190815260200160002054905080600660008773ffffffffffffffffffffffffffffffffffffffff1673ffffffffffffffffffffffffffffffffffffffff168152602001908152602001600020600084815260200190815260200160002081905550816007600083815260200190815260200160002081905550505b6007600084815260200190815260200160002060009055600660008573ffffffffffffffffffffffffffffffffffffffff1673ffffffffffffffffffffffffffffffffffffffff16815260200190815260200160002060008381526020019081526020016000206000905550505050565b600060016008805490506129d891906143a0565b9050600060096000848152602001908152602001600020549050600060088381548110612a0857612a076136e1565b5b906000526020600020015490508060088381548110612a2a57612a296136e1565b5b906000526020600020018190555081600960008381526020019081526020016000208190555060096000858152602001908152602001600020600090556008805480612a7957612a786143d4565b5b6001900381819060005260206000200160009055905550505050565b6000612aa083610d03565b905081600660008573ffffffffffffffffffffffffffffffffffffffff1673ffffffffffffffffffffffffffffffffffffffff168152602001908152602001600020600083815260200190815260200160002081905550806007600084815260200190815260200160002081905550505050565b6000808273ffffffffffffffffffffffffffffffffffffffff163b119050919050565b6000604051905090565b600080fd5b600080fd5b60007fffffffff0000000000000000000000000000000000000000000000000000000082169050919050565b612b8081612b4b565b8114612b8b57600080fd5b50565b600081359050612b9d81612b77565b92915050565b600060208284031215612bb957612bb8612b41565b5b6000612bc784828501612b8e565b91505092915050565b60008115159050919050565b612be581612bd0565b82525050565b6000602082019050612c006000830184612bdc565b92915050565b600081519050919050565b600082825260208201905092915050565b60005b83811015612c40578082015181840152602081019050612c25565b60008484015250505050565b6000601f19601f8301169050919050565b6000612c6882612c06565b612c728185612c11565b9350612c82818560208601612c22565b612c8b81612c4c565b840191505092915050565b60006020820190508181036000830152612cb08184612c5d565b905092915050565b6000819050919050565b612ccb81612cb8565b8114612cd657600080fd5b50565b600081359050612ce881612cc2565b92915050565b600060208284031215612d0457612d03612b41565b5b6000612d1284828501612cd9565b91505092915050565b600073ffffffffffffffffffffffffffffffffffffffff82169050919050565b6000612d4682612d1b565b9050919050565b612d5681612d3b565b82525050565b6000602082019050612d716000830184612d4d565b92915050565b612d8081612d3b565b8114612d8b57600080fd5b50565b600081359050612d9d81612d77565b92915050565b60008060408385031215612dba57612db9612b41565b5b6000612dc885828601612d8e565b9250506020612dd985828601612cd9565b9150509250929050565b612dec81612cb8565b82525050565b6000602082019050612e076000830184612de3565b92915050565b600080600060608486031215612e2657612e25612b41565b5b6000612e3486828701612d8e565b9350506020612e4586828701612d8e565b9250506040612e5686828701612cd9565b9150509250925092565b60008060408385031215612e7757612e76612b41565b5b6000612e8585828601612cd9565b9250506020612e9685828601612cd9565b9150509250929050565b600060208284031215612eb657612eb5612b41565b5b6000612ec484828501612d8e565b91505092915050565b60008060408385031215612ee457612ee3612b41565b5b6000612ef285828601612cd9565b9250506020612f0385828601612d8e565b9150509250929050565b600060a082019050612f226000830188612de3565b8181036020830152612f348187612c5d565b90508181036040830152612f488186612c5d565b9050612f576060830185612de3565b612f646080830184612de3565b9695505050505050565b612f7781612bd0565b8114612f8257600080fd5b50565b600081359050612f9481612f6e565b92915050565b60008060408385031215612fb157612fb0612b41565b5b6000612fbf85828601612d8e565b9250506020612fd085828601612f85565b9150509250929050565b600080fd5b600080fd5b7f4e487b7100000000000000000000000000000000000000000000000000000000600052604160045260246000fd5b61301c82612c4c565b810181811067ffffffffffffffff8211171561303b5761303a612fe4565b5b80604052505050565b600061304e612b37565b905061305a8282613013565b919050565b600067ffffffffffffffff82111561307a57613079612fe4565b5b61308382612c4c565b9050602081019050919050565b82818337600083830152505050565b60006130b26130ad8461305f565b613044565b9050828152602081018484840111156130ce576130cd612fdf565b5b6130d9848285613090565b509392505050565b600082601f8301126130f6576130f5612fda565b5b813561310684826020860161309f565b91505092915050565b6000806000806080858703121561312957613128612b41565b5b600061313787828801612d8e565b945050602061314887828801612d8e565b935050604061315987828801612cd9565b925050606085013567ffffffffffffffff81111561317a57613179612b46565b5b613186878288016130e1565b91505092959194509250565b60006040820190506131a76000830185612de3565b6131b46020830184612de3565b9392505050565b600080604083850312156131d2576131d1612b41565b5b60006131e085828601612d8e565b92505060206131f185828601612d8e565b9150509250929050565b600067ffffffffffffffff82111561321657613215612fe4565b5b61321f82612c4c565b9050602081019050919050565b600061323f61323a846131fb565b613044565b90508281526020810184848401111561325b5761325a612fdf565b5b613266848285613090565b509392505050565b600082601f83011261328357613282612fda565b5b813561329384826020860161322c565b91505092915050565b600080600080608085870312156132b6576132b5612b41565b5b600085013567ffffffffffffffff8111156132d4576132d3612b46565b5b6132e08782880161326e565b945050602085013567ffffffffffffffff81111561330157613300612b46565b5b61330d8782880161326e565b935050604061331e87828801612cd9565b925050606061332f87828801612cd9565b91505092959194509250565b7f4e487b7100000000000000000000000000000000000000000000000000000000600052602260045260246000fd5b6000600282049050600182168061338257607f821691505b6020821081036133955761339461333b565b5b50919050565b7f4552433732313a20617070726f76616c20746f2063757272656e74206f776e6560008201527f7200000000000000000000000000000000000000000000000000000000000000602082015250565b60006133f7602183612c11565b91506134028261339b565b604082019050919050565b60006020820190508181036000830152613426816133ea565b9050919050565b7f4552433732313a20617070726f76652063616c6c6572206973206e6f7420746f60008201527f6b656e206f776e6572206f7220617070726f76656420666f7220616c6c000000602082015250565b6000613489603d83612c11565b91506134948261342d565b604082019050919050565b600060208201905081810360008301526134b88161347c565b9050919050565b7f4552433732313a2063616c6c6572206973206e6f7420746f6b656e206f776e6560008201527f72206f7220617070726f76656400000000000000000000000000000000000000602082015250565b600061351b602d83612c11565b9150613526826134bf565b604082019050919050565b6000602082019050818103600083015261354a8161350e565b9050919050565b7f455243373231456e756d657261626c653a206f776e657220696e646578206f7560008201527f74206f6620626f756e6473000000000000000000000000000000000000000000602082015250565b60006135ad602b83612c11565b91506135b882613551565b604082019050919050565b600060208201905081810360008301526135dc816135a0565b9050919050565b7f556e617574686f72697a65640000000000000000000000000000000000000000600082015250565b6000613619600c83612c11565b9150613624826135e3565b602082019050919050565b600060208201905081810360008301526136488161360c565b9050919050565b7f455243373231456e756d657261626c653a20676c6f62616c20696e646578206f60008201527f7574206f6620626f756e64730000000000000000000000000000000000000000602082015250565b60006136ab602c83612c11565b91506136b68261364f565b604082019050919050565b600060208201905081810360008301526136da8161369e565b9050919050565b7f4e487b7100000000000000000000000000000000000000000000000000000000600052603260045260246000fd5b7f4361726420646f6573206e6f742065786973742e000000000000000000000000600082015250565b6000613746601483612c11565b915061375182613710565b602082019050919050565b6000602082019050818103600083015261377581613739565b9050919050565b7f4e487b7100000000000000000000000000000000000000000000000000000000600052601160045260246000fd5b60006137b682612cb8565b91506137c183612cb8565b92508282019050808211156137d9576137d861377c565b5b92915050565b60006137ea82612cb8565b91506137f583612cb8565b925082820261380381612cb8565b9150828204841483151761381a5761381961377c565b5b5092915050565b7f4e487b7100000000000000000000000000000000000000000000000000000000600052601260045260246000fd5b600061385b82612cb8565b915061386683612cb8565b92508261387657613875613821565b5b828204905092915050565b7f4552433732313a20696e76616c696420746f6b656e2049440000000000000000600082015250565b60006138b7601883612c11565b91506138c282613881565b602082019050919050565b600060208201905081810360008301526138e6816138aa565b9050919050565b7f4552433732313a2061646472657373207a65726f206973206e6f74206120766160008201527f6c6964206f776e65720000000000000000000000000000000000000000000000602082015250565b6000613949602983612c11565b9150613954826138ed565b604082019050919050565b600060208201905081810360008301526139788161393c565b9050919050565b7f4e6f7420746865206f776e6572206f662074686520636172642e000000000000600082015250565b60006139b5601a83612c11565b91506139c08261397f565b602082019050919050565b600060208201905081810360008301526139e4816139a8565b9050919050565b7f4361726420646f6573206e6f7420657869737400000000000000000000000000600082015250565b6000613a21601383612c11565b9150613a2c826139eb565b602082019050919050565b60006020820190508181036000830152613a5081613a14565b9050919050565b600081905092915050565b6000613a6d82612c06565b613a778185613a57565b9350613a87818560208601612c22565b80840191505092915050565b6000613a9f8285613a62565b9150613aab8284613a62565b91508190509392505050565b7f43617264206973206e6f7420617661696c61626c6520666f722070757263686160008201527f73652e0000000000000000000000000000000000000000000000000000000000602082015250565b6000613b13602383612c11565b9150613b1e82613ab7565b604082019050919050565b60006020820190508181036000830152613b4281613b06565b9050919050565b7f496e73756666696369656e74204554482073656e742e00000000000000000000600082015250565b6000613b7f601683612c11565b9150613b8a82613b49565b602082019050919050565b60006020820190508181036000830152613bae81613b72565b9050919050565b7f4f776e61626c653a206e6577206f776e657220697320746865207a65726f206160008201527f6464726573730000000000000000000000000000000000000000000000000000602082015250565b6000613c11602683612c11565b9150613c1c82613bb5565b604082019050919050565b60006020820190508181036000830152613c4081613c04565b9050919050565b60008190508160005260206000209050919050565b60006020601f8301049050919050565b600082821b905092915050565b600060088302613ca97fffffffffffffffffffffffffffffffffffffffffffffffffffffffffffffffff82613c6c565b613cb38683613c6c565b95508019841693508086168417925050509392505050565b6000819050919050565b6000613cf0613ceb613ce684612cb8565b613ccb565b612cb8565b9050919050565b6000819050919050565b613d0a83613cd5565b613d1e613d1682613cf7565b848454613c79565b825550505050565b600090565b613d33613d26565b613d3e818484613d01565b505050565b5b81811015613d6257613d57600082613d2b565b600181019050613d44565b5050565b601f821115613da757613d7881613c47565b613d8184613c5c565b81016020851015613d90578190505b613da4613d9c85613c5c565b830182613d43565b50505b505050565b600082821c905092915050565b6000613dca60001984600802613dac565b1980831691505092915050565b6000613de38383613db9565b9150826002028217905092915050565b613dfc82612c06565b67ffffffffffffffff811115613e1557613e14612fe4565b5b613e1f825461336a565b613e2a828285613d66565b600060209050601f831160018114613e5d5760008415613e4b578287015190505b613e558582613dd7565b865550613ebd565b601f198416613e6b86613c47565b60005b82811015613e9357848901518255600182019150602085019450602081019050613e6e565b86831015613eb05784890151613eac601f891682613db9565b8355505b6001600288020188555050505b505050505050565b7f4552433732313a207472616e736665722066726f6d20696e636f72726563742060008201527f6f776e6572000000000000000000000000000000000000000000000000000000602082015250565b6000613f21602583612c11565b9150613f2c82613ec5565b604082019050919050565b60006020820190508181036000830152613f5081613f14565b9050919050565b7f4552433732313a207472616e7366657220746f20746865207a65726f2061646460008201527f7265737300000000000000000000000000000000000000000000000000000000602082015250565b6000613fb3602483612c11565b9150613fbe82613f57565b604082019050919050565b60006020820190508181036000830152613fe281613fa6565b9050919050565b7f4f776e61626c653a2063616c6c6572206973206e6f7420746865206f776e6572600082015250565b600061401f602083612c11565b915061402a82613fe9565b602082019050919050565b6000602082019050818103600083015261404e81614012565b9050919050565b7f4552433732313a207472616e7366657220746f206e6f6e20455243373231526560008201527f63656976657220696d706c656d656e7465720000000000000000000000000000602082015250565b60006140b1603283612c11565b91506140bc82614055565b604082019050919050565b600060208201905081810360008301526140e0816140a4565b9050919050565b7f4552433732313a20617070726f766520746f2063616c6c657200000000000000600082015250565b600061411d601983612c11565b9150614128826140e7565b602082019050919050565b6000602082019050818103600083015261414c81614110565b9050919050565b7f4552433732313a206d696e7420746f20746865207a65726f2061646472657373600082015250565b6000614189602083612c11565b915061419482614153565b602082019050919050565b600060208201905081810360008301526141b88161417c565b9050919050565b7f4552433732313a20746f6b656e20616c7265616479206d696e74656400000000600082015250565b60006141f5601c83612c11565b9150614200826141bf565b602082019050919050565b60006020820190508181036000830152614224816141e8565b9050919050565b7f455243373231456e756d657261626c653a20636f6e736563757469766520747260008201527f616e7366657273206e6f7420737570706f727465640000000000000000000000602082015250565b6000614287603583612c11565b91506142928261422b565b604082019050919050565b600060208201905081810360008301526142b68161427a565b9050919050565b600081519050919050565b600082825260208201905092915050565b60006142e4826142bd565b6142ee81856142c8565b93506142fe818560208601612c22565b61430781612c4c565b840191505092915050565b60006080820190506143276000830187612d4d565b6143346020830186612d4d565b6143416040830185612de3565b818103606083015261435381846142d9565b905095945050505050565b60008151905061436d81612b77565b92915050565b60006020828403121561438957614388612b41565b5b60006143978482850161435e565b91505092915050565b60006143ab82612cb8565b91506143b683612cb8565b92508282039050818111156143ce576143cd61377c565b5b92915050565b7f4e487b7100000000000000000000000000000000000000000000000000000000600052603160045260246000fdfea264697066735822122073c16fa43a9df5c3bb33121194c8beb53dc0f869d252da84807b6b4a33f301d264736f6c63430008130033",
  "immutableReferences": {},
  "source": "// SPDX-License-Identifier: MIT\npragma solidity ^0.8.19;\n\nimport \"@openzeppelin/contracts/token/ERC721/extensions/ERC721Enumerable.sol\";\nimport \"@openzeppelin/contracts/access/Ownable.sol\";\nimport \"@openzeppelin/contracts/utils/Counters.sol\";\n\ncontract UniqueCards is ERC721Enumerable, Ownable {\n    address private PlayerRegistration;\n    using Counters for Counters.Counter;\n    Counters.Counter private _tokenIds;\n\n    struct Card {\n        uint256 id;\n        string name;\n        string description;\n        uint256 attack;\n        uint256 defense;\n    }\n\n    mapping(uint256 => Card) public cards;\n\n    constructor() ERC721(\"UniqueCards\", \"UC\") {}\n\n    function createUniqueCard(\n        string memory name,\n        string memory description,\n        uint256 attack,\n        uint256 defense\n    ) external returns (uint256) {\n        _tokenIds.increment();\n        uint256 newCardId = _tokenIds.current();\n\n        cards[newCardId] = Card({\n            id: newCardId,\n            name: name,\n            description: description,\n            attack: attack,\n            defense: defense\n        });\n\n        _mint(msg.sender, newCardId);\n        return newCardId;\n    }\n\n    function purchaseUniqueCard(uint256 cardId) external payable {\n        // Ensure the card exists\n        require(cards[cardId].id == cardId, \"Card does not exist.\");\n\n        // Check if the card is owned by the contract owner/admin\n        require(\n            ownerOf(cardId) == owner(),\n            \"Card is not available for purchase.\"\n        );\n\n        // Implement the logic for the purchase amount (e.g., fixed amount, auction, etc.)\n        require(msg.value >= 0.01 ether, \"Insufficient ETH sent.\");\n\n        // Transfer ownership of the card to the buyer\n        _safeTransfer(owner(), msg.sender, cardId, \"\");\n\n        // Transfer the ETH to the contract owner or another wallet\n        payable(owner()).transfer(msg.value);\n    }\n\n    function tradeCard(uint256 cardId, address recipient) external {\n        // Ensure the caller is the current owner of the card\n        require(ownerOf(cardId) == msg.sender, \"Not the owner of the card.\");\n\n        // Safely transfer the card to the recipient\n        _safeTransfer(msg.sender, recipient, cardId, \"\");\n    }\n\n    function increaseCardAttributes(\n        uint256 cardId,\n        uint256 percentIncrease\n    ) external {\n        require(cards[cardId].id == cardId, \"Card does not exist.\");\n        cards[cardId].attack =\n            (cards[cardId].attack * (100 + percentIncrease)) /\n            100;\n        cards[cardId].defense =\n            (cards[cardId].defense * (100 + percentIncrease)) /\n            100;\n    }\n\n    function getCardAttributes(\n        uint256 cardId\n    ) external view returns (uint256 attack, uint256 defense) {\n        Card storage card = cards[cardId];\n        return (card.attack, card.defense);\n    }\n\n    function updateCardDefense(uint256 cardId, uint256 newDefense) external {\n        require(msg.sender == address(PlayerRegistration), \"Unauthorized\"); // Only allow PlayerRegistration contract to call this\n        cards[cardId].defense = newDefense;\n    }\n\n    function burnCard(uint256 cardId) external {\n        require(msg.sender == address(PlayerRegistration), \"Unauthorized\");\n        require(ownerOf(cardId) != address(0), \"Card does not exist\");\n        _burn(cardId);\n    }\n}\n",
  "sourcePath": "/Users/ibrahimallahbuksh/BlockchainProject/contracts/ERC721SmartContract.sol",
  "compiler": {
    "name": "solc",
    "version": "0.8.19+commit.7dd6d404.Emscripten.clang"
  },
  "schemaVersion": "3.4.16",
  "updatedAt": "2023-11-19T18:52:33.257Z",
  "networkType": "ethereum",
  "devdoc": {
    "events": {
      "Approval(address,address,uint256)": {
        "details": "Emitted when `owner` enables `approved` to manage the `tokenId` token."
      },
      "ApprovalForAll(address,address,bool)": {
        "details": "Emitted when `owner` enables or disables (`approved`) `operator` to manage all of its assets."
      },
      "Transfer(address,address,uint256)": {
        "details": "Emitted when `tokenId` token is transferred from `from` to `to`."
      }
    },
    "kind": "dev",
    "methods": {
      "approve(address,uint256)": {
        "details": "See {IERC721-approve}."
      },
      "balanceOf(address)": {
        "details": "See {IERC721-balanceOf}."
      },
      "getApproved(uint256)": {
        "details": "See {IERC721-getApproved}."
      },
      "isApprovedForAll(address,address)": {
        "details": "See {IERC721-isApprovedForAll}."
      },
      "name()": {
        "details": "See {IERC721Metadata-name}."
      },
      "owner()": {
        "details": "Returns the address of the current owner."
      },
      "ownerOf(uint256)": {
        "details": "See {IERC721-ownerOf}."
      },
      "renounceOwnership()": {
        "details": "Leaves the contract without owner. It will not be possible to call `onlyOwner` functions. Can only be called by the current owner. NOTE: Renouncing ownership will leave the contract without an owner, thereby disabling any functionality that is only available to the owner."
      },
      "safeTransferFrom(address,address,uint256)": {
        "details": "See {IERC721-safeTransferFrom}."
      },
      "safeTransferFrom(address,address,uint256,bytes)": {
        "details": "See {IERC721-safeTransferFrom}."
      },
      "setApprovalForAll(address,bool)": {
        "details": "See {IERC721-setApprovalForAll}."
      },
      "supportsInterface(bytes4)": {
        "details": "See {IERC165-supportsInterface}."
      },
      "symbol()": {
        "details": "See {IERC721Metadata-symbol}."
      },
      "tokenByIndex(uint256)": {
        "details": "See {IERC721Enumerable-tokenByIndex}."
      },
      "tokenOfOwnerByIndex(address,uint256)": {
        "details": "See {IERC721Enumerable-tokenOfOwnerByIndex}."
      },
      "tokenURI(uint256)": {
        "details": "See {IERC721Metadata-tokenURI}."
      },
      "totalSupply()": {
        "details": "See {IERC721Enumerable-totalSupply}."
      },
      "transferFrom(address,address,uint256)": {
        "details": "See {IERC721-transferFrom}."
      },
      "transferOwnership(address)": {
        "details": "Transfers ownership of the contract to a new account (`newOwner`). Can only be called by the current owner."
      }
    },
    "version": 1
  },
  "userdoc": {
    "kind": "user",
    "methods": {},
    "version": 1
  }
}