{
  "contractName": "UniqueCards",
  "abi": [
    {
      "inputs": [
        {
          "internalType": "address",
          "name": "playerRegistrationAddress",
          "type": "address"
        }
      ],
      "stateMutability": "nonpayable",
      "type": "constructor"
    },
    {
      "anonymous": false,
      "inputs": [
        {
          "indexed": true,
          "internalType": "address",
          "name": "owner",
          "type": "address"
        },
        {
          "indexed": true,
          "internalType": "address",
          "name": "approved",
          "type": "address"
        },
        {
          "indexed": true,
          "internalType": "uint256",
          "name": "tokenId",
          "type": "uint256"
        }
      ],
      "name": "Approval",
      "type": "event"
    },
    {
      "anonymous": false,
      "inputs": [
        {
          "indexed": true,
          "internalType": "address",
          "name": "owner",
          "type": "address"
        },
        {
          "indexed": true,
          "internalType": "address",
          "name": "operator",
          "type": "address"
        },
        {
          "indexed": false,
          "internalType": "bool",
          "name": "approved",
          "type": "bool"
        }
      ],
      "name": "ApprovalForAll",
      "type": "event"
    },
    {
      "anonymous": false,
      "inputs": [
        {
          "indexed": true,
          "internalType": "address",
          "name": "previousOwner",
          "type": "address"
        },
        {
          "indexed": true,
          "internalType": "address",
          "name": "newOwner",
          "type": "address"
        }
      ],
      "name": "OwnershipTransferred",
      "type": "event"
    },
    {
      "anonymous": false,
      "inputs": [
        {
          "indexed": true,
          "internalType": "bytes32",
          "name": "role",
          "type": "bytes32"
        },
        {
          "indexed": true,
          "internalType": "bytes32",
          "name": "previousAdminRole",
          "type": "bytes32"
        },
        {
          "indexed": true,
          "internalType": "bytes32",
          "name": "newAdminRole",
          "type": "bytes32"
        }
      ],
      "name": "RoleAdminChanged",
      "type": "event"
    },
    {
      "anonymous": false,
      "inputs": [
        {
          "indexed": true,
          "internalType": "bytes32",
          "name": "role",
          "type": "bytes32"
        },
        {
          "indexed": true,
          "internalType": "address",
          "name": "account",
          "type": "address"
        },
        {
          "indexed": true,
          "internalType": "address",
          "name": "sender",
          "type": "address"
        }
      ],
      "name": "RoleGranted",
      "type": "event"
    },
    {
      "anonymous": false,
      "inputs": [
        {
          "indexed": true,
          "internalType": "bytes32",
          "name": "role",
          "type": "bytes32"
        },
        {
          "indexed": true,
          "internalType": "address",
          "name": "account",
          "type": "address"
        },
        {
          "indexed": true,
          "internalType": "address",
          "name": "sender",
          "type": "address"
        }
      ],
      "name": "RoleRevoked",
      "type": "event"
    },
    {
      "anonymous": false,
      "inputs": [
        {
          "indexed": true,
          "internalType": "address",
          "name": "from",
          "type": "address"
        },
        {
          "indexed": true,
          "internalType": "address",
          "name": "to",
          "type": "address"
        },
        {
          "indexed": true,
          "internalType": "uint256",
          "name": "tokenId",
          "type": "uint256"
        }
      ],
      "name": "Transfer",
      "type": "event"
    },
    {
      "inputs": [],
      "name": "CARD_CREATOR_ROLE",
      "outputs": [
        {
          "internalType": "bytes32",
          "name": "",
          "type": "bytes32"
        }
      ],
      "stateMutability": "view",
      "type": "function"
    },
    {
      "inputs": [],
      "name": "DEFAULT_ADMIN_ROLE",
      "outputs": [
        {
          "internalType": "bytes32",
          "name": "",
          "type": "bytes32"
        }
      ],
      "stateMutability": "view",
      "type": "function"
    },
    {
      "inputs": [
        {
          "internalType": "address",
          "name": "to",
          "type": "address"
        },
        {
          "internalType": "uint256",
          "name": "tokenId",
          "type": "uint256"
        }
      ],
      "name": "approve",
      "outputs": [],
      "stateMutability": "nonpayable",
      "type": "function"
    },
    {
      "inputs": [
        {
          "internalType": "address",
          "name": "owner",
          "type": "address"
        }
      ],
      "name": "balanceOf",
      "outputs": [
        {
          "internalType": "uint256",
          "name": "",
          "type": "uint256"
        }
      ],
      "stateMutability": "view",
      "type": "function"
    },
    {
      "inputs": [
        {
          "internalType": "uint256",
          "name": "",
          "type": "uint256"
        }
      ],
      "name": "cards",
      "outputs": [
        {
          "internalType": "uint256",
          "name": "id",
          "type": "uint256"
        },
        {
          "internalType": "string",
          "name": "name",
          "type": "string"
        },
        {
          "internalType": "string",
          "name": "description",
          "type": "string"
        },
        {
          "internalType": "uint256",
          "name": "attack",
          "type": "uint256"
        },
        {
          "internalType": "uint256",
          "name": "defense",
          "type": "uint256"
        }
      ],
      "stateMutability": "view",
      "type": "function"
    },
    {
      "inputs": [
        {
          "internalType": "uint256",
          "name": "tokenId",
          "type": "uint256"
        }
      ],
      "name": "getApproved",
      "outputs": [
        {
          "internalType": "address",
          "name": "",
          "type": "address"
        }
      ],
      "stateMutability": "view",
      "type": "function"
    },
    {
      "inputs": [
        {
          "internalType": "bytes32",
          "name": "role",
          "type": "bytes32"
        }
      ],
      "name": "getRoleAdmin",
      "outputs": [
        {
          "internalType": "bytes32",
          "name": "",
          "type": "bytes32"
        }
      ],
      "stateMutability": "view",
      "type": "function"
    },
    {
      "inputs": [
        {
          "internalType": "bytes32",
          "name": "role",
          "type": "bytes32"
        },
        {
          "internalType": "address",
          "name": "account",
          "type": "address"
        }
      ],
      "name": "grantRole",
      "outputs": [],
      "stateMutability": "nonpayable",
      "type": "function"
    },
    {
      "inputs": [
        {
          "internalType": "bytes32",
          "name": "role",
          "type": "bytes32"
        },
        {
          "internalType": "address",
          "name": "account",
          "type": "address"
        }
      ],
      "name": "hasRole",
      "outputs": [
        {
          "internalType": "bool",
          "name": "",
          "type": "bool"
        }
      ],
      "stateMutability": "view",
      "type": "function"
    },
    {
      "inputs": [
        {
          "internalType": "address",
          "name": "owner",
          "type": "address"
        },
        {
          "internalType": "address",
          "name": "operator",
          "type": "address"
        }
      ],
      "name": "isApprovedForAll",
      "outputs": [
        {
          "internalType": "bool",
          "name": "",
          "type": "bool"
        }
      ],
      "stateMutability": "view",
      "type": "function"
    },
    {
      "inputs": [],
      "name": "name",
      "outputs": [
        {
          "internalType": "string",
          "name": "",
          "type": "string"
        }
      ],
      "stateMutability": "view",
      "type": "function"
    },
    {
      "inputs": [],
      "name": "owner",
      "outputs": [
        {
          "internalType": "address",
          "name": "",
          "type": "address"
        }
      ],
      "stateMutability": "view",
      "type": "function"
    },
    {
      "inputs": [
        {
          "internalType": "uint256",
          "name": "tokenId",
          "type": "uint256"
        }
      ],
      "name": "ownerOf",
      "outputs": [
        {
          "internalType": "address",
          "name": "",
          "type": "address"
        }
      ],
      "stateMutability": "view",
      "type": "function"
    },
    {
      "inputs": [],
      "name": "renounceOwnership",
      "outputs": [],
      "stateMutability": "nonpayable",
      "type": "function"
    },
    {
      "inputs": [
        {
          "internalType": "bytes32",
          "name": "role",
          "type": "bytes32"
        },
        {
          "internalType": "address",
          "name": "account",
          "type": "address"
        }
      ],
      "name": "renounceRole",
      "outputs": [],
      "stateMutability": "nonpayable",
      "type": "function"
    },
    {
      "inputs": [
        {
          "internalType": "bytes32",
          "name": "role",
          "type": "bytes32"
        },
        {
          "internalType": "address",
          "name": "account",
          "type": "address"
        }
      ],
      "name": "revokeRole",
      "outputs": [],
      "stateMutability": "nonpayable",
      "type": "function"
    },
    {
      "inputs": [
        {
          "internalType": "address",
          "name": "from",
          "type": "address"
        },
        {
          "internalType": "address",
          "name": "to",
          "type": "address"
        },
        {
          "internalType": "uint256",
          "name": "tokenId",
          "type": "uint256"
        }
      ],
      "name": "safeTransferFrom",
      "outputs": [],
      "stateMutability": "nonpayable",
      "type": "function"
    },
    {
      "inputs": [
        {
          "internalType": "address",
          "name": "from",
          "type": "address"
        },
        {
          "internalType": "address",
          "name": "to",
          "type": "address"
        },
        {
          "internalType": "uint256",
          "name": "tokenId",
          "type": "uint256"
        },
        {
          "internalType": "bytes",
          "name": "data",
          "type": "bytes"
        }
      ],
      "name": "safeTransferFrom",
      "outputs": [],
      "stateMutability": "nonpayable",
      "type": "function"
    },
    {
      "inputs": [
        {
          "internalType": "address",
          "name": "operator",
          "type": "address"
        },
        {
          "internalType": "bool",
          "name": "approved",
          "type": "bool"
        }
      ],
      "name": "setApprovalForAll",
      "outputs": [],
      "stateMutability": "nonpayable",
      "type": "function"
    },
    {
      "inputs": [],
      "name": "symbol",
      "outputs": [
        {
          "internalType": "string",
          "name": "",
          "type": "string"
        }
      ],
      "stateMutability": "view",
      "type": "function"
    },
    {
      "inputs": [
        {
          "internalType": "uint256",
          "name": "index",
          "type": "uint256"
        }
      ],
      "name": "tokenByIndex",
      "outputs": [
        {
          "internalType": "uint256",
          "name": "",
          "type": "uint256"
        }
      ],
      "stateMutability": "view",
      "type": "function"
    },
    {
      "inputs": [
        {
          "internalType": "address",
          "name": "owner",
          "type": "address"
        },
        {
          "internalType": "uint256",
          "name": "index",
          "type": "uint256"
        }
      ],
      "name": "tokenOfOwnerByIndex",
      "outputs": [
        {
          "internalType": "uint256",
          "name": "",
          "type": "uint256"
        }
      ],
      "stateMutability": "view",
      "type": "function"
    },
    {
      "inputs": [
        {
          "internalType": "uint256",
          "name": "tokenId",
          "type": "uint256"
        }
      ],
      "name": "tokenURI",
      "outputs": [
        {
          "internalType": "string",
          "name": "",
          "type": "string"
        }
      ],
      "stateMutability": "view",
      "type": "function"
    },
    {
      "inputs": [],
      "name": "totalSupply",
      "outputs": [
        {
          "internalType": "uint256",
          "name": "",
          "type": "uint256"
        }
      ],
      "stateMutability": "view",
      "type": "function"
    },
    {
      "inputs": [
        {
          "internalType": "address",
          "name": "from",
          "type": "address"
        },
        {
          "internalType": "address",
          "name": "to",
          "type": "address"
        },
        {
          "internalType": "uint256",
          "name": "tokenId",
          "type": "uint256"
        }
      ],
      "name": "transferFrom",
      "outputs": [],
      "stateMutability": "nonpayable",
      "type": "function"
    },
    {
      "inputs": [
        {
          "internalType": "address",
          "name": "newOwner",
          "type": "address"
        }
      ],
      "name": "transferOwnership",
      "outputs": [],
      "stateMutability": "nonpayable",
      "type": "function"
    },
    {
      "inputs": [
        {
          "internalType": "bytes4",
          "name": "interfaceId",
          "type": "bytes4"
        }
      ],
      "name": "supportsInterface",
      "outputs": [
        {
          "internalType": "bool",
          "name": "",
          "type": "bool"
        }
      ],
      "stateMutability": "view",
      "type": "function"
    },
    {
      "inputs": [
        {
          "internalType": "string",
          "name": "name",
          "type": "string"
        },
        {
          "internalType": "string",
          "name": "description",
          "type": "string"
        },
        {
          "internalType": "uint256",
          "name": "attack",
          "type": "uint256"
        },
        {
          "internalType": "uint256",
          "name": "defense",
          "type": "uint256"
        }
      ],
      "name": "createUniqueCard",
      "outputs": [
        {
          "internalType": "uint256",
          "name": "",
          "type": "uint256"
        }
      ],
      "stateMutability": "nonpayable",
      "type": "function"
    },
    {
      "inputs": [
        {
          "internalType": "uint256",
          "name": "cardId",
          "type": "uint256"
        }
      ],
      "name": "purchaseUniqueCard",
      "outputs": [],
      "stateMutability": "payable",
      "type": "function"
    },
    {
      "inputs": [
        {
          "internalType": "uint256",
          "name": "cardId",
          "type": "uint256"
        },
        {
          "internalType": "address",
          "name": "recipient",
          "type": "address"
        }
      ],
      "name": "tradeCard",
      "outputs": [],
      "stateMutability": "nonpayable",
      "type": "function"
    },
    {
      "inputs": [
        {
          "internalType": "uint256",
          "name": "cardId",
          "type": "uint256"
        },
        {
          "internalType": "uint256",
          "name": "percentIncrease",
          "type": "uint256"
        }
      ],
      "name": "increaseCardAttributes",
      "outputs": [],
      "stateMutability": "nonpayable",
      "type": "function"
    },
    {
      "inputs": [
        {
          "internalType": "uint256",
          "name": "cardId",
          "type": "uint256"
        }
      ],
      "name": "getCardAttributes",
      "outputs": [
        {
          "internalType": "uint256",
          "name": "attack",
          "type": "uint256"
        },
        {
          "internalType": "uint256",
          "name": "defense",
          "type": "uint256"
        }
      ],
      "stateMutability": "view",
      "type": "function"
    },
    {
      "inputs": [
        {
          "internalType": "uint256",
          "name": "cardId",
          "type": "uint256"
        },
        {
          "internalType": "uint256",
          "name": "newDefense",
          "type": "uint256"
        }
      ],
      "name": "updateCardDefense",
      "outputs": [],
      "stateMutability": "nonpayable",
      "type": "function"
    },
    {
      "inputs": [
        {
          "internalType": "uint256",
          "name": "cardId",
          "type": "uint256"
        }
      ],
      "name": "burnCard",
      "outputs": [],
      "stateMutability": "nonpayable",
      "type": "function"
    }
  ],
  "bytecode": "0x60806040523480156200001157600080fd5b5060405162005726380380620057268339818101604052810190620000379190620003cd565b6040518060400160405280600b81526020017f556e6971756543617264730000000000000000000000000000000000000000008152506040518060400160405280600281526020017f55430000000000000000000000000000000000000000000000000000000000008152508160009081620000b4919062000679565b508060019081620000c6919062000679565b505050620000e9620000dd6200012260201b60201c565b6200012a60201b60201c565b6200011b7ff77572748fdad96ee86078e560bc11904f957fef74be2f5387191aee0ad327cb82620001f060201b60201c565b5062000760565b600033905090565b6000600b60009054906101000a900473ffffffffffffffffffffffffffffffffffffffff16905081600b60006101000a81548173ffffffffffffffffffffffffffffffffffffffff021916908373ffffffffffffffffffffffffffffffffffffffff1602179055508173ffffffffffffffffffffffffffffffffffffffff168173ffffffffffffffffffffffffffffffffffffffff167f8be0079c531659141344cd1fd0a4f28419497f9722a3daafe3b4186f6b6457e060405160405180910390a35050565b6200020282826200020660201b60201c565b5050565b620002188282620002f860201b60201c565b620002f4576001600a600084815260200190815260200160002060000160008373ffffffffffffffffffffffffffffffffffffffff1673ffffffffffffffffffffffffffffffffffffffff16815260200190815260200160002060006101000a81548160ff021916908315150217905550620002996200012260201b60201c565b73ffffffffffffffffffffffffffffffffffffffff168173ffffffffffffffffffffffffffffffffffffffff16837f2f8788117e7eff1d82e926ec794901d17c78024a50270940304540a733656f0d60405160405180910390a45b5050565b6000600a600084815260200190815260200160002060000160008373ffffffffffffffffffffffffffffffffffffffff1673ffffffffffffffffffffffffffffffffffffffff16815260200190815260200160002060009054906101000a900460ff16905092915050565b600080fd5b600073ffffffffffffffffffffffffffffffffffffffff82169050919050565b6000620003958262000368565b9050919050565b620003a78162000388565b8114620003b357600080fd5b50565b600081519050620003c7816200039c565b92915050565b600060208284031215620003e657620003e562000363565b5b6000620003f684828501620003b6565b91505092915050565b600081519050919050565b7f4e487b7100000000000000000000000000000000000000000000000000000000600052604160045260246000fd5b7f4e487b7100000000000000000000000000000000000000000000000000000000600052602260045260246000fd5b600060028204905060018216806200048157607f821691505b60208210810362000497576200049662000439565b5b50919050565b60008190508160005260206000209050919050565b60006020601f8301049050919050565b600082821b905092915050565b600060088302620005017fffffffffffffffffffffffffffffffffffffffffffffffffffffffffffffffff82620004c2565b6200050d8683620004c2565b95508019841693508086168417925050509392505050565b6000819050919050565b6000819050919050565b60006200055a620005546200054e8462000525565b6200052f565b62000525565b9050919050565b6000819050919050565b620005768362000539565b6200058e620005858262000561565b848454620004cf565b825550505050565b600090565b620005a562000596565b620005b28184846200056b565b505050565b5b81811015620005da57620005ce6000826200059b565b600181019050620005b8565b5050565b601f8211156200062957620005f3816200049d565b620005fe84620004b2565b810160208510156200060e578190505b620006266200061d85620004b2565b830182620005b7565b50505b505050565b600082821c905092915050565b60006200064e600019846008026200062e565b1980831691505092915050565b60006200066983836200063b565b9150826002028217905092915050565b6200068482620003ff565b67ffffffffffffffff811115620006a0576200069f6200040a565b5b620006ac825462000468565b620006b9828285620005de565b600060209050601f831160018114620006f15760008415620006dc578287015190505b620006e885826200065b565b86555062000758565b601f19841662000701866200049d565b60005b828110156200072b5784890151825560018201915060208501945060208101905062000704565b868310156200074b578489015162000747601f8916826200063b565b8355505b6001600288020188555050505b505050505050565b614fb680620007706000396000f3fe6080604052600436106101f95760003560e01c8063715018a61161010d578063b88d4fde116100a0578063d5aaa5b01161006f578063d5aaa5b014610769578063e985e9c5146107a7578063ec5ac24b146107e4578063f2fde38b14610800578063f7ee23dc14610829576101f9565b8063b88d4fde146106b1578063ba7e7d05146106da578063c87b56dd14610703578063d547741f14610740576101f9565b806391d14854116100dc57806391d14854146105f557806395d89b4114610632578063a217fddf1461065d578063a22cb46514610688576101f9565b8063715018a6146105495780638a91a6c8146105605780638da5cb5b146105895780638dc10768146105b4576101f9565b80632f2ff15d1161019057806342842e0e1161015f57806342842e0e146104405780634f6ccce714610469578063618857ba146104a65780636352211e146104cf57806370a082311461050c576101f9565b80632f2ff15d146103885780632f745c59146103b157806336568abe146103ee5780633e81872d14610417576101f9565b80631511799a116101cc5780631511799a146102cc57806318160ddd146102f757806323b872dd14610322578063248a9ca31461034b576101f9565b806301ffc9a7146101fe57806306fdde031461023b578063081812fc14610266578063095ea7b3146102a3575b600080fd5b34801561020a57600080fd5b506102256004803603810190610220919061345a565b610866565b60405161023291906134a2565b60405180910390f35b34801561024757600080fd5b50610250610888565b60405161025d919061354d565b60405180910390f35b34801561027257600080fd5b5061028d600480360381019061028891906135a5565b61091a565b60405161029a9190613613565b60405180910390f35b3480156102af57600080fd5b506102ca60048036038101906102c5919061365a565b610960565b005b3480156102d857600080fd5b506102e1610a77565b6040516102ee91906136b3565b60405180910390f35b34801561030357600080fd5b5061030c610a9b565b60405161031991906136dd565b60405180910390f35b34801561032e57600080fd5b50610349600480360381019061034491906136f8565b610aa8565b005b34801561035757600080fd5b50610372600480360381019061036d9190613777565b610b08565b60405161037f91906136b3565b60405180910390f35b34801561039457600080fd5b506103af60048036038101906103aa91906137a4565b610b28565b005b3480156103bd57600080fd5b506103d860048036038101906103d3919061365a565b610b49565b6040516103e591906136dd565b60405180910390f35b3480156103fa57600080fd5b50610415600480360381019061041091906137a4565b610bee565b005b34801561042357600080fd5b5061043e600480360381019061043991906137e4565b610c71565b005b34801561044c57600080fd5b50610467600480360381019061046291906136f8565b610d20565b005b34801561047557600080fd5b50610490600480360381019061048b91906135a5565b610d40565b60405161049d91906136dd565b60405180910390f35b3480156104b257600080fd5b506104cd60048036038101906104c891906137e4565b610db1565b005b3480156104db57600080fd5b506104f660048036038101906104f191906135a5565b610ebd565b6040516105039190613613565b60405180910390f35b34801561051857600080fd5b50610533600480360381019061052e9190613824565b610f43565b60405161054091906136dd565b60405180910390f35b34801561055557600080fd5b5061055e610ffa565b005b34801561056c57600080fd5b5061058760048036038101906105829190613851565b61100e565b005b34801561059557600080fd5b5061059e6110a3565b6040516105ab9190613613565b60405180910390f35b3480156105c057600080fd5b506105db60048036038101906105d691906135a5565b6110cd565b6040516105ec959493929190613891565b60405180910390f35b34801561060157600080fd5b5061061c600480360381019061061791906137a4565b611213565b60405161062991906134a2565b60405180910390f35b34801561063e57600080fd5b5061064761127e565b604051610654919061354d565b60405180910390f35b34801561066957600080fd5b50610672611310565b60405161067f91906136b3565b60405180910390f35b34801561069457600080fd5b506106af60048036038101906106aa919061391e565b611317565b005b3480156106bd57600080fd5b506106d860048036038101906106d39190613a93565b61132d565b005b3480156106e657600080fd5b5061070160048036038101906106fc91906135a5565b61138f565b005b34801561070f57600080fd5b5061072a600480360381019061072591906135a5565b6114a2565b604051610737919061354d565b60405180910390f35b34801561074c57600080fd5b50610767600480360381019061076291906137a4565b61150a565b005b34801561077557600080fd5b50610790600480360381019061078b91906135a5565b61152b565b60405161079e929190613b16565b60405180910390f35b3480156107b357600080fd5b506107ce60048036038101906107c99190613b3f565b611559565b6040516107db91906134a2565b60405180910390f35b6107fe60048036038101906107f991906135a5565b6115ed565b005b34801561080c57600080fd5b5061082760048036038101906108229190613824565b61177f565b005b34801561083557600080fd5b50610850600480360381019061084b9190613c20565b611802565b60405161085d91906136dd565b60405180910390f35b6000610871826118e4565b8061088157506108808261195e565b5b9050919050565b60606000805461089790613cee565b80601f01602080910402602001604051908101604052809291908181526020018280546108c390613cee565b80156109105780601f106108e557610100808354040283529160200191610910565b820191906000526020600020905b8154815290600101906020018083116108f357829003601f168201915b5050505050905090565b6000610925826119d8565b6004600083815260200190815260200160002060009054906101000a900473ffffffffffffffffffffffffffffffffffffffff169050919050565b600061096b82610ebd565b90508073ffffffffffffffffffffffffffffffffffffffff168373ffffffffffffffffffffffffffffffffffffffff16036109db576040517f08c379a00000000000000000000000000000000000000000000000000000000081526004016109d290613d91565b60405180910390fd5b8073ffffffffffffffffffffffffffffffffffffffff166109fa611a23565b73ffffffffffffffffffffffffffffffffffffffff161480610a295750610a2881610a23611a23565b611559565b5b610a68576040517f08c379a0000000000000000000000000000000000000000000000000000000008152600401610a5f90613e23565b60405180910390fd5b610a728383611a2b565b505050565b7ff77572748fdad96ee86078e560bc11904f957fef74be2f5387191aee0ad327cb81565b6000600880549050905090565b610ab9610ab3611a23565b82611ae4565b610af8576040517f08c379a0000000000000000000000000000000000000000000000000000000008152600401610aef90613eb5565b60405180910390fd5b610b03838383611b79565b505050565b6000600a6000838152602001908152602001600020600101549050919050565b610b3182610b08565b610b3a81611e72565b610b448383611e86565b505050565b6000610b5483610f43565b8210610b95576040517f08c379a0000000000000000000000000000000000000000000000000000000008152600401610b8c90613f47565b60405180910390fd5b600660008473ffffffffffffffffffffffffffffffffffffffff1673ffffffffffffffffffffffffffffffffffffffff168152602001908152602001600020600083815260200190815260200160002054905092915050565b610bf6611a23565b73ffffffffffffffffffffffffffffffffffffffff168173ffffffffffffffffffffffffffffffffffffffff1614610c63576040517f08c379a0000000000000000000000000000000000000000000000000000000008152600401610c5a90613fd9565b60405180910390fd5b610c6d8282611f67565b5050565b600c60009054906101000a900473ffffffffffffffffffffffffffffffffffffffff1673ffffffffffffffffffffffffffffffffffffffff163373ffffffffffffffffffffffffffffffffffffffff1614610d01576040517f08c379a0000000000000000000000000000000000000000000000000000000008152600401610cf890614045565b60405180910390fd5b80600e6000848152602001908152602001600020600401819055505050565b610d3b8383836040518060200160405280600081525061132d565b505050565b6000610d4a610a9b565b8210610d8b576040517f08c379a0000000000000000000000000000000000000000000000000000000008152600401610d82906140d7565b60405180910390fd5b60088281548110610d9f57610d9e6140f7565b5b90600052602060002001549050919050565b610db9612049565b81600e60008481526020019081526020016000206000015414610e11576040517f08c379a0000000000000000000000000000000000000000000000000000000008152600401610e0890614172565b60405180910390fd5b6064816064610e2091906141c1565b600e600085815260200190815260200160002060030154610e4191906141f5565b610e4b9190614266565b600e6000848152602001908152602001600020600301819055506064816064610e7491906141c1565b600e600085815260200190815260200160002060040154610e9591906141f5565b610e9f9190614266565b600e6000848152602001908152602001600020600401819055505050565b600080610ec9836120c7565b9050600073ffffffffffffffffffffffffffffffffffffffff168173ffffffffffffffffffffffffffffffffffffffff1603610f3a576040517f08c379a0000000000000000000000000000000000000000000000000000000008152600401610f31906142e3565b60405180910390fd5b80915050919050565b60008073ffffffffffffffffffffffffffffffffffffffff168273ffffffffffffffffffffffffffffffffffffffff1603610fb3576040517f08c379a0000000000000000000000000000000000000000000000000000000008152600401610faa90614375565b60405180910390fd5b600360008373ffffffffffffffffffffffffffffffffffffffff1673ffffffffffffffffffffffffffffffffffffffff168152602001908152602001600020549050919050565b611002612049565b61100c6000612104565b565b3373ffffffffffffffffffffffffffffffffffffffff1661102e83610ebd565b73ffffffffffffffffffffffffffffffffffffffff1614611084576040517f08c379a000000000000000000000000000000000000000000000000000000000815260040161107b906143e1565b60405180910390fd5b61109f338284604051806020016040528060008152506121ca565b5050565b6000600b60009054906101000a900473ffffffffffffffffffffffffffffffffffffffff16905090565b600e6020528060005260406000206000915090508060000154908060010180546110f690613cee565b80601f016020809104026020016040519081016040528092919081815260200182805461112290613cee565b801561116f5780601f106111445761010080835404028352916020019161116f565b820191906000526020600020905b81548152906001019060200180831161115257829003601f168201915b50505050509080600201805461118490613cee565b80601f01602080910402602001604051908101604052809291908181526020018280546111b090613cee565b80156111fd5780601f106111d2576101008083540402835291602001916111fd565b820191906000526020600020905b8154815290600101906020018083116111e057829003601f168201915b5050505050908060030154908060040154905085565b6000600a600084815260200190815260200160002060000160008373ffffffffffffffffffffffffffffffffffffffff1673ffffffffffffffffffffffffffffffffffffffff16815260200190815260200160002060009054906101000a900460ff16905092915050565b60606001805461128d90613cee565b80601f01602080910402602001604051908101604052809291908181526020018280546112b990613cee565b80156113065780601f106112db57610100808354040283529160200191611306565b820191906000526020600020905b8154815290600101906020018083116112e957829003601f168201915b5050505050905090565b6000801b81565b611329611322611a23565b8383612226565b5050565b61133e611338611a23565b83611ae4565b61137d576040517f08c379a000000000000000000000000000000000000000000000000000000000815260040161137490613eb5565b60405180910390fd5b611389848484846121ca565b50505050565b600c60009054906101000a900473ffffffffffffffffffffffffffffffffffffffff1673ffffffffffffffffffffffffffffffffffffffff163373ffffffffffffffffffffffffffffffffffffffff161461141f576040517f08c379a000000000000000000000000000000000000000000000000000000000815260040161141690614045565b60405180910390fd5b600073ffffffffffffffffffffffffffffffffffffffff1661144082610ebd565b73ffffffffffffffffffffffffffffffffffffffff1603611496576040517f08c379a000000000000000000000000000000000000000000000000000000000815260040161148d9061444d565b60405180910390fd5b61149f81612392565b50565b60606114ad826119d8565b60006114b76124e0565b905060008151116114d75760405180602001604052806000815250611502565b806114e1846124f7565b6040516020016114f29291906144a9565b6040516020818303038152906040525b915050919050565b61151382610b08565b61151c81611e72565b6115268383611f67565b505050565b6000806000600e60008581526020019081526020016000209050806003015481600401549250925050915091565b6000600560008473ffffffffffffffffffffffffffffffffffffffff1673ffffffffffffffffffffffffffffffffffffffff16815260200190815260200160002060008373ffffffffffffffffffffffffffffffffffffffff1673ffffffffffffffffffffffffffffffffffffffff16815260200190815260200160002060009054906101000a900460ff16905092915050565b80600e60008381526020019081526020016000206000015414611645576040517f08c379a000000000000000000000000000000000000000000000000000000000815260040161163c90614172565b60405180910390fd5b61164d6110a3565b73ffffffffffffffffffffffffffffffffffffffff1661166c82610ebd565b73ffffffffffffffffffffffffffffffffffffffff16146116c2576040517f08c379a00000000000000000000000000000000000000000000000000000000081526004016116b99061453f565b60405180910390fd5b662386f26fc1000034101561170c576040517f08c379a0000000000000000000000000000000000000000000000000000000008152600401611703906145ab565b60405180910390fd5b61172e6117176110a3565b3383604051806020016040528060008152506121ca565b6117366110a3565b73ffffffffffffffffffffffffffffffffffffffff166108fc349081150290604051600060405180830381858888f1935050505015801561177b573d6000803e3d6000fd5b5050565b611787612049565b600073ffffffffffffffffffffffffffffffffffffffff168173ffffffffffffffffffffffffffffffffffffffff16036117f6576040517f08c379a00000000000000000000000000000000000000000000000000000000081526004016117ed9061463d565b60405180910390fd5b6117ff81612104565b50565b60007ff77572748fdad96ee86078e560bc11904f957fef74be2f5387191aee0ad327cb61182e81611e72565b611838600d6125c5565b6000611844600d6125db565b90506040518060a0016040528082815260200188815260200187815260200186815260200185815250600e600083815260200190815260200160002060008201518160000155602082015181600101908161189f9190614809565b5060408201518160020190816118b59190614809565b5060608201518160030155608082015181600401559050506118d733826125e9565b8092505050949350505050565b60007f780e9d63000000000000000000000000000000000000000000000000000000007bffffffffffffffffffffffffffffffffffffffffffffffffffffffff1916827bffffffffffffffffffffffffffffffffffffffffffffffffffffffff19161480611957575061195682612806565b5b9050919050565b60007f7965db0b000000000000000000000000000000000000000000000000000000007bffffffffffffffffffffffffffffffffffffffffffffffffffffffff1916827bffffffffffffffffffffffffffffffffffffffffffffffffffffffff191614806119d157506119d0826118e4565b5b9050919050565b6119e1816128e8565b611a20576040517f08c379a0000000000000000000000000000000000000000000000000000000008152600401611a17906142e3565b60405180910390fd5b50565b600033905090565b816004600083815260200190815260200160002060006101000a81548173ffffffffffffffffffffffffffffffffffffffff021916908373ffffffffffffffffffffffffffffffffffffffff160217905550808273ffffffffffffffffffffffffffffffffffffffff16611a9e83610ebd565b73ffffffffffffffffffffffffffffffffffffffff167f8c5be1e5ebec7d5bd14f71427d1e84f3dd0314c0f7b2291e5b200ac8c7c3b92560405160405180910390a45050565b600080611af083610ebd565b90508073ffffffffffffffffffffffffffffffffffffffff168473ffffffffffffffffffffffffffffffffffffffff161480611b325750611b318185611559565b5b80611b7057508373ffffffffffffffffffffffffffffffffffffffff16611b588461091a565b73ffffffffffffffffffffffffffffffffffffffff16145b91505092915050565b8273ffffffffffffffffffffffffffffffffffffffff16611b9982610ebd565b73ffffffffffffffffffffffffffffffffffffffff1614611bef576040517f08c379a0000000000000000000000000000000000000000000000000000000008152600401611be69061494d565b60405180910390fd5b600073ffffffffffffffffffffffffffffffffffffffff168273ffffffffffffffffffffffffffffffffffffffff1603611c5e576040517f08c379a0000000000000000000000000000000000000000000000000000000008152600401611c55906149df565b60405180910390fd5b611c6b8383836001612929565b8273ffffffffffffffffffffffffffffffffffffffff16611c8b82610ebd565b73ffffffffffffffffffffffffffffffffffffffff1614611ce1576040517f08c379a0000000000000000000000000000000000000000000000000000000008152600401611cd89061494d565b60405180910390fd5b6004600082815260200190815260200160002060006101000a81549073ffffffffffffffffffffffffffffffffffffffff02191690556001600360008573ffffffffffffffffffffffffffffffffffffffff1673ffffffffffffffffffffffffffffffffffffffff168152602001908152602001600020600082825403925050819055506001600360008473ffffffffffffffffffffffffffffffffffffffff1673ffffffffffffffffffffffffffffffffffffffff16815260200190815260200160002060008282540192505081905550816002600083815260200190815260200160002060006101000a81548173ffffffffffffffffffffffffffffffffffffffff021916908373ffffffffffffffffffffffffffffffffffffffff160217905550808273ffffffffffffffffffffffffffffffffffffffff168473ffffffffffffffffffffffffffffffffffffffff167fddf252ad1be2c89b69c2b068fc378daa952ba7f163c4a11628f55a4df523b3ef60405160405180910390a4611e6d8383836001612a87565b505050565b611e8381611e7e611a23565b612a8d565b50565b611e908282611213565b611f63576001600a600084815260200190815260200160002060000160008373ffffffffffffffffffffffffffffffffffffffff1673ffffffffffffffffffffffffffffffffffffffff16815260200190815260200160002060006101000a81548160ff021916908315150217905550611f08611a23565b73ffffffffffffffffffffffffffffffffffffffff168173ffffffffffffffffffffffffffffffffffffffff16837f2f8788117e7eff1d82e926ec794901d17c78024a50270940304540a733656f0d60405160405180910390a45b5050565b611f718282611213565b15612045576000600a600084815260200190815260200160002060000160008373ffffffffffffffffffffffffffffffffffffffff1673ffffffffffffffffffffffffffffffffffffffff16815260200190815260200160002060006101000a81548160ff021916908315150217905550611fea611a23565b73ffffffffffffffffffffffffffffffffffffffff168173ffffffffffffffffffffffffffffffffffffffff16837ff6391f5c32d9c69d2a47ea670b442974b53935d1edc7fd64eb21e047a839171b60405160405180910390a45b5050565b612051611a23565b73ffffffffffffffffffffffffffffffffffffffff1661206f6110a3565b73ffffffffffffffffffffffffffffffffffffffff16146120c5576040517f08c379a00000000000000000000000000000000000000000000000000000000081526004016120bc90614a4b565b60405180910390fd5b565b60006002600083815260200190815260200160002060009054906101000a900473ffffffffffffffffffffffffffffffffffffffff169050919050565b6000600b60009054906101000a900473ffffffffffffffffffffffffffffffffffffffff16905081600b60006101000a81548173ffffffffffffffffffffffffffffffffffffffff021916908373ffffffffffffffffffffffffffffffffffffffff1602179055508173ffffffffffffffffffffffffffffffffffffffff168173ffffffffffffffffffffffffffffffffffffffff167f8be0079c531659141344cd1fd0a4f28419497f9722a3daafe3b4186f6b6457e060405160405180910390a35050565b6121d5848484611b79565b6121e184848484612b12565b612220576040517f08c379a000000000000000000000000000000000000000000000000000000000815260040161221790614add565b60405180910390fd5b50505050565b8173ffffffffffffffffffffffffffffffffffffffff168373ffffffffffffffffffffffffffffffffffffffff1603612294576040517f08c379a000000000000000000000000000000000000000000000000000000000815260040161228b90614b49565b60405180910390fd5b80600560008573ffffffffffffffffffffffffffffffffffffffff1673ffffffffffffffffffffffffffffffffffffffff16815260200190815260200160002060008473ffffffffffffffffffffffffffffffffffffffff1673ffffffffffffffffffffffffffffffffffffffff16815260200190815260200160002060006101000a81548160ff0219169083151502179055508173ffffffffffffffffffffffffffffffffffffffff168373ffffffffffffffffffffffffffffffffffffffff167f17307eab39ab6107e8899845ad3d59bd9653f200f220920489ca2b5937696c318360405161238591906134a2565b60405180910390a3505050565b600061239d82610ebd565b90506123ad816000846001612929565b6123b682610ebd565b90506004600083815260200190815260200160002060006101000a81549073ffffffffffffffffffffffffffffffffffffffff02191690556001600360008373ffffffffffffffffffffffffffffffffffffffff1673ffffffffffffffffffffffffffffffffffffffff168152602001908152602001600020600082825403925050819055506002600083815260200190815260200160002060006101000a81549073ffffffffffffffffffffffffffffffffffffffff021916905581600073ffffffffffffffffffffffffffffffffffffffff168273ffffffffffffffffffffffffffffffffffffffff167fddf252ad1be2c89b69c2b068fc378daa952ba7f163c4a11628f55a4df523b3ef60405160405180910390a46124dc816000846001612a87565b5050565b606060405180602001604052806000815250905090565b60606000600161250684612c99565b01905060008167ffffffffffffffff81111561252557612524613968565b5b6040519080825280601f01601f1916602001820160405280156125575781602001600182028036833780820191505090505b509050600082602001820190505b6001156125ba578080600190039150507f3031323334353637383961626364656600000000000000000000000000000000600a86061a8153600a85816125ae576125ad614237565b5b04945060008503612565575b819350505050919050565b6001816000016000828254019250508190555050565b600081600001549050919050565b600073ffffffffffffffffffffffffffffffffffffffff168273ffffffffffffffffffffffffffffffffffffffff1603612658576040517f08c379a000000000000000000000000000000000000000000000000000000000815260040161264f90614bb5565b60405180910390fd5b612661816128e8565b156126a1576040517f08c379a000000000000000000000000000000000000000000000000000000000815260040161269890614c21565b60405180910390fd5b6126af600083836001612929565b6126b8816128e8565b156126f8576040517f08c379a00000000000000000000000000000000000000000000000000000000081526004016126ef90614c21565b60405180910390fd5b6001600360008473ffffffffffffffffffffffffffffffffffffffff1673ffffffffffffffffffffffffffffffffffffffff16815260200190815260200160002060008282540192505081905550816002600083815260200190815260200160002060006101000a81548173ffffffffffffffffffffffffffffffffffffffff021916908373ffffffffffffffffffffffffffffffffffffffff160217905550808273ffffffffffffffffffffffffffffffffffffffff16600073ffffffffffffffffffffffffffffffffffffffff167fddf252ad1be2c89b69c2b068fc378daa952ba7f163c4a11628f55a4df523b3ef60405160405180910390a4612802600083836001612a87565b5050565b60007f80ac58cd000000000000000000000000000000000000000000000000000000007bffffffffffffffffffffffffffffffffffffffffffffffffffffffff1916827bffffffffffffffffffffffffffffffffffffffffffffffffffffffff191614806128d157507f5b5e139f000000000000000000000000000000000000000000000000000000007bffffffffffffffffffffffffffffffffffffffffffffffffffffffff1916827bffffffffffffffffffffffffffffffffffffffffffffffffffffffff1916145b806128e157506128e082612dec565b5b9050919050565b60008073ffffffffffffffffffffffffffffffffffffffff1661290a836120c7565b73ffffffffffffffffffffffffffffffffffffffff1614159050919050565b61293584848484612e56565b6001811115612979576040517f08c379a000000000000000000000000000000000000000000000000000000000815260040161297090614cb3565b60405180910390fd5b6000829050600073ffffffffffffffffffffffffffffffffffffffff168573ffffffffffffffffffffffffffffffffffffffff16036129c0576129bb81612e5c565b6129ff565b8373ffffffffffffffffffffffffffffffffffffffff168573ffffffffffffffffffffffffffffffffffffffff16146129fe576129fd8582612ea5565b5b5b600073ffffffffffffffffffffffffffffffffffffffff168473ffffffffffffffffffffffffffffffffffffffff1603612a4157612a3c81613012565b612a80565b8473ffffffffffffffffffffffffffffffffffffffff168473ffffffffffffffffffffffffffffffffffffffff1614612a7f57612a7e84826130e3565b5b5b5050505050565b50505050565b612a978282611213565b612b0e57612aa481613162565b612ab28360001c602061318f565b604051602001612ac3929190614d6b565b6040516020818303038152906040526040517f08c379a0000000000000000000000000000000000000000000000000000000008152600401612b05919061354d565b60405180910390fd5b5050565b6000612b338473ffffffffffffffffffffffffffffffffffffffff166133cb565b15612c8c578373ffffffffffffffffffffffffffffffffffffffff1663150b7a02612b5c611a23565b8786866040518563ffffffff1660e01b8152600401612b7e9493929190614dfa565b6020604051808303816000875af1925050508015612bba57506040513d601f19601f82011682018060405250810190612bb79190614e5b565b60015b612c3c573d8060008114612bea576040519150601f19603f3d011682016040523d82523d6000602084013e612bef565b606091505b506000815103612c34576040517f08c379a0000000000000000000000000000000000000000000000000000000008152600401612c2b90614add565b60405180910390fd5b805181602001fd5b63150b7a0260e01b7bffffffffffffffffffffffffffffffffffffffffffffffffffffffff1916817bffffffffffffffffffffffffffffffffffffffffffffffffffffffff191614915050612c91565b600190505b949350505050565b600080600090507a184f03e93ff9f4daa797ed6e38ed64bf6a1f0100000000000000008310612cf7577a184f03e93ff9f4daa797ed6e38ed64bf6a1f0100000000000000008381612ced57612cec614237565b5b0492506040810190505b6d04ee2d6d415b85acef81000000008310612d34576d04ee2d6d415b85acef81000000008381612d2a57612d29614237565b5b0492506020810190505b662386f26fc100008310612d6357662386f26fc100008381612d5957612d58614237565b5b0492506010810190505b6305f5e1008310612d8c576305f5e1008381612d8257612d81614237565b5b0492506008810190505b6127108310612db1576127108381612da757612da6614237565b5b0492506004810190505b60648310612dd45760648381612dca57612dc9614237565b5b0492506002810190505b600a8310612de3576001810190505b80915050919050565b60007f01ffc9a7000000000000000000000000000000000000000000000000000000007bffffffffffffffffffffffffffffffffffffffffffffffffffffffff1916827bffffffffffffffffffffffffffffffffffffffffffffffffffffffff1916149050919050565b50505050565b6008805490506009600083815260200190815260200160002081905550600881908060018154018082558091505060019003906000526020600020016000909190919091505550565b60006001612eb284610f43565b612ebc9190614e88565b9050600060076000848152602001908152602001600020549050818114612fa1576000600660008673ffffffffffffffffffffffffffffffffffffffff1673ffffffffffffffffffffffffffffffffffffffff168152602001908152602001600020600084815260200190815260200160002054905080600660008773ffffffffffffffffffffffffffffffffffffffff1673ffffffffffffffffffffffffffffffffffffffff168152602001908152602001600020600084815260200190815260200160002081905550816007600083815260200190815260200160002081905550505b6007600084815260200190815260200160002060009055600660008573ffffffffffffffffffffffffffffffffffffffff1673ffffffffffffffffffffffffffffffffffffffff16815260200190815260200160002060008381526020019081526020016000206000905550505050565b600060016008805490506130269190614e88565b9050600060096000848152602001908152602001600020549050600060088381548110613056576130556140f7565b5b906000526020600020015490508060088381548110613078576130776140f7565b5b9060005260206000200181905550816009600083815260200190815260200160002081905550600960008581526020019081526020016000206000905560088054806130c7576130c6614ebc565b5b6001900381819060005260206000200160009055905550505050565b60006130ee83610f43565b905081600660008573ffffffffffffffffffffffffffffffffffffffff1673ffffffffffffffffffffffffffffffffffffffff168152602001908152602001600020600083815260200190815260200160002081905550806007600084815260200190815260200160002081905550505050565b60606131888273ffffffffffffffffffffffffffffffffffffffff16601460ff1661318f565b9050919050565b6060600060028360026131a291906141f5565b6131ac91906141c1565b67ffffffffffffffff8111156131c5576131c4613968565b5b6040519080825280601f01601f1916602001820160405280156131f75781602001600182028036833780820191505090505b5090507f30000000000000000000000000000000000000000000000000000000000000008160008151811061322f5761322e6140f7565b5b60200101907effffffffffffffffffffffffffffffffffffffffffffffffffffffffffffff1916908160001a9053507f780000000000000000000000000000000000000000000000000000000000000081600181518110613293576132926140f7565b5b60200101907effffffffffffffffffffffffffffffffffffffffffffffffffffffffffffff1916908160001a905350600060018460026132d391906141f5565b6132dd91906141c1565b90505b600181111561337d577f3031323334353637383961626364656600000000000000000000000000000000600f86166010811061331f5761331e6140f7565b5b1a60f81b828281518110613336576133356140f7565b5b60200101907effffffffffffffffffffffffffffffffffffffffffffffffffffffffffffff1916908160001a905350600485901c94508061337690614eeb565b90506132e0565b50600084146133c1576040517f08c379a00000000000000000000000000000000000000000000000000000000081526004016133b890614f60565b60405180910390fd5b8091505092915050565b6000808273ffffffffffffffffffffffffffffffffffffffff163b119050919050565b6000604051905090565b600080fd5b600080fd5b60007fffffffff0000000000000000000000000000000000000000000000000000000082169050919050565b61343781613402565b811461344257600080fd5b50565b6000813590506134548161342e565b92915050565b6000602082840312156134705761346f6133f8565b5b600061347e84828501613445565b91505092915050565b60008115159050919050565b61349c81613487565b82525050565b60006020820190506134b76000830184613493565b92915050565b600081519050919050565b600082825260208201905092915050565b60005b838110156134f75780820151818401526020810190506134dc565b60008484015250505050565b6000601f19601f8301169050919050565b600061351f826134bd565b61352981856134c8565b93506135398185602086016134d9565b61354281613503565b840191505092915050565b600060208201905081810360008301526135678184613514565b905092915050565b6000819050919050565b6135828161356f565b811461358d57600080fd5b50565b60008135905061359f81613579565b92915050565b6000602082840312156135bb576135ba6133f8565b5b60006135c984828501613590565b91505092915050565b600073ffffffffffffffffffffffffffffffffffffffff82169050919050565b60006135fd826135d2565b9050919050565b61360d816135f2565b82525050565b60006020820190506136286000830184613604565b92915050565b613637816135f2565b811461364257600080fd5b50565b6000813590506136548161362e565b92915050565b60008060408385031215613671576136706133f8565b5b600061367f85828601613645565b925050602061369085828601613590565b9150509250929050565b6000819050919050565b6136ad8161369a565b82525050565b60006020820190506136c860008301846136a4565b92915050565b6136d78161356f565b82525050565b60006020820190506136f260008301846136ce565b92915050565b600080600060608486031215613711576137106133f8565b5b600061371f86828701613645565b935050602061373086828701613645565b925050604061374186828701613590565b9150509250925092565b6137548161369a565b811461375f57600080fd5b50565b6000813590506137718161374b565b92915050565b60006020828403121561378d5761378c6133f8565b5b600061379b84828501613762565b91505092915050565b600080604083850312156137bb576137ba6133f8565b5b60006137c985828601613762565b92505060206137da85828601613645565b9150509250929050565b600080604083850312156137fb576137fa6133f8565b5b600061380985828601613590565b925050602061381a85828601613590565b9150509250929050565b60006020828403121561383a576138396133f8565b5b600061384884828501613645565b91505092915050565b60008060408385031215613868576138676133f8565b5b600061387685828601613590565b925050602061388785828601613645565b9150509250929050565b600060a0820190506138a660008301886136ce565b81810360208301526138b88187613514565b905081810360408301526138cc8186613514565b90506138db60608301856136ce565b6138e860808301846136ce565b9695505050505050565b6138fb81613487565b811461390657600080fd5b50565b600081359050613918816138f2565b92915050565b60008060408385031215613935576139346133f8565b5b600061394385828601613645565b925050602061395485828601613909565b9150509250929050565b600080fd5b600080fd5b7f4e487b7100000000000000000000000000000000000000000000000000000000600052604160045260246000fd5b6139a082613503565b810181811067ffffffffffffffff821117156139bf576139be613968565b5b80604052505050565b60006139d26133ee565b90506139de8282613997565b919050565b600067ffffffffffffffff8211156139fe576139fd613968565b5b613a0782613503565b9050602081019050919050565b82818337600083830152505050565b6000613a36613a31846139e3565b6139c8565b905082815260208101848484011115613a5257613a51613963565b5b613a5d848285613a14565b509392505050565b600082601f830112613a7a57613a7961395e565b5b8135613a8a848260208601613a23565b91505092915050565b60008060008060808587031215613aad57613aac6133f8565b5b6000613abb87828801613645565b9450506020613acc87828801613645565b9350506040613add87828801613590565b925050606085013567ffffffffffffffff811115613afe57613afd6133fd565b5b613b0a87828801613a65565b91505092959194509250565b6000604082019050613b2b60008301856136ce565b613b3860208301846136ce565b9392505050565b60008060408385031215613b5657613b556133f8565b5b6000613b6485828601613645565b9250506020613b7585828601613645565b9150509250929050565b600067ffffffffffffffff821115613b9a57613b99613968565b5b613ba382613503565b9050602081019050919050565b6000613bc3613bbe84613b7f565b6139c8565b905082815260208101848484011115613bdf57613bde613963565b5b613bea848285613a14565b509392505050565b600082601f830112613c0757613c0661395e565b5b8135613c17848260208601613bb0565b91505092915050565b60008060008060808587031215613c3a57613c396133f8565b5b600085013567ffffffffffffffff811115613c5857613c576133fd565b5b613c6487828801613bf2565b945050602085013567ffffffffffffffff811115613c8557613c846133fd565b5b613c9187828801613bf2565b9350506040613ca287828801613590565b9250506060613cb387828801613590565b91505092959194509250565b7f4e487b7100000000000000000000000000000000000000000000000000000000600052602260045260246000fd5b60006002820490506001821680613d0657607f821691505b602082108103613d1957613d18613cbf565b5b50919050565b7f4552433732313a20617070726f76616c20746f2063757272656e74206f776e6560008201527f7200000000000000000000000000000000000000000000000000000000000000602082015250565b6000613d7b6021836134c8565b9150613d8682613d1f565b604082019050919050565b60006020820190508181036000830152613daa81613d6e565b9050919050565b7f4552433732313a20617070726f76652063616c6c6572206973206e6f7420746f60008201527f6b656e206f776e6572206f7220617070726f76656420666f7220616c6c000000602082015250565b6000613e0d603d836134c8565b9150613e1882613db1565b604082019050919050565b60006020820190508181036000830152613e3c81613e00565b9050919050565b7f4552433732313a2063616c6c6572206973206e6f7420746f6b656e206f776e6560008201527f72206f7220617070726f76656400000000000000000000000000000000000000602082015250565b6000613e9f602d836134c8565b9150613eaa82613e43565b604082019050919050565b60006020820190508181036000830152613ece81613e92565b9050919050565b7f455243373231456e756d657261626c653a206f776e657220696e646578206f7560008201527f74206f6620626f756e6473000000000000000000000000000000000000000000602082015250565b6000613f31602b836134c8565b9150613f3c82613ed5565b604082019050919050565b60006020820190508181036000830152613f6081613f24565b9050919050565b7f416363657373436f6e74726f6c3a2063616e206f6e6c792072656e6f756e636560008201527f20726f6c657320666f722073656c660000000000000000000000000000000000602082015250565b6000613fc3602f836134c8565b9150613fce82613f67565b604082019050919050565b60006020820190508181036000830152613ff281613fb6565b9050919050565b7f556e617574686f72697a65640000000000000000000000000000000000000000600082015250565b600061402f600c836134c8565b915061403a82613ff9565b602082019050919050565b6000602082019050818103600083015261405e81614022565b9050919050565b7f455243373231456e756d657261626c653a20676c6f62616c20696e646578206f60008201527f7574206f6620626f756e64730000000000000000000000000000000000000000602082015250565b60006140c1602c836134c8565b91506140cc82614065565b604082019050919050565b600060208201905081810360008301526140f0816140b4565b9050919050565b7f4e487b7100000000000000000000000000000000000000000000000000000000600052603260045260246000fd5b7f4361726420646f6573206e6f742065786973742e000000000000000000000000600082015250565b600061415c6014836134c8565b915061416782614126565b602082019050919050565b6000602082019050818103600083015261418b8161414f565b9050919050565b7f4e487b7100000000000000000000000000000000000000000000000000000000600052601160045260246000fd5b60006141cc8261356f565b91506141d78361356f565b92508282019050808211156141ef576141ee614192565b5b92915050565b60006142008261356f565b915061420b8361356f565b92508282026142198161356f565b915082820484148315176142305761422f614192565b5b5092915050565b7f4e487b7100000000000000000000000000000000000000000000000000000000600052601260045260246000fd5b60006142718261356f565b915061427c8361356f565b92508261428c5761428b614237565b5b828204905092915050565b7f4552433732313a20696e76616c696420746f6b656e2049440000000000000000600082015250565b60006142cd6018836134c8565b91506142d882614297565b602082019050919050565b600060208201905081810360008301526142fc816142c0565b9050919050565b7f4552433732313a2061646472657373207a65726f206973206e6f74206120766160008201527f6c6964206f776e65720000000000000000000000000000000000000000000000602082015250565b600061435f6029836134c8565b915061436a82614303565b604082019050919050565b6000602082019050818103600083015261438e81614352565b9050919050565b7f4e6f7420746865206f776e6572206f662074686520636172642e000000000000600082015250565b60006143cb601a836134c8565b91506143d682614395565b602082019050919050565b600060208201905081810360008301526143fa816143be565b9050919050565b7f4361726420646f6573206e6f7420657869737400000000000000000000000000600082015250565b60006144376013836134c8565b915061444282614401565b602082019050919050565b600060208201905081810360008301526144668161442a565b9050919050565b600081905092915050565b6000614483826134bd565b61448d818561446d565b935061449d8185602086016134d9565b80840191505092915050565b60006144b58285614478565b91506144c18284614478565b91508190509392505050565b7f43617264206973206e6f7420617661696c61626c6520666f722070757263686160008201527f73652e0000000000000000000000000000000000000000000000000000000000602082015250565b60006145296023836134c8565b9150614534826144cd565b604082019050919050565b600060208201905081810360008301526145588161451c565b9050919050565b7f496e73756666696369656e74204554482073656e742e00000000000000000000600082015250565b60006145956016836134c8565b91506145a08261455f565b602082019050919050565b600060208201905081810360008301526145c481614588565b9050919050565b7f4f776e61626c653a206e6577206f776e657220697320746865207a65726f206160008201527f6464726573730000000000000000000000000000000000000000000000000000602082015250565b60006146276026836134c8565b9150614632826145cb565b604082019050919050565b600060208201905081810360008301526146568161461a565b9050919050565b60008190508160005260206000209050919050565b60006020601f8301049050919050565b600082821b905092915050565b6000600883026146bf7fffffffffffffffffffffffffffffffffffffffffffffffffffffffffffffffff82614682565b6146c98683614682565b95508019841693508086168417925050509392505050565b6000819050919050565b60006147066147016146fc8461356f565b6146e1565b61356f565b9050919050565b6000819050919050565b614720836146eb565b61473461472c8261470d565b84845461468f565b825550505050565b600090565b61474961473c565b614754818484614717565b505050565b5b818110156147785761476d600082614741565b60018101905061475a565b5050565b601f8211156147bd5761478e8161465d565b61479784614672565b810160208510156147a6578190505b6147ba6147b285614672565b830182614759565b50505b505050565b600082821c905092915050565b60006147e0600019846008026147c2565b1980831691505092915050565b60006147f983836147cf565b9150826002028217905092915050565b614812826134bd565b67ffffffffffffffff81111561482b5761482a613968565b5b6148358254613cee565b61484082828561477c565b600060209050601f8311600181146148735760008415614861578287015190505b61486b85826147ed565b8655506148d3565b601f1984166148818661465d565b60005b828110156148a957848901518255600182019150602085019450602081019050614884565b868310156148c657848901516148c2601f8916826147cf565b8355505b6001600288020188555050505b505050505050565b7f4552433732313a207472616e736665722066726f6d20696e636f72726563742060008201527f6f776e6572000000000000000000000000000000000000000000000000000000602082015250565b60006149376025836134c8565b9150614942826148db565b604082019050919050565b600060208201905081810360008301526149668161492a565b9050919050565b7f4552433732313a207472616e7366657220746f20746865207a65726f2061646460008201527f7265737300000000000000000000000000000000000000000000000000000000602082015250565b60006149c96024836134c8565b91506149d48261496d565b604082019050919050565b600060208201905081810360008301526149f8816149bc565b9050919050565b7f4f776e61626c653a2063616c6c6572206973206e6f7420746865206f776e6572600082015250565b6000614a356020836134c8565b9150614a40826149ff565b602082019050919050565b60006020820190508181036000830152614a6481614a28565b9050919050565b7f4552433732313a207472616e7366657220746f206e6f6e20455243373231526560008201527f63656976657220696d706c656d656e7465720000000000000000000000000000602082015250565b6000614ac76032836134c8565b9150614ad282614a6b565b604082019050919050565b60006020820190508181036000830152614af681614aba565b9050919050565b7f4552433732313a20617070726f766520746f2063616c6c657200000000000000600082015250565b6000614b336019836134c8565b9150614b3e82614afd565b602082019050919050565b60006020820190508181036000830152614b6281614b26565b9050919050565b7f4552433732313a206d696e7420746f20746865207a65726f2061646472657373600082015250565b6000614b9f6020836134c8565b9150614baa82614b69565b602082019050919050565b60006020820190508181036000830152614bce81614b92565b9050919050565b7f4552433732313a20746f6b656e20616c7265616479206d696e74656400000000600082015250565b6000614c0b601c836134c8565b9150614c1682614bd5565b602082019050919050565b60006020820190508181036000830152614c3a81614bfe565b9050919050565b7f455243373231456e756d657261626c653a20636f6e736563757469766520747260008201527f616e7366657273206e6f7420737570706f727465640000000000000000000000602082015250565b6000614c9d6035836134c8565b9150614ca882614c41565b604082019050919050565b60006020820190508181036000830152614ccc81614c90565b9050919050565b7f416363657373436f6e74726f6c3a206163636f756e7420000000000000000000600082015250565b6000614d0960178361446d565b9150614d1482614cd3565b601782019050919050565b7f206973206d697373696e6720726f6c6520000000000000000000000000000000600082015250565b6000614d5560118361446d565b9150614d6082614d1f565b601182019050919050565b6000614d7682614cfc565b9150614d828285614478565b9150614d8d82614d48565b9150614d998284614478565b91508190509392505050565b600081519050919050565b600082825260208201905092915050565b6000614dcc82614da5565b614dd68185614db0565b9350614de68185602086016134d9565b614def81613503565b840191505092915050565b6000608082019050614e0f6000830187613604565b614e1c6020830186613604565b614e2960408301856136ce565b8181036060830152614e3b8184614dc1565b905095945050505050565b600081519050614e558161342e565b92915050565b600060208284031215614e7157614e706133f8565b5b6000614e7f84828501614e46565b91505092915050565b6000614e938261356f565b9150614e9e8361356f565b9250828203905081811115614eb657614eb5614192565b5b92915050565b7f4e487b7100000000000000000000000000000000000000000000000000000000600052603160045260246000fd5b6000614ef68261356f565b915060008203614f0957614f08614192565b5b600182039050919050565b7f537472696e67733a20686578206c656e67746820696e73756666696369656e74600082015250565b6000614f4a6020836134c8565b9150614f5582614f14565b602082019050919050565b60006020820190508181036000830152614f7981614f3d565b905091905056fea264697066735822122041be8e9479afed2b31872d644e824ba3601533f6e188ed72cc7dc2eea5e066f164736f6c63430008130033",
  "immutableReferences": {},
  "source": "// SPDX-License-Identifier: MIT\npragma solidity ^0.8.19;\n\nimport \"@openzeppelin/contracts/access/AccessControl.sol\";\nimport \"@openzeppelin/contracts/token/ERC721/extensions/ERC721Enumerable.sol\";\nimport \"@openzeppelin/contracts/access/Ownable.sol\";\nimport \"@openzeppelin/contracts/utils/Counters.sol\";\n\ncontract UniqueCards is ERC721Enumerable, AccessControl, Ownable {\n    address private PlayerRegistration;\n    bytes32 public constant CARD_CREATOR_ROLE = keccak256(\"CARD_CREATOR_ROLE\");\n    using Counters for Counters.Counter;\n    Counters.Counter private _tokenIds;\n\n    function supportsInterface(\n        bytes4 interfaceId\n    ) public view override(ERC721Enumerable, AccessControl) returns (bool) {\n        return\n            ERC721Enumerable.supportsInterface(interfaceId) ||\n            AccessControl.supportsInterface(interfaceId);\n    }\n\n    struct Card {\n        uint256 id;\n        string name;\n        string description;\n        uint256 attack;\n        uint256 defense;\n    }\n\n    mapping(uint256 => Card) public cards;\n\n    constructor(address playerRegistrationAddress) ERC721(\"UniqueCards\", \"UC\") {\n        _setupRole(CARD_CREATOR_ROLE, playerRegistrationAddress);\n    }\n\n    function createUniqueCard(\n        string memory name,\n        string memory description,\n        uint256 attack,\n        uint256 defense\n    ) external onlyRole(CARD_CREATOR_ROLE) returns (uint256) {\n        _tokenIds.increment();\n        uint256 newCardId = _tokenIds.current();\n\n        cards[newCardId] = Card({\n            id: newCardId,\n            name: name,\n            description: description,\n            attack: attack,\n            defense: defense\n        });\n\n        _mint(msg.sender, newCardId);\n        return newCardId;\n    }\n\n    function purchaseUniqueCard(uint256 cardId) external payable {\n        // Ensure the card exists\n        require(cards[cardId].id == cardId, \"Card does not exist.\");\n\n        // Check if the card is owned by the contract owner/admin\n        require(\n            ownerOf(cardId) == owner(),\n            \"Card is not available for purchase.\"\n        );\n\n        // Implement the logic for the purchase amount (e.g., fixed amount, auction, etc.)\n        require(msg.value >= 0.01 ether, \"Insufficient ETH sent.\");\n\n        // Transfer ownership of the card to the buyer\n        _safeTransfer(owner(), msg.sender, cardId, \"\");\n\n        // Transfer the ETH to the contract owner or another wallet\n        payable(owner()).transfer(msg.value);\n    }\n\n    function tradeCard(uint256 cardId, address recipient) external {\n        // Ensure the caller is the current owner of the card\n        require(ownerOf(cardId) == msg.sender, \"Not the owner of the card.\");\n\n        // Safely transfer the card to the recipient\n        _safeTransfer(msg.sender, recipient, cardId, \"\");\n    }\n\n    function increaseCardAttributes(\n        uint256 cardId,\n        uint256 percentIncrease\n    ) external onlyOwner {\n        require(cards[cardId].id == cardId, \"Card does not exist.\");\n        cards[cardId].attack =\n            (cards[cardId].attack * (100 + percentIncrease)) /\n            100;\n        cards[cardId].defense =\n            (cards[cardId].defense * (100 + percentIncrease)) /\n            100;\n    }\n\n    function getCardAttributes(\n        uint256 cardId\n    ) external view returns (uint256 attack, uint256 defense) {\n        Card storage card = cards[cardId];\n        return (card.attack, card.defense);\n    }\n\n    function updateCardDefense(uint256 cardId, uint256 newDefense) external {\n        require(msg.sender == address(PlayerRegistration), \"Unauthorized\"); // Only allow PlayerRegistration contract to call this\n        cards[cardId].defense = newDefense;\n    }\n\n    function burnCard(uint256 cardId) external {\n        require(msg.sender == address(PlayerRegistration), \"Unauthorized\");\n        require(ownerOf(cardId) != address(0), \"Card does not exist\");\n        _burn(cardId);\n    }\n}\n",
  "sourcePath": "/Users/ibrahimallahbuksh/BlockchainProject/contracts/ERC721SmartContract.sol",
  "compiler": {
    "name": "solc",
    "version": "0.8.19+commit.7dd6d404.Emscripten.clang"
  },
  "schemaVersion": "3.4.16",
  "updatedAt": "2023-11-19T04:53:50.765Z",
  "devdoc": {
    "events": {
      "Approval(address,address,uint256)": {
        "details": "Emitted when `owner` enables `approved` to manage the `tokenId` token."
      },
      "ApprovalForAll(address,address,bool)": {
        "details": "Emitted when `owner` enables or disables (`approved`) `operator` to manage all of its assets."
      },
      "RoleAdminChanged(bytes32,bytes32,bytes32)": {
        "details": "Emitted when `newAdminRole` is set as ``role``'s admin role, replacing `previousAdminRole` `DEFAULT_ADMIN_ROLE` is the starting admin for all roles, despite {RoleAdminChanged} not being emitted signaling this. _Available since v3.1._"
      },
      "RoleGranted(bytes32,address,address)": {
        "details": "Emitted when `account` is granted `role`. `sender` is the account that originated the contract call, an admin role bearer except when using {AccessControl-_setupRole}."
      },
      "RoleRevoked(bytes32,address,address)": {
        "details": "Emitted when `account` is revoked `role`. `sender` is the account that originated the contract call:   - if using `revokeRole`, it is the admin role bearer   - if using `renounceRole`, it is the role bearer (i.e. `account`)"
      },
      "Transfer(address,address,uint256)": {
        "details": "Emitted when `tokenId` token is transferred from `from` to `to`."
      }
    },
    "kind": "dev",
    "methods": {
      "approve(address,uint256)": {
        "details": "See {IERC721-approve}."
      },
      "balanceOf(address)": {
        "details": "See {IERC721-balanceOf}."
      },
      "getApproved(uint256)": {
        "details": "See {IERC721-getApproved}."
      },
      "getRoleAdmin(bytes32)": {
        "details": "Returns the admin role that controls `role`. See {grantRole} and {revokeRole}. To change a role's admin, use {_setRoleAdmin}."
      },
      "grantRole(bytes32,address)": {
        "details": "Grants `role` to `account`. If `account` had not been already granted `role`, emits a {RoleGranted} event. Requirements: - the caller must have ``role``'s admin role. May emit a {RoleGranted} event."
      },
      "hasRole(bytes32,address)": {
        "details": "Returns `true` if `account` has been granted `role`."
      },
      "isApprovedForAll(address,address)": {
        "details": "See {IERC721-isApprovedForAll}."
      },
      "name()": {
        "details": "See {IERC721Metadata-name}."
      },
      "owner()": {
        "details": "Returns the address of the current owner."
      },
      "ownerOf(uint256)": {
        "details": "See {IERC721-ownerOf}."
      },
      "renounceOwnership()": {
        "details": "Leaves the contract without owner. It will not be possible to call `onlyOwner` functions. Can only be called by the current owner. NOTE: Renouncing ownership will leave the contract without an owner, thereby disabling any functionality that is only available to the owner."
      },
      "renounceRole(bytes32,address)": {
        "details": "Revokes `role` from the calling account. Roles are often managed via {grantRole} and {revokeRole}: this function's purpose is to provide a mechanism for accounts to lose their privileges if they are compromised (such as when a trusted device is misplaced). If the calling account had been revoked `role`, emits a {RoleRevoked} event. Requirements: - the caller must be `account`. May emit a {RoleRevoked} event."
      },
      "revokeRole(bytes32,address)": {
        "details": "Revokes `role` from `account`. If `account` had been granted `role`, emits a {RoleRevoked} event. Requirements: - the caller must have ``role``'s admin role. May emit a {RoleRevoked} event."
      },
      "safeTransferFrom(address,address,uint256)": {
        "details": "See {IERC721-safeTransferFrom}."
      },
      "safeTransferFrom(address,address,uint256,bytes)": {
        "details": "See {IERC721-safeTransferFrom}."
      },
      "setApprovalForAll(address,bool)": {
        "details": "See {IERC721-setApprovalForAll}."
      },
      "symbol()": {
        "details": "See {IERC721Metadata-symbol}."
      },
      "tokenByIndex(uint256)": {
        "details": "See {IERC721Enumerable-tokenByIndex}."
      },
      "tokenOfOwnerByIndex(address,uint256)": {
        "details": "See {IERC721Enumerable-tokenOfOwnerByIndex}."
      },
      "tokenURI(uint256)": {
        "details": "See {IERC721Metadata-tokenURI}."
      },
      "totalSupply()": {
        "details": "See {IERC721Enumerable-totalSupply}."
      },
      "transferFrom(address,address,uint256)": {
        "details": "See {IERC721-transferFrom}."
      },
      "transferOwnership(address)": {
        "details": "Transfers ownership of the contract to a new account (`newOwner`). Can only be called by the current owner."
      }
    },
    "version": 1
  },
  "userdoc": {
    "kind": "user",
    "methods": {},
    "version": 1
  }
}