{
  "contractName": "UniqueCards",
  "abi": [
    {
      "inputs": [],
      "stateMutability": "nonpayable",
      "type": "constructor"
    },
    {
      "anonymous": false,
      "inputs": [
        {
          "indexed": true,
          "internalType": "address",
          "name": "owner",
          "type": "address"
        },
        {
          "indexed": true,
          "internalType": "address",
          "name": "approved",
          "type": "address"
        },
        {
          "indexed": true,
          "internalType": "uint256",
          "name": "tokenId",
          "type": "uint256"
        }
      ],
      "name": "Approval",
      "type": "event"
    },
    {
      "anonymous": false,
      "inputs": [
        {
          "indexed": true,
          "internalType": "address",
          "name": "owner",
          "type": "address"
        },
        {
          "indexed": true,
          "internalType": "address",
          "name": "operator",
          "type": "address"
        },
        {
          "indexed": false,
          "internalType": "bool",
          "name": "approved",
          "type": "bool"
        }
      ],
      "name": "ApprovalForAll",
      "type": "event"
    },
    {
      "anonymous": false,
      "inputs": [
        {
          "indexed": true,
          "internalType": "address",
          "name": "previousOwner",
          "type": "address"
        },
        {
          "indexed": true,
          "internalType": "address",
          "name": "newOwner",
          "type": "address"
        }
      ],
      "name": "OwnershipTransferred",
      "type": "event"
    },
    {
      "anonymous": false,
      "inputs": [
        {
          "indexed": true,
          "internalType": "address",
          "name": "from",
          "type": "address"
        },
        {
          "indexed": true,
          "internalType": "address",
          "name": "to",
          "type": "address"
        },
        {
          "indexed": true,
          "internalType": "uint256",
          "name": "tokenId",
          "type": "uint256"
        }
      ],
      "name": "Transfer",
      "type": "event"
    },
    {
      "inputs": [
        {
          "internalType": "address",
          "name": "to",
          "type": "address"
        },
        {
          "internalType": "uint256",
          "name": "tokenId",
          "type": "uint256"
        }
      ],
      "name": "approve",
      "outputs": [],
      "stateMutability": "nonpayable",
      "type": "function"
    },
    {
      "inputs": [
        {
          "internalType": "address",
          "name": "owner",
          "type": "address"
        }
      ],
      "name": "balanceOf",
      "outputs": [
        {
          "internalType": "uint256",
          "name": "",
          "type": "uint256"
        }
      ],
      "stateMutability": "view",
      "type": "function",
      "constant": true
    },
    {
      "inputs": [
        {
          "internalType": "uint256",
          "name": "",
          "type": "uint256"
        }
      ],
      "name": "cards",
      "outputs": [
        {
          "internalType": "uint256",
          "name": "id",
          "type": "uint256"
        },
        {
          "internalType": "string",
          "name": "name",
          "type": "string"
        },
        {
          "internalType": "string",
          "name": "description",
          "type": "string"
        }
      ],
      "stateMutability": "view",
      "type": "function",
      "constant": true
    },
    {
      "inputs": [
        {
          "internalType": "uint256",
          "name": "tokenId",
          "type": "uint256"
        }
      ],
      "name": "getApproved",
      "outputs": [
        {
          "internalType": "address",
          "name": "",
          "type": "address"
        }
      ],
      "stateMutability": "view",
      "type": "function",
      "constant": true
    },
    {
      "inputs": [
        {
          "internalType": "address",
          "name": "owner",
          "type": "address"
        },
        {
          "internalType": "address",
          "name": "operator",
          "type": "address"
        }
      ],
      "name": "isApprovedForAll",
      "outputs": [
        {
          "internalType": "bool",
          "name": "",
          "type": "bool"
        }
      ],
      "stateMutability": "view",
      "type": "function",
      "constant": true
    },
    {
      "inputs": [],
      "name": "name",
      "outputs": [
        {
          "internalType": "string",
          "name": "",
          "type": "string"
        }
      ],
      "stateMutability": "view",
      "type": "function",
      "constant": true
    },
    {
      "inputs": [],
      "name": "owner",
      "outputs": [
        {
          "internalType": "address",
          "name": "",
          "type": "address"
        }
      ],
      "stateMutability": "view",
      "type": "function",
      "constant": true
    },
    {
      "inputs": [
        {
          "internalType": "uint256",
          "name": "tokenId",
          "type": "uint256"
        }
      ],
      "name": "ownerOf",
      "outputs": [
        {
          "internalType": "address",
          "name": "",
          "type": "address"
        }
      ],
      "stateMutability": "view",
      "type": "function",
      "constant": true
    },
    {
      "inputs": [],
      "name": "renounceOwnership",
      "outputs": [],
      "stateMutability": "nonpayable",
      "type": "function"
    },
    {
      "inputs": [
        {
          "internalType": "address",
          "name": "from",
          "type": "address"
        },
        {
          "internalType": "address",
          "name": "to",
          "type": "address"
        },
        {
          "internalType": "uint256",
          "name": "tokenId",
          "type": "uint256"
        }
      ],
      "name": "safeTransferFrom",
      "outputs": [],
      "stateMutability": "nonpayable",
      "type": "function"
    },
    {
      "inputs": [
        {
          "internalType": "address",
          "name": "from",
          "type": "address"
        },
        {
          "internalType": "address",
          "name": "to",
          "type": "address"
        },
        {
          "internalType": "uint256",
          "name": "tokenId",
          "type": "uint256"
        },
        {
          "internalType": "bytes",
          "name": "data",
          "type": "bytes"
        }
      ],
      "name": "safeTransferFrom",
      "outputs": [],
      "stateMutability": "nonpayable",
      "type": "function"
    },
    {
      "inputs": [
        {
          "internalType": "address",
          "name": "operator",
          "type": "address"
        },
        {
          "internalType": "bool",
          "name": "approved",
          "type": "bool"
        }
      ],
      "name": "setApprovalForAll",
      "outputs": [],
      "stateMutability": "nonpayable",
      "type": "function"
    },
    {
      "inputs": [
        {
          "internalType": "bytes4",
          "name": "interfaceId",
          "type": "bytes4"
        }
      ],
      "name": "supportsInterface",
      "outputs": [
        {
          "internalType": "bool",
          "name": "",
          "type": "bool"
        }
      ],
      "stateMutability": "view",
      "type": "function",
      "constant": true
    },
    {
      "inputs": [],
      "name": "symbol",
      "outputs": [
        {
          "internalType": "string",
          "name": "",
          "type": "string"
        }
      ],
      "stateMutability": "view",
      "type": "function",
      "constant": true
    },
    {
      "inputs": [
        {
          "internalType": "uint256",
          "name": "index",
          "type": "uint256"
        }
      ],
      "name": "tokenByIndex",
      "outputs": [
        {
          "internalType": "uint256",
          "name": "",
          "type": "uint256"
        }
      ],
      "stateMutability": "view",
      "type": "function",
      "constant": true
    },
    {
      "inputs": [
        {
          "internalType": "address",
          "name": "owner",
          "type": "address"
        },
        {
          "internalType": "uint256",
          "name": "index",
          "type": "uint256"
        }
      ],
      "name": "tokenOfOwnerByIndex",
      "outputs": [
        {
          "internalType": "uint256",
          "name": "",
          "type": "uint256"
        }
      ],
      "stateMutability": "view",
      "type": "function",
      "constant": true
    },
    {
      "inputs": [
        {
          "internalType": "uint256",
          "name": "tokenId",
          "type": "uint256"
        }
      ],
      "name": "tokenURI",
      "outputs": [
        {
          "internalType": "string",
          "name": "",
          "type": "string"
        }
      ],
      "stateMutability": "view",
      "type": "function",
      "constant": true
    },
    {
      "inputs": [],
      "name": "totalSupply",
      "outputs": [
        {
          "internalType": "uint256",
          "name": "",
          "type": "uint256"
        }
      ],
      "stateMutability": "view",
      "type": "function",
      "constant": true
    },
    {
      "inputs": [
        {
          "internalType": "address",
          "name": "from",
          "type": "address"
        },
        {
          "internalType": "address",
          "name": "to",
          "type": "address"
        },
        {
          "internalType": "uint256",
          "name": "tokenId",
          "type": "uint256"
        }
      ],
      "name": "transferFrom",
      "outputs": [],
      "stateMutability": "nonpayable",
      "type": "function"
    },
    {
      "inputs": [
        {
          "internalType": "address",
          "name": "newOwner",
          "type": "address"
        }
      ],
      "name": "transferOwnership",
      "outputs": [],
      "stateMutability": "nonpayable",
      "type": "function"
    },
    {
      "inputs": [
        {
          "internalType": "string",
          "name": "name",
          "type": "string"
        },
        {
          "internalType": "string",
          "name": "description",
          "type": "string"
        }
      ],
      "name": "createUniqueCard",
      "outputs": [],
      "stateMutability": "nonpayable",
      "type": "function"
    },
    {
      "inputs": [
        {
          "internalType": "uint256",
          "name": "cardId",
          "type": "uint256"
        }
      ],
      "name": "purchaseUniqueCard",
      "outputs": [],
      "stateMutability": "payable",
      "type": "function",
      "payable": true
    },
    {
      "inputs": [
        {
          "internalType": "uint256",
          "name": "cardId",
          "type": "uint256"
        },
        {
          "internalType": "address",
          "name": "recipient",
          "type": "address"
        }
      ],
      "name": "tradeCard",
      "outputs": [],
      "stateMutability": "nonpayable",
      "type": "function"
    }
  ],
  "bytecode": "0x60806040523480156200001157600080fd5b506040518060400160405280600b81526020017f556e6971756543617264730000000000000000000000000000000000000000008152506040518060400160405280600281526020017f554300000000000000000000000000000000000000000000000000000000000081525081600090816200008f919062000412565b508060019081620000a1919062000412565b505050620000c4620000b8620000ca60201b60201c565b620000d260201b60201c565b620004f9565b600033905090565b6000600a60009054906101000a900473ffffffffffffffffffffffffffffffffffffffff16905081600a60006101000a81548173ffffffffffffffffffffffffffffffffffffffff021916908373ffffffffffffffffffffffffffffffffffffffff1602179055508173ffffffffffffffffffffffffffffffffffffffff168173ffffffffffffffffffffffffffffffffffffffff167f8be0079c531659141344cd1fd0a4f28419497f9722a3daafe3b4186f6b6457e060405160405180910390a35050565b600081519050919050565b7f4e487b7100000000000000000000000000000000000000000000000000000000600052604160045260246000fd5b7f4e487b7100000000000000000000000000000000000000000000000000000000600052602260045260246000fd5b600060028204905060018216806200021a57607f821691505b60208210810362000230576200022f620001d2565b5b50919050565b60008190508160005260206000209050919050565b60006020601f8301049050919050565b600082821b905092915050565b6000600883026200029a7fffffffffffffffffffffffffffffffffffffffffffffffffffffffffffffffff826200025b565b620002a686836200025b565b95508019841693508086168417925050509392505050565b6000819050919050565b6000819050919050565b6000620002f3620002ed620002e784620002be565b620002c8565b620002be565b9050919050565b6000819050919050565b6200030f83620002d2565b620003276200031e82620002fa565b84845462000268565b825550505050565b600090565b6200033e6200032f565b6200034b81848462000304565b505050565b5b8181101562000373576200036760008262000334565b60018101905062000351565b5050565b601f821115620003c2576200038c8162000236565b62000397846200024b565b81016020851015620003a7578190505b620003bf620003b6856200024b565b83018262000350565b50505b505050565b600082821c905092915050565b6000620003e760001984600802620003c7565b1980831691505092915050565b6000620004028383620003d4565b9150826002028217905092915050565b6200041d8262000198565b67ffffffffffffffff811115620004395762000438620001a3565b5b62000445825462000201565b6200045282828562000377565b600060209050601f8311600181146200048a576000841562000475578287015190505b620004818582620003f4565b865550620004f1565b601f1984166200049a8662000236565b60005b82811015620004c4578489015182556001820191506020850194506020810190506200049d565b86831015620004e45784890151620004e0601f891682620003d4565b8355505b6001600288020188555050505b505050505050565b613c8180620005096000396000f3fe6080604052600436106101405760003560e01c806370a08231116100b6578063a22cb4651161006f578063a22cb46514610482578063b88d4fde146104ab578063c87b56dd146104d4578063e985e9c514610511578063ec5ac24b1461054e578063f2fde38b1461056a57610140565b806370a0823114610370578063715018a6146103ad5780638a91a6c8146103c45780638da5cb5b146103ed5780638dc107681461041857806395d89b411461045757610140565b80632110c40b116101085780632110c40b1461023e57806323b872dd146102675780632f745c591461029057806342842e0e146102cd5780634f6ccce7146102f65780636352211e1461033357610140565b806301ffc9a71461014557806306fdde0314610182578063081812fc146101ad578063095ea7b3146101ea57806318160ddd14610213575b600080fd5b34801561015157600080fd5b5061016c60048036038101906101679190612616565b610593565b604051610179919061265e565b60405180910390f35b34801561018e57600080fd5b5061019761060d565b6040516101a49190612709565b60405180910390f35b3480156101b957600080fd5b506101d460048036038101906101cf9190612761565b61069f565b6040516101e191906127cf565b60405180910390f35b3480156101f657600080fd5b50610211600480360381019061020c9190612816565b6106e5565b005b34801561021f57600080fd5b506102286107fc565b6040516102359190612865565b60405180910390f35b34801561024a57600080fd5b50610265600480360381019061026091906129b5565b610809565b005b34801561027357600080fd5b5061028e60048036038101906102899190612a2d565b6108ac565b005b34801561029c57600080fd5b506102b760048036038101906102b29190612816565b61090c565b6040516102c49190612865565b60405180910390f35b3480156102d957600080fd5b506102f460048036038101906102ef9190612a2d565b6109b1565b005b34801561030257600080fd5b5061031d60048036038101906103189190612761565b6109d1565b60405161032a9190612865565b60405180910390f35b34801561033f57600080fd5b5061035a60048036038101906103559190612761565b610a42565b60405161036791906127cf565b60405180910390f35b34801561037c57600080fd5b5061039760048036038101906103929190612a80565b610ac8565b6040516103a49190612865565b60405180910390f35b3480156103b957600080fd5b506103c2610b7f565b005b3480156103d057600080fd5b506103eb60048036038101906103e69190612aad565b610b93565b005b3480156103f957600080fd5b50610402610c28565b60405161040f91906127cf565b60405180910390f35b34801561042457600080fd5b5061043f600480360381019061043a9190612761565b610c52565b60405161044e93929190612aed565b60405180910390f35b34801561046357600080fd5b5061046c610d8c565b6040516104799190612709565b60405180910390f35b34801561048e57600080fd5b506104a960048036038101906104a49190612b5e565b610e1e565b005b3480156104b757600080fd5b506104d260048036038101906104cd9190612c3f565b610e34565b005b3480156104e057600080fd5b506104fb60048036038101906104f69190612761565b610e96565b6040516105089190612709565b60405180910390f35b34801561051d57600080fd5b5061053860048036038101906105339190612cc2565b610efe565b604051610545919061265e565b60405180910390f35b61056860048036038101906105639190612761565b610f92565b005b34801561057657600080fd5b50610591600480360381019061058c9190612a80565b611124565b005b60007f780e9d63000000000000000000000000000000000000000000000000000000007bffffffffffffffffffffffffffffffffffffffffffffffffffffffff1916827bffffffffffffffffffffffffffffffffffffffffffffffffffffffff191614806106065750610605826111a7565b5b9050919050565b60606000805461061c90612d31565b80601f016020809104026020016040519081016040528092919081815260200182805461064890612d31565b80156106955780601f1061066a57610100808354040283529160200191610695565b820191906000526020600020905b81548152906001019060200180831161067857829003601f168201915b5050505050905090565b60006106aa82611289565b6004600083815260200190815260200160002060009054906101000a900473ffffffffffffffffffffffffffffffffffffffff169050919050565b60006106f082610a42565b90508073ffffffffffffffffffffffffffffffffffffffff168373ffffffffffffffffffffffffffffffffffffffff1603610760576040517f08c379a000000000000000000000000000000000000000000000000000000000815260040161075790612dd4565b60405180910390fd5b8073ffffffffffffffffffffffffffffffffffffffff1661077f6112d4565b73ffffffffffffffffffffffffffffffffffffffff1614806107ae57506107ad816107a86112d4565b610efe565b5b6107ed576040517f08c379a00000000000000000000000000000000000000000000000000000000081526004016107e490612e66565b60405180910390fd5b6107f783836112dc565b505050565b6000600880549050905090565b610811611395565b61081b600b611413565b6000610827600b611429565b90506000604051806060016040528083815260200185815260200184815250905080600c600084815260200190815260200160002060008201518160000155602082015181600101908161087b9190613032565b5060408201518160020190816108919190613032565b509050506108a66108a0610c28565b83611437565b50505050565b6108bd6108b76112d4565b82611654565b6108fc576040517f08c379a00000000000000000000000000000000000000000000000000000000081526004016108f390613176565b60405180910390fd5b6109078383836116e9565b505050565b600061091783610ac8565b8210610958576040517f08c379a000000000000000000000000000000000000000000000000000000000815260040161094f90613208565b60405180910390fd5b600660008473ffffffffffffffffffffffffffffffffffffffff1673ffffffffffffffffffffffffffffffffffffffff168152602001908152602001600020600083815260200190815260200160002054905092915050565b6109cc83838360405180602001604052806000815250610e34565b505050565b60006109db6107fc565b8210610a1c576040517f08c379a0000000000000000000000000000000000000000000000000000000008152600401610a139061329a565b60405180910390fd5b60088281548110610a3057610a2f6132ba565b5b90600052602060002001549050919050565b600080610a4e836119e2565b9050600073ffffffffffffffffffffffffffffffffffffffff168173ffffffffffffffffffffffffffffffffffffffff1603610abf576040517f08c379a0000000000000000000000000000000000000000000000000000000008152600401610ab690613335565b60405180910390fd5b80915050919050565b60008073ffffffffffffffffffffffffffffffffffffffff168273ffffffffffffffffffffffffffffffffffffffff1603610b38576040517f08c379a0000000000000000000000000000000000000000000000000000000008152600401610b2f906133c7565b60405180910390fd5b600360008373ffffffffffffffffffffffffffffffffffffffff1673ffffffffffffffffffffffffffffffffffffffff168152602001908152602001600020549050919050565b610b87611395565b610b916000611a1f565b565b3373ffffffffffffffffffffffffffffffffffffffff16610bb383610a42565b73ffffffffffffffffffffffffffffffffffffffff1614610c09576040517f08c379a0000000000000000000000000000000000000000000000000000000008152600401610c0090613433565b60405180910390fd5b610c2433828460405180602001604052806000815250611ae5565b5050565b6000600a60009054906101000a900473ffffffffffffffffffffffffffffffffffffffff16905090565b600c602052806000526040600020600091509050806000015490806001018054610c7b90612d31565b80601f0160208091040260200160405190810160405280929190818152602001828054610ca790612d31565b8015610cf45780601f10610cc957610100808354040283529160200191610cf4565b820191906000526020600020905b815481529060010190602001808311610cd757829003601f168201915b505050505090806002018054610d0990612d31565b80601f0160208091040260200160405190810160405280929190818152602001828054610d3590612d31565b8015610d825780601f10610d5757610100808354040283529160200191610d82565b820191906000526020600020905b815481529060010190602001808311610d6557829003601f168201915b5050505050905083565b606060018054610d9b90612d31565b80601f0160208091040260200160405190810160405280929190818152602001828054610dc790612d31565b8015610e145780601f10610de957610100808354040283529160200191610e14565b820191906000526020600020905b815481529060010190602001808311610df757829003601f168201915b5050505050905090565b610e30610e296112d4565b8383611b41565b5050565b610e45610e3f6112d4565b83611654565b610e84576040517f08c379a0000000000000000000000000000000000000000000000000000000008152600401610e7b90613176565b60405180910390fd5b610e9084848484611ae5565b50505050565b6060610ea182611289565b6000610eab611cad565b90506000815111610ecb5760405180602001604052806000815250610ef6565b80610ed584611cc4565b604051602001610ee692919061348f565b6040516020818303038152906040525b915050919050565b6000600560008473ffffffffffffffffffffffffffffffffffffffff1673ffffffffffffffffffffffffffffffffffffffff16815260200190815260200160002060008373ffffffffffffffffffffffffffffffffffffffff1673ffffffffffffffffffffffffffffffffffffffff16815260200190815260200160002060009054906101000a900460ff16905092915050565b80600c60008381526020019081526020016000206000015414610fea576040517f08c379a0000000000000000000000000000000000000000000000000000000008152600401610fe1906134ff565b60405180910390fd5b610ff2610c28565b73ffffffffffffffffffffffffffffffffffffffff1661101182610a42565b73ffffffffffffffffffffffffffffffffffffffff1614611067576040517f08c379a000000000000000000000000000000000000000000000000000000000815260040161105e90613591565b60405180910390fd5b662386f26fc100003410156110b1576040517f08c379a00000000000000000000000000000000000000000000000000000000081526004016110a8906135fd565b60405180910390fd5b6110d36110bc610c28565b338360405180602001604052806000815250611ae5565b6110db610c28565b73ffffffffffffffffffffffffffffffffffffffff166108fc349081150290604051600060405180830381858888f19350505050158015611120573d6000803e3d6000fd5b5050565b61112c611395565b600073ffffffffffffffffffffffffffffffffffffffff168173ffffffffffffffffffffffffffffffffffffffff160361119b576040517f08c379a00000000000000000000000000000000000000000000000000000000081526004016111929061368f565b60405180910390fd5b6111a481611a1f565b50565b60007f80ac58cd000000000000000000000000000000000000000000000000000000007bffffffffffffffffffffffffffffffffffffffffffffffffffffffff1916827bffffffffffffffffffffffffffffffffffffffffffffffffffffffff1916148061127257507f5b5e139f000000000000000000000000000000000000000000000000000000007bffffffffffffffffffffffffffffffffffffffffffffffffffffffff1916827bffffffffffffffffffffffffffffffffffffffffffffffffffffffff1916145b80611282575061128182611d92565b5b9050919050565b61129281611dfc565b6112d1576040517f08c379a00000000000000000000000000000000000000000000000000000000081526004016112c890613335565b60405180910390fd5b50565b600033905090565b816004600083815260200190815260200160002060006101000a81548173ffffffffffffffffffffffffffffffffffffffff021916908373ffffffffffffffffffffffffffffffffffffffff160217905550808273ffffffffffffffffffffffffffffffffffffffff1661134f83610a42565b73ffffffffffffffffffffffffffffffffffffffff167f8c5be1e5ebec7d5bd14f71427d1e84f3dd0314c0f7b2291e5b200ac8c7c3b92560405160405180910390a45050565b61139d6112d4565b73ffffffffffffffffffffffffffffffffffffffff166113bb610c28565b73ffffffffffffffffffffffffffffffffffffffff1614611411576040517f08c379a0000000000000000000000000000000000000000000000000000000008152600401611408906136fb565b60405180910390fd5b565b6001816000016000828254019250508190555050565b600081600001549050919050565b600073ffffffffffffffffffffffffffffffffffffffff168273ffffffffffffffffffffffffffffffffffffffff16036114a6576040517f08c379a000000000000000000000000000000000000000000000000000000000815260040161149d90613767565b60405180910390fd5b6114af81611dfc565b156114ef576040517f08c379a00000000000000000000000000000000000000000000000000000000081526004016114e6906137d3565b60405180910390fd5b6114fd600083836001611e3d565b61150681611dfc565b15611546576040517f08c379a000000000000000000000000000000000000000000000000000000000815260040161153d906137d3565b60405180910390fd5b6001600360008473ffffffffffffffffffffffffffffffffffffffff1673ffffffffffffffffffffffffffffffffffffffff16815260200190815260200160002060008282540192505081905550816002600083815260200190815260200160002060006101000a81548173ffffffffffffffffffffffffffffffffffffffff021916908373ffffffffffffffffffffffffffffffffffffffff160217905550808273ffffffffffffffffffffffffffffffffffffffff16600073ffffffffffffffffffffffffffffffffffffffff167fddf252ad1be2c89b69c2b068fc378daa952ba7f163c4a11628f55a4df523b3ef60405160405180910390a4611650600083836001611f9b565b5050565b60008061166083610a42565b90508073ffffffffffffffffffffffffffffffffffffffff168473ffffffffffffffffffffffffffffffffffffffff1614806116a257506116a18185610efe565b5b806116e057508373ffffffffffffffffffffffffffffffffffffffff166116c88461069f565b73ffffffffffffffffffffffffffffffffffffffff16145b91505092915050565b8273ffffffffffffffffffffffffffffffffffffffff1661170982610a42565b73ffffffffffffffffffffffffffffffffffffffff161461175f576040517f08c379a000000000000000000000000000000000000000000000000000000000815260040161175690613865565b60405180910390fd5b600073ffffffffffffffffffffffffffffffffffffffff168273ffffffffffffffffffffffffffffffffffffffff16036117ce576040517f08c379a00000000000000000000000000000000000000000000000000000000081526004016117c5906138f7565b60405180910390fd5b6117db8383836001611e3d565b8273ffffffffffffffffffffffffffffffffffffffff166117fb82610a42565b73ffffffffffffffffffffffffffffffffffffffff1614611851576040517f08c379a000000000000000000000000000000000000000000000000000000000815260040161184890613865565b60405180910390fd5b6004600082815260200190815260200160002060006101000a81549073ffffffffffffffffffffffffffffffffffffffff02191690556001600360008573ffffffffffffffffffffffffffffffffffffffff1673ffffffffffffffffffffffffffffffffffffffff168152602001908152602001600020600082825403925050819055506001600360008473ffffffffffffffffffffffffffffffffffffffff1673ffffffffffffffffffffffffffffffffffffffff16815260200190815260200160002060008282540192505081905550816002600083815260200190815260200160002060006101000a81548173ffffffffffffffffffffffffffffffffffffffff021916908373ffffffffffffffffffffffffffffffffffffffff160217905550808273ffffffffffffffffffffffffffffffffffffffff168473ffffffffffffffffffffffffffffffffffffffff167fddf252ad1be2c89b69c2b068fc378daa952ba7f163c4a11628f55a4df523b3ef60405160405180910390a46119dd8383836001611f9b565b505050565b60006002600083815260200190815260200160002060009054906101000a900473ffffffffffffffffffffffffffffffffffffffff169050919050565b6000600a60009054906101000a900473ffffffffffffffffffffffffffffffffffffffff16905081600a60006101000a81548173ffffffffffffffffffffffffffffffffffffffff021916908373ffffffffffffffffffffffffffffffffffffffff1602179055508173ffffffffffffffffffffffffffffffffffffffff168173ffffffffffffffffffffffffffffffffffffffff167f8be0079c531659141344cd1fd0a4f28419497f9722a3daafe3b4186f6b6457e060405160405180910390a35050565b611af08484846116e9565b611afc84848484611fa1565b611b3b576040517f08c379a0000000000000000000000000000000000000000000000000000000008152600401611b3290613989565b60405180910390fd5b50505050565b8173ffffffffffffffffffffffffffffffffffffffff168373ffffffffffffffffffffffffffffffffffffffff1603611baf576040517f08c379a0000000000000000000000000000000000000000000000000000000008152600401611ba6906139f5565b60405180910390fd5b80600560008573ffffffffffffffffffffffffffffffffffffffff1673ffffffffffffffffffffffffffffffffffffffff16815260200190815260200160002060008473ffffffffffffffffffffffffffffffffffffffff1673ffffffffffffffffffffffffffffffffffffffff16815260200190815260200160002060006101000a81548160ff0219169083151502179055508173ffffffffffffffffffffffffffffffffffffffff168373ffffffffffffffffffffffffffffffffffffffff167f17307eab39ab6107e8899845ad3d59bd9653f200f220920489ca2b5937696c3183604051611ca0919061265e565b60405180910390a3505050565b606060405180602001604052806000815250905090565b606060006001611cd384612128565b01905060008167ffffffffffffffff811115611cf257611cf161288a565b5b6040519080825280601f01601f191660200182016040528015611d245781602001600182028036833780820191505090505b509050600082602001820190505b600115611d87578080600190039150507f3031323334353637383961626364656600000000000000000000000000000000600a86061a8153600a8581611d7b57611d7a613a15565b5b04945060008503611d32575b819350505050919050565b60007f01ffc9a7000000000000000000000000000000000000000000000000000000007bffffffffffffffffffffffffffffffffffffffffffffffffffffffff1916827bffffffffffffffffffffffffffffffffffffffffffffffffffffffff1916149050919050565b60008073ffffffffffffffffffffffffffffffffffffffff16611e1e836119e2565b73ffffffffffffffffffffffffffffffffffffffff1614159050919050565b611e498484848461227b565b6001811115611e8d576040517f08c379a0000000000000000000000000000000000000000000000000000000008152600401611e8490613ab6565b60405180910390fd5b6000829050600073ffffffffffffffffffffffffffffffffffffffff168573ffffffffffffffffffffffffffffffffffffffff1603611ed457611ecf81612281565b611f13565b8373ffffffffffffffffffffffffffffffffffffffff168573ffffffffffffffffffffffffffffffffffffffff1614611f1257611f1185826122ca565b5b5b600073ffffffffffffffffffffffffffffffffffffffff168473ffffffffffffffffffffffffffffffffffffffff1603611f5557611f5081612437565b611f94565b8473ffffffffffffffffffffffffffffffffffffffff168473ffffffffffffffffffffffffffffffffffffffff1614611f9357611f928482612508565b5b5b5050505050565b50505050565b6000611fc28473ffffffffffffffffffffffffffffffffffffffff16612587565b1561211b578373ffffffffffffffffffffffffffffffffffffffff1663150b7a02611feb6112d4565b8786866040518563ffffffff1660e01b815260040161200d9493929190613b2b565b6020604051808303816000875af192505050801561204957506040513d601f19601f820116820180604052508101906120469190613b8c565b60015b6120cb573d8060008114612079576040519150601f19603f3d011682016040523d82523d6000602084013e61207e565b606091505b5060008151036120c3576040517f08c379a00000000000000000000000000000000000000000000000000000000081526004016120ba90613989565b60405180910390fd5b805181602001fd5b63150b7a0260e01b7bffffffffffffffffffffffffffffffffffffffffffffffffffffffff1916817bffffffffffffffffffffffffffffffffffffffffffffffffffffffff191614915050612120565b600190505b949350505050565b600080600090507a184f03e93ff9f4daa797ed6e38ed64bf6a1f0100000000000000008310612186577a184f03e93ff9f4daa797ed6e38ed64bf6a1f010000000000000000838161217c5761217b613a15565b5b0492506040810190505b6d04ee2d6d415b85acef810000000083106121c3576d04ee2d6d415b85acef810000000083816121b9576121b8613a15565b5b0492506020810190505b662386f26fc1000083106121f257662386f26fc1000083816121e8576121e7613a15565b5b0492506010810190505b6305f5e100831061221b576305f5e100838161221157612210613a15565b5b0492506008810190505b612710831061224057612710838161223657612235613a15565b5b0492506004810190505b60648310612263576064838161225957612258613a15565b5b0492506002810190505b600a8310612272576001810190505b80915050919050565b50505050565b6008805490506009600083815260200190815260200160002081905550600881908060018154018082558091505060019003906000526020600020016000909190919091505550565b600060016122d784610ac8565b6122e19190613be8565b90506000600760008481526020019081526020016000205490508181146123c6576000600660008673ffffffffffffffffffffffffffffffffffffffff1673ffffffffffffffffffffffffffffffffffffffff168152602001908152602001600020600084815260200190815260200160002054905080600660008773ffffffffffffffffffffffffffffffffffffffff1673ffffffffffffffffffffffffffffffffffffffff168152602001908152602001600020600084815260200190815260200160002081905550816007600083815260200190815260200160002081905550505b6007600084815260200190815260200160002060009055600660008573ffffffffffffffffffffffffffffffffffffffff1673ffffffffffffffffffffffffffffffffffffffff16815260200190815260200160002060008381526020019081526020016000206000905550505050565b6000600160088054905061244b9190613be8565b905060006009600084815260200190815260200160002054905060006008838154811061247b5761247a6132ba565b5b90600052602060002001549050806008838154811061249d5761249c6132ba565b5b9060005260206000200181905550816009600083815260200190815260200160002081905550600960008581526020019081526020016000206000905560088054806124ec576124eb613c1c565b5b6001900381819060005260206000200160009055905550505050565b600061251383610ac8565b905081600660008573ffffffffffffffffffffffffffffffffffffffff1673ffffffffffffffffffffffffffffffffffffffff168152602001908152602001600020600083815260200190815260200160002081905550806007600084815260200190815260200160002081905550505050565b6000808273ffffffffffffffffffffffffffffffffffffffff163b119050919050565b6000604051905090565b600080fd5b600080fd5b60007fffffffff0000000000000000000000000000000000000000000000000000000082169050919050565b6125f3816125be565b81146125fe57600080fd5b50565b600081359050612610816125ea565b92915050565b60006020828403121561262c5761262b6125b4565b5b600061263a84828501612601565b91505092915050565b60008115159050919050565b61265881612643565b82525050565b6000602082019050612673600083018461264f565b92915050565b600081519050919050565b600082825260208201905092915050565b60005b838110156126b3578082015181840152602081019050612698565b60008484015250505050565b6000601f19601f8301169050919050565b60006126db82612679565b6126e58185612684565b93506126f5818560208601612695565b6126fe816126bf565b840191505092915050565b6000602082019050818103600083015261272381846126d0565b905092915050565b6000819050919050565b61273e8161272b565b811461274957600080fd5b50565b60008135905061275b81612735565b92915050565b600060208284031215612777576127766125b4565b5b60006127858482850161274c565b91505092915050565b600073ffffffffffffffffffffffffffffffffffffffff82169050919050565b60006127b98261278e565b9050919050565b6127c9816127ae565b82525050565b60006020820190506127e460008301846127c0565b92915050565b6127f3816127ae565b81146127fe57600080fd5b50565b600081359050612810816127ea565b92915050565b6000806040838503121561282d5761282c6125b4565b5b600061283b85828601612801565b925050602061284c8582860161274c565b9150509250929050565b61285f8161272b565b82525050565b600060208201905061287a6000830184612856565b92915050565b600080fd5b600080fd5b7f4e487b7100000000000000000000000000000000000000000000000000000000600052604160045260246000fd5b6128c2826126bf565b810181811067ffffffffffffffff821117156128e1576128e061288a565b5b80604052505050565b60006128f46125aa565b905061290082826128b9565b919050565b600067ffffffffffffffff8211156129205761291f61288a565b5b612929826126bf565b9050602081019050919050565b82818337600083830152505050565b600061295861295384612905565b6128ea565b90508281526020810184848401111561297457612973612885565b5b61297f848285612936565b509392505050565b600082601f83011261299c5761299b612880565b5b81356129ac848260208601612945565b91505092915050565b600080604083850312156129cc576129cb6125b4565b5b600083013567ffffffffffffffff8111156129ea576129e96125b9565b5b6129f685828601612987565b925050602083013567ffffffffffffffff811115612a1757612a166125b9565b5b612a2385828601612987565b9150509250929050565b600080600060608486031215612a4657612a456125b4565b5b6000612a5486828701612801565b9350506020612a6586828701612801565b9250506040612a768682870161274c565b9150509250925092565b600060208284031215612a9657612a956125b4565b5b6000612aa484828501612801565b91505092915050565b60008060408385031215612ac457612ac36125b4565b5b6000612ad28582860161274c565b9250506020612ae385828601612801565b9150509250929050565b6000606082019050612b026000830186612856565b8181036020830152612b1481856126d0565b90508181036040830152612b2881846126d0565b9050949350505050565b612b3b81612643565b8114612b4657600080fd5b50565b600081359050612b5881612b32565b92915050565b60008060408385031215612b7557612b746125b4565b5b6000612b8385828601612801565b9250506020612b9485828601612b49565b9150509250929050565b600067ffffffffffffffff821115612bb957612bb861288a565b5b612bc2826126bf565b9050602081019050919050565b6000612be2612bdd84612b9e565b6128ea565b905082815260208101848484011115612bfe57612bfd612885565b5b612c09848285612936565b509392505050565b600082601f830112612c2657612c25612880565b5b8135612c36848260208601612bcf565b91505092915050565b60008060008060808587031215612c5957612c586125b4565b5b6000612c6787828801612801565b9450506020612c7887828801612801565b9350506040612c898782880161274c565b925050606085013567ffffffffffffffff811115612caa57612ca96125b9565b5b612cb687828801612c11565b91505092959194509250565b60008060408385031215612cd957612cd86125b4565b5b6000612ce785828601612801565b9250506020612cf885828601612801565b9150509250929050565b7f4e487b7100000000000000000000000000000000000000000000000000000000600052602260045260246000fd5b60006002820490506001821680612d4957607f821691505b602082108103612d5c57612d5b612d02565b5b50919050565b7f4552433732313a20617070726f76616c20746f2063757272656e74206f776e6560008201527f7200000000000000000000000000000000000000000000000000000000000000602082015250565b6000612dbe602183612684565b9150612dc982612d62565b604082019050919050565b60006020820190508181036000830152612ded81612db1565b9050919050565b7f4552433732313a20617070726f76652063616c6c6572206973206e6f7420746f60008201527f6b656e206f776e6572206f7220617070726f76656420666f7220616c6c000000602082015250565b6000612e50603d83612684565b9150612e5b82612df4565b604082019050919050565b60006020820190508181036000830152612e7f81612e43565b9050919050565b60008190508160005260206000209050919050565b60006020601f8301049050919050565b600082821b905092915050565b600060088302612ee87fffffffffffffffffffffffffffffffffffffffffffffffffffffffffffffffff82612eab565b612ef28683612eab565b95508019841693508086168417925050509392505050565b6000819050919050565b6000612f2f612f2a612f258461272b565b612f0a565b61272b565b9050919050565b6000819050919050565b612f4983612f14565b612f5d612f5582612f36565b848454612eb8565b825550505050565b600090565b612f72612f65565b612f7d818484612f40565b505050565b5b81811015612fa157612f96600082612f6a565b600181019050612f83565b5050565b601f821115612fe657612fb781612e86565b612fc084612e9b565b81016020851015612fcf578190505b612fe3612fdb85612e9b565b830182612f82565b50505b505050565b600082821c905092915050565b600061300960001984600802612feb565b1980831691505092915050565b60006130228383612ff8565b9150826002028217905092915050565b61303b82612679565b67ffffffffffffffff8111156130545761305361288a565b5b61305e8254612d31565b613069828285612fa5565b600060209050601f83116001811461309c576000841561308a578287015190505b6130948582613016565b8655506130fc565b601f1984166130aa86612e86565b60005b828110156130d2578489015182556001820191506020850194506020810190506130ad565b868310156130ef57848901516130eb601f891682612ff8565b8355505b6001600288020188555050505b505050505050565b7f4552433732313a2063616c6c6572206973206e6f7420746f6b656e206f776e6560008201527f72206f7220617070726f76656400000000000000000000000000000000000000602082015250565b6000613160602d83612684565b915061316b82613104565b604082019050919050565b6000602082019050818103600083015261318f81613153565b9050919050565b7f455243373231456e756d657261626c653a206f776e657220696e646578206f7560008201527f74206f6620626f756e6473000000000000000000000000000000000000000000602082015250565b60006131f2602b83612684565b91506131fd82613196565b604082019050919050565b60006020820190508181036000830152613221816131e5565b9050919050565b7f455243373231456e756d657261626c653a20676c6f62616c20696e646578206f60008201527f7574206f6620626f756e64730000000000000000000000000000000000000000602082015250565b6000613284602c83612684565b915061328f82613228565b604082019050919050565b600060208201905081810360008301526132b381613277565b9050919050565b7f4e487b7100000000000000000000000000000000000000000000000000000000600052603260045260246000fd5b7f4552433732313a20696e76616c696420746f6b656e2049440000000000000000600082015250565b600061331f601883612684565b915061332a826132e9565b602082019050919050565b6000602082019050818103600083015261334e81613312565b9050919050565b7f4552433732313a2061646472657373207a65726f206973206e6f74206120766160008201527f6c6964206f776e65720000000000000000000000000000000000000000000000602082015250565b60006133b1602983612684565b91506133bc82613355565b604082019050919050565b600060208201905081810360008301526133e0816133a4565b9050919050565b7f4e6f7420746865206f776e6572206f662074686520636172642e000000000000600082015250565b600061341d601a83612684565b9150613428826133e7565b602082019050919050565b6000602082019050818103600083015261344c81613410565b9050919050565b600081905092915050565b600061346982612679565b6134738185613453565b9350613483818560208601612695565b80840191505092915050565b600061349b828561345e565b91506134a7828461345e565b91508190509392505050565b7f4361726420646f6573206e6f742065786973742e000000000000000000000000600082015250565b60006134e9601483612684565b91506134f4826134b3565b602082019050919050565b60006020820190508181036000830152613518816134dc565b9050919050565b7f43617264206973206e6f7420617661696c61626c6520666f722070757263686160008201527f73652e0000000000000000000000000000000000000000000000000000000000602082015250565b600061357b602383612684565b91506135868261351f565b604082019050919050565b600060208201905081810360008301526135aa8161356e565b9050919050565b7f496e73756666696369656e74204554482073656e742e00000000000000000000600082015250565b60006135e7601683612684565b91506135f2826135b1565b602082019050919050565b60006020820190508181036000830152613616816135da565b9050919050565b7f4f776e61626c653a206e6577206f776e657220697320746865207a65726f206160008201527f6464726573730000000000000000000000000000000000000000000000000000602082015250565b6000613679602683612684565b91506136848261361d565b604082019050919050565b600060208201905081810360008301526136a88161366c565b9050919050565b7f4f776e61626c653a2063616c6c6572206973206e6f7420746865206f776e6572600082015250565b60006136e5602083612684565b91506136f0826136af565b602082019050919050565b60006020820190508181036000830152613714816136d8565b9050919050565b7f4552433732313a206d696e7420746f20746865207a65726f2061646472657373600082015250565b6000613751602083612684565b915061375c8261371b565b602082019050919050565b6000602082019050818103600083015261378081613744565b9050919050565b7f4552433732313a20746f6b656e20616c7265616479206d696e74656400000000600082015250565b60006137bd601c83612684565b91506137c882613787565b602082019050919050565b600060208201905081810360008301526137ec816137b0565b9050919050565b7f4552433732313a207472616e736665722066726f6d20696e636f72726563742060008201527f6f776e6572000000000000000000000000000000000000000000000000000000602082015250565b600061384f602583612684565b915061385a826137f3565b604082019050919050565b6000602082019050818103600083015261387e81613842565b9050919050565b7f4552433732313a207472616e7366657220746f20746865207a65726f2061646460008201527f7265737300000000000000000000000000000000000000000000000000000000602082015250565b60006138e1602483612684565b91506138ec82613885565b604082019050919050565b60006020820190508181036000830152613910816138d4565b9050919050565b7f4552433732313a207472616e7366657220746f206e6f6e20455243373231526560008201527f63656976657220696d706c656d656e7465720000000000000000000000000000602082015250565b6000613973603283612684565b915061397e82613917565b604082019050919050565b600060208201905081810360008301526139a281613966565b9050919050565b7f4552433732313a20617070726f766520746f2063616c6c657200000000000000600082015250565b60006139df601983612684565b91506139ea826139a9565b602082019050919050565b60006020820190508181036000830152613a0e816139d2565b9050919050565b7f4e487b7100000000000000000000000000000000000000000000000000000000600052601260045260246000fd5b7f455243373231456e756d657261626c653a20636f6e736563757469766520747260008201527f616e7366657273206e6f7420737570706f727465640000000000000000000000602082015250565b6000613aa0603583612684565b9150613aab82613a44565b604082019050919050565b60006020820190508181036000830152613acf81613a93565b9050919050565b600081519050919050565b600082825260208201905092915050565b6000613afd82613ad6565b613b078185613ae1565b9350613b17818560208601612695565b613b20816126bf565b840191505092915050565b6000608082019050613b4060008301876127c0565b613b4d60208301866127c0565b613b5a6040830185612856565b8181036060830152613b6c8184613af2565b905095945050505050565b600081519050613b86816125ea565b92915050565b600060208284031215613ba257613ba16125b4565b5b6000613bb084828501613b77565b91505092915050565b7f4e487b7100000000000000000000000000000000000000000000000000000000600052601160045260246000fd5b6000613bf38261272b565b9150613bfe8361272b565b9250828203905081811115613c1657613c15613bb9565b5b92915050565b7f4e487b7100000000000000000000000000000000000000000000000000000000600052603160045260246000fdfea2646970667358221220b24f97d7969fe855f62766788d0305016ca01862e16e00c8f99c0ca2c472b08a64736f6c63430008130033",
  "immutableReferences": {},
  "source": "// SPDX-License-Identifier: MIT\npragma solidity ^0.8.19;\n\nimport \"@openzeppelin/contracts/token/ERC721/extensions/ERC721Enumerable.sol\";\nimport \"@openzeppelin/contracts/utils/Counters.sol\";\nimport \"@openzeppelin/contracts/access/Ownable.sol\";\n\ncontract UniqueCards is ERC721Enumerable, Ownable {\n    using Counters for Counters.Counter;\n    Counters.Counter private _tokenIds;\n\n    struct Card {\n        uint256 id; // Unique identifier\n        string name; // Card name\n        string description; // Short description of the card\n        // Add other attributes as needed\n    }\n\n    mapping(uint256 => Card) public cards; // Mapping from token ID to card details\n\n    constructor() ERC721(\"UniqueCards\", \"UC\") Ownable() {}\n\n    function createUniqueCard(\n        string memory name,\n        string memory description\n    ) external onlyOwner {\n        _tokenIds.increment();\n        uint256 newCardId = _tokenIds.current();\n\n        Card memory newCard = Card({\n            id: newCardId,\n            name: name,\n            description: description\n        });\n\n        cards[newCardId] = newCard;\n        _mint(owner(), newCardId); // The card is initially owned by the contract owner/admin\n    }\n\n    function purchaseUniqueCard(uint256 cardId) external payable {\n        // Ensure the card exists\n        require(cards[cardId].id == cardId, \"Card does not exist.\");\n\n        // Check if the card is owned by the contract owner/admin\n        require(\n            ownerOf(cardId) == owner(),\n            \"Card is not available for purchase.\"\n        );\n\n        // Implement the logic for the purchase amount (e.g., fixed amount, auction, etc.)\n        require(msg.value >= 0.01 ether, \"Insufficient ETH sent.\");\n\n        // Transfer ownership of the card to the buyer\n        _safeTransfer(owner(), msg.sender, cardId, \"\");\n\n        // Transfer the ETH to the contract owner or another wallet\n        payable(owner()).transfer(msg.value);\n    }\n\n    function tradeCard(uint256 cardId, address recipient) external {\n        // Ensure the caller is the current owner of the card\n        require(ownerOf(cardId) == msg.sender, \"Not the owner of the card.\");\n\n        // Safely transfer the card to the recipient\n        _safeTransfer(msg.sender, recipient, cardId, \"\");\n    }\n}\n",
  "sourcePath": "/Users/ibrahimallahbuksh/BlockchainProject/contracts/ERC721SmartContract.sol",
  "compiler": {
    "name": "solc",
    "version": "0.8.19+commit.7dd6d404.Emscripten.clang"
  },
  "schemaVersion": "3.4.16",
  "updatedAt": "2023-11-18T01:39:35.672Z",
  "networkType": "ethereum",
  "devdoc": {
    "events": {
      "Approval(address,address,uint256)": {
        "details": "Emitted when `owner` enables `approved` to manage the `tokenId` token."
      },
      "ApprovalForAll(address,address,bool)": {
        "details": "Emitted when `owner` enables or disables (`approved`) `operator` to manage all of its assets."
      },
      "Transfer(address,address,uint256)": {
        "details": "Emitted when `tokenId` token is transferred from `from` to `to`."
      }
    },
    "kind": "dev",
    "methods": {
      "approve(address,uint256)": {
        "details": "See {IERC721-approve}."
      },
      "balanceOf(address)": {
        "details": "See {IERC721-balanceOf}."
      },
      "getApproved(uint256)": {
        "details": "See {IERC721-getApproved}."
      },
      "isApprovedForAll(address,address)": {
        "details": "See {IERC721-isApprovedForAll}."
      },
      "name()": {
        "details": "See {IERC721Metadata-name}."
      },
      "owner()": {
        "details": "Returns the address of the current owner."
      },
      "ownerOf(uint256)": {
        "details": "See {IERC721-ownerOf}."
      },
      "renounceOwnership()": {
        "details": "Leaves the contract without owner. It will not be possible to call `onlyOwner` functions. Can only be called by the current owner. NOTE: Renouncing ownership will leave the contract without an owner, thereby disabling any functionality that is only available to the owner."
      },
      "safeTransferFrom(address,address,uint256)": {
        "details": "See {IERC721-safeTransferFrom}."
      },
      "safeTransferFrom(address,address,uint256,bytes)": {
        "details": "See {IERC721-safeTransferFrom}."
      },
      "setApprovalForAll(address,bool)": {
        "details": "See {IERC721-setApprovalForAll}."
      },
      "supportsInterface(bytes4)": {
        "details": "See {IERC165-supportsInterface}."
      },
      "symbol()": {
        "details": "See {IERC721Metadata-symbol}."
      },
      "tokenByIndex(uint256)": {
        "details": "See {IERC721Enumerable-tokenByIndex}."
      },
      "tokenOfOwnerByIndex(address,uint256)": {
        "details": "See {IERC721Enumerable-tokenOfOwnerByIndex}."
      },
      "tokenURI(uint256)": {
        "details": "See {IERC721Metadata-tokenURI}."
      },
      "totalSupply()": {
        "details": "See {IERC721Enumerable-totalSupply}."
      },
      "transferFrom(address,address,uint256)": {
        "details": "See {IERC721-transferFrom}."
      },
      "transferOwnership(address)": {
        "details": "Transfers ownership of the contract to a new account (`newOwner`). Can only be called by the current owner."
      }
    },
    "version": 1
  },
  "userdoc": {
    "kind": "user",
    "methods": {},
    "version": 1
  }
}