{
  "contractName": "UniqueCards",
  "abi": [
    {
      "inputs": [],
      "stateMutability": "nonpayable",
      "type": "constructor"
    },
    {
      "anonymous": false,
      "inputs": [
        {
          "indexed": true,
          "internalType": "address",
          "name": "owner",
          "type": "address"
        },
        {
          "indexed": true,
          "internalType": "address",
          "name": "approved",
          "type": "address"
        },
        {
          "indexed": true,
          "internalType": "uint256",
          "name": "tokenId",
          "type": "uint256"
        }
      ],
      "name": "Approval",
      "type": "event"
    },
    {
      "anonymous": false,
      "inputs": [
        {
          "indexed": true,
          "internalType": "address",
          "name": "owner",
          "type": "address"
        },
        {
          "indexed": true,
          "internalType": "address",
          "name": "operator",
          "type": "address"
        },
        {
          "indexed": false,
          "internalType": "bool",
          "name": "approved",
          "type": "bool"
        }
      ],
      "name": "ApprovalForAll",
      "type": "event"
    },
    {
      "anonymous": false,
      "inputs": [
        {
          "indexed": true,
          "internalType": "uint256",
          "name": "cardId",
          "type": "uint256"
        },
        {
          "indexed": false,
          "internalType": "uint256",
          "name": "percentIncrease",
          "type": "uint256"
        }
      ],
      "name": "CardAttributeIncrease",
      "type": "event"
    },
    {
      "anonymous": false,
      "inputs": [
        {
          "indexed": true,
          "internalType": "uint256",
          "name": "cardId",
          "type": "uint256"
        }
      ],
      "name": "CardBurned",
      "type": "event"
    },
    {
      "anonymous": false,
      "inputs": [
        {
          "indexed": true,
          "internalType": "uint256",
          "name": "cardId",
          "type": "uint256"
        },
        {
          "indexed": false,
          "internalType": "string",
          "name": "name",
          "type": "string"
        },
        {
          "indexed": false,
          "internalType": "uint256",
          "name": "attack",
          "type": "uint256"
        },
        {
          "indexed": false,
          "internalType": "uint256",
          "name": "defense",
          "type": "uint256"
        }
      ],
      "name": "CardCreation",
      "type": "event"
    },
    {
      "anonymous": false,
      "inputs": [
        {
          "indexed": true,
          "internalType": "uint256",
          "name": "cardId",
          "type": "uint256"
        },
        {
          "indexed": false,
          "internalType": "uint256",
          "name": "newDefense",
          "type": "uint256"
        }
      ],
      "name": "CardDefenseUpdate",
      "type": "event"
    },
    {
      "anonymous": false,
      "inputs": [
        {
          "indexed": true,
          "internalType": "address",
          "name": "buyer",
          "type": "address"
        },
        {
          "indexed": true,
          "internalType": "uint256",
          "name": "cardId",
          "type": "uint256"
        },
        {
          "indexed": false,
          "internalType": "uint256",
          "name": "amount",
          "type": "uint256"
        }
      ],
      "name": "CardPurchase",
      "type": "event"
    },
    {
      "anonymous": false,
      "inputs": [
        {
          "indexed": true,
          "internalType": "uint256",
          "name": "cardId",
          "type": "uint256"
        },
        {
          "indexed": true,
          "internalType": "address",
          "name": "from",
          "type": "address"
        },
        {
          "indexed": true,
          "internalType": "address",
          "name": "to",
          "type": "address"
        }
      ],
      "name": "CardTrade",
      "type": "event"
    },
    {
      "anonymous": false,
      "inputs": [
        {
          "indexed": true,
          "internalType": "address",
          "name": "previousOwner",
          "type": "address"
        },
        {
          "indexed": true,
          "internalType": "address",
          "name": "newOwner",
          "type": "address"
        }
      ],
      "name": "OwnershipTransferred",
      "type": "event"
    },
    {
      "anonymous": false,
      "inputs": [
        {
          "indexed": true,
          "internalType": "address",
          "name": "from",
          "type": "address"
        },
        {
          "indexed": true,
          "internalType": "address",
          "name": "to",
          "type": "address"
        },
        {
          "indexed": true,
          "internalType": "uint256",
          "name": "tokenId",
          "type": "uint256"
        }
      ],
      "name": "Transfer",
      "type": "event"
    },
    {
      "inputs": [
        {
          "internalType": "address",
          "name": "to",
          "type": "address"
        },
        {
          "internalType": "uint256",
          "name": "tokenId",
          "type": "uint256"
        }
      ],
      "name": "approve",
      "outputs": [],
      "stateMutability": "nonpayable",
      "type": "function"
    },
    {
      "inputs": [
        {
          "internalType": "address",
          "name": "owner",
          "type": "address"
        }
      ],
      "name": "balanceOf",
      "outputs": [
        {
          "internalType": "uint256",
          "name": "",
          "type": "uint256"
        }
      ],
      "stateMutability": "view",
      "type": "function",
      "constant": true
    },
    {
      "inputs": [
        {
          "internalType": "uint256",
          "name": "",
          "type": "uint256"
        }
      ],
      "name": "cards",
      "outputs": [
        {
          "internalType": "uint256",
          "name": "id",
          "type": "uint256"
        },
        {
          "internalType": "string",
          "name": "name",
          "type": "string"
        },
        {
          "internalType": "string",
          "name": "description",
          "type": "string"
        },
        {
          "internalType": "uint256",
          "name": "attack",
          "type": "uint256"
        },
        {
          "internalType": "uint256",
          "name": "defense",
          "type": "uint256"
        }
      ],
      "stateMutability": "view",
      "type": "function",
      "constant": true
    },
    {
      "inputs": [
        {
          "internalType": "uint256",
          "name": "tokenId",
          "type": "uint256"
        }
      ],
      "name": "getApproved",
      "outputs": [
        {
          "internalType": "address",
          "name": "",
          "type": "address"
        }
      ],
      "stateMutability": "view",
      "type": "function",
      "constant": true
    },
    {
      "inputs": [
        {
          "internalType": "address",
          "name": "owner",
          "type": "address"
        },
        {
          "internalType": "address",
          "name": "operator",
          "type": "address"
        }
      ],
      "name": "isApprovedForAll",
      "outputs": [
        {
          "internalType": "bool",
          "name": "",
          "type": "bool"
        }
      ],
      "stateMutability": "view",
      "type": "function",
      "constant": true
    },
    {
      "inputs": [],
      "name": "name",
      "outputs": [
        {
          "internalType": "string",
          "name": "",
          "type": "string"
        }
      ],
      "stateMutability": "view",
      "type": "function",
      "constant": true
    },
    {
      "inputs": [],
      "name": "owner",
      "outputs": [
        {
          "internalType": "address",
          "name": "",
          "type": "address"
        }
      ],
      "stateMutability": "view",
      "type": "function",
      "constant": true
    },
    {
      "inputs": [
        {
          "internalType": "uint256",
          "name": "tokenId",
          "type": "uint256"
        }
      ],
      "name": "ownerOf",
      "outputs": [
        {
          "internalType": "address",
          "name": "",
          "type": "address"
        }
      ],
      "stateMutability": "view",
      "type": "function",
      "constant": true
    },
    {
      "inputs": [],
      "name": "renounceOwnership",
      "outputs": [],
      "stateMutability": "nonpayable",
      "type": "function"
    },
    {
      "inputs": [
        {
          "internalType": "address",
          "name": "from",
          "type": "address"
        },
        {
          "internalType": "address",
          "name": "to",
          "type": "address"
        },
        {
          "internalType": "uint256",
          "name": "tokenId",
          "type": "uint256"
        }
      ],
      "name": "safeTransferFrom",
      "outputs": [],
      "stateMutability": "nonpayable",
      "type": "function"
    },
    {
      "inputs": [
        {
          "internalType": "address",
          "name": "from",
          "type": "address"
        },
        {
          "internalType": "address",
          "name": "to",
          "type": "address"
        },
        {
          "internalType": "uint256",
          "name": "tokenId",
          "type": "uint256"
        },
        {
          "internalType": "bytes",
          "name": "data",
          "type": "bytes"
        }
      ],
      "name": "safeTransferFrom",
      "outputs": [],
      "stateMutability": "nonpayable",
      "type": "function"
    },
    {
      "inputs": [
        {
          "internalType": "address",
          "name": "operator",
          "type": "address"
        },
        {
          "internalType": "bool",
          "name": "approved",
          "type": "bool"
        }
      ],
      "name": "setApprovalForAll",
      "outputs": [],
      "stateMutability": "nonpayable",
      "type": "function"
    },
    {
      "inputs": [
        {
          "internalType": "bytes4",
          "name": "interfaceId",
          "type": "bytes4"
        }
      ],
      "name": "supportsInterface",
      "outputs": [
        {
          "internalType": "bool",
          "name": "",
          "type": "bool"
        }
      ],
      "stateMutability": "view",
      "type": "function",
      "constant": true
    },
    {
      "inputs": [],
      "name": "symbol",
      "outputs": [
        {
          "internalType": "string",
          "name": "",
          "type": "string"
        }
      ],
      "stateMutability": "view",
      "type": "function",
      "constant": true
    },
    {
      "inputs": [
        {
          "internalType": "uint256",
          "name": "index",
          "type": "uint256"
        }
      ],
      "name": "tokenByIndex",
      "outputs": [
        {
          "internalType": "uint256",
          "name": "",
          "type": "uint256"
        }
      ],
      "stateMutability": "view",
      "type": "function",
      "constant": true
    },
    {
      "inputs": [
        {
          "internalType": "address",
          "name": "owner",
          "type": "address"
        },
        {
          "internalType": "uint256",
          "name": "index",
          "type": "uint256"
        }
      ],
      "name": "tokenOfOwnerByIndex",
      "outputs": [
        {
          "internalType": "uint256",
          "name": "",
          "type": "uint256"
        }
      ],
      "stateMutability": "view",
      "type": "function",
      "constant": true
    },
    {
      "inputs": [
        {
          "internalType": "uint256",
          "name": "tokenId",
          "type": "uint256"
        }
      ],
      "name": "tokenURI",
      "outputs": [
        {
          "internalType": "string",
          "name": "",
          "type": "string"
        }
      ],
      "stateMutability": "view",
      "type": "function",
      "constant": true
    },
    {
      "inputs": [],
      "name": "totalSupply",
      "outputs": [
        {
          "internalType": "uint256",
          "name": "",
          "type": "uint256"
        }
      ],
      "stateMutability": "view",
      "type": "function",
      "constant": true
    },
    {
      "inputs": [
        {
          "internalType": "address",
          "name": "from",
          "type": "address"
        },
        {
          "internalType": "address",
          "name": "to",
          "type": "address"
        },
        {
          "internalType": "uint256",
          "name": "tokenId",
          "type": "uint256"
        }
      ],
      "name": "transferFrom",
      "outputs": [],
      "stateMutability": "nonpayable",
      "type": "function"
    },
    {
      "inputs": [
        {
          "internalType": "address",
          "name": "newOwner",
          "type": "address"
        }
      ],
      "name": "transferOwnership",
      "outputs": [],
      "stateMutability": "nonpayable",
      "type": "function"
    },
    {
      "inputs": [
        {
          "internalType": "string",
          "name": "name",
          "type": "string"
        },
        {
          "internalType": "string",
          "name": "description",
          "type": "string"
        },
        {
          "internalType": "uint256",
          "name": "attack",
          "type": "uint256"
        },
        {
          "internalType": "uint256",
          "name": "defense",
          "type": "uint256"
        }
      ],
      "name": "createUniqueCard",
      "outputs": [
        {
          "internalType": "uint256",
          "name": "",
          "type": "uint256"
        }
      ],
      "stateMutability": "nonpayable",
      "type": "function"
    },
    {
      "inputs": [
        {
          "internalType": "uint256",
          "name": "cardId",
          "type": "uint256"
        },
        {
          "internalType": "uint256",
          "name": "percentIncrease",
          "type": "uint256"
        }
      ],
      "name": "increaseCardAttack",
      "outputs": [],
      "stateMutability": "nonpayable",
      "type": "function"
    },
    {
      "inputs": [
        {
          "internalType": "uint256",
          "name": "cardId",
          "type": "uint256"
        },
        {
          "internalType": "uint256",
          "name": "percentIncrease",
          "type": "uint256"
        }
      ],
      "name": "increaseCardDefense",
      "outputs": [],
      "stateMutability": "nonpayable",
      "type": "function"
    },
    {
      "inputs": [
        {
          "internalType": "uint256",
          "name": "cardId",
          "type": "uint256"
        }
      ],
      "name": "getCardAttributes",
      "outputs": [
        {
          "internalType": "uint256",
          "name": "attack",
          "type": "uint256"
        },
        {
          "internalType": "uint256",
          "name": "defense",
          "type": "uint256"
        }
      ],
      "stateMutability": "view",
      "type": "function",
      "constant": true
    },
    {
      "inputs": [
        {
          "internalType": "uint256",
          "name": "cardId",
          "type": "uint256"
        },
        {
          "internalType": "uint256",
          "name": "newDefense",
          "type": "uint256"
        }
      ],
      "name": "updateCardDefense",
      "outputs": [],
      "stateMutability": "nonpayable",
      "type": "function"
    },
    {
      "inputs": [
        {
          "internalType": "uint256",
          "name": "cardId",
          "type": "uint256"
        }
      ],
      "name": "burnCard",
      "outputs": [],
      "stateMutability": "nonpayable",
      "type": "function"
    }
  ],
  "bytecode": "0x60806040523480156200001157600080fd5b506040518060400160405280600b81526020017f556e6971756543617264730000000000000000000000000000000000000000008152506040518060400160405280600281526020017f554300000000000000000000000000000000000000000000000000000000000081525081600090816200008f919062000412565b508060019081620000a1919062000412565b505050620000c4620000b8620000ca60201b60201c565b620000d260201b60201c565b620004f9565b600033905090565b6000600a60009054906101000a900473ffffffffffffffffffffffffffffffffffffffff16905081600a60006101000a81548173ffffffffffffffffffffffffffffffffffffffff021916908373ffffffffffffffffffffffffffffffffffffffff1602179055508173ffffffffffffffffffffffffffffffffffffffff168173ffffffffffffffffffffffffffffffffffffffff167f8be0079c531659141344cd1fd0a4f28419497f9722a3daafe3b4186f6b6457e060405160405180910390a35050565b600081519050919050565b7f4e487b7100000000000000000000000000000000000000000000000000000000600052604160045260246000fd5b7f4e487b7100000000000000000000000000000000000000000000000000000000600052602260045260246000fd5b600060028204905060018216806200021a57607f821691505b60208210810362000230576200022f620001d2565b5b50919050565b60008190508160005260206000209050919050565b60006020601f8301049050919050565b600082821b905092915050565b6000600883026200029a7fffffffffffffffffffffffffffffffffffffffffffffffffffffffffffffffff826200025b565b620002a686836200025b565b95508019841693508086168417925050509392505050565b6000819050919050565b6000819050919050565b6000620002f3620002ed620002e784620002be565b620002c8565b620002be565b9050919050565b6000819050919050565b6200030f83620002d2565b620003276200031e82620002fa565b84845462000268565b825550505050565b600090565b6200033e6200032f565b6200034b81848462000304565b505050565b5b8181101562000373576200036760008262000334565b60018101905062000351565b5050565b601f821115620003c2576200038c8162000236565b62000397846200024b565b81016020851015620003a7578190505b620003bf620003b6856200024b565b83018262000350565b50505b505050565b600082821c905092915050565b6000620003e760001984600802620003c7565b1980831691505092915050565b6000620004028383620003d4565b9150826002028217905092915050565b6200041d8262000198565b67ffffffffffffffff811115620004395762000438620001a3565b5b62000445825462000201565b6200045282828562000377565b600060209050601f8311600181146200048a576000841562000475578287015190505b620004818582620003f4565b865550620004f1565b601f1984166200049a8662000236565b60005b82811015620004c4578489015182556001820191506020850194506020810190506200049d565b86831015620004e45784890151620004e0601f891682620003d4565b8355505b6001600288020188555050505b505050505050565b61409780620005096000396000f3fe608060405234801561001057600080fd5b506004361061018e5760003560e01c8063713d8958116100de578063b88d4fde11610097578063d5aaa5b011610071578063d5aaa5b014610495578063e985e9c5146104c6578063f2fde38b146104f6578063f7ee23dc146105125761018e565b8063b88d4fde1461042d578063ba7e7d0514610449578063c87b56dd146104655761018e565b8063713d89581461037b578063715018a6146103975780638da5cb5b146103a15780638dc10768146103bf57806395d89b41146103f3578063a22cb465146104115761018e565b80632f745c591161014b57806342842e0e1161012557806342842e0e146102cf5780634f6ccce7146102eb5780636352211e1461031b57806370a082311461034b5761018e565b80632f745c5914610267578063369e87cc146102975780633e81872d146102b35761018e565b806301ffc9a71461019357806306fdde03146101c3578063081812fc146101e1578063095ea7b31461021157806318160ddd1461022d57806323b872dd1461024b575b600080fd5b6101ad60048036038101906101a8919061296d565b610542565b6040516101ba91906129b5565b60405180910390f35b6101cb6105bc565b6040516101d89190612a60565b60405180910390f35b6101fb60048036038101906101f69190612ab8565b61064e565b6040516102089190612b26565b60405180910390f35b61022b60048036038101906102269190612b6d565b610694565b005b6102356107ab565b6040516102429190612bbc565b60405180910390f35b61026560048036038101906102609190612bd7565b6107b8565b005b610281600480360381019061027c9190612b6d565b610818565b60405161028e9190612bbc565b60405180910390f35b6102b160048036038101906102ac9190612c2a565b6108bd565b005b6102cd60048036038101906102c89190612c2a565b6109a5565b005b6102e960048036038101906102e49190612bd7565b610a8c565b005b61030560048036038101906103009190612ab8565b610aac565b6040516103129190612bbc565b60405180910390f35b61033560048036038101906103309190612ab8565b610b1d565b6040516103429190612b26565b60405180910390f35b61036560048036038101906103609190612c6a565b610ba3565b6040516103729190612bbc565b60405180910390f35b61039560048036038101906103909190612c2a565b610c5a565b005b61039f610d42565b005b6103a9610d56565b6040516103b69190612b26565b60405180910390f35b6103d960048036038101906103d49190612ab8565b610d80565b6040516103ea959493929190612c97565b60405180910390f35b6103fb610ec6565b6040516104089190612a60565b60405180910390f35b61042b60048036038101906104269190612d24565b610f58565b005b61044760048036038101906104429190612e99565b610f6e565b005b610463600480360381019061045e9190612ab8565b610fd0565b005b61047f600480360381019061047a9190612ab8565b611110565b60405161048c9190612a60565b60405180910390f35b6104af60048036038101906104aa9190612ab8565b611178565b6040516104bd929190612f1c565b60405180910390f35b6104e060048036038101906104db9190612f45565b6111a6565b6040516104ed91906129b5565b60405180910390f35b610510600480360381019061050b9190612c6a565b61123a565b005b61052c60048036038101906105279190613026565b6112bd565b6040516105399190612bbc565b60405180910390f35b60007f780e9d63000000000000000000000000000000000000000000000000000000007bffffffffffffffffffffffffffffffffffffffffffffffffffffffff1916827bffffffffffffffffffffffffffffffffffffffffffffffffffffffff191614806105b557506105b4826113b0565b5b9050919050565b6060600080546105cb906130f4565b80601f01602080910402602001604051908101604052809291908181526020018280546105f7906130f4565b80156106445780601f1061061957610100808354040283529160200191610644565b820191906000526020600020905b81548152906001019060200180831161062757829003601f168201915b5050505050905090565b600061065982611492565b6004600083815260200190815260200160002060009054906101000a900473ffffffffffffffffffffffffffffffffffffffff169050919050565b600061069f82610b1d565b90508073ffffffffffffffffffffffffffffffffffffffff168373ffffffffffffffffffffffffffffffffffffffff160361070f576040517f08c379a000000000000000000000000000000000000000000000000000000000815260040161070690613197565b60405180910390fd5b8073ffffffffffffffffffffffffffffffffffffffff1661072e6114dd565b73ffffffffffffffffffffffffffffffffffffffff16148061075d575061075c816107576114dd565b6111a6565b5b61079c576040517f08c379a000000000000000000000000000000000000000000000000000000000815260040161079390613229565b60405180910390fd5b6107a683836114e5565b505050565b6000600880549050905090565b6107c96107c36114dd565b8261159e565b610808576040517f08c379a00000000000000000000000000000000000000000000000000000000081526004016107ff906132bb565b60405180910390fd5b610813838383611633565b505050565b600061082383610ba3565b8210610864576040517f08c379a000000000000000000000000000000000000000000000000000000000815260040161085b9061334d565b60405180910390fd5b600660008473ffffffffffffffffffffffffffffffffffffffff1673ffffffffffffffffffffffffffffffffffffffff168152602001908152602001600020600083815260200190815260200160002054905092915050565b81600d60008481526020019081526020016000206000015414610915576040517f08c379a000000000000000000000000000000000000000000000000000000000815260040161090c906133b9565b60405180910390fd5b60648160646109249190613408565b600d600085815260200190815260200160002060030154610945919061343c565b61094f91906134ad565b600d600084815260200190815260200160002060030181905550817f7fcda5232e46c0f760312f7df6d1ee9dfae4d039a28f7e5552edf4053601334d826040516109999190612bbc565b60405180910390a25050565b600b60009054906101000a900473ffffffffffffffffffffffffffffffffffffffff1673ffffffffffffffffffffffffffffffffffffffff163373ffffffffffffffffffffffffffffffffffffffff1614610a35576040517f08c379a0000000000000000000000000000000000000000000000000000000008152600401610a2c9061352a565b60405180910390fd5b80600d600084815260200190815260200160002060040181905550817fbf474ddbe154dcbfd6cf43fa3b38393ecf84a95d17f46c8ba4ec9952b515e0b382604051610a809190612bbc565b60405180910390a25050565b610aa783838360405180602001604052806000815250610f6e565b505050565b6000610ab66107ab565b8210610af7576040517f08c379a0000000000000000000000000000000000000000000000000000000008152600401610aee906135bc565b60405180910390fd5b60088281548110610b0b57610b0a6135dc565b5b90600052602060002001549050919050565b600080610b298361192c565b9050600073ffffffffffffffffffffffffffffffffffffffff168173ffffffffffffffffffffffffffffffffffffffff1603610b9a576040517f08c379a0000000000000000000000000000000000000000000000000000000008152600401610b9190613657565b60405180910390fd5b80915050919050565b60008073ffffffffffffffffffffffffffffffffffffffff168273ffffffffffffffffffffffffffffffffffffffff1603610c13576040517f08c379a0000000000000000000000000000000000000000000000000000000008152600401610c0a906136e9565b60405180910390fd5b600360008373ffffffffffffffffffffffffffffffffffffffff1673ffffffffffffffffffffffffffffffffffffffff168152602001908152602001600020549050919050565b81600d60008481526020019081526020016000206000015414610cb2576040517f08c379a0000000000000000000000000000000000000000000000000000000008152600401610ca9906133b9565b60405180910390fd5b6064816064610cc19190613408565b600d600085815260200190815260200160002060040154610ce2919061343c565b610cec91906134ad565b600d600084815260200190815260200160002060040181905550817f7fcda5232e46c0f760312f7df6d1ee9dfae4d039a28f7e5552edf4053601334d82604051610d369190612bbc565b60405180910390a25050565b610d4a611969565b610d5460006119e7565b565b6000600a60009054906101000a900473ffffffffffffffffffffffffffffffffffffffff16905090565b600d602052806000526040600020600091509050806000015490806001018054610da9906130f4565b80601f0160208091040260200160405190810160405280929190818152602001828054610dd5906130f4565b8015610e225780601f10610df757610100808354040283529160200191610e22565b820191906000526020600020905b815481529060010190602001808311610e0557829003601f168201915b505050505090806002018054610e37906130f4565b80601f0160208091040260200160405190810160405280929190818152602001828054610e63906130f4565b8015610eb05780601f10610e8557610100808354040283529160200191610eb0565b820191906000526020600020905b815481529060010190602001808311610e9357829003601f168201915b5050505050908060030154908060040154905085565b606060018054610ed5906130f4565b80601f0160208091040260200160405190810160405280929190818152602001828054610f01906130f4565b8015610f4e5780601f10610f2357610100808354040283529160200191610f4e565b820191906000526020600020905b815481529060010190602001808311610f3157829003601f168201915b5050505050905090565b610f6a610f636114dd565b8383611aad565b5050565b610f7f610f796114dd565b8361159e565b610fbe576040517f08c379a0000000000000000000000000000000000000000000000000000000008152600401610fb5906132bb565b60405180910390fd5b610fca84848484611c19565b50505050565b600b60009054906101000a900473ffffffffffffffffffffffffffffffffffffffff1673ffffffffffffffffffffffffffffffffffffffff163373ffffffffffffffffffffffffffffffffffffffff1614611060576040517f08c379a00000000000000000000000000000000000000000000000000000000081526004016110579061352a565b60405180910390fd5b600073ffffffffffffffffffffffffffffffffffffffff1661108182610b1d565b73ffffffffffffffffffffffffffffffffffffffff16036110d7576040517f08c379a00000000000000000000000000000000000000000000000000000000081526004016110ce90613755565b60405180910390fd5b6110e081611c75565b807f0a7045c74bf1b0cbff07375fb21ff7c04ea187a00d2a75b20764f01fb5a2416960405160405180910390a250565b606061111b82611492565b6000611125611dc3565b905060008151116111455760405180602001604052806000815250611170565b8061114f84611dda565b6040516020016111609291906137b1565b6040516020818303038152906040525b915050919050565b6000806000600d60008581526020019081526020016000209050806003015481600401549250925050915091565b6000600560008473ffffffffffffffffffffffffffffffffffffffff1673ffffffffffffffffffffffffffffffffffffffff16815260200190815260200160002060008373ffffffffffffffffffffffffffffffffffffffff1673ffffffffffffffffffffffffffffffffffffffff16815260200190815260200160002060009054906101000a900460ff16905092915050565b611242611969565b600073ffffffffffffffffffffffffffffffffffffffff168173ffffffffffffffffffffffffffffffffffffffff16036112b1576040517f08c379a00000000000000000000000000000000000000000000000000000000081526004016112a890613847565b60405180910390fd5b6112ba816119e7565b50565b60006112c9600c611ea8565b60006112d5600c611ebe565b90506040518060a0016040528082815260200187815260200186815260200185815260200184815250600d60008381526020019081526020016000206000820151816000015560208201518160010190816113309190613a13565b5060408201518160020190816113469190613a13565b5060608201518160030155608082015181600401559050506113683382611ecc565b807f05741daf036f6d8a06c5f3575f78693bf43bb4d53b2b35f1545698b8a52fc99887868660405161139c93929190613ae5565b60405180910390a280915050949350505050565b60007f80ac58cd000000000000000000000000000000000000000000000000000000007bffffffffffffffffffffffffffffffffffffffffffffffffffffffff1916827bffffffffffffffffffffffffffffffffffffffffffffffffffffffff1916148061147b57507f5b5e139f000000000000000000000000000000000000000000000000000000007bffffffffffffffffffffffffffffffffffffffffffffffffffffffff1916827bffffffffffffffffffffffffffffffffffffffffffffffffffffffff1916145b8061148b575061148a826120e9565b5b9050919050565b61149b81612153565b6114da576040517f08c379a00000000000000000000000000000000000000000000000000000000081526004016114d190613657565b60405180910390fd5b50565b600033905090565b816004600083815260200190815260200160002060006101000a81548173ffffffffffffffffffffffffffffffffffffffff021916908373ffffffffffffffffffffffffffffffffffffffff160217905550808273ffffffffffffffffffffffffffffffffffffffff1661155883610b1d565b73ffffffffffffffffffffffffffffffffffffffff167f8c5be1e5ebec7d5bd14f71427d1e84f3dd0314c0f7b2291e5b200ac8c7c3b92560405160405180910390a45050565b6000806115aa83610b1d565b90508073ffffffffffffffffffffffffffffffffffffffff168473ffffffffffffffffffffffffffffffffffffffff1614806115ec57506115eb81856111a6565b5b8061162a57508373ffffffffffffffffffffffffffffffffffffffff166116128461064e565b73ffffffffffffffffffffffffffffffffffffffff16145b91505092915050565b8273ffffffffffffffffffffffffffffffffffffffff1661165382610b1d565b73ffffffffffffffffffffffffffffffffffffffff16146116a9576040517f08c379a00000000000000000000000000000000000000000000000000000000081526004016116a090613b95565b60405180910390fd5b600073ffffffffffffffffffffffffffffffffffffffff168273ffffffffffffffffffffffffffffffffffffffff1603611718576040517f08c379a000000000000000000000000000000000000000000000000000000000815260040161170f90613c27565b60405180910390fd5b6117258383836001612194565b8273ffffffffffffffffffffffffffffffffffffffff1661174582610b1d565b73ffffffffffffffffffffffffffffffffffffffff161461179b576040517f08c379a000000000000000000000000000000000000000000000000000000000815260040161179290613b95565b60405180910390fd5b6004600082815260200190815260200160002060006101000a81549073ffffffffffffffffffffffffffffffffffffffff02191690556001600360008573ffffffffffffffffffffffffffffffffffffffff1673ffffffffffffffffffffffffffffffffffffffff168152602001908152602001600020600082825403925050819055506001600360008473ffffffffffffffffffffffffffffffffffffffff1673ffffffffffffffffffffffffffffffffffffffff16815260200190815260200160002060008282540192505081905550816002600083815260200190815260200160002060006101000a81548173ffffffffffffffffffffffffffffffffffffffff021916908373ffffffffffffffffffffffffffffffffffffffff160217905550808273ffffffffffffffffffffffffffffffffffffffff168473ffffffffffffffffffffffffffffffffffffffff167fddf252ad1be2c89b69c2b068fc378daa952ba7f163c4a11628f55a4df523b3ef60405160405180910390a461192783838360016122f2565b505050565b60006002600083815260200190815260200160002060009054906101000a900473ffffffffffffffffffffffffffffffffffffffff169050919050565b6119716114dd565b73ffffffffffffffffffffffffffffffffffffffff1661198f610d56565b73ffffffffffffffffffffffffffffffffffffffff16146119e5576040517f08c379a00000000000000000000000000000000000000000000000000000000081526004016119dc90613c93565b60405180910390fd5b565b6000600a60009054906101000a900473ffffffffffffffffffffffffffffffffffffffff16905081600a60006101000a81548173ffffffffffffffffffffffffffffffffffffffff021916908373ffffffffffffffffffffffffffffffffffffffff1602179055508173ffffffffffffffffffffffffffffffffffffffff168173ffffffffffffffffffffffffffffffffffffffff167f8be0079c531659141344cd1fd0a4f28419497f9722a3daafe3b4186f6b6457e060405160405180910390a35050565b8173ffffffffffffffffffffffffffffffffffffffff168373ffffffffffffffffffffffffffffffffffffffff1603611b1b576040517f08c379a0000000000000000000000000000000000000000000000000000000008152600401611b1290613cff565b60405180910390fd5b80600560008573ffffffffffffffffffffffffffffffffffffffff1673ffffffffffffffffffffffffffffffffffffffff16815260200190815260200160002060008473ffffffffffffffffffffffffffffffffffffffff1673ffffffffffffffffffffffffffffffffffffffff16815260200190815260200160002060006101000a81548160ff0219169083151502179055508173ffffffffffffffffffffffffffffffffffffffff168373ffffffffffffffffffffffffffffffffffffffff167f17307eab39ab6107e8899845ad3d59bd9653f200f220920489ca2b5937696c3183604051611c0c91906129b5565b60405180910390a3505050565b611c24848484611633565b611c30848484846122f8565b611c6f576040517f08c379a0000000000000000000000000000000000000000000000000000000008152600401611c6690613d91565b60405180910390fd5b50505050565b6000611c8082610b1d565b9050611c90816000846001612194565b611c9982610b1d565b90506004600083815260200190815260200160002060006101000a81549073ffffffffffffffffffffffffffffffffffffffff02191690556001600360008373ffffffffffffffffffffffffffffffffffffffff1673ffffffffffffffffffffffffffffffffffffffff168152602001908152602001600020600082825403925050819055506002600083815260200190815260200160002060006101000a81549073ffffffffffffffffffffffffffffffffffffffff021916905581600073ffffffffffffffffffffffffffffffffffffffff168273ffffffffffffffffffffffffffffffffffffffff167fddf252ad1be2c89b69c2b068fc378daa952ba7f163c4a11628f55a4df523b3ef60405160405180910390a4611dbf8160008460016122f2565b5050565b606060405180602001604052806000815250905090565b606060006001611de98461247f565b01905060008167ffffffffffffffff811115611e0857611e07612d6e565b5b6040519080825280601f01601f191660200182016040528015611e3a5781602001600182028036833780820191505090505b509050600082602001820190505b600115611e9d578080600190039150507f3031323334353637383961626364656600000000000000000000000000000000600a86061a8153600a8581611e9157611e9061347e565b5b04945060008503611e48575b819350505050919050565b6001816000016000828254019250508190555050565b600081600001549050919050565b600073ffffffffffffffffffffffffffffffffffffffff168273ffffffffffffffffffffffffffffffffffffffff1603611f3b576040517f08c379a0000000000000000000000000000000000000000000000000000000008152600401611f3290613dfd565b60405180910390fd5b611f4481612153565b15611f84576040517f08c379a0000000000000000000000000000000000000000000000000000000008152600401611f7b90613e69565b60405180910390fd5b611f92600083836001612194565b611f9b81612153565b15611fdb576040517f08c379a0000000000000000000000000000000000000000000000000000000008152600401611fd290613e69565b60405180910390fd5b6001600360008473ffffffffffffffffffffffffffffffffffffffff1673ffffffffffffffffffffffffffffffffffffffff16815260200190815260200160002060008282540192505081905550816002600083815260200190815260200160002060006101000a81548173ffffffffffffffffffffffffffffffffffffffff021916908373ffffffffffffffffffffffffffffffffffffffff160217905550808273ffffffffffffffffffffffffffffffffffffffff16600073ffffffffffffffffffffffffffffffffffffffff167fddf252ad1be2c89b69c2b068fc378daa952ba7f163c4a11628f55a4df523b3ef60405160405180910390a46120e56000838360016122f2565b5050565b60007f01ffc9a7000000000000000000000000000000000000000000000000000000007bffffffffffffffffffffffffffffffffffffffffffffffffffffffff1916827bffffffffffffffffffffffffffffffffffffffffffffffffffffffff1916149050919050565b60008073ffffffffffffffffffffffffffffffffffffffff166121758361192c565b73ffffffffffffffffffffffffffffffffffffffff1614159050919050565b6121a0848484846125d2565b60018111156121e4576040517f08c379a00000000000000000000000000000000000000000000000000000000081526004016121db90613efb565b60405180910390fd5b6000829050600073ffffffffffffffffffffffffffffffffffffffff168573ffffffffffffffffffffffffffffffffffffffff160361222b57612226816125d8565b61226a565b8373ffffffffffffffffffffffffffffffffffffffff168573ffffffffffffffffffffffffffffffffffffffff1614612269576122688582612621565b5b5b600073ffffffffffffffffffffffffffffffffffffffff168473ffffffffffffffffffffffffffffffffffffffff16036122ac576122a78161278e565b6122eb565b8473ffffffffffffffffffffffffffffffffffffffff168473ffffffffffffffffffffffffffffffffffffffff16146122ea576122e9848261285f565b5b5b5050505050565b50505050565b60006123198473ffffffffffffffffffffffffffffffffffffffff166128de565b15612472578373ffffffffffffffffffffffffffffffffffffffff1663150b7a026123426114dd565b8786866040518563ffffffff1660e01b81526004016123649493929190613f70565b6020604051808303816000875af19250505080156123a057506040513d601f19601f8201168201806040525081019061239d9190613fd1565b60015b612422573d80600081146123d0576040519150601f19603f3d011682016040523d82523d6000602084013e6123d5565b606091505b50600081510361241a576040517f08c379a000000000000000000000000000000000000000000000000000000000815260040161241190613d91565b60405180910390fd5b805181602001fd5b63150b7a0260e01b7bffffffffffffffffffffffffffffffffffffffffffffffffffffffff1916817bffffffffffffffffffffffffffffffffffffffffffffffffffffffff191614915050612477565b600190505b949350505050565b600080600090507a184f03e93ff9f4daa797ed6e38ed64bf6a1f01000000000000000083106124dd577a184f03e93ff9f4daa797ed6e38ed64bf6a1f01000000000000000083816124d3576124d261347e565b5b0492506040810190505b6d04ee2d6d415b85acef8100000000831061251a576d04ee2d6d415b85acef810000000083816125105761250f61347e565b5b0492506020810190505b662386f26fc10000831061254957662386f26fc10000838161253f5761253e61347e565b5b0492506010810190505b6305f5e1008310612572576305f5e10083816125685761256761347e565b5b0492506008810190505b612710831061259757612710838161258d5761258c61347e565b5b0492506004810190505b606483106125ba57606483816125b0576125af61347e565b5b0492506002810190505b600a83106125c9576001810190505b80915050919050565b50505050565b6008805490506009600083815260200190815260200160002081905550600881908060018154018082558091505060019003906000526020600020016000909190919091505550565b6000600161262e84610ba3565b6126389190613ffe565b905060006007600084815260200190815260200160002054905081811461271d576000600660008673ffffffffffffffffffffffffffffffffffffffff1673ffffffffffffffffffffffffffffffffffffffff168152602001908152602001600020600084815260200190815260200160002054905080600660008773ffffffffffffffffffffffffffffffffffffffff1673ffffffffffffffffffffffffffffffffffffffff168152602001908152602001600020600084815260200190815260200160002081905550816007600083815260200190815260200160002081905550505b6007600084815260200190815260200160002060009055600660008573ffffffffffffffffffffffffffffffffffffffff1673ffffffffffffffffffffffffffffffffffffffff16815260200190815260200160002060008381526020019081526020016000206000905550505050565b600060016008805490506127a29190613ffe565b90506000600960008481526020019081526020016000205490506000600883815481106127d2576127d16135dc565b5b9060005260206000200154905080600883815481106127f4576127f36135dc565b5b90600052602060002001819055508160096000838152602001908152602001600020819055506009600085815260200190815260200160002060009055600880548061284357612842614032565b5b6001900381819060005260206000200160009055905550505050565b600061286a83610ba3565b905081600660008573ffffffffffffffffffffffffffffffffffffffff1673ffffffffffffffffffffffffffffffffffffffff168152602001908152602001600020600083815260200190815260200160002081905550806007600084815260200190815260200160002081905550505050565b6000808273ffffffffffffffffffffffffffffffffffffffff163b119050919050565b6000604051905090565b600080fd5b600080fd5b60007fffffffff0000000000000000000000000000000000000000000000000000000082169050919050565b61294a81612915565b811461295557600080fd5b50565b60008135905061296781612941565b92915050565b6000602082840312156129835761298261290b565b5b600061299184828501612958565b91505092915050565b60008115159050919050565b6129af8161299a565b82525050565b60006020820190506129ca60008301846129a6565b92915050565b600081519050919050565b600082825260208201905092915050565b60005b83811015612a0a5780820151818401526020810190506129ef565b60008484015250505050565b6000601f19601f8301169050919050565b6000612a32826129d0565b612a3c81856129db565b9350612a4c8185602086016129ec565b612a5581612a16565b840191505092915050565b60006020820190508181036000830152612a7a8184612a27565b905092915050565b6000819050919050565b612a9581612a82565b8114612aa057600080fd5b50565b600081359050612ab281612a8c565b92915050565b600060208284031215612ace57612acd61290b565b5b6000612adc84828501612aa3565b91505092915050565b600073ffffffffffffffffffffffffffffffffffffffff82169050919050565b6000612b1082612ae5565b9050919050565b612b2081612b05565b82525050565b6000602082019050612b3b6000830184612b17565b92915050565b612b4a81612b05565b8114612b5557600080fd5b50565b600081359050612b6781612b41565b92915050565b60008060408385031215612b8457612b8361290b565b5b6000612b9285828601612b58565b9250506020612ba385828601612aa3565b9150509250929050565b612bb681612a82565b82525050565b6000602082019050612bd16000830184612bad565b92915050565b600080600060608486031215612bf057612bef61290b565b5b6000612bfe86828701612b58565b9350506020612c0f86828701612b58565b9250506040612c2086828701612aa3565b9150509250925092565b60008060408385031215612c4157612c4061290b565b5b6000612c4f85828601612aa3565b9250506020612c6085828601612aa3565b9150509250929050565b600060208284031215612c8057612c7f61290b565b5b6000612c8e84828501612b58565b91505092915050565b600060a082019050612cac6000830188612bad565b8181036020830152612cbe8187612a27565b90508181036040830152612cd28186612a27565b9050612ce16060830185612bad565b612cee6080830184612bad565b9695505050505050565b612d018161299a565b8114612d0c57600080fd5b50565b600081359050612d1e81612cf8565b92915050565b60008060408385031215612d3b57612d3a61290b565b5b6000612d4985828601612b58565b9250506020612d5a85828601612d0f565b9150509250929050565b600080fd5b600080fd5b7f4e487b7100000000000000000000000000000000000000000000000000000000600052604160045260246000fd5b612da682612a16565b810181811067ffffffffffffffff82111715612dc557612dc4612d6e565b5b80604052505050565b6000612dd8612901565b9050612de48282612d9d565b919050565b600067ffffffffffffffff821115612e0457612e03612d6e565b5b612e0d82612a16565b9050602081019050919050565b82818337600083830152505050565b6000612e3c612e3784612de9565b612dce565b905082815260208101848484011115612e5857612e57612d69565b5b612e63848285612e1a565b509392505050565b600082601f830112612e8057612e7f612d64565b5b8135612e90848260208601612e29565b91505092915050565b60008060008060808587031215612eb357612eb261290b565b5b6000612ec187828801612b58565b9450506020612ed287828801612b58565b9350506040612ee387828801612aa3565b925050606085013567ffffffffffffffff811115612f0457612f03612910565b5b612f1087828801612e6b565b91505092959194509250565b6000604082019050612f316000830185612bad565b612f3e6020830184612bad565b9392505050565b60008060408385031215612f5c57612f5b61290b565b5b6000612f6a85828601612b58565b9250506020612f7b85828601612b58565b9150509250929050565b600067ffffffffffffffff821115612fa057612f9f612d6e565b5b612fa982612a16565b9050602081019050919050565b6000612fc9612fc484612f85565b612dce565b905082815260208101848484011115612fe557612fe4612d69565b5b612ff0848285612e1a565b509392505050565b600082601f83011261300d5761300c612d64565b5b813561301d848260208601612fb6565b91505092915050565b600080600080608085870312156130405761303f61290b565b5b600085013567ffffffffffffffff81111561305e5761305d612910565b5b61306a87828801612ff8565b945050602085013567ffffffffffffffff81111561308b5761308a612910565b5b61309787828801612ff8565b93505060406130a887828801612aa3565b92505060606130b987828801612aa3565b91505092959194509250565b7f4e487b7100000000000000000000000000000000000000000000000000000000600052602260045260246000fd5b6000600282049050600182168061310c57607f821691505b60208210810361311f5761311e6130c5565b5b50919050565b7f4552433732313a20617070726f76616c20746f2063757272656e74206f776e6560008201527f7200000000000000000000000000000000000000000000000000000000000000602082015250565b60006131816021836129db565b915061318c82613125565b604082019050919050565b600060208201905081810360008301526131b081613174565b9050919050565b7f4552433732313a20617070726f76652063616c6c6572206973206e6f7420746f60008201527f6b656e206f776e6572206f7220617070726f76656420666f7220616c6c000000602082015250565b6000613213603d836129db565b915061321e826131b7565b604082019050919050565b6000602082019050818103600083015261324281613206565b9050919050565b7f4552433732313a2063616c6c6572206973206e6f7420746f6b656e206f776e6560008201527f72206f7220617070726f76656400000000000000000000000000000000000000602082015250565b60006132a5602d836129db565b91506132b082613249565b604082019050919050565b600060208201905081810360008301526132d481613298565b9050919050565b7f455243373231456e756d657261626c653a206f776e657220696e646578206f7560008201527f74206f6620626f756e6473000000000000000000000000000000000000000000602082015250565b6000613337602b836129db565b9150613342826132db565b604082019050919050565b600060208201905081810360008301526133668161332a565b9050919050565b7f4361726420646f6573206e6f742065786973742e000000000000000000000000600082015250565b60006133a36014836129db565b91506133ae8261336d565b602082019050919050565b600060208201905081810360008301526133d281613396565b9050919050565b7f4e487b7100000000000000000000000000000000000000000000000000000000600052601160045260246000fd5b600061341382612a82565b915061341e83612a82565b9250828201905080821115613436576134356133d9565b5b92915050565b600061344782612a82565b915061345283612a82565b925082820261346081612a82565b91508282048414831517613477576134766133d9565b5b5092915050565b7f4e487b7100000000000000000000000000000000000000000000000000000000600052601260045260246000fd5b60006134b882612a82565b91506134c383612a82565b9250826134d3576134d261347e565b5b828204905092915050565b7f556e617574686f72697a65640000000000000000000000000000000000000000600082015250565b6000613514600c836129db565b915061351f826134de565b602082019050919050565b6000602082019050818103600083015261354381613507565b9050919050565b7f455243373231456e756d657261626c653a20676c6f62616c20696e646578206f60008201527f7574206f6620626f756e64730000000000000000000000000000000000000000602082015250565b60006135a6602c836129db565b91506135b18261354a565b604082019050919050565b600060208201905081810360008301526135d581613599565b9050919050565b7f4e487b7100000000000000000000000000000000000000000000000000000000600052603260045260246000fd5b7f4552433732313a20696e76616c696420746f6b656e2049440000000000000000600082015250565b60006136416018836129db565b915061364c8261360b565b602082019050919050565b6000602082019050818103600083015261367081613634565b9050919050565b7f4552433732313a2061646472657373207a65726f206973206e6f74206120766160008201527f6c6964206f776e65720000000000000000000000000000000000000000000000602082015250565b60006136d36029836129db565b91506136de82613677565b604082019050919050565b60006020820190508181036000830152613702816136c6565b9050919050565b7f4361726420646f6573206e6f7420657869737400000000000000000000000000600082015250565b600061373f6013836129db565b915061374a82613709565b602082019050919050565b6000602082019050818103600083015261376e81613732565b9050919050565b600081905092915050565b600061378b826129d0565b6137958185613775565b93506137a58185602086016129ec565b80840191505092915050565b60006137bd8285613780565b91506137c98284613780565b91508190509392505050565b7f4f776e61626c653a206e6577206f776e657220697320746865207a65726f206160008201527f6464726573730000000000000000000000000000000000000000000000000000602082015250565b60006138316026836129db565b915061383c826137d5565b604082019050919050565b6000602082019050818103600083015261386081613824565b9050919050565b60008190508160005260206000209050919050565b60006020601f8301049050919050565b600082821b905092915050565b6000600883026138c97fffffffffffffffffffffffffffffffffffffffffffffffffffffffffffffffff8261388c565b6138d3868361388c565b95508019841693508086168417925050509392505050565b6000819050919050565b600061391061390b61390684612a82565b6138eb565b612a82565b9050919050565b6000819050919050565b61392a836138f5565b61393e61393682613917565b848454613899565b825550505050565b600090565b613953613946565b61395e818484613921565b505050565b5b818110156139825761397760008261394b565b600181019050613964565b5050565b601f8211156139c75761399881613867565b6139a18461387c565b810160208510156139b0578190505b6139c46139bc8561387c565b830182613963565b50505b505050565b600082821c905092915050565b60006139ea600019846008026139cc565b1980831691505092915050565b6000613a0383836139d9565b9150826002028217905092915050565b613a1c826129d0565b67ffffffffffffffff811115613a3557613a34612d6e565b5b613a3f82546130f4565b613a4a828285613986565b600060209050601f831160018114613a7d5760008415613a6b578287015190505b613a7585826139f7565b865550613add565b601f198416613a8b86613867565b60005b82811015613ab357848901518255600182019150602085019450602081019050613a8e565b86831015613ad05784890151613acc601f8916826139d9565b8355505b6001600288020188555050505b505050505050565b60006060820190508181036000830152613aff8186612a27565b9050613b0e6020830185612bad565b613b1b6040830184612bad565b949350505050565b7f4552433732313a207472616e736665722066726f6d20696e636f72726563742060008201527f6f776e6572000000000000000000000000000000000000000000000000000000602082015250565b6000613b7f6025836129db565b9150613b8a82613b23565b604082019050919050565b60006020820190508181036000830152613bae81613b72565b9050919050565b7f4552433732313a207472616e7366657220746f20746865207a65726f2061646460008201527f7265737300000000000000000000000000000000000000000000000000000000602082015250565b6000613c116024836129db565b9150613c1c82613bb5565b604082019050919050565b60006020820190508181036000830152613c4081613c04565b9050919050565b7f4f776e61626c653a2063616c6c6572206973206e6f7420746865206f776e6572600082015250565b6000613c7d6020836129db565b9150613c8882613c47565b602082019050919050565b60006020820190508181036000830152613cac81613c70565b9050919050565b7f4552433732313a20617070726f766520746f2063616c6c657200000000000000600082015250565b6000613ce96019836129db565b9150613cf482613cb3565b602082019050919050565b60006020820190508181036000830152613d1881613cdc565b9050919050565b7f4552433732313a207472616e7366657220746f206e6f6e20455243373231526560008201527f63656976657220696d706c656d656e7465720000000000000000000000000000602082015250565b6000613d7b6032836129db565b9150613d8682613d1f565b604082019050919050565b60006020820190508181036000830152613daa81613d6e565b9050919050565b7f4552433732313a206d696e7420746f20746865207a65726f2061646472657373600082015250565b6000613de76020836129db565b9150613df282613db1565b602082019050919050565b60006020820190508181036000830152613e1681613dda565b9050919050565b7f4552433732313a20746f6b656e20616c7265616479206d696e74656400000000600082015250565b6000613e53601c836129db565b9150613e5e82613e1d565b602082019050919050565b60006020820190508181036000830152613e8281613e46565b9050919050565b7f455243373231456e756d657261626c653a20636f6e736563757469766520747260008201527f616e7366657273206e6f7420737570706f727465640000000000000000000000602082015250565b6000613ee56035836129db565b9150613ef082613e89565b604082019050919050565b60006020820190508181036000830152613f1481613ed8565b9050919050565b600081519050919050565b600082825260208201905092915050565b6000613f4282613f1b565b613f4c8185613f26565b9350613f5c8185602086016129ec565b613f6581612a16565b840191505092915050565b6000608082019050613f856000830187612b17565b613f926020830186612b17565b613f9f6040830185612bad565b8181036060830152613fb18184613f37565b905095945050505050565b600081519050613fcb81612941565b92915050565b600060208284031215613fe757613fe661290b565b5b6000613ff584828501613fbc565b91505092915050565b600061400982612a82565b915061401483612a82565b925082820390508181111561402c5761402b6133d9565b5b92915050565b7f4e487b7100000000000000000000000000000000000000000000000000000000600052603160045260246000fdfea2646970667358221220d7bd6ebcdce07956a475634e291bb37372fc6400b7e91dd2008c7f1eaa20ad2664736f6c63430008130033",
  "immutableReferences": {},
  "source": "// SPDX-License-Identifier: MIT\npragma solidity ^0.8.19;\n\nimport \"@openzeppelin/contracts/token/ERC721/extensions/ERC721Enumerable.sol\";\nimport \"@openzeppelin/contracts/access/Ownable.sol\";\nimport \"@openzeppelin/contracts/utils/Counters.sol\";\n\ncontract UniqueCards is ERC721Enumerable, Ownable {\n    address private PlayerRegistration;\n    using Counters for Counters.Counter;\n    Counters.Counter private _tokenIds;\n\n    struct Card {\n        uint256 id;\n        string name;\n        string description;\n        uint256 attack;\n        uint256 defense;\n    }\n\n    event CardCreation(\n        uint256 indexed cardId,\n        string name,\n        uint256 attack,\n        uint256 defense\n    );\n    event CardPurchase(\n        address indexed buyer,\n        uint256 indexed cardId,\n        uint256 amount\n    );\n    event CardTrade(\n        uint256 indexed cardId,\n        address indexed from,\n        address indexed to\n    );\n    event CardAttributeIncrease(\n        uint256 indexed cardId,\n        uint256 percentIncrease\n    );\n    event CardDefenseUpdate(uint256 indexed cardId, uint256 newDefense);\n    event CardBurned(uint256 indexed cardId);\n\n    mapping(uint256 => Card) public cards;\n\n    constructor() ERC721(\"UniqueCards\", \"UC\") {}\n\n    function createUniqueCard(\n        string memory name,\n        string memory description,\n        uint256 attack,\n        uint256 defense\n    ) external returns (uint256) {\n        _tokenIds.increment();\n        uint256 newCardId = _tokenIds.current();\n\n        cards[newCardId] = Card({\n            id: newCardId,\n            name: name,\n            description: description,\n            attack: attack,\n            defense: defense\n        });\n\n        _mint(msg.sender, newCardId);\n        emit CardCreation(newCardId, name, attack, defense);\n        return newCardId;\n    }\n\n    function increaseCardAttack(\n        uint256 cardId,\n        uint256 percentIncrease\n    ) external {\n        require(cards[cardId].id == cardId, \"Card does not exist.\");\n        cards[cardId].attack =\n            (cards[cardId].attack * (100 + percentIncrease)) /\n            100;\n        // cards[cardId].defense =\n        //     (cards[cardId].defense * (100 + percentIncrease)) /\n        //     100;\n        emit CardAttributeIncrease(cardId, percentIncrease);\n    }\n\n    function increaseCardDefense(\n        uint256 cardId,\n        uint256 percentIncrease\n    ) external {\n        require(cards[cardId].id == cardId, \"Card does not exist.\");\n        cards[cardId].defense =\n            (cards[cardId].defense * (100 + percentIncrease)) /\n            100;\n        emit CardAttributeIncrease(cardId, percentIncrease);\n    }\n\n    function getCardAttributes(\n        uint256 cardId\n    ) external view returns (uint256 attack, uint256 defense) {\n        Card storage card = cards[cardId];\n        return (card.attack, card.defense);\n    }\n\n    function updateCardDefense(uint256 cardId, uint256 newDefense) external {\n        require(msg.sender == address(PlayerRegistration), \"Unauthorized\"); // Only allow PlayerRegistration contract to call this\n        cards[cardId].defense = newDefense;\n        emit CardDefenseUpdate(cardId, newDefense);\n    }\n\n    function burnCard(uint256 cardId) external {\n        require(msg.sender == address(PlayerRegistration), \"Unauthorized\");\n        require(ownerOf(cardId) != address(0), \"Card does not exist\");\n        _burn(cardId);\n        emit CardBurned(cardId);\n    }\n}\n",
  "sourcePath": "/Users/kartiksehgal/Code/git/BlockchainProject/newBlockchainProject/BlockchainProject/contracts/ERC721SmartContract.sol",
  "compiler": {
    "name": "solc",
    "version": "0.8.19+commit.7dd6d404.Emscripten.clang"
  },
  "schemaVersion": "3.4.16",
  "updatedAt": "2023-12-01T18:40:14.713Z",
  "networkType": "ethereum",
  "devdoc": {
    "events": {
      "Approval(address,address,uint256)": {
        "details": "Emitted when `owner` enables `approved` to manage the `tokenId` token."
      },
      "ApprovalForAll(address,address,bool)": {
        "details": "Emitted when `owner` enables or disables (`approved`) `operator` to manage all of its assets."
      },
      "Transfer(address,address,uint256)": {
        "details": "Emitted when `tokenId` token is transferred from `from` to `to`."
      }
    },
    "kind": "dev",
    "methods": {
      "approve(address,uint256)": {
        "details": "See {IERC721-approve}."
      },
      "balanceOf(address)": {
        "details": "See {IERC721-balanceOf}."
      },
      "getApproved(uint256)": {
        "details": "See {IERC721-getApproved}."
      },
      "isApprovedForAll(address,address)": {
        "details": "See {IERC721-isApprovedForAll}."
      },
      "name()": {
        "details": "See {IERC721Metadata-name}."
      },
      "owner()": {
        "details": "Returns the address of the current owner."
      },
      "ownerOf(uint256)": {
        "details": "See {IERC721-ownerOf}."
      },
      "renounceOwnership()": {
        "details": "Leaves the contract without owner. It will not be possible to call `onlyOwner` functions. Can only be called by the current owner. NOTE: Renouncing ownership will leave the contract without an owner, thereby disabling any functionality that is only available to the owner."
      },
      "safeTransferFrom(address,address,uint256)": {
        "details": "See {IERC721-safeTransferFrom}."
      },
      "safeTransferFrom(address,address,uint256,bytes)": {
        "details": "See {IERC721-safeTransferFrom}."
      },
      "setApprovalForAll(address,bool)": {
        "details": "See {IERC721-setApprovalForAll}."
      },
      "supportsInterface(bytes4)": {
        "details": "See {IERC165-supportsInterface}."
      },
      "symbol()": {
        "details": "See {IERC721Metadata-symbol}."
      },
      "tokenByIndex(uint256)": {
        "details": "See {IERC721Enumerable-tokenByIndex}."
      },
      "tokenOfOwnerByIndex(address,uint256)": {
        "details": "See {IERC721Enumerable-tokenOfOwnerByIndex}."
      },
      "tokenURI(uint256)": {
        "details": "See {IERC721Metadata-tokenURI}."
      },
      "totalSupply()": {
        "details": "See {IERC721Enumerable-totalSupply}."
      },
      "transferFrom(address,address,uint256)": {
        "details": "See {IERC721-transferFrom}."
      },
      "transferOwnership(address)": {
        "details": "Transfers ownership of the contract to a new account (`newOwner`). Can only be called by the current owner."
      }
    },
    "version": 1
  },
  "userdoc": {
    "kind": "user",
    "methods": {},
    "version": 1
  }
}